:020000042400D6
:1000000000000220410A0024350A00241D41012479
:10001000350A0024350A0024350A002400000000B7
:10002000000000000000000000000000350A00246D
:10003000350A002400000000350A0024A1400124F4
:10004000350A0024350A0024350A0024350A002424
:10005000350A0024350A0024350A0024350A002414
:10006000350A0024350A0024350A00247D3C012489
:10007000893C0124350A0024953C0124A13C01243B
:10008000CD050224852C0124350A0024350A0024DC
:10009000350A0024350A0024350A0024350A0024D4
:1000A000350A0024350A0024350A0024350A0024C4
:1000B00049F7012455F7012461F70124B92C0124E3
:1000C000350A0024C52C0124350A0024E9EF012457
:1000D000F5EF0124DD0302240D040224450402246B
:1000E000350A0024350A002400000000350A0024E7
:1000F000350A0024350A0024350A0024350A002474
:10010000350A0024E12C02246DF7012401F00124BA
:100110007D040224B504022475B70024350A0024A6
:10012000350A0024350A002425F0012459F0012461
:1001300001060224350A0024350A0024350A002469
:1001400000000000000000000000000000000000AF
:10015000350A0024350A0024350A0024ED0402245F
:10016000D12C0124350A0024B1400124D5400124BA
:10017000350A0024F9400124350A0024350A0024F8
:10018000350A0024350A0024250502245D050224D1
:100190000DF0012419F00124350A0024350A002449
:1001A000350A0024350A0024350A0024350A0024C3
:1001B000BD380124350A0024350A0024350A0024FC
:1001C000350A0024350A00246925012475250124F7
:1001D000350A002481250124350A0024350A00242B
:1001E000350A0024350A0024350A0024350A002483
:1001F000350A0024350A0024350A0024350A002473
:10020000350A0024350A0024350A0024350A002462
:10021000350A0024350A0024350A0024350A002452
:10022000350A0024350A0024350A002400000000A5
:10023000350A0024350A002400000000350A002495
:10024000350A0024350A0024350A0024350A002422
:10025000350A0024350A0024350A0024350A002412
:10026000350A0024350A0024350A0024350A002402
:10027000350A0024350A00249505022400000000F8
:10028000350A0024350A0024350A00240000000045
:0802900000000000350A002403
:1002A00010B5054C237833B9044B13B10448AFF3B0
:1002B00000800123237010BDC8170020000000003B
:1002C000D46E022408B5034B1BB103490348AFF3B6
:1002D000008008BD00000000CC170020D46E02246E
:1002E000034613F8012B002AFBD1181A0138704776
:1002F00001F0FF01102A2BDB10F0070F08D010F8D7
:10030000013B013A8B422DD010F0070F42B3F6D1DA
:10031000F0B441EA012141EA014122F007047FF0F3
:1003200000070023F0E80256083C85EA010586EA4A
:10033000010685FA47F5A3FA87F586FA47F6A5FA86
:1003400087F68EB9EED1F0BC01F0FF0102F0070292
:1003500032B110F8013B013A83EA010313B1F8D13D
:100360000020704701387047002D06BF354603381E
:10037000073815F0010F07D1013015F4807F02BF57
:10038000013015F4C03F0130F0BC0138704700BFA8
:1003900081F0004102E000BF83F0004330B54FEA36
:1003A00041044FEA430594EA050F08BF90EA020FA3
:1003B0001FBF54EA000C55EA020C7FEA645C7FEA36
:1003C000655C00F0E2804FEA5454D4EB5555B8BF59
:1003D0006D420CDD2C4480EA020281EA030382EACA
:1003E000000083EA010180EA020281EA0303362D5C
:1003F00088BF30BD11F0004F4FEA01314FF4801C2F
:100400004CEA113102D0404261EB410113F0004F40
:100410004FEA03334CEA133302D0524263EB4303F7
:1004200094EA050F00F0A780A4F10104D5F1200E95
:100430000DDB02FA0EFC22FA05F2801841F10001F0
:1004400003FA0EF2801843FA05F359410EE0A5F1C4
:1004500020050EF1200E012A03FA0EFC28BF4CF0F5
:10046000020C43FA05F3C01851EBE37101F00045AB
:1004700007D54FF0000EDCF1000C7EEB00006EEBB8
:100480000101B1F5801F1BD3B1F5001F0CD3490842
:100490005FEA30004FEA3C0C04F101044FEA445299
:1004A00012F5800F80F09A80BCF1004F08BF5FEA20
:1004B000500C50F1000041EB045141EA050130BD00
:1004C0005FEA4C0C404141EB0101013C28BFB1F512
:1004D000801FE9D291F0000F04BF01460020B1FA5D
:1004E00081F308BF2033A3F10B03B3F120020CDA30
:1004F0000C3208DD02F1140CC2F10C0201FA0CF00E
:1005000021FA02F10CE002F11402D8BFC2F1200C72
:1005100001FA02F120FA0CFCDCBF41EA0C01904028
:10052000E41AA2BF01EB0451294330BD6FEA040471
:100530001F3C1CDA0C340EDC04F11404C4F120025C
:1005400020FA04F001FA02F340EA030021FA04F36E
:1005500045EA030130BDC4F10C04C4F1200220FAC5
:1005600002F001FA04F340EA0300294630BD21FA03
:1005700004F0294630BD94F0000F83F4801306BFC9
:1005800081F480110134013D4EE77FEA645C18BFBD
:100590007FEA655C29D094EA050F08BF90EA020F54
:1005A00005D054EA000C04BF1946104630BD91EA4C
:1005B000030F1EBF0021002030BD5FEA545C05D14F
:1005C0004000494128BF41F0004130BD14F580048E
:1005D0003CBF01F5801130BD01F0004545F0FE4102
:1005E00041F470014FF0000030BD7FEA645C1ABF37
:1005F000194610467FEA655C1CBF0B46024650EA6E
:10060000013406BF52EA033591EA030F41F4002199
:1006100030BD00BF90F0000F04BF0021704730B51F
:100620004FF4806404F132044FF000054FF00001F4
:1006300050E700BF90F0000F04BF0021704730B5B5
:100640004FF4806404F1320410F0004548BF40428A
:100650004FF000013EE700BF42004FEAE2014FEADF
:1006600031014FEA02701FBF12F07F4393F07F4FBA
:1006700081F06051704732F07F4208BF704793F0BD
:100680007F4F04BF41F40021704730B54FF46074D0
:1006900001F0004521F000411CE700BF50EA0102D3
:1006A00008BF704730B54FF000050AE050EA01027C
:1006B00008BF704730B511F0004502D5404261EBEC
:1006C00041014FF4806404F132045FEA915C3FF42D
:1006D000D8AE4FF003025FEADC0C18BF03325FEACA
:1006E000DC0C18BF033202EBDC02C2F1200300FA7B
:1006F00003FC20FA02F001FA03FE40EA0E0021FAA0
:1007000002F11444BDE600BF53B94AB9002908BF3D
:1007100000281CBF4FF0FF314FF0FF3000F088B9C8
:10072000ADF1080C6DE904CE00F006F8DDF804E048
:10073000DDE9022304B070472DE9F047089D8E469D
:1007400004468846002B4AD18A42174662D9B2FA3B
:1007500082F64EB1C6F1200301FA06F820FA03F33F
:10076000B74043EA0808B4404FEA174E1FFA87FC27
:10077000B8FBFEF1230C0EFB118843EA084301FB92
:100780000CF29A4209D9FB1801F1FF3080F0EA809F
:100790009A4240F2E78002393B449A1AA3B2B2FB74
:1007A000FEF00EFB102243EA024300FB0CFC9C45CA
:1007B00009D9FB1800F1FF3280F0D6809C4540F249
:1007C000D3803B44023840EA0140A3EB0C030021F4
:1007D0001DB1F3400022C5E90032BDE8F0878B422D
:1007E00005D90DB1C5E9000100210846F5E7B3FAC6
:1007F00083F1002946D1734502D3824200F205817C
:10080000841A6EEB030201209046002DE5D0C5E965
:100810000048E2E7002A00F09080B2FA82F6002E4B
:1008200040F0A4808A1A030C4FEA174E80B2BCB283
:100830000121B2FBFEFC0EFB1C2243EA024304FB37
:100840000CF29A4207D9FB180CF1FF3802D29A42F7
:1008500000F2E080C4469B1AB3FBFEF20EFB12339B
:1008600040EA034302FB04F49C4207D9FB1802F15F
:10087000FF3002D29C4200F2CA8002461B1B42EAB1
:100880000C40A5E7C1F120068B4022FA06F71F4372
:100890000EFA01F420FA06F32EFA06FE4FEA174983
:1008A000234300FA01F81FFA87FCBEFBF9F01C0C89
:1008B00009FB10EE44EA0E4400FB0CFEA64502FACA
:1008C00001F209D93C1900F1FF3A80F09C80A6455D
:1008D00040F2998002383C44A4EB0E041FFA83FED8
:1008E000B4FBF9F309FB13444EEA044403FB0CFC8C
:1008F000A44508D93C1903F1FF3E80F08280A4454D
:100900007FD9023B3C4443EA0040A4EB0C04A0FB2B
:1009100002EC64457346E14662D35FD05DB1B8EB4B
:10092000030264EB090404FA06F622FA01F31E43FB
:10093000CC40C5E9006400214FE7B1FBF2FC010C9B
:1009400041EA0E4180B240EA01423B4638463C460D
:10095000B846BE462026B1FBF7F1A2EB080241EAF9
:100960000C4166E7014618E710462CE7C6F1200265
:100970002EFA02F3B740B14020FA02F24FEA174EC6
:100980000A43B3FBFEF8BCB20EFB1833110C41EA6C
:10099000034108FB04F9B04089454FEA104380B297
:1009A0003ED9791808F1FF3C01D289451FD8A1EB47
:1009B0000901B1FBFEF909FB04F80EFB191192B213
:1009C00042EA0142424529D2BA1809F1FF31C4D2A4
:1009D0004245C2D2A9F102013A44BEE7F0459DD298
:1009E000BEEB02036CEB070C0138E14696E7A7EB80
:1009F00009094944A8F1020CB1FBFEF909FB04F80E
:100A0000DBE773467FE7504666E70846FDE63B4472
:100A1000023A33E7ACF1020C3B441CE749469CE741
:100A2000A1EB0901C446B1FBFEF909FB04F8C4E7D8
:100A3000704700BF684620F007018D46FEE700BF03
:100A40000A480B4A904208B503D0121A094924F00B
:100A500054FA0948094A904203D0121A002124F09E
:100A600091F924F023FA0AF093FEFEE7000000203B
:100A7000C4170020106F0224C81700201CA20020F9
:100A8000704700BF704700BF704700BF704700BF8E
:100A9000704700BF704700BF704700BF704700BF7E
:100AA000704700BFF0B5172883B0089FCDE9001349
:100AB00000F2D080A14B1B5C002B00F0CB80A04D3E
:100AC00000242E462B4603E00134202C00F0028146
:100AD00019782C330029F7D19A4B53F82030002F86
:100AE00000F0BA80BB4240F2B780DDED007A2C21E5
:100AF000DFED956A962AB8EEE77A01FB04618F6212
:100B0000C7EE267A00F2C18007EE102A9FED8F6AA9
:100B1000B8EE477AC7EE066A8D4A810002EB800282
:100B2000B5EEC00A92ED007A67EEA67AF1EE10FA01
:100B300067EE877A00F1A680B7EE087AB4EE470A2E
:100B4000F1EE10FA37FE000A9DED017ABFEE006A61
:100B5000DFED7E5A67EE807AF8EEC76A7D4A0A4476
:100B600086EEA57AD2ED006A37EE267AB4EEC67A22
:100B7000F1EE10FA75D59FED787A27EE877A2C2260
:100B8000764D04FB02F22D5CB71878700127B7543C
:100B9000002D63D0013B06EE903AF8EE666A704A8B
:100BA0002C230A4403FB04631268C3ED016A9A60B4
:100BB0006C4AC3ED037A125C83ED047AAAB36A4BE4
:100BC0000B44D3ED007AF5EEC07AF1EE10FA66D55B
:100BD000F7EE007A0125F0EE676A2C23B7EE007A73
:100BE00003FB0463C3ED057AC3ED066A5F4B0B4458
:100BF000D3ED007AF4EEC77AF1EE10FA7ED49FEDD1
:100C00005C7AF4EEC77AF1EE10FA7ADC9FED596A5D
:100C1000BFEE007ADFED586A67EE867A67EEA67A55
:100C200087EE270A23F032FA08E0F7EE007A022571
:100C3000B0EE670AC3ED057AC3ED067A4F4B2C225E
:100C400002FB04661A68511C86ED070A86F82050DC
:100C50007262196003B0F0BD1F4646E7DFED3E6AE1
:100C60009DE7F7EE006AB4EEE67AF1EE10FA0FDCDB
:100C7000B5EEC07AF1EE10FA46D537EE267A27EEB9
:100C8000277A7CE79FED340A5EE7F7EE086A43E7D0
:100C9000DFED316AB0EE677A67EEA67A6FE79FED17
:100CA000387AF4EEC77AF1EE10FA37DC9FED357A38
:100CB000F4EEC77AF1EE10FA8AD99FED2E6AB7EEFC
:100CC000007ADFED2D6A67EE867A67EEA67AC7EEC8
:100CD000276A25E000244FF0FF33A4460AE0696A42
:100CE0002C35994238BFA44604F1010438BF0B46A5
:100CF000202C20D069788142F1D1EDE69FED220AC7
:100D000090E79FED220A8DE736EEC76A26EE276A46
:100D10000ADDB0EE677AF0EE467A30E7DFED1C6A66
:100D20000025DFED0D7A58E737EE267A27EE277A91
:100D3000F0EE467A23E76446CEE600BF7C42002010
:100D4000FC3C0020F44200200000FE420000C842AB
:100D5000983C00204C34002000000000543B002050
:100D6000F43A0020602B0020002B0020A02A002055
:100D70000000FA4500803B476F12833AF83C0020A0
:100D80000000FA440AD7233CAAAAAABC3DC32EB647
:100D90003DC32E3710B50446FFF7A2FA032804D945
:100DA000031FE25C1C442E2A01D0002010BD637892
:100DB00003F0DF03572BF8D1A37803F0DF03412BB7
:100DC000F3D1E07800F0DF00A0F15600B0FA80F037
:100DD000400910BD2DE9F04F224E83B08146884670
:100DE000019314463378072B09D91F4A137801332E
:100DF00003F0070313703378013BDBB233701B4FF2
:100E000020221B4D002197F800C005EB4C105FFA23
:100E10008CFB4FEA4C1A23F0B5FF0023220A0AF19B
:100E2000080069F307030199284468F30F2364F36A
:100E30001743240C62F31F634FEA4B12AB5005EBD0
:100E40004B1517222C7123F0C1FF3B78013303F0BF
:100E500007033B7033780133DBB2337003B0BDE876
:100E6000F08F00BF70290020712900207229002016
:100E700074290020172901D9002070472DE9F04F6F
:100E8000ADF2644D0D46012201468DA80FF09AF98E
:100E900020B100200DF2644DBDE8F08F01AB2C2293
:100EA00002A98DA80FF08EFA50B9019B2B2B07D900
:100EB000704B029A9A4203D16F4B049A9A4203D024
:100EC0008DA80FF0B3FBE4E70C218DA8BDF81E90B0
:100ED000BDF82A600FF012FC909B083B0C2BEFD959
:100EE0000C2711E0019A072AEAD90D9A8DA80E9CC9
:100EF0009A4213D09299214408340FF0FFFB909B43
:100F00002744083BBB42DBD901AB08220DA98DA8C1
:100F10000FF058FA594B0028E4D0D1E7002CCFD07D
:100F2000F70809FB07F7002FCAD0554BB4FBF7F8B9
:100F3000984528BF9846102E1BD1B9F1010F18D142
:100F4000504B4FEA480250498DA801FB053101ABD7
:100F50000FF038FA019C4D4B640843F82540003CE3
:100F60004B4E8DA818BF012474550FF05FFB705DC8
:100F700090E7BC427BD3424B002403FB05FAA8EB6D
:100F8000040201AB0DA98DA807FB02F2B2F5007FA8
:100F900028BF4FF400720FF015FA002863D1019BAF
:100FA000002B60D0A045B3FBF7FC5CD9BB4258D303
:100FB0006FF0004333490DAA5344234401EB43012E
:100FC0000DE0182E1AD0082E2AD00023013001344B
:100FD0003A4421F8023F844543D9A04543D9102E15
:100FE000EFD1B9F1020FB2F90030EFD1B2F902E05E
:100FF0001EEB030323D443F34F03E7E75378B9F120
:10100000020F92F800E04FEA034343EA0E2392F8FE
:1010100002E043EA0E634FEA234312D01BB2D5E746
:101020001378B9F1020FA3F180034FEA0323F5D13E
:1010300092F801E0AEF1800E13EB0E23DBD5013305
:10104000D9E792F804E092F803B04FEA0E4E4EEA68
:101050000B2E92F805B04EEA0B6E13EB2E43CAD559
:10106000EDE7A0458BD8094B43F8254077E70024EE
:10107000F9E700BF524946465741564564617461DD
:101080000077010034B01EC000EE0200F4420020E0
:101090007C42002070B401221A4D1B4B2A705B6900
:1010A000D80720D519481A4C07E0028892B2B154EB
:1010B0000380154B5B69D90715D5134B154E93F873
:1010C000301003882288C9B2013392B2C3F30A03F5
:1010D0009342EAD1104A138801339BB213800A4B22
:1010E0005B69D907E9D4084B5A69520606D50B4A01
:1010F00040219961138801339BB2138000232B7028
:1011000070BC7047E417002000300140E817002051
:10111000E6170020EC170020682900206A2900202B
:10112000F2EE0E7A08B52DED028BF7EE008AB0EEE6
:10113000608AE0EEA78A28EE800A032823D8DFE839
:1011400000F0392F2002B7EE006AFFEE006AB0EE21
:10115000007AB4EEC60AF0EE667AF8EE005AF1EEC6
:1011600010FA06DD37EE400AB4EEE70AF1EE10FAA7
:1011700004D4B4EEE60AF1EE10FA04D535EEC00A56
:10118000E1E722F0F1FDC0EE287AB6EE007AB7EE84
:10119000000AA8EE070ABDEC028B27EE800A08BD04
:1011A000FFEE007AB4EEE70AF1EE10FA1BD5B0EECE
:1011B000670AE8E7F7EE087AB4EEE70AF1EE10FA0C
:1011C0001ADCFFEE087AB4EEE70AF1EE10FA16D454
:1011D00060EE007AF1EE0B6A67EE807A87EEA67A0F
:1011E00030EE470ACFE7F7EE007AB4EE670AF1EE89
:1011F00010FA37FE800AC6E7B7EE000AC3E7BFEE73
:10120000000AC0E7084BB6EE007AD3ED017A93ED01
:10121000006AC7EE866A77EEE67AF0EEE77A67EE66
:10122000877AC3ED047A7047C03B002070B5174D34
:101230001C46164613465A224FF6FF7E68702A70E7
:10124000A2196C80A98013F8010B4FF0080C80EAFA
:101250000E0E4EF300010E480CF1FF3C08401CF04E
:10126000FF0C80B280EA5E0EF3D19342EBD12246AE
:10127000314608480834A5F806E023F03EFE06494A
:101280000122064B0C801A7070BD00BF00000030B8
:1012900001A0FFFF08000030544300205643002007
:1012A000037F002B00F0C28090ED090AF7EE007A70
:1012B00010B52DED0C8BD0ED069A044690ED038A07
:1012C000B7EE00AAA8EE290AB4EEE70AF1EE10FA8A
:1012D000A8BF30EE670ADFED577A80ED090A20EEED
:1012E000270A23F0EDF8DFED546AD4ED0A7AB7EE61
:1012F000007A28EE268AF0EE408A9FED4E0AE9EE4B
:10130000887A9FED4E8AF4EEC77AF1EE10FAA8BF04
:1013100077EEC77A27EE800AC4ED0A7A23F0D0F878
:1013200094ED08BA94ED00CAB0EE409AF1EE4BCAC3
:101330002CEE080A8CEE800A22F0A8FEDFED406A4F
:1013400094ED057ADFED3F7A236BC6EE87AA94ED24
:1013500001DA83EA433383EA534329EE279A83EA87
:1013600043132363A8EE889A08EE103ABAEEE08A97
:1013700029EE009AB0EE6A0A23F0A2F8F0EE087A9D
:10138000B0EE407AD4ED0EBAB0EE6A0AC7EE27AAE4
:1013900023F05AF994ED0D7A9FED2B6ADFED2B6A5D
:1013A00084ED0E7A70EE007A84ED0D8A8CEE8C0A54
:1013B0006AEEEB8A7AEE8ADA3AEE6AAAEAEE888A6E
:1013C000E7EE878AF0EE687AEBEECA7AC7EEAD8A6E
:1013D00068EE868AE8EE268A22F058FE94ED027ABC
:1013E000F7EE087AB0EE408A79EE8B9A68EE808A42
:1013F00068EE878AE9EE0D8A28EEA70A22F0B4FC8F
:10140000DFED137AC4ED089AB4EEE78AF1EE10FA34
:1014100001D50023237794ED047AD4ED0B7A20EEE6
:10142000070ABDEC0C8B20EE270A10BD9FED090AC0
:10143000704700BFDB0FC940BE9FEA3F9A99193F32
:10144000DB6FF546CDCCCC3E3333333F9A99993E92
:101450006F12833A0000000038B5037D2DED068B36
:10146000002B00F0B280036A044690ED068A002546
:1014700083EA4333DFED578A83EA534383EA431316
:101480000AEE103A0362BAEEE0AA07EE905AB0EE06
:10149000480A9FED517AF8EEE77AA7EEC70AB5EE53
:1014A000C00AF1EE10FA04DBB4EEC70AF1EE10FA4E
:1014B00069D40135042DE8D19FED480AD4ED009A96
:1014C000B4EEC08AF1EE10FA74DAD4ED015A9FED51
:1014D000446ADFED447ADFED446AE5EE867A94ED06
:1014E000037A67EEA67AC7EE87AAB0EE6A0A22F000
:1014F000E7FFB0EE409AB0EE6A0A23F0A5F8B5EE29
:10150000007AF7EE005A94ED0A5A70EE007AD4EDA4
:10151000094A29EE070AC4ED0A4A30EE254A20EEB0
:10152000456A35EEC07AC5EE846AA0EE0A6A67EEB7
:10153000A67A27EE267A67EEA47AE6EE267AE5EE1C
:10154000477A28EEA70AC4ED097A30EE000A22F0A5
:101550000BFC94ED047ADFED257A38EE078A79EEFC
:10156000A79A84ED068AB4EEE98AF1EE10FA17DC48
:1015700094ED027AD4ED077A20EE070ABDEC068BD3
:1015800020EE270A38BDB1EE400ADFED197A80EE71
:10159000270A22F07BFDF6EE007AE0EE278A88E744
:1015A000DFED147AF4EEE78AF1EE10FAE0D50023CD
:1015B0002375DDE738EE400AB1EE400A80EE290AD5
:1015C00022F064FD78EE808A7FE7BDEC068B9FED0C
:1015D000010A38BD000000004260E53B4260E53C86
:1015E00000803B4500009644DB0FC940CDCC4C3D0C
:1015F0006F12033B6F12833A38B590F820300446DF
:101600002DED088B002B40F0E185DFEDA68A04F17B
:101610003000FFF745FE04F16C0030EE288AFFF73A
:101620001BFF94F8A03038EE008A002B40F045856F
:10163000DFED9C7A94F8E43038EE278A002B40F0F6
:10164000B384DFED987A94F8383138EE278A002B8E
:1016500040F05784DFED937A94F8603138EE278AB2
:10166000002B40F0FB83DFED8F7A94F8883138EE61
:10167000278A002B40F0A083DFED8A7A94F8AC3102
:1016800038EE278A002B40F04383DFED867A94F80A
:10169000D03138EE278A002B40F0C882DFED817A06
:1016A00094F8F43138EE278A002B40F06282DFEDA7
:1016B0007D7A94F8183238EE278A002B00F0B38236
:1016C00094ED827AF7EE007A94ED859A94ED880A8B
:1016D000A7EE090AB4EEE70AF1EE10FAA8BF30EE61
:1016E000670ADFED6D7A84ED880A20EE270A22F082
:1016F000E7FED4ED879AF0EE408AD4ED817AB1EE20
:10170000690A80EE270A22F0C1FC9FED657AB4EEEB
:10171000C70A39EE299A68EE807AF1EE10FA84ED64
:10172000879A00F1AA80D4ED836A94ED897A67EEF6
:10173000A67A67EE877A94F83C3238EE278A002B37
:1017400040F0C481DFED577A94F8683238EE278A8A
:10175000002B40F0A980DFED537A94F88C3238EEFC
:10176000278A002B00F00F81D4EDA29AF7EE007AC1
:1017700094EDA57AF6EE005ADFED426AFFEE008A9C
:101780009FED416AA9EEA67AD4EDA4AAF7EE006A0D
:101790009FED3E0AB1EE6A9A89EE000AB4EEE77A4E
:1017A000F1EE10FAA8BF37EE677AD4EDA67AE9EE2B
:1017B000867AB4EEE57A84EDA57ABFEE006AB7EEDC
:1017C000007AF1EE10FAF4EEE67A48BFF0EE668A9F
:1017D000F1EE10FAA8BF77EEE67AF6EE006AC4EDF5
:1017E000A67AF4EEE67AF1EE10FA58BFB0EE467A39
:1017F00078EE878A68EEA68A22F048FCB0EE40AA0E
:1018000094ED9F0A89EE000A22F040FCDFED206A89
:101810003AEE40AAB0EE407AF7EE087AB0EE409A7F
:10182000AAEE267A79EEAA9A68EE878A28EEA70AA7
:1018300022F09AFADFED1A7AC4EDA49AB4EEE79A90
:10184000F1EE10FA15D494EDA07AD4EDA77A20EE3B
:10185000070A94F8A83220EE270A38EE008A002BF7
:1018600040F09A809FED0F0A38EE000ABDEC088B1D
:1018700038BD002384F88C32E5E7002384F8183261
:1018800051E700BF0000074400004844A69B443BCA
:101890009A99993E17B7513ADB0FC9406666E63F01
:1018A0006F12833A00000000D4F87832D4ED9B9A8E
:1018B00083EA43331FED090AB1EE699A83EA534381
:1018C00083EA431589EE000AC4F8785208EE905A6C
:1018D00022F0DCFB94ED99BA94ED967AD4ED9C7AE3
:1018E000FAEEE08AF6EE006AE7EE0B7AB7EE007ADF
:1018F00068EE808AB0EE40AA1FED190A68EEA68A4B
:10190000F4EEC77AF1EE10FAA8BF77EEC77A27EEA9
:10191000800AC4ED9C7A22F0D3FDD4ED957AF0EEE6
:1019200040AA89EE270A22F0B1FB5FED247AEAEEA5
:10193000808AB0EE409A79EE8B9A28EEA70A22F0C0
:1019400013FA1FED297AF0EE407AC4ED9B9AB4EEBB
:10195000C79AF1EE10FA07D5B4EEC7AAF1EE10FA65
:1019600002D5002384F86832D4ED976A94ED9D7A0D
:1019700067EEA67A94F88C3267EE877A38EE278A7B
:10198000002B7FF4F1AE1FED390A94F8A83238EE3F
:10199000008A002B3FF466AFD4EDA99A04F52D73AD
:1019A000CC4A04F53371DFEDCC6AF3EC017AB7EE83
:1019B000007AB2EC016AB7EE009AE6EE297AB6EE4A
:1019C000006AF4EEC77AF1EE10FAA8BF77EEC77A94
:1019D000BFEE007AF4EEC67A43ED017AF1EE10FA2A
:1019E00054BFF0EE477AF0EE497A994276EEA76A54
:1019F000DBD1B1EE086AD4F8CC329FEDB87A83EA35
:101A00004333DFEDB75AC6EE867AD4EDB58A83EA62
:101A1000534394EDB46AD4EDABAA83EA431394ED37
:101A2000B60A39EE875AC4F8CC32B1EE6ABAC7EEBC
:101A3000056A07EE103ABAEEE07A8BEE000AE7EE9E
:101A4000257A77EEA88AC4EDB47A78EEC68A68EE75
:101A5000A68AC4EDB58A22F019FBDFEDA27AB0EEBA
:101A600040AA8BEE270A22F011FB94EDB76ADFED56
:101A70009E6A9FED9E7A79EE407A9FED9D0AA6EED2
:101A8000267A68EE8A8A7AEEA9AA67EEA87A67EEC5
:101A9000877A27EE800A22F067F9DFED967AC4EDA7
:101AA000ABAAB4EEE7AAF1EE10FA02D5002384F84F
:101AB000A83294EDB87AD4EDAC7A20EE070A20EE85
:101AC000270A38EE000ABDEC088B38BD94ED8B7AFE
:101AD000B7EE006ADFED887AD4ED909AE7EE277AC8
:101AE000DFED885AB1EE690A94ED8A7AD4F848326B
:101AF000D4ED948A80EE070A83EA4333D4ED936AE7
:101B000083EA534394ED8E9A83EA431367EEA57AF2
:101B1000C4F8483286EE277A07EE903AFAEEE07A79
:101B200077EEA88AC4ED937A78EEE68A77EE096AB2
:101B3000C7EE267A68EEA78AC4ED948A22F0A6FA48
:101B40009FED727A39EE299AB4EEC70A68EE807A70
:101B500084ED909AF1EE10FA02D5002384F83C321D
:101B6000D4ED8C6A94ED917A67EEA67A67EE877A67
:101B7000EAE594ED7E9A9FED610AF1EE49AAD4ED73
:101B8000798A8AEE800A22F081FA94ED7CAAD4ED5B
:101B90007F7AB7EE087AF7EE006A28EE877AE7EEEA
:101BA000008AE8EE8A7AF4EEE67AB0EE670AF1EEA1
:101BB00010FAA8BF37EEE60ADFED527A84ED7F0A0D
:101BC00020EE270A22F07CFCD4ED787AF0EE409AE1
:101BD0008AEEA70A22F05AFADFED497AF0EE408A3F
:101BE00029EEA70A22F0C0F89FED487A39EE0A9A4A
:101BF000F4EEC78A68EE807A84ED7E9AF1EE10FAF0
:101C000002D5002384F8F431D4ED7A6A94ED807A19
:101C100067EEA67A94F8183267EE877A38EE278A4C
:101C2000002B7FF44DADDFED2C7A84E594ED759AB1
:101C30009FED320AF1EE49AAD4ED708A8AEE800A4D
:101C400022F024FA94ED73AAD4ED767AB7EE087AEE
:101C5000F7EE006A28EE877AE7EE008AE8EE8A7AE5
:101C6000F4EEE67AB0EE670AF1EE10FAA8BF37EEAE
:101C7000E60ADFED247A84ED760A20EE270A22F0C8
:101C80001FFCD4ED6F7AF0EE409A8AEEA70A22F09C
:101C9000FDF9DFED1B7AF0EE408A29EEA70A22F06B
:101CA00063F89FED1A7A39EE0A9AF4EEC78A68EE65
:101CB000807A84ED759AF1EE10FA02D5002384F84B
:101CC000D031D4ED716A94ED777A67EEA67A67EE3B
:101CD000877AE5E44864022400000000C583DE370B
:101CE0009A99193E6F12033B9A99193FCDCCCC3E7D
:101CF0006666E63F6F12033A00409C458FC2753C12
:101D0000CDCC8C3FDB0FC9409A99993F6F12833A33
:101D100094ED6C9A1FED070AF1EE49AAD4ED678A9B
:101D20008AEE800A22F0B2F994ED6AAAD4ED6D7AB7
:101D3000B7EE087AF7EE006A28EE877AE7EE008AB7
:101D4000E8EE8A7AF4EEE67AB0EE670AF1EE10FA7F
:101D5000A8BF37EEE60A5FED157A84ED6D0A20EE36
:101D6000270A22F0ADFBD4ED667AF0EE409A8AEEB7
:101D7000A70A22F08BF95FED1E7AF0EE408A29EE79
:101D8000A70A21F0F1FF1FED1F7A39EE0A9AF4EE4F
:101D9000C78A68EE807A84ED6C9AF1EE10FA02D56B
:101DA000002384F8AC31D4ED686A94ED6E7A67EE66
:101DB000A67A67EE877A6AE494ED639A94ED5E0AF8
:101DC000F1EE49AAD4ED5D8A8AEE800A22F05EF92E
:101DD00094ED61AAD4ED647A78EEA86AB7EE007A41
:101DE000E6EE808AE8EE8A7AF4EEC77AB0EE670A09
:101DF000F1EE10FAA8BF37EEC70A5FED3E7A84ED28
:101E0000640A20EE270A22F05BFBD4ED5C7AF0EE48
:101E1000409A8AEEA70A22F039F95FED457AF0EE92
:101E2000408A29EEA70A21F09FFF1FED487A39EE7C
:101E30000A9AF4EEC78A68EE807A84ED639AF1EE2E
:101E400010FA02D5002384F88831D4ED5F6A94ED4E
:101E5000657A67EEA67A67EE877A0FE494ED599A71
:101E600094ED540AF1EE49AAD4ED538A8AEE800A21
:101E700022F00CF994ED57AAD4ED5A7A78EEA86ABC
:101E8000B7EE007AE6EE808AE8EE8A7AF4EEC77A58
:101E9000B0EE670AF1EE10FAA8BF37EEC70A5FEDA1
:101EA000677A84ED5A0A20EE270A22F009FBD4ED66
:101EB000527AF0EE409A8AEEA70A22F0E7F85FED38
:101EC0006E7AF0EE408A29EEA70A21F04DFF1FED51
:101ED000717A39EE0A9AF4EEC78A68EE807A84ED58
:101EE000599AF1EE10FA02D5002384F86031D4ED4E
:101EF000556A94ED5B7A67EEA67A67EE877AFFF70C
:101F0000B4BB94ED4F9A94ED4A0AF1EE49AAD4ED90
:101F1000498A8AEE800A22F0B9F894ED4DAAD4EDF0
:101F2000507A78EEA86AB7EE007AE6EE808AE8EE9C
:101F30008A7AF4EEC77AB0EE670AF1EE10FAA8BF1B
:101F400037EEC70A5FED917A84ED500A20EE270A3A
:101F500022F0B6FAD4ED487AF0EE409A8AEEA70A5B
:101F600022F094F85FED987AF0EE408A29EEA70A05
:101F700021F0FAFE1FED9B7A39EE0A9AF4EEC78A39
:101F800068EE807A84ED4F9AF1EE10FA02D50023C4
:101F900084F83831D4ED4B6A94ED517A67EEA67A25
:101FA00067EE877AFFF758BBD4ED389A04F1F00357
:101FB000C04A04F58471DFEDC06AF3EC017AB7EE34
:101FC000007AB2EC016AF6EE008AE6EE297ABFEEFC
:101FD000006AF4EEC77AF1EE10FAA8BF77EEC77A7E
:101FE000B7EE007AF4EEE87A43ED017AF1EE10FAFA
:101FF00054BFF0EE467AF0EE477A994276EEA76A41
:10200000DBD1B1EE086AD4F808319FEDAC7A83EAEF
:102010004333DFEDAB5AC6EE867A94ED449A83EAF9
:10202000534394ED436AD4ED3AAA83EA431394ED03
:10203000455A79EE874AC4F80831B1EE6A0AC7EE0C
:10204000246A07EE103ABAEEE07A80EE050AE7EE6F
:10205000257A37EE899AC4ED437A39EE469A29EE0D
:10206000269A84ED449A22F011F8D4ED467A29EEAE
:10207000009AE7EEA88AB0EE40AA7AEEA9AA29EE65
:10208000280A30EE000A21F06FFE9FED8E7AF0EE06
:10209000407AC4ED3AAAB4EEC7AAF1EE10FA02D51E
:1020A000002384F8E430D4ED476A94ED3B7A67EE80
:1020B000A67A67EE877AFFF7C6BAD4ED279A04F1BD
:1020C000AC037C4A04F1C401DFED7B6AF3EC017AD6
:1020D000B7EE007AB2EC016AF6EE008AE6EE297AF3
:1020E000BFEE006AF4EEC77AF1EE10FAA8BF77EE01
:1020F000C77AB7EE007AF4EEE87A43ED017AF1EEB2
:1021000010FA54BFF0EE467AF0EE477A994276EE36
:10211000A76ADBD1B1EE086AD4F8C4309FED677AC4
:1021200083EA4333DFED665AC6EE867A94ED339A3E
:1021300083EA534394ED326AD4ED29AA83EA431328
:1021400094ED345A79EE874AC4F8C430B1EE6A0A85
:10215000C7EE246A07EE103ABAEEE07A80EE050A7E
:10216000E7EE257A37EE899AC4ED327A39EE469A4F
:1021700029EE269A84ED339A21F088FFD4ED357A42
:1021800029EE009AE7EEA88AB0EE40AA7AEEA9AA54
:1021900029EE280A30EE000A21F0E6FD9FED497A8B
:1021A000F0EE407AC4ED29AAB4EEC7AAF1EE10FA17
:1021B00002D5002384F8A030D4ED366A94ED2A7A53
:1021C00067EEA67A67EE877AFFF734BAD0ED098A10
:1021D00090ED020AB1EE68AA90ED018A8AEE000A3B
:1021E00021F054FFD4ED07AAD4ED0A7AB2EE007ABA
:1021F000F7EE006A28EE077AA7EE008AE8EE2A7A60
:10220000F4EEE67AB0EE670AF1EE10FAA8BF37EE08
:10221000E60ADFED2D7A84ED0A0A20EE270A22F085
:102220004FF9D4ED037AB0EE409A8AEE270A21F0F6
:102230002DFFDFED267AB0EE408A28EEA70A22F0C5
:102240003FF9D4ED007AF0EE409A8AEE270A21F0A9
:102250001DFFDFED1F5A94ED046A68EE297AF0EE57
:10226000086AB7EE007AA7EEA59AB0EE408AA6EE0D
:10227000267A78EEAA8A29EE070A21F075FDDFEDAD
:10228000117AC4ED098AB4EEE78AF1EE10FA02D5AC
:10229000002384F8203028EE008A94ED057AD4EDEE
:1022A0000B7ADFED058A28EE078AE8EE278AFFF72A
:1022B000AEB900BF4864022400000000C583DE37C9
:1022C0009A99193E6F12833ADB0FC940959EEB45F0
:1022D0009A99993E38B5037D2DED068B002B00F0C1
:1022E000B780036A054690ED068A002483EA4333EB
:1022F000DFED5A8A83EA534383EA431309EE903AA7
:102300000362FAEEE09A02E00134062C22D007EED6
:10231000904AB0EE480A9FED527AF8EEE77AA7EEBF
:10232000C70AB5EEC00AF1EE10FAEDDBB4EEC70A4B
:10233000F1EE10FAE8D5B1EE400ADFED4A7A013449
:1023400080EE270A21F0A2FEDFED477A062CE0EEB0
:10235000278ADCD1DFED457A95ED009AB4EEE78A65
:10236000F1EE10FA69DAD5ED015A9FED416ADFED21
:10237000417ADFED416AE5EE867A95ED037A67EE04
:10238000A67AC7EE87AAB0EE6A0A22F099F8B0EEF4
:1023900040AAB0EE6A0A22F057F9F1EE046AB7EEED
:1023A000005AD5ED0A4A70EE007A95ED094A8AEE98
:1023B000267A85ED0A4AF0EE043A37EE053A67EEE2
:1023C000645A75EE476A85EE036AE7EE295A67EEAE
:1023D000867A26EE867A67EE847AE5EE867AE4EEF1
:1023E000C77A28EEA70AC5ED097A20EE230A21F064
:1023F000BBFC95ED047ADFED217A38EE078A39EEE1
:10240000279A85ED068AB4EEC98AF1EE10FA0ADC45
:1024100095ED027AD5ED077A20EE070ABDEC068B22
:1024200020EE270A38BDDFED167AF4EEE78AF1EEEA
:1024300010FAEDD500232B75EAE778EE677AB1EE56
:10244000670A80EE090A21F021FE78EE808A8AE789
:10245000BDEC068B9FED010A38BD00BF00000000F7
:102460000AD7A33BA69BC43ACDCCCC3E8FC2F53C49
:1024700000007A450000E144DB0FC9408FC2753D82
:102480006F12833A0A2925D8DFE811F025003F00B2
:102490005E007B00A700D000EA0003011C0144019C
:1024A0000B00DFEDC17A0123B4EEE70AC0ED917AAB
:1024B00080F84032C0ED927AF1EE10FA00F17081AE
:1024C000F7EE007AB4EE670AF1EE10FA37FE800AF2
:1024D00080ED930A7047DFEDB47A0123B4EEE70A8A
:1024E000C0ED097A80F82030C0ED0A7AF1EE10FADA
:1024F00000F15381F7EE007AB4EE670AF1EE10FABC
:1025000037FE800A80ED0B0A7047DFEDA77A0123C2
:10251000B4EEE70AC0ED147A80F84C30C0ED167ABC
:10252000F1EE10FAC0ED157A00F13481F7EE007A81
:10253000B4EE670AF1EE10FA37FE800A002380ED50
:10254000170A836643667047DFED977A0123B4EE7E
:10255000E70A80F88030C0ED217AF1EE10FA00F140
:102560001681F7EE007AB4EE670AF1EE10FA37FE44
:10257000800A002380ED220AC0F89430C0F8903021
:102580007047DFED897A00220123B4EEE70A80F874
:10259000E42080F8A030C0ED297AF1EE10FA00F1C5
:1025A000F380F7EE007AB4EE670AF1EE10FA37FE28
:1025B000800A002380ED2A0AC0F8AC30C0F8B030A1
:1025C000C0F8B430C0F8B830C0F8BC30C0F8C03083
:1025D000C0F8CC30C0F8C8307047DFED737A012303
:1025E000B4EEE70A80F8E430C0ED3A7AF1EE10FA82
:1025F00000F1C780F7EE007AB4EE670AF1EE10FA48
:1026000037FE800A002380ED3B0AC0F8F030C0F8A6
:10261000F430C0F8F830C0F8FC30C0F80031C0F831
:102620000431C0F81031C0F80C317047DFED5E7A2C
:102630000123B4EEE70AC0ED507A80F83C31C0EDDA
:10264000517AF1EE10FA00F19980F7EE007AB4EECB
:10265000670AF1EE10FA37FE800A80ED520A7047E1
:10266000DFED517A0123B4EEE70AC0ED5B7A80F822
:102670006831C0ED5C7AF1EE10FA7CD4F7EE007AA6
:10268000B4EE670AF1EE10FA37FE800A80ED5D0ABB
:102690007047DFED457A0123B4EEE70AC0ED667AB4
:1026A00080F89431C0ED677AF1EE10FA60D4F7EE5D
:1026B000007AB4EE670AF1EE10FA37FE800A80ED78
:1026C000680A7047DFED387A0123B4EEE70A80F834
:1026D000AC31C0ED6C7AF1EE10FA46D4F7EE007A28
:1026E000B4EE670AF1EE10FA37FE800A002380ED9F
:1026F0006D0AC0F8B831C0F8BC31C0F8C031C0F8BC
:10270000C431C0F8C831C0F8CC31C0F8D831C0F8F5
:10271000D4317047DFED247A0123B4EEE70A80F864
:10272000F031C0ED7D7AF1EE10FA1BD4F7EE007AAD
:10273000B4EE670AF1EE10FA37FE800A002380ED4E
:102740007E0AC0F8FC31C0F80032C0F80432C0F88C
:102750000832C0F80C32C0F81032C0F81C32C0F891
:1027600018327047B0EE670AE8E7B0EE670ABDE7D7
:10277000B0EE670AA3E7B0EE670A87E7B0EE670A34
:102780006BE7B0EE670A3DE7B0EE670A11E7B0EE1F
:10279000670AEEE6B0EE670AD0E6B0EE670AB1E689
:1027A000B0EE670A94E600BF0000000038B590F86C
:1027B000203004462DED0A8B002B40F0F780DFED32
:1027C000E89A94F84C30002B00F09B8094ED129A1C
:1027D000F7EE007A94ED0F8A94ED150AA8EE090A37
:1027E000B4EEE70AF1EE10FAA8BF30EE670ADFEDAB
:1027F000DD7A84ED150A20EE270A21F061FEDFED77
:10280000DA6AD4ED167AB7EE007A28EE268AF0EE70
:1028100040AA9FEDD40AE9EE087AF4EEC77AF1EE09
:1028200010FAA8BF77EEC77A27EE800AC4ED167AB1
:1028300021F046FE94ED0CBA94ED14CAF0EE408AF5
:10284000DFEDCA7AF1EE4CBA2BEE270A8BEE800A46
:1028500021F01CFCDFEDC67A236E94ED1A8A83EA20
:102860004333D4ED196A39EE275ADFEDC25A83EAB1
:1028700053439FEDC16A68EEA58A87EE857A83EAA5
:10288000431307EE903A2366FAEEE07AB0EE40AAE0
:102890008BEE8B0A94ED0DBAC4ED197A37EE888A67
:1028A000EAEE868A38EE668A28EE078A84ED1A8A6E
:1028B00021F0ECFB28EE008A94ED0E7AF7EE087A10
:1028C0002AEE28AA28EE078AF0EE40AA39EE0C9AE2
:1028D00028EE278AAAEE0B8A38EE080A21F044FA7D
:1028E000DFEDA67A84ED149AF4EEE7AAF1EE10FA81
:1028F00058D494ED107AD4ED177A20EE070AE0EE62
:10290000279A04F16C00FFF7E5FC94F8A03030EE54
:10291000298A002B40F06584DFED917A94F8E43049
:1029200038EE278A002B40F0D183DFED8D7A94F8C2
:102930003C3138EE278A002B40F05E83DFED887A49
:1029400094F8683138EE278A002B40F0EB82DFEDF7
:10295000847A94F8943138EE278A002B40F05E8216
:10296000DFED7F7A94F8AC3138EE278A002B40F007
:10297000B981DFED7B7A94F8F03138EE279A002B9D
:1029800040F00881DFED767A94F8403279EE278ABC
:10299000002B40F083809FED720A38EE800ABDEC78
:1029A0000A8B38BD002384F84C30A2E7D0ED099A99
:1029B00090ED020AB1EE69AA90ED018A8AEE000A52
:1029C00021F064FBD4ED0A7AD4ED07AAB2EE087ABE
:1029D000F7EE006A28EE077AA7EE008AE8EE2A7A78
:1029E000F4EEE67AB0EE670AF1EE10FAA8BF37EE21
:1029F000E60ADFED5C7A84ED0A0A20EE270A21F070
:102A00005FFDDFED5E7AF0EE408A8AEE270A21F064
:102A10003DFBDFED5B7AB0EE408A29EEA70A21F09C
:102A20004FFD94ED00BA28EE008AD4ED037A8AEEC9
:102A30000B0A28EE278A21F029FBD4ED04BAB0EE68
:102A4000409ADFED507AF4EEE7BAF1EE10FA00F3B7
:102A5000538478EE888A9FED4C0A28EE800A21F094
:102A600083F9DFED466A39EEAA7AB4EEE69AF0EE23
:102A7000407A84ED097AF1EE10FA02D5002384F849
:102A8000203067EE897AD4ED056A94ED0B7ADFED9C
:102A9000349A67EEA67AE7EE879A92E6D4F8503237
:102AA00094ED91AA83EA43339FED380AB1EE4A9A36
:102AB00083EA534383EA431589EE000AC4F850526F
:102AC00021F0E4FAD4ED8C5AD4ED8FAA07EE905A97
:102AD00094ED927AF7EE006AFAEEE07A9FED2C6AB6
:102AE000A5EEAA7A67EE807A9FED1E0A27EE868A07
:102AF000B4EEE67AF1EE10FAA8BF37EE667A27EE6A
:102B0000000A84ED927A21F0DBFCD4ED8B7AF0EEB2
:102B1000409A89EE270A21F0B9FAA9EE808AB0EE30
:102B2000409A38EE080A21F01FF99FED147A7AEEE8
:102B30002A7AB4EEC79AC4ED917AF1EE10FA02D572
:102B4000002384F8403294ED8D7AD4ED937A20EE10
:102B5000070A20EE270A38EE800ABDEC0A8B38BD42
:102B600000000000DB0FC940CDCCCC3FCDCCCC3E2B
:102B7000C5835E389A99993E3333333F6F12833A57
:102B80001D4393460AD7233C6666E63F6F12033A1D
:102B90009A99193FD4ED7BAA04F5FE73D44A04F543
:102BA0000571DFEDD46AF3EC017AB7EE007AB2EC8E
:102BB000016AB6EE00AAF7EE008AE6EE2A7AF4EE93
:102BC000C77AF1EE10FAA8BF77EEC77ABFEE007AA7
:102BD000F4EECA7A43ED017AF1EE10FA54BFF0EE4A
:102BE000477AF0EE687A8B4276EEA76ADBD1F1EE97
:102BF000087AD4F814329FEDC07A83EA43339FED0C
:102C0000BFCA86EEA76ADFEDBEBA83EA5343D4EDAE
:102C1000877AD4ED864A83EA431394ED7DBA9FED1B
:102C2000B90A7AEE876AF1EE4B9A87EE265A07EEDA
:102C3000103A83EA433383EA5343F8EEC76A83EAE0
:102C4000431589EE800AC4F8145266EE8C5AF0EEF1
:102C5000466AE5EEAB6A36EEA78AC4ED866A38EEC0
:102C6000648A28EE058A84ED878A21F00FFAD4ED74
:102C7000887A78EEC08A89EEA70A21F007FA07EE73
:102C8000905A94ED897ADFEDA56AF8EEE77AE7EEDF
:102C90000A6AF0EE409A67EE8C7AA7EEAB8A60EE95
:102CA000087A67EEA87A27EEA60A30EE000A21F02D
:102CB0005BF8DFED956A3BEE2A7AF4EEE69AF0EEE9
:102CC000407A84ED7D7AF1EE10FA02D5002384F883
:102CD000F031D4ED8A6A94ED7E7A67EEA67A67EEDB
:102CE000877A51E694ED6AAA04F5DC73804A04F50C
:102CF000E871DFED806AF3EC017AB7EE007AB2ECAE
:102D0000016AF7EE009AE6EE0A7AB6EE006AF4EE91
:102D1000C77AF1EE10FAA8BF77EEC77ABFEE007A55
:102D2000F4EEC67A43ED017AF1EE10FA54BFF0EEFC
:102D3000477AF0EE697A994276EEA76ADBD1B1EE76
:102D4000087AD4F8D031DFED6C7A83EA43339FED13
:102D50006C5A86EE876AD4ED768A83EA5343D4EDC3
:102D6000755A94ED6CBA83EA43139FED690A7AEEC3
:102D7000276AC4F8D031B1EE4B9A87EEA67A07EEF7
:102D8000903AFAEEE07A89EE000AF0EE466AE7EE53
:102D9000856A76EEA88AC4ED756A78EEE58A68EEF3
:102DA000878AC4ED768A21F071F9D4ED777AF0EE56
:102DB00040AA89EE270A21F069F99FED547A94ED33
:102DC000786ADFED566AB0EE409AE6EE076A79EE71
:102DD000EA7A68EE898AB7EE080A67EEA87A67EEA3
:102DE000A67A27EE800A20F0BFFFDFED476A3BEEB0
:102DF0000A7AB4EEE69AF0EE407A84ED6C7AF1EE5F
:102E000010FA02D5002384F8AC31D4ED796A94ED40
:102E10006D7A67EEA67A67EE877AACE5D4ED669AAE
:102E200094ED600AB1EE69AAD4ED5F8ADFED38AAAD
:102E30008AEE000A21F02AF994ED64BAD4ED677A9B
:102E4000B0EE087AF7EE006A28EE877AE7EE008A9D
:102E5000E8EE8B7AF4EEE67AB0EE670AF1EE10FA5D
:102E6000A8BF37EEE60ADFED2B7A84ED670A20EE85
:102E7000270A21F025FBB0EE409A8AEE2A0A21F0BB
:102E800005F9DFED257AF0EE408A29EEA70A21F058
:102E900017FB94ED5E7A68EE808AD4ED617A8AEE53
:102EA000070A68EEA78A21F0F1F89FED1C7ADFEDA2
:102EB0001C7AA8EE879AF0EE408A29EE270A20F0C5
:102EC00053FFF4EEEA8A39EE8B7A68EE807AF1EEFF
:102ED00010FA84ED667A02D5002384F89431D4ED9B
:102EE000626A94ED687A67EEA67A67EE877A39E5CA
:102EF00030640224000000000403B23700000030F8
:102F0000CDCC4C3EA69B443B6F12033ACDCCCC3E7D
:102F10006F12833ADB0FC9401D4313469A99993EBD
:102F20003333B33FD4ED5B9A94ED550AB1EE69AA01
:102F3000D4ED548A5FED0AAA8AEE000A21F0A6F8C1
:102F400094ED59BAD4ED5C7AB0EE087AF7EE006AE7
:102F500028EE877AE7EE008AE8EE8B7AF4EEE67ADE
:102F6000B0EE670AF1EE10FAA8BF37EEE60A5FEDA1
:102F7000177A84ED5C0A20EE270A21F0A1FAB0EE60
:102F8000409A8AEE2A0A21F081F85FED1D7AF0EE70
:102F9000408A29EEA70A21F093FA94ED537A68EE5D
:102FA000808AD4ED567A8AEE070A68EEA78A21F065
:102FB0006DF81FED267A5FED267AA8EE879AF0EE7F
:102FC000408A29EE270A20F0CFFEF4EEEA8A39EE95
:102FD0008B7A68EE807AF1EE10FA84ED5B7A02D596
:102FE000002384F86831D4ED576A94ED5D7A67EE7A
:102FF000A67A67EE877AACE4D4ED509A94ED4A0A4B
:10300000B1EE69AAD4ED498A5FED3FAA8AEE000AC3
:1030100021F03CF894ED4EBAD4ED517AB0EE087A36
:10302000F7EE006A28EE877AE7EE008AE8EE8B7A00
:10303000F4EEE67AB0EE670AF1EE10FAA8BF37EECA
:10304000E60A5FED4C7A84ED510A20EE270A21F062
:1030500037FAB0EE409A8AEE2A0A21F017F85FEDAF
:10306000527AF0EE408A29EEA70A21F029FA94ED6F
:10307000487A68EE808AD4ED4B7A8AEE070A68EEC9
:10308000A78A21F003F81FED5B7A5FED5B7AA8EE6B
:10309000879AF0EE408A29EE270A20F065FEF4EECA
:1030A000EA8A39EE8B7A68EE807AF1EE10FA84EDD6
:1030B000507A02D5002384F83C31D4ED4C6A94ED6B
:1030C000527A67EEA67A67EE877A39E4D4ED389AB9
:1030D00004F1F003944A04F58471DFED946AF3EC93
:1030E000017AB7EE007AB2EC016AF6EE008AE6EEFB
:1030F000297ABFEE006AF4EEC77AF1EE10FAA8BFA3
:1031000077EEC77AB7EE007AF4EEE87A43ED017A0B
:10311000F1EE10FA54BFF0EE467AF0EE477A99429B
:1031200076EEA76ADBD1B1EE086AD4F808319FEDDC
:10313000807A83EA4333DFED7F5AC6EE867A94EDD8
:10314000449A83EA534394ED436AD4ED3AAA83EA5E
:10315000431394ED455A79EE874AC4F80831B1EE2D
:103160006A0AC7EE246A07EE103ABAEEE07A80EEF9
:10317000050AE7EE257A37EE899AC4ED437A39EEEF
:10318000469A29EE269A84ED449A20F07FFF94ED2A
:10319000467A29EE009AE7EE288AF0EE047AB0EE3D
:1031A00040AA7AEEA9AA29EE289A29EE270A20F049
:1031B000DBFD9FED617AF0EE407AC4ED3AAAB4EE01
:1031C000C7AAF1EE10FA02D5002384F8E430D4ED5A
:1031D000476A94ED3B7A67EEA67A67EE877AFFF747
:1031E000A6BBD4ED279A04F1AC034F4A04F1C40105
:1031F000DFED4E6AF3EC017AB7EE007AB2EC016AC9
:10320000F6EE008AE6EE297ABFEE006AF4EEC77A9F
:10321000F1EE10FAA8BF77EEC77AB7EE007AF4EEB7
:10322000E87A43ED017AF1EE10FA54BFF0EE467AF7
:10323000F0EE477A994276EEA76ADBD1B1EE086AE2
:10324000D4F8C4309FED3A7A83EA4333DFED395A3C
:10325000C6EE867A94ED339A83EA534394ED326A4C
:10326000D4ED29AA83EA431394ED345A79EE874AC0
:10327000C4F8C430B1EE6A0AC7EE246A07EE103A09
:10328000BAEEE07A80EE050AE7EE257A37EE899A03
:10329000C4ED327A39EE469A29EE269A84ED339AB5
:1032A00020F0F4FE94ED357A29EE009AE7EE288AB4
:1032B000F0EE047AB0EE40AA7AEEA9AA29EE289A96
:1032C00029EE270A20F050FD9FED1B7AF0EE407AA0
:1032D000C4ED29AAB4EEC7AAF1EE10FA02D5002374
:1032E00084F8A030D4ED366A94ED2A7A67EEA67A97
:1032F00067EE877AFFF712BBF0EE087A2BEE270A0B
:103300008AEE000A20F0C2FEF6EE006AB7EE007AFE
:103310006BEE807AABEEE67A67EEA67AE9EE077A94
:10332000B0EE679AFFF795BB3064022400000000FE
:103330000403B237CDCC4C3E6F12833A38B5037FCD
:1033400004462DED088B002B40F01A859FEDE89A7E
:1033500094F84C30002B7BD094ED0E7AF7EE007A87
:1033600094ED150AD4ED129AA7EE290AB4EEE70AF5
:10337000F1EE10FAA8BF30EE670ADFEDDE7A84EDD9
:10338000150A20EE270A21F09BF8F6EE007AD4ED1C
:103390000B8AB0EE408AD4ED14AA28EEA70AB1EE4B
:1033A0006ABA8BEE000A20F071FEE36D83EA4333C4
:1033B00083EA5343B0EE40AA8BEE280A94ED0CBA90
:1033C00083EA4315E56520F061FE07EE905AF0EEC2
:1033D000408A94ED0D7AFAEEE07A28EE0A8AB7EE8A
:1033E000080A67EEA87A67EE877AE8EE0B7A27EE8E
:1033F000800A20F0B9FCD4ED0F7A9FEDCD7AF4EE7F
:10340000C77AF1EE10FA0FD4B7EE007ADFEDC96A91
:103410009FEDC96AA7EEA67AC6EE076A60EE267A25
:10342000F8FE677A87EEA60ADFEDC47AF4EEE78A43
:1034300079EEAA9AF1EE10FAC4ED149A00F14381E4
:1034400094ED107AD4ED167A20EE070AA0EE279AB2
:1034500094F87430002B00F01085D4F880300025EB
:1034600094ED1E8A83EA4333DFEDA19A83EA534346
:1034700083EA43130AEE103AC4F88030BAEEE0AAA9
:1034800007EE905AB0EE480A9FED9B7AF8EEE77A85
:10349000A7EEC70AB5EEC00AF1EE10FA05DBB4EEEE
:1034A000C70AF1EE10FA00F1DA840135032DE7D1F5
:1034B0009FED920AD4ED188AB4EEC08AF1EE10FAAC
:1034C00080F23E812AEE29AA9FED8D0A2AEE000A9B
:1034D00020F04AFCD4ED197A9FED957AF4EEC77A84
:1034E000F1EE10FA0FD4B7EE007A9FED926ADFED9D
:1034F000926AA7EE867AC6EE877A20EE270AB8FE91
:10350000407A87EE270A94ED1C7ADFED7E7A38EE5A
:10351000078A78EEA78A84ED1E8AB4EEE88AF1EE77
:1035200010FA00F3D88094ED1A7AD4ED1F7A60EE89
:10353000078A68EEA78A94F89C3078EE898A002B77
:1035400040F0F881DFED6A7A94F8CC3078EEA78A03
:10355000002B40F061829FED668A94F8003138EECE
:10356000888A002B40F0C882DFED617A94F82C3114
:1035700038EE278A002B40F02A83DFED5D7A94F83D
:10358000583138EE278A002B40F08C83DFED587AD3
:1035900094F87C3138EE278A002B00F0EE8394ED0E
:1035A0005E9AF7EE007A94ED627AF6EE005ADFED5D
:1035B000566AFFEE008A9FED556AB6EE00BAA9EE94
:1035C000267AD4ED60AAF7EE006AB7EE00AAFFEE05
:1035D000009AB1EE6A0AB4EEE77AF1EE10FAA8BFEB
:1035E00037EE677AD4ED637AE9EE067AB4EEE57ADF
:1035F00084ED627A94ED5A7AF1EE10FA80EE070AC1
:10360000F4EEE67A48BFF0EE668AF1EE10FAA8BF53
:1036100077EEE67AF4EECB7AC4ED637AF1EE10FA47
:1036200048BFF0EE4A9A20F031FDDFED397A78EEAE
:10363000A98AF0EE409A68EE8B8A28EEA70A20F05D
:1036400093FB94ED5B7ADFED3A6A69EE807AB4EE33
:10365000E67AF1EE10FA0DD49FED366ADFED366AA8
:10366000A7EE06AA86EE8A7A67EE877AF8FE676A80
:10367000C6EE877A9FED317AF4EEC79A39EE2A9A30
:10368000F1EE10FA84ED609A21D4D4ED5C6A94EDE9
:10369000617A67EEA68A68EE878A94F8A43178EE9C
:1036A000288A002B57D1DFED127A94F8D03178EECA
:1036B000A78A002B40F0C1809FED0D0A38EE800AEA
:1036C000BDEC088B38BD002384F84C30B8E60023ED
:1036D00084F87C31D9E7DFED197AF4EEE79AF1EE60
:1036E00010FA7FF520AF002384F874301BE700BF89
:1036F00000000000DB0FC9406F12033CA69BC43CD6
:103700006666E63FCDCC4C3D00000C44004053447F
:103710006666A63F43820538A69B443B17B7513ADD
:1037200000803B44CDCCCC3E00007A45DB0FC94045
:103730000AD7233C00007043000080436F12833A95
:1037400038EE400AB1EE400A80EE280A20F09EFCD6
:1037500079EE809AB6E65FED117AD4ED689AD4F8E6
:10376000B03139EEA76A94ED6E9A83EA4333D4ED13
:103770006D6A94ED6AAA87EE867A83EA53431FED59
:103780001A0A83EA431307EE903AC4F8B031F1EE17
:103790004AAAFAEEE07A8AEE800AC4ED6D7A37EE34
:1037A000899A39EE669A29EE079A84ED6E9A20F08E
:1037B0006DFCD4ED647AB0EE408A8AEEA70A20F060
:1037C00065FCD4ED656A1FED266AB7EE007AF4EE6B
:1037D000C66A29EE009A77EE487AF1EE10FA67EEA3
:1037E000897A0DD45FED2D5A1FED2D6AA6EEA57ACC
:1037F000C6EE076A67EEA67AB8FE677AC7EE267A43
:103800001FED327AB4EEC70A79EE8A9AF1EE10FA19
:10381000C4ED6A9A02D5002384F8A431D4ED666A17
:1038200094ED6B7A67EEA67A94F8D03167EE877ADA
:1038300078EEA78A002B3FF43FAFD4F8E031D4ED07
:10384000759A83EA43331FED4B0AB1EE699A83EA16
:10385000534383EA431589EE000AC4F8E05108EEA9
:10386000105A20F013FC1FED526AD4ED767AD4ED95
:1038700073AAB7EE007ABAEEE08A5FED566AEAEE16
:10388000867A28EE008A1FED570A28EE268AF4EE83
:10389000C77AF1EE10FAA8BF77EEC77A27EE800A52
:1038A000C4ED767A20F00CFED4ED6F7AB0EE40AA2B
:1038B00089EE270A20F0EAFBAAEE008AF7EE087AE2
:1038C000B0EE409A28EE270A20F04EFAD4ED707A36
:1038D0001FED697AF4EEC77AF1EE10FA0FD4B7EE65
:1038E000007A5FED6C6A1FED6C6AA7EEA67AC6EEF1
:1038F000076A60EE267AF8FE677A87EEA60A5FED21
:10390000717AB4EEE79A79EEAA9AF1EE10FAC4ED64
:10391000759A02D5002384F8D03194ED717AD4EDF4
:10392000777A20EE070A20EE270A38EE800ABDECEF
:10393000088B38BDD4ED226AF7EE009A5FED867AE7
:103940005FED865AE6EEA77A94ED28AAD4ED216AB7
:10395000B1EE4A0AD4F8A83094ED2B6A83EA4333D7
:1039600094ED269A80EE260A83EA534383EA4313B2
:10397000B0EE677AD4ED2C7AC4F8A83027EE257A19
:10398000C9EE876A07EE103ABAEEE07A77EE277A48
:1039900084ED2B7A77EEC67A36EE896A86EE867AE1
:1039A00027EE878A84ED2C8A20F070FB94ED237A31
:1039B0005FEDA16A68EE007AB4EEE67AF1EE10FAF5
:1039C0000DD41FEDA46A5FEDA46AE7EE069A86EEB9
:1039D000A97A67EE877AF8FE676AC6EE877A1FEDE6
:1039E000A97AB4EEC70A39EE0A9AF1EE10FA84ED1C
:1039F000289A02D5002384F89C30D4ED246A94EDF3
:103A0000297A67EEA67A94F8CC3067EE877A78EE5A
:103A1000A78A002B3FF49FAD94ED2E7AF7EE009A23
:103A20005FEDBF7A1FEDBF6AE7EE277A94ED34AA07
:103A300094ED2D7AB1EE4A0AD4F8D83094ED388A54
:103A400083EA4333D4ED376A80EE070A94ED329A65
:103A500083EA534383EA431367EE867AC4F8D83087
:103A600089EEA77A07EE903AFAEEE07A37EE888A86
:103A7000C4ED377A38EE668A77EE096AC7EE267AA1
:103A800028EE278A84ED388A20F000FBD4ED2F7AC7
:103A90001FEDD97A28EE008AF4EEC77AF1EE10FA1B
:103AA0000DD45FEDDC6A1FEDDC7AE7EEA69AC7EE77
:103AB000297A28EE278AB8FE487A87EE278A5FEDB2
:103AC000E17AB4EEE70A39EE0A9AF1EE10FA84EDE3
:103AD000349A02D5002384F8CC3094ED307AD4EDBA
:103AE000357A28EE078A94F8003128EE278A38EED6
:103AF000888A002B3FF438AD94ED419A94ED3B0A4F
:103B0000B1EE49AAD4ED3A8A8AEE000A20F0BEFA54
:103B1000D4ED427AD4ED3F9AB7EE087AF7EE006A18
:103B200028EE877AE7EE008AE8EEA97AF4EEE67AE4
:103B3000B0EE670AF1EE10FAA8BF37EEE60ADFED45
:103B4000D17A84ED420A20EE270A20F0B9FCD4EDA8
:103B5000397AF0EE408A8AEE270A20F097FA94ED3F
:103B60003C7ADFEDC96AB4EEE67A68EE807AF1EE6F
:103B700010FA0FD4F7EE006ADFEDC45A9FEDC46A65
:103B8000E7EE256A86EE267A67EE877AF8FE676AA0
:103B9000C6EE877A9FEDBF7AB4EEC70A39EE299A4E
:103BA000F1EE10FA84ED419A02D5002384F8003139
:103BB000D4ED3D6A94ED437A67EEA67A94F82C3101
:103BC00067EE877A38EE278A002B3FF4D6AC94ED67
:103BD0004C9A94ED460AB1EE49AAD4ED458A8AEE94
:103BE000000A20F053FAD4ED4D7AD4ED4A9AB7EE9C
:103BF000087AF7EE006A28EE877AE7EE008AE8EEA8
:103C0000A97AF4EEE67AB0EE670AF1EE10FAA8BFF0
:103C100037EEE60ADFED9B7A84ED4D0A20EE270AA7
:103C200020F04EFCD4ED447AF0EE408A8AEE270A6A
:103C300020F02CFA94ED477ADFED936AB4EEE67A41
:103C400068EE807AF1EE10FA0FD4F7EE006ADFED3D
:103C50008F5A9FED8F6AE7EE256A86EE267A67EE29
:103C6000877AF8FE676AC6EE877A9FED8A7AB4EEA5
:103C7000C70A39EE299AF1EE10FA84ED4C9A02D572
:103C8000002384F82C31D4ED486A94ED4E7A67EE27
:103C9000A67A94F8583167EE877A38EE278A002B97
:103CA0003FF474AC94ED579A94ED510AB1EE49AAE1
:103CB000D4ED508A8AEE000A20F0E8F9D4ED587A63
:103CC000D4ED559AB7EE087AF7EE006A28EE877AB7
:103CD000E7EE008AE8EEA97AF4EEE67AB0EE670A3B
:103CE000F1EE10FAA8BF37EEE60ADFED667A84ED52
:103CF000580A20EE270A20F0E3FBD4ED4F7AF0EECD
:103D0000408A8AEE270A20F0C1F994ED527ADFED5D
:103D10005E6AB4EEE67A68EE807AF1EE10FA0FD4BD
:103D2000F7EE006ADFED595A9FED596AE7EE256A12
:103D300086EE267A67EE877AF8FE676AC6EE877A9D
:103D40009FED547AB4EEC70A39EE299AF1EE10FAD3
:103D500084ED579A02D5002384F85831D4ED536A84
:103D600094ED597A67EEA67A94F87C3167EE877AFB
:103D700038EE278A002B7FF412ACDFED478A8CE403
:103D8000D0ED088A90ED020AB1EE68AA90ED018AA2
:103D90008AEE000A20F07AF9D4ED097AD4ED069A79
:103DA000B1EE047AF7EE006A28EE077AA7EE008AF1
:103DB000E8EE297AF4EEE67AB0EE670AF1EE10FA50
:103DC000A8BF37EEE60ADFED2F7A84ED090A20EE70
:103DD000270A20F075FBD4ED007AB0EE409A8AEE07
:103DE000270A20F053F9DFED2D7AB0EE408A29EE54
:103DF000270A1FF0B9FF94ED037ADFED236A68EE1E
:103E0000007AB4EEE67AF1EE10FA0FD4F7EE006A1B
:103E1000DFED1E5A9FED1E6AE7EE256A86EE267AD2
:103E200067EE877AF8FE676AC6EE877A9FED197AA1
:103E3000B4EEC78A78EEA98AF1EE10FAC4ED088ACA
:103E400001D500232377D4ED046A94ED0A7A67EE56
:103E5000A67A9FED119AA7EE879AFFF779BAB1EE8D
:103E6000400ADFED0F7A80EE270A20F00FF9F6EE18
:103E7000007AE0EE279AFFF718BBDFED078AFFF71D
:103E80005ABB00BFDB0FC9400AD7233C0000704378
:103E9000000080436F12833A000000006666A63F70
:103EA0006F12033BF8B590F834302DED048B002BE6
:103EB00000F0688190ED098A044690F83730B1EE41
:103EC000489A002B40F0DE8090ED0B7A27EE087ABE
:103ED000D4ED0A7AF7EE006A237E77EE277AF4EEC5
:103EE000E67AF1EE10FAA8BF77EEE67AC4ED0A7A28
:103EF000002B40F04C81B4EEE77AF0EE006ABFEEA2
:103F0000008AF1EE10FAA7EEA68A00F32E82B7EE31
:103F1000006A76EE476AF4EEE76AF1EE10FA00F115
:103F2000CC8194F8367094ED030A002F00F0CE8017
:103F3000DFEDE97A20EE270A89EE000A20F0A6F8E4
:103F4000D4ED0E7A94F8353060EE278AC4ED0E8AEF
:103F5000002B40F0CA809FEDE10A89EE000A20F0B4
:103F600095F894ED0F7ADFEDDE7A60EE079AF4EEC5
:103F7000E79AC4ED0F9AF1EE10FA00F10081D4ED4A
:103F8000007AD4ED026AD4ED013A94ED085ADFEDDF
:103F9000D54AB3EE047A94ED046AB0EE454A66EE73
:103FA000A46ADFEDD15AE6EEA87AE6EE257AF4EEC1
:103FB000C77AF1EE10FA00F167819FEDCC7A25EE19
:103FC000077AF4EEC77AF1EE10FA00F3E08137EEEB
:103FD000A77AF0EE637ADFEDC66AE6EE267AF5EEB2
:103FE000C07AF1EE10FA00F1BB81DFEDC26AF4EEA7
:103FF000E67AF1EE10FA00F3C581F1EE005AB7EE61
:10400000006AF5EE006A67EEA57AF0EE465AE7EE32
:10401000A65A86EE250A87EE049A9FEDB77AB4EE8B
:10402000C79AF1EE10FA00F39881BDEE006AB7EE80
:10403000007AA9EE067A29EE079A94ED177A04F130
:104040003C050026A7EE678A28EE000A1FF08CFECA
:104050001FF08AFE95ED058AF0EE408A0136B0EE3B
:10406000480A04351FF080FE042E78EEC08AA8EEC0
:10407000898A85ED008A85ED048A00F0518195EDED
:10408000000AE5E790ED050A89EE000A1FF0FEFF41
:1040900094ED0C7AD4ED0B6A9FED986AF7EE007AF6
:1040A00077EEC07A67EE877AE6EE807A77EEC76AB7
:1040B000F0EEE66AF4EEC66AF1EE10FA40F1F8802E
:1040C000002384ED0B7A84F83730FFE689EE000A8E
:1040D0001FF0DCFFD4ED0E7A94F8353060EE278ABD
:1040E000C4ED0E8A002B00F0B380B7EE006AD4ED69
:1040F0000F9ADFED834AD4ED007A36EE696AD4ED8B
:10410000026A94ED085AB0EE677AF0EE665AD4ED82
:10411000013AE6EE249AB0EE454AC4ED0F9A002F1C
:104120007FF435AF9FED6F6AF3EE046ADFED797AC5
:1041300065EE865AA8EEA57A77EE277AF4EEE67A4F
:10414000F1EE10FA00F1A3809FED687A24EE077A71
:10415000F4EEC77AF1EE10FA00F31C8137EEA77A7D
:10416000B7EE006AF1EE007AF5EE006AF0EE465A1C
:1041700063EEA77AE7EEA65A86EE250A4BE7002300
:1041800084F834309FED630ABDEC048BF8BDB6EEC5
:10419000006AF4EEC67A77EE866AF1EE10FAB4EEB3
:1041A000E77A3DD4F1EE10FA00F30E81F7EE005AF3
:1041B00035EEC76AB4EEE76AF1EE10FA40F1078116
:1041C00077EEE57A87EE876AF0EE467AE6EE067AD3
:1041D00036EE278A38EE258A38EE658AF7EE007AC1
:1041E00076EEE76AB4EEE67AF1EE10FA2BDCB7EE83
:1041F000006A76EE477AF4EEE76AF1EE10FA7FF79E
:1042000090AE76EEC66AC6EE877AB0EE677AA7EE13
:10421000A77A77EE877A77EE867A38EE678A80E635
:10422000F1EE10FA00F3B980B7EE008AF4EEC86A36
:10423000F1EE10FAD6DBB5EEC07AF1EE10FA7FF7A8
:1042400070AEDFED346A86EE876AF0EE006A8EE0CB
:104250009FED2C0A89EE000A1FF018FF94ED0F7AEB
:10426000DFED1F7A60EE079AF4EEE79AC4ED0F9A3D
:10427000F1EE10FA83D494ED007AD4ED025AD4ED25
:10428000013A94ED084A4DE79FED1F7AA1E6B7EE9B
:10429000006A9FED1D7AF1EE007AF5EE006AF0EE0D
:1042A000465A63EEA77AE7EEA65A86EE250AB2E6EC
:1042B000B0EE677AC4ED0B7A08E677EEC67AC7EE01
:1042C000876AF0EE667AE6EEA67A76EEA76A76EE72
:1042D000866A38EE668A24E63333333F0AD7233CB6
:1042E0006F12833A00401C460080BB456666E63E7E
:1042F0009A99993E3333733FA4707D3FCDCCCC3D2A
:10430000CDCC4C3D0AD7A33B00002042CDCCCC3EC7
:10431000AFB63E3F000000003448033F33337340E4
:10432000B7EE007AD4ED137A2FB194ED046A5FED05
:10433000096AA6EE267A67EEA97AD4ED076AB7EE87
:10434000080A67EEA67ABDEC048B67EE877ABDE8B3
:10435000F84027EE800A1FF007BD1FED139A6CE6A8
:10436000B7EE000A5FED157A55E687EE876A66EECE
:10437000467AB7EE007AE6EE267A77EEC77A38EE1E
:10438000678ACEE51FED1C0A5FED1C7A43E637EE27
:10439000077A1EE637EE077AE2E6B7EE005A87EEB6
:1043A000876AF0EE005AF7EE007AF4EEE76AF1EE73
:1043B00010FA26EE468AA6EE258A38EE678A38EE8F
:1043C000058AFFF60FAF09E7BFEE005AE7E7F4EE04
:1043D000E56ABFEE008AF1EE10FAFFF6A2ADFDE647
:1043E0002DE9F84305690446D0F8F030AB4202D11C
:1043F000012380F84030D4F8F430AB4202D10123DD
:1044000084F84130D4F8F830AB4202D1012384F86B
:104410004230D4F8FC30AB4200F08982D4F800314D
:10442000AB4214D1B3EE0E7AD4ED007A0123B54A33
:10443000B54967EE877A6565E16484F84430FCEE3F
:10444000E77AA264226584F85C30C4ED167AD4F869
:104450000431AB4248D1D4ED007A01229FEDAB7A12
:104460000021AB4B67EE877A84F84520C4F8903082
:10447000C4F89830FCEEE77A84F8A420C4F8AC10B5
:1044800084F8BC2017EE903AC4F8C41084F8D42005
:10449000C4F8D810C4F8E01084F8EC20994984F8E6
:1044A00074209C4AC4F89C50C4F8B450C4ED287AD7
:1044B000C4ED2E7AC4ED1C7A2166A166E5666266BB
:1044C000C4E93353C4E939534FF07E53C4F8C030C4
:1044D000C4F8C830C4F8DC308F4BC4F8A830C4F836
:1044E000B0308E4BC4F89430D4F80831AB4200F0B1
:1044F0000082D4F80C31AB4217D1B2EE047AD4ED7D
:10450000007A4FF07E530122C4F8845067EE877A18
:10451000A367C4F88030002384F84720FCEEE77AD4
:1045200084F88C20E367C4ED227AD4F81031AB42D2
:1045300040F2478194F8443023B194F85C30002B6A
:1045400040F0088294F84530C3B194F8A430002BB1
:1045500040F0238394F8BC30002B40F0658394F83E
:10456000D430002B40F0948394F8EC30002B40F0D2
:10457000C98394F87430002B40F08E8294F8473051
:1045800023B194F88C30002B40F02682E369AB42D3
:1045900000F29280626994F84030D1B2002B00F0B2
:1045A000CB8011F0030640F0C780DFED5D7A94ED1B
:1045B0000D7AB4EEE77AF1EE10FA09DD63683BB1EB
:1045C000002058629862012083F820005548D86284
:1045D000DFED537A94ED0E7A94F84170B4EEE77AF9
:1045E00094F84200F1EE10FA40F3C683A368002B62
:1045F00000F07A844FF0000CC3F824C0C3F828C040
:104600004FF0010C83F820C0DFF818C1C3F82CC0AC
:10461000002F40F09680002840F06C8494F846000B
:1046200038B301F00700042840F09982002B00F015
:10463000568400201865986558659866586601206C
:1046400083F84C003848D865002E00F08B8201F0CA
:104650000F0104290DD163B1012183F880100021DD
:10466000C3F88410C3F89410C3F890102F49C3F80E
:1046700088100132636A6261D20705EB030140F1E1
:104680006281F6EE007A94ED0B7A37EE677A07EEE8
:10469000903AF8EE677A37EE077AB5EEC07AF1EE27
:1046A00010FA48BF9FED227A67EE877AFCEEE77A30
:1046B00017EE903A0B44E36194F843302BB901357F
:1046C00094ED0F0A2561BDE8F883236AAB42F6D862
:1046D000E768A6697FB106F00F02164B03EB820173
:1046E0009000C97811B1002187F8351013F8222005
:1046F000002A40F07F83636A01362B44A66123625F
:10470000DDE700BF0000484300803B450000204239
:104710000000B44200007A45295C0F3F00001143BD
:104720000AD7233C6666663FCDCC4C3F9A99193F29
:1047300000000000F063022494F8413094F8420035
:1047400083B101F00703042B0CD1636853B1002639
:104750001E655E659E659E665E66012683F84C60FA
:10476000B74EDE65F8B101F003006368022800F07F
:10477000D581C3B10020C3F8A400C3F8AC00C3F8CE
:10478000B000C3F8B400C3F8B800C3F8BC00C3F865
:10479000C000C3F8CC00C3F8C800012083F8A00013
:1047A000A848C3F8A80094F84630002B3FF461AF46
:1047B00001F0070301F00106042B40F0CC81A3684F
:1047C00034E7E26812B1002382F835304FF07E51B1
:1047D0009D480023E163A062616300219B4823623E
:1047E0002364E062636484F85C302163A16384F82D
:1047F000743084F88C3084F8A43084F8BC3084F8A9
:10480000D43084F8EC30C4E90433C4E906335AB137
:104810008F4813768F4B9049106093608F48904B70
:1048200011615060D161D36063684BB18B4A844899
:104830008C491A64874A5861C3F8D810C3F81C2100
:10484000A3680BB100225A61D4ED007AF2EE0E3A61
:104850009FED857AB3EE094A9FED843A002227EE58
:10486000877ADFED834A9FED835A67EEA33ADFED47
:10487000825A27EE844ABCEEC77A9FED806ADFED4C
:10488000806A67EEA44A27EE855A9FED7E0A17EEEE
:10489000103A67EEA55A27EE866AC4F8F02067EE54
:1048A000A66A012B67EE837AFCEEE33A38BF012358
:1048B000BCEEC44AFCEEE44A6362BCEEC55AC4EDE9
:1048C0003D3AFCEEE55A84ED3E4ABCEEC66AC4EDC4
:1048D0003F4AFCEEE66A84ED405AFCEEE77AC4ED0E
:1048E000415A84ED426AC4ED436AC4ED447ABDE89E
:1048F000F88300234FF480724FF07E51E3626363CC
:10490000A4F84520E368604AA163A2620BB15F4A44
:104910001A60D4ED007A9FED5E7A67EE877AFCEE3E
:10492000E77A17EE903A03B901236362E1E50122C9
:10493000E36884F84320002B3FF470AD4449474AB4
:1049400019605A606AE594F84330E161002B3FF446
:10495000B6AEBAE6636D9D42C0F09082A26DD4ED12
:10496000137A002A00F0228207EE102AEB1AF7EEE3
:10497000005AF8EE476A07EE103AB8EE477A87EE2B
:10498000266AB4EEE56AF1EE10FA04DBB0EE656A71
:10499000002384F85C3094ED127A77EEC76AF0EE6B
:1049A000477AE6EE867AC4ED147AE368002B3FF48A
:1049B000C9ADB3EE047AF4EEC77AF1EE10FA00F165
:1049C00016829FED347AF4EE477AF1EE10FA77FE14
:1049D000277AC3ED007AB5E5D4F884309D42C0F063
:1049E0007982D4F8882094ED1F7A002A00F0D981CA
:1049F00007EE902AEB1AF7EE005AF8EE676A07EE18
:104A0000903AF8EE677A87EEA66AB4EEE56AF1EEC0
:104A100010FA04DBB0EE656A002384F88C30D4ED24
:104A20001E7A77EE676AE6EE867AB0EE677AC4EDB4
:104A3000207AE36984ED0F7AAB423FF63DAEA9E5FB
:104A40009A99593FCDCC0C3F0000B442295C0F3FEE
:104A500000004843CDCCCC3E9A99193F3333333FC5
:104A6000CDCC4C3E6666E63EABAA2A3E00003443FF
:104A700000002042000070420000B44200000243E7
:104A800000002A43000000000000114300007A45A6
:104A9000B1DCD33D00409C46E36E9D42C0F00782EE
:104AA000226FD4ED197A002A00F08A8107EE102ACD
:104AB000EB1AF7EE005AF8EE476A07EE103AB8EE36
:104AC000477A87EE266AB4EEE56AF1EE10FA04DB67
:104AD000B0EE656A002384F8743094ED187A77EEAE
:104AE000C76AF0EE477AE6EE867AC4ED1A7AE36892
:104AF000002B3FF443ADB3EE047AF4EEC77AF1EE47
:104B000010FA00F171811FED1D7AF4EE477AF1EE93
:104B100010FA77FE277AC3ED007A2FE5002B3FF4D9
:104B200042AE0020C3F8E800C3F8F000C3F8F40078
:104B3000C3F8F800C3F8FC00C3F80001C3F804018F
:104B4000C3F81001C3F80C01012083F8E400DA482F
:104B5000C3F8EC0027E6002E7FF48BADA368002B92
:104B60003FF487AD4FF07C50C3F8A8000020C3F895
:104B7000A400C3F8AC00C3F8B000C3F8B400C3F895
:104B8000B800C3F8BC00C3F8C000C3F8CC00C3F839
:104B9000C800012083F8A00059E5D4F89C309D425C
:104BA000C0F07B81D4F8A02094ED257A002A00F093
:104BB000028107EE902AEB1AF7EE005AF8EE676AC8
:104BC00007EE903AF8EE677A87EEA66AB4EEE56AE9
:104BD000F1EE10FA04DBB0EE656A002384F8A4302D
:104BE000D4ED247A77EE676AE6EE867AB0EE677ADD
:104BF000C4ED267ADFEDB15AB5EE006AD4ED006A55
:104C0000C5EE877A84ED0A7A67EE867A67EEA67A31
:104C1000FCEEE77A17EE903A03B90123636294F849
:104C2000BC30002B3FF49BACD4F8B4309D42C0F0B4
:104C30002A81D4F8B82094ED2B7A002A00F0C580A0
:104C400007EE902AEB1AF7EE005AF8EE676A07EEC5
:104C5000903AF8EE677A87EEA66AB4EEE56AF1EE6E
:104C600010FA04DBB0EE656A002384F8BC30D4EDA2
:104C70002A7A77EE676AE6EE867AB0EE677AC4ED56
:104C80002C7A94F8D43084ED0B7A002B3FF46CAC82
:104C9000D4F8CC309D42C0F0FB80D4F8D020D4EDC5
:104CA000317A002A00F0968007EE102AEB1AF7EE10
:104CB000005AF8EE476A07EE103AB8EE477A87EEE8
:104CC000266AB4EEE56AF1EE10FA04DBB0EE656A2E
:104CD000002384F8D43094ED307A77EEC76AF0EE92
:104CE000477AE6EE867AC4ED327A6368C4ED0D7ACF
:104CF000002B3FF439AC9FED727A67EE877AC3EDF3
:104D0000057A31E4D4F8E4309D42C0F0CB80D4F889
:104D1000E820D4ED377A002A61D007EE102AEB1A8A
:104D2000F7EE005AF8EE476A07EE103AB8EE477A07
:104D300087EE266AB4EEE56AF1EE10FA04DBB0EE17
:104D4000656A002384F8EC3094ED367A77EEC76A12
:104D5000F0EE477AE6EE867AC4ED387AA368C4EDC1
:104D60000E7A002B3FF405AC9FED557A67EE877AFB
:104D7000C3ED057AFFF7FDBB002F7FF4E2AC0028FE
:104D800040F0B88094F84630002B3FF472AC01F04C
:104D90000703042BA3683FF449AC002B7FF4E2AE79
:104DA00067E484ED207A84F88C2042E6C4ED147A1E
:104DB00084F85C20F9E584ED267A84F8A42019E7CC
:104DC000C4ED1A7A84F8742091E684ED2C7A84F884
:104DD000BC2056E7C4ED327A84F8D42085E7C4EDD0
:104DE000387A84F8EC20B9E7F0EE477A93E6F0EEF3
:104DF000477AEEE507EE902A9FED327AF2EE080A46
:104E00000344F8EE677AB0EE000A93F8018093F855
:104E1000029077EEC77AC7EEA00A1FF0C5F99FEDA2
:104E20002A7AF3EE047A20EE070AB4EEE70AF1EEEE
:104E300010FA61D4DFED257AB4EE670AF1EE10FACC
:104E400037FE800A87ED0C0A87F83680B9F1000F2B
:104E500002D097F834302BB94FF07E5387ED0B0A10
:104E6000BB63002387F8373040F20113BB86B8F1EB
:104E7000000F3FF440AC164BBB633CE4D4ED127A18
:104E8000C4ED147A91E594ED2A7A84ED2C7AF8E653
:104E9000D4ED307AC4ED327A27E794ED247A84EDAC
:104EA000267AA7E6D4ED367AC4ED387A56E7D4ED03
:104EB000187AC4ED1A7A1AE69A99193F00007042DE
:104EC0009A99593F00008A420000DC4300409C450B
:104ED0009A99993F94ED1E7A84ED207AA9E5002EE7
:104EE0003FF4C7ABFFF7B3BB002F7FF42AAC002819
:104EF0003FF4BFAB63683CE4B0EE670AA2E700BFD3
:104F0000B3EE047ADFEDCD7ADFEDCD6A61EE277A7C
:104F1000B4EE470A38B5F1EE10FA0D46044648BF24
:104F2000B0EE470A9FEDC77A2DED048BF4EEC07A00
:104F3000F0EE619AF1EE10FAF4EEE60A58BFF0EEE8
:104F4000407AF1EE10FA67EE877A54BF30EEA08A0D
:104F50009FEDBD8AC7EE818AB0EE680A1FF0B0FAF5
:104F6000B0EE409AB0EE680A1FF06EFB691EC9EE03
:104F7000088AB0EE408A072900F25581DFE811F077
:104F800055007C009100B2005301CF0002010800DF
:104F9000DFEDAE0AB2EE040AC9EEA00A1FF004F972
:104FA000F1EEC05AB7EE004AB8EE007A30EE045A7D
:104FB00070EE447A60EE076AB0EE456AF0EE674A3A
:104FC000B0EE457AA7EEC86AE5EE084A75EEA55A36
:104FD000A7EE887AE5EE487AA5EEA86A66EEA46A9E
:104FE000B0EE475AA5EEE87A77EEA77AC4EE064A05
:104FF000A5EEA85A27EE007ABDEC048B65EE005AA8
:1050000066EEA46A65EEA45A27EE247A67EEA47AC7
:10501000C4ED016A26EE246AC4ED005A84ED027ADA
:10502000C4ED037A84ED046A38BDF7EE005AF6EE5B
:10503000007AB8EE007A38EEA55A75EEC06A20EE16
:10504000077A85EE856A66EEA77A75EEE88A66EEDF
:10505000866A68EE868AC4ED016A67EE867A27EE74
:10506000067AC4ED048AC4ED007AC4ED027A84EDB8
:10507000037ABDEC048B38BDF7EE005AF6EE007AE9
:10508000B8EE007A38EEA55A70EE256A20EE077A5F
:1050900085EE856A66EEA77A75EEE88A66EEC66AE0
:1050A000D7E7B7EE006A0023F8EE007A636078EE87
:1050B000865A36EE687A60EE277AC6EE256A68EE82
:1050C000A68A67EEA67A27EE267AF1EE686AC4ED24
:1050D000008AC4ED037A84ED047AC4ED026ABDEC63
:1050E000048B38BDF7EE006AF8EE007A38EEA66A57
:1050F00076EEE88A60EE277A86EE867A68EE878A10
:1051000084ED007A67EE877A84ED027AC4ED048A32
:10511000C4ED017AC4ED037ABDEC048B38BDDFED3C
:105120004B0AB2EE040AC9EEA00A1FF03DF8C8EE21
:10513000807AF7EE006AB8EE007AB0EE665AF0EECA
:10514000665A28EE077AA8EE805AE8EEC05ABDECFF
:10515000048B77EEA64A76EEE77A86EEA46A27EE0F
:10516000067A25EE065A65EE866A67EE867A84ED43
:10517000017A84ED005AC4ED026A84ED037AC4ED2D
:10518000047A38BDDFED310AB2EE040AC9EEA00A96
:105190001FF00AF8F1EEC06AB7EE004A70EE005A4E
:1051A000F8EE004A30EE045A70EE447AB0EE456AEA
:1051B000F0EE673AB0EE457AA7EE886AE5EE483A37
:1051C00076EEA66AA7EEC87AE5EE087A65EEA35AEF
:1051D000F0EE463AB0EE475A67EEA47AE6EEA83A09
:1051E000A6EEA85AA6EEE87AA6EEE86ABDEC048B15
:1051F000C4EE234A25EE005A27EE007A25EE245A03
:1052000065EEA46A27EE247A67EEA47A84ED005A4C
:1052100026EE246AC4ED016A84ED027AC4ED037AB5
:1052200084ED046A38BD00234FF07E52BDEC048B40
:105230002361E3602260A360636038BD6666E63E7A
:105240009A99993EDB0FC9409A99193F0000204274
:105250002DE9F04F2DED0C8BABB0CDE90612002AF5
:1052600001F030849500D1E9004004EB82039842BC
:1052700003D242199442C1F014842A4600211FF03F
:1052800081FD2A46002120461FF07CFD00239FED72
:105290004DBA4D4F1C46A20704D14C4B1B780BB99D
:1052A000FBF7F8FE4A4B0020DFF83CA112AD19686D
:1052B0002AAA484B05941C465346474E8A46DFF8B7
:1052C0002C911946DFF82881DFF828B10490CDE948
:1052D0000C00CDE90E00CDE9100022E077EEC77A90
:1052E000BEF1020FC6ED007A5ED0BEF1010F47D0CD
:1052F0009FED3A0A039127EE800A1FF0E1F8039927
:105300002AAA28EE008A05ED018A954206F10406D4
:1053100001F1040109F1010908F104080BF1040B82
:105320006AD04FF0000C14F8013F45F804CB002B75
:10533000EBD098ED008ADFED2A7AB4EEE78AF1EE41
:1053400010FAE2D9D1ED005AB7EE007A9FED256A46
:10535000D6ED006AC5EE867A99F800E077EEA67A77
:10536000F4EEC77AC6ED007AF1EE10FAB6DABEF1C5
:10537000010F05D0BEF1020FBAD19BED000AC0E7C4
:10538000F6EE006A37EEA77AF4EEE67AF1EE10FA5E
:1053900003D4F0EE007A37EEC77AF0EE007ABFEE73
:1053A000000AA7EE270AACE78AEA4A3A04938AEA97
:1053B0005A4A8AEA4A1A00EE10AABAEEE00A8BEDBF
:1053C000000A9EE7000000007C420020E417002055
:1053D00004000020272D0020D82B0020DB0FC9401F
:1053E00017B7D13800803B47982C0020102D0020A3
:1053F000382C0020782B0020DDE9040410B1CE4BBE
:10540000C3F800A0DFEDCDBACD4BF0EE6BAACD4DC9
:10541000F0EE6B9A93F80090B0EE6BAA0394B0EEA6
:105420006B9AF0EE6B8A2B78002B00F05783D5ED4A
:10543000017AC54BB0EEE77A6C78AA6AB0EE676A7B
:1054400053F82410FCEEC76A16EE903A002A00F0DA
:1054500041868A4228BF0A46BC48005D002800F009
:105460002486F5EEC07AF1EE10FA00F1D5868B4273
:1054700080F02D86B64A07EE903A03F1010CB54E46
:1054800004FB02F2F8EE677ADFEDB36A8C45134451
:1054900037EE677A36F9133008EE103AB8EEC88A5C
:1054A00028EE268A80F03286624436F9123007EE02
:1054B000903AF8EEE77A67EEA67A77EEC87A95F832
:1054C0002030D5ED056AA7EE878A002B40F00B86C9
:1054D00095ED067AF7EE007A76EE876AF4EEE76AE3
:1054E000F1EE10FAC0F2EF87F0EE676A0123C5ED26
:1054F000057A85F82030994B28EE268A1B5DD3B1BA
:10550000974A984B33F8141032F8143001339BB299
:10551000994222F814300ED8DFED937A0023B4EECE
:10552000E76A22F81430F1EE10FA41F3418036EECA
:10553000676A85ED016A8D4B95ED027A195D002948
:1055400040F0E8858A4BA6001A5D002A40F02786C5
:10555000D5ED017A08B1B1EE477A864B77EE877ABE
:105560001B5DC5ED017A002B40F01A87824BDFED01
:10557000837A334493ED007AB4EEE77AF1EE10FAD1
:105580002CD4F7EE007AF2EE0E5AB7EE086AF0EE7F
:10559000676AE7EE256A28EE268AB4EEC68AF1EE3F
:1055A00010FA11DCFFEE087AB4EEE78AF1EE10FA99
:1055B00000F1ED8728EE086AF1EE0B5A26EE086A34
:1055C000C6EE257A78EE677A87EEA68AF6EE006A4E
:1055D000F7EE007AE7EE267A28EE278A684B1B5D05
:1055E0000F2B0BD80120984007EE900AF8EEE77ACF
:1055F00028EE277AB8FE477A87EE278A002940F0FE
:10560000CF845AB15F4B9FED5D7A3344D3ED007A7E
:10561000F4EEC77AF1EE10FA00F3A4875A4BDFF8E4
:105620009C81195D61B318F8043023B1574B1B5DA1
:10563000022B00F0D187564BC4EBC40203EB82036C
:10564000D3ED056AD3ED007A93ED037AE8EE276A8D
:1056500093ED015AD3ED047AD3ED025A93ED066A25
:1056600027EE667A67EEE67AA8EE057AE8EE257A06
:10567000B0EE668A36EE077AC3ED067A83ED057AD8
:10568000444BDFED3E7A3344D3ED000A424BF4EE57
:10569000E70A185DF1EE10FA05D4B0EE480AFBF700
:1056A0003FFDB0EE408A3D4B1B5D0F2B0BD8012216
:1056B0009A4007EE902AF8EEE77A28EE277AB8FEAD
:1056C000477A87EE278A364B1B57002B40F0068619
:1056D000344B1B57002B40F0DA85334B1B57002B04
:1056E00040F0AE85314B1B5D002B00F0A980304BA4
:1056F0004FF4165E2F48BFEE007A3344DFF8C0C087
:1057000050F82420D3ED007A42F27F532A49FCEE70
:10571000E77A17EE90AAF0EE487A9A4528BF9A46A3
:1057200002EB0E03BAF1010F2CBFA3EB0A0303F146
:10573000FF33ACFB03AC45E0040000200000000098
:105740009F2A0020FC3C0020F4420020543B002013
:105750000077010034B01EC0000000384C3A002031
:10576000EC3900201C3A00200000C842D439002047
:10577000DC370020DC3A00207C3A00200AD7233CAA
:10578000643A00208C36002000340020F82C0020E1
:105790006C090020E0320020C8320020B032002026
:1057A000702D0020582D0020402D00209832002020
:1057B0003832002018310020000003C0282D0020BE
:1057C000B5814E1B4FEA9C2C0EFB1C330EFB0433A1
:1057D00001EB830393ED006AD54B3344D3ED006AAC
:1057E000E6EE867AF4EEC77AF1EE10FA00F103865F
:1057F000B7EE007AF4EE477AF1EE10FA77FE277AE8
:10580000CC4BF7EE006A02F1010C334493ED007AC1
:10581000C94B76EEC76A27EE067AA3FB0CE34FF47A
:10582000165E9B0AA6EE887A0EFB04220EFB13C3BB
:1058300001EB820140F82430C1ED007AB0EE478AD6
:10584000BE4B1B5D002B00F08780DFF86CE3F6EEAB
:10585000006ADFF868A34FEAC42C0EEB0602B849D1
:105860005AF8243092ED007A03EBC422B4EEE67AC3
:1058700001EB820277EE077AF1EE10FA82ED008AF0
:1058800003D4F0EE006A76EEE77AAE4AB5EE006A2F
:10589000DFEDAD5A40F2FF7B3244FFEE006A92ED3D
:1058A000005AAA4A67EE857A324467EEA57AD2EDAD
:1058B000005A67EE867AFCEEE77A17EE900AF0EE71
:1058C000487A0230584594BF1A1AA3EB0B02C2F370
:1058D0000A02624401EB820292ED006AE5EE867AEA
:1058E000F4EEE67AF1EE10FA00F18185F7EE006A47
:1058F000F4EE667AF1EE10FA76FEA77A9C44013354
:10590000DFED935AF7EE006AC3F30A0301EB8C0153
:105910004AF824308F4BC1ED007A334493ED005A9E
:105920008D4BC5EE257A3344D3ED005A77EE877A56
:10593000F4EEE67AF1EE10FA01DB77EEE67AB7EEF6
:10594000007AB644CEED007A77EE657A67EE887A13
:10595000E5EE867AB0EE678A804BF0EEC87A1B5D82
:105960001BB37F4B9A1992ED000AB4EEE70AF1EEF1
:1059700010FA40F1608577EEC06AB5EE007AA6EEC7
:10598000870A334483ED000A764B334493ED007A63
:10599000B4EEC07AF1EE10FA07D5DFED736AB4EE1B
:1059A000E60AF1EE10FA00F35E83B9F1000F1FD0A2
:1059B0006E4B1B78A34200F08A856D4B1B88E34039
:1059C000DB0715D56B4B9FED6C7AD3ED007A6B4BF3
:1059D000D3ED006A67EEA67AF4EEC77AF1EE10FA1C
:1059E00000F33A86B7EE007A77EE677A28EE278AD8
:1059F000634B644A1B78125D002B00F06E83624B90
:105A00001B5D002B40F069839FED608A604BD5EDF4
:105A1000047AD5ED036A334418F8042068EE266A48
:105A200028EE278AD3ED007ADAB15A4B1B5D002BA2
:105A300040F0E58406F1A803B7EE007A9FED566AC0
:105A40006B449FED525A53ED185AA5EE867AB4EE88
:105A5000C57AF1EE10FA40F19E8566EE856A28EE71
:105A6000058AF7EE005AB6EE007A35EEE76A77EE71
:105A7000A57A26EE076A67EE877A26EE266A67EE33
:105A8000887A464BF0EEC85A454AB0EEE67A33447F
:105A9000324487FE257AD3ED005A92ED004A414AFE
:105AA000F4EEC75A3244F1EE10FAD2ED004A3E4A03
:105AB000324492ED005A01D583ED007A36EE888AA1
:105AC000B6EE007A78EE868A39EE279A28EE078AB3
:105AD000A4EE08AAE4EE889AE5EE08AA2C35AF42B7
