:020000042400D6
:1000000000000220410A0024350A002499760224C7
:10001000350A0024350A0024350A002400000000B7
:10002000000000000000000000000000350A00246D
:10003000350A002400000000350A00241D76022441
:10004000350A0024350A0024350A0024350A002424
:10005000350A0024350A0024350A0024350A002414
:10006000350A0024350A0024350A0024A55E02243E
:10007000B15E0224350A0024BD5E0224C95E02245A
:10008000BD360324AD4E0224350A0024350A00246F
:10009000350A0024350A0024350A0024350A0024D4
:1000A000350A0024350A0024350A0024350A0024C4
:1000B0003D2803244928032455280324E14E022423
:1000C000350A0024ED4E0224350A0024556F02241F
:1000D000616F0224CD340324FD3403243535032419
:1000E000350A0024350A002400000000350A0024E7
:1000F000350A0024350A0024350A0024350A002474
:10010000350A0024D5520324612803246D6F02248C
:100110006D350324A535032455D40124350A002464
:10012000350A0024350A0024916F0224C56F022489
:10013000F1360324350A0024350A0024350A002448
:1001400000000000000000000000000000000000AF
:10015000350A0024350A0024350A0024DD3503243D
:10016000F94E0224350A00242D7602245176022409
:10017000350A002475760224350A0024350A002445
:10018000350A0024350A0024153603244D3603248D
:10019000796F0224856F0224350A0024350A002471
:1001A000350A0024350A0024350A0024350A0024C3
:1001B000E55A0224350A0024350A0024350A0024B1
:1001C000350A0024350A0024914702249D47022461
:1001D000350A0024A9470224350A0024350A0024E0
:1001E000350A0024350A0024350A0024350A002483
:1001F000350A0024350A0024350A0024350A002473
:10020000350A0024350A0024350A0024350A002462
:10021000350A0024350A0024350A0024350A002452
:10022000350A0024350A0024350A002400000000A5
:10023000350A0024350A002400000000350A002495
:10024000350A0024350A0024350A0024350A002422
:10025000350A0024350A0024350A0024350A002412
:10026000350A0024350A0024350A0024350A002402
:10027000350A0024350A00248536032400000000D6
:10028000350A0024350A0024350A00240000000045
:0802900000000000350A002403
:1002A00010B5054C237833B9044B13B10448AFF3B0
:1002B00000800123237010BD701E0020000000008C
:1002C000C8DD032408B5034B1BB103490348AFF352
:1002D000008008BD00000000741E0020C8DD03245B
:1002E000034613F8012B002AFBD1181A0138704776
:1002F00001F0FF01102A2BDB10F0070F08D010F8D7
:10030000013B013A8B422DD010F0070F42B3F6D1DA
:10031000F0B441EA012141EA014122F007047FF0F3
:1003200000070023F0E80256083C85EA010586EA4A
:10033000010685FA47F5A3FA87F586FA47F6A5FA86
:1003400087F68EB9EED1F0BC01F0FF0102F0070292
:1003500032B110F8013B013A83EA010313B1F8D13D
:100360000020704701387047002D06BF354603381E
:10037000073815F0010F07D1013015F4807F02BF57
:10038000013015F4C03F0130F0BC0138704700BFA8
:1003900081F0004102E000BF83F0004330B54FEA36
:1003A00041044FEA430594EA050F08BF90EA020FA3
:1003B0001FBF54EA000C55EA020C7FEA645C7FEA36
:1003C000655C00F0E2804FEA5454D4EB5555B8BF59
:1003D0006D420CDD2C4480EA020281EA030382EACA
:1003E000000083EA010180EA020281EA0303362D5C
:1003F00088BF30BD11F0004F4FEA01314FF4801C2F
:100400004CEA113102D0404261EB410113F0004F40
:100410004FEA03334CEA133302D0524263EB4303F7
:1004200094EA050F00F0A780A4F10104D5F1200E95
:100430000DDB02FA0EFC22FA05F2801841F10001F0
:1004400003FA0EF2801843FA05F359410EE0A5F1C4
:1004500020050EF1200E012A03FA0EFC28BF4CF0F5
:10046000020C43FA05F3C01851EBE37101F00045AB
:1004700007D54FF0000EDCF1000C7EEB00006EEBB8
:100480000101B1F5801F1BD3B1F5001F0CD3490842
:100490005FEA30004FEA3C0C04F101044FEA445299
:1004A00012F5800F80F09A80BCF1004F08BF5FEA20
:1004B000500C50F1000041EB045141EA050130BD00
:1004C0005FEA4C0C404141EB0101013C28BFB1F512
:1004D000801FE9D291F0000F04BF01460020B1FA5D
:1004E00081F308BF2033A3F10B03B3F120020CDA30
:1004F0000C3208DD02F1140CC2F10C0201FA0CF00E
:1005000021FA02F10CE002F11402D8BFC2F1200C72
:1005100001FA02F120FA0CFCDCBF41EA0C01904028
:10052000E41AA2BF01EB0451294330BD6FEA040471
:100530001F3C1CDA0C340EDC04F11404C4F120025C
:1005400020FA04F001FA02F340EA030021FA04F36E
:1005500045EA030130BDC4F10C04C4F1200220FAC5
:1005600002F001FA04F340EA0300294630BD21FA03
:1005700004F0294630BD94F0000F83F4801306BFC9
:1005800081F480110134013D4EE77FEA645C18BFBD
:100590007FEA655C29D094EA050F08BF90EA020F54
:1005A00005D054EA000C04BF1946104630BD91EA4C
:1005B000030F1EBF0021002030BD5FEA545C05D14F
:1005C0004000494128BF41F0004130BD14F580048E
:1005D0003CBF01F5801130BD01F0004545F0FE4102
:1005E00041F470014FF0000030BD7FEA645C1ABF37
:1005F000194610467FEA655C1CBF0B46024650EA6E
:10060000013406BF52EA033591EA030F41F4002199
:1006100030BD00BF90F0000F04BF0021704730B51F
:100620004FF4806404F132044FF000054FF00001F4
:1006300050E700BF90F0000F04BF0021704730B5B5
:100640004FF4806404F1320410F0004548BF40428A
:100650004FF000013EE700BF42004FEAE2014FEADF
:1006600031014FEA02701FBF12F07F4393F07F4FBA
:1006700081F06051704732F07F4208BF704793F0BD
:100680007F4F04BF41F40021704730B54FF46074D0
:1006900001F0004521F000411CE700BF50EA0102D3
:1006A00008BF704730B54FF000050AE050EA01027C
:1006B00008BF704730B511F0004502D5404261EBEC
:1006C00041014FF4806404F132045FEA915C3FF42D
:1006D000D8AE4FF003025FEADC0C18BF03325FEACA
:1006E000DC0C18BF033202EBDC02C2F1200300FA7B
:1006F00003FC20FA02F001FA03FE40EA0E0021FAA0
:1007000002F11444BDE600BF53B94AB9002908BF3D
:1007100000281CBF4FF0FF314FF0FF3000F088B9C8
:10072000ADF1080C6DE904CE00F006F8DDF804E048
:10073000DDE9022304B070472DE9F047089D8E469D
:1007400004468846002B4AD18A42174662D9B2FA3B
:1007500082F64EB1C6F1200301FA06F820FA03F33F
:10076000B74043EA0808B4404FEA174E1FFA87FC27
:10077000B8FBFEF1230C0EFB118843EA084301FB92
:100780000CF29A4209D9FB1801F1FF3080F0EA809F
:100790009A4240F2E78002393B449A1AA3B2B2FB74
:1007A000FEF00EFB102243EA024300FB0CFC9C45CA
:1007B00009D9FB1800F1FF3280F0D6809C4540F249
:1007C000D3803B44023840EA0140A3EB0C030021F4
:1007D0001DB1F3400022C5E90032BDE8F0878B422D
:1007E00005D90DB1C5E9000100210846F5E7B3FAC6
:1007F00083F1002946D1734502D3824200F205817C
:10080000841A6EEB030201209046002DE5D0C5E965
:100810000048E2E7002A00F09080B2FA82F6002E4B
:1008200040F0A4808A1A030C4FEA174E80B2BCB283
:100830000121B2FBFEFC0EFB1C2243EA024304FB37
:100840000CF29A4207D9FB180CF1FF3802D29A42F7
:1008500000F2E080C4469B1AB3FBFEF20EFB12339B
:1008600040EA034302FB04F49C4207D9FB1802F15F
:10087000FF3002D29C4200F2CA8002461B1B42EAB1
:100880000C40A5E7C1F120068B4022FA06F71F4372
:100890000EFA01F420FA06F32EFA06FE4FEA174983
:1008A000234300FA01F81FFA87FCBEFBF9F01C0C89
:1008B00009FB10EE44EA0E4400FB0CFEA64502FACA
:1008C00001F209D93C1900F1FF3A80F09C80A6455D
:1008D00040F2998002383C44A4EB0E041FFA83FED8
:1008E000B4FBF9F309FB13444EEA044403FB0CFC8C
:1008F000A44508D93C1903F1FF3E80F08280A4454D
:100900007FD9023B3C4443EA0040A4EB0C04A0FB2B
:1009100002EC64457346E14662D35FD05DB1B8EB4B
:10092000030264EB090404FA06F622FA01F31E43FB
:10093000CC40C5E9006400214FE7B1FBF2FC010C9B
:1009400041EA0E4180B240EA01423B4638463C460D
:10095000B846BE462026B1FBF7F1A2EB080241EAF9
:100960000C4166E7014618E710462CE7C6F1200265
:100970002EFA02F3B740B14020FA02F24FEA174EC6
:100980000A43B3FBFEF8BCB20EFB1833110C41EA6C
:10099000034108FB04F9B04089454FEA104380B297
:1009A0003ED9791808F1FF3C01D289451FD8A1EB47
:1009B0000901B1FBFEF909FB04F80EFB191192B213
:1009C00042EA0142424529D2BA1809F1FF31C4D2A4
:1009D0004245C2D2A9F102013A44BEE7F0459DD298
:1009E000BEEB02036CEB070C0138E14696E7A7EB80
:1009F00009094944A8F1020CB1FBFEF909FB04F80E
:100A0000DBE773467FE7504666E70846FDE63B4472
:100A1000023A33E7ACF1020C3B441CE749469CE741
:100A2000A1EB0901C446B1FBFEF909FB04F8C4E7D8
:100A3000704700BF684620F007018D46FEE700BF03
:100A40000A480B4A904208B503D0121A09493AF0F5
:100A5000D8FA0948094A904203D0121A00213AF004
:100A600015FA3AF0A7FA1CF003FDFEE7000000209B
:100A7000701E002004DE0324701E0020CC4E0120D6
:100A8000704700BF704700BF704700BF704700BF8E
:100A9000704700BF704700BF704700BF704700BF7E
:100AA000704700BF704700BF704700BF704700BF6E
:100AB000704700BF024B1878B0FA80F040097047C9
:100AC000E850002010B40023304C4FF07E5101223A
:100AD000237000202E4CDFF858C123702D4C23705A
:100AE0002D4C23702D4C23702D4C23702D4C2370D6
:100AF0002D4C21602D4C23702D4C23702D4C2370D8
:100B00002D4C22702D4C22702D4C22702D4C2270B9
:100B10002D4C22702D4C22702D4C22702D4C2270A9
:100B20002D4C22702D4C22702D4C22702D4C227099
:100B30002D4C23702D4CC4F800C02D4CDFF8F4C0B0
:100B4000C4F800C04FF0100C2A4C84F800C02A4CA6
:100B500020602A4C23702A4C23602A4C20602A4CA7
:100B600020602A482A4C01602A48236001602A4CF0
:100B70002A482B4923700B702A4C03702A492B48B2
:100B8000237003705DF8044B0A707047EA6600201A
:100B9000E9660020E8660020E7660020E66600209F
:100BA000E5660020E466002028180020D8660020B2
:100BB0008766002074660020581800204C1800201A
:100BC000441800203F1800203E1800203D18002047
:100BD0003C1800202618002025180020241800208A
:100BE0001018002098170020C464002094170020DB
:100BF000901700208C170020C0640020BC640020E7
:100C0000B8640020B4640020B06400201C180020E8
:100C1000AC6400201818002086660020856600203D
:100C2000846600207666002011180020756600207A
:100C300000401C46F4FD343F074B03F5C06113F838
:100C4000012C2AB11A78824202D1002203F8012C29
:100C500030339942F3D1704705690020704700BFD7
:100C6000704700BF2DE9F04317282DED048B83B0AA
:100C7000CDE9001300F2F180C74B05461B5C002B49
:100C800000F0EB80C54B1B5C03F0FF01002B40F034
:100C9000E480C34F3E5C002E40F0F980C148002440
:100CA0000646034603E00134202C00F00F8119783A
:100CB00030330029F7D1BC4B53F825100E9B002B85
:100CC00000F0EE80994240F2EB80DDED007A04EB1B
:100CD00044039FEDB67A962AF8EEE77A06EB031303
:100CE0000E984FEA440887EE878AD86200F2D580D2
:100CF00007EE902ADFEDAE6AF8EE677A87EEA67A05
:100D0000AC4B4FEA850903EB8503B5EEC00AD3ED82
:100D1000007A28EE078AF1EE10FA28EE278A00F111
:100D2000D280F7EE087AB4EE670AF1EE10FA37FED9
:100D3000800ADDED017AFFEE006A9FED9D6A28EEE4
:100D4000008AB8EEE77A9C4B4B44C7EE067A93EDE7
:100D5000007A77EE877AF4EEE67AF1EE10FA40F157
:100D6000A480DFED968AF0EE489A68EE288A08EBB8
:100D70000403934A1801525D06EB03135D700123CF
:100D80003354002A00F08E80013907EE901AF8EEF5
:100D9000677A8C4B08EB0407DFED8B0AB0EE000A94
:100DA00033F9153006EB071707EE103A874BC7EDFE
:100DB000017AB8EEC77A4B4493ED009AC7EE200A49
:100DC00038F096FC824B87ED058A5B5DC7ED039A90
:100DD00029EE009AC7ED048A87ED029A43B37D4B52
:100DE0004B44D3ED007AF5EEC07AF1EE10FA00F143
:100DF00081809FED797AF4EEC77AF1EE10FA00F374
:100E0000C1809FED767AF4EEC77AF1EE10FA71D9CF
:100E10009FED736AB7EE007ADFED726A67EE867A4D
:100E200067EEA67A87EE276A00259FED647A66E072
:100E3000F7EE007A0225B0EE670AC7ED067AC7ED35
:100E4000077A694BA0441A6806EB0816511C86ED18
:100E5000080A86F82450B262196003B0BDEC048B16
:100E6000BDE8F083614B03F5C06E13F8014C5FFAE7
:100E700081FC2CB11C78644502D1002003F8010CE0
:100E800030337345F1D1013118293FF407AF8D425A
:100E9000F9D07B5CB342F6D1E4E7B7EE087A2FE7EE
:100EA0000E9112E7DFED457A73E7B7EE007AF4EEC4
:100EB000C77AF1EE10FA3FDDDFED409AF0EE488A96
:100EC00068EE299A53E79FED3D0A32E700244FF080
:100ED000FF3327460AE0816A3030994238BF2746FF
:100EE00004F1010438BF0B46202C4ED04178A942B2
:100EF000F1D1E0E6B7EE007A0125B0EE476A3C4B4F
:100F0000F7EE006A4B44D3ED007A08EB0403F4EEED
:100F1000E67A06EB031383ED067AF1EE10FA83ED21
:100F2000076A16D49FED337AF4EEC77AF1EE10FA21
:100F30001BDD9FED310A0EE0F5EEC07AF1EE10FAFE
:100F40000CD477EE679A69EE889A20DDF0EE488A35
:100F50000DE79FED2A0A38F071FA72E777EE877A8B
:100F6000F0EE489A67EE888A01E79FED1D6ABFEEB2
:100F7000007ADFED1C6A67EE867A67EEA67A87EE66
:100F8000270AE8E79FED1E6A4EE73C4693E677EEB8
:100F9000877A67EE888AEAE6206F0020086F0020D3
:100FA0005C66002004690020986F00200000FE426B
:100FB0000000C842A06800202C5D00200000000056
:100FC0007C640020EC630020000096441C64002038
:100FD00028540020C85300200000FA440AD7233CBC
:100FE00000803B476F12833A0069002005690020AA
:100FF000685300200000FA453DC32EB6AAAAAABC39
:101000003DC32E3781422DE9F04F044683B007D906
:10101000034644480122C2541344DAB29142F9D83B
:10102000414B03F5C06513F8012C3AB11A78002042
:10103000944203D8914288BF03F8010C3033AB428D
:10104000F1D1A1426BD9C4EBC403384A384F091B14
:10105000384E02EB840B07EB83074FF4164206EB86
:101060008306354B3548013902FB043A344A00EB1C
:101070000409A50002EB4438621C52FA81F3019383
:101080000021304BDFF8F8C0002259511C372E4B9D
:101090001C3647F8042C19552C4B47F8082C1955C9
:1010A0002B4B46F8042C19552A4B46F8082C59515D
:1010B000294B09F8011B1955284B4BF8041B5951B2
:1010C000274B1955274B1955274B5819274BC0F853
:1010D00000C05819DFF8ACC0254BC0F800C0581943
:1010E000244B026010201855234B5819234B04350C
:1010F000026003EB8400013402604FF41642504654
:101100000AF5164A39F0C2FE404600214FF400525B
:1011100039F0BCFE019B08F500589C42B0D103B0E9
:10112000BDE8F08F086F002005690020986F00204F
:10113000AC0F00200C0D0020000003C0206F002029
:10114000000000C0386F0020C85C0020905B0020C9
:10115000605B0020E0590020C8590020885700201B
:1011600070570020E05C0020685C0020085C0020D4
:10117000A85B0020785B0020505600207467002098
:1011800000007A44F4FD343F2DE9F04F254D994697
:1011900083B08B462B7814460190072B09D9224A3D
:1011A0001378013303F0070313702B78013BDBB294
:1011B0002B70DFF878802022DFF874A0002198F8E7
:1011C00000600AEB461039F061FE019A0023F7B285
:1011D000760162F30703220A6BF30F2364F31743CC
:1011E000240C62F31F637A010AEB47174AF80230B6
:1011F0003C71B9F1000F06D006F1080049461722EC
:10120000504439F067FE98F80030013303F00703CB
:1012100088F800302B780133DBB22B7003B0BDE8C7
:10122000F08F00BFE44F0020E54F0020E64F002084
:10123000E84F002010B50446FFF752F8032804D900
:10124000031FE25C1C442E2A01D0002010BD6378ED
:1012500003F0DF03572BF8D1A37803F0DF03412B12
:10126000F3D1E07800F0DF00A0F15600B0FA80F092
:10127000400910BD2DE9F04F83B003784FF000090D
:1012800001905BB3DFF8788058F839300093009B09
:101290001E7876B3019D05F1FF3B3746DDF800A0CF
:1012A0000AE039F02DFC0446384639F029FC844226
:1012B00006D11AF8017FE7B11BF8010F0028F0D121
:1012C00015F8013F002BE6D109F10109B9F1240F0E
:1012D000DAD14FF0FF3003B0BDE8F08F09F101091A
:1012E000B9F1240FF5D009F10109B9F1240FF5D1B5
:1012F000EFE708EBC90898F8040003B0BDE8F08FE9
:101300009CC703242DE9F04F1729ADF26C4D0091D5
:1013100004D900200DF26C4DBDE8F08F0C4600257D
:10132000DFF82CB20122834B0146DFF828928FA808
:101330000BF8045043F8245009F8042021F014F865
:1013400010B109F80450E4E72C228FA803AB04A9DC
:1013500021F00AF950B9039B2B2B07D9764B049A3D
:101360009A4203D1754B069A9A4203D08FA821F076
:101370002FFACEE70C218FA8BDF826A0BDF8326069
:1013800021F08EFA929B083B0C2BEFD90C2711E031
:10139000039A072AEAD90F9A8FA8109D9A4213D070
:1013A00094992944083521F07BFA929B2F44083BFD
:1013B000BB42DBD903AB08220FA98FA821F0D4F8D8
:1013C0005F4B0028E4D0D1E7002DCFD0F7080AFB0F
:1013D00007F7002FCAD05B4BB5FBF7F8984528BF3D
:1013E0009846102E22D1BAF1010F1FD1009C4FEA6E
:1013F0004802554B8FA8554901FB043103AB21F03E
:10140000B3F8039D4B4B6D0843F82450003D009CFE
:101410004FF000038FA818BF012509F804300BF81E
:10142000045021F0D5F91BF8040073E7BD427FD3C7
:10143000444B0025009A03FB02F40194A8EB05023B
:1014400003AB0FA98FA807FB02F2B2F5007F28BFFC
:101450004FF4007221F088F8002864D1039B002B20
:1014600061D0A845B3FBF7F45DD9BB4259D3019ACB
:101470006FF00043344913440FAA2B4401EB43019E
:101480000DE0182E1AD0082E2AD000230130013585
:101490003A4421F8023F844243D9A84543D9102E4B
:1014A000EFD1BAF1020FB2F90030EFD1B2F902C0B8
:1014B0001CEB030323D443F34F03E7E75378BAF15C
:1014C000020F92F800C04FEA034343EA0C2392F85C
:1014D00002C043EA0C634FEA234312D01BB2D5E7A4
:1014E0001378BAF1020FA3F180034FEA0323F5D179
:1014F00092F801C0ACF1800C13EB0C23DBD5013367
:10150000D9E792F804C092F803E04FEA0C4C4CEA99
:101510000E2C92F805E04CEA0E6C13EB2C43CAD566
:10152000EDE7A8458AD8034B009A43F822506DE7AF
:101530000025F8E7986F0020524946465741564526
:101540006461746100770100589A32C000EE0200B5
:10155000206F0020086F0020F2EE0E7AB7EE006ACE
:10156000A0EEA76A66EE007A03282ED8DFE800F026
:1015700025382002B7EE005AFFEE005AF0EE006A5E
:10158000F4EEC57AB0EE657AF8EE004AF1EE10FAA4
:1015900006DD76EEE77AF4EEC77AF1EE10FA04D4BF
:1015A000F4EEE57AF1EE10FA0FD574EEE77AE1E7A2
:1015B000F5EEC07AF1EE10FA1CDBB0EEE77AF7EE4A
:1015C000006A37EE267AC7EE877A87EE867AB7EE1C
:1015D000000AF6EE007AA0EEA70A27EE000A70478E
:1015E000BFEE007AF4EEC77AF1EE10FA11D5F0EE04
:1015F000477AEAE7DFED0B6AF7EE005A67EEA67A64
:10160000B0EEE77A37EE257AC7EE875A65EEA67A0E
:10161000DBE7B7EE007AF4EE477AF1EE10FA77FEE8
:10162000277AD2E73333333F70B401221A4D1B4B74
:101630002A705B69D80720D519481A4C07E0028840
:1016400092B2B1540380154B5B69D90715D5134B82
:10165000154E93F8301003882288C9B2013392B234
:10166000C3F30A039342EAD1104A138801339BB2B1
:1016700013800A4B5B69D907E9D4084B5A695206B3
:1016800006D50B4A40219961138801339BB2138020
:1016900000232B7070BC70478C1E0020003001406E
:1016A000901E00208E1E0020941E0020DC4F002083
:1016B000DE4F00205F4A604BD2ED007A10B52DED71
:1016C000048BF3EE048A5D4C93ED008AC4ED627ADC
:1016D000F4EEE87A84ED638AF1EE10FA06DD9FED10
:1016E000587AF4EEC77AF1EE10FA4AD400230022B9
:1016F000C4F8B43184F89021C4F8B031C4F8AC31E6
:10170000C4F8A8314F49DFED506A91ED007A4F4A95
:10171000B4EEE67A4E4BD2ED007A1B78F1EE10FA79
:101720001DD4F3EE046AB4EE667AF1EE10FAF5EE2B
:10173000C07A36FE877A84ED5F7AF1EE10FA17D41C
:10174000B7EE007A84F88431BDEC048BF4EE477A6E
:10175000F1EE10FA77FE277AC4ED607A10BDF5EE4F
:10176000C07AB0EE667AF1EE10FA84ED5F7AE7D5D2
:10177000DFED387A84F88431C4ED607ABDEC048BF7
:1017800010BDD4ED016A01239FED337A9FED336ADA
:1017900026EE877A84F89031F4EEC77AF1EE10FAEB
:1017A00037FE277A27EE067AC7EE269AB0EE690A48
:1017B00038F02AF9B0EE409AB0EE690A38F0E8F94C
:1017C000DFED277AB4EEE78AF1EE10FA2BD4B4EE0F
:1017D000E88AF1EE10FA29DC38EE088AC9EE087AB8
:1017E000B7EE006AF8EE005AB6EE007A76EE406A7E
:1017F00020EE250A37EE865A76EE677AC6EE055A4F
:1018000066EEA56A20EE250A67EEA57A26EE877AAF
:10181000C4ED666A84ED680AC4ED697A84ED657A80
:1018200084ED677A6EE79FED0F8AD7E79FED0E8A0A
:10183000D4E700BF400100203C0100209C020020B2
:1018400000D08446380100200AD7233CE828002035
:10185000E528002000000000EE7CFF3EDB0FC940C1
:10186000CDCCCC3DCDCC4C3E00002042037A0BB118
:1018700004230372704700BF084BB6EE007AD3ED25
:10188000017A93ED006AC7EE866A77EEE67AF0EEAB
:10189000E77A67EE877AC3ED047A7047FC6600202A
:1018A0002DE9F04F0026ADF52F7D414BB046039357
:1018B000039B13F8014F0393002C61D13D4920A8ED
:1018C0003D4B51F8265060213C4A009539F0FEF915
:1018D000402221460DEB020039F0D8FA20A904A8D5
:1018E00021F0A8F900284BD168A904A821F0F2F949
:1018F00088BB9DF8B67177B39DF8A821D306F3D4C1
:101900000DF5DB70FFF796FC05460028ECD0002CA7
:101910003ED00DF1400A0DF5DB7B0CE039F0F0F81C
:10192000034620461C4639F0EBF884423BD11BF8B5
:10193000017F002F39D0D1461AF8014B3846002CD0
:10194000ECD13C1B002C23DB2C4668A904A821F019
:10195000C1F90028CDD004A821F0A4F984B110A9C0
:1019600020AB164A38A80091C02139F0AFF938A849
:10197000F1B2FFF7C7FC18B108F101085FFA88F867
:101980000136102E94D140460DF52F7DBDE8F08F25
:101990003F220DF5DB7110A82C4639F09BFA00238D
:1019A0008DF87F30D1E7241ACCE799F80140C8E7D9
:1019B0001F6F0020BCC8032438BF032440BF03248A
:1019C0009F4B1B78002B00F039819E4B60219E4A73
:1019D0002DE9F0439D4CADF56F7D009432A839F0B0
:1019E00075F932A91AA821F025F90446002800F05B
:1019F000A280944902A821F01DF9002840D0FFF7E9
:101A00004FFF002840F0158130218E4B904A1AA8D4
:101A100039F05CF91AA932A821F00CF960BB102446
:101A2000A8AD294632A821F055F9F8B9AB7D0DF2E1
:101A3000B620DBB1182C00F03E812B7ADB06F0D407
:101A4000FFF7F8FB1AAB804AA0210028E9D00DF27D
:101A5000B620009062A839F039F9214662A8FFF754
:101A600051FC631C0028DCD0DCB2DAE732A821F09C
:101A700019F9102C00F222810DF56F7DBDE8F0837D
:101A80000DF5C479494602A821F024F9002840F058
:101A90000E8199F81630002B00F0098199F8083072
:101AA000DA06EFD50DF5CF70FEF71AFC0228E9D95A
:101AB00068490DF5CF7039F0F1F90028E2D00DF545
:101AC000CF730DF13808604A602100931AA85D4B6E
:101AD00039F0FCF81AA9404621F0ACF80446002879
:101AE000D0D1A8AD2946404621F0F4F8002840F0B6
:101AF000FD80AB7D0DF2B620002B00F0F780102C9E
:101B000000F0B4802B7AD906ECD4FFF793FB1AAB24
:101B10000028E7D00DF2B622C02132A800924A4A2E
:101B200039F0D4F8214632A8FFF7ECFB631C0028FB
:101B3000D8D0DCB2D6E70DF138080746A8ADC8E921
:101B40000000C8E9020029461AA821F0C3F80028BD
:101B500032D1AB7D0DF2B62073B32B7ADE06F2D410
:101B6000FFF768FB03460DF2B620002BEBD0FFF722
:101B700081FB0F280646E6D818F80030002BE2D18A
:101B80000DF5C4790DF2B62032AB2F4AC02100907A
:101B9000484639F09BF84846F1B2FFF7B3FB7B1C8F
:101BA00001220028CFD029461AA808F80620DFB263
:101BB00021F090F80028CCD01AA821F073F80DF18C
:101BC00037030DF1470013F8012F611C02B9CCB2A5
:101BD0008342F8D124BB002F3FF40BAF1F221B49D7
:101BE0001D4839F077F9194A39461C4822F0A6FCFD
:101BF0001B49002201F1010C01F110060D46CCF148
:101C0000010311F8014F01202B440CB1984002430D
:101C1000B142F3D10D4B39460120FFF7B5FAEEE69C
:101C200022460A490F4822F089FC002F3FF4E1AE1A
:101C3000D4E701460C4822F081FCE5E6704700BF7E
:101C40000C51002038BF032440BF032448BF0324A5
:101C500010C00324A4BF0324EC50002080BF032441
:101C60001F6F002058BF0324D8BF0324404621F033
:101C700019F81F220DF5CF71204839F02BF90DF519
:101C8000CF721F48214622F059FC00231D481A46F6
:101C9000012110F8015B9940013305B10A43A342C9
:101CA000F6DB0DF5CF7321460120FFF76DFA02A890
:101CB00020F0F8FFA3E632A820F0F4FFA4F110070B
:101CC0001148124D394622F039FC10230022012020
:101CD00015F8016F9840013306B102439C42F6D1DA
:101CE0000B4BF9B20620FFF74FFAC5E6404620F04D
:101CF000D9FF002C3FF4C6AEBBE700BFEC5000207C
:101D0000ACBF0324206F002018C003242F6F0020D5
:101D1000A4BF0324A64B2DE9F04F1C782DED0A8BB0
:101D200083B0002C40F03E81DFEDA2BA0122A24D2B
:101D3000F7EE00CAB0EE6BBA1A70F0EE6BAA05F5BA
:101D4000C043B0EE6B9A05F5805B9FED9CCA05F52C
:101D5000005A05F5405905F5804805F5A04701935F
:101D6000DFED977AF5EE006AB1EE007A9FED956AA5
:101D700029EE279AB4EEE69A79EE099A69EE077A87
:101D8000F1EE10FA69EE869A0BD4F6EE086AB4EE1C
:101D9000E69AF1EE10FA40F10281B0EE007A77EEA9
:101DA000677A9FED848AA5F5805202263AEE888AEA
:101DB000C2ED00AAE5EC017AB0EE48AA07EE906AFF
:101DC0000136F8EEE78A29EEA80A37F01DFEC0EECC
:101DD000287A092E3AEE27AAF0D1DFED7B7AF0EED1
:101DE000488A03262AEE27AAABEC01AA07EE906ADE
:101DF0000236B8EEE7AA29EE8A0A37F005FEC0EEF1
:101E00000A7A0B2E78EEA78AF0D19FED707AFFEE5A
:101E1000007A68EE878AF4EEE78AF1EE10FA00F1B4
:101E2000B580F7EE007AF4EE678AF1EE10FA77FEED
:101E3000A88AF5EE006A9FED637ADFED5E7A0326ED
:101E4000EAEC018A39EE269A7CEEA7CA39EE099AA5
:101E500029EE079A07EE906A0236F8EEE78A29EE35
:101E6000A80A37F0D1FDB0EE40AA29EE280A37F0D3
:101E7000CBFDC0EE287A0B2E8AEE287A7CEEA7CA1C
:101E800038EE078AE6D138EE2C8A9FED4F7AFFEEC6
:101E9000007A28EE078AB4EEE78AF1EE10FA7BD4D6
:101EA000F7EE007AB4EE678AF1EE10FA37FE888A10
:101EB000F5EE007A9FED465A9FED466AFFEE006A06
:101EC0009FED457A6BEE277ADFED445A2BEE077AC9
:101ED000A9EC018AEAEE857AAAEEA57AEBEE867A7B
:101EE000A8EC017AF4EEE67AF1EE10FA51D4B7EEEE
:101EF000007AF4EE477AF1EE10FA77FE277A9FED3A
:101F0000387A0134E7EC017ACCEE077A019BB4F51C
:101F1000806FE3EC017A019344D007EE904A9FED85
:101F2000288A9FED28AAB0EE08CAB8EEE79A29EEF3
:101F3000088A78EE088A68EE8A9AB0EE690A37F065
:101F400063FDF0EE40AA39EEA90A37F05DFDB0EE70
:101F500040BA29EE8C0A37F057FDF7EE007AF0EE22
:101F600040BA38EEE70A20EE0C0A37F0D5F8F5EE65
:101F7000007AB0EE40CA38EE278A38EE088A28EE9A
:101F80000A0A37F041FDF0EE40CAE9E6F0EE678A52
:101F90004FE7F0EE667AB2E7B0EE678A88E777EE51
:101FA000C77AFEE603B0BDEC0A8BBDE8F08F00BF38
:101FB000747000200000000078800020E9BB7EBF24
:101FC0000000803ADB0F494083F9223F83F9A23FAA
:101FD000E17A143F7B142E3E9A99993E3333333F76
:101FE000E9BB7E3F022800B555D0032839D001282F
:101FF0006CD00022B7EE006AF1EE066ADFED3F3AE0
:10200000DFF858C105EE102A9FED3D4A0020DFEDB4
:102010003D4A1146DFED3C5A9FED3C7ADFED3C7ABC
:10202000DFF83CE13B4B9A603B4AC3ED003AC3F812
:1020300004C083ED034AC3ED054A83ED065AC3EDA0
:10204000075A83ED086AC3ED096A83ED0A7A83F8BB
:102050002C001963C3ED0D7AC3F838E01A615DF8FE
:1020600004FB4FF07C5CB5EE004AB7EE086ADFED8A
:102070002B3AF2EE056A2A4ADFED254A07EE10CA2E
:10208000284902209FED285ADFED285ADFED287AF3
:10209000DFF8D0E0C6E70022F7EE005AB0EE086A9B
:1020A000DFED163AF2EE016A4FF07F514FF07D5EA0
:1020B000DFF8B4C09FED1F4A05EE102ADFED1E4A7F
:1020C00000209FED0F7ADFED1D7AABE71C49B0EEE3
:1020D000006AF6EE087ADFED093ADFF890C08E4626
:1020E000184A9FED194ADFED194A9FED195ADFEDA5
:1020F000105ADFED186A9FED187A93E76F12833A52
:102100008FC2F53DAE47613E9A99193E0AD7A33D6D
:10211000CDCCCC3E500100206F12833A0AD7A33BAE
:102120003333B33E0000E040CDCC4C3E9A99993E0B
:102130009A99193F6666E63F3333B33F9A99593F00
:10214000CDCC4C3F9A99193ECDCC8C3F6666663F0C
:1021500000000000CDCC4C40CDCC4C3D9A99993E2E
:102160009A99593F85EB513F666626403333B33F1A
:10217000022810B576D003284FD001284FF0000276
:1021800000F095805B494FF0000CB6EE006A4FF00E
:102190007E5EF5EE001ADFED586A9FED581A02EEEA
:1021A000901A9FED577A04EE10CA9FED562A1046FA
:1021B000DFED557A14469FED553ADFED553ADFEDE8
:1021C000554A9FED555ADFED555A554B1A7083ED20
:1021D000016AC3ED026AC3F80CE083ED041AC3ED93
:1021E000051A83ED067A596283ED0A2AC3F82CC0DA
:1021F000C3ED0C7AC3ED072A83ED083AC3ED0D3A1F
:1022000083ED0E4A83F83C0083F83D40C3ED104A4D
:1022100083ED115AC3ED125A10BD4FF07E5EDFED13
:10222000416AB6EE006A0222F0EE663A9FED3E1A6F
:102230004FF07D5CDFED3D1A9FED3D7A07EE90EAB1
:102240003C4901209FED3C2A0024DFED2F2A9FED21
:102250003B3A9FED3B4ADFED2B4A9FED3A5ADFEDCB
:10226000265AB2E701229FED386A4FF0000E9FED2B
:10227000377A3749F0EE467AB0EE473ADFED316A09
:102280009FED341A02EE901ADFED261A00209FED22
:102290002C2A1446DFF8ECC004EE90EADFED2E3A6B
:1022A0009FED2E4A9FED2E5ADFED2E5A8DE74FF00F
:1022B0007A5C1049DFED137AB6EE087AF1EE063A51
:1022C0009FED296AB0EE674ADFED286A4FF0000EF5
:1022D0009FED271ADFED271A02EE901A9FED112AC3
:1022E00003EE10CA1446DFED244A9FED245ADFEDB9
:1022F000245A6AE76F12833AEC51383F0080224437
:10230000CDCC0C3FEC51383E0AD7A33D295C0F3EA3
:10231000CDCCCC3DCDCC4C3D0AD7233D9A99593FED
:10232000C40100203333B33E0000964485EB513F97
:102330009A99193F8FC2F53D9A99993FCDCCCC3FE0
:10234000CDCCCC3E9A99193E295C8F3E6666E63E1E
:102350000AD7233C00802245CDCC4C400AD7A33E6F
:102360008FC2F53C14AE473F3D0AD73ECDCC4C3E24
:102370000000E1443333333F8FC2F53D295C8F3D8C
:10238000CDCC4C3FCDCC0C3F70B5174D1C461646FE
:1023900013465A224FF6FF7E68702A70A2196C808D
:1023A000A98013F8010B4FF0080C80EA0E0E4EF3D3
:1023B00000010E480CF1FF3C08401CF0FF0C80B2FD
:1023C00080EA5E0EF3D19342EBD1224631460848B3
:1023D0000834A5F806E038F014FE06490122064B41
:1023E0000C801A7070BD00BF0000003001A0FFFF1C
:1023F00008000030F86F0020FA6F0020033905292B
:1024000007D8DFE801F0071927364803334B0022CD
:102410001A707047324B002193F8902083F85510C2
:1024200012F0FB0F3DD193F89C2012F0FB0FF0D07F
:10243000042283F89C2070470F2836D9294B03F5D6
:10244000B0701A7A01210AB183F82C102C3398420B
:10245000F7D17047244B93F8842012B1042283F8FB
:10246000842093F89020002AD3D0042283F890206F
:1024700070471E4991F8642091F87030003A18BFF7
:102480000122003B18BF012392009B0081F86420C9
:1024900081F87030704700231549164A0B7013708D
:1024A0007047042283F89020BDE7134A0D4B105C5F
:1024B00003F5B07102E02C3399420ED01A7A002A4B
:1024C000F9D05A7A8242F6D193F82C204FF0010CC1
:1024D000002AF0D183F82CC0EDE770471C290020BA
:1024E000580400209C020020C4010020500100205C
:1024F00099290020982900200C290020F0B585B0EA
:1025000004460D4625F038F907460A264FF0FF0C21
:1025100001230DF10F020DF10E01254800968DF8F3
:102520000EC08DF80FC024F07BFF9DF80F30FF2BFD
:1025300036D0FE2B39D16119013C4D1E0A27FF26EA
:1025400001230DF10F020DF10E01194800978DF8CE
:102550000E608DF80F6024F063FF9DF80F3004F8D3
:10256000013FA542EAD10DF10F020DF10E01012349
:1025700000970F488DF80E608DF80F6024F050FF23
:1025800001230DF10F020DF10E01009708488DF89F
:102590000E608DF80F6024F043FF012005B0F0BD00
:1025A00025F0EAF8C31BC72BAFD9002005B0F0BD5A
:1025B0005C5300202DE9F04184B00746884625F0A1
:1025C000DBF8064605E025F0D7F8801BB0F5FA7F6A
:1025D0006BD20A25FF2401230DF10F020DF10E012C
:1025E000364800958DF80E408DF80F4024F018FF06
:1025F0009DF80F30A342E6D18DF80F300DF10F0298
:1026000001230DF10E012D4800958DF80E8024F068
:1026100007FFB8F1FD0F4CD07C1E07F2FF170A260A
:1026200014F801CFFF2501230DF10F020DF10E016A
:10263000224800968DF80EC08DF80F5024F0F0FE61
:10264000A742ECD10DF10F020DF10E01012300960E
:102650001A488DF80E508DF80F5024F0E1FE0DF160
:102660000F020DF10E010123009614488DF80E5053
:102670008DF80F5024F0D4FE01230DF10F020DF15F
:102680000E0100960D488DF80E508DF80F5024F075
:10269000C7FE9DF80F0000F01F00A0F10500B0FA82
:1026A00080F0400904B0BDE8F081002004B0BDE82E
:1026B000F081012004B0BDE8F08100BF5C53002030
:1026C000012810B53DD0022815D0002838D10F2997
:1026D00046D8DFE811F02A021F0069028002C60214
:1026E000DD02390251024500450045004500450024
:1026F00045009702AE02092901F21284DFE811F0C9
:102700004A009E008700FB00590070007501FE0121
:102710001201A301002A40F0DA84DFEDD27AB4EE90
:10272000E70AF1EE10FA00F1D485F7EE007AB4EE84
:10273000670AF1EE10FA37FE800ACB4B83ED1D0AD3
:1027400010BD092901F2FD83DFE811F00301120138
:102750008F006601A600BE0021013801A801C0015A
:10276000032AEDD1B5EEC00AF1EE10FA00F10386AE
:10277000F0EE007AB4EE670AF1EE10FA37FE800A46
:102780000F29DDD8B84B01F5B17103EB810383ED5F
:10279000010A10BD002A40F00184DFEDB27AB4EEE8
:1027A000E70AF1EE10FA40F15D85B04BC3ED007A17
:1027B00010BD002A40F06283DFEDAA7AB4EEE70A8A
:1027C000F1EE10FA00F14285F7EE007AA74BB4EE75
:1027D000E70AF1EE10FA01F3608183ED910A10BD72
:1027E000002A40F0C983DFED9F7AB4EEE70AF1EEEC
:1027F00010FA00F17A85DFED9E7A9C4BB4EEE70A81
:10280000F1EE10FA01F35E8183ED940A10BD002A07
:1028100040F0D282DFED937AB4EEE70AF1EE10FADF
:1028200000F10885DFED927A904BB4EEE70AF1EE05
:1028300010FA01F3388183ED410A10BD002A40F0FF
:102840004183DFED8C7AB4EEE70AF1EE10FA00F185
:102850005085F6EE007A854BB4EEE70AF1EE10FAF9
:1028600001F3248183ED1D0A10BD002A40F054833A
:10287000DFED7C7AB4EEE70AF1EE10FA00F1EE84B7
:10288000F7EE007A7C4BB4EEE70AF1EE10FA01F3B2
:10289000078183ED3A0A10BD002A40F0EB83DFED9B
:1028A000717AB4EEE70AF1EE10FA00F12A85F0EE43
:1028B000007A714BB4EEE70AF1EE10FACCBFC3ED2B
:1028C000847A83ED840A10BD002A40F0C582DFEDD2
:1028D000657AB4EEE70AF1EE10FA00F1B384DFEDA9
:1028E000677A654BB4EEE70AF1EE10FA01F3ED807A
:1028F00083ED870A10BD002A40F0DA83DFED607AAD
:10290000B4EEE70AF1EE10FA00F1F784DFED5D7A3C
:10291000564BB4EEE70AF1EE10FA01F3B28083ED04
:10292000780A10BD002A40F05A83DFED577AB4EEE2
:10293000E70AF1EE10FA00F15884DFED547A4B4BC0
:10294000B4EEE70AF1EE10FA01F3A18083EDE80A94
:1029500010BD002A40F0D883DFED4D7AB4EEE70ACF
:10296000F1EE10FA40F13484434BC3ED007A10BD10
:10297000002A40F0E682DFED3B7AB4EEE70AF1EEA2
:1029800010FA40F184843C4BC3ED1C7A10BD002A40
:1029900040F05082DFED337AB4EEE70AF1EE10FA40
:1029A00000F14C84DFED357A334BB4EEE70AF1EEFB
:1029B00010FA01F36F8083ED9E0A10BD002A40F0EB
:1029C0001D83DFED287AB4EEE70AF1EE10FA00F18C
:1029D0007C84DFED2A7A284BB4EEE70AF1EE10FA98
:1029E00001F3768083EDB50A10BD002A40F0F38133
:1029F000DFED1C7AB4EEE70AF1EE10FA00F1438441
:102A0000DFED1B7A194BB4EEE70AF1EE10FA01F391
:102A1000508083EDB00A10BD002A40F04482DFED03
:102A2000187AB4EEE70AF1EE10FA00F14A84DFED0D
:102A3000197A114BB4EEE70AF1EE10FA01F3248093
:102A400083ED6B0A10BD002A40F02383DFED107A7E
:102A5000B4EEE70AF1EE10FA40F126840E4BC3ED16
:102A6000007A10BDCDCC4C3DF4490020DC3F002065
:102A70009A99193F0AD7233DF4440020CDCC4C3F0E
:102A80000AD7233C9A99193E0AD7A33CCDCCCC3E19
:102A9000CDCCCC3DCDCC4C3EDC430020002A40F0D8
:102AA000BF82F6EE007AB4EEE70AF1EE10FA00F11A
:102AB0008B83F1EE047AD14BB4EEE70AF1EE10FA13
:102AC000CCBFC3EDE27A83EDE20A10BD002A40F0EC
:102AD0002D83F6EE007AB4EEE70AF1EE10FA00F17B
:102AE0005883F2EE007AC64BB4EEE70AF1EE10FA24
:102AF000CCBFC3ED007A83ED000A10BD002A40F080
:102B0000DD80DFEDC07AB4EEE70AF1EE10FA00F1F5
:102B10007483DFEDBD7ABD4BB4EEE70AF1EE10FA37
:102B200000F3CA8783EDCC0A10BD002A40F035813E
:102B3000DFEDB47AB4EEE70AF1EE10FA40F1658306
:102B4000B34BC3ED007A10BD002A40F00B81DFEDDE
:102B5000AD7AB4EEE70AF1EE10FA00F16783F7EE12
:102B6000087AAB4BB4EEE70AF1EE10FAD4BF83ED6E
:102B7000A90AC3EDA97A10BD002A40F06082DFEDFA
:102B8000A17AB4EEE70AF1EE10FA00F1A683F7EEAF
:102B9000087A9F4BB4EEE70AF1EE10FAD4BF83ED4A
:102BA000BF0AC3EDBF7A10BD002A40F0C380DFED3D
:102BB000957AB4EEE70AF1EE10FA00F12283F7EE0F
:102BC000007A934BB4EEE70AF1EE10FA00F3838734
:102BD00083ED3E0A10BD002A40F0F281DFED8D7AD0
:102BE000B4EEE70AF1EE10FA00F14983DFED8A7ADC
:102BF000874BB4EEE70AF1EE10FA00F33F8783ED5E
:102C0000730A10BD002A40F07581DFED847AB4EEBE
:102C1000E70AF1EE10FA00F11D83DFED817A814BB6
:102C2000B4EEE70AF1EE10FA00F3498783ED000AEB
:102C300010BD002A40F08982DFED7B7AB4EEE70A0E
:102C4000F1EE10FA00F14D83F1EE047A774BB4EE19
:102C5000E70AF1EE10FACCBFC3ED007A83ED000A6B
:102C600010BD002A3CD1DFED677AB4EEE70AF1EE41
:102C700010FA00F1D782F0EE007A654BB4EEE70A65
:102C8000F1EE10FACCBFC3ED907A83ED900A10BD3F
:102C9000AABBDFED5C7AB4EEE70AF1EE10FA00F1C0
:102CA000A882F7EE087A5A4BB4EEE70AF1EE10FA72
:102CB000D4BF83ED930AC3ED937A10BD012A00F0CF
:102CC000F184032A7FF43CADB5EEC00AF1EE10FAB0
:102CD00040F10E879FED560A4C4B83EDD00A10BD94
:102CE000032A7FF42DADB5EEC00AF1EE10FA40F1E3
:102CF00048879FED4F0A464B83ED920A10BD012A8B
:102D000000F01386032A00F0B483052A7FF418AD7F
:102D1000B5EEC00AF1EE10FA01F1A380F7EE007AE9
:102D2000B4EE670AF1EE10FA37FE800A384B83EDF5
:102D3000960A10BD022A00F05583032A7FF400ADE5
:102D4000B5EEC00AF1EE10FA01F19380F7EE007AC9
:102D5000B4EE670AF1EE10FA37FE800A2C4B83EDD1
:102D6000410A10BD012A00F04086032A00F08C833E
:102D7000052A7FF4E5ACB5EEC00AF1EE10FA01F1D8
:102D80007480F7EE007AB4EE670AF1EE10FA37FEBF
:102D9000800A1F4B83EDAC0A10BD012A40F031833D
:102DA000F3EE0E7AB4EEE70AF1EE10FA40F1E782A4
:102DB000174BC3ED017A10BD032A7FF4C1ACB5EE09
:102DC000C00AF1EE10FA40F167879FED190A0F4B28
:102DD00083ED440A10BD012A00F05E85032A7FF4CA
:102DE000AFACB5EEC00AF1EE10FA40F19F869FED50
:102DF000100A064B83EDB40A10BD00BFF444002056
:102E000024490020CDCC4C3D9A99193FDC3F00204D
:102E1000F44900200AD7233C9A99993E0AD7A33C4B
:102E2000CDCC4C3FBC4E0020CDCCCC3D684F0020DB
:102E300000000000012A00F0C784032A7FF480AC60
:102E4000B5EEC00AF1EE10FA40F166861FED080AF1
:102E5000D24B83EDA30A10BD012A00F06C84032A33
:102E60007FF46EACB5EEC00AF1EE10FA40F14A867E
:102E70009FEDCB0AC94B83ED8C0A10BD032A7FF46A
:102E80005FACB5EEC00AF1EE10FA00F12787F7EE5D
:102E9000007AB4EE670AF1EE10FA37FE800AC14BF1
:102EA00083ED930A10BD032A7FF44AACB5EEC00A45
:102EB000F1EE10FA40F1B8869FEDB90AB74B83EDF9
:102EC0006D0A10BD022A00F04882032A7FF438AC54
:102ED000B5EEC00AF1EE10FA00F18887F7EE007A3D
:102EE000B4EE670AF1EE10FA37FE800AAD4B83EDBF
:102EF000220A10BD012A00F05D82032A7FF420AC73
:102F0000B5EEC00AF1EE10FA40F1DA869FEDA40AA0
:102F1000A54B83ED000A10BD032A7FF411ACB5EE7A
:102F2000C00AF1EE10FA00F1D586F7EE007AB4EEA1
:102F3000670AF1EE10FA37FE800A984B83ED3D0ADE
:102F400010BD022A00F02882032A00F05686042AC7
:102F50007FF4F6ABB5EEC00AF1EE10FA00F19187FE
:102F6000F7EE007AB4EE670AF1EE10FA37FE800A47
:102F70008A4B83ED1E0A10BD012A00F00183032A4B
:102F80007FF4DEABB5EEC00AF1EE10FA40F1D88561
:102F90009FED830A834B83ED980A10BD012A00F050
:102FA000C881032A7FF4CCABB5EEC00AF1EE10FA6B
:102FB00040F1D0859FED7A0A7A4B83ED050A10BD6A
:102FC000032A7FF4BDABB5EEC00AF1EE10FA40F172
:102FD0006D869FED730A754B83ED750A10BD032A4C
:102FE0007FF4AEABB5EEC00AF1EE10FA40F12686E2
:102FF0009FED6B0A6B4B83EDEB0A10BD012A00F0CD
:103000000883032A7FF49CABB5EEC00AF1EE10FAF8
:1030100040F164859FED620A604B83EDBA0A10BDF2
:10302000032A7FF48DABB5EEC00AF1EE10FA40F141
:10303000B2859FED5B0A594B83EDE60A10BD012A6C
:1030400000F04882032A00F00982052A7FF478AB59
:10305000B5EEC00AF1EE10FA00F1F586F7EE007A4F
:10306000B4EE670AF1EE10FA37FE800A4F4B83ED9B
:10307000C20A10BD032A7FF463ABB5EEC00AF1EEBD
:1030800010FA40F19C859FED460A444B83ED860A79
:1030900010BD032A7FF454ABB5EEC00AF1EE10FA6E
:1030A00040F18C849FED3E0A414B83ED000A10BD38
:1030B000032A7FF445ABB5EEC00AF1EE10FA40F1F9
:1030C000C7859FED370A374B83ED7A0A10BD012A79
:1030D0004AD0022A00F08785032A00F00386042ADA
:1030E0007FF42EABB5EEC00AF1EE10FA00F1C58602
:1030F000F7EE007AB4EE670AF1EE10FA37FE800AB6
:103100002A4B83ED1F0A10BD012A00F0FE80032A1E
:103110007FF416ABB5EEC00AF1EE10FA40F124854B
:103120009FED1F0A1D4B83ED080A10BD032A7FF493
:1031300007ABB5EEC00AF1EE10FA40F136859FED0F
:10314000180A1C4B83ED000A10BD032A7FF4F8AA6D
:10315000B5EEC00AF1EE10FA40F13B859FED100A82
:10316000154B83ED000A10BDDFED147AB4EEE70ACB
:10317000F1EE10FA00F11A81DFED117A0B4BB4EE8B
:10318000E70AF1EE10FAD4BF83ED200AC3ED207AEE
:1031900010BD0C4BC3ED007A10BD00BFF4440020FD
:1031A00000000000DC3F0020C44E0020F449002055
:1031B000E843002030490020704F00200000C84242
:1031C0000000AF4324490020B54BC3EDE27A10BDA7
:1031D000F7EE087AB24BB4EEE70AF1EE10FACCBF84
:1031E000C3ED007A83ED000A10BDAE4BC3EDE87A63
:1031F00010BDAD4BC3ED937A10BDAA4BC3EDCC7A95
:1032000010BDA94BC3ED3E7A10BDF0EE007AA64B7F
:10321000B4EEE70AF1EE10FAD4BF83ED000AC3ED75
:10322000007A10BDA04BC3ED907A10BD9E4BC3ED4C
:10323000A97A10BD9B4BC3ED417A10BD984BC3EDED
:103240009E7A10BD964BC3ED877A10BD954BC3EDAA
:10325000917A10BD954BC3ED007A10BD904BC3ED34
:103260003A7A10BDDFED927A8E4BB4EEE70AF1EEBA
:1032700010FAD4BF83ED000AC3ED007A10BD8A4B6B
:10328000C3ED737A10BD874BC3EDB07A10BDDFED8F
:10329000887A834BB4EEE70AF1EE10FAD4BF83EDDF
:1032A0001C0AC3ED1C7A10BDF0EE087A814BB4EE17
:1032B000E70AF1EE10FAD4BF83ED000AC3ED007AFD
:1032C00010BD774BC3ED6B7A10BD754BC3EDB57A6E
:1032D00010BDB0EE670AFFF730BA734BC3EDBF7A8B
:1032E00010BD754BC3ED007A10BD6E4BC3ED947AE3
:1032F00010BD6C4BC3ED1D7A10BD6A4BC3ED787ADF
:1033000010BD674BC3ED847A10BDF3EE0E7AB4EEB8
:10331000E70AF1EE10FA61D4DFED687A604BB4EEA3
:10332000E70AF1EE10FACCBFC3ED017A83ED010A92
:1033300010BDDFED677AB4EEE70AF1EE10FA16D4AD
:10334000DFED5F7A574BB4EEE70AF1EE10FACCBF2F
:10335000C3ED017A83ED010A10BDB5EEC00A00226B
:10336000F1EE10FA40F1FF804E4B9A6710BD4D4BC5
:10337000C3ED017A10BD9FED530AFFF701BADFEDEF
:103380004F7A494BB4EEE70AF1EE10FAD4BF83ED61
:10339000010AC3ED017A10BDB5EEC00A0022F1EEBC
:1033A00010FA40F115833E4B5A6710BD3E4BC3EDFA
:1033B000207A10BDDFED447AB4EEE70AF1EE10FAA0
:1033C0001BD4F7EE087A414BB4EEE70AF1EE10FA9F
:1033D000CCBFC3ED007A83ED000A10BD304BC3EDC6
:1033E000017A10BDB5EEC00A0022F1EE10FA40F1EC
:1033F0008D842D4BC3F8FC2010BD344BC3ED007AF7
:1034000010BD022A11D1B5EEC00AF1EE10FA00F19A
:10341000B583F7EE007AB4EE670AF1EE10FA37FEE4
:10342000800A214B83ED050A10BD032A40F02D854B
:10343000B5EEC00A0023F1EE10FA02D51A4AD361A4
:1034400010BDF7EE007A184BB4EEE70AF1EE10FA71
:10345000CCBFC3ED077A83ED070A10BDB5EEC00AF5
:103460000023F1EE10FA40F178840F4AC2F80C33D1
:1034700010BDB5EEC00A0023F1EE10FA40F15384FE
:10348000094AC2F85C3210BDB5EEC00A0023F1EE65
:1034900010FA40F15584044AC2F8B43210BD00BF9E
:1034A000F4440020DC3F0020F4490020BC4E002002
:1034B000CDCC4C3FDC430020684F00200000F042A0
:1034C0000000C842000000003333333FC04E0020EC
:1034D000000020425FED027AE04CB4EEE70ADFED37
:1034E000E06A94EDC47AF1EE10FA67EE266A00F114
:1034F0008F84DFEDDC7AB4EEE70AF1EE10FA40F3E8
:103500005A84B0EE670ADFEDD87AF4EE676A9FED71
:10351000D76A37EE077A84EDC00AF1EE10FA48BF99
:10352000F0EE667A67EE867A87EE870A35F0C8FD98
:10353000DFEDCF7A84EDCA0AC4EDCB7AF7EE006AEC
:1035400070EE277AB0EE666AA0EE276A86EE867A7B
:1035500060EE077A84EDCC7A20EE270AC4EDCD7AAE
:1035600084EDCE0A10BDF7EE007AC24BB4EEE70A46
:10357000F1EE10FAD4BF83ED1E0AC3ED1E7A10BD22
:10358000DFEDC47ABB4CB4EEE70ADFEDB56A94ED2B
:10359000997AF1EE10FA67EE266A00F13F84DFEDCA
:1035A000B67AB4EEE70AF1EE10FA40F30A84B0EE10
:1035B000670ADFEDB27AF4EE676A9FEDAC6A37EE28
:1035C000077A84ED950AF1EE10FA48BFF0EE667ABC
:1035D00067EE867A87EE870A35F072FDDFEDA87A0E
:1035E00084ED9F0AC4EDA07AF7EE006A70EE277AA8
:1035F000B0EE666AA0EE276A86EE867A60EE077AFB
:1036000084EDA17A20EE270AC4EDA27A84EDA30A04
:1036100010BDDFED9C7A9C4CB4EEE70ADFED906ABA
:1036200094EDBB7AF1EE10FA67EE266A00F1EB83B7
:10363000DFED917AB4EEE70AF1EE10FA40F3D183B0
:10364000B0EE670ADFED917AF4EE676A9FED876A64
:1036500037EE077A84EDB60AF1EE10FA48BFF0EEC5
:10366000667A67EE867A87EE870A35F029FDDFED08
:10367000887A84EDC10AC4EDC27AF7EE006A70EE72
:10368000277AB0EE666AA0EE276A86EE867A60EE4A
:10369000077A84EDC37A20EE270AC4EDC47A84ED5C
:1036A000C50A10BDDFED7B7A724CB4EEE70ADFEDA0
:1036B0006C6A94EDD17AF1EE10FA67EE266A00F1A9
:1036C000CB83DFED6D7AB4EEE70AF1EE10FA40F34A
:1036D0005683B0EE670ADFED697AF4EE676A9FED14
:1036E000636A37EE077A84EDCD0AF1EE10FA48BF2F
:1036F000F0EE667A67EE867A87EE870A35F0E0FCB0
:10370000DFED5F7A84EDD70AC4EDD87AF7EE006A70
:1037100070EE277AB0EE666AA0EE276A86EE867AA9
:1037200060EE077A84EDD97A20EE270AC4EDDA7AC2
:1037300084EDDB0A10BDDFED537A534CB4EEE70A9B
:10374000DFED476A94ED8D7AF1EE10FA67EE266AA6
:1037500000F16A83DFED487AB4EEE70AF1EE10FA81
:1037600040F33583B0EE670ADFED487AF4EE676A1E
:103770009FED3E6A37EE077A84ED880AF1EE10FA83
:1037800048BFF0EE667A67EE867A87EE870A35F0F4
:1037900097FCDFED3F7A84ED930AC4ED947AF7EE5F
:1037A000006A70EE277AB0EE666AA0EE276A86EEAF
:1037B000867A60EE077A84ED957A20EE270AC4EDCA
:1037C000967A84ED970A10BDDFED2E7A2E4CB4EE7A
:1037D000E70ADFED236A94EDA47AF1EE10FA67EEC2
:1037E000266A00F12683DFED247AB4EEE70AF1EED3
:1037F00010FA40F3C982B0EE670ADFED247AF4EEE6
:10380000676A9FED1A6A37EE077A84ED9F0AF1EE38
:1038100010FA48BFF0EE667A67EE867A87EE870A7E
:1038200035F04EFCDFED1A7A84EDAA0AC4EDAB7ACE
:10383000F7EE006A70EE277AB0EE666AA0EE276AAD
:1038400086EE867A60EE077A84EDAC7A20EE270A5F
:10385000C4EDAD7A84EDAE0A10BD00BFF44900207E
:1038600048E1FA3E0000FA4300007A45DB0FC94008
:10387000ABAA2A3FDC3F00200000C84300001645E9
:103880005555553F00007042F444002000002F457C
:103890006EDB363F000048425FED027AF14CB4EE39
:1038A000E70ADFEDF16A94EDB57AF1EE10FA67EE12
:1038B000266A00F1C382DFEDED7AB4EEE70AF1EE9D
:1038C00010FA40F36682B0EE670ADFEDE97AF4EEB3
:1038D000676A9FEDE86A37EE077A84EDB10AF1EE88
:1038E00010FA48BFF0EE667A67EE867A87EE870AAE
:1038F00035F0E6FBDFEDE07A84EDBB0AC4EDBC7A7F
:10390000F7EE006A70EE277AB0EE666AA0EE276ADC
:1039100086EE867A60EE077A84EDBD7A20EE270A7D
:10392000C4EDBE7A84EDBF0A10BDDFEDD47AD44C6D
:10393000B4EEE70ADFEDCC6A94ED987AF1EE10FA76
:1039400067EE266A00F18382DFEDCE7AB4EEE70AF5
:10395000F1EE10FA40F30E82B0EE670ADFEDCA7A9C
:10396000F4EE676A9FEDC36A37EE077A84ED940A36
:10397000F1EE10FA48BFF0EE667A67EE867A87EECF
:10398000870A35F09DFBDFEDC17A84ED9E0AC4ED18
:103990009F7AF7EE006A70EE277AB0EE666AA0EEC4
:1039A000276A86EE867A60EE077A84EDA07A20EEAA
:1039B000270AC4EDA17A84EDA20A10BDF7EE007AC1
:1039C000B4EE670AF1EE10FA37FE800AFFF76CBB1F
:1039D000F7EE007AAE4BB4EEE70AF1EE10FAD4BF80
:1039E00083ED1D0AC3ED1D7A10BDDFEDA47AA44C52
:1039F000B4EEE70ADFED9C6A94EDAE7AF1EE10FAD0
:103A000067EE266A00F1FA81DFED9E7AB4EEE70AEE
:103A1000F1EE10FA40F3E081B0EE670ADFED9A7A3A
:103A2000F4EE676A9FED936A37EE077A84EDAA0A8F
:103A3000F1EE10FA48BFF0EE667A67EE867A87EE0E
:103A4000870A35F03DFBDFED917A84EDB40AC4EDD1
:103A5000B57AF7EE006A70EE277AB0EE666AA0EEED
:103A6000276A86EE867A60EE077A84EDB67A20EED3
:103A7000270AC4EDB77A84EDB80A10BDC3ED737A96
:103A800010BDC3ED787A10BDC3ED6B7A10BDC3EDE8
:103A9000E87A10BDC3ED9E7A10BDC3ED917A10BDDA
:103AA000C3ED3A7A10BDC3ED417A10BDC3ED1D7A66
:103AB00010BDC3EDB07A10BDC3EDCC7A10BDC3ED1F
:103AC000007A10BDC3ED947A10BDC3ED877A10BDA6
:103AD000C3EDB57A10BDC3ED3E7A10BDF7EE007AA6
:103AE000B4EE670AF1EE10FA37FE800AFFF794BAD7
:103AF000F7EE007AB4EE670AF1EE10FA37FE800AAC
:103B0000FFF7EAB8F7EE007AB4EE670AF1EE10FAC2
:103B100037FE800AFFF7AEB9F7EE007AB4EE670A17
:103B2000F1EE10FA37FE800AFFF792B9F7EE007A4D
:103B3000B4EE670AF1EE10FA37FE800AFFF759B9C2
:103B4000F7EE007AB4EE670AF1EE10FA37FE800A5B
:103B5000FFF720BAF7EE007AB4EE670AF1EE10FA3A
:103B600037FE800AFFF728BAF7EE007AB4EE670A4C
:103B7000F1EE10FA37FE800AFFF7D4BA9FED450A3E
:103B80004FE4F7EE007AB4EE670AF1EE10FA37FE72
:103B9000800AFFF7B0B8F7EE007AB4EE670AF1EEEC
:103BA00010FA37FE800AFFF746BAF7EE007AB4EE55
:103BB000670AF1EE10FA37FE800AFFF7C2BAF7EE95
:103BC000007AB4EE670AF1EE10FA37FE800AFFF7CA
:103BD0005CBAF7EE007AB4EE670AF1EE10FA37FE3F
:103BE000800AFFF7BDBAB5EEC00A0023F1EE10FA65
:103BF00040F1D480224A936710BDB5EEC00A00227E
:103C0000F1EE10FA0CD4F7EE007A214BB4EEE70A8D
:103C1000F1EE10FAD4BF83ED200AC3ED207A10BD77
:103C20001B4BC3F8802010BDF7EE007AB4EE670A94
:103C3000F1EE10FA37FE800AFFF740B9F7EE007A8E
:103C4000B4EE670AF1EE10FA37FE800AFFF7D2B938
:103C5000F7EE007AB4EE670AF1EE10FA37FE800A4A
:103C6000FFF731BADC3F002048E1FA3E0000C843CC
:103C700000001645DB0FC9405555553F0000204256
:103C8000F44900200000FA4300007A45ABAA2A3F1D
:103C9000F444002000000000F7EE007AB4EE670A5A
:103CA000F1EE10FA37FE800AFFF791B8F7EE007ACE
:103CB000B4EE670AF1EE10FA37FE800AFFF78BB90F
:103CC000F7EE007AB4EE670AF1EE10FA37FE800ADA
:103CD000FFF71EB91FED110AFFF72FB91FED130AE9
:103CE000FFF7DDB8B5EEC00A0022F1EE10FA00F1E0
:103CF0008180F7EE007AA44BB4EEE70AF1EE10FAF9
:103D0000D4BF83ED210AC3ED217A10BDF7EE007A0E
:103D10009D4BB4EEE70AF1EE10FAD4BF83ED3F0AF3
:103D2000C3ED3F7A10BDF7EE007A974BB4EEE70A89
:103D3000F1EE10FAD4BF83ED970AC3ED977A10BD68
:103D4000F7EE007A904BB4EEE70AF1EE10FAD4BF2A
:103D500083EDAD0AC3EDAD7A10BDF7EE007A8A4B64
:103D6000B4EEE70AF1EE10FAD4BF83EDC30AC3ED57
:103D7000C37A10BDF2EE007A60EE277AF0E5F1EE3C
:103D8000087A60EE277AA8E4F1EE0C7A60EE277AE2
:103D900035E5F1EE087A60EE277A98E5F7EE007ADD
:103DA000794BB4EEE70AF1EE10FAD4BF83ED1E0AA8
:103DB000C3ED1E7A10BDF2EE007A60EE277AFFF7AF
:103DC000A4BBF1EE087A60EE277AFFF7F4BBF1EEC0
:103DD0000C7A60EE277AC9E4F2EE007A60EE277A78
:103DE0001EE6F1EE0C7A60EE277A2DE49FED670A6D
:103DF000FFF77CB8644BC3F8842010BDB0EE670AAF
:103E0000DFED637A0CE6B0EE670ADFED627A1BE461
:103E1000B0EE670ADFED5E7AFFF777BBB0EE670AB8
:103E2000DFED5D7AFFF7C7BBB0EE670ADFED597AC9
:103E30009CE4B0EE670ADFED577AE0E4B0EE670A83
:103E4000DFED557A43E59FED510AFFF70FB9B0EE6C
:103E5000670ADFED4F7A83E5B0EE670ADFED4E7A51
:103E60003BE49FED4A0AFEF761BF9FED480AFEF76B
:103E700090BF9FED460AFEF771BF9FED440AFFF722
:103E80003FB99FED420AFFF773B8042A12D1B5EE8D
:103E9000C00A0023F1EE10FA26D4F6EE007A3A4B6F
:103EA000B4EEE70AF1EE10FACCBFC3ED067A83ED6B
:103EB000060A10BD052A1AD1F7EE007AB4EEE70A19
:103EC000F1EE10FA0CD4F3EE047A2F4BB4EEE70ABD
:103ED000F1EE10FACCBFC3ED037A83ED030A10BDF7
:103EE000294BC3ED037A10BD274A936110BD062A02
:103EF0007EF426ACDFED297AB4EEE70AF1EE10FA93
:103F000005D5B0EE670A204B83ED020A10BDF6EE30
:103F1000007AB4EE670AF1EE10FA37FE800AF2E793
:103F2000032A7EF40DACB5EEC00AF1EE10FA19D5F5
:103F30009FED160A0A297EF403AC194B83ED000AA3
:103F400010BD032A7EF4FCABB5EEC00AF1EE10FA08
:103F500011D59FED0E0A0A297EF4F2AB114B83EDC9
:103F6000000A10BDF0EE007AB4EE670AF1EE10FA26
:103F700037FE800ADEE7F0EE007AB4EE670AF1EE73
:103F800010FA37FE800AE6E7F4490020000000003E
:103F90000000A0430000D243000096430AD7233C10
:103FA000E4440020E44900200306F0B5064685B04D
:103FB0000F4600F19B800A25FF240121604820F074
:103FC00023FE01230DF10F020DF10E015D48009556
:103FD0008DF80E408DF80F4023F022FA002158484A
:103FE00020F012FE01230DF10F020DF10E015548D4
:103FF00000958DF80E408DF80F4023F011FA012343
:104000000DF10F020DF10E014E4800958DF80E6076
:104010008DF80F4023F004FA3B0E0DF10F020DF165
:104020000E0148488DF80E30012300958DF80F40A1
:1040300023F0F6F93B0C0DF10F020DF10E01414892
:104040008DF80E30012300958DF80F4023F0E8F92C
:104050003B0A0DF10F020DF10E013A488DF80E30BA
:10406000012300958DF80F4023F0DAF901230DF1BB
:104070000F020DF10E01334800958DF80E708DF88A
:104080000F4023F0CDF9402E39D0482E48D00127DB
:104090000DF10F020DF10E012A483B4600958DF8F7
:1040A0000F408DF80E7023F0BBF94C2E3AD00A2445
:1040B0000A254FF0FF0C01230DF10F020DF10E0147
:1040C000204800958DF80EC08DF80FC023F0A8F998
:1040D0009DF90F20631E9DF80F00002A01DB05B03B
:1040E000F0BD13F0FF04E3D105B0F0BD002177204F
:1040F000FFF75AFF0128F2D806F07F065BE7952309
:104100000A21FF228DF80E30012300910DF10E01DE
:104110008DF80F200DF10F020A4823F081F9C6E750
:104120008723EDE73B460DF10F020DF10E010095DF
:1041300004488DF80E408DF80F4023F071F9B6E772
:10414000485300205C5300204E4B70B51B7888B05C
:1041500043B10C461646032900F29180DFE801F0D6
:104160000C3552060325284608B070BD01231360A4
:104170000025284608B070BD0021434820F044FDCA
:1041800023F0FAFA064605E023F0F6FA801BB0F5B4
:10419000FA7F67D20A254FF0FF0C012304AA0DF124
:1041A0000F013A4800958DF80FC08DF810C023F02C
:1041B00037F99DF81030FF2BE6D125460121324812
:1041C00020F022FD284608B070BD00214920FFF7ED
:1041D000EBFE0546D0B1254601212B4820F014FD09
:1041E000FF210A2001238DF80E100DF10F0200901F
:1041F0008DF80F100DF10E01244823F011F9284617
:1042000008B070BD4FF400731380B1E710210DEBBF
:104210000100FEF773F90028DDD09DF810109DF81D
:10422000192089099DF818009DF8173001291BD025
:104230009B00520003EB90139DF8160002F006015C
:10424000820201339DF81A0002F4406213449DF883
:10425000152002F00F0202EBD0120A44073A9340F5
:104260003360B9E70124A8E7BDF818201B0452BA4F
:1042700003F47C1392B2134301339B02F0E704254D
:1042800071E700BFE8500020485300205C53002035
:10429000274870B5007884B000283DD01C464307FD
:1042A0000D46114658BF5102012C2FD05920FFF75F
:1042B0007BFE0646D0B1261E18BF012601211D48EF
:1042C00020F0A2FCFF210A2001238DF80E100DF131
:1042D0000F0200908DF80F100DF10E01164823F01B
:1042E0009FF8304604B070BD013C0AD02846FC213E
:1042F00005F50075FEF75EF90028F5D1261E18BFFA
:104300000126FD210020FEF755F9D7E75820FFF7D9
:104310004BFE28B12646D1E70326304604B070BDD7
:10432000FE212846FEF746F980F00106F6B2C5E701
:10433000E8500020485300205C530020284870B506
:10434000007884B000283ED01C4643070D46114635
:1043500058BF5102012C30D05220FFF725FE0646EF
:10436000D0B1261E18BF012601211E4820F04CFCAA
:10437000FF210A2001238DF80E100DF10F0200908D
:104380008DF80F100DF10E01174823F049F8304653
:1043900004B070BD013C0BD028464FF4007105F508
:1043A0000075FEF7ABF80028F4D1261E18BF0126D1
:1043B00000214C20FFF7F8FDD6E75120FFF7F4FD70
:1043C00028B12646D0E70326304604B070BD4FF42E
:1043D00000712846FEF792F880F00106F6B2C3E7B6
:1043E000E8500020485300205C5300202DE9F043A2
:1043F0000A2485B00121604820F006FC0A254FF010
:10440000FF0C0DF10B01012303AA5C4800958DF808
:104410000BC08DF80CC023F003F8611E11F0FF04EF
:10442000ECD121464020FFF7BFFD01281AD00DEB4B
:10443000050601250121504820F0E6FBFF230DF180
:104440000B0231468DF80A308DF80B300A234B48A9
:104450000093012322F0E4FF494B28461C7005B06D
:10446000BDE8F08323F088F94FF4D57180464820E9
:10447000FFF79AFD012858D103AD0DF110090DF198
:104480000A062F460A230DF10B0231463B480093E2
:10449000FF238DF80A308DF80B30012322F0C0FF86
:1044A0009DF80B3007F8013B4F45EBD19DF80E30DE
:1044B000012BBED19DF80F30AA2BBAD102E0FFF735
:1044C00073FD50B123F058F903464FF08041E920C5
:1044D000A3EB0803B3F57A7FF1D323F04DF9A0EBFA
:1044E0000803B3F57A7FA4D200217A20FFF75CFDA0
:1044F00000289ED1FF230DF10B0231461F488DF895
:104500000A308DF80B300A230093012322F088FF34
:104510009DF80B3005F8013B4D45EBD19DF80C5053
:1045200015F0400525D1022484E72146E920FFF754
:104530003BFD012805D90DF10A067AE7FFF734FDA6
:1045400048B123F019F903460021E920A3EB080341
:10455000B3F57A7FF2D34FF400715020FFF724FDBA
:1045600000280DF10A060DBF0124002401250025B5
:1045700060E7002506245DE7485300205C530020D7
:10458000E8500020D24B5B5C2DE9F0410C4605461B
:104590002DED028BB0EE408A002B00F02381CD4B35
:1045A0005A5C002A40F05C82CB4BA200DFEDCB7A54
:1045B00003EB8403CA49D3ED000A085DF4EEE70A71
:1045C000F1EE10FA05D4B0EE480AFCF7C5FFB0EEE4
:1045D000408AC44B195D0F290BD801238B4007EE8D
:1045E000903AF8EEE77A28EE277AB8FE477A87EE17
:1045F000278ABD4B1B57002B40F0C182BB4B1B577A
:10460000002B40F00383BA4B1B57002B40F0708205
:10461000B84B1B5D002B5CD0B74B42F27F5CB74EB2
:10462000FFEE006A1344B64856F82410D3ED007A22
:1046300001F51653FCEEE77A17EE907AF0EE487A21
:10464000674528BF6746012F2CBFDB1B03F1FF33F3
:10465000A0FB03704FF41657800A07FB1033A948DC
:1046600007FB043300EB830393ED007AA64B13445E
:1046700093ED006AE7EE067AF4EEE67AF1EE10FAD0
:1046800000F12B83F7EE006AF4EE667AF1EE10FA91
:1046900076FEA77A9D4BF7EE006A4F1C134493ED0C
:1046A000006A974B76EEC66A27EE067AA3FB07C32D
:1046B0004FF4165C9B0AA8EE267A0CFB04110CFB47
:1046C000137700EB810046F82470C0ED007AB0EE5D
:1046D000478A8F4B1B5D002B7FD08E4FB6EE007A42
:1046E000DFF878C24FEAC42E57F824108A4E01EB47
:1046F000C4230CEB830383ED008AB318D3ED006A67
:10470000F4EEC76A76EEA67AF1EE10FA40F1E8828E
:10471000824BB5EE007ADFED825A40F2FF78134407
:10472000BFEE006A93ED005A7E4B67EE857A134424
:1047300067EEA57AD3ED005A67EE877AFCEEE77A4A
:1047400017EE903AF0EE487A0233434594BFC81A08
:10475000A1EB0800C0F30A0373440CEB830393ED51
:10476000007AE7EE257AF4EEC67AF1EE10FA00F15F
:10477000C382B7EE006AF4EE467AF1EE10FA76FEE6
:10478000277A694B8E44DFED695AB7EE006A13440D
:104790000CEB8E0C0131164493ED005ACCED007AEF
:1047A000C1F30A01C5EE257A614B47F82410134482
:1047B00077EEA67AD3ED006A76EE665A27EE267A71
:1047C000F4EEC67AA8EE257AF1EE10FAA8BF77EEDD
:1047D000C67AB0EE478AC6ED007A564B1B5D002BB9
:1047E00040F00381544B554A1B78125D23B1544B62
:1047F0001B5D002B00F0CB80002A40F0C880514B9D
:10480000A200514903EB8403095DD3ED007A00292E
:1048100040F0C180B7EE006AB6EE007A76EE676AC5
:1048200077EE867A66EE876A67EE877A474B13449F
:1048300093ED007AEB6828EE077A1B7827EE067A6C
:10484000D5E9000167EE266AD0ED005A67EE277AB7
:1048500035EEA66A80ED006A91ED006A36EE276AB1
:1048600081ED006A8BB13A4BD5E90401134490ED18
:10487000006AD3ED005AA6EEA56A80ED006A91EDBC
:10488000006AA7EEA56A81ED006AAB691B788BB15F
:10489000304BD5E90701134490ED006AD3ED005A7F
:1048A000A6EEA56A80ED006A91ED006AA7EEA56A02
:1048B00081ED006A6B6A1B78002B5BD0264BD5E933
:1048C0000A01134490ED006AD3ED005A48E000BF9E
:1048D000E05C0020C85C0020A85B00200AD7233CD5
:1048E000905B0020785B0020385600202056002086
:1048F00008560020605B0020005B0020E05900208B
:10490000B5814E1B000003C0A05A0020405A002071
:10491000C859002088570020E85700206859002017
:1049200000000045A85800200859002000803B479F
:104930004858002070570020F85C0020145D0020CB
:10494000FC5C00202C5D0020F0550020A0680020B9
:104950004C5E0020EC5D00208C5D0020000000C05B
:10496000A6EEA56A80ED006AD1ED006AE7EEA56AC1
:10497000C1ED006AE24BB0EEC77A1344D3ED007A82
:10498000B4EEE77AF1EE10FA01DD83ED007ABDECCA
:10499000028BBDE8F081DB4B1B5D002B40F07D817D
:1049A000AB68B7EE006A9FEDD87A1344D3ED006A86
:1049B000A6EE876AB5EEC06AF1EE10FA00F1368213
:1049C000B0EE007AB4EE476AF1EE10FA37FE066AEE
:1049D000F7EE005AB6EE007A75EEE76A77EEA57A42
:1049E00066EE876A67EE877A20E7C84BF0EEC87AF2
:1049F000991891ED000AF4EEC07AF1EE10FA40F346
:104A0000748177EEC07AB5EE007AA7EE870AC049C6
:104A10001344114483ED000AD1ED007AB4EEE70AA5
:104A2000F1EE10FA7FF7DEAE9FEDBA7AB4EEC70A68
:104A3000F1EE10FA7FF7D6AEB74B87EE800A13443B
:104A4000D3ED000A34F054FEF4EE007AB4EE670AB7
:104A5000F1EE10FA48BFB0EE670A28EE008AC1E610
:104A6000AE4BC800C1EBC10103EB8103D3ED057A66
:104A700093ED007AD3ED036AE0EE077A93ED015AE5
:104A800093ED047AD3ED025A93ED066A66EEE76A77
:104A900027EE677AF4EE677AE0EE056AA0EE257AF3
:104AA000F1EE10FA76EE266A83ED067AC3ED056A1A
:104AB00040F046819FED9A7AF4EEC77AF1EE10FA53
:104AC00000F33E819FED977AF4EEC77AF1EE10FA8B
:104AD00000F1368117EE903A13F0FF4F40F0C0819D
:104AE000C3F316039FED958A002B07FE888A29E100
:104AF0008D4BC4EBC40103EB8103D3ED057A93ED39
:104B0000007AD3ED036AE8EE077A93ED015A93ED4C
:104B1000047AD3ED025A93ED066A66EEE76A27EE51
:104B2000677AF4EE677AE8EE056AA8EE257AF1EE88
:104B300010FA76EE266A83ED067AC3ED056A40F038
:104B400064819FED777AF4EEC77AF1EE10FA00F304
:104B50005C819FED747AF4EEC77AF1EE10FA00F101
:104B6000548117EE903A13F0FF4F40F07181C3F378
:104B700016039FED728A002B07FE888A48E56B4B6F
:104B8000C4EBC40103EB8103D3ED057A93ED007A06
:104B9000D3ED036AE8EE077A93ED015A93ED047AB8
:104BA000D3ED025A93ED066A66EEE76A27EE677A5E
:104BB000F4EE677AE8EE056AA8EE257AF1EE10FACF
:104BC00076EE266A83ED067AC3ED056A40F026810B
:104BD0009FED537AF4EEC77AF1EE10FA00F31E81DE
:104BE0009FED507AF4EEC77AF1EE10FA00F11681DB
:104BF00017EE903A13F0FF4F40F02681C3F31603EF
:104C00009FED4E8A002B07FE888AF7E4484BC4EBE1
:104C1000C40103EB8103D3ED057A93ED007AD3ED64
:104C2000036AE8EE077A93ED015A93ED047AD3ED27
:104C3000025A93ED066A66EEE76A27EE677AF4EEAB
:104C4000677AE8EE056AA8EE257AF1EE10FA76EEBC
:104C5000266A83ED067AC3ED056A40F0CE809FEDAB
:104C6000307AF4EEC77AF1EE10FA00F3C6809FEDC9
:104C70002D7AF4EEC77AF1EE10FA00F1BE8017EE4D
:104C8000903A13F0FF4F40F0E780C3F316039FED17
:104C90002B8A002B07FE888AB5E4012B7FF4BAAD7E
:104CA000AB68BFEE007ADFED236A134493ED006A30
:104CB000E6EE267AF4EEC77AF1EE10FA00F1B9804A
:104CC000B7EE006AF4EEC67AF1EE10FA7FF7A4AD03
:104CD000F0EE467ADFED196AA8E5F0EE667AD9E4DF
:104CE000B0EE007A77EE677A12E570EE677A9FEDA4
:104CF000127AA7EEC70A8AE6F0EE467A41E500BFCF
:104D000074670020C0550020CDCC4C3F5056002089
:104D1000105700206F12833AB0560020AC0F0020CD
:104D2000A95F6358A95F63D82C0500206C0A002096
:104D3000CC0700206666663F8FC2F53C000000008D
:104D40001FED028A092A7FF42FAC474B001B03EBAF
:104D50008003D3ED057A93ED007AD3ED036AE8EE94
:104D6000077A93ED015A93ED047AD3ED025A93ED4D
:104D7000066A66EEE76A27EE677AF4EE677AE8EE8F
:104D8000056AA8EE257AF1EE10FA76EE266A83ED32
:104D9000067AC3ED056A53D19FED347AF4EEC77AF3
:104DA000F1EE10FA4CDC9FED327AF4EEC77AF1EEB8
:104DB00010FA45D417EE903A13F0FF4F03D1C3F326
:104DC0001603002B3CD1B3EE0B7ADFED2A5AF2EE3C
:104DD000026A9FED296A67EEA57AF0EE475A67EE00
:104DE000A66AE7EEA75AA7EEA67A67EEA57A87EE3F
:104DF000878A28EE068AFFF7D7BB204B9FED208AD3
:104E00001B57002B3FF404AC72E61E4B9FED1C8A2F
:104E10001B5D002B3FF45DACFFF7FEBB1A4B9FED13
:104E2000188A1B57002B3FF4EEABEFE69FED146A98
:104E3000CEE5F7EE006ADFED127AB0EE666AF5E4D1
:104E40009FED0F8AFFF7B0BBB0EE678AFFF7D6BBC6
:104E5000B0EE678AFFF7DCBBB0EE678AFFF7D3BB23
:104E6000B0EE678A6EE700BF0C0D0020A95F6358A3
:104E7000A95F63D83333B33FB4C8363F0856002028
:104E800000000000605B00202056002010B5D0ED2F
:104E90000E7A04462DED028B90ED028A87EE880A89
:104EA000B1EE400A34F0CAFAD4ED0D7A84ED0A0A64
:104EB00087EE880AB1EE400A34F0C0FAB7EE007A05
:104EC000D4ED006A84ED080AC7EE267A77EE406AD0
:104ED000BDEC028B77EEC77A67EEA67AC4ED097A4D
:104EE00010BD00BF90ED0E7AD0ED037A87EE270A51
:104EF00010B50446B1EE400A34F0A0FA84ED0B0A76
:104F000010BD00BF90F82C30002B00F02181DFEDA8
:104F1000967A10B52DED088B90ED088A0446B4EE14
:104F2000E78AF1EE10FA00F3EF80DFED907AF7EE0A
:104F300000AA94ED118A94ED017A94ED0C9A38EE62
:104F40002A8AD4ED038AF1EE499A94ED020A38EEEA
:104F5000278A89EE800A28EE078A34F06FFA94EDEA
:104F60000AAAD4ED0D7A68EE288AA8EE808AEAEEC5
:104F7000087AF4EEEA7AB0EE670AF1EE10FAA8BF0A
:104F800037EEEA0ADFED7A7A84ED0D0A20EE270A81
:104F900034F03AFDB6EE006A94ED0E7AF7EE006A50
:104FA000DFED737AF0EE408A28EE068AAAEE087AE0
:104FB000B4EEE67AF1EE10FAA8BF37EE667A27EE85
:104FC000270A84ED0E7A34F01FFDDFED6A7AF0EEE9
:104FD00040AAD4ED06BA89EEA70A34F02FFAD4ED30
:104FE000047AB0EE40BA89EEA70A34F027FA616E6F
:104FF000236FD4ED186ACA1894ED177AB0EE666A7A
:1050000094ED155A05EE902AF0EE667ADFED5A3AE5
:10501000B0EE408AF8EEE55A94ED164AA7EE056A1E
:10502000D4ED144A94ED000AD5EEA37AF0EE005ABE
:1050300089EE800AA7EE846A67EE857AD4E91A20A1
:10504000E4EE877A53404840D6EE256A59404FEA4D
:105050007353616680EA422197EEA57A4240236746
:1050600028EE278AC4ED186AC4E91A2184ED177A5C
:1050700034F0E4F9EAEEAB8AB1EE005ADFED3F5AC4
:10508000F7EE007AD4ED054A9FED3D6AB0EE407A26
:10509000E4EE857AEBEE258AF0EE676AF0EE687A48
:1050A000E8EE067AF5EEC07A67EEA67AF1EE10FA2F
:1050B00051DDB3EE0B6AB2EE025A67EEA76AF0EE6C
:1050C000465A39EE0A9AE6EE855A76EE866A84EDFD
:1050D0000C9A66EEA76ADFED2B7AB4EEE77A86EEDD
:1050E000A50AF1EE10FA02D5002384F82C3020EE48
:1050F000070A94ED077AD4ED0F7A20EE070ABDEC8B
:10510000088B20EE270A10BD9FED1F7ADFED1F7A76
:1051100090ED100AE8EE077AD0ED0A6AB7EE007A51
:10512000A7EEA60ADFED1A7AB4EEC70AF1EE10FA7E
:10513000A8BF30EE470A80ED100A20EE270A34F0AF
:1051400063FC28EE008ADFED137A68EE277AEEE63C
:105150009FED060A7047DFED106AB3EE0B6AB2EE00
:10516000025A67EEA67AA8E76F12833A00000000A1
:10517000DB0FC94017B7513A000000306666E63FC2
:105180009A99193F6F12033A9A99993F9A99993EC1
:10519000DA0FC940A69B443B3333333FB5EEC00A18
:1051A000012238B5F1EE10FA4FF0000304462DED60
:1051B000088BB0EE408A80F82020B7EE000A4362E8
:1051C000C362836207D4B4EEC08AF1EE10FA40F3F2
:1051D0000C81B2EE040A34F0A5F9D4ED057A9FED06
:1051E000AD7ADFEDAD6AF4EEC77A20EE260AF1EE75
:1051F00010FA84ED0C0A00F30F81F2EE085AD4ED98
:10520000016AF3EE0C7AD4ED038AB2EE006A94EDF3
:10521000060AB2EE0E7A9FEDA1AAE6EEA57A94ED0B
:1052200002BADFED9F9A20EE0AAAA6EE867ADFED9B
:105230009D6A9FED9D6ADFED9DAAEBEE069A68EEF2
:10524000A77A60EE2AAA68EE878AF4EEE67AF1EE93
:1052500010FA0FD4B4EEE7AAF1EE10FA0CD5F2EE84
:10526000047AB4EEE7AAF1EE10FA40F11081DFED16
:10527000907A0BE0F0EE667AF4EEEA7AF1EE10FA4C
:1052800000F3AE809FED8B7A67EE877A30EE009A5E
:1052900087EE890A33F014FF84ED0F0AF6EE007AE8
:1052A000F4EEE79AF1EE10FA00F1B380DFED827AC6
:1052B000F4EEE79AF1EE10FA00F3DB80B7EE007A35
:1052C000C7EE297AC4ED107ADFED7C6ADFED7C5AF7
:1052D000DFED7C9AB7EE007A30EE275AF4EEE68ADC
:1052E000B0EE476AEBEE259AF1EE10FAA0EE056AF1
:1052F000C7EE067A20EE277AC4ED117A60EE077ABF
:1053000084ED127AC4ED137A77D4B4EEE8AAF1EE04
:1053100010FA74D5F2EE047AB4EEE7AAF1EE10FAC0
:1053200040F1B2809FED620A80EE090A33F0C8FEB8
:1053300084ED160AF6EE007AF4EEE79AF1EE10FA32
:1053400058D4DFED5D7AF4EEE79AF1EE10FA00F34F
:105350009380F7EE007A87EEA97A84ED177A00231E
:105360009FED596A04F17001584A6365F7EE007ABF
:10537000236570EE075A236728EE068AE366F0EE8F
:10538000676A534DBCEEC88AE0EE256A18EE103A03
:10539000534087EEA67A1A461D4460EE077A84EDE4
:1053A000187A20EE270AC4ED197A84ED1A0AA2F1C0
:1053B000C342484C4848A2F59102A2F2476282EAF1
:1053C0001243AA4204FB03F383EA533300FB03F3C3
:1053D00083EA134341F8043FE9D1BDEC088B38BDA3
:1053E000DFED347A6AEEA77A50E7F2EE027AA8EEA1
:1053F000270AF0E6B0EE007AAFE7F0EE668AF4EE48
:10540000EA8AF1EE10FA3ADD9FED2A0A2AEE800AC6
:105410008AE7F0EE007A55E7606FFFEE006AD4F895
:105420008030F0EE005ADFED2D4AC1189FED2C6A56
:1054300089B207EE101AB8EEC77AD4E91E2587EEB6
:10544000245A4540534085EA422158406A404FEA79
:105450007353B0EE667A6067C4F88030C4E91E21E9
:10546000A5EE257A67EE877A67EE867AC4ED0E7A26
:10547000C3E6DFED1C7A25E79FED1A7A6DE7DFEDD5
:105480000D7A28EEA70A4FE7F0EE4A8AB7E7F0EE6A
:105490004A7AF1E66F12833AD95BDE3E6666E63EF3
:1054A0003333B33F00009643CDCC4C3F48E1FA3E46
:1054B000D2537B42DB0FC94000002042000048432A
:1054C0009A99193F6666663F00409A44D4C3B2A1D8
:1054D000E4E6DD786BCAEB8535AEB2C200FF7F47EC
:1054E0000AD7A33BCDCCCC3C90F82030002B00F069
:1054F00034819FED9B7AF7EE007AD0ED036A10B508
:105500002DED0A8B90ED059A044690ED0E8AB4EECF
:10551000C79AD0ED078A38EE278AF1EE10FA28EE06
:10552000268A20DD9FED8F7A90ED0D0A39EE077AFD
:10553000A7EE280AB4EEE70AF1EE10FAA8BF30EEA3
:10554000670ADFED897A80ED0D0A20EE270A34F034
:105550005BFAF7EE007A29EE009A9FED847AE9EE85
:10556000077A28EE278A94ED0A0AF7EE007A9FED73
:1055700080BAA8EE280A9FED7FCAB4EEE70AF1EEE2
:1055800010FAA8BF30EE670ADFED7B7A84ED0A0AD5
:1055900020EE270A34F038FADFED786AD4ED0B7A82
:1055A000B7EE007A28EE268AF0EE40AA9FED720A46
:1055B000E8EE287AF4EEC77AF1EE10FAA8BF77EE9B
:1055C000C77A27EE800AC4ED0B7A34F01DFA94ED09
:1055D000099AD4ED009AB0EE408ADFED697AB1EE17
:1055E00049AA29EEA70A8AEE000A33F027FFDFED69
:1055F000656AD4ED01BA28EE0B7A69EEA69AF0EE50
:10560000407AAAEE8C7A8AEE290A67EE279A33F05E
:1056100015FFDFED5D7AF0EE40AAD4E91D12D4E962
:105620001F038AEE270A81EA000C83EA02000B447A
:1056300041404FEA705008EE103A8CEA422382EA69
:105640000C026167BAEEE08AC4F88000C4E91E2348
:1056500033F0F4FED4ED153A94ED125A60EE085A88
:1056600038EE632A94ED146AD4ED114A39EE289A83
:1056700094ED1C4A62EE052AD4ED197A38EE448A7C
:10568000D4ED1B6A94ED027AE4EE862ADFED3F1A30
:10569000F0EE634A9FED3E1A28EE273A84ED099A10
:1056A00065EE875AE6EE054AB0EE445AA6EEA75AD2
:1056B000D4ED187AA7EEA63A63EE0B7AE2EE8C7A76
:1056C000E5EEA17AF3EE0B5AF2EE021A67EEAA7A31
:1056D00067EE877AE9EEAB7A67EE817AB0EE651A0B
:1056E00027EEA77AA7EE211ADFED2A1A37EE257AE0
:1056F000F0EE005AF4EEE1AA27EE277AD4ED1A7AFA
:1057000092EEA56AA8EE275A87EE010A94ED137A65
:1057100084ED146AE2EE074AF0EE447AB0EE637A62
:10572000D3EE256AD5EE257AF1EE10FA94EEA57A3D
:10573000C4ED1B6AC4ED1C7A84ED157A02D50023F2
:1057400084F8203094ED047AD4ED0C7A20EE070A28
:10575000BDEC0A8B20EE270A10BD9FED0F0A7047A3
:105760006F12833ACDCCCC3EDA0FC9406F12033BA7
:105770003333B33E6666263FDB0FC940BE9FEA3F28
:10578000CDCC0C3F6666663F52499D3ACDCC4C3F2E
:105790003333B33F6F12033A00000000037F13B9A5
:1057A0009FED570A704710B52DED068BD0ED089A86
:1057B000044690ED020AB1EE69AA90ED018A8AEEE4
:1057C000000A33F03BFED4ED06AAD4ED097AB0EE20
:1057D000047AF7EE006A28EE077AA7EE008AEAEE6E
:1057E000887AF4EEE67AB0EE670AF1EE10FAA8BF16
:1057F00037EEE60ADFED437A84ED090A20EE270A48
:1058000034F002F99FED407AB0EE408A8AEE070A42
:1058100033F014FEA16C636D94ED117ACA18DFEDBC
:105820003B3AB0EE475AD4ED107A06EE102AF0EE6D
:10583000476AD4ED0E8AF0EE005AB8EEC66AD4ED8F
:105840000D4AE7EEA86A94ED0F4AB0EE409A94ED47
:10585000000A96EE235A8AEE000A94ED03AA65EE3A
:10586000288AE5EE046AE4EEA78AD4E9132096EECE
:10587000A57A53404840D8EEA57A59404FEA735371
:10588000A16480EA42214240636584ED117A21657A
:10589000C4ED107AE26433F0D1FD29EE289ADFEDF1
:1058A0001C7AF3EE0B6AB2EE025A9FED1A6AA9EE69
:1058B0000A8AF0EE665AB4EEC60A79EEAA9AF1EEBA
:1058C00010FA68EE277AC4ED089A27EEA77AE7EE79
:1058D000055A37EE267A27EE277AC7EE257A67EE45
:1058E000807A01D500232377D4ED046A94ED0A7AF7
:1058F00027EEA60ABDEC068B20EE070A10BD00BFFE
:1059000000000000DB0FC9400AD7A33B00000030B5
:105910006666A63F6F12033AF7EE007A0023002274
:1059200000F5B06170B52DED088B87EE809ADFED44
:10593000DA8ADFEDDA7A044681ED000A80ED090AA1
:1059400080F82C2060EE288A0364B0EE408A43641D
:10595000F4EEE78AF1EE10FA80ED0A9A40F1F78151
:105960009FEDCF0A28EE800A78EE089A80EE290A89
:1059700033F0A6FBDFEDCB7A84ED120A04F160016F
:10598000C4ED137AC84AF7EE006A70EE277AB0EEDB
:10599000666AA0EE276A86EE867A60EE077A84ED64
:1059A000147A20EE270AC4ED157A84ED160AA2F1C6
:1059B000C342BE4EBE4DA2F59102BE48A2F247625E
:1059C00082EA1243824206FB03F383EA533305FB68
:1059D00003F383EA134341F8043FE8D1DFEDB67ADD
:1059E000F4EEE78AF1EE10FA40F190819FEDAC0AF7
:1059F00028EE800A80EE290A33F062FBDFEDBD7AE3
:105A0000DFEDAE6AB7EE007A70EE277AF4EEE68A42
:105A1000B0EE476AB0EE40AAF1EE10FAA0EE276AA7
:105A200087EE06BA60EE0BAA60EE2ABA40F17384E4
:105A3000F0EE407AB7EE007ADFEDA16A0022C4ED05
:105A4000337A77EEA65AC4ED346AB0EE476A002383
:105A50009C4804F1E40184F89420A5EEA76A9A4AD0
:105A600084ED238A84ED249AC4F8A830C4F8AC30BD
:105A700084ED2CAAC7EE066AC4F8B40084ED2EBAF1
:105A8000C4ED2FAAC4ED30BA26EEA77AC4ED356A6C
:105A900067EE277A84ED367AC4ED377AA2F1C342F5
:105AA000824E834DA2F591028848A2F2476282EAB3
:105AB0001243824206FB03F383EA533305FB03F3ED
:105AC00083EA134341F8043FE8D1002304F5A871A9
:105AD0007F4A84ED428A84ED439A84F81031A2F122
