:020000042400D6
:1000000000000220410A0024350A00244120012476
:10001000350A0024350A0024350A002400000000B7
:10002000000000000000000000000000350A00246D
:10003000350A002400000000350A0024C51F0124F1
:10004000350A0024350A0024350A0024350A002424
:10005000350A0024350A0024350A0024350A002414
:10006000350A0024350A0024350A0024DD0701245E
:10007000E9070124350A0024F507012401080124B9
:1000800011190124E5F70024350A0024350A00245B
:10009000350A0024350A0024350A0024350A0024D4
:1000A000350A0024350A0024350A0024350A0024C4
:1000B000D1D70124DDD70124E9D7012419F8002480
:1000C000350A002425F80024350A002471D00124C3
:1000D0007DD00124211701245117012489170124FF
:1000E000350A0024350A002400000000350A0024E7
:1000F000350A0024350A0024350A0024350A002474
:10010000350A00243DED0124F5D7012489D00124CE
:10011000C1170124F9170124350A0024350A0024E7
:10012000350A0024350A0024ADD00124E1D0012491
:1001300045190124350A0024350A0024350A002413
:1001400000000000000000000000000000000000AF
:10015000350A0024350A0024350A00243118012408
:1001600031F80024350A0024D51F0124F91F012489
:10017000350A00241D200124350A0024350A0024F4
:10018000350A0024350A002469180124A118012425
:1001900095D00124A1D00124350A0024350A002479
:1001A000350A0024350A0024350A0024350A0024C3
:1001B0001D040124350A0024350A0024350A0024D0
:1001C000350A0024350A0024C9F00024D5F00024A3
:1001D000350A0024E1F00024350A0024350A002401
:1001E000350A0024350A0024350A0024350A002483
:1001F000350A0024350A0024350A0024350A002473
:10020000350A0024350A0024350A0024350A002462
:10021000350A0024350A0024350A0024350A002452
:10022000350A0024350A0024350A002400000000A5
:10023000350A0024350A002400000000350A002495
:10024000350A0024350A0024350A0024350A002422
:10025000350A0024350A0024350A0024350A002412
:10026000350A0024350A0024350A0024350A002402
:10027000350A0024350A0024D918012400000000A2
:10028000350A0024350A0024350A00240000000045
:0802900000000000350A002403
:1002A00010B5054C237833B9044B13B10448AFF3B0
:1002B00000800123237010BD78150020000000008D
:1002C000CC1D022408B5034B1BB103490348AFF30F
:1002D000008008BD000000007C150020CC1D022419
:1002E000034613F8012B002AFBD1181A0138704776
:1002F00001F0FF01102A2BDB10F0070F08D010F8D7
:10030000013B013A8B422DD010F0070F42B3F6D1DA
:10031000F0B441EA012141EA014122F007047FF0F3
:1003200000070023F0E80256083C85EA010586EA4A
:10033000010685FA47F5A3FA87F586FA47F6A5FA86
:1003400087F68EB9EED1F0BC01F0FF0102F0070292
:1003500032B110F8013B013A83EA010313B1F8D13D
:100360000020704701387047002D06BF354603381E
:10037000073815F0010F07D1013015F4807F02BF57
:10038000013015F4C03F0130F0BC0138704700BFA8
:1003900081F0004102E000BF83F0004330B54FEA36
:1003A00041044FEA430594EA050F08BF90EA020FA3
:1003B0001FBF54EA000C55EA020C7FEA645C7FEA36
:1003C000655C00F0E2804FEA5454D4EB5555B8BF59
:1003D0006D420CDD2C4480EA020281EA030382EACA
:1003E000000083EA010180EA020281EA0303362D5C
:1003F00088BF30BD11F0004F4FEA01314FF4801C2F
:100400004CEA113102D0404261EB410113F0004F40
:100410004FEA03334CEA133302D0524263EB4303F7
:1004200094EA050F00F0A780A4F10104D5F1200E95
:100430000DDB02FA0EFC22FA05F2801841F10001F0
:1004400003FA0EF2801843FA05F359410EE0A5F1C4
:1004500020050EF1200E012A03FA0EFC28BF4CF0F5
:10046000020C43FA05F3C01851EBE37101F00045AB
:1004700007D54FF0000EDCF1000C7EEB00006EEBB8
:100480000101B1F5801F1BD3B1F5001F0CD3490842
:100490005FEA30004FEA3C0C04F101044FEA445299
:1004A00012F5800F80F09A80BCF1004F08BF5FEA20
:1004B000500C50F1000041EB045141EA050130BD00
:1004C0005FEA4C0C404141EB0101013C28BFB1F512
:1004D000801FE9D291F0000F04BF01460020B1FA5D
:1004E00081F308BF2033A3F10B03B3F120020CDA30
:1004F0000C3208DD02F1140CC2F10C0201FA0CF00E
:1005000021FA02F10CE002F11402D8BFC2F1200C72
:1005100001FA02F120FA0CFCDCBF41EA0C01904028
:10052000E41AA2BF01EB0451294330BD6FEA040471
:100530001F3C1CDA0C340EDC04F11404C4F120025C
:1005400020FA04F001FA02F340EA030021FA04F36E
:1005500045EA030130BDC4F10C04C4F1200220FAC5
:1005600002F001FA04F340EA0300294630BD21FA03
:1005700004F0294630BD94F0000F83F4801306BFC9
:1005800081F480110134013D4EE77FEA645C18BFBD
:100590007FEA655C29D094EA050F08BF90EA020F54
:1005A00005D054EA000C04BF1946104630BD91EA4C
:1005B000030F1EBF0021002030BD5FEA545C05D14F
:1005C0004000494128BF41F0004130BD14F580048E
:1005D0003CBF01F5801130BD01F0004545F0FE4102
:1005E00041F470014FF0000030BD7FEA645C1ABF37
:1005F000194610467FEA655C1CBF0B46024650EA6E
:10060000013406BF52EA033591EA030F41F4002199
:1006100030BD00BF90F0000F04BF0021704730B51F
:100620004FF4806404F132044FF000054FF00001F4
:1006300050E700BF90F0000F04BF0021704730B5B5
:100640004FF4806404F1320410F0004548BF40428A
:100650004FF000013EE700BF42004FEAE2014FEADF
:1006600031014FEA02701FBF12F07F4393F07F4FBA
:1006700081F06051704732F07F4208BF704793F0BD
:100680007F4F04BF41F40021704730B54FF46074D0
:1006900001F0004521F000411CE700BF50EA0102D3
:1006A00008BF704730B54FF000050AE050EA01027C
:1006B00008BF704730B511F0004502D5404261EBEC
:1006C00041014FF4806404F132045FEA915C3FF42D
:1006D000D8AE4FF003025FEADC0C18BF03325FEACA
:1006E000DC0C18BF033202EBDC02C2F1200300FA7B
:1006F00003FC20FA02F001FA03FE40EA0E0021FAA0
:1007000002F11444BDE600BF53B94AB9002908BF3D
:1007100000281CBF4FF0FF314FF0FF3000F088B9C8
:10072000ADF1080C6DE904CE00F006F8DDF804E048
:10073000DDE9022304B070472DE9F047089D8E469D
:1007400004468846002B4AD18A42174662D9B2FA3B
:1007500082F64EB1C6F1200301FA06F820FA03F33F
:10076000B74043EA0808B4404FEA174E1FFA87FC27
:10077000B8FBFEF1230C0EFB118843EA084301FB92
:100780000CF29A4209D9FB1801F1FF3080F0EA809F
:100790009A4240F2E78002393B449A1AA3B2B2FB74
:1007A000FEF00EFB102243EA024300FB0CFC9C45CA
:1007B00009D9FB1800F1FF3280F0D6809C4540F249
:1007C000D3803B44023840EA0140A3EB0C030021F4
:1007D0001DB1F3400022C5E90032BDE8F0878B422D
:1007E00005D90DB1C5E9000100210846F5E7B3FAC6
:1007F00083F1002946D1734502D3824200F205817C
:10080000841A6EEB030201209046002DE5D0C5E965
:100810000048E2E7002A00F09080B2FA82F6002E4B
:1008200040F0A4808A1A030C4FEA174E80B2BCB283
:100830000121B2FBFEFC0EFB1C2243EA024304FB37
:100840000CF29A4207D9FB180CF1FF3802D29A42F7
:1008500000F2E080C4469B1AB3FBFEF20EFB12339B
:1008600040EA034302FB04F49C4207D9FB1802F15F
:10087000FF3002D29C4200F2CA8002461B1B42EAB1
:100880000C40A5E7C1F120068B4022FA06F71F4372
:100890000EFA01F420FA06F32EFA06FE4FEA174983
:1008A000234300FA01F81FFA87FCBEFBF9F01C0C89
:1008B00009FB10EE44EA0E4400FB0CFEA64502FACA
:1008C00001F209D93C1900F1FF3A80F09C80A6455D
:1008D00040F2998002383C44A4EB0E041FFA83FED8
:1008E000B4FBF9F309FB13444EEA044403FB0CFC8C
:1008F000A44508D93C1903F1FF3E80F08280A4454D
:100900007FD9023B3C4443EA0040A4EB0C04A0FB2B
:1009100002EC64457346E14662D35FD05DB1B8EB4B
:10092000030264EB090404FA06F622FA01F31E43FB
:10093000CC40C5E9006400214FE7B1FBF2FC010C9B
:1009400041EA0E4180B240EA01423B4638463C460D
:10095000B846BE462026B1FBF7F1A2EB080241EAF9
:100960000C4166E7014618E710462CE7C6F1200265
:100970002EFA02F3B740B14020FA02F24FEA174EC6
:100980000A43B3FBFEF8BCB20EFB1833110C41EA6C
:10099000034108FB04F9B04089454FEA104380B297
:1009A0003ED9791808F1FF3C01D289451FD8A1EB47
:1009B0000901B1FBFEF909FB04F80EFB191192B213
:1009C00042EA0142424529D2BA1809F1FF31C4D2A4
:1009D0004245C2D2A9F102013A44BEE7F0459DD298
:1009E000BEEB02036CEB070C0138E14696E7A7EB80
:1009F00009094944A8F1020CB1FBFEF909FB04F80E
:100A0000DBE773467FE7504666E70846FDE63B4472
:100A1000023A33E7ACF1020C3B441CE749469CE741
:100A2000A1EB0901C446B1FBFEF909FB04F8C4E7D8
:100A3000704700BF684620F007018D46FEE700BF03
:100A40000A480B4A904208B503D0121A094920F00F
:100A500013F80948094A904203D0121A00211FF0E6
:100A600097FF1FF0E3FF08F01FFBFEE700000020E8
:100A700078150020081E022478150020A86A00209E
:100A8000704700BF704700BF704700BF704700BF8E
:100A9000704700BF704700BF704700BF704700BF7E
:100AA00070B5174D1C46164613465A224FF6FF7E68
:100AB00068702A70A2196C80A98013F8010B4FF09E
:100AC000080C80EA0E0E4EF300010E480CF1FF3CBC
:100AD00008401CF0FF0C80B280EA5E0EF3D1934216
:100AE000EBD12246314608480834A5F806E01FF04D
:100AF000C3FF06490122064B0C801A7070BD00BF6F
:100B00000000003001A0FFFF08000030D4300020BA
:100B1000D63000202DE9F04F224E83B08146884622
:100B2000019314463378072B09D91F4A13780133F0
:100B300003F0070313703378013BDBB233701B4FB4
:100B400020221B4D002197F800C005EB4C105FFAE6
:100B50008CFB4FEA4C1A1FF01BFF0023220A0AF1FC
:100B6000080069F307030199284468F30F2364F32D
:100B70001743240C62F31F634FEA4B12AB5005EB93
:100B80004B1517222C711FF027FF3B78013303F020
:100B900007033B7033780133DBB2337003B0BDE839
:100BA000F08F00BFD01C0020D11C0020D21C0020E0
:100BB000D41C0020172901D9002070472DE9F04FDF
:100BC000ADF2644D0D46012201468DA80CF036F9B8
:100BD00020B100200DF2644DBDE8F08F01AB2C2256
:100BE00002A98DA80CF02AFA50B9019B2B2B07D92A
:100BF000704B029A9A4203D16F4B049A9A4203D0E7
:100C00008DA80CF04FFBE4E70C218DA8BDF81E90D9
:100C1000BDF82A600CF0AEFB909B083B0C2BEFD983
:100C20000C2711E0019A072AEAD90D9A8DA80E9C8B
:100C30009A4213D09299214408340CF09BFB909B6C
:100C40002744083BBB42DBD901AB08220DA98DA884
:100C50000CF0F4F9594B0028E4D0D1E7002CCFD0A8
:100C6000F70809FB07F7002FCAD0554BB4FBF7F87C
:100C7000984528BF9846102E1BD1B9F1010F18D105
:100C8000504B4FEA480250498DA801FB053101AB9A
:100C90000CF0D4F9019C4D4B640843F82540003C0E
:100CA0004B4E8DA818BF012474550CF0FBFA705DF3
:100CB00090E7BC427BD3424B002403FB05FAA8EB30
:100CC000040201AB0DA98DA807FB02F2B2F5007F6B
:100CD00028BF4FF400720CF0B1F9002863D1019BDA
:100CE000002B60D0A045B3FBF7FC5CD9BB4258D3C6
:100CF0006FF0004333490DAA5344234401EB4301F1
:100D00000DE0182E1AD0082E2AD00023013001340D
:100D10003A4421F8023F844543D9A04543D9102ED7
:100D2000EFD1B9F1020FB2F90030EFD1B2F902E020
:100D30001EEB030323D443F34F03E7E75378B9F1E2
:100D4000020F92F800E04FEA034343EA0E2392F8C1
:100D500002E043EA0E634FEA234312D01BB2D5E709
:100D60001378B9F1020FA3F180034FEA0323F5D101
:100D700092F801E0AEF1800E13EB0E23DBD50133C8
:100D8000D9E792F804E092F803B04FEA0E4E4EEA2B
:100D90000B2E92F805B04EEA0B6E13EB2E43CAD51C
:100DA000EDE7A0458BD8094B43F8254077E70024B1
:100DB000F9E700BF524946465741564564617461A0
:100DC0000077010034B01EC000EE02007430002035
:100DD000FC2F0020F2EE0E7A08B52DED028BF7EE17
:100DE000008AB0EE608AE0EEA78A28EE800A032827
:100DF00023D8DFE800F0392F2002B7EE006AFFEEBB
:100E0000006AB0EE007AB4EEC60AF0EE667AF8EE4A
:100E1000005AF1EE10FA06DD37EE400AB4EEE70AAA
:100E2000F1EE10FA04D4B4EEE60AF1EE10FA04D5AD
:100E300035EEC00AE1E71EF0FBFEC0EE287AB6EE02
:100E4000007AB7EE000AA8EE070ABDEC028B27EE87
:100E5000800A08BDFFEE007AB4EEE70AF1EE10FA60
:100E60001BD5B0EE670AE8E7F7EE087AB4EEE70ABA
:100E7000F1EE10FA1ADCFFEE087AB4EEE70AF1EEB2
:100E800010FA16D460EE007AF1EE0B6A67EE807A03
:100E900087EEA67A30EE470ACFE7F7EE007AB4EE97
:100EA000670AF1EE10FA37FE800AC6E7B7EE000ACD
:100EB000C3E7BFEE000AC0E730B5172885B0CDE91B
:100EC0000112039369D8574B1B5C002B65D0564C1D
:100ED0000023A446224602E00133202B7AD0117869
:100EE00018320029F8D1DDED017AFFEE005A9DEDB0
:100EF000027ADDED036AF8EEE77AB8EEC77A9FED85
:100F00004B6AF8EEE66ADFED4A4A4A4A87EE065A2D
:100F1000494902EB8002494C01EB800187EEA47A3B
:100F2000C6EE867A92ED006AD1ED006A54F8201080
:100F3000840027EE057A27EE267A77EE867AF4EE9D
:100F4000E57AF1EE10FA2AD5DFED3D7A67EE277AE1
:100F500003EB43023B4D0CEBC20E2D5C8EF80100FF
:100F600001200CF8320003FA00F24DB3013906EE0D
:100F7000901AF8EE666A34491344344821440CEB65
:100F8000C30302680968C3ED016A9960511C83EDCF
:100F9000037AC3ED047A5A61016005B030BDF7EE03
:100FA000006AF4EEE67AF1EE10FA0CDCF5EEC07AA7
:100FB000F1EE10FA23D577EEA67A67EE877AC7E7C7
:100FC000DFED1F6AD7E7DFED1E6AF0EE477A27EE06
:100FD000267ABDE74FF0000E4FF0FF3273460AE06D
:100FE00061691834914238BF9E4603F1010338BF4E
:100FF0000A46202B14D061788142F1D173E736EE96
:10100000E76A26EE076A04DDF0EE477AB0EE467A2C
:101010009EE777EEA67A67EE877AB0EE467A97E794
:10102000734660E7FC2F0020FC2C00200000C84223
:101030000000FE424C240020982C00207430002038
:1010400000000000542B0020F42A0020F82C00207F
:10105000037F002B00F0C28090ED090AF7EE007AC2
:1010600010B52DED0C8BD0ED069A044690ED038A59
:10107000B7EE00AAA8EE290AB4EEE70AF1EE10FADC
:10108000A8BF30EE670ADFED577A80ED090A20EE3F
:10109000270A1FF079F9DFED546AD4ED0A7AB7EE2A
:1010A000007A28EE268AF0EE408A9FED4E0AE9EE9D
:1010B000887A9FED4E8AF4EEC77AF1EE10FAA8BF57
:1010C00077EEC77A27EE800AC4ED0A7A1FF05CF942
:1010D00094ED08BA94ED00CAB0EE409AF1EE4BCA16
:1010E0002CEE080A8CEE800A1EF034FFDFED406A19
:1010F00094ED057ADFED3F7A236BC6EE87AA94ED77
:1011000001DA83EA433383EA534329EE279A83EAD9
:1011100043132363A8EE889A08EE103ABAEEE08AE9
:1011200029EE009AB0EE6A0A1FF02EF9F0EE087A66
:10113000B0EE407AD4ED0EBAB0EE6A0AC7EE27AA36
:101140001FF0E6F994ED0D7A9FED2B6ADFED2B6A27
:1011500084ED0E7A70EE007A84ED0D8A8CEE8C0AA6
:101160006AEEEB8A7AEE8ADA3AEE6AAAEAEE888AC0
:10117000E7EE878AF0EE687AEBEECA7AC7EEAD8AC0
:1011800068EE868AE8EE268A1EF0E4FE94ED027A86
:10119000F7EE087AB0EE408A79EE8B9A68EE808A94
:1011A00068EE878AE9EE0D8A28EEA70A1EF040FD58
:1011B000DFED137AC4ED089AB4EEE78AF1EE10FA87
:1011C00001D50023237794ED047AD4ED0B7A20EE39
:1011D000070ABDEC0C8B20EE270A10BD9FED090A13
:1011E000704700BFDB0FC940BE9FEA3F9A99193F85
:1011F000DB6FF546CDCCCC3E3333333F9A99993EE5
:101200006F12833A0000000038B5037D2DED068B88
:10121000002B00F0B280036A044690ED068A002598
:1012200083EA4333DFED578A83EA534383EA431368
:101230000AEE103A0362BAEEE0AA07EE905AB0EE58
:10124000480A9FED517AF8EEE77AA7EEC70AB5EEA5
:10125000C00AF1EE10FA04DBB4EEC70AF1EE10FAA0
:1012600069D40135042DE8D19FED480AD4ED009AE8
:10127000B4EEC08AF1EE10FA74DAD4ED015A9FEDA3
:10128000446ADFED447ADFED446AE5EE867A94ED58
:10129000037A67EEA67AC7EE87AAB0EE6A0A1FF055
:1012A00073F8B0EE409AB0EE6A0A1FF031F9B5EE6D
:1012B000007AF7EE005A94ED0A5A70EE007AD4EDF7
:1012C000094A29EE070AC4ED0A4A30EE254A20EE03
:1012D000456A35EEC07AC5EE846AA0EE0A6A67EE0A
:1012E000A67A27EE267A67EEA47AE6EE267AE5EE6F
:1012F000477A28EEA70AC4ED097A30EE000A1EF0FC
:1013000097FC94ED047ADFED257A38EE078A79EEC2
:10131000A79A84ED068AB4EEE98AF1EE10FA17DC9A
:1013200094ED027AD4ED077A20EE070ABDEC068B25
:1013300020EE270A38BDB1EE400ADFED197A80EEC3
:10134000270A1EF007FEF6EE007AE0EE278A88E70D
:10135000DFED147AF4EEE78AF1EE10FAE0D500231F
:101360002375DDE738EE400AB1EE400A80EE290A27
:101370001EF0F0FD78EE808A7FE7BDEC068B9FEDD6
:10138000010A38BD000000004260E53B4260E53CD8
:1013900000803B4500009644DB0FC940CDCC4C3D5E
:1013A0006F12033B6F12833A38B590F82030044631
:1013B0002DED088B002B40F0E185DFEDA68A04F1CE
:1013C0003000FFF745FE04F16C0030EE288AFFF78D
:1013D0001BFF94F8A03038EE008A002B40F04585C2
:1013E000DFED9C7A94F8E43038EE278A002B40F049
:1013F000B384DFED987A94F8383138EE278A002BE1
:1014000040F05784DFED937A94F8603138EE278A04
:10141000002B40F0FB83DFED8F7A94F8883138EEB3
:10142000278A002B40F0A083DFED8A7A94F8AC3154
:1014300038EE278A002B40F04383DFED867A94F85C
:10144000D03138EE278A002B40F0C882DFED817A58
:1014500094F8F43138EE278A002B40F06282DFEDF9
:101460007D7A94F8183238EE278A002B00F0B38288
:1014700094ED827AF7EE007A94ED859A94ED880ADD
:10148000A7EE090AB4EEE70AF1EE10FAA8BF30EEB3
:10149000670ADFED6D7A84ED880A20EE270A1EF0D8
:1014A00073FFD4ED879AF0EE408AD4ED817AB1EEE5
:1014B000690A80EE270A1EF04DFD9FED657AB4EEB5
:1014C000C70A39EE299A68EE807AF1EE10FA84EDB7
:1014D000879A00F1AA80D4ED836A94ED897A67EE49
:1014E000A67A67EE877A94F83C3238EE278A002B8A
:1014F00040F0C481DFED577A94F8683238EE278ADD
:10150000002B40F0A980DFED537A94F88C3238EE4E
:10151000278A002B00F00F81D4EDA29AF7EE007A13
:1015200094EDA57AF6EE005ADFED426AFFEE008AEE
:101530009FED416AA9EEA67AD4EDA4AAF7EE006A5F
:101540009FED3E0AB1EE6A9A89EE000AB4EEE77AA0
:10155000F1EE10FAA8BF37EE677AD4EDA67AE9EE7D
:10156000867AB4EEE57A84EDA57ABFEE006AB7EE2E
:10157000007AF1EE10FAF4EEE67A48BFF0EE668AF1
:10158000F1EE10FAA8BF77EEE67AF6EE006AC4ED47
:10159000A67AF4EEE67AF1EE10FA58BFB0EE467A8B
:1015A00078EE878A68EEA68A1EF0D4FCB0EE40AAD8
:1015B00094ED9F0A89EE000A1EF0CCFCDFED206A54
:1015C0003AEE40AAB0EE407AF7EE087AB0EE409AD2
:1015D000AAEE267A79EEAA9A68EE878A28EEA70AFA
:1015E0001EF026FBDFED1A7AC4EDA49AB4EEE79A5A
:1015F000F1EE10FA15D494EDA07AD4EDA77A20EE8E
:10160000070A94F8A83220EE270A38EE008A002B49
:1016100040F09A809FED0F0A38EE000ABDEC088B6F
:1016200038BD002384F88C32E5E7002384F81832B3
:1016300051E700BF0000074400004844A69B443B1C
:101640009A99993E17B7513ADB0FC9406666E63F53
:101650006F12833A00000000D4F87832D4ED9B9AE0
:1016600083EA43331FED090AB1EE699A83EA5343D3
:1016700083EA431589EE000AC4F8785208EE905ABE
:101680001EF068FC94ED99BA94ED967AD4ED9C7AAC
:10169000FAEEE08AF6EE006AE7EE0B7AB7EE007A31
:1016A00068EE808AB0EE40AA1FED190A68EEA68A9D
:1016B000F4EEC77AF1EE10FAA8BF77EEC77A27EEFC
:1016C000800AC4ED9C7A1EF05FFED4ED957AF0EEB0
:1016D00040AA89EE270A1EF03DFC5FED247AEAEE6F
:1016E000808AB0EE409A79EE8B9A28EEA70A1EF017
:1016F0009FFA1FED297AF0EE407AC4ED9B9AB4EE82
:10170000C79AF1EE10FA07D5B4EEC7AAF1EE10FAB7
:1017100002D5002384F86832D4ED976A94ED9D7A5F
:1017200067EEA67A94F88C3267EE877A38EE278ACD
:10173000002B7FF4F1AE1FED390A94F8A83238EE91
:10174000008A002B3FF466AFD4EDA99A04F52D73FF
:10175000CC4A04F53371DFEDCC6AF3EC017AB7EED5
:10176000007AB2EC016AB7EE009AE6EE297AB6EE9C
:10177000006AF4EEC77AF1EE10FAA8BF77EEC77AE6
:10178000BFEE007AF4EEC67A43ED017AF1EE10FA7C
:1017900054BFF0EE477AF0EE497A994276EEA76AA6
:1017A000DBD1B1EE086AD4F8CC329FEDB87A83EA87
:1017B0004333DFEDB75AC6EE867AD4EDB58A83EAB5
:1017C000534394EDB46AD4EDABAA83EA431394ED8A
:1017D000B60A39EE875AC4F8CC32B1EE6ABAC7EE0F
:1017E000056A07EE103ABAEEE07A8BEE000AE7EEF1
:1017F000257A77EEA88AC4EDB47A78EEC68A68EEC8
:10180000A68AC4EDB58A1EF0A5FBDFEDA27AB0EE84
:1018100040AA8BEE270A1EF09DFB94EDB76ADFED20
:101820009E6A9FED9E7A79EE407A9FED9D0AA6EE24
:10183000267A68EE8A8A7AEEA9AA67EEA87A67EE17
:10184000877A27EE800A1EF0F3F9DFED967AC4ED71
:10185000ABAAB4EEE7AAF1EE10FA02D5002384F8A1
:10186000A83294EDB87AD4EDAC7A20EE070A20EED7
:10187000270A38EE000ABDEC088B38BD94ED8B7A50
:10188000B7EE006ADFED887AD4ED909AE7EE277A1A
:10189000DFED885AB1EE690A94ED8A7AD4F84832BD
:1018A000D4ED948A80EE070A83EA4333D4ED936A39
:1018B00083EA534394ED8E9A83EA431367EEA57A45
:1018C000C4F8483286EE277A07EE903AFAEEE07ACC
:1018D00077EEA88AC4ED937A78EEE68A77EE096A05
:1018E000C7EE267A68EEA78AC4ED948A1EF032FB12
:1018F0009FED727A39EE299AB4EEC70A68EE807AC3
:1019000084ED909AF1EE10FA02D5002384F83C326F
:10191000D4ED8C6A94ED917A67EEA67A67EE877AB9
:10192000EAE594ED7E9A9FED610AF1EE49AAD4EDC5
:10193000798A8AEE800A1EF00DFB94ED7CAAD4ED24
:101940007F7AB7EE087AF7EE006A28EE877AE7EE3C
:10195000008AE8EE8A7AF4EEE67AB0EE670AF1EEF3
:1019600010FAA8BF37EEE60ADFED527A84ED7F0A5F
:1019700020EE270A1EF008FDD4ED787AF0EE409AAA
:101980008AEEA70A1EF0E6FADFED497AF0EE408A09
:1019900029EEA70A1EF04CF99FED487A39EE0A9A13
:1019A000F4EEC78A68EE807A84ED7E9AF1EE10FA42
:1019B00002D5002384F8F431D4ED7A6A94ED807A6C
:1019C00067EEA67A94F8183267EE877A38EE278A9F
:1019D000002B7FF44DADDFED2C7A84E594ED759A04
:1019E0009FED320AF1EE49AAD4ED708A8AEE800AA0
:1019F0001EF0B0FA94ED73AAD4ED767AB7EE087AB9
:101A0000F7EE006A28EE877AE7EE008AE8EE8A7A37
:101A1000F4EEE67AB0EE670AF1EE10FAA8BF37EE00
:101A2000E60ADFED247A84ED760A20EE270A1EF01E
:101A3000ABFCD4ED6F7AF0EE409A8AEEA70A1EF066
:101A400089FADFED1B7AF0EE408A29EEA70A1EF034
:101A5000EFF89FED1A7A39EE0A9AF4EEC78A68EE2B
:101A6000807A84ED759AF1EE10FA02D5002384F89D
:101A7000D031D4ED716A94ED777A67EEA67A67EE8D
:101A8000877AE5E4A012022400000000C583DE3757
:101A90009A99193E6F12033B9A99193FCDCCCC3ECF
:101AA0006666E63F6F12033A00409C458FC2753C64
:101AB000CDCC8C3FDB0FC9409A99993F6F12833A86
:101AC00094ED6C9A1FED070AF1EE49AAD4ED678AEE
:101AD0008AEE800A1EF03EFA94ED6AAAD4ED6D7A81
:101AE000B7EE087AF7EE006A28EE877AE7EE008A0A
:101AF000E8EE8A7AF4EEE67AB0EE670AF1EE10FAD2
:101B0000A8BF37EEE60A5FED157A84ED6D0A20EE88
:101B1000270A1EF039FCD4ED667AF0EE409A8AEE80
:101B2000A70A1EF017FA5FED1E7AF0EE408A29EE42
:101B3000A70A1EF07DF81FED1F7A39EE0A9AF4EE1F
:101B4000C78A68EE807A84ED6C9AF1EE10FA02D5BD
:101B5000002384F8AC31D4ED686A94ED6E7A67EEB8
:101B6000A67A67EE877A6AE494ED639A94ED5E0A4A
:101B7000F1EE49AAD4ED5D8A8AEE800A1EF0EAF9F8
:101B800094ED61AAD4ED647A78EEA86AB7EE007A93
:101B9000E6EE808AE8EE8A7AF4EEC77AB0EE670A5B
:101BA000F1EE10FAA8BF37EEC70A5FED3E7A84ED7A
:101BB000640A20EE270A1EF0E7FBD4ED5C7AF0EE13
:101BC000409A8AEEA70A1EF0C5F95FED457AF0EE5D
:101BD000408A29EEA70A1EF02BF81FED487A39EE4D
:101BE0000A9AF4EEC78A68EE807A84ED639AF1EE81
:101BF00010FA02D5002384F88831D4ED5F6A94EDA1
:101C0000657A67EEA67A67EE877A0FE494ED599AC3
:101C100094ED540AF1EE49AAD4ED538A8AEE800A73
:101C20001EF098F994ED57AAD4ED5A7A78EEA86A86
:101C3000B7EE007AE6EE808AE8EE8A7AF4EEC77AAA
:101C4000B0EE670AF1EE10FAA8BF37EEC70A5FEDF3
:101C5000677A84ED5A0A20EE270A1EF095FBD4ED30
:101C6000527AF0EE409A8AEEA70A1EF073F95FED01
:101C70006E7AF0EE408A29EEA70A1DF0D9FF1FED1B
:101C8000717A39EE0A9AF4EEC78A68EE807A84EDAA
:101C9000599AF1EE10FA02D5002384F86031D4EDA0
:101CA000556A94ED5B7A67EEA67A67EE877AFFF75E
:101CB000B4BB94ED4F9A94ED4A0AF1EE49AAD4EDE3
:101CC000498A8AEE800A1EF045F994ED4DAAD4EDBA
:101CD000507A78EEA86AB7EE007AE6EE808AE8EEEF
:101CE0008A7AF4EEC77AB0EE670AF1EE10FAA8BF6E
:101CF00037EEC70A5FED917A84ED500A20EE270A8D
:101D00001EF042FBD4ED487AF0EE409A8AEEA70A24
:101D10001EF020F95FED987AF0EE408A29EEA70ACE
:101D20001DF086FF1FED9B7A39EE0A9AF4EEC78A02
:101D300068EE807A84ED4F9AF1EE10FA02D5002316
:101D400084F83831D4ED4B6A94ED517A67EEA67A77
:101D500067EE877AFFF758BBD4ED389A04F1F003A9
:101D6000C04A04F58471DFEDC06AF3EC017AB7EE86
:101D7000007AB2EC016AF6EE008AE6EE297ABFEE4E
:101D8000006AF4EEC77AF1EE10FAA8BF77EEC77AD0
:101D9000B7EE007AF4EEE87A43ED017AF1EE10FA4C
:101DA00054BFF0EE467AF0EE477A994276EEA76A93
:101DB000DBD1B1EE086AD4F808319FEDAC7A83EA42
:101DC0004333DFEDAB5AC6EE867A94ED449A83EA4C
:101DD000534394ED436AD4ED3AAA83EA431394ED56
:101DE000455A79EE874AC4F80831B1EE6A0AC7EE5F
:101DF000246A07EE103ABAEEE07A80EE050AE7EEC2
:101E0000257A37EE899AC4ED437A39EE469A29EE5F
:101E1000269A84ED449A1EF09DF8D4ED467A29EE78
:101E2000009AE7EEA88AB0EE40AA7AEEA9AA29EEB7
:101E3000280A30EE000A1DF0FBFE9FED8E7AF0EED0
:101E4000407AC4ED3AAAB4EEC7AAF1EE10FA02D570
:101E5000002384F8E430D4ED476A94ED3B7A67EED2
:101E6000A67A67EE877AFFF7C6BAD4ED279A04F10F
:101E7000AC037C4A04F1C401DFED7B6AF3EC017A28
:101E8000B7EE007AB2EC016AF6EE008AE6EE297A45
:101E9000BFEE006AF4EEC77AF1EE10FAA8BF77EE53
:101EA000C77AB7EE007AF4EEE87A43ED017AF1EE04
:101EB00010FA54BFF0EE467AF0EE477A994276EE89
:101EC000A76ADBD1B1EE086AD4F8C4309FED677A17
:101ED00083EA4333DFED665AC6EE867A94ED339A91
:101EE00083EA534394ED326AD4ED29AA83EA43137B
:101EF00094ED345A79EE874AC4F8C430B1EE6A0AD8
:101F0000C7EE246A07EE103ABAEEE07A80EE050AD0
:101F1000E7EE257A37EE899AC4ED327A39EE469AA1
:101F200029EE269A84ED339A1EF014F8D4ED357A12
:101F300029EE009AE7EEA88AB0EE40AA7AEEA9AAA6
:101F400029EE280A30EE000A1DF072FE9FED497A54
:101F5000F0EE407AC4ED29AAB4EEC7AAF1EE10FA69
:101F600002D5002384F8A030D4ED366A94ED2A7AA5
:101F700067EEA67A67EE877AFFF734BAD0ED098A62
:101F800090ED020AB1EE68AA90ED018A8AEE000A8D
:101F90001DF0E0FFD4ED07AAD4ED0A7AB2EE007A84
:101FA000F7EE006A28EE077AA7EE008AE8EE2A7AB2
:101FB000F4EEE67AB0EE670AF1EE10FAA8BF37EE5B
:101FC000E60ADFED2D7A84ED0A0A20EE270A1EF0DC
:101FD000DBF9D4ED037AB0EE409A8AEE270A1DF0C1
:101FE000B9FFDFED267AB0EE408A28EEA70A1EF090
:101FF000CBF9D4ED007AF0EE409A8AEE270A1DF074
:10200000A9FFDFED1F5A94ED046A68EE297AF0EE1D
:10201000086AB7EE007AA7EEA59AB0EE408AA6EE5F
:10202000267A78EEAA8A29EE070A1DF001FEDFED76
:10203000117AC4ED098AB4EEE78AF1EE10FA02D5FE
:10204000002384F8203028EE008A94ED057AD4ED40
:102050000B7ADFED058A28EE078AE8EE278AFFF77C
:10206000AEB900BFA012022400000000C583DE3715
:102070009A99193E6F12833ADB0FC940959EEB4542
:102080009A99993E38B5037D2DED068B002B00F013
:10209000B780036A054690ED068A002483EA43333D
:1020A000DFED5A8A83EA534383EA431309EE903AF9
:1020B0000362FAEEE09A02E00134062C22D007EE29
:1020C000904AB0EE480A9FED527AF8EEE77AA7EE12
:1020D000C70AB5EEC00AF1EE10FAEDDBB4EEC70A9E
:1020E000F1EE10FAE8D5B1EE400ADFED4A7A01349C
:1020F00080EE270A1DF02EFFDFED477A062CE0EE7A
:10210000278ADCD1DFED457A95ED009AB4EEE78AB7
:10211000F1EE10FA69DAD5ED015A9FED416ADFED73
:10212000417ADFED416AE5EE867A95ED037A67EE56
:10213000A67AC7EE87AAB0EE6A0A1EF025F9B0EEBD
:1021400040AAB0EE6A0A1EF0E3F9F1EE046AB7EEB7
:10215000005AD5ED0A4A70EE007A95ED094A8AEEEA
:10216000267A85ED0A4AF0EE043A37EE053A67EE34
:10217000645A75EE476A85EE036AE7EE295A67EE00
:10218000867A26EE867A67EE847AE5EE867AE4EE43
:10219000C77A28EEA70AC5ED097A20EE230A1DF0BA
:1021A00047FD95ED047ADFED217A38EE078A39EEA6
:1021B000279A85ED068AB4EEC98AF1EE10FA0ADC98
:1021C00095ED027AD5ED077A20EE070ABDEC068B75
:1021D00020EE270A38BDDFED167AF4EEE78AF1EE3D
:1021E00010FAEDD500232B75EAE778EE677AB1EEA9
:1021F000670A80EE090A1DF0ADFE78EE808A8AE754
:10220000BDEC068B9FED010A38BD00BF0000000049
:102210000AD7A33BA69BC43ACDCCCC3E8FC2F53C9B
:1022200000007A450000E144DB0FC9408FC2753DD4
:102230006F12833A0A2925D8DFE811F025003F0004
:102240005E007B00A700D000EA0003011C014401EE
:102250000B00DFEDC17A0123B4EEE70AC0ED917AFD
:1022600080F84032C0ED927AF1EE10FA00F1708100
:10227000F7EE007AB4EE670AF1EE10FA37FE800A44
:1022800080ED930A7047DFEDB47A0123B4EEE70ADC
:10229000C0ED097A80F82030C0ED0A7AF1EE10FA2C
:1022A00000F15381F7EE007AB4EE670AF1EE10FA0E
:1022B00037FE800A80ED0B0A7047DFEDA77A012315
:1022C000B4EEE70AC0ED147A80F84C30C0ED167A0F
:1022D000F1EE10FAC0ED157A00F13481F7EE007AD4
:1022E000B4EE670AF1EE10FA37FE800A002380EDA3
:1022F000170A836643667047DFED977A0123B4EED1
:10230000E70A80F88030C0ED217AF1EE10FA00F192
:102310001681F7EE007AB4EE670AF1EE10FA37FE96
:10232000800A002380ED220AC0F89430C0F8903073
:102330007047DFED897A00220123B4EEE70A80F8C6
:10234000E42080F8A030C0ED297AF1EE10FA00F117
:10235000F380F7EE007AB4EE670AF1EE10FA37FE7A
:10236000800A002380ED2A0AC0F8AC30C0F8B030F3
:10237000C0F8B430C0F8B830C0F8BC30C0F8C030D5
:10238000C0F8CC30C0F8C8307047DFED737A012355
:10239000B4EEE70A80F8E430C0ED3A7AF1EE10FAD4
:1023A00000F1C780F7EE007AB4EE670AF1EE10FA9A
:1023B00037FE800A002380ED3B0AC0F8F030C0F8F9
:1023C000F430C0F8F830C0F8FC30C0F80031C0F884
:1023D0000431C0F81031C0F80C317047DFED5E7A7F
:1023E0000123B4EEE70AC0ED507A80F83C31C0ED2D
:1023F000517AF1EE10FA00F19980F7EE007AB4EE1E
:10240000670AF1EE10FA37FE800A80ED520A704733
:10241000DFED517A0123B4EEE70AC0ED5B7A80F874
:102420006831C0ED5C7AF1EE10FA7CD4F7EE007AF8
:10243000B4EE670AF1EE10FA37FE800A80ED5D0A0D
:102440007047DFED457A0123B4EEE70AC0ED667A06
:1024500080F89431C0ED677AF1EE10FA60D4F7EEAF
:10246000007AB4EE670AF1EE10FA37FE800A80EDCA
:10247000680A7047DFED387A0123B4EEE70A80F886
:10248000AC31C0ED6C7AF1EE10FA46D4F7EE007A7A
:10249000B4EE670AF1EE10FA37FE800A002380EDF1
:1024A0006D0AC0F8B831C0F8BC31C0F8C031C0F80E
:1024B000C431C0F8C831C0F8CC31C0F8D831C0F848
:1024C000D4317047DFED247A0123B4EEE70A80F8B7
:1024D000F031C0ED7D7AF1EE10FA1BD4F7EE007A00
:1024E000B4EE670AF1EE10FA37FE800A002380EDA1
:1024F0007E0AC0F8FC31C0F80032C0F80432C0F8DF
:102500000832C0F80C32C0F81032C0F81C32C0F8E3
:1025100018327047B0EE670AE8E7B0EE670ABDE729
:10252000B0EE670AA3E7B0EE670A87E7B0EE670A86
:102530006BE7B0EE670A3DE7B0EE670A11E7B0EE71
:10254000670AEEE6B0EE670AD0E6B0EE670AB1E6DB
:10255000B0EE670A94E600BF0000000038B590F8BE
:10256000203004462DED0A8B002B40F0F780DFED84
:10257000E89A94F84C30002B00F09B8094ED129A6E
:10258000F7EE007A94ED0F8A94ED150AA8EE090A89
:10259000B4EEE70AF1EE10FAA8BF30EE670ADFEDFD
:1025A000DD7A84ED150A20EE270A1DF0EDFEDFED41
:1025B000DA6AD4ED167AB7EE007A28EE268AF0EEC3
:1025C00040AA9FEDD40AE9EE087AF4EEC77AF1EE5C
:1025D00010FAA8BF77EEC77A27EE800AC4ED167A04
:1025E0001DF0D2FE94ED0CBA94ED14CAF0EE408AC0
:1025F000DFEDCA7AF1EE4CBA2BEE270A8BEE800A99
:102600001DF0A8FCDFEDC67A236E94ED1A8A83EAEA
:102610004333D4ED196A39EE275ADFEDC25A83EA03
:1026200053439FEDC16A68EEA58A87EE857A83EAF7
:10263000431307EE903A2366FAEEE07AB0EE40AA32
:102640008BEE8B0A94ED0DBAC4ED197A37EE888AB9
:10265000EAEE868A38EE668A28EE078A84ED1A8AC0
:102660001DF078FC28EE008A94ED0E7AF7EE087AD9
:102670002AEE28AA28EE078AF0EE40AA39EE0C9A34
:1026800028EE278AAAEE0B8A38EE080A1DF0D0FA47
:10269000DFEDA67A84ED149AF4EEE7AAF1EE10FAD3
:1026A00058D494ED107AD4ED177A20EE070AE0EEB4
:1026B000279A04F16C00FFF7E5FC94F8A03030EEA7
:1026C000298A002B40F06584DFED917A94F8E4309C
:1026D00038EE278A002B40F0D183DFED8D7A94F815
:1026E0003C3138EE278A002B40F05E83DFED887A9C
:1026F00094F8683138EE278A002B40F0EB82DFED4A
:10270000847A94F8943138EE278A002B40F05E8268
:10271000DFED7F7A94F8AC3138EE278A002B40F059
:10272000B981DFED7B7A94F8F03138EE279A002BEF
:1027300040F00881DFED767A94F8403279EE278A0E
:10274000002B40F083809FED720A38EE800ABDECCA
:102750000A8B38BD002384F84C30A2E7D0ED099AEB
:1027600090ED020AB1EE69AA90ED018A8AEE000AA4
:102770001DF0F0FBD4ED0A7AD4ED07AAB2EE087A88
:10278000F7EE006A28EE077AA7EE008AE8EE2A7ACA
:10279000F4EEE67AB0EE670AF1EE10FAA8BF37EE73
:1027A000E60ADFED5C7A84ED0A0A20EE270A1DF0C6
:1027B000EBFDDFED5E7AF0EE408A8AEE270A1DF02F
:1027C000C9FBDFED5B7AB0EE408A29EEA70A1DF067
:1027D000DBFD94ED00BA28EE008AD4ED037A8AEE90
:1027E0000B0A28EE278A1DF0B5FBD4ED04BAB0EE33
:1027F000409ADFED507AF4EEE7BAF1EE10FA00F30A
:10280000538478EE888A9FED4C0A28EE800A1DF0EA
:102810000FFADFED466A39EEAA7AB4EEE69AF0EEE8
:10282000407A84ED097AF1EE10FA02D5002384F89B
:10283000203067EE897AD4ED056A94ED0B7ADFEDEE
:10284000349A67EEA67AE7EE879A92E6D4F8503289
:1028500094ED91AA83EA43339FED380AB1EE4A9A88
:1028600083EA534383EA431589EE000AC4F85052C1
:102870001DF070FBD4ED8C5AD4ED8FAA07EE905A60
:1028800094ED927AF7EE006AFAEEE07A9FED2C6A08
:10289000A5EEAA7A67EE807A9FED1E0A27EE868A59
:1028A000B4EEE67AF1EE10FAA8BF37EE667A27EEBC
:1028B000000A84ED927A1DF067FDD4ED8B7AF0EE7C
:1028C000409A89EE270A1DF045FBA9EE808AB0EEFA
:1028D000409A38EE080A1DF0ABF99FED147A7AEEB3
:1028E0002A7AB4EEC79AC4ED917AF1EE10FA02D5C5
:1028F000002384F8403294ED8D7AD4ED937A20EE63
:10290000070A20EE270A38EE800ABDEC0A8B38BD94
:1029100000000000DB0FC940CDCCCC3FCDCCCC3E7D
:10292000C5835E389A99993E3333333F6F12833AA9
:102930001D4393460AD7233C6666E63F6F12033A6F
:102940009A99193FD4ED7BAA04F5FE73D44A04F595
:102950000571DFEDD46AF3EC017AB7EE007AB2ECE0
:10296000016AB6EE00AAF7EE008AE6EE2A7AF4EEE5
:10297000C77AF1EE10FAA8BF77EEC77ABFEE007AF9
:10298000F4EECA7A43ED017AF1EE10FA54BFF0EE9C
:10299000477AF0EE687A8B4276EEA76ADBD1F1EEE9
:1029A000087AD4F814329FEDC07A83EA43339FED5E
:1029B000BFCA86EEA76ADFEDBEBA83EA5343D4ED01
:1029C000877AD4ED864A83EA431394ED7DBA9FED6E
:1029D000B90A7AEE876AF1EE4B9A87EE265A07EE2D
:1029E000103A83EA433383EA5343F8EEC76A83EA33
:1029F000431589EE800AC4F8145266EE8C5AF0EE44
:102A0000466AE5EEAB6A36EEA78AC4ED866A38EE12
:102A1000648A28EE058A84ED878A1DF09BFAD4ED3E
:102A2000887A78EEC08A89EEA70A1DF093FA07EE3D
:102A3000905A94ED897ADFEDA56AF8EEE77AE7EE31
:102A40000A6AF0EE409A67EE8C7AA7EEAB8A60EEE7
:102A5000087A67EEA87A27EEA60A30EE000A1DF083
:102A6000E7F8DFED956A3BEE2A7AF4EEE69AF0EEAF
:102A7000407A84ED7D7AF1EE10FA02D5002384F8D5
:102A8000F031D4ED8A6A94ED7E7A67EEA67A67EE2D
:102A9000877A51E694ED6AAA04F5DC73804A04F55E
:102AA000E871DFED806AF3EC017AB7EE007AB2EC00
:102AB000016AF7EE009AE6EE0A7AB6EE006AF4EEE4
:102AC000C77AF1EE10FAA8BF77EEC77ABFEE007AA8
:102AD000F4EEC67A43ED017AF1EE10FA54BFF0EE4F
:102AE000477AF0EE697A994276EEA76ADBD1B1EEC9
:102AF000087AD4F8D031DFED6C7A83EA43339FED66
:102B00006C5A86EE876AD4ED768A83EA5343D4ED15
:102B1000755A94ED6CBA83EA43139FED690A7AEE15
:102B2000276AC4F8D031B1EE4B9A87EEA67A07EE49
:102B3000903AFAEEE07A89EE000AF0EE466AE7EEA5
:102B4000856A76EEA88AC4ED756A78EEE58A68EE45
:102B5000878AC4ED768A1DF0FDF9D4ED777AF0EE20
:102B600040AA89EE270A1DF0F5F99FED547A94EDFD
:102B7000786ADFED566AB0EE409AE6EE076A79EEC3
:102B8000EA7A68EE898AB7EE080A67EEA87A67EEF5
:102B9000A67A27EE800A1DF04BF8DFED476A3BEE80
:102BA0000A7AB4EEE69AF0EE407A84ED6C7AF1EEB1
:102BB00010FA02D5002384F8AC31D4ED796A94ED93
:102BC0006D7A67EEA67A67EE877AACE5D4ED669A01
:102BD00094ED600AB1EE69AAD4ED5F8ADFED38AA00
:102BE0008AEE000A1DF0B6F994ED64BAD4ED677A66
:102BF000B0EE087AF7EE006A28EE877AE7EE008AF0
:102C0000E8EE8B7AF4EEE67AB0EE670AF1EE10FAAF
:102C1000A8BF37EEE60ADFED2B7A84ED670A20EED7
:102C2000270A1DF0B1FBB0EE409A8AEE2A0A1DF089
:102C300091F9DFED257AF0EE408A29EEA70A1DF022
:102C4000A3FB94ED5E7A68EE808AD4ED617A8AEE19
:102C5000070A68EEA78A1DF07DF99FED1C7ADFED6B
:102C60001C7AA8EE879AF0EE408A29EE270A1CF01B
:102C7000DFFFF4EEEA8A39EE8B7A68EE807AF1EEC5
:102C800010FA84ED667A02D5002384F89431D4EDED
:102C9000626A94ED687A67EEA67A67EE877A39E51C
:102CA00088120224000000000403B2370000003044
:102CB000CDCC4C3EA69B443B6F12033ACDCCCC3ED0
:102CC0006F12833ADB0FC9401D4313469A99993E10
:102CD0003333B33FD4ED5B9A94ED550AB1EE69AA54
:102CE000D4ED548A5FED0AAA8AEE000A1DF032F98B
:102CF00094ED59BAD4ED5C7AB0EE087AF7EE006A3A
:102D000028EE877AE7EE008AE8EE8B7AF4EEE67A30
:102D1000B0EE670AF1EE10FAA8BF37EEE60A5FEDF3
:102D2000177A84ED5C0A20EE270A1DF02DFBB0EE29
:102D3000409A8AEE2A0A1DF00DF95FED1D7AF0EE39
:102D4000408A29EEA70A1DF01FFB94ED537A68EE26
:102D5000808AD4ED567A8AEE070A68EEA78A1DF0BB
:102D6000F9F81FED267A5FED267AA8EE879AF0EE45
:102D7000408A29EE270A1CF05BFFF4EEEA8A39EE5E
:102D80008B7A68EE807AF1EE10FA84ED5B7A02D5E8
:102D9000002384F86831D4ED576A94ED5D7A67EECC
:102DA000A67A67EE877AACE4D4ED509A94ED4A0A9D
:102DB000B1EE69AAD4ED498A5FED3FAA8AEE000A16
:102DC0001DF0C8F894ED4EBAD4ED517AB0EE087A01
:102DD000F7EE006A28EE877AE7EE008AE8EE8B7A53
:102DE000F4EEE67AB0EE670AF1EE10FAA8BF37EE1D
:102DF000E60A5FED4C7A84ED510A20EE270A1DF0B9
:102E0000C3FAB0EE409A8AEE2A0A1DF0A3F85FEDED
:102E1000527AF0EE408A29EEA70A1DF0B5FA94ED39
:102E2000487A68EE808AD4ED4B7A8AEE070A68EE1B
:102E3000A78A1DF08FF81FED5B7A5FED5B7AA8EE35
:102E4000879AF0EE408A29EE270A1CF0F1FEF4EE94
:102E5000EA8A39EE8B7A68EE807AF1EE10FA84ED28
:102E6000507A02D5002384F83C31D4ED4C6A94EDBD
:102E7000527A67EEA67A67EE877A39E4D4ED389A0B
:102E800004F1F003944A04F58471DFED946AF3ECE5
:102E9000017AB7EE007AB2EC016AF6EE008AE6EE4D
:102EA000297ABFEE006AF4EEC77AF1EE10FAA8BFF5
:102EB00077EEC77AB7EE007AF4EEE87A43ED017A5E
:102EC000F1EE10FA54BFF0EE467AF0EE477A9942EE
:102ED00076EEA76ADBD1B1EE086AD4F808319FED2F
:102EE000807A83EA4333DFED7F5AC6EE867A94ED2B
:102EF000449A83EA534394ED436AD4ED3AAA83EAB1
:102F0000431394ED455A79EE874AC4F80831B1EE7F
:102F10006A0AC7EE246A07EE103ABAEEE07A80EE4B
:102F2000050AE7EE257A37EE899AC4ED437A39EE41
:102F3000469A29EE269A84ED449A1DF00BF894EDFA
:102F4000467A29EE009AE7EE288AF0EE047AB0EE8F
:102F500040AA7AEEA9AA29EE289A29EE270A1CF09F
:102F600067FE9FED617AF0EE407AC4ED3AAAB4EEC6
:102F7000C7AAF1EE10FA02D5002384F8E430D4EDAC
:102F8000476A94ED3B7A67EEA67A67EE877AFFF799
:102F9000A6BBD4ED279A04F1AC034F4A04F1C40157
:102FA000DFED4E6AF3EC017AB7EE007AB2EC016A1B
:102FB000F6EE008AE6EE297ABFEE006AF4EEC77AF2
:102FC000F1EE10FAA8BF77EEC77AB7EE007AF4EE0A
:102FD000E87A43ED017AF1EE10FA54BFF0EE467A4A
:102FE000F0EE477A994276EEA76ADBD1B1EE086A35
:102FF000D4F8C4309FED3A7A83EA4333DFED395A8F
:10300000C6EE867A94ED339A83EA534394ED326A9E
:10301000D4ED29AA83EA431394ED345A79EE874A12
:10302000C4F8C430B1EE6A0AC7EE246A07EE103A5B
:10303000BAEEE07A80EE050AE7EE257A37EE899A55
:10304000C4ED327A39EE469A29EE269A84ED339A07
:103050001CF080FF94ED357A29EE009AE7EE288A7D
:10306000F0EE047AB0EE40AA7AEEA9AA29EE289AE8
:1030700029EE270A1CF0DCFD9FED1B7AF0EE407A6A
:10308000C4ED29AAB4EEC7AAF1EE10FA02D50023C6
:1030900084F8A030D4ED366A94ED2A7A67EEA67AE9
:1030A00067EE877AFFF712BBF0EE087A2BEE270A5D
:1030B0008AEE000A1CF04EFFF6EE006AB7EE007AC8
:1030C0006BEE807AABEEE67A67EEA67AE9EE077AE7
:1030D000B0EE679AFFF795BB88120224000000004B
:1030E0000403B237CDCC4C3E6F12833AF8B590F85A
:1030F00034302DED048B002B00F0688190ED098AAF
:10310000044690F83730B1EE489A002B40F0DE804C
:1031100090ED0B7A27EE087AD4ED0A7AF7EE006A82
:10312000237E77EE277AF4EEE67AF1EE10FAA8BF66
:1031300077EEE67AC4ED0A7A002B40F04C81B4EECB
:10314000E77AF0EE006ABFEE008AF1EE10FAA7EE21
:10315000A68A00F32E82B7EE006A76EE476AF4EE96
:10316000E76AF1EE10FA00F1CC8194F8367094ED34
:10317000030A002F00F0CE80DFEDE97A20EE270A67
:1031800089EE000A1CF0E6FED4ED0E7A94F8353094
:1031900060EE278AC4ED0E8A002B40F0CA809FEDB6
:1031A000E10A89EE000A1CF0D5FE94ED0F7ADFEDFE
:1031B000DE7A60EE079AF4EEE79AC4ED0F9AF1EE2C
:1031C00010FA00F10081D4ED007AD4ED026AD4ED5A
:1031D000013A94ED085ADFEDD54AB3EE047A94ED46
:1031E000046AB0EE454A66EEA46ADFEDD15AE6EE17
:1031F000A87AE6EE257AF4EEC77AF1EE10FA00F13D
:1032000067819FEDCC7A25EE077AF4EEC77AF1EE6E
:1032100010FA00F3E08137EEA77AF0EE637ADFED83
:10322000C66AE6EE267AF5EEC07AF1EE10FA00F103
:10323000BB81DFEDC26AF4EEE67AF1EE10FA00F33C
:10324000C581F1EE005AB7EE006AF5EE006A67EE4E
:10325000A57AF0EE465AE7EEA65A86EE250A87EEE4
:10326000049A9FEDB77AB4EEC79AF1EE10FA00F324
:103270009881BDEE006AB7EE007AA9EE067A29EED3
:10328000079A94ED177A04F13C050026A7EE678AA9
:1032900028EE000A1CF0CCFC1CF0CAFC95ED058A57
:1032A000F0EE408A0136B0EE480A04351CF0C0FC4E
:1032B000042E78EEC08AA8EE898A85ED008A85ED15
:1032C000048A00F0518195ED000AE5E790ED050ACA
:1032D00089EE000A1CF03EFE94ED0C7AD4ED0B6AE8
:1032E0009FED986AF7EE007A77EEC07A67EE877AFC
:1032F000E6EE807A77EEC76AF0EEE66AF4EEC66A2A
:10330000F1EE10FA40F1F880002384ED0B7A84F896
:103310003730FFE689EE000A1CF01CFED4ED0E7A71
:1033200094F8353060EE278AC4ED0E8A002B00F049
:10333000B380B7EE006AD4ED0F9ADFED834AD4ED87
:10334000007A36EE696AD4ED026A94ED085AB0EE5E
:10335000677AF0EE665AD4ED013AE6EE249AB0EEC2
:10336000454AC4ED0F9A002F7FF435AF9FED6F6A89
:10337000F3EE046ADFED797A65EE865AA8EEA57A57
:1033800077EE277AF4EEE67AF1EE10FA00F1A380F8
:103390009FED687A24EE077AF4EEC77AF1EE10FA20
:1033A00000F31C8137EEA77AB7EE006AF1EE007ADF
:1033B000F5EE006AF0EE465A63EEA77AE7EEA65AFB
:1033C00086EE250A4BE7002384F834309FED630A2C
:1033D000BDEC048BF8BDB6EE006AF4EEC67A77EE6B
:1033E000866AF1EE10FAB4EEE77A3DD4F1EE10FA07
:1033F00000F30E81F7EE005A35EEC76AB4EEE76AC5
:10340000F1EE10FA40F1078177EEE57A87EE876AF0
:10341000F0EE467AE6EE067A36EE278A38EE258A10
:1034200038EE658AF7EE007A76EEE76AB4EEE67A71
:10343000F1EE10FA2BDCB7EE006A76EE477AF4EE86
:10344000E76AF1EE10FA7FF790AE76EEC66AC6EE46
:10345000877AB0EE677AA7EEA77A77EE877A77EE6B
:10346000867A38EE678A80E6F1EE10FA00F3B980CA
:10347000B7EE008AF4EEC86AF1EE10FAD6DBB5EECC
:10348000C07AF1EE10FA7FF770AEDFED346A86EEA7
:10349000876AF0EE006A8EE09FED2C0A89EE000A42
:1034A0001CF058FD94ED0F7ADFED1F7A60EE079A5D
:1034B000F4EEE79AC4ED0F9AF1EE10FA83D494ED8E
:1034C000007AD4ED025AD4ED013A94ED084A4DE762
:1034D0009FED1F7AA1E6B7EE006A9FED1D7AF1EE2F
:1034E000007AF5EE006AF0EE465A63EEA77AE7EE50
:1034F000A65A86EE250AB2E6B0EE677AC4ED0B7ADC
:1035000008E677EEC67AC7EE876AF0EE667AE6EEF0
:10351000A67A76EEA76A76EE866A38EE668A24E6A2
:103520003333333F0AD7233C6F12833A00401C46A3
:103530000080BB456666E63E9A99993E3333733FF9
:10354000A4707D3FCDCCCC3DCDCC4C3D0AD7A33B28
:1035500000002042CDCCCC3EAFB63E3F0000000084
:103560003448033F33337340B7EE007AD4ED137A17
:103570002FB194ED046A5FED096AA6EE267A67EE34
:10358000A97AD4ED076AB7EE080A67EEA67ABDEC11
:10359000048B67EE877ABDE8F84027EE800A1CF0BE
:1035A00047BB1FED139A6CE6B7EE000A5FED157A84
:1035B00055E687EE876A66EE467AB7EE007AE6EE63
:1035C000267A77EEC77A38EE678ACEE51FED1C0AB9
:1035D0005FED1C7A43E637EE077A1EE637EE077A90
:1035E000E2E6B7EE005A87EE876AF0EE005AF7EE91
:1035F000007AF4EEE76AF1EE10FA26EE468AA6EEBD
:10360000258A38EE678A38EE058AFFF60FAF09E79C
:10361000BFEE005AE7E7F4EEE56ABFEE008AF1EE8E
:1036200010FAFFF6A2ADFDE62DE9F8430569044660
:10363000D0F8F030AB4202D1012380F84030D4F80A
:10364000F430AB4202D1012384F84130D4F8F83091
:10365000AB4202D1012384F84230D4F8FC30AB42B3
:1036600000F08982D4F80031AB4214D1B3EE0E7A67
:10367000D4ED007A0123B54AB54967EE877A6565CE
:10368000E16484F84430FCEEE77AA264226584F8B1
:103690005C30C4ED167AD4F80431AB4248D1D4ED95
:1036A000007A01229FEDAB7A0021AB4B67EE877A5F
:1036B00084F84520C4F89030C4F89830FCEEE77ADE
:1036C00084F8A420C4F8AC1084F8BC2017EE903A1B
:1036D000C4F8C41084F8D420C4F8D810C4F8E0109A
:1036E00084F8EC20994984F874209C4AC4F89C50D2
:1036F000C4F8B450C4ED287AC4ED2E7AC4ED1C7A17
:103700002166A166E5666266C4E93353C4E93953AC
:103710004FF07E53C4F8C030C4F8C830C4F8DC3071
:103720008F4BC4F8A830C4F8B0308E4BC4F8943036
:10373000D4F80831AB4200F00082D4F80C31AB422F
:1037400017D1B2EE047AD4ED007A4FF07E53012205
:10375000C4F8845067EE877AA367C4F880300023EA
:1037600084F84720FCEEE77A84F88C20E367C4ED08
:10377000227AD4F81031AB4240F2478194F84430B9
:1037800023B194F85C30002B40F0088294F8453067
:10379000C3B194F8A430002B40F0238394F8BC30DC
:1037A000002B40F0658394F8D430002B40F09483D4
:1037B00094F8EC30002B40F0C98394F87430002B5F
:1037C00040F08E8294F8473023B194F88C30002B6F
:1037D00040F02682E369AB4200F29280626994F87D
:1037E0004030D1B2002B00F0CB8011F0030640F046
:1037F000C780DFED5D7A94ED0D7AB4EEE77AF1EEF5
:1038000010FA09DD63683BB100205862986201201C
:1038100083F820005548D862DFED537A94ED0E7A94
:1038200094F84170B4EEE77A94F84200F1EE10FAA1
:1038300040F3C683A368002B00F07A844FF0000C9D
:10384000C3F824C0C3F828C04FF0010C83F820C08F
:10385000DFF818C1C3F82CC0002F40F09680002874
:1038600040F06C8494F8460038B301F00700042857
:1038700040F09982002B00F056840020186598656E
:10388000586598665866012083F84C003848D8651A
:10389000002E00F08B8201F00F0104290DD163B1DD
:1038A000012183F880100021C3F88410C3F894101C
:1038B000C3F890102F49C3F888100132636A62611F
:1038C000D20705EB030140F16281F6EE007A94ED38
:1038D0000B7A37EE677A07EE903AF8EE677A37EEB2
:1038E000077AB5EEC07AF1EE10FA48BF9FED227A62
:1038F00067EE877AFCEEE77A17EE903A0B44E361C5
:1039000094F843302BB9013594ED0F0A2561BDE8D9
:10391000F883236AAB42F6D8E768A6697FB106F060
:103920000F02164B03EB82019000C97811B1002100
:1039300087F8351013F82220002A40F07F83636A4D
:1039400001362B44A6612362DDE700BF0000484337
:1039500000803B45000020420000B44200007A4550
:10396000295C0F3F000011430AD7233C6666663F7F
:10397000CDCC4C3F9A99193F000000004812022418
:1039800094F8413094F8420083B101F00703042B0E
:103990000CD1636853B100261E655E659E659E6608
:1039A0005E66012683F84C60B74EDE65F8B101F023
:1039B00003006368022800F0D581C3B10020C3F87A
:1039C000A400C3F8AC00C3F8B000C3F8B400C3F857
:1039D000B800C3F8BC00C3F8C000C3F8CC00C3F8FB
:1039E000C800012083F8A000A848C3F8A80094F8F4
:1039F0004630002B3FF461AF01F0070301F00106F0
:103A0000042B40F0CC81A36834E7E26812B10023B4
:103A100082F835304FF07E519D480023E163A0626B
:103A2000616300219B4823622364E062636484F83D
:103A30005C302163A16384F8743084F88C3084F89E
:103A4000A43084F8BC3084F8D43084F8EC30C4E975
:103A50000433C4E906335AB18F4813768F4B90492B
:103A6000106093608F48904B11615060D161D360BA
:103A700063684BB18B4A84488C491A64874A586101
:103A8000C3F8D810C3F81C21A3680BB100225A61F7
:103A9000D4ED007AF2EE0E3A9FED857AB3EE094A44
:103AA0009FED843A002227EE877ADFED834A9FED6F
:103AB000835A67EEA33ADFED825A27EE844ABCEEC2
:103AC000C77A9FED806ADFED806A67EEA44A27EE31
:103AD000855A9FED7E0A17EE103A67EEA55A27EE3B
:103AE000866AC4F8F02067EEA66A012B67EE837A37
:103AF000FCEEE33A38BF0123BCEEC44AFCEEE44AD4
:103B00006362BCEEC55AC4ED3D3AFCEEE55A84ED65
:103B10003E4ABCEEC66AC4ED3F4AFCEEE66A84ED5E
:103B2000405AFCEEE77AC4ED415A84ED426AC4ED96
:103B3000436AC4ED447ABDE8F88300234FF48072F1
:103B40004FF07E51E3626363A4F84520E368604A66
:103B5000A163A2620BB15F4A1A60D4ED007A9FEDB7
:103B60005E7A67EE877AFCEEE77A17EE903A03B951
:103B700001236362E1E50122E36884F84320002B1E
:103B80003FF470AD4449474A19605A606AE594F8B9
:103B90004330E161002B3FF4B6AEBAE6636D9D425F
:103BA000C0F09082A26DD4ED137A002A00F0228238
:103BB00007EE102AEB1AF7EE005AF8EE476A07EE06
:103BC000103AB8EE477A87EE266AB4EEE56AF1EE6F
:103BD00010FA04DBB0EE656A002384F85C3094EDE3
:103BE000127A77EEC76AF0EE477AE6EE867AC4ED8F
:103BF000147AE368002B3FF4C9ADB3EE047AF4EE17
:103C0000C77AF1EE10FA00F116829FED347AF4EEE5
:103C1000477AF1EE10FA77FE277AC3ED007AB5E520
:103C2000D4F884309D42C0F07982D4F8882094ED95
:103C30001F7A002A00F0D98107EE902AEB1AF7EEDE
:103C4000005AF8EE676A07EE903AF8EE677A87EE68
:103C5000A66AB4EEE56AF1EE10FA04DBB0EE656A2E
:103C6000002384F88C30D4ED1E7A77EE676AE6EE96
:103C7000867AB0EE677AC4ED207AE36984ED0F7A34
:103C8000AB423FF63DAEA9E59A99593FCDCC0C3FEA
:103C90000000B442295C0F3F00004843CDCCCC3E2D
:103CA0009A99193F3333333FCDCC4C3E6666E63E9E
:103CB000ABAA2A3E000034430000204200007042BC
:103CC0000000B4420000024300002A43000000004C
:103CD0000000114300007A45B1DCD33D00409C4612
:103CE000E36E9D42C0F00782226FD4ED197A002A5C
:103CF00000F08A8107EE102AEB1AF7EE005AF8EE70
:103D0000476A07EE103AB8EE477A87EE266AB4EEB5
:103D1000E56AF1EE10FA04DBB0EE656A002384F880
:103D2000743094ED187A77EEC76AF0EE477AE6EED3
:103D3000867AC4ED1A7AE368002B3FF443ADB3EE04
:103D4000047AF4EEC77AF1EE10FA00F171811FEDFA
:103D50001D7AF4EE477AF1EE10FA77FE277AC3ED7A
:103D6000007A2FE5002B3FF442AE0020C3F8E800B4
:103D7000C3F8F000C3F8F400C3F8F800C3F8FC007F
:103D8000C3F80001C3F80401C3F81001C3F80C0123
:103D9000012083F8E400DA48C3F8EC0027E6002E9F
:103DA0007FF48BADA368002B3FF487AD4FF07C50C0
:103DB000C3F8A8000020C3F8A400C3F8AC00C3F8FF
:103DC000B000C3F8B400C3F8B800C3F8BC00C3F82F
:103DD000C000C3F8CC00C3F8C800012083F8A000DD
:103DE00059E5D4F89C309D42C0F07B81D4F8A020E6
:103DF00094ED257A002A00F0028107EE902AEB1A52
:103E0000F7EE005AF8EE676A07EE903AF8EE677A36
:103E100087EEA66AB4EEE56AF1EE10FA04DBB0EEC6
:103E2000656A002384F8A430D4ED247A77EE676ABB
:103E3000E6EE867AB0EE677AC4ED267ADFEDB15A07
:103E4000B5EE006AD4ED006AC5EE877A84ED0A7A91
:103E500067EE867A67EEA67AFCEEE77A17EE903A7E
:103E600003B90123636294F8BC30002B3FF49BAC90
:103E7000D4F8B4309D42C0F02A81D4F8B82094ED33
:103E80002B7A002A00F0C58007EE902AEB1AF7EE95
:103E9000005AF8EE676A07EE903AF8EE677A87EE16
:103EA000A66AB4EEE56AF1EE10FA04DBB0EE656ADC
:103EB000002384F8BC30D4ED2A7A77EE676AE6EE08
:103EC000867AB0EE677AC4ED2C7A94F8D43084ED1B
:103ED0000B7A002B3FF46CACD4F8CC309D42C0F090
:103EE000FB80D4F8D020D4ED317A002A00F09680FF
:103EF00007EE102AEB1AF7EE005AF8EE476A07EEC3
:103F0000103AB8EE477A87EE266AB4EEE56AF1EE2B
:103F100010FA04DBB0EE656A002384F8D43094ED27
:103F2000307A77EEC76AF0EE477AE6EE867AC4ED2D
:103F3000327A6368C4ED0D7A002B3FF439AC9FED03
:103F4000727A67EE877AC3ED057A31E4D4F8E4300B
:103F50009D42C0F0CB80D4F8E820D4ED377A002A17
:103F600061D007EE102AEB1AF7EE005AF8EE476A16
:103F700007EE103AB8EE477A87EE266AB4EEE56AA5
:103F8000F1EE10FA04DBB0EE656A002384F8EC3041
:103F900094ED367A77EEC76AF0EE477AE6EE867AE7
:103FA000C4ED387AA368C4ED0E7A002B3FF405AC5B
:103FB0009FED557A67EE877AC3ED057AFFF7FDBB73
:103FC000002F7FF4E2AC002840F0B88094F846302F
:103FD000002B3FF472AC01F00703042BA3683FF4FD
:103FE00049AC002B7FF4E2AE67E484ED207A84F8DC
:103FF0008C2042E6C4ED147A84F85C20F9E584ED67
:10400000267A84F8A42019E7C4ED1A7A84F874207B
:1040100091E684ED2C7A84F8BC2056E7C4ED327A20
:1040200084F8D42085E7C4ED387A84F8EC20B9E729
:10403000F0EE477A93E6F0EE477AEEE507EE902A47
:104040009FED327AF2EE080A0344F8EE677AB0EE9A
:10405000000A93F8018093F8029077EEC77AC7EED2
:10406000A00A1CF005F89FED2A7AF3EE047A20EE00
:10407000070AB4EEE70AF1EE10FA61D4DFED257A13
:10408000B4EE670AF1EE10FA37FE800A87ED0C0AEB
:1040900087F83680B9F1000F02D097F834302BB989
:1040A0004FF07E5387ED0B0ABB63002387F8373050
:1040B00040F20113BB86B8F1000F3FF440AC164B41
:1040C000BB633CE4D4ED127AC4ED147A91E594ED2F
:1040D0002A7A84ED2C7AF8E6D4ED307AC4ED327A7F
:1040E00027E794ED247A84ED267AA7E6D4ED367A94
:1040F000C4ED387A56E7D4ED187AC4ED1A7A1AE688
:104100009A99193F000070429A99593F00008A42DB
:104110000000DC4300409C459A99993F94ED1E7A3B
:1041200084ED207AA9E5002E3FF4C7ABFFF7B3BBBF
:10413000002F7FF42AAC00283FF4BFAB63683CE457
:10414000B0EE670AA2E700BF2DE9F04F2DED0C8B12
:104150008BB0002A01F01182894692469500D1E980
:10416000004004EB8203984203D242199442C1F00A
:10417000F3812A4600211CF00BFC2A460021204630
:104180001CF006FC0024DFEDD0BADFF8C8B3CF4F37
:10419000CDF810A09FEDCC9ACD4BF0EE499ACD4DC5
:1041A000B0EE49AA93F80080F0EE49AAF0EE498AF1
:1041B000B0EE49BACDE902492B78002B00F0E58238
:1041C00095ED017A6C78F0EEC77AC34B1B5DFCEE7F
:1041D000E76A16EE902A002B00F0B285B5EEC07AA1
:1041E000F1EE10FA00F14D86BC4951F824009042DE
:1041F00040F2BB85BA4906EE902A02F1010CB94E95
:1042000004FB01F1F8EE666A9FEDB76A60450A4467
:1042100077EEE67A36F9122008EE102AB8EEC88A50
:1042200028EE068A40F22986614436F9112006EE0E
:10423000902AF8EEE66A66EE866AAC4A76EEC86ABE
:10424000125DA6EEA78AD2B1A949AA4A32F8140093
:1042500031F81420013292B2904221F814200ED885
:10426000DFEDA57A0022B4EEE77A21F81420F1EE12
:1042700010FA40F3C88737EE677A85ED017A9F4AD6
:10428000D5ED027A115D002940F0B585A6009C4A63
:10429000125D002A40F0728595ED017A0BB1F1EEC6
:1042A000677A984B37EE277A1B5D85ED017A002BF4
:1042B00040F09D86944BDFED957A334493ED007A80
:1042C000B4EEE77AF1EE10FA2CD4F7EE007AF2EEC3
:1042D0000E5AB7EE086AF0EE676AE7EE256A28EE36
:1042E000268AB4EEC68AF1EE10FA11DCFFEE087AE7
:1042F000B4EEE78AF1EE10FA00F1818728EE086A41
:10430000F1EE0B5A26EE086AC6EE257A78EE677A49
:1043100087EEA68AF6EE006AF7EE007AE7EE267AD6
:1043200028EE278A7A4B1B5D0F2B0BD80120984073
:1043300007EE900AF8EEE77A28EE277AB8FE477A79
:1043400087EE278A002940F031845AB1714BDFEDA6
:104350006F7A334493ED007AB4EEE77AF1EE10FA17
:1043600000F338876C4B1B5D002B40F019866B4BBC
:10437000DFED667A3344D3ED000A694BF4EEE70AC9
:10438000185DF1EE10FA05D4B0EE480AFCF722FDF4
:10439000B0EE408A634B1B5D0F2B0BD801229A4075
:1043A00007EE902AF8EEE77A28EE277AB8FE477AE9
:1043B00087EE278A5C4B1B57002B40F0CA855B4B6E
:1043C0001B57002B40F07485594B1B57002B40F0B6
:1043D0009985584B1B5D002B5FD0574B4FF4165EF1
:1043E000DFF874C1FFEE007A334454495CF82420AE
:1043F00093ED007A42F27F535148BCEEC77A17EE34
:10440000109AB0EE487A994528BF994602EB0E0300
:10441000B9F1010F2CBFA3EB090303F1FF33A1FB9B
:104420000391890A0EFB11330EFB043300EB830367
:1044300093ED006A434B3344D3ED006AA6EE867ACF
:10444000B4EEE77AF1EE10FA00F14386F7EE007A67
:10445000B4EE677AF1EE10FA37FE877A3A4BF7EE50
:10446000006A36493344D3ED007A531C76EEE76A8E
:10447000A1FB03E167EE867A4FF4165E890A0EFB14
:104480000422E6EE887A0EFB113300EB82004CF832
:10449000243080ED007AB0EE678A2C4B1B5D002B38
:1044A00000F0D680DFF8B4E0F6EE006ADFF8B090F6
:1044B0004FEAC42C0EEB0602254959F8243092ED40
:1044C000007A03EBC4224DE000000000FC2F002026
:1044D000FF1D0020FC2C0020542B002074300020F5
:1044E0000077010034B01EC0000000384C2A0020C4
:1044F000EC2900201C2A00200000C842D4290020FA
:10450000DC270020DC2A00207C2A00200AD7233C5C
:10451000642A00208C26002000240020A0230020F4
:104520008823002070230020301E0020181E002049
:10453000001E002058230020F8220020B5814E1BC9
:10454000000003C09822002038220020C021002053
:10455000000000C09A150020D8210020E01F002094
:10456000801F0020B4EEE67A01EB820277EE077A34
:10457000F1EE10FA82ED008A03D4F0EE006A76EED6
:10458000E77ACF4AB5EE006ADFEDCE5A40F2FF7A05
:104590003244FFEE006A92ED005ACB4A67EE857A0C
:1045A000324467EEA57AD2ED005A67EE867AFCEEC9
:1045B000E77A17EE900AF0EE487A0230504594BF41
:1045C0001A1AA3EB0A02C2F30A02624401EB820246
:1045D00092ED006AE5EE867AF4EEE67AF1EE10FAF4
:1045E00000F1AA85F7EE006AF4EE667AF1EE10FAB1
:1045F00076FEA77A9C440133DFEDB45AF7EE006AE9
:10460000C3F30A0301EB8C0149F82430B04BC1ED30
:10461000007A334493ED005AAE4BC5EE257A33440D
:10462000D3ED005A77EE877AF4EEE67AF1EE10FADF
:1046300001DB77EEE67AB7EE007AB644CEED007A8B
:1046400077EE657A67EE887AE5EE867AB0EE678A6D
:10465000A14BF0EEC87A1B5D1BB3A04B9A1992EDEB
:10466000000AB4EEE70AF1EE10FA40F1EA8477EEC0
:10467000C06AB5EE007AA6EE870A334483ED000ADD
:10468000974B334493ED007AB4EEC07AF1EE10FA12
:1046900007D5DFED946AB4EEE60AF1EE10FA00F306
:1046A000E882B8F1000F1FD08F4B1B78A34200F0B7
:1046B00084858E4B1B88E340DB0715D58C4B9FED23
:1046C0008D7AD3ED007A8C4BD3ED006A67EEA67A33
:1046D000F4EEC77AF1EE10FA00F39985B7EE007A9E
:1046E00077EE677A28EE278A844B854A1B78125D1D
:1046F000002B00F03D83834B1B5D002B40F0388383
:104700009FED818A95ED037AD5ED047A28EE077A3C
:104710007E4A68EE277A7E4B3244F0EEC76A334415
:10472000B0EEE76AD3ED005AC6FE866A92ED006AE3
:10473000784AF4EEE65A3244F1EE10FA92ED003A7D
:10474000754A3244D2ED003A744A324492ED004A3E
:1047500001D5C3ED006AF7EE004AB6EE005A77EED7
:10476000276A74EEC65A36EE246A66EE856A65EEEE
:10477000855A26EE056AA3EE26AAE3EEA69AA4EED3
:10478000269AE7EE258AE7EE86AA1835BD427FF421
:1047900013ADDDE90249B8F1000F11D0564BD3ED4E
:1047A000007AB4EEE7BAF1EE10FA40F378865C4A8C
:1047B0003BEE67BA92ED007AEBEE077AC3ED007A32
:1047C0009BF80060002E40F0F085B7EE00BA554B24
:1047D0001D78E80700F1E0859FED4B8AA90700F1FD
:1047E0009C852A0700F161820EB128EE0B8A4E4BA0
:1047F00078EE888A3AEE888A1B78002B40F0FF8595
:104800004A4B1A780F2A11D80123934007EE903AA9
:10481000F8EEE77A68EEA76A28EE277AF8FE666A6D
:10482000C6EEA78AB8FE477A87EE278A404BDFEDAF
:10483000417AD3ED00AA404BF4EEE7AA1D78F1EEE1
:1048400010FA11D4F0EE6A0A2846B0EE680AFCF7B6
:10485000C1FAF0EE6A0AF0EE408A2846B0EE480A45
:10486000FCF7B8FAB0EE408A344B4BF67E321B6848
:10487000591E914212D832494BF68032B2FBF3F204
:104880000B68013393420B60C0F0018600230B607C
:104890002C4BC3ED008A2C4B83ED008A2B4B1B78ED
:1048A000002B00F096802A49F7EE006A294879EE3D
:1048B000A89A294A294D92ED007AD1ED005A4FE08D
:1048C0006021002000000045A020002000803B4720
:1048D0000021002040200020681F0020481E0020EA
:1048E000081F00206F12833AFE1D0020FC1D0020CF
:1048F00088010020AE47613FF81D002018240020E9
:10490000342400201C240020000000004C2400203F
:10491000382C00206C2500200C250020AC24002021
:10492000840100201C0100209C2B00204C11002041
:10493000982B00200AD7233C942B0020902B00209A
:10494000842B00208C2B0020882B0020AE2B0020F5
:1049500028D418C0F1197605AC11002000770100A9
:1049600076EEC76AD1E901C36344A0FB03E25E1C93
:10497000D20A05FB123201EB8202D2ED037AA0FBD0
:104980000623CD4ADB0A624401EB8C0C05FB136362
:1049900001EB830393ED036AC84B36EE676AE6EEDC
:1049A000257A27EE277AB0EE476AA6EE887AA6EE39
:1049B000A86AB0EE478A93ED007AA0FB0203E7EE07
:1049C000279ADB0AF0EE468A05FB13224A60CCEDFB
:1049D000039ABB4B1B78002B40F00185B94B9FED30
:1049E000BA7AD3ED007AF4EEC77AF1EE10FA00F35A
:1049F000E384B64B1B78002B40F0BB84B44B1B7890
:104A0000002B76D0B34DF6EE006AB34895ED007AF0
:104A10000368B4EEE67AB14A77EE077A4FEA830C80
:104A200002EB8301F1EE10FAC1ED008A03D4F0EE3F
:104A3000006A76EEE77AAA4940F6FF7EDFEDA96AC2
:104A4000BFEE006AD1ED005AA74967EEA57AD1ED15
:104A5000005A67EEA67AFCEEE77A17EE906AF0EE5F
:104A6000687A0436764594BF991BA3EB0E01C1F317
:104A70000B0102EB8101D1ED006AE5EEA67AF4EEBE
:104A8000C67AF1EE10FA00F1FE84B7EE006AF4EE99
:104A9000467AF1EE10FA76FE277A01336244DFEDB2
:104AA000935AB7EE006AC3F30B03C2ED007A0360BA
:104AB0008F4B93ED005A8F4BC5EE257A77EE877AB0
:104AC00093ED007AF4EEC67AF1EE10FA01DB77EEA0
:104AD000C67AC5ED007AF7EE007A77EEC77A67EE10
:104AE000A88A67EE887AE7EE268AE7EE267AB0EEA5
:104AF000678A814B1B78002B40F030847F4B1B78FA
:104B0000002B40F011840023069307937C4B1B7805
:104B1000002B40F0D9837B4B1B78002B00F08B835C
:104B2000BFEE007AF7EE007AF4EEC78AF1EE10FAE3
:104B300000F1C484F4EEE78AF1EE10FA00F3C284C7
:104B4000F0EEE87AFFEE006AB7EE007AB4EEE68A9D
:104B5000F1EE10FA00F1AE84B4EEC78AF1EE10FA6D
:104B600040F37783B0EE478AD9F80030C7FE877AE2
:104B7000F4EE6B7A03EB8403C3ED008AF1EE10FAD6
:104B8000D9F8043003EB840304F1010477FEABBAD7
:104B900083ED008A049BA3427FF4FCAA5A4BC3ED29
:104BA00000BA0BB0BDEC0C8BBDE8F08F574BB3EEE9
:104BB000047A3344D3ED007AF4EEC77AF1EE10FABA
:104BC00000F1FF829FED527AF4EEC77AF1EE10FA0F
:104BD00040F347839FED4F7ADFED4F7A9FED4F5AB9
:104BE0009FED4F6A4F4BC4EBC401DFED4F4A03EB1F
:104BF0008103D3ED056AC3ED037AE8EE066A83ED1F
:104C0000047AD3ED065A83ED006A83ED015A83EDF1
:104C1000026A67EEE67A27EE667AE8EE057AA8EE93
:104C2000067A75EEA77A83ED067AC3ED057A3F4BD7
:104C30003344D3ED007AF4EEE47AF1EE10FA14DDA9
:104C40003B499FED3C7A0B6867EE877A83EA4333F2
:104C500083EA5343FCEEE77A83EA431317EE90CAE4
:104C6000D8B26045C0F0D7820B60B0EE668AFFF71D
:104C70006CBB314BF7EE007A87EE000A334493EDBC
:104C8000007AC7EE870A77EEE00A1BF0F1F9F4EE3E
:104C9000007AB4EE670AF1EE10FA48BFB0EE670A88
:104CA00028EE008AF0EEC87AFBE42448FEF71EFAEC
:104CB00038EE008A98E500BFFF760100B0110020B1
:104CC000AA2B002090110020AE47813FA92B002085
:104CD000A82B0020A42B0020A02B0020001011C026
:104CE0009C110020000048439811002000803B47A1
:104CF000A011002094110020AB2B0020AC2B002031
:104D0000AD2B00209D2B0020342C0020B428002047
:104D100000C0A846B72C243F10CEC73F36F2CC3F88
:104D200036F24C3F0C0C00200AD7233C54280020BC
:104D30000400002000008042A81E00202001002066
:104D4000E64951F8240090423FF654AAE44A125D25
:104D5000002A00F073811A469FEDE27A9042F0EE4D
:104D6000477A85ED017A3FF645AA00232B700CE5C2
:104D7000002ADFEDDC7A08FE278AC3E4DA48DFF890
:104D8000B0C3005D1CF904C0002800F06281D74860
:104D9000F6EE005ADFEDD66AB7EE006A304490EDC9
:104DA000005AD44885EE267A3044D0ED006AF4EEFD
:104DB000E56AF1EE10FA54BF4FF0010C4FF0000C11
:104DC00037EE267AB4EEC67A80ED007AF1EE10FA6C
:104DD000C0F2B68137EE467A80ED007ABCF1000F62
:104DE00040F0B281C4484FF0000C95ED017A40F8D4
:104DF00024C0FFF753BAC148B6EE006AA60000EB24
:104E00008402D2ED006AF4EEC66A36EEA67AF1EEBE
:104E100010FA03D4B0EE006A36EE477AB84AB6EE1E
:104E2000006ADFEDB34AF7EE005A3244B5EE005A9D
:104E300037EE466A92ED004AB24A84EE247A324452
:104E4000D2ED004A37EE267AF0EE656AE6EE246A85
:104E500067EEA67AF4EE457AF1EE10FAB4EEE57A52
:104E600048BFF0EE457AF1EE10FA01DB37EE657AD5
:104E7000304480ED007AFFF70ABADFED9A6AFFF757
:104E8000DCB9974A125D002A00F0D880934A52F8A4
:104E90002400421E07EE102AB8EE477AFCEEC76ADD
:104EA00085ED017AF0EE477A16EE902AFFF79FB96A
:104EB000954BC4EBC40203EB8203D3ED056AD3ED3B
:104EC000007A93ED037AE8EE276A93ED015AD3ED69
:104ED000047AD3ED025A93ED066A27EE667A67EEFE
:104EE000E67AA8EE057AE8EE257AB0EE668A36EE26
:104EF000077AC3ED067A83ED057A844B1B57002BA6
:104F00003FF467AA824BC4EBC40203EB8203D3EDE8
:104F1000056AD3ED007A93ED037AE8EE276A93ED04
:104F2000015AD3ED047AD3ED025A93ED066A27EEC7
:104F3000667A67EEE67AA8EE057AE8EE257AB0EEB4
:104F4000668A36EE077AC3ED067A83ED057AFFF7B7
:104F500040BA704BC4EBC40203EB8203D3ED056A85
:104F6000D3ED007A93ED037AE8EE276A93ED015AC8
:104F7000D3ED047AD3ED025A93ED066A27EE667AF2
:104F800067EEE67AA8EE057AE8EE257AB0EE668A54
:104F900036EE077AC3ED067A83ED057AFFF70FBA8E
:104FA0005D4BC4EBC40203EB8203D3ED056AD3ED82
:104FB000007A93ED037AE8EE276A93ED015AD3ED78
:104FC000047AD3ED025A93ED066A27EE667A67EE0D
:104FD000E67AA8EE057AE8EE257AB0EE668A36EE35
:104FE000077AC3ED067A83ED057AFFF7C0B94B4B1C
:104FF000C4EBC40003EB8003D3ED056AD3ED007A64
:1050000093ED037AE8EE276A93ED015AD3ED047A23
:10501000D3ED025A93ED066A27EE667A67EEE67ADA
:10502000A8EE057AE8EE257AB0EE668A36EE077AC3
:10503000C3ED067A83ED057AFFF73CB92A70FFF7D6
:10504000A4BB70EE676A9FED367AA6EEC70AFFF73B
:1050500014BBBCF1010F77D0BCF1020F7FF4C2AEDC
:105060003048DFF894C030F81400DFF8C8E007EEED
:10507000100A5CF82400DFED1E6AB8EEC77A0EFB5A
:1050800000FE9FED296ABEF1553F27EE267AC7EE56
:10509000066A95ED017A0CD8B5EEC07AF1EE10FAF9
:1050A00007DDB7EE006A37EE466AB0EE467A85ED68
:1050B000016AFCEEE66A01309FED1C6A16EE90EA8A
:1050C00067EE867A704588BF00204CF82400FFF711
:1050D000E5B8B0EE677AFFF7C1B900BF74300020C1
:1050E0006C2B002000000000C4270020EC260020CC
:1050F00000803B472C260020CC250020F4270020F0
:1051000074290020142900202C040020001E0020F7
:105110008C010020CC0600206C090020AC0E002081
:105120008FC2F53C4C27002000007A443333333FD4
:10513000AC270020ABAAAAAAF0EE667AFFF75ABA0B
:10514000BCF1000F3FF44EAEE048DFEDE16A30F80D
:1051500014009FEDE06A07EE100ADFF8F4C3DFEDFC
:10516000DE5AB8EEC77A5CF8240027EE267AC7EE3E
:10517000066A07EE100AB8EE476A86EE267AB4EEA3
:10518000E57AF1EE10FA08D4F7EE006AB4EEE67AAA
:10519000F1EE10FA60DD67EEA57ADFEDD06A01303E
:1051A00095ED017AF4EE667A4CF82400F1EE10FAEF
:1051B00048BFF0EE667AFFF771B88BFE27BAFFF7AB
:1051C00093BA9FEDC77ADFEDC77A9FEDC75A9FED7F
:1051D000C76A07E5C64ADFEDC76A136883EA433347
:1051E00083EA534383EA431307EE903A1360FAEEDF
:1051F000E07A67EE877AA7EEA68AFFF7B3B8FFEEEC
:10520000007AFFF785B800226A60FFF738B8DFED53
:10521000BA7AFFF767BA83EA43339FEDB87A83EA35
:10522000534383EA431307EE903A0B60FAEEE07AB9
:10523000E7EE876A19E5B0EE680A1AF0F9FCF0EEBD
:10524000408AB0EE480A1AF0F3FCB0EE408AF0EE65
:10525000E87AB0EEC87A87E476EEC76A67EEA67A97
:105260009BE7DFEDA76AF7EE00CA9FED997A67EE3C
:10527000A67A059287EE87CAB0EE4C0A1BF084F836
:10528000B0EE407ADFED9F7AB0EE4C0A87EE27CA87
:105290007CEE2C7A8CEEA7DA1BF03AF9059A3CEEFC
:1052A000C05AF6EE006AF8EE007A3CEECC7A65EE73
:1052B000266A60EE277A27EE0D7A2DEE055A67EE04
:1052C0008D7A26EE8D6A8DE47AEE287A07AB3AEE77
:1052D00008AA09AA009308A906AB8B48CDED087A65
:1052E0008DED09AA05F020FA884BB7EE007ADDEDC6
:1052F000066AD3ED007A9DED076A37EE677A67EEAE
:10530000A66A67EE867AE7EE286AE7EE087AF0EE9C
:10531000668AB0EE678AFFF7FEBB7D48FDF71EF98F
:1053200038EE008AFFF75DBA39EE280A794819F09D
:10533000ADFE794BB7EE007AD3ED007A37EE677A9F
:1053400067EE807AF0EE676AE7EE087AE7EE286AA1
:10535000B0EE678AF0EE668AFFF7D5BBB7EE000ABB
:105360006E481AF043FA68EE808A28EE008AFFF74A
:10537000C5BBB0EE680A6A481AF0BCF8DFED697A7E
:105380009FED697AF0EE408A60EE277AE8EE077AC0
:10539000B0EE678AFFF732BB6448FCF705F8DFED33
:1053A0004E7A30EE278AFFF719BA6148FEF73CF9CA
:1053B000B0EE40BAFFF70BBA5E4DB0EE680A284671
:1053C000C5ED007A05F050F82846F0EE408AB0EEC0
:1053D000480A05F049F8B0EE408AFFF70ABBB0EE84
:1053E000680A554804F0BCFF5348F0EE408AB0EE1E
:1053F000480A04F0B5FFB0EE408AFFF7EFBA4F4B12
:10540000D3ED056AD3ED007A93ED037AE8EEA76A4F
:1054100093ED015AD3ED047AD3ED025A93ED066A67
:1054200027EE667A67EEE67AA8EE857AE8EEA57A48
:10543000F0EE668A36EE077AC3ED067A83ED057ADA
:105440003F4BD3ED056AD3ED007A93ED037AE8EE96
:10545000276A93ED015AD3ED047AD3ED025A93ED06
:10546000066A27EE667A67EEE67AA8EE057AE8EE37
:10547000257AB0EE668A36EE077AC3ED067A83EDBA
:10548000057AFFF7BDB9F0EE467AFFF706BB2D4B64
:10549000D3ED008A2C4B93ED008AFFF7FFB92B4A1E
:1054A00037EECBBA92ED007AEBEE477AC3ED007A95
:1054B000FFF786B9B0EE668AFFF756BBF0EE478A73
:1054C000FFF740BBF0EE678AFFF73CBB7C2700206C
:1054D00000803B4700007A44000000000AD7233CCC
:1054E000C50D7F3FAA86FFBF229463362294E33521
:1054F00004000020CDCCCC3D90C2F53DCDCC4C3D40
:10550000DB0FC940F4FDB43FE4C812C0A81100206D
:1055100080170020887D12C0A4110020002C0020DC
:10552000005011C09A99993E3333333FD41900206B
:1055300008000020B02B0020C02B00207411002098
:10554000581100208C2B0020882B00208001002087
:10555000CC25002000000000002340F8043B9042CE
:1055600044F8043B3EF40EAE002340F8043B904266
:1055700044F8043BF0D1FEF705BE5FED0ABAFFF731
:105580000DBB00BFB3EE047ADFEDCD7ADFEDCD6A5F
:1055900061EE277AB4EE470A38B5F1EE10FA0D46FF
:1055A000044648BFB0EE470A9FEDC77A2DED048B45
:1055B000F4EEC07AF0EE619AF1EE10FAF4EEE60A3B
:1055C00058BFF0EE407AF1EE10FA67EE877A54BFDA
:1055D00030EEA08A9FEDBD8AC7EE818AB0EE680AE0
:1055E0001AF0D2FEB0EE409AB0EE680A1AF090FFC0
:1055F000691EC9EE088AB0EE408A072900F255817B
:10560000DFE811F055007C009100B2005301CF009B
:1056100002010800DFEDAE0AB2EE040AC9EEA00AEC
:105620001AF026FDF1EEC05AB7EE004AB8EE007A45
:1056300030EE045A70EE447A60EE076AB0EE456AC6
:10564000F0EE674AB0EE457AA7EEC86AE5EE084A82
:1056500075EEA55AA7EE887AE5EE487AA5EEA86A17
:1056600066EEA46AB0EE475AA5EEE87A77EEA77A1E
:10567000C4EE064AA5EEA85A27EE007ABDEC048BCC
:1056800065EE005A66EEA46A65EEA45A27EE247A07
:1056900067EEA47AC4ED016A26EE246AC4ED005ACE
:1056A00084ED027AC4ED037A84ED046A38BDF7EE26
:1056B000005AF6EE007AB8EE007A38EEA55A75EE8A
:1056C000C06A20EE077A85EE856A66EEA77A75EEE7
:1056D000E88A66EE866A68EE868AC4ED016A67EE3D
:1056E000867A27EE067AC4ED048AC4ED007AC4ED0A
:1056F000027A84ED037ABDEC048B38BDF7EE005AD4
:10570000F6EE007AB8EE007A38EEA55A70EE256A09
:1057100020EE077A85EE856A66EEA77A75EEE88A4E
:1057200066EEC66AD7E7B7EE006A0023F8EE007AA5
:10573000636078EE865A36EE687A60EE277AC6EEB7
:10574000256A68EEA68A67EEA67A27EE267AF1EE3B
:10575000686AC4ED008AC4ED037A84ED047AC4ED6E
:10576000026ABDEC048B38BDF7EE006AF8EE007AF1
:1057700038EEA66A76EEE88A60EE277A86EE867ABA
:1057800068EE878A84ED007A67EE877A84ED027A84
:10579000C4ED048AC4ED017AC4ED037ABDEC048B38
:1057A00038BDDFED4B0AB2EE040AC9EEA00A1AF0CA
:1057B0005FFCC8EE807AF7EE006AB8EE007AB0EED1
:1057C000665AF0EE665A28EE077AA8EE805AE8EE9E
:1057D000C05ABDEC048B77EEA64A76EEE77A86EEE9
:1057E000A46A27EE067A25EE065A65EE866A67EE0B
:1057F000867A84ED017A84ED005AC4ED026A84ED64
:10580000037AC4ED047A38BDDFED310AB2EE040A42
:10581000C9EEA00A1AF02CFCF1EEC06AB7EE004AFD
:1058200070EE005AF8EE004A30EE045A70EE447AF8
:10583000B0EE456AF0EE673AB0EE457AA7EE886AB8
:10584000E5EE483A76EEA66AA7EEC87AE5EE087A63
:1058500065EEA35AF0EE463AB0EE475A67EEA47AE8
:10586000E6EEA83AA6EEA85AA6EEE87AA6EEE86A10
:10587000BDEC048BC4EE234A25EE005A27EE007AD5
:1058800025EE245A65EEA46A27EE247A67EEA47A00
:1058900084ED005A26EE246AC4ED016A84ED027A92
:1058A000C4ED037A84ED046A38BD00234FF07E52C4
:1058B000BDEC048B2361E3602260A360636038BDAC
:1058C0006666E63E9A99993EDB0FC9409A99193F60
:1058D000000020422DE9F04F084C094D23686E88E6
:1058E00001332DED028BADF27C4D23600CF018FCE2
:1058F000044B18606B78013B06E000BFCC1C002015
:1059000000030030C41C0020F02B00F22181DFE8EE
:1059100013F0AB0D7F0DD80DEB0C0C0D1F011F010B
:105920001F011F011F011F011F011F011F011F0177
:105930001F011F011F01F50C1F011F011F011F0186
:105940001F011F011F011F011F011F011F011F0157
:10595000250DB10C770C3B0C330C2B0C230C1F01C9
:105960001F011F011F011F011F011F011F011F0137
:10597000180CF60BE50BD40BC90BB40B9F0B8A0B61
:105980007F0B600B4F0B3E0B2D0B220B000BE50A20
:10599000B20A970A4D0A550F440F370F260F1B0FF7
:1059A000060FF10EE00ED50EC00EAB0E9A0E8F0E46
:1059B000530E0D0EED0D3111D8108310451033101C
:1059C0008E0F770F600F89117111621143111F0142
:1059D0001F011F011F011D12D711E7091F011F0120
:1059E0001F011F011F011F011F011F011F011F01B7
:1059F000AB09970940098509A9087609DC08D5078C
:105A00006D071007E5061F011F011F011F011F0180
:105A10001F011F011F011F011F011F011F011F0186
:105A20001F011F011F011F011F011F011F011F0176
:105A30009D0695061F011F011F011F011F011F0168
:105A40001F011F011F011F011F011F011F011F0156
:105A5000820663065106420660091F011F011F01ED
:105A60001F011F011F011F011F011F011F011F0136
:105A70002C09CA08B808F8080C08F007F100240639
:105A800005061F011F011F011F011F011F011F012B
:105A9000D905B3056B05650535052D051F011F01EA
:105AA0001F011F011F011F011F011F011F011F01F6
:105AB0001F011F011F011F011F011F011F011F01E6
:105AC0001F011F011F011F011F011F011F011F01D6
:105AD0009904810422056D0414041F011F011F0194
