:020000042400D6
:1000000000000220410A0024350A0024213602247F
:10001000350A0024350A0024350A002400000000B7
:10002000000000000000000000000000350A00246D
:10003000350A002400000000350A0024A5350224FA
:10004000350A0024350A0024350A0024350A002424
:10005000350A0024350A0024350A0024350A002414
:10006000350A0024350A0024350A00242D1E0224F6
:10007000391E0224350A0024451E0224511E022482
:1000800045F60224350E0224350A0024350A0024E0
:10009000350A0024350A0024350A0024350A0024D4
:1000A000350A0024350A0024350A0024350A0024C4
:1000B000C5E70224D1E70224DDE70224690E022409
:1000C000350A0024750E0224350A0024DD2E022490
:1000D000E92E022455F4022485F40224BDF40224FE
:1000E000350A0024350A002400000000350A0024E7
:1000F000350A0024350A0024350A0024350A002474
:10010000350A00245D120324E9E70224F52E0224B7
:10011000F5F402242DF5022465970124350A002404
:10012000350A0024350A0024192F02244D2F0224F9
:1001300079F60224350A0024350A0024350A002401
:1001400000000000000000000000000000000000AF
:10015000350A0024350A0024350A002465F50224F6
:10016000810E0224350A0024B5350224D935022433
:10017000350A0024FD350224350A0024350A0024FE
:10018000350A0024350A00249DF50224D5F5022401
:10019000012F02240D2F0224350A0024350A0024E1
:1001A000350A0024350A0024350A0024350A0024C3
:1001B0006D1A0224350A0024350A0024350A002469
:1001C000350A0024350A00241907022425070224D1
:1001D000350A002431070224350A0024350A002498
:1001E000350A0024350A0024350A0024350A002483
:1001F000350A0024350A0024350A0024350A002473
:10020000350A0024350A0024350A0024350A002462
:10021000350A0024350A0024350A0024350A002452
:10022000350A0024350A0024350A002400000000A5
:10023000350A0024350A002400000000350A002495
:10024000350A0024350A0024350A0024350A002422
:10025000350A0024350A0024350A0024350A002412
:10026000350A0024350A0024350A0024350A002402
:10027000350A0024350A00240DF60224000000008F
:10028000350A0024350A0024350A00240000000045
:0802900000000000350A002403
:1002A00010B5054C237833B9044B13B10448AFF3B0
:1002B00000800123237010BD381E002000000000C4
:1002C000946B032408B5034B1BB103490348AFF3F8
:1002D000008008BD000000003C1E0020946B032439
:1002E000034613F8012B002AFBD1181A0138704776
:1002F00001F0FF01102A2BDB10F0070F08D010F8D7
:10030000013B013A8B422DD010F0070F42B3F6D1DA
:10031000F0B441EA012141EA014122F007047FF0F3
:1003200000070023F0E80256083C85EA010586EA4A
:10033000010685FA47F5A3FA87F586FA47F6A5FA86
:1003400087F68EB9EED1F0BC01F0FF0102F0070292
:1003500032B110F8013B013A83EA010313B1F8D13D
:100360000020704701387047002D06BF354603381E
:10037000073815F0010F07D1013015F4807F02BF57
:10038000013015F4C03F0130F0BC0138704700BFA8
:1003900081F0004102E000BF83F0004330B54FEA36
:1003A00041044FEA430594EA050F08BF90EA020FA3
:1003B0001FBF54EA000C55EA020C7FEA645C7FEA36
:1003C000655C00F0E2804FEA5454D4EB5555B8BF59
:1003D0006D420CDD2C4480EA020281EA030382EACA
:1003E000000083EA010180EA020281EA0303362D5C
:1003F00088BF30BD11F0004F4FEA01314FF4801C2F
:100400004CEA113102D0404261EB410113F0004F40
:100410004FEA03334CEA133302D0524263EB4303F7
:1004200094EA050F00F0A780A4F10104D5F1200E95
:100430000DDB02FA0EFC22FA05F2801841F10001F0
:1004400003FA0EF2801843FA05F359410EE0A5F1C4
:1004500020050EF1200E012A03FA0EFC28BF4CF0F5
:10046000020C43FA05F3C01851EBE37101F00045AB
:1004700007D54FF0000EDCF1000C7EEB00006EEBB8
:100480000101B1F5801F1BD3B1F5001F0CD3490842
:100490005FEA30004FEA3C0C04F101044FEA445299
:1004A00012F5800F80F09A80BCF1004F08BF5FEA20
:1004B000500C50F1000041EB045141EA050130BD00
:1004C0005FEA4C0C404141EB0101013C28BFB1F512
:1004D000801FE9D291F0000F04BF01460020B1FA5D
:1004E00081F308BF2033A3F10B03B3F120020CDA30
:1004F0000C3208DD02F1140CC2F10C0201FA0CF00E
:1005000021FA02F10CE002F11402D8BFC2F1200C72
:1005100001FA02F120FA0CFCDCBF41EA0C01904028
:10052000E41AA2BF01EB0451294330BD6FEA040471
:100530001F3C1CDA0C340EDC04F11404C4F120025C
:1005400020FA04F001FA02F340EA030021FA04F36E
:1005500045EA030130BDC4F10C04C4F1200220FAC5
:1005600002F001FA04F340EA0300294630BD21FA03
:1005700004F0294630BD94F0000F83F4801306BFC9
:1005800081F480110134013D4EE77FEA645C18BFBD
:100590007FEA655C29D094EA050F08BF90EA020F54
:1005A00005D054EA000C04BF1946104630BD91EA4C
:1005B000030F1EBF0021002030BD5FEA545C05D14F
:1005C0004000494128BF41F0004130BD14F580048E
:1005D0003CBF01F5801130BD01F0004545F0FE4102
:1005E00041F470014FF0000030BD7FEA645C1ABF37
:1005F000194610467FEA655C1CBF0B46024650EA6E
:10060000013406BF52EA033591EA030F41F4002199
:1006100030BD00BF90F0000F04BF0021704730B51F
:100620004FF4806404F132044FF000054FF00001F4
:1006300050E700BF90F0000F04BF0021704730B5B5
:100640004FF4806404F1320410F0004548BF40428A
:100650004FF000013EE700BF42004FEAE2014FEADF
:1006600031014FEA02701FBF12F07F4393F07F4FBA
:1006700081F06051704732F07F4208BF704793F0BD
:100680007F4F04BF41F40021704730B54FF46074D0
:1006900001F0004521F000411CE700BF50EA0102D3
:1006A00008BF704730B54FF000050AE050EA01027C
:1006B00008BF704730B511F0004502D5404261EBEC
:1006C00041014FF4806404F132045FEA915C3FF42D
:1006D000D8AE4FF003025FEADC0C18BF03325FEACA
:1006E000DC0C18BF033202EBDC02C2F1200300FA7B
:1006F00003FC20FA02F001FA03FE40EA0E0021FAA0
:1007000002F11444BDE600BF53B94AB9002908BF3D
:1007100000281CBF4FF0FF314FF0FF3000F088B9C8
:10072000ADF1080C6DE904CE00F006F8DDF804E048
:10073000DDE9022304B070472DE9F047089D8E469D
:1007400004468846002B4AD18A42174662D9B2FA3B
:1007500082F64EB1C6F1200301FA06F820FA03F33F
:10076000B74043EA0808B4404FEA174E1FFA87FC27
:10077000B8FBFEF1230C0EFB118843EA084301FB92
:100780000CF29A4209D9FB1801F1FF3080F0EA809F
:100790009A4240F2E78002393B449A1AA3B2B2FB74
:1007A000FEF00EFB102243EA024300FB0CFC9C45CA
:1007B00009D9FB1800F1FF3280F0D6809C4540F249
:1007C000D3803B44023840EA0140A3EB0C030021F4
:1007D0001DB1F3400022C5E90032BDE8F0878B422D
:1007E00005D90DB1C5E9000100210846F5E7B3FAC6
:1007F00083F1002946D1734502D3824200F205817C
:10080000841A6EEB030201209046002DE5D0C5E965
:100810000048E2E7002A00F09080B2FA82F6002E4B
:1008200040F0A4808A1A030C4FEA174E80B2BCB283
:100830000121B2FBFEFC0EFB1C2243EA024304FB37
:100840000CF29A4207D9FB180CF1FF3802D29A42F7
:1008500000F2E080C4469B1AB3FBFEF20EFB12339B
:1008600040EA034302FB04F49C4207D9FB1802F15F
:10087000FF3002D29C4200F2CA8002461B1B42EAB1
:100880000C40A5E7C1F120068B4022FA06F71F4372
:100890000EFA01F420FA06F32EFA06FE4FEA174983
:1008A000234300FA01F81FFA87FCBEFBF9F01C0C89
:1008B00009FB10EE44EA0E4400FB0CFEA64502FACA
:1008C00001F209D93C1900F1FF3A80F09C80A6455D
:1008D00040F2998002383C44A4EB0E041FFA83FED8
:1008E000B4FBF9F309FB13444EEA044403FB0CFC8C
:1008F000A44508D93C1903F1FF3E80F08280A4454D
:100900007FD9023B3C4443EA0040A4EB0C04A0FB2B
:1009100002EC64457346E14662D35FD05DB1B8EB4B
:10092000030264EB090404FA06F622FA01F31E43FB
:10093000CC40C5E9006400214FE7B1FBF2FC010C9B
:1009400041EA0E4180B240EA01423B4638463C460D
:10095000B846BE462026B1FBF7F1A2EB080241EAF9
:100960000C4166E7014618E710462CE7C6F1200265
:100970002EFA02F3B740B14020FA02F24FEA174EC6
:100980000A43B3FBFEF8BCB20EFB1833110C41EA6C
:10099000034108FB04F9B04089454FEA104380B297
:1009A0003ED9791808F1FF3C01D289451FD8A1EB47
:1009B0000901B1FBFEF909FB04F80EFB191192B213
:1009C00042EA0142424529D2BA1809F1FF31C4D2A4
:1009D0004245C2D2A9F102013A44BEE7F0459DD298
:1009E000BEEB02036CEB070C0138E14696E7A7EB80
:1009F00009094944A8F1020CB1FBFEF909FB04F80E
:100A0000DBE773467FE7504666E70846FDE63B4472
:100A1000023A33E7ACF1020C3B441CE749469CE741
:100A2000A1EB0901C446B1FBFEF909FB04F8C4E7D8
:100A3000704700BF684620F007018D46FEE700BF03
:100A40000A480B4A904208B503D0121A094933F0FC
:100A500066FB0948094A904203D0121A002133F07C
:100A6000A3FA33F035FB18F08BFEFEE70000002000
:100A7000381E0020D06B0324381E00208C35012046
:100A8000704700BF704700BF704700BF704700BF8E
:100A9000704700BF704700BF704700BF704700BF7E
:100AA000024B1878B0FA80F040097047B83900203E
:100AB000002322480122224910B403704FF07E54D3
:100AC00020480B70002103701F4803701F480370FB
:100AD0001F4803701F4803701F4804601F48204CC4
:100AE00002702048237002701F4C20482270027050
:100AF0001F4C2048227002701F4C20482270027048
:100B00001F4C2048227002701F4C204A204823703E
:100B10001060204C2048214A0460102420481470A2
:100B2000204A01601370204A204C11602048214A5D
:100B30002360016013605DF8044B7047A64D0020F0
:100B4000A54D0020A44D0020A34D0020A24D002063
:100B5000A14D0020A04D0020F417002024180020F3
:100B6000954D002010180020181800200A180020A9
:100B70000B1800200818002009180020F01700208A
:100B8000F11700207C170020944D002078170020DA
:100B900000401C46F4FD343F7417002070170020FD
:100BA000904D00208C4D0020844D0020884D002069
:100BB000804D00207C4D0020074B03F5C06113F8E9
:100BC000012C2AB11A78824202D1002203F8012CAA
:100BD00030339942F3D17047C14F0020704700BFB6
:100BE0002DE9F04317282DED048B83B0CDE90013D8
:100BF00000F2E980B64B05461B5C002B00F0E38059
:100C0000B44B1B5C03F0FF04002B40F0DC80B248C7
:100C10000646034603E00134202C00F0F2801978E8
:100C200030330029F7D1AD4B53F825100E9B002B24
:100C300000F0D180994240F2CE80DDED007A04EBE5
:100C400044039FEDA77A962AF8EEE77A06EB0313A2
:100C50000E984FEA440887EE878AD86200F2B8807F
:100C600007EE902ADFED9F6AF8EE677A87EEA67AA4
:100C70009D4B4FEA850903EB8503B5EEC00AD3ED22
:100C8000007A28EE078AF1EE10FA28EE278A00F1A2
:100C9000B580F7EE087AB4EE670AF1EE10FA37FE87
:100CA000800ADDED017AFFEE006A9FED8E6A28EE84
:100CB000008AB8EEE77A8D4B4B44C7EE067A93ED87
:100CC000007A77EE877AF4EEE67AF1EE10FA40F1E8
:100CD0008780DFED878AF0EE489A68EE288A08EB75
:100CE0000403844A1801525D06EB03135D7001236F
:100CF0003354002A71D0013907EE901AF8EE677A62
:100D00007D4B08EB0407DFED7D0AB0EE000A33F9F6
:100D1000153006EB071707EE103A794BC7ED017A4D
:100D2000B8EEC77A4B4493ED009AC7EE200A31F033
:100D3000ABFD744B87ED058A5B5DC7ED039A29EE29
:100D4000009AC7ED048A87ED029A3BB36E4B4B4481
:100D5000D3ED007AF5EEC07AF1EE10FA65D49FED8E
:100D60006B7AF4EEC77AF1EE10FA00F3A6809FEDED
:100D7000687AF4EEC77AF1EE10FA56D99FED656AFB
:100D8000B7EE007ADFED646A67EE867A67EEA67AE0
:100D900087EE276A00259FED567A4BE0F7EE007A42
:100DA0000225B0EE670AC7ED067AC7ED077A5B4BFE
:100DB000A0441A6806EB0816511C86ED080A86F84E
:100DC0002450B262196003B0BDEC048BBDE8F0831F
:100DD000B7EE087A4CE70E912FE7DFED457A8FE703
:100DE000B7EE007AF4EEC77AF1EE10FA3FDDDFEDF0
:100DF000409AF0EE488A68EE299A70E79FED3C0A27
:100E00004FE700244FF0FF3327460AE0816A303075
:100E1000994238BF274604F1010438BF0B46202C05
:100E20004ED04178A942F1D1FDE6B7EE007A012516
:100E3000B0EE476A3A4BF7EE006A4B44D3ED007AC6
:100E400008EB0403F4EEE67A06EB031383ED067A6F
:100E5000F1EE10FA83ED076A16D49FED327AF4EEC4
:100E6000C77AF1EE10FA1BDD9FED2F0A0EE0F5EECA
:100E7000C07AF1EE10FA0CD477EE679A69EE889A90
:100E800020DDF0EE488A2AE79FED280A31F008FCC1
:100E90008DE777EE877AF0EE489A67EE888A1EE74C
:100EA0009FED1C6ABFEE007ADFED1B6A67EE867A63
:100EB00067EEA67A87EE270AE8E79FED1D6A69E7E5
:100EC0003C46B0E677EE877A67EE888A07E700BF90
:100ED000DC550020C4550020C04F0020545600208F
:100EE0000000FE420000C8425C4F0020FC4500208C
:100EF000000000004C4D0020BC4C00200000964437
:100F0000EC4C0020F83C0020983C00200000FA4403
:100F10000AD7233C00803B476F12833ABC4F002026
:100F2000383C00200000FA453DC32EB6AAAAAABC50
:100F30003DC32E3781422DE9F04F044683B007D9D7
:100F4000034644480122C2541344DAB29142F9D80C
:100F5000414B03F5C06513F8012C3AB11A78002013
:100F6000944203D8914288BF03F8010C3033AB425E
:100F7000F1D1A1426BD9C4EBC403384A384F091BE5
:100F8000384E02EB840B07EB83074FF4164206EB57
:100F90008306354B3548013902FB043A344A00EBED
:100FA0000409A50002EB4438621C52FA81F3019354
:100FB0000021304BDFF8F8C0002259511C372E4B6E
:100FC0001C3647F8042C19552C4B47F8082C19559A
:100FD0002B4B46F8042C19552A4B46F8082C59512E
:100FE000294B09F8011B1955284B4BF8041B595183
:100FF000274B1955274B1955274B5819274BC0F824
:1010000000C05819DFF8ACC0254BC0F800C0581913
:10101000244B026010201855234B5819234B0435DC
:10102000026003EB8400013402604FF41642504624
:101030000AF5164A32F0B8FF404600214FF400523C
:1010400032F0B2FF019B08F500589C42B0D103B0CA
:10105000BDE8F08FC4550020C14F00205456002039
:10106000900F0020F00C0020000003C0DC55002091
:10107000000000C0F4550020984500206044002086
:1010800030440020B0420020984200205840002008
:1010900040400020B045002038450020D8440020C2
:1010A0007844002048440020203F0020304E00209B
:1010B00000007A44F4FD343F2DE9F04F254D994668
:1010C00083B08B462B7814460190072B09D9224A0E
:1010D0001378013303F0070313702B78013BDBB265
:1010E0002B70DFF878802022DFF874A0002198F8B8
:1010F00000600AEB461032F057FF019A0023F7B266
:10110000760162F30703220A6BF30F2364F317439C
:10111000240C62F31F637A010AEB47174AF8023086
:101120003C71B9F1000F06D006F1080049461722BC
:10113000504432F05DFF98F80030013303F00703AC
:1011400088F800302B780133DBB22B7003B0BDE898
:10115000F08F00BFB4380020B5380020B63800202A
:10116000B838002010B50446FFF7BAF8032804D9B0
:10117000031FE25C1C442E2A01D0002010BD6378BE
:1011800003F0DF03572BF8D1A37803F0DF03412BE3
:10119000F3D1E07800F0DF00A0F15600B0FA80F063
:1011A000400910BD2DE9F04F83B003784FF00009DE
:1011B00001905BB3DFF8788058F839300093009BDA
:1011C0001E7876B3019D05F1FF3B3746DDF800A0A0
:1011D0000AE032F023FD0446384632F01FFD844217
:1011E00006D11AF8017FE7B11BF8010F0028F0D1F2
:1011F00015F8013F002BE6D109F10109B9F1240FDF
:10120000DAD14FF0FF3003B0BDE8F08F09F10109EA
:10121000B9F1240FF5D009F10109B9F1240FF5D185
:10122000EFE708EBC90898F8040003B0BDE8F08FB9
:10123000545703242DE9F04F1729ADF26C4D00915E
:1012400004D900200DF26C4DBDE8F08F0C4600254E
:10125000DFF82CB20122834B0146DFF828928FA8D9
:101260000BF8045043F8245009F804201DF040F80E
:1012700010B109F80450E4E72C228FA803AB04A9AD
:101280001DF036F950B9039B2B2B07D9764B049AE6
:101290009A4203D1754B069A9A4203D08FA81DF04B
:1012A0005BFACEE70C218FA8BDF826A0BDF832600E
:1012B0001DF0BAFA929B083B0C2BEFD90C2711E0DA
:1012C000039A072AEAD90F9A8FA8109D9A4213D041
:1012D0009499294408351DF0A7FA929B2F44083BA6
:1012E000BB42DBD903AB08220FA98FA81DF000F980
:1012F0005F4B0028E4D0D1E7002DCFD0F7080AFBE0
:1013000007F7002FCAD05B4BB5FBF7F8984528BF0D
:101310009846102E22D1BAF1010F1FD1009C4FEA3E
:101320004802554B8FA8554901FB043103AB1DF012
:10133000DFF8039D4B4B6D0843F82450003D009CA3
:101340004FF000038FA818BF012509F804300BF8EF
:1013500004501DF001FA1BF8040073E7BD427FD36F
:10136000444B0025009A03FB02F40194A8EB05020C
:1013700003AB0FA98FA807FB02F2B2F5007F28BFCD
:101380004FF400721DF0B4F8002864D1039B002BC9
:1013900061D0A845B3FBF7F45DD9BB4259D3019A9C
:1013A0006FF00043344913440FAA2B4401EB43016F
:1013B0000DE0182E1AD0082E2AD000230130013556
:1013C0003A4421F8023F844243D9A84543D9102E1C
:1013D000EFD1BAF1020FB2F90030EFD1B2F902C089
:1013E0001CEB030323D443F34F03E7E75378BAF12D
:1013F000020F92F800C04FEA034343EA0C2392F82D
:1014000002C043EA0C634FEA234312D01BB2D5E774
:101410001378BAF1020FA3F180034FEA0323F5D149
:1014200092F801C0ACF1800C13EB0C23DBD5013337
:10143000D9E792F804C092F803E04FEA0C4C4CEA6A
:101440000E2C92F805E04CEA0E6C13EB2C43CAD537
:10145000EDE7A8458AD8034B009A43F822506DE780
:101460000025F8E754560020524946465741564554
:101470006461746100770100347020C000EE0200E6
:10148000DC550020C4550020F2EE0E7AB7EE006A5B
:10149000A0EEA76A66EE007A03282ED8DFE800F0F7
:1014A00025382002B7EE005AFFEE005AF0EE006A2F
:1014B000F4EEC57AB0EE657AF8EE004AF1EE10FA75
:1014C00006DD76EEE77AF4EEC77AF1EE10FA04D490
:1014D000F4EEE57AF1EE10FA0FD574EEE77AE1E773
:1014E000F5EEC07AF1EE10FA1CDBB0EEE77AF7EE1B
:1014F000006A37EE267AC7EE877A87EE867AB7EEED
:10150000000AF6EE007AA0EEA70A27EE000A70475E
:10151000BFEE007AF4EEC77AF1EE10FA11D5F0EED4
:10152000477AEAE7DFED0B6AF7EE005A67EEA67A34
:10153000B0EEE77A37EE257AC7EE875A65EEA67ADF
:10154000DBE7B7EE007AF4EE477AF1EE10FA77FEB9
:10155000277AD2E73333333F70B401221A4D1B4B45
:101560002A705B69D80720D519481A4C07E0028811
:1015700092B2B1540380154B5B69D90715D5134B53
:10158000154E93F8301003882288C9B2013392B205
:10159000C3F30A039342EAD1104A138801339BB282
:1015A00013800A4B5B69D907E9D4084B5A69520684
:1015B00006D50B4A40219961138801339BB21380F1
:1015C00000232B7070BC7047541E00200030014077
:1015D000581E0020561E00205C1E0020AC38002043
:1015E000AE3800205F4A604BD2ED007A10B52DED89
:1015F000048BF3EE048A5D4C93ED008AC4ED627AAD
:10160000F4EEE87A84ED638AF1EE10FA06DD9FEDE0
:10161000587AF4EEC77AF1EE10FA4AD40023002289
:10162000C4F8B43184F89021C4F8B031C4F8AC31B6
:10163000C4F8A8314F49DFED506A91ED007A4F4A66
:10164000B4EEE67A4E4BD2ED007A1B78F1EE10FA4A
:101650001DD4F3EE046AB4EE667AF1EE10FAF5EEFC
:10166000C07A36FE877A84ED5F7AF1EE10FA17D4ED
:10167000B7EE007A84F88431BDEC048BF4EE477A3F
:10168000F1EE10FA77FE277AC4ED607A10BDF5EE20
:10169000C07AB0EE667AF1EE10FA84ED5F7AE7D5A3
:1016A000DFED387A84F88431C4ED607ABDEC048BC8
:1016B00010BDD4ED016A01239FED337A9FED336AAB
:1016C00026EE877A84F89031F4EEC77AF1EE10FABC
:1016D00037FE277A27EE067AC7EE269AB0EE690A19
:1016E00031F05EFAB0EE409AB0EE690A31F01CFBC0
:1016F000DFED277AB4EEE78AF1EE10FA2BD4B4EEE0
:10170000E88AF1EE10FA29DC38EE088AC9EE087A88
:10171000B7EE006AF8EE005AB6EE007A76EE406A4E
:1017200020EE250A37EE865A76EE677AC6EE055A1F
:1017300066EEA56A20EE250A67EEA57A26EE877A80
:10174000C4ED666A84ED680AC4ED697A84ED657A51
:1017500084ED677A6EE79FED0F8AD7E79FED0E8ADB
:10176000D4E700BF400100203C010020900200208F
:1017700000D08446380100200AD7233CB02800203E
:10178000AD28002000000000EE7CFF3EDB0FC940CA
:10179000CDCCCC3DCDCC4C3E00002042037A0BB1E9
:1017A00004230372704700BF084BB6EE007AD3EDF6
:1017B000017A93ED006AC7EE866A77EEE67AF0EE7C
:1017C000E77A67EE877AC3ED047A7047B84D002058
:1017D0002DE9F04F0026ADF52F7D414BB046039328
:1017E000039B13F8014F0393002C61D13D4920A8BE
:1017F0003D4B51F8265060213C4A009532F0F4FAF6
:10180000402221460DEB020032F0CEFB20A904A8B5
:101810001DF0D4F900284BD168A904A81DF01EFAC8
:1018200088BB9DF8B67177B39DF8A821D306F3D491
:101830000DF5DB70FFF796FC05460028ECD0002C78
:101840003ED00DF1400A0DF5DB7B0CE032F0E6F9FD
:10185000034620461C4632F0E1F984423BD11BF896
:10186000017F002F39D0D1461AF8014B3846002CA1
:10187000ECD13C1B002C23DB2C4668A904A81DF0EE
:10188000EDF90028CDD004A81DF0D0F984B110A93D
:1018900020AB164A38A80091C02132F0A5FA38A82A
:1018A000F1B2FFF7C7FC18B108F101085FFA88F838
:1018B0000136102E94D140460DF52F7DBDE8F08FF6
:1018C0003F220DF5DB7110A82C4632F091FB00236E
:1018D0008DF87F30D1E7241ACCE799F80140C8E7AA
:1018E000DB55002074580324384F0324404F032451
:1018F0009F4B1B78002B00F039819E4B60219E4A44
:101900002DE9F0439D4CADF56F7D009432A832F087
:101910006BFA32A91AA81DF051F90446002800F00C
:10192000A280944902A81DF049F9002840D0FFF791
:101930004FFF002840F0158130218E4B904A1AA8A5
:1019400032F052FA1AA932A81DF038F960BB1024FF
:10195000A8AD294632A81DF081F9F8B9AB7D0DF28A
:10196000B620DBB1182C00F03E812B7ADB06F0D4D8
:10197000FFF7F8FB1AAB804AA0210028E9D00DF24E
:10198000B620009062A832F02FFA214662A8FFF735
:1019900051FC631C0028DCD0DCB2DAE732A81DF071
:1019A00045F9102C00F222810DF56F7DBDE8F08322
:1019B0000DF5C479494602A81DF050F9002840F001
:1019C0000E8199F81630002B00F0098199F8083043
:1019D000DA06EFD50DF5CF70FEF782FC0228E9D9C3
:1019E00068490DF5CF7032F0E7FA0028E2D00DF526
:1019F000CF730DF13808604A602100931AA85D4B3F
:101A000032F0F2F91AA940461DF0D8F80446002831
:101A1000D0D1A8AD294640461DF020F9002840F05D
:101A2000FD80AB7D0DF2B620002B00F0F780102C6E
:101A300000F0B4802B7AD906ECD4FFF793FB1AABF5
:101A40000028E7D00DF2B622C02132A800924A4AFF
:101A500032F0CAF9214632A8FFF7ECFB631C0028DC
:101A6000D8D0DCB2D6E70DF138080746A8ADC8E9F2
:101A70000000C8E9020029461AA81DF0EFF8002866
:101A800032D1AB7D0DF2B62073B32B7ADE06F2D4E1
:101A9000FFF768FB03460DF2B620002BEBD0FFF7F3
:101AA00081FB0F280646E6D818F80030002BE2D15B
:101AB0000DF5C4790DF2B62032AB2F4AC02100904B
:101AC000484632F091F94846F1B2FFF7B3FB7B1C70
:101AD00001220028CFD029461AA808F80620DFB234
:101AE0001DF0BCF80028CCD01AA81DF09FF80DF10D
:101AF00037030DF1470013F8012F611C02B9CCB276
:101B00008342F8D124BB002F3FF40BAF1F221B49A7
:101B10001D4832F06DFA194A39461C481EF0D2FCB5
:101B20001B49002201F1010C01F110060D46CCF118
:101B3000010311F8014F01202B440CB198400243DE
:101B4000B142F3D10D4B39460120FFF7B5FAEEE66D
:101B500022460A490F481EF0B5FC002F3FF4E1AEC3
:101B6000D4E701460C481EF0ADFCE5E6704700BF27
:101B7000DC390020384F0324404F0324484F03240E
:101B800010500324A44F0324BC390020804F0324A9
:101B9000DB550020584F0324D84F032440461DF046
:101BA00045F81F220DF5CF71204832F021FA0DF5CE
:101BB000CF721F4821461EF085FC00231D481A469F
:101BC000012110F8015B9940013305B10A43A3429A
:101BD000F6DB0DF5CF7321460120FFF76DFA02A861
:101BE0001DF024F8A3E632A81DF020F8A4F1100798
:101BF0001148124D39461EF065FC102300220120C9
:101C000015F8016F9840013306B102439C42F6D1AA
:101C10000B4BF9B20620FFF74FFAC5E640461DF020
:101C200005F8002C3FF4C6AEBBE700BFBC3900206E
:101C3000AC4F0324DC55002018500324EB55002042
:101C4000A44F0324A64B2DE9F04F1C782DED0A8BF1
:101C500083B0002C40F03E81DFEDA2BA0122A24DFC
:101C6000F7EE00CAB0EE6BBA1A70F0EE6BAA05F58B
:101C7000C043B0EE6B9A05F5805B9FED9CCA05F5FD
:101C8000005A05F5405905F5804805F5A047019330
:101C9000DFED977AF5EE006AB1EE007A9FED956A76
:101CA00029EE279AB4EEE69A79EE099A69EE077A58
:101CB000F1EE10FA69EE869A0BD4F6EE086AB4EEED
:101CC000E69AF1EE10FA40F10281B0EE007A77EE7A
:101CD000677A9FED848AA5F5805202263AEE888ABB
:101CE000C2ED00AAE5EC017AB0EE48AA07EE906AD0
:101CF0000136F8EEE78A29EEA80A30F051FFC0EE6F
:101D0000287A092E3AEE27AAF0D1DFED7B7AF0EEA1
:101D1000488A03262AEE27AAABEC01AA07EE906AAE
:101D20000236B8EEE7AA29EE8A0A30F039FFC0EE93
:101D30000A7A0B2E78EEA78AF0D19FED707AFFEE2B
:101D4000007A68EE878AF4EEE78AF1EE10FA00F185
:101D5000B580F7EE007AF4EE678AF1EE10FA77FEBE
:101D6000A88AF5EE006A9FED637ADFED5E7A0326BE
:101D7000EAEC018A39EE269A7CEEA7CA39EE099A76
:101D800029EE079A07EE906A0236F8EEE78A29EE06
:101D9000A80A30F005FFB0EE40AA29EE280A30F07C
:101DA000FFFEC0EE287A0B2E8AEE287A7CEEA7CAB8
:101DB00038EE078AE6D138EE2C8A9FED4F7AFFEE97
:101DC000007A28EE078AB4EEE78AF1EE10FA7BD4A7
:101DD000F7EE007AB4EE678AF1EE10FA37FE888AE1
:101DE000F5EE007A9FED465A9FED466AFFEE006AD7
:101DF0009FED457A6BEE277ADFED445A2BEE077A9A
:101E0000A9EC018AEAEE857AAAEEA57AEBEE867A4B
:101E1000A8EC017AF4EEE67AF1EE10FA51D4B7EEBE
:101E2000007AF4EE477AF1EE10FA77FE277A9FED0A
:101E3000387A0134E7EC017ACCEE077A019BB4F5ED
:101E4000806FE3EC017A019344D007EE904A9FED56
:101E5000288A9FED28AAB0EE08CAB8EEE79A29EEC4
:101E6000088A78EE088A68EE8A9AB0EE690A30F03D
:101E700097FEF0EE40AA39EEA90A30F091FEB0EEDE
:101E800040BA29EE8C0A30F08BFEF7EE007AF0EEC5
:101E900040BA38EEE70A20EE0C0A30F06FFAF5EEA1
:101EA000007AB0EE40CA38EE278A38EE088A28EE6B
:101EB0000A0A30F075FEF0EE40CAE9E6F0EE678AF5
:101EC0004FE7F0EE667AB2E7B0EE678A88E777EE22
:101ED000C77AFEE603B0BDEC0A8BBDE8F08F00BF09
:101EE000305700200000000034670020E9BB7EBFAF
:101EF0000000803ADB0F494083F9223F83F9A23F7B
:101F0000E17A143F7B142E3E9A99993E3333333F46
:101F1000E9BB7E3F022810B576D003284FD00128B8
:101F20004FF0000200F095805B494FF0000CB6EED8
:101F3000006A4FF07E5EF5EE001ADFED586A9FED05
:101F4000581A02EE901A9FED577A04EE10CA9FEDD0
:101F5000562A1046DFED557A14469FED553ADFEDCF
:101F6000553ADFED554A9FED555ADFED555A554B21
:101F70001A7083ED016AC3ED026AC3F80CE083EDC9
:101F8000041AC3ED051A83ED067A596283ED0A2A15
:101F9000C3F82CC0C3ED0C7AC3ED072A83ED083AD1
:101FA000C3ED0D3A83ED0E4A83F83C0083F83D40C3
:101FB000C3ED104A83ED115AC3ED125A10BD4FF014
:101FC0007E5EDFED416AB6EE006A0222F0EE663A0E
:101FD0009FED3E1A4FF07D5CDFED3D1A9FED3D7A9F
:101FE00007EE90EA3C4901209FED3C2A0024DFEDFA
:101FF0002F2A9FED3B3A9FED3B4ADFED2B4A9FEDA9
:102000003A5ADFED265AB2E701229FED386A4FF0C7
:10201000000E9FED377A3749F0EE467AB0EE473A38
:10202000DFED316A9FED341A02EE901ADFED261AC9
:1020300000209FED2C2A1446DFF8ECC004EE90EA55
:10204000DFED2E3A9FED2E4A9FED2E5ADFED2E5AF0
:102050008DE74FF07A5C1049DFED137AB6EE087A1F
:10206000F1EE063A9FED296AB0EE674ADFED286A85
:102070004FF0000E9FED271ADFED271A02EE901A9F
:102080009FED112A03EE10CA1446DFED244A9FED9E
:10209000245ADFED245A6AE76F12833AEC51383F35
:1020A00000802244CDCC0C3FEC51383E0AD7A33DF2
:1020B000295C0F3ECDCCCC3DCDCC4C3D0AD7233D49
:1020C0009A99593FB80100203333B33E000096443B
:1020D00085EB513F9A99193F8FC2F53D9A99993FE7
:1020E000CDCCCC3FCDCCCC3E9A99193E295C8F3ECD
:1020F0006666E63E0AD7233C00802245CDCC4C40A4
:102100000AD7A33E8FC2F53C14AE473F3D0AD73EE7
:10211000CDCC4C3E0000E1443333333F8FC2F53D1C
:10212000295C8F3DCDCC4C3FCDCC0C3F022800B577
:1021300055D0032839D001286CD00022B7EE006AB0
:10214000F1EE066ADFED3F3ADFF858C105EE102ADE
:102150009FED3D4A0020DFED3D4A1146DFED3C5A40
:102160009FED3C7ADFED3C7ADFF83CE13B4B9A6037
:102170003B4AC3ED003AC3F804C083ED034AC3ED04
:10218000054A83ED065AC3ED075A83ED086AC3ED8D
:10219000096A83ED0A7A83F82C001963C3ED0D7A7E
:1021A000C3F838E01A615DF804FB4FF07C5CB5EED3
:1021B000004AB7EE086ADFED2B3AF2EE056A2A4ACA
:1021C000DFED254A07EE10CA284902209FED285A64
:1021D000DFED285ADFED287ADFF8D0E0C6E70022ED
:1021E000F7EE005AB0EE086ADFED163AF2EE016A39
:1021F0004FF07F514FF07D5EDFF8B4C09FED1F4A76
:1022000005EE102ADFED1E4A00209FED0F7ADFED6C
:102210001D7AABE71C49B0EE006AF6EE087ADFEDF6
:10222000093ADFF890C08E46184A9FED194ADFED53
:10223000194A9FED195ADFED105ADFED186A9FED2C
:10224000187A93E76F12833A8FC2F53DAE47613E2D
:102250009A99193E0AD7A33DCDCCCC3E440100202B
:102260006F12833A0AD7A33B3333B33E0000E040FA
:10227000CDCC4C3E9A99993E9A99193F6666E63FB5
:102280003333B33F9A99593FCDCC4C3F9A99193E7D
:10229000CDCC8C3F6666663F00000000CDCC4C4044
:1022A000CDCC4C3D9A99993E9A99593F85EB513F37
:1022B000666626403333B33F70B5174D1C4616464D
:1022C00013465A224FF6FF7E68702A70A2196C805E
:1022D000A98013F8010B4FF0080C80EA0E0E4EF3A4
:1022E00000010E480CF1FF3C08401CF0FF0C80B2CE
:1022F00080EA5E0EF3D19342EBD122463146084884
:102300000834A5F806E031F00AFF06490122064B21
:102310000C801A7070BD00BF0000003001A0FFFFEC
:1023200008000030B4560020B656002003390329B7
:1023300014D8DFE801F0312314022F4991F864200A
:1023400091F87030003A18BF0122003B18BF0123FA
:1023500092009B0081F8642081F870307047274B11
:1023600093F8842012B1042283F8842093F89020FB
:10237000002AF3D0042283F8902070470F281DD93B
:102380001F4B03F5B0701A7A01210AB183F82C10A3
:102390002C339842F7D170471A4B002193F88C20C8
:1023A00083F8551012F0FB0F20D193F8982012F00B
:1023B000FB0FD3D0042283F898207047124A104BA9
:1023C000105C03F5B07102E02C33994212D01A7AF6
:1023D000002AF9D05A7A8242F6D193F82C204FF095
:1023E000010C002AF0D183F82CC0EDE7042283F819
:1023F0008C20DAE7704700BF44010020B8010020BC
:102400009002002048040020D4280020F0B585B0B8
:1024100004460D4621F074F907460A264FF0FF0CDA
:1024200001230DF10F020DF10E01254800968DF8E4
:102430000EC08DF80FC020F0B7FF9DF80F30FF2BB6
:1024400036D0FE2B39D16119013C4D1E0A27FF26DB
:1024500001230DF10F020DF10E01194800978DF8BF
:102460000E608DF80F6020F09FFF9DF80F3004F88C
:10247000013FA542EAD10DF10F020DF10E0101233A
:1024800000970F488DF80E608DF80F6020F08CFFDC
:1024900001230DF10F020DF10E01009708488DF890
:1024A0000E608DF80F6020F07FFF012005B0F0BDB9
:1024B00021F026F9C31BC72BAFD9002005B0F0BD12
:1024C0002C3C00202DE9F04184B00746884621F0DD
:1024D00017F9064605E021F013F9801BB0F5FA7FE5
:1024E0006BD20A25FF2401230DF10F020DF10E011D
:1024F000364800958DF80E408DF80F4020F054FFBF
:102500009DF80F30A342E6D18DF80F300DF10F0288
:1025100001230DF10E012D4800958DF80E8020F05D
:1025200043FFB8F1FD0F4CD07C1E07F2FF170A26BF
:1025300014F801CFFF2501230DF10F020DF10E015B
:10254000224800968DF80EC08DF80F5020F02CFF19
:10255000A742ECD10DF10F020DF10E0101230096FF
:102560001A488DF80E508DF80F5020F01DFF0DF118
:102570000F020DF10E010123009614488DF80E5044
:102580008DF80F5020F010FF01230DF10F020DF117
:102590000E0100960D488DF80E508DF80F5020F06A
:1025A00003FF9DF80F0000F01F00A0F10500B0FA36
:1025B00080F0400904B0BDE8F081002004B0BDE81F
:1025C000F081012004B0BDE8F08100BF2C3C002068
:1025D000D34B5B5C2DE9F0410C4605462DED028B9B
:1025E000B0EE408A002B00F04781CE4B5A5C002AA7
:1025F00040F02C82CC4BA200DFEDCC7A03EB8403BD
:10260000CB49D3ED000A085DF4EEE70AF1EE10FACB
:1026100005D4B0EE480AFEF737FFB0EE408AC54B4E
:10262000195D0F290BD801238B4007EE903AF8EE85
:10263000E77A28EE277AB8FE477A87EE278ABE4BDC
:102640001B57002B40F05F82BC4B1B57002B40F008
:102650008482BB4B1B57002B40F0A982B94B1B5DFA
:10266000002B5CD0B84B42F27F5CB84EFFEE006AA4
:102670001344B74856F82410D3ED007A01F51653E9
:10268000FCEEE77A17EE907AF0EE487A674528BFBD
:102690006746012F2CBFDB1B03F1FF33A0FB037048
:1026A0004FF41657800A07FB1033AA4807FB043380
:1026B00000EB830393ED007AA74B134493ED006A7C
:1026C000E7EE067AF4EEE67AF1EE10FA00F109820E
:1026D000F7EE006AF4EE667AF1EE10FA76FEA77A6B
:1026E0009E4BF7EE006A4F1C134493ED006A984B23
:1026F00076EEC66A27EE067AA3FB07C34FF4165C94
:102700009B0AA8EE267A0CFB04110CFB137700EB56
:10271000810046F82470C0ED007AB0EE478A904BF5
:102720001B5D002B7FD08F4FB6EE007ADFF890C292
:102730004FEAC42E57F824108B4E01EBC4230CEB48
:10274000830383ED008AB318D3ED006AF4EEC76A01
:1027500076EEA67AF1EE10FA40F1D081834BB5EE19
:10276000007ADFED835A40F2FF781344BFEE006A2F
:1027700093ED005A7F4B67EE857A134467EEA57A96
:10278000D3ED005A67EE877AFCEEE77A17EE903ABF
:10279000F0EE487A0233434594BFC81AA1EB080013
:1027A000C0F30A0373440CEB830393ED007AE7EE66
:1027B000257AF4EEC67AF1EE10FA00F19C81B7EEBC
:1027C000006AF4EE467AF1EE10FA76FE277A6A4B4A
:1027D0008E44DFED6A5AB7EE006A13440CEB8E0CA0
:1027E0000131164493ED005ACCED007AC1F30A0191
:1027F000C5EE257A624B47F82410134477EEA67A8B
:10280000D3ED006A76EE665A27EE267AF4EEC67AA3
:10281000A8EE257AF1EE10FAA8BF77EEC67AB0EEF0
:10282000478AC6ED007A574B1B5D2BB3564BF0EE33
:10283000C87A991891ED000AF4EEC07AF1EE10FA18
:1028400000F3528170EE677A9FED507AA7EEC70AC7
:102850004F491344114483ED000AD1ED007AB4EEE0
:10286000E70AF1EE10FA07DD9FED4A7AB4EEC70AE7
:10287000F1EE10FA00F3CB81474B484A1B78125D0A
:1028800023B1474B1B5D002B00F0B380002A40F0C2
:10289000B080444BA200444903EB8403095DD3EDAF
:1028A000007A002940F0A980F7EE006AB6EE007ABF
:1028B00076EEE75A77EEA67A65EE875A27EE877AA4
:1028C0003A4BEC681344D3ED007A394B68EE277A23
:1028D0001344D5E9001667EEA67A93ED005A91ED00
:1028E000006A344BF0EE466A1344B0EEE76AE7EE56
:1028F000A56AD3ED005A304B1344C1ED006AD6ED02
:10290000006AE7EE876AD5E90401C6ED006A94ED36
:10291000007AD3ED006AA7EE857A284B134451E084
:10292000B045002098450020784400200AD7233C79
:102930006044002048440020083F0020F03E002072
:10294000D83E002030440020D0430020B042002078
:10295000B5814E1B000003C07043002010430020CF
:102960009842002058400020B84000203842002003
:102970000000004578410020D841002000803B47FE
:102980001841002040400020203F00208FC2F53C2D
:10299000E03F00206F12833AC8450020E445002044
:1029A000CC450020FC450020C03E00205C4F0020AC
:1029B0001C470020BC4600205C460020304E002012
:1029C000000000C084ED007A90ED007AA7EEA57AB1
:1029D00080ED007A91ED007AA7EEA67A81ED007A7B
:1029E000D3ED007AB4EEE76AF1EE10FA01DD83ED83
:1029F000006ABDEC028BBDE8F081A74B1B5D002B8C
:102A00004FD1AB68F7EE006A9FEDA47A134493EDC3
:102A1000006AE6EE076AF5EEC06AF1EE10FA00F120
:102A2000EC80B0EE007AF4EE476AF1EE10FA77FE31
:102A3000266AB7EE006AB6EE007A76EE675A77EE4F
:102A4000867A65EE875A27EE877A39E7C1EBC101AE
:102A5000934B092A03EB81034FEA8101D3ED057AF9
:102A600093ED007AD3ED036AE0EE077A93ED015A15
:102A700093ED047AD3ED025A93ED066A66EEE76AA7
:102A800027EE677AE0EE056AA0EE257A76EE266AF2
:102A900083ED067AC3ED056A00F0D380B0EE678A55
:102AA000A8E5012B7FF400AFAB68BFEE007ADFED45
:102AB0007D6A134493ED006AE6EE267AF4EEC77A57
:102AC000F1EE10FA00F19C80F7EE006AF4EEE67A7F
:102AD000F1EE10FA7FF7EAAEB0EE667ADFED725AE9
:102AE000EEE6F0EE667AFBE577EEC07AB5EE007AB8
:102AF000A7EE870AACE6F0EE467A68E6B0EE007A1A
:102B000077EE677A2AE6694BC4EBC40103EB8103D5
:102B1000D3ED056AD3ED007A93ED037AE8EE276AE8
:102B200093ED015AD3ED047AD3ED025A93ED066A80
:102B300027EE667A67EEE67AA8EE057AE8EE257A61
:102B4000B0EE668A36EE077AC3ED067A83ED057A33
:102B5000574B1B57002B3FF47CAD564BC4EBC401C5
:102B600003EB8103D3ED056AD3ED007A93ED037A8D
:102B7000E8EE276A93ED015AD3ED047AD3ED025AB9
:102B800093ED066A27EE667A67EEE67AA8EE057A96
:102B9000E8EE257AB0EE668A36EE077AC3ED067A5D
:102BA00083ED057A444B1B57002B3FF457AD434B45
:102BB000C4EBC40103EB8103D3ED056AD3ED007AC6
:102BC00093ED037AE8EE276A93ED015AD3ED047A88
:102BD000D3ED025A93ED066A27EE667A67EEE67A3F
:102BE000A8EE057AE8EE257AB0EE668A36EE077A28
:102BF000C3ED067A83ED057A30E5DFED2B6A18E741
:102C0000F7EE005A9FED287AF0EE656A58E62C4BF5
:102C1000B7EE007A87EE800A1344D3ED007AC7EE50
:102C2000270A77EE600A2FF02FFEF4EE007AB4EE5A
:102C3000670AF1EE10FA48BFB0EE670A28EE008A84
:102C40001AE6204BDFED204A0B4493ED050A93ED85
:102C5000007AD3ED036AA7EE870A93ED015A93ED4C
:102C6000047AD3ED025A93ED066A66EEC06A27EE47
:102C7000407A20EE240AE7EE856AA7EEA57A36EEC2
:102C8000266A83ED067A83ED056A2FF077FBDFED88
:102C90000F7A20EE278AADE4903E0020CDCC4C3F49
:102CA000900F00206666663F00000000500A00207A
:102CB000F03E0020B0070020D83E00201005002084
:102CC000803F0020F00C00203333B33FB4C8363FC0
:102CD000012810B53DD0022815D0002838D10F2981
:102CE00046D8DFE811F02A021F0069028002C602FE
:102CF000DD0239025102450045004500450045000E
:102D000045009702AE02092901F20E84DFE811F0B6
:102D10004A009E008700FB00590070007501FE010B
:102D20001201A301002A40F0D884DFEDD27AB4EE7C
:102D3000E70AF1EE10FA00F1D085F7EE007AB4EE72
:102D4000670AF1EE10FA37FE800ACB4B83ED1D0ABD
:102D500010BD092901F2F983DFE811F00301120126
:102D60008F006601A600BE0021013801A801C00144
:102D7000032AEDD1B5EEC00AF1EE10FA00F1FF859D
:102D8000F0EE007AB4EE670AF1EE10FA37FE800A30
:102D90000F29DDD8B84B01F5B17103EB810383ED49
:102DA000010A10BD002A40F0FF83DFEDB27AB4EED5
:102DB000E70AF1EE10FA40F15985B04BC3ED007A05
:102DC00010BD002A40F06083DFEDAA7AB4EEE70A76
:102DD000F1EE10FA00F13E85F7EE007AA74BB4EE63
:102DE000E70AF1EE10FA01F35C8183ED910A10BD60
:102DF000002A40F0C783DFED9F7AB4EEE70AF1EED8
:102E000010FA00F17685DFED9E7A9C4BB4EEE70A6E
:102E1000F1EE10FA01F35A8183ED940A10BD002AF5
:102E200040F0D282DFED937AB4EEE70AF1EE10FAC9
:102E300000F10485DFED927A904BB4EEE70AF1EEF3
:102E400010FA01F3348183ED410A10BD002A40F0ED
:102E50003F83DFED8C7AB4EEE70AF1EE10FA00F171
:102E60004C85F6EE007A854BB4EEE70AF1EE10FAE7
:102E700001F3208183ED1D0A10BD002A40F052832A
:102E8000DFED7C7AB4EEE70AF1EE10FA00F1EA84A5
:102E9000F7EE007A7C4BB4EEE70AF1EE10FA01F39C
:102EA000038183ED330A10BD002A40F0E983DFED92
:102EB000717AB4EEE70AF1EE10FA00F12685F0EE31
:102EC000007A714BB4EEE70AF1EE10FACCBFC3ED15
:102ED0007D7A83ED7D0A10BD002A40F0C382DFEDCC
:102EE000657AB4EEE70AF1EE10FA00F1AF84DFED97
:102EF000677A654BB4EEE70AF1EE10FA01F3E98068
:102F000083ED800A10BD002A40F0D883DFED607A9F
:102F1000B4EEE70AF1EE10FA00F1F384DFED5D7A2A
:102F2000564BB4EEE70AF1EE10FA01F3AE8083EDF2
:102F3000780A10BD002A40F05883DFED577AB4EECE
:102F4000E70AF1EE10FA00F15484DFED547A4B4BAE
:102F5000B4EEE70AF1EE10FA01F39D8083EDE80A82
:102F600010BD002A40F0D683DFED4D7AB4EEE70ABB
:102F7000F1EE10FA40F13084434BC3ED007A10BDFE
:102F8000002A40F0E482DFED3B7AB4EEE70AF1EE8E
:102F900010FA40F180843C4BC3ED1C7A10BD002A2E
:102FA00040F04E82DFED337AB4EEE70AF1EE10FA2C
:102FB00000F14884DFED357A334BB4EEE70AF1EEE9
:102FC00010FA01F36B8083ED970A10BD002A40F0E0
:102FD0001B83DFED287AB4EEE70AF1EE10FA00F178
:102FE0007884DFED2A7A284BB4EEE70AF1EE10FA86
:102FF00001F3728083EDAE0A10BD002A40F0F38128
:10300000DFED1C7AB4EEE70AF1EE10FA00F13F842E
:10301000DFED1B7A194BB4EEE70AF1EE10FA01F37B
:103020004C8083EDB00A10BD002A40F04282DFEDF3
:10303000187AB4EEE70AF1EE10FA00F14684DFEDFB
:10304000197A114BB4EEE70AF1EE10FA01F3208081
:1030500083ED640A10BD002A40F02183DFED107A71
:10306000B4EEE70AF1EE10FA40F122840E4BC3ED04
:10307000007A10BDCDCC4C3DC4320020E4280020A5
:103080009A99193F0AD7233DFC2D0020CDCC4C3F07
:103090000AD7233C9A99193E0AD7A33CCDCCCC3E03
:1030A000CDCCCC3DCDCC4C3EE42C0020002A40F0D1
:1030B000BD82F6EE007AB4EEE70AF1EE10FA00F106
:1030C0008783F1EE047AD14BB4EEE70AF1EE10FA01
:1030D000CCBFC3EDDB7A83EDDB0A10BD002A40F0E4
:1030E0002B83F6EE007AB4EEE70AF1EE10FA00F167
:1030F0005683F2EE007AC54BB4EEE70AF1EE10FA11
:10310000CCBFC3EDFE7A83EDFE0A10BD002A40F06D
:10311000DD80DFEDBF7AB4EEE70AF1EE10FA00F1E0
:103120007083DFEDBC7ABC4BB4EEE70AF1EE10FA27
:1031300000F3C68783EDCC0A10BD002A40F035812C
:10314000DFEDB37AB4EEE70AF1EE10FA40F16183F5
:10315000B24BC3ED007A10BD002A40F00B81DFEDC9
:10316000AC7AB4EEE70AF1EE10FA00F16383F7EE01
:10317000087AAA4BB4EEE70AF1EE10FAD4BF83ED59
:10318000A90AC3EDA97A10BD002A40F05E82DFEDE6
:10319000A07AB4EEE70AF1EE10FA00F1A283F7EE9E
:1031A000087A9E4BB4EEE70AF1EE10FAD4BF83ED35
:1031B000BF0AC3EDBF7A10BD002A40F0C380DFED27
:1031C000947AB4EEE70AF1EE10FA00F11E83F7EEFE
:1031D000007A924BB4EEE70AF1EE10FA00F37F8723
:1031E00083ED3E0A10BD002A40F0F081DFED8C7ABD
:1031F000B4EEE70AF1EE10FA00F14583DFED897ACB
:10320000864BB4EEE70AF1EE10FA00F33B8783ED4C
:10321000730A10BD002A40F07381DFED837AB4EEAB
:10322000E70AF1EE10FA00F11983DFED807A804BA6
:10323000B4EEE70AF1EE10FA00F3458783ED000AD9
:1032400010BD002A40F08782DFED7A7AB4EEE70AFB
:10325000F1EE10FA00F14983F1EE047A764BB4EE08
:10326000E70AF1EE10FACCBFC3ED007A83ED000A55
:1032700010BD002A3CD1DFED667AB4EEE70AF1EE2C
:1032800010FA00F1D382F0EE007A644BB4EEE70A54
:10329000F1EE10FACCBFC3ED907A83ED900A10BD29
:1032A000AABBDFED5B7AB4EEE70AF1EE10FA00F1AB
:1032B000A482F7EE087A594BB4EEE70AF1EE10FA61
:1032C000D4BF83ED930AC3ED937A10BD012A00F0B9
:1032D000ED84032A7FF43CADB5EEC00AF1EE10FA9E
:1032E00040F10A879FED550A4B4B83EDD00A10BD84
:1032F000032A7FF42DADB5EEC00AF1EE10FA40F1CD
:1033000044879FED4E0A454B83ED920A10BD012A7A
:1033100000F00F86032A00F0B083052A7FF418AD71
:10332000B5EEC00AF1EE10FA01F19F80F7EE007AD7
:10333000B4EE670AF1EE10FA37FE800A374B83EDE0
:10334000960A10BD022A00F05183032A7FF400ADD3
:10335000B5EEC00AF1EE10FA01F18F80F7EE007AB7
:10336000B4EE670AF1EE10FA37FE800A2B4B83EDBC
:10337000410A10BD012A00F03C86032A00F0888330
:10338000052A7FF4E5ACB5EEC00AF1EE10FA01F1C2
:103390007080F7EE007AB4EE670AF1EE10FA37FEAD
:1033A000800A1E4B83EDAC0A10BD012A40F02D832C
:1033B000F3EE0E7AB4EEE70AF1EE10FA40F1E38292
:1033C000164BC3ED017A10BD032A7FF4C1ACB5EEF4
:1033D000C00AF1EE10FA40F163879FED180A0E4B18
:1033E00083ED440A10BD012A00F05A85032A7FF4B8
:1033F000AFACB5EEC00AF1EE10FA40F19B869FED3E
:103400000F0A054B83EDB40A10BD00BFFC2D002050
:10341000CDCC4C3D9A99193FE4280020C4320020BD
:103420000AD7233C9A99993E0AD7A33CCDCC4C3F6E
:103430008C370020CDCCCC3D383800200000000077
:10344000012A00F0C584032A7FF482ACB5EEC00ADD
:10345000F1EE10FA40F164861FED080AD24B83EDBD
:103460009C0A10BD012A00F06A84032A7FF470AC24
:10347000B5EEC00AF1EE10FA40F148869FEDCB0A96
:10348000C94B83ED850A10BD032A7FF461ACB5EE0C
:10349000C00AF1EE10FA00F12587F7EE007AB4EEDB
:1034A000670AF1EE10FA37FE800AC14B83ED930AEA
:1034B00010BD032A7FF44CACB5EEC00AF1EE10FA51
:1034C00040F1B6869FEDB90AB74B83ED660A10BD91
:1034D000022A00F04682032A7FF43AACB5EEC00A15
:1034E000F1EE10FA00F18687F7EE007AB4EE670A83
:1034F000F1EE10FA37FE800AAD4B83ED220A10BDC3
:10350000012A00F05B82032A7FF422ACB5EEC00AE8
:10351000F1EE10FA40F1D8869FEDA40AA54B83ED99
:10352000000A10BD032A7FF413ACB5EEC00AF1EE19
:1035300010FA00F1D386F7EE007AB4EE670AF1EEE6
:1035400010FA37FE800A984B83ED360A10BD022A26
:1035500000F02682032A00F05486042A7FF4F8AB98
:10356000B5EEC00AF1EE10FA00F18F87F7EE007A9F
:10357000B4EE670AF1EE10FA37FE800A8A4B83ED4B
:103580001E0A10BD012A00F0FF82032A7FF4E0AB7F
:10359000B5EEC00AF1EE10FA40F1D6859FED830A30
:1035A000834B83ED980A10BD012A00F0C681032ADF
:1035B0007FF4CEABB5EEC00AF1EE10FA40F1CE8545
:1035C0009FED7A0A7A4B83ED050A10BD032A7FF43A
:1035D000BFABB5EEC00AF1EE10FA40F16B869FED7D
:1035E000730A754B83ED750A10BD032A7FF4B0ABE7
:1035F000B5EEC00AF1EE10FA40F124869FED6B0A99
:103600006B4B83EDEB0A10BD012A00F00683032A01
:103610007FF49EABB5EEC00AF1EE10FA40F1628580
:103620009FED620A604B83EDB30A10BD032A7FF45D
:103630008FABB5EEC00AF1EE10FA40F1B0859FED08
:103640005B0A594B83EDDF0A10BD012A00F0468268
:10365000032A00F00782052A7FF47AABB5EEC00A90
:10366000F1EE10FA00F1F386F7EE007AB4EE670A95
:10367000F1EE10FA37FE800A4F4B83EDC20A10BDFF
:10368000032A7FF465ABB5EEC00AF1EE10FA40F103
:103690009A859FED460A444B83ED7F0A10BD032AAD
:1036A0007FF456ABB5EEC00AF1EE10FA40F18A8411
:1036B0009FED3E0A414B83ED000A10BD032A7FF4C3
:1036C00047ABB5EEC00AF1EE10FA40F1C5859FEDAB
:1036D000370A374B83ED7A0A10BD012A4AD0022AF5
:1036E00000F08585032A00F00186042A7FF430ABC0
:1036F000B5EEC00AF1EE10FA00F1C386F7EE007ADB
:10370000B4EE670AF1EE10FA37FE800A2A4B83ED19
:103710001F0A10BD012A00F0FC80032A7FF418ABB9
:10372000B5EEC00AF1EE10FA40F122859FED1F0AB6
:103730001D4B83ED080A10BD032A7FF409ABB5EEDB
:10374000C00AF1EE10FA40F134859FED180A1C4BC7
:1037500083ED000A10BD032A7FF4FAAAB5EEC00A71
:10376000F1EE10FA40F139859FED100A154B83ED0B
:10377000000A10BDDFED147AB4EEE70AF1EE10FA9C
:1037800000F11881DFED117A0B4BB4EEE70AF1EE90
:1037900010FAD4BF83ED200AC3ED207A10BD024B8E
:1037A000C3EDFE7A10BD00BFFC2D0020000000001C
:1037B000E428002094370020C4320020F02C0020A0
:1037C00000320020403800200000C8420000AF4313
:1037D000B54BC3EDDB7A10BDF7EE087AB24BB4EE11
:1037E000E70AF1EE10FACCBFC3ED007A83ED000AD0
:1037F00010BDAE4BC3EDE87A10BDAD4BC3ED937A6F
:1038000010BDAA4BC3EDCC7A10BDA94BC3ED3E7AD7
:1038100010BDF0EE007AA64BB4EEE70AF1EE10FA16
:10382000D4BF83ED000AC3ED007A10BDA04BC3EDF9
:10383000907A10BD9E4BC3EDA97A10BD9B4BC3ED92
:10384000417A10BD984BC3ED977A10BD964BC3EDEE
:10385000807A10BD954BC3ED917A10BD954BC3EDA9
:10386000007A10BD904BC3ED337A10BDDFED927A34
:103870008E4BB4EEE70AF1EE10FAD4BF83ED000AE6
:10388000C3ED007A10BD8A4BC3ED737A10BD874B30
:10389000C3EDB07A10BDDFED887A834BB4EEE70A52
:1038A000F1EE10FAD4BF83ED1C0AC3ED1C7A10BDF3
:1038B000F0EE087A814BB4EEE70AF1EE10FAD4BFCD
:1038C00083ED000AC3ED007A10BD774BC3ED647A37
:1038D00010BD754BC3EDAE7A10BDB0EE670AFFF7B1
:1038E00034BA734BC3EDBF7A10BD754BC3ED007A8C
:1038F00010BD6E4BC3ED947A10BD6C4BC3ED1D7AB9
:1039000010BD6A4BC3ED787A10BD674BC3ED7D7A6D
:1039100010BDF3EE0E7AB4EEE70AF1EE10FA61D4C0
:10392000DFED687A604BB4EEE70AF1EE10FACCBF37
:10393000C3ED017A83ED010A10BDDFED677AB4EEC5
:10394000E70AF1EE10FA16D4DFED5F7A574BB4EECA
:10395000E70AF1EE10FACCBFC3ED017A83ED010A5C
:1039600010BDB5EEC00A0022F1EE10FA40F1FF8062
:103970004E4B9A6710BD4D4BC3ED017A10BD9FEDC4
:10398000530AFFF705BADFED4F7A494BB4EEE70A69
:10399000F1EE10FAD4BF83ED010AC3ED017A10BD38
:1039A000B5EEC00A0022F1EE10FA40F115833E4B4D
:1039B0005A6710BD3E4BC3ED207A10BDDFED447A4F
:1039C000B4EEE70AF1EE10FA1BD4F7EE087A414B99
:1039D000B4EEE70AF1EE10FACCBFC3ED007A83ED46
:1039E000000A10BD304BC3ED017A10BDB5EEC00A20
:1039F0000022F1EE10FA40F18D842D4BC3F8FC202B
:103A000010BD344BC3ED007A10BD022A11D1B5EEC2
:103A1000C00AF1EE10FA00F1B583F7EE007AB4EEC9
:103A2000670AF1EE10FA37FE800A214B83ED050A92
:103A300010BD032A40F02D85B5EEC00A0023F1EE3B
:103A400010FA02D51A4AD36110BDF7EE007A184B6E
:103A5000B4EEE70AF1EE10FACCBFC3ED077A83EDBE
:103A6000070A10BDB5EEC00A0023F1EE10FA40F1CE
:103A700078840F4AC2F80C3310BDB5EEC00A00239B
:103A8000F1EE10FA40F15384094AC2F85C3210BDDD
:103A9000B5EEC00A0023F1EE10FA40F15584044A55
:103AA000C2F8B43210BD00BFFC2D0020E428002075
:103AB000C43200208C370020CDCC4C3FE42C0020B9
:103AC000383800200000F0420000C842000000002A
:103AD0003333333F90370020000020425FED027AFD
:103AE000E04CB4EEE70ADFEDE06A94EDC47AF1EE63
:103AF00010FA67EE266A00F18F84DFEDDC7AB4EE0F
:103B0000E70AF1EE10FA40F35A84B0EE670ADFEDEF
:103B1000D87AF4EE676A9FEDD76A37EE077A84EDBC
:103B2000C00AF1EE10FA48BFF0EE667A67EE867AC8
:103B300087EE870A2EF0F6FBDFEDCF7A84EDCA0A16
:103B4000C4EDCB7AF7EE006A70EE277AB0EE666AC3
:103B5000A0EE276A86EE867A60EE077A84EDCC7A4C
:103B600020EE270AC4EDCD7A84EDCE0A10BDF7EE23
:103B7000007AC24BB4EEE70AF1EE10FAD4BF83ED3F
:103B80001E0AC3ED1E7A10BDDFEDC47ABB4CB4EE45
:103B9000E70ADFEDB56A94ED997AF1EE10FA67EE77
:103BA000266A00F13F84DFEDB67AB4EEE70AF1EE63
:103BB00010FA40F30A84B0EE670ADFEDB27AF4EE51
:103BC000676A9FEDAC6A37EE077A84ED950AF1EEED
:103BD00010FA48BFF0EE667A67EE867A87EE870ABB
:103BE0002EF0A0FBDFEDA87A84ED9F0AC4EDA07A49
:103BF000F7EE006A70EE277AB0EE666AA0EE276AEA
:103C000086EE867A60EE077A84EDA17A20EE270AA6
:103C1000C4EDA27A84EDA30A10BDDFED9C7A9C4C22
:103C2000B4EEE70ADFED906A94EDB47AF1EE10FAA3
:103C300067EE266A00F1EB83DFED917AB4EEE70AD6
:103C4000F1EE10FA40F3D183B0EE670ADFED917A1E
:103C5000F4EE676A9FED876A37EE077A84EDAF0A64
:103C6000F1EE10FA48BFF0EE667A67EE867A87EEDC
:103C7000870A2EF057FBDFED887A84EDBA0AC4ED8F
:103C8000BB7AF7EE006A70EE277AB0EE666AA0EEB5
:103C9000276A86EE867A60EE077A84EDBC7A20EE9B
:103CA000270AC4EDBD7A84EDBE0A10BDDFED7B7A34
:103CB000724CB4EEE70ADFED6C6A94EDD17AF1EE66
:103CC00010FA67EE266A00F1CB83DFED6D7AB4EE71
:103CD000E70AF1EE10FA40F35683B0EE670ADFED23
:103CE000697AF4EE676A9FED636A37EE077A84EDCE
:103CF000CD0AF1EE10FA48BFF0EE667A67EE867AEA
:103D000087EE870A2EF00EFBDFED5F7A84EDD70A8F
:103D1000C4EDD87AF7EE006A70EE277AB0EE666AE4
:103D2000A0EE276A86EE867A60EE077A84EDD97A6D
:103D300020EE270AC4EDDA7A84EDDB0A10BDDFED50
:103D4000537A534CB4EEE70ADFED476A94ED867A76
:103D5000F1EE10FA67EE266A00F16A83DFED487A29
:103D6000B4EEE70AF1EE10FA40F33583B0EE670ADD
:103D7000DFED487AF4EE676A9FED3E6A37EE077A28
:103D800084ED810AF1EE10FA48BFF0EE667A67EE34
:103D9000867A87EE870A2EF0C5FADFED3F7A84ED4A
:103DA0008C0AC4ED8D7AF7EE006A70EE277AB0EED9
:103DB000666AA0EE276A86EE867A60EE077A84ED60
:103DC0008E7A20EE270AC4ED8F7A84ED900A10BD1A
:103DD000DFED2E7A2E4CB4EEE70ADFED236A94ED88
:103DE0009D7AF1EE10FA67EE266A00F12683DFED88
:103DF000247AB4EEE70AF1EE10FA40F3C982B0EE8D
:103E0000670ADFED247AF4EE676A9FED1A6A37EEEF
:103E1000077A84ED980AF1EE10FA48BFF0EE667A60
:103E200067EE867A87EE870A2EF07CFADFED1A7A43
:103E300084EDA30AC4EDA47AF7EE006A70EE277A47
:103E4000B0EE666AA0EE276A86EE867A60EE077AA2
:103E500084EDA57A20EE270AC4EDA67A84EDA70AA0
:103E600010BD00BFC432002048E1FA3E0000FA4312
:103E700000007A45DB0FC940ABAA2A3FE4280020A6
:103E80000000C843000016455555553F00007042DC
:103E9000FC2D002000002F456EDB363F000048421D
:103EA0005FED027AF14CB4EEE70ADFEDF16A94EDD2
:103EB000B57AF1EE10FA67EE266A00F1C382DFED03
:103EC000ED7AB4EEE70AF1EE10FA40F36682B0EE56
:103ED000670ADFEDE97AF4EE676A9FEDE86A37EE8C
:103EE000077A84EDB10AF1EE10FA48BFF0EE667A77
:103EF00067EE867A87EE870A2EF014FADFEDE07A15
:103F000084EDBB0AC4EDBC7AF7EE006A70EE277A46
:103F1000B0EE666AA0EE276A86EE867A60EE077AD1
:103F200084EDBD7A20EE270AC4EDBE7A84EDBF0A87
:103F300010BDDFEDD47AD44CB4EEE70ADFEDCC6AE5
:103F400094ED987AF1EE10FA67EE266A00F183821A
:103F5000DFEDCE7AB4EEE70AF1EE10FA40F30E820E
:103F6000B0EE670ADFEDCA7AF4EE676A9FEDC36AC6
:103F700037EE077A84ED940AF1EE10FA48BFF0EEBE
:103F8000667A67EE867A87EE870A2EF0CBF9DFED48
:103F9000C17A84ED9E0AC4ED9F7AF7EE006A70EE56
:103FA000277AB0EE666AA0EE276A86EE867A60EE21
:103FB000077A84EDA07A20EE270AC4EDA17A84ED79
:103FC000A20A10BDF7EE007AB4EE670AF1EE10FA1D
:103FD00037FE800AFFF76EBBF7EE007AAE4BB4EE09
:103FE000E70AF1EE10FAD4BF83ED1D0AC3ED1D7A86
:103FF00010BDDFEDA47AA44CB4EEE70ADFED9C6AB5
:1040000094EDAE7AF1EE10FA67EE266A00F1FA81CD
:10401000DFED9E7AB4EEE70AF1EE10FA40F3E081AC
:10402000B0EE670ADFED9A7AF4EE676A9FED936A65
:1040300037EE077A84EDAA0AF1EE10FA48BFF0EEE7
:10404000667A67EE867A87EE870A2EF06BF9DFEDE7
:10405000917A84EDB40AC4EDB57AF7EE006A70EE99
:10406000277AB0EE666AA0EE276A86EE867A60EE60
:10407000077A84EDB67A20EE270AC4EDB77A84ED8C
:10408000B80A10BDC3ED737A10BDC3ED787A10BDC8
:10409000C3ED647A10BDC3EDE87A10BDC3ED977A25
:1040A00010BDC3ED917A10BDC3ED337A10BDC3EDE1
:1040B000417A10BDC3ED1D7A10BDC3EDB07A10BDBD
:1040C000C3EDCC7A10BDC3ED007A10BDC3ED947A78
:1040D00010BDC3ED807A10BDC3EDAE7A10BDC3ED47
:1040E0003E7A10BDF7EE007AB4EE670AF1EE10FAF0
:1040F00037FE800AFFF796BAF7EE007AB4EE670A49
:10410000F1EE10FA37FE800AFFF7EEB8F7EE007A0C
:10411000B4EE670AF1EE10FA37FE800AFFF7B0B985
:10412000F7EE007AB4EE670AF1EE10FA37FE800A75
:10413000FFF794B9F7EE007AB4EE670AF1EE10FAE1
:1041400037FE800AFFF75DB9F7EE007AB4EE670A32
:10415000F1EE10FA37FE800AFFF722BAF7EE007A86
:10416000B4EE670AF1EE10FA37FE800AFFF72ABABA
:10417000F7EE007AB4EE670AF1EE10FA37FE800A25
:10418000FFF7D6BA9FED450A4FE4F7EE007AB4EE9A
:10419000670AF1EE10FA37FE800AFFF7B4B8F7EEBF
:1041A000007AB4EE670AF1EE10FA37FE800AFFF7E4
:1041B00048BAF7EE007AB4EE670AF1EE10FA37FE6D
:1041C000800AFFF7C4BAF7EE007AB4EE670AF1EEA0
:1041D00010FA37FE800AFFF75EBAF7EE007AB4EE07
:1041E000670AF1EE10FA37FE800AFFF7BFBAB5EEA4
:1041F000C00A0023F1EE10FA40F1D480224A9367FE
:1042000010BDB5EEC00A0022F1EE10FA0CD4F7EEA4
:10421000007A214BB4EEE70AF1EE10FAD4BF83ED39
:10422000200AC3ED207A10BD1B4BC3F8802010BDBF
:10423000F7EE007AB4EE670AF1EE10FA37FE800A64
:10424000FFF742B9F7EE007AB4EE670AF1EE10FA22
:1042500037FE800AFFF7D4B9F7EE007AB4EE670AAA
:10426000F1EE10FA37FE800AFFF733BAE428002097
:1042700048E1FA3E0000C84300001645DB0FC94084
:104280005555553F00002042C43200200000FA433B
:1042900000007A45ABAA2A3FFC2D00200000000058
:1042A000F7EE007AB4EE670AF1EE10FA37FE800AF4
:1042B000FFF795B8F7EE007AB4EE670AF1EE10FA60
:1042C00037FE800AFFF78DB9F7EE007AB4EE670A81
:1042D000F1EE10FA37FE800AFFF720B91FED110A40
:1042E000FFF731B91FED130AFFF7DFB8B5EEC00ACB
:1042F0000022F1EE10FA00F18180F7EE007AA44B73
:10430000B4EEE70AF1EE10FAD4BF83ED210AC3ED53
:10431000217A10BDF7EE007A9D4BB4EEE70AF1EE7C
:1043200010FAD4BF83ED3F0AC3ED3F7A10BDF7EE1C
:10433000007A974BB4EEE70AF1EE10FAD4BF83EDA2
:10434000970AC3ED977A10BDF7EE007A904BB4EE62
:10435000E70AF1EE10FAD4BF83EDAD0AC3EDAD7AF2
:1043600010BDF7EE007A8A4BB4EEE70AF1EE10FAD0
:10437000D4BF83EDC30AC3EDC37A10BDF2EE007A59
:1043800060EE277AF0E5F1EE087A60EE277AA8E48D
:10439000F1EE0C7A60EE277A35E5F1EE087A60EE00
:1043A000277A98E5F7EE007A794BB4EEE70AF1EE5A
:1043B00010FAD4BF83ED1E0AC3ED1E7A10BDF2EED3
:1043C000007A60EE277AFFF7A4BBF1EE087A60EE80
:1043D000277AFFF7F4BBF1EE0C7A60EE277AC9E496
:1043E000F2EE007A60EE277A1EE6F1EE0C7A60EECD
:1043F000277A2DE49FED670AFFF77EB8644BC3F878
:10440000842010BDB0EE670ADFED637A0CE6B0EEF3
:10441000670ADFED627A1BE4B0EE670ADFED5E7AD1
:10442000FFF777BBB0EE670ADFED5D7AFFF7C7BB3A
:10443000B0EE670ADFED597A9CE4B0EE670ADFED73
:10444000577AE0E4B0EE670ADFED557A43E59FED79
:10445000510AFFF711B9B0EE670ADFED4F7A83E535
:10446000B0EE670ADFED4E7A3BE49FED4A0AFEF7B5
:1044700065BF9FED480AFEF794BF9FED460AFEF721
:1044800075BF9FED440AFFF741B99FED420AFFF760
:1044900075B8042A12D1B5EEC00A0023F1EE10FA65
:1044A00026D4F6EE007A3A4BB4EEE70AF1EE10FAB3
:1044B000CCBFC3ED067A83ED060A10BD052A1AD1DA
:1044C000F7EE007AB4EEE70AF1EE10FA0CD4F3EE50
:1044D000047A2F4BB4EEE70AF1EE10FACCBFC3ED2D
:1044E000037A83ED030A10BD294BC3ED037A10BD97
:1044F000274A936110BD062A7EF42AACDFED297AA3
:10450000B4EEE70AF1EE10FA05D5B0EE670A204BDB
:1045100083ED020A10BDF6EE007AB4EE670AF1EE02
:1045200010FA37FE800AF2E7032A7EF411ACB5EEEA
:10453000C00AF1EE10FA19D59FED160A0A297EF489
:1045400007AC194B83ED000A10BD032A7EF400ACC2
:10455000B5EEC00AF1EE10FA11D59FED0E0A0A2948
:104560007EF4F6AB114B83ED000A10BDF0EE007A3D
:10457000B4EE670AF1EE10FA37FE800ADEE7F0EEDD
:10458000007AB4EE670AF1EE10FA37FE800AE6E729
:10459000C4320020000000000000A0430000D2430D
:1045A000000096430AD7233CEC2D0020B4320020B3
:1045B0000306F0B5064685B00F4600F19B800A253C
:1045C000FF24012160481CF0E3FA01230DF10F02E2
:1045D0000DF10E015D4800958DF80E408DF80F40ED
:1045E0001EF0E2FE002158481CF0D2FA01230DF122
:1045F0000F020DF10E01554800958DF80E408DF813
:104600000F401EF0D1FE01230DF10F020DF10E013E
:104610004E4800958DF80E608DF80F401EF0C4FED8
:104620003B0E0DF10F020DF10E0148488DF80E30D2
:10463000012300958DF80F401EF0B6FE3B0C0DF1E6
:104640000F020DF10E0141488DF80E300123009547
:104650008DF80F401EF0A8FE3B0A0DF10F020DF180
:104660000E013A488DF80E30012300958DF80F4069
:104670001EF09AFE01230DF10F020DF10E013348D9
:1046800000958DF80E708DF80F401EF08DFE402EB7
:1046900039D0482E48D001270DF10F020DF10E013F
:1046A0002A483B4600958DF80F408DF80E701EF09D
:1046B0007BFE4C2E3AD00A240A254FF0FF0C012332
:1046C0000DF10F020DF10E01204800958DF80EC07E
:1046D0008DF80FC01EF068FE9DF90F20631E9DF837
:1046E0000F00002A01DB05B0F0BD13F0FF04E3D199
:1046F00005B0F0BD00217720FFF75AFF0128F2D85E
:1047000006F07F065BE795230A21FF228DF80E3025
:10471000012300910DF10E018DF80F200DF10F0214
:104720000A481EF041FEC6E78723EDE73B460DF140
:104730000F020DF10E01009504488DF80E408DF822
:104740000F401EF031FEB6E7183C00202C3C002044
:104750004E4B70B51B7888B043B10C461646032902
:1047600000F29180DFE801F00C355206032528465F
:1047700008B070BD012313600025284608B070BD45
:10478000002143481CF004FA1EF0BAFF064605E07B
:104790001EF0B6FF801BB0F5FA7F67D20A254FF0F6
:1047A000FF0C012304AA0DF10F013A4800958DF882
:1047B0000FC08DF810C01EF0F7FD9DF81030FF2BD4
:1047C000E6D12546012132481CF0E2F9284608B01E
:1047D00070BD00214920FFF7EBFE0546D0B125460C
:1047E00001212B481CF0D4F9FF210A2001238DF868
:1047F0000E100DF10F0200908DF80F100DF10E014B
:1048000024481EF0D1FD284608B070BD4FF4007357
:104810001380B1E710210DEB0100FDF7F7FD002833
:10482000DDD09DF810109DF8192089099DF8180019
:104830009DF8173001291BD09B00520003EB901309
:104840009DF8160002F00601820201339DF81A005D
:1048500002F4406213449DF8152002F00F0202EBAF
:10486000D0120A44073A93403360B9E70124A8E71D
:10487000BDF818201B0452BA03F47C1392B2134300
:1048800001339B02F0E7042571E700BFB83900202F
:10489000183C00202C3C0020274870B5007884B0DC
:1048A00000283DD01C4643070D46114658BF510213
:1048B000012C2FD05920FFF77BFE0646D0B1261ED3
:1048C00018BF012601211D481CF062F9FF210A20B2
:1048D00001238DF80E100DF10F0200908DF80F10CE
:1048E0000DF10E0116481EF05FFD304604B070BD9C
:1048F000013C0AD02846FC2105F50075FDF7E2FDD4
:104900000028F5D1261E18BF0126FD210020FDF745
:10491000D9FDD7E75820FFF74BFE28B12646D1E74F
:104920000326304604B070BDFE212846FDF7CAFDBF
:1049300080F00106F6B2C5E7B8390020183C002027
:104940002C3C0020284870B5007884B000283ED068
:104950001C4643070D46114658BF5102012C30D06A
:104960005220FFF725FE0646D0B1261E18BF0126AD
:1049700001211E481CF00CF9FF210A2001238DF8AB
:104980000E100DF10F0200908DF80F100DF10E01B9
:1049900017481EF009FD304604B070BD013C0BD035
:1049A00028464FF4007105F50075FDF72FFD00282E
:1049B000F4D1261E18BF012600214C20FFF7F8FD78
:1049C000D6E75120FFF7F4FD28B12646D0E70326AD
:1049D000304604B070BD4FF400712846FDF716FD57
:1049E00080F00106F6B2C3E7B8390020183C002079
:1049F0002C3C00202DE9F0430A2485B001216048B9
:104A00001CF0C6F80A254FF0FF0C0DF10B01012335
:104A100003AA5C4800958DF80BC08DF80CC01EF001
:104A2000C3FC611E11F0FF04ECD121464020FFF7CA
:104A3000BFFD01281AD00DEB0506012501215048C4
:104A40001CF0A6F8FF230DF10B0231468DF80A3059
:104A50008DF80B300A234B48009301231EF0A4FC71
:104A6000494B28461C7005B0BDE8F0831EF048FE97
:104A70004FF4D57180464820FFF79AFD012858D1A0
:104A800003AD0DF110090DF10A062F460A230DF1B1
:104A90000B0231463B480093FF238DF80A308DF816
:104AA0000B3001231EF080FC9DF80B3007F8013B12
:104AB0004F45EBD19DF80E30012BBED19DF80F3044
:104AC000AA2BBAD102E0FFF773FD50B11EF018FE19
:104AD00003464FF08041E920A3EB0803B3F57A7F4A
:104AE000F1D31EF00DFEA0EB0803B3F57A7FA4D23C
:104AF00000217A20FFF75CFD00289ED1FF230DF1F5
:104B00000B0231461F488DF80A308DF80B300A230E
:104B1000009301231EF048FC9DF80B3005F8013B83
:104B20004D45EBD19DF80C5015F0400525D10224E0
:104B300084E72146E920FFF73BFD012805D90DF167
:104B40000A067AE7FFF734FD48B11EF0D9FD0346A7
:104B50000021E920A3EB0803B3F57A7FF2D34FF4E9
:104B600000715020FFF724FD00280DF10A060DBF4B
:104B7000012400240125002560E7002506245DE7C7
:104B8000183C00202C3C0020B839002090F82C3034
:104B9000002B00F01181DFED8E7A10B52DED088B22
:104BA00090ED088A0446B4EEE78AF1EE10FA00F3BD
:104BB000DF80DFED887AF7EE00AA94ED118A94ED9C
:104BC000017A94ED0C9A38EE2A8AD4ED038AF1EE3C
:104BD000499A94ED020A38EE278A89EE800A28EE77
:104BE000078A2DF05DFD94ED0AAAD4ED0D7A68EEEA
:104BF000288AA8EE808AEAEE087AF4EEEA7AB0EE25
:104C0000670AF1EE10FAA8BF37EEEA0ADFED727A12
:104C100084ED0D0A20EE270A2DF0C2FFB6EE006AE1
:104C200094ED0E7AF7EE006ADFED6B7AF0EE408AD3
:104C300028EE068AAAEE087AB4EEE67AF1EE10FAC9
:104C4000A8BF37EE667A27EE270A84ED0E7A2DF09C
:104C5000A7FFD4ED047AF0EE40AA94ED06BA89EEEF
:104C6000A70A2DF01DFD616E236FD4ED186ACA18D6
:104C700094ED177AB0EE666AD4ED154A05EE902AE7
:104C8000F0EE667A9FED553AB0EE005AF8EEE55A2E
:104C9000D4ED163AA7EE246A94ED144AB0EE408A99
:104CA00094ED000AD5EE837A89EE800AA7EEA36A16
:104CB00067EEA47AD4E91A20E4EE077A534048401C
:104CC000D6EE056A59404FEA7353616680EA422185
:104CD00097EE857A4240236728EE278AC4ED186A4A
:104CE000C4E91A2184ED177A2DF0DAFCF0EE687A27
:104CF000F6EE006AD4ED055AB1EE006AEAEE8B7A60
:104D0000B7EE007AA5EE867AE8EE267AF5EEC07A5E
:104D100067EE877AF1EE10FA51DDF3EE0B6AF2EEF0
:104D2000025A27EEA77AB0EE666A39EE0A9AA7EE23
:104D3000256A37EE267A84ED0C9A27EE277AC7EE9D
:104D4000067A9FED277AB4EEC70AF1EE10FA02D583
:104D5000002384F82C3027EE800A94ED077AD4EDF6
:104D60000F7A20EE070ABDEC088B20EE270A10BD53
:104D70009FED1C7ADFED1C7A90ED100AE8EE077AC1
:104D8000D0ED0A6AB7EE007AA7EEA60ADFED177A31
:104D9000B4EEC70AF1EE10FAA8BF30EE470A80ED74
:104DA000100A20EE270A2DF0FBFE28EE008ADFED28
:104DB000107A68EE277AFEE69FED060A70479FEDAF
:104DC0000D7AF3EE0B6AF2EE025A67EE877AA8E7E5
:104DD0006F12833A00000000DB0FC9400000003072
:104DE0006F12033A9A99993F9A99993EDA0FC940FE
:104DF000A69B443B3333333FB5EEC00A012238B59E
:104E0000F1EE10FA4FF0000304462DED088BB0EEE2
:104E1000408A80F82020B7EE000A4362C3628362B2
:104E200007D4B4EEC08AF1EE10FA40F30C81B2EE72
:104E3000040A2DF0A9FCD4ED057A9FEDAD7ADFEDE3
:104E4000AD6AF4EEC77A20EE260AF1EE10FA84ED90
:104E50000C0A00F30F81F2EE085AD4ED016AF3EE6A
:104E60000C7AD4ED038AB2EE006A94ED060AB2EE33
:104E70000E7A9FEDA1AAE6EEA57A94ED02BADFEDD7
:104E80009F9A20EE0AAAA6EE867ADFED9D6A9FED34
:104E90009D6ADFED9DAAEBEE069A68EEA77A60EEBA
:104EA0002AAA68EE878AF4EEE67AF1EE10FA0FD4B9
:104EB000B4EEE7AAF1EE10FA0CD5F2EE047AB4EEF5
:104EC000E7AAF1EE10FA40F11081DFED907A0BE0E5
:104ED000F0EE667AF4EEEA7AF1EE10FA00F3AE80C4
:104EE0009FED8B7A67EE877A30EE009A87EE890A1B
:104EF0002DF018FA84ED0F0AF6EE007AF4EEE79A38
:104F0000F1EE10FA00F1B380DFED827AF4EEE79A69
:104F1000F1EE10FA00F3DB80B7EE007AC7EE297AE3
:104F2000C4ED107ADFED7C6ADFED7C5ADFED7C9A10
:104F3000B7EE007A30EE275AF4EEE68AB0EE476A12
:104F4000EBEE259AF1EE10FAA0EE056AC7EE067AAE
:104F500020EE277AC4ED117A60EE077A84ED127A9A
:104F6000C4ED137A77D4B4EEE8AAF1EE10FA74D552
:104F7000F2EE047AB4EEE7AAF1EE10FA40F1B28054
:104F80009FED620A80EE090A2DF0CCF984ED160A35
:104F9000F6EE007AF4EEE79AF1EE10FA58D4DFED6F
:104FA0005D7AF4EEE79AF1EE10FA00F39380F7EEF3
:104FB000007A87EEA97A84ED177A00239FED596A6B
:104FC00004F17001584A6365F7EE007A236570EECC
:104FD000075A236728EE068AE366F0EE676A534DA8
:104FE000BCEEC88AE0EE256A18EE103A534087EE10
:104FF000A67A1A461D4460EE077A84ED187A20EEF0
:10500000270AC4ED197A84ED1A0AA2F1C342484C6A
:105010004848A2F59102A2F2476282EA1243AA42EC
:1050200004FB03F383EA533300FB03F383EA1343E4
:1050300041F8043FE9D1BDEC088B38BDDFED347A8F
:105040006AEEA77A50E7F2EE027AA8EE270AF0E6B7
:10505000B0EE007AAFE7F0EE668AF4EEEA8AF1EE9F
:1050600010FA3ADD9FED2A0A2AEE800A8AE7F0EE6E
:10507000007A55E7606FFFEE006AD4F88030F0EEFA
:10508000005ADFED2D4AC1189FED2C6A89B207EE58
:10509000101AB8EEC77AD4E91E2587EE245A454087
:1050A000534085EA422158406A404FEA7353B0EEBC
:1050B000667A6067C4F88030C4E91E21A5EE257ABF
:1050C00067EE877A67EE867AC4ED0E7AC3E6DFED87
:1050D0001C7A25E79FED1A7A6DE7DFED0D7A28EE51
:1050E000A70A4FE7F0EE4A8AB7E7F0EE4A7AF1E610
:1050F0006F12833AD95BDE3E6666E63E3333B33FDA
:1051000000009643CDCC4C3F48E1FA3ED2537B425F
:10511000DB0FC94000002042000048439A99193F24
:105120006666663F00409A44D4C3B2A1E4E6DD78E7
:105130006BCAEB8535AEB2C200FF7F470AD7A33BEF
:10514000CDCCCC3C38B590F820302DED0A8B002B1F
:1051500000F02A81D0ED058AF7EE007A9FED957A6E
:10516000044690ED0E8AF4EEC78AD0ED036A38EE5D
:10517000278AD0ED079AF1EE10FA28EE268A20DD74
:105180009FED8D7A90ED0D0A38EE877AA7EE290A09
:10519000B4EEE70AF1EE10FAA8BF30EE670ADFEDD1
:1051A000877A80ED0D0A20EE270A2DF0F9FCF7EE44
:1051B000007A68EE808A9FED827AE8EE877A28EEA0
:1051C000278A94ED0A0AF7EE007ADFED7EAAA8EEB0
:1051D000290ADFED7DBAB4EEE70AF1EE10FAA8BFB6
:1051E00030EE670ADFED797A84ED0A0A20EE270AAD
:1051F0002DF0D6FCDFED766AD4ED0B7AB7EE007AAF
:1052000028EE268AB0EE40AA9FED700AE8EE297AD1
:10521000F4EEC77AF1EE10FAA8BF77EEC77A27EE60
:10522000800AC4ED0B7A2DF0BBFCD4ED098A94ED15
:10523000009AB0EE408ADFED677AB1EE68CA29EED7
:10524000270A8CEE000A2DF02BFADFED636A94ED4D
:1052500001BA28EE2A7A29EE269AF0EE407AAAEED2
:105260002B7A8CEE090A27EE278A2DF019FA616F46
:10527000F0EE403AD4F8803078EEA98AD4ED1C4A9A
:10528000CD18D4ED156AF0EE647A94ED146A05EE4B
:10529000105AB0EE662AF0EE665ADFED502AB8EEEC
:1052A000C55A94ED123A94ED197AA6EE032AD4ED7C
:1052B000130AD5EE227A94ED1B4AD5EE225AD4ED8C
:1052C000181AF0EE642A94ED111AC4ED098AE4EE7E
:1052D000072AA5EEA02A65EE835A27EE873A94EDB9
:1052E0001A7AE1EE065AA1EE843AE7EE872A9FED9C
:1052F0003C7AF2EE021AD4E91E20B0EE655AD4EDE3
:10530000025A63EE2A7A5340484059404FEA735399
:10531000E5EE2B7A616780EA42214240C4F8803092
:10532000C4E91E2167EE807A67EEA57AF3EE0B5A88
:10533000E8EE0B7AB0EE651A67EE877A27EEA77A69
:10534000A7EE211ADFED271A37EE257AF0EE005A84
:10535000F4EEE13A27EE277AF0EE647A95EE256ACC
:1053600087EE010AB0EE447A84ED146AD2EE256A23
:10537000D2EEA57A93EE257AF1EE10FAC4ED156A15
:10538000C4ED1C7A84ED1B7A0AD494ED047AD4ED32
:105390000C7A20EE070ABDEC0A8B20EE270A38BDF6
:1053A000002384F82030F0E7BDEC0A8B9FED0E0A55
:1053B00038BD00BF6F12833ACDCCCC3EDA0FC94066
:1053C0006F12033B3333B33E6666263FDB0FC940A3
:1053D000BE9FEA3FCDCC0C3F6666663F00000030C2
:1053E0003333B33F6F12033A00000000037F13B959
:1053F0009FED570A704710B52DED068BD0ED089A3A
:10540000044690ED020AB1EE69AA90ED018A8AEE97
:10541000000A2DF045F9D4ED06AAD4ED097AB0EED4
:10542000047AF7EE006A28EE077AA7EE008AEAEE21
:10543000887AF4EEE67AB0EE670AF1EE10FAA8BFC9
:1054400037EEE60ADFED437A84ED090A20EE270AFB
:105450002DF0A6FB9FED407AB0EE408A8AEE070A57
:105460002DF01EF9A16C636D94ED117ACA18DFED71
:105470003B3AB0EE475AD4ED107A06EE102AF0EE21
:10548000476AD4ED0E8AF0EE005AB8EEC66AD4ED43
:105490000D4AE7EEA86A94ED0F4AB0EE409A94EDFB
:1054A000000A96EE235A8AEE000A94ED03AA65EEEE
:1054B000288AE5EE046AE4EEA78AD4E9132096EE82
:1054C000A57A53404840D8EEA57A59404FEA735325
:1054D000A16480EA42214240636584ED117A21652E
:1054E000C4ED107AE2642DF0DBF829EE289ADFEDA6
:1054F0001C7AF3EE0B6AB2EE025A9FED1A6AA9EE1D
:105500000A8AF0EE665AB4EEC60A79EEAA9AF1EE6D
:1055100010FA68EE277AC4ED089A27EEA77AE7EE2C
:10552000055A37EE267A27EE277AC7EE257A67EEF8
:10553000807A01D500232377D4ED046A94ED0A7AAA
:1055400027EEA60ABDEC068B20EE070A10BD00BFB1
:1055500000000000DB0FC9400AD7A33B0000003069
:105560006666A63F6F12033AF7EE007A0023002228
:1055700000F5B06170B52DED088B87EE809ADFEDF8
:10558000DA8ADFEDDA7A044681ED000A80ED090A55
:1055900080F82C2060EE288A0364B0EE408A4364D1
:1055A000F4EEE78AF1EE10FA80ED0A9A40F1F58107
:1055B0009FEDCF0A28EE800A78EE089A80EE290A3D
:1055C0002CF0B0FE84ED120A04F16001C94AB7EE76
:1055D000047AF7EE007A30EE076A84ED137AF0EE83
:1055E000676AE0EE066A87EEA67A60EE077A84EDD7
:1055F000147A20EE270AC4ED157A84ED160AA2F17A
:10560000C342BD4EBD4DA2F59102BD48A2F2476214
:1056100082EA1243824206FB03F383EA533305FB1B
:1056200003F383EA134341F8043FE8D1DFEDB57A91
:10563000F4EEE78AF1EE10FA40F18E819FEDAC0AAC
:1056400028EE800A80EE290A2CF06CFEDFEDBC7A91
:10565000DFEDAD6AB7EE007A70EE277AF4EEE68AF7
:10566000B0EE476AB0EE40AAF1EE10FAA0EE276A5B
:1056700087EE06BA60EE0BAA60EE2ABA40F171849A
:10568000F0EE407AB7EE007ADFEDA06A0022C4EDBA
:10569000337A77EEA65AC4ED346AB0EE476A002337
:1056A0009B4804F1E40184F89420A5EEA76A994A86
:1056B00084ED238A84ED249AC4F8A830C4F8AC3071
:1056C00084ED2CAAC7EE066AC4F8B40084ED2EBAA5
:1056D000C4ED2FAAC4ED30BA26EEA77AC4ED356A20
:1056E00067EE277A84ED367AC4ED377AA2F1C342A9
:1056F000814E824DA2F591028748A2F2476282EA6A
:105700001243824206FB03F383EA533305FB03F3A0
:1057100083EA134341F8043FE8D1002304F5A8715C
:105720007E4A84ED428A84ED439A84F81031A2F1D6
:10573000C342714E714DA2F591027948A2F24762BF
:1057400082EA1243824206FB03F383EA533305FBEA
:1057500003F383EA134341F8043FE8D1DFED717AA4
:105760000023002284ED598AF4EEE78A84ED5A9AE8
:1057700084F86C21C4ED667AF1EE10FAC4F8903129
:10578000C4F8943140F10C819FED590A28EE800A4B
:1057900080EE290A2CF0C6FDDFED637A84ED6B0AFA
:1057A00004F5CC71C4ED6C7A604AF7EE006A70EED5
:1057B000277AB0EE666AA0EE276A86EE867A60EEF9
:1057C000077A84ED6D7A20EE270AC4ED6E7A84EDB7
:1057D0006F0AA2F1C342484E484DA2F591025448C7
:1057E000A2F2476282EA1243824206FB03F383EA93
:1057F000533305FB03F383EA134341F8043FE8D135
:10580000DFED4C7A0023002284ED768AF4EEE78AFD
:1058100084ED779A84F8E021C4ED837AF1EE10FAF2
:10582000C4F80432C4F808325AD59FED310A28EE84
:10583000800A80EE290A2CF075FDDFED3B7A84EDBD
:10584000880A04F50371C4ED897A384AF7EE006AD4
:1058500070EE277AB0EE666AA0EE276A86EE867A48
:1058600060EE077A84ED8A7A20EE270AC4ED8B7AFF
:1058700084ED8C0AA2F1C3421F4E204DA2F5910285
:105880002B48A2F2476282EA1243824206FB03F3EC
:1058900083EA533305FB03F383EA134341F8043FE0
:1058A000E8D1F2EE006AD4ED947AB2EE047A0023E5
:1058B00084ED988A67EEA67A84ED999A84F8683226
:1058C000F4EEC77AF1EE10FA6DD4F4EEE87AF1EE68
:1058D00010FA40F34183DFED067A28EEA70A64E070
:1058E0009FED150AA5E700BF48E1FA3E00C05A4502
:1058F000DB0FC940008080BD6BCAEB8535AEB2C2FC
:10590000E4665E360080A24500002F45E4388E3FF5
:105910006EDB363FD4C3B2A1B8AA901A80B3A2C13D
:10592000649A803A0000E1456EDBB63F0DF0ADBAF7
:10593000F1D68B330080BB451D4313472141FF4601
:105940006EDB363FD77189464CCEAB46EFB630475B
:10595000D2537B42ABAA2A3F1FED080A80EE290AE8
:105960002CF0E0FC5FED0A7AB0EE40AA1FED0B0AC6
:10597000B7EE007A80EE290A7AEE277AF0EE476ACF
:10598000E7EE8A6A87EE26BA2CF0CCFCF0EE407A7D
:105990006BEE0AAA6AEE8ABA74E61FED150A0BE6E8
:1059A0001FED160AF4E61FED160A80EE290A2CF008
:1059B000B9FC5FED187A84ED9E0A04F52471C4EDFC
:1059C0009F7AD94AF7EE006A70EE277AB0EE666ADF
:1059D000A0EE276A86EE867A60EE077A84EDA07ADA
:1059E00020EE270AC4EDA17A84EDA20AA2F1C342F7
:1059F000CE4ECF4DA2F59102CE48A2F2476282EA86
:105A00001243824206FB03F383EA533305FB03F39D
:105A100083EA134341F8043FE8D1F2EE006AD4ED83
:105A2000AA7AB2EE047A002384EDAE8A67EEA67AF3
:105A300084EDAF9A84F8C032F4EEC77AF1EE10FA32
:105A40000AD4F4EEE87AF1EE10FA40F38082DFED4A
:105A5000BA7A28EEA70A01E09FEDC10A80EE290A72
:105A60002CF060FCDFEDB57A84EDB40A04F53A71F0
:105A7000C4EDB57AAC4AF7EE006A70EE277AB0EE64
:105A8000666AA0EE276A86EE867A60EE077A84ED73
:105A9000B67A20EE270AC4EDB77A84EDB80AA2F1EF
:105AA000C342A24EA24DA2F59102A248A2F24762C1
:105AB00082EA1243824206FB03F383EA533305FB77
:105AC00003F383EA134341F8043FE8D1F2EE006A9E
:105AD000D4EDC07AB2EE047A002384EDC48A67EE76
