:020000042400D6
:1000000000000220890900247D0900249988002429
:100010007D0900247D0900247D09002400000000E2
:100020000000000000000000000000007D09002426
:100030007D090024000000007D0900241D880024A3
:100040007D0900247D0900247D0900247D09002408
:100050007D0900247D0900247D0900247D090024F8
:100060007D0900247D0900247D090024FD830024EE
:10007000098400247D09002415840024218400249F
:10008000DD3D0124017400247D0900247D09002444
:100090007D0900247D0900247D0900247D090024B8
:1000A0007D0900247D0900247D0900247D090024A8
:1000B000592F0124652F0124712F01243574002448
:1000C0007D090024417400247D090024F9270124BE
:1000D00005280124ED3B01241D3C0124553C01244D
:1000E0007D0900247D090024000000007D09002412
:1000F0007D0900247D0900247D0900247D09002458
:100100007D0900247D0900247D2F0124112801246C
:100110008D3C0124C53C01247D0900247D09002477
:100120007D0900247D090024352801246928012443
:10013000113E01247D0900247D0900247D0900244D
:1001400000000000000000000000000000000000AF
:100150007D0900247D0900247D090024FD3C012443
:100160004D7400247D0900242D880024518800242A
:100170007D090024758800247D0900247D09002460
:100180007D0900247D090024353D01246D3D0124B5
:100190001D280124292801247D0900247D0900242B
:1001A0007D0900247D0900247D0900247D090024A7
:1001B0003D8000247D0900247D0900247D09002460
:1001C0007D0900247D0900247D0900247D09002487
:1001D0007D0900247D0900247D0900247D09002477
:1001E0007D0900247D0900247D0900247D09002467
:1001F0007D0900247D0900247D0900247D09002457
:100200007D0900247D0900247D0900247D09002446
:100210007D0900247D0900247D0900247D09002436
:100220007D0900247D0900247D09002400000000D0
:100230007D0900247D090024000000007D090024C0
:100240007D0900247D0900247D0900247D09002406
:100250007D0900247D0900247D0900247D090024F6
:100260007D0900247D0900247D0900247D090024E6
:100270007D0900247D090024A53D01240000000023
:100280007D0900247D0900247D0900240000000070
:08029000000000007D090024BC
:1002980010B5054C237833B9044B13B10448AFF3B8
:1002A80000800123237010BD00150020000000000D
:1002B8002079012408B5034B1BB103490348AFF368
:1002C800008008BD000000000415002020790124EA
:1002D80081F0004102E000BF83F0004330B54FEAEF
:1002E80041044FEA430594EA050F08BF90EA020F5C
:1002F8001FBF54EA000C55EA020C7FEA645C7FEAEF
:10030800655C00F0E2804FEA5454D4EB5555B8BF11
:100318006D420CDD2C4480EA020281EA030382EA82
:10032800000083EA010180EA020281EA0303362D14
:1003380088BF30BD11F0004F4FEA01314FF4801CE7
:100348004CEA113102D0404261EB410113F0004FF9
:100358004FEA03334CEA133302D0524263EB4303B0
:1003680094EA050F00F0A780A4F10104D5F1200E4E
:100378000DDB02FA0EFC22FA05F2801841F10001A9
:1003880003FA0EF2801843FA05F359410EE0A5F17D
:1003980020050EF1200E012A03FA0EFC28BF4CF0AE
:1003A800020C43FA05F3C01851EBE37101F0004564
:1003B80007D54FF0000EDCF1000C7EEB00006EEB71
:1003C8000101B1F5801F1BD3B1F5001F0CD34908FB
:1003D8005FEA30004FEA3C0C04F101044FEA445252
:1003E80012F5800F80F09A80BCF1004F08BF5FEAD9
:1003F800500C50F1000041EB045141EA050130BDB9
:100408005FEA4C0C404141EB0101013C28BFB1F5CA
:10041800801FE9D291F0000F04BF01460020B1FA15
:1004280081F308BF2033A3F10B03B3F120020CDAE8
:100438000C3208DD02F1140CC2F10C0201FA0CF0C6
:1004480021FA02F10CE002F11402D8BFC2F1200C2B
:1004580001FA02F120FA0CFCDCBF41EA0C019040E1
:10046800E41AA2BF01EB0451294330BD6FEA04042A
:100478001F3C1CDA0C340EDC04F11404C4F1200215
:1004880020FA04F001FA02F340EA030021FA04F327
:1004980045EA030130BDC4F10C04C4F1200220FA7E
:1004A80002F001FA04F340EA0300294630BD21FABC
:1004B80004F0294630BD94F0000F83F4801306BF82
:1004C80081F480110134013D4EE77FEA645C18BF76
:1004D8007FEA655C29D094EA050F08BF90EA020F0D
:1004E80005D054EA000C04BF1946104630BD91EA05
:1004F800030F1EBF0021002030BD5FEA545C05D108
:100508004000494128BF41F0004130BD14F5800446
:100518003CBF01F5801130BD01F0004545F0FE41BA
:1005280041F470014FF0000030BD7FEA645C1ABFEF
:10053800194610467FEA655C1CBF0B46024650EA26
:10054800013406BF52EA033591EA030F41F4002152
:1005580030BD00BF90F0000F04BF0021704730B5D8
:100568004FF4806404F132044FF000054FF00001AD
:1005780050E700BF90F0000F04BF0021704730B56E
:100588004FF4806404F1320410F0004548BF404243
:100598004FF000013EE700BF42004FEAE2014FEA98
:1005A80031014FEA02701FBF12F07F4393F07F4F73
:1005B80081F06051704732F07F4208BF704793F076
:1005C8007F4F04BF41F40021704730B54FF4607489
:1005D80001F0004521F000411CE700BF50EA01028C
:1005E80008BF704730B54FF000050AE050EA010235
:1005F80008BF704730B511F0004502D5404261EBA5
:1006080041014FF4806404F132045FEA915C3FF4E5
:10061800D8AE4FF003025FEADC0C18BF03325FEA82
:10062800DC0C18BF033202EBDC02C2F1200300FA33
:1006380003FC20FA02F001FA03FE40EA0E0021FA58
:1006480002F11444BDE600BF53B94AB9002908BFF6
:1006580000281CBF4FF0FF314FF0FF3000F088B981
:10066800ADF1080C6DE904CE00F006F8DDF804E001
:10067800DDE9022304B070472DE9F047089D8E4656
:1006880004468846002B4AD18A42174662D9B2FAF4
:1006980082F64EB1C6F1200301FA06F820FA03F3F8
:1006A800B74043EA0808B4404FEA174E1FFA87FCE0
:1006B800B8FBFEF1230C0EFB118843EA084301FB4B
:1006C8000CF29A4209D9FB1801F1FF3080F0EA8058
:1006D8009A4240F2E78002393B449A1AA3B2B2FB2D
:1006E800FEF00EFB102243EA024300FB0CFC9C4583
:1006F80009D9FB1800F1FF3280F0D6809C4540F202
:10070800D3803B44023840EA0140A3EB0C030021AC
:100718001DB1F3400022C5E90032BDE8F0878B42E5
:1007280005D90DB1C5E9000100210846F5E7B3FA7E
:1007380083F1002946D1734502D3824200F2058134
:10074800841A6EEB030201209046002DE5D0C5E91E
:100758000048E2E7002A00F09080B2FA82F6002E04
:1007680040F0A4808A1A030C4FEA174E80B2BCB23C
:100778000121B2FBFEFC0EFB1C2243EA024304FBF0
:100788000CF29A4207D9FB180CF1FF3802D29A42B0
:1007980000F2E080C4469B1AB3FBFEF20EFB123354
:1007A80040EA034302FB04F49C4207D9FB1802F118
:1007B800FF3002D29C4200F2CA8002461B1B42EA6A
:1007C8000C40A5E7C1F120068B4022FA06F71F432B
:1007D8000EFA01F420FA06F32EFA06FE4FEA17493C
:1007E800234300FA01F81FFA87FCBEFBF9F01C0C42
:1007F80009FB10EE44EA0E4400FB0CFEA64502FA83
:1008080001F209D93C1900F1FF3A80F09C80A64515
:1008180040F2998002383C44A4EB0E041FFA83FE90
:10082800B4FBF9F309FB13444EEA044403FB0CFC44
:10083800A44508D93C1903F1FF3E80F08280A44505
:100848007FD9023B3C4443EA0040A4EB0C04A0FBE4
:1008580002EC64457346E14662D35FD05DB1B8EB04
:10086800030264EB090404FA06F622FA01F31E43B4
:10087800CC40C5E9006400214FE7B1FBF2FC010C54
:1008880041EA0E4180B240EA01423B4638463C46C6
:10089800B846BE462026B1FBF7F1A2EB080241EAB2
:1008A8000C4166E7014618E710462CE7C6F120021E
:1008B8002EFA02F3B740B14020FA02F24FEA174E7F
:1008C8000A43B3FBFEF8BCB20EFB1833110C41EA25
:1008D800034108FB04F9B04089454FEA104380B250
:1008E8003ED9791808F1FF3C01D289451FD8A1EB00
:1008F8000901B1FBFEF909FB04F80EFB191192B2CC
:1009080042EA0142424529D2BA1809F1FF31C4D25C
:100918004245C2D2A9F102013A44BEE7F0459DD250
:10092800BEEB02036CEB070C0138E14696E7A7EB38
:1009380009094944A8F1020CB1FBFEF909FB04F8C6
:10094800DBE773467FE7504666E70846FDE63B442B
:10095800023A33E7ACF1020C3B441CE749469CE7FA
:10096800A1EB0901C446B1FBFEF909FB04F8C4E791
:10097800704700BF684620F007018D46FEE700BFBC
:100988000A480B4A904208B503D0121A094916F0D2
:10099800D7FC0948094A904203D0121A002116F0E0
:1009A8009DFC16F0A9FC03F017FCFEE700000020F0
:1009B800001500205479012400150020305600202D
:1009C800704700BF704700BF704700BF704700BF47
:1009D800704700BF704700BF704700BF704700BF37
:1009E800F2EE0E7A08B52DED028BF7EE008AB0EE26
:1009F800608AE0EEA78A28EE800A032823D8DFE879
:100A080000F0392F2002B7EE006AFFEE006AB0EE60
:100A1800007AB4EEC60AF0EE667AF8EE005AF1EE05
:100A280010FA06DD37EE400AB4EEE70AF1EE10FAE6
:100A380004D4B4EEE60AF1EE10FA04D535EEC00A95
:100A4800E1E715F0D9FEC0EE287AB6EE007AB7EEE7
:100A5800000AA8EE070ABDEC028B27EE800A08BD43
:100A6800FFEE007AB4EEE70AF1EE10FA1BD5B0EE0D
:100A7800670AE8E7F7EE087AB4EEE70AF1EE10FA4B
:100A88001ADCFFEE087AB4EEE70AF1EE10FA16D493
:100A980060EE007AF1EE0B6A67EE807A87EEA67A4E
:100AA80030EE470ACFE7F7EE007AB4EE670AF1EEC8
:100AB80010FA37FE800AC6E7B7EE000AC3E7BFEEB2
:100AC800000AC0E7037F002B00F0C28090ED090AFE
:100AD800F7EE007A10B52DED0C8BD0ED069A044692
:100AE80090ED038AB7EE00AAA8EE290AB4EEE70A49
:100AF800F1EE10FAA8BF30EE670ADFED577A80ED05
:100B0800090A20EE270A16F023FADFED546AD4ED1D
:100B18000A7AB7EE007A28EE268AF0EE408A9FED30
:100B28004E0AE9EE887A9FED4E8AF4EEC77AF1EE26
:100B380010FAA8BF77EEC77A27EE800AC4ED0A7AC2
:100B480016F006FA94ED08BA94ED00CAB0EE409A91
:100B5800F1EE4BCA2CEE080A8CEE800A15F0DEFF87
:100B6800DFED406A94ED057ADFED3F7A236BC6EE40
:100B780087AA94ED01DA83EA433383EA534329EEE3
:100B8800279A83EA43132363A8EE889A08EE103A5B
:100B9800BAEEE08A29EE009AB0EE6A0A16F0D8F9A1
:100BA800F0EE087AB0EE407AD4ED0EBAB0EE6A0AEA
:100BB800C7EE27AA16F090FA94ED0D7A9FED2B6AEE
:100BC800DFED2B6A84ED0E7A70EE007A84ED0D8AE3
:100BD8008CEE8C0A6AEEEB8A7AEE8ADA3AEE6AAA28
:100BE800EAEE888AE7EE878AF0EE687AEBEECA7A50
:100BF800C7EEAD8A68EE868AE8EE268A15F08EFF83
:100C080094ED027AF7EE087AB0EE408A79EE8B9A84
:100C180068EE808A68EE878AE9EE0D8A28EEA70AD0
:100C280015F0EAFDDFED137AC4ED089AB4EEE78A11
:100C3800F1EE10FA01D50023237794ED047AD4ED70
:100C48000B7A20EE070ABDEC0C8B20EE270A10BDAC
:100C58009FED090A704700BFDB0FC940BE9FEA3FFE
:100C68009A99193FDB6FF546CDCCCC3E3333333FF1
:100C78009A99993E6F12833A0000000038B5037DB7
:100C88002DED068B002B00F0B280036A044690ED30
:100C9800068A002583EA4333DFED578A83EA534304
:100CA80083EA43130AEE103A0362BAEEE0AA07EEAB
:100CB800905AB0EE480A9FED517AF8EEE77AA7EE1F
:100CC800C70AB5EEC00AF1EE10FA04DBB4EEC70AA3
:100CD800F1EE10FA69D40135042DE8D19FED480AE8
:100CE800D4ED009AB4EEC08AF1EE10FA74DAD4EDBD
:100CF800015A9FED446ADFED447ADFED446AE5EE80
:100D0800867A94ED037A67EEA67AC7EE87AAB0EEE4
:100D18006A0A16F01DF9B0EE409AB0EE6A0A16F0AB
:100D2800DBF9B5EE007AF7EE005A94ED0A5A70EE48
:100D3800007AD4ED094A29EE070AC4ED0A4A30EED2
:100D4800254A20EE456A35EEC07AC5EE846AA0EEE3
:100D58000A6A67EEA67A27EE267A67EEA47AE6EEA6
:100D6800267AE5EE477A28EEA70AC4ED097A30EE2E
:100D7800000A15F041FD94ED047ADFED257A38EE8E
:100D8800078A79EEA79A84ED068AB4EEE98AF1EE2D
:100D980010FA17DC94ED027AD4ED077A20EE070AF0
:100DA800BDEC068B20EE270A38BDB1EE400ADFED18
:100DB800197A80EE270A15F0B1FEF6EE007AE0EE19
:100DC800278A88E7DFED147AF4EEE78AF1EE10FA65
:100DD800E0D500232375DDE738EE400AB1EE400A7E
:100DE80080EE290A15F09AFE78EE808A7FE7BDEC3E
:100DF800068B9FED010A38BD000000004260E53B0C
:100E08004260E53C00803B4500009644DB0FC9404A
:100E1800CDCC4C3D6F12033B6F12833A38B590F836
:100E2800203004462DED088B002B40F0E185DFEDE6
:100E3800A68A04F13000FFF745FE04F16C0030EE9D
:100E4800288AFFF71BFF94F8A03038EE008A002BA1
:100E580040F04585DFED9C7A94F8E43038EE278A37
:100E6800002B40F0B384DFED987A94F8383138EEEF
:100E7800278A002B40F05784DFED937A94F860318D
:100E880038EE278A002B40F0FB83DFED8F7A94F849
:100E9800883138EE278A002B40F0A083DFED8A7A6C
:100EA80094F8AC3138EE278A002B40F04383DFED0D
:100EB800867A94F8D03138EE278A002B40F0C88221
:100EC800DFED817A94F8F43138EE278A002B40F070
:100ED8006282DFED7D7A94F8183238EE278A002B8B
:100EE80000F0B38294ED827AF7EE007A94ED859A59
:100EF80094ED880AA7EE090AB4EEE70AF1EE10FAB3
:100F0800A8BF30EE670ADFED6D7A84ED880A20EE1F
:100F1800270A16F01DF8D4ED879AF0EE408AD4ED32
:100F2800817AB1EE690A80EE270A15F0F7FD9FED88
:100F3800657AB4EEC70A39EE299A68EE807AF1EE3E
:100F480010FA84ED879A00F1AA80D4ED836A94EDB3
:100F5800897A67EEA67A67EE877A94F83C3238EE9B
:100F6800278A002B40F0C481DFED577A94F8683265
:100F780038EE278A002B40F0A980DFED537A94F8E9
:100F88008C3238EE278A002B00F00F81D4EDA29A1C
:100F9800F7EE007A94EDA57AF6EE005ADFED426A94
:100FA800FFEE008A9FED416AA9EEA67AD4EDA4AAC5
:100FB800F7EE006A9FED3E0AB1EE6A9A89EE000AE2
:100FC800B4EEE77AF1EE10FAA8BF37EE677AD4EDFF
:100FD800A67AE9EE867AB4EEE57A84EDA57ABFEED4
:100FE800006AB7EE007AF1EE10FAF4EEE67A48BF3E
:100FF800F0EE668AF1EE10FAA8BF77EEE67AF6EE22
:10100800006AC4EDA67AF4EEE67AF1EE10FA58BF5B
:10101800B0EE467A78EE878A68EEA68A15F07EFDED
:10102800B0EE40AA94ED9F0A89EE000A15F076FD0D
:10103800DFED206A3AEE40AAB0EE407AF7EE087A81
:10104800B0EE409AAAEE267A79EEAA9A68EE878AD6
:1010580028EEA70A15F0D0FBDFED1A7AC4EDA49AA2
:10106800B4EEE79AF1EE10FA15D494EDA07AD4ED27
:10107800A77A20EE070A94F8A83220EE270A38EE5D
:10108800008A002B40F09A809FED0F0A38EE000A84
:10109800BDEC088B38BD002384F88C32E5E70023CB
:1010A80084F8183251E700BF0000074400004844A4
:1010B800A69B443B9A99993E17B7513ADB0FC94012
:1010C8006666E63F6F12833A00000000D4F8783273
:1010D800D4ED9B9A83EA43331FED090AB1EE699A6E
:1010E80083EA534383EA431589EE000AC4F8785229
:1010F80008EE905A15F012FD94ED99BA94ED967A8F
:10110800D4ED9C7AFAEEE08AF6EE006AE7EE0B7A06
:10111800B7EE007A68EE808AB0EE40AA1FED190A91
:1011280068EEA68AF4EEC77AF1EE10FAA8BF77EE59
:10113800C77A27EE800AC4ED9C7A15F009FFD4ED32
:10114800957AF0EE40AA89EE270A15F0E7FC5FEDE4
:10115800247AEAEE808AB0EE409A79EE8B9A28EEED
:10116800A70A15F049FB1FED297AF0EE407AC4ED85
:101178009B9AB4EEC79AF1EE10FA07D5B4EEC7AA57
:10118800F1EE10FA02D5002384F86832D4ED976A9C
:1011980094ED9D7A67EEA67A94F88C3267EE877A9A
:1011A80038EE278A002B7FF4F1AE1FED390A94F848
:1011B800A83238EE008A002B3FF466AFD4EDA99A26
:1011C80004F52D73CC4A04F53371DFEDCC6AF3ECEA
:1011D800017AB7EE007AB2EC016AB7EE009AE6EE51
:1011E800297AB6EE006AF4EEC77AF1EE10FAA8BFD3
:1011F80077EEC77ABFEE007AF4EEC67A43ED017A4D
:10120800F1EE10FA54BFF0EE477AF0EE497A9942BF
:1012180076EEA76ADBD1B1EE086AD4F8CC329FED3E
:10122800B87A83EA4333DFEDB75AC6EE867AD4ED4F
:10123800B58A83EA534394EDB46AD4EDABAA83EA42
:10124800431394EDB60A39EE875AC4F8CC32B1EE9E
:101258006ABAC7EE056A07EE103ABAEEE07A8BEE84
:10126800000AE7EE257A77EEA88AC4EDB47A78EE1C
:10127800C68A68EEA68AC4EDB58A15F04FFCDFED84
:10128800A27AB0EE40AA8BEE270A15F047FC94ED3F
:10129800B76ADFED9E6A9FED9E7A79EE407A9FED00
:1012A8009D0AA6EE267A68EE8A8A7AEEA9AA67EEE1
:1012B800A87A67EE877A27EE800A15F09DFADFEDA7
:1012C800967AC4EDABAAB4EEE7AAF1EE10FA02D50D
:1012D800002384F8A83294EDB87AD4EDAC7A20EEE5
:1012E800070A20EE270A38EE000ABDEC088B38BD45
:1012F80094ED8B7AB7EE006ADFED887AD4ED909A98
:10130800E7EE277ADFED885AB1EE690A94ED8A7A1A
:10131800D4F84832D4ED948A80EE070A83EA43333E
:10132800D4ED936A83EA534394ED8E9A83EA431388
:1013380067EEA57AC4F8483286EE277A07EE903A27
:10134800FAEEE07A77EEA88AC4ED937A78EEE68A28
:1013580077EE096AC7EE267A68EEA78AC4ED948A02
:1013680015F0DCFB9FED727A39EE299AB4EEC70AC4
:1013780068EE807A84ED909AF1EE10FA02D5002397
:1013880084F83C32D4ED8C6A94ED917A67EEA67AB3
:1013980067EE877AEAE594ED7E9A9FED610AF1EEB1
:1013A80049AAD4ED798A8AEE800A15F0B7FB94ED44
:1013B8007CAAD4ED7F7AB7EE087AF7EE006A28EEB9
:1013C800877AE7EE008AE8EE8A7AF4EEE67AB0EEFB
:1013D800670AF1EE10FAA8BF37EEE60ADFED527A97
:1013E80084ED7F0A20EE270A15F0B2FDD4ED787A55
:1013F800F0EE409A8AEEA70A15F090FBDFED497AE5
:10140800F0EE408A29EEA70A15F0F6F99FED487A22
:1014180039EE0A9AF4EEC78A68EE807A84ED7E9AED
:10142800F1EE10FA02D5002384F8F431D4ED7A6A8B
:1014380094ED807A67EEA67A94F8183267EE877A88
:1014480038EE278A002B7FF44DADDFED2C7A84E54A
:1014580094ED759A9FED320AF1EE49AAD4ED708A9F
:101468008AEE800A15F05AFB94ED73AAD4ED767AC9
:10147800B7EE087AF7EE006A28EE877AE7EE008A78
:10148800E8EE8A7AF4EEE67AB0EE670AF1EE10FA40
:10149800A8BF37EEE60ADFED247A84ED760A20EE5F
:1014A800270A15F055FDD4ED6F7AF0EE409A8AEED2
:1014B800A70A15F033FBDFED1B7AF0EE408A29EE20
:1014C800A70A15F099F99FED1A7A39EE0A9AF4EEFF
:1014D800C78A68EE807A84ED759AF1EE10FA02D523
:1014E800002384F8D031D4ED716A94ED777A67EEF1
:1014F800A67A67EE877AE5E400740124000000000C
:10150800C583DE379A99193E6F12033B9A99193FA2
:10151800CDCCCC3E6666E63F6F12033A00409C4550
:101528008FC2753CCDCC8C3FDB0FC9409A99993F4F
:101538006F12833A94ED6C9A1FED070AF1EE49AAEF
:10154800D4ED678A8AEE800A15F0E8FA94ED6AAA63
:10155800D4ED6D7AB7EE087AF7EE006A28EE877A4E
:10156800E7EE008AE8EE8A7AF4EEE67AB0EE670AE9
:10157800F1EE10FAA8BF37EEE60A5FED157A84EDB2
:101588006D0A20EE270A15F0E3FCD4ED667AF0EE3A
:10159800409A8AEEA70A15F0C1FA5FED1E7AF0EEBE
:1015A800408A29EEA70A15F027F91FED1F7A39EEB0
:1015B8000A9AF4EEC78A68EE807A84ED6C9AF1EEA6
:1015C80010FA02D5002384F8AC31D4ED686A94EDA2
:1015D8006E7A67EEA67A67EE877A6AE494ED639A84
:1015E80094ED5E0AF1EE49AAD4ED5D8A8AEE800A8E
:1015F80015F094FA94ED61AAD4ED647A78EEA86AAD
:10160800B7EE007AE6EE808AE8EE8A7AF4EEC77AD8
:10161800B0EE670AF1EE10FAA8BF37EEC70A5FED21
:101628003E7A84ED640A20EE270A15F091FCD4ED89
:101638005C7AF0EE409A8AEEA70A15F06FFA5FED31
:10164800457AF0EE408A29EEA70A15F0D5F81FED85
:10165800487A39EE0A9AF4EEC78A68EE807A84ED01
:10166800639AF1EE10FA02D5002384F88831D4ED9C
:101678005F6A94ED657A67EEA67A67EE877A0FE47B
:1016880094ED599A94ED540AF1EE49AAD4ED538A8F
:101698008AEE800A15F042FA94ED57AAD4ED5A7AE8
:1016A80078EEA86AB7EE007AE6EE808AE8EE8A7AE3
:1016B800F4EEC77AB0EE670AF1EE10FAA8BF37EE7B
:1016C800C70A5FED677A84ED5A0A20EE270A15F0FB
:1016D8003FFCD4ED527AF0EE409A8AEEA70A15F054
:1016E8001DFA5FED6E7AF0EE408A29EEA70A15F032
:1016F80083F81FED717A39EE0A9AF4EEC78A68EE1C
:10170800807A84ED599AF1EE10FA02D5002384F814
:101718006031D4ED556A94ED5B7A67EEA67A67EE90
:10172800877AFFF7B4BB94ED4F9A94ED4A0AF1EE2D
:1017380049AAD4ED498A8AEE800A15F0EFF994EDAA
:101748004DAAD4ED507A78EEA86AB7EE007AE6EEA4
:10175800808AE8EE8A7AF4EEC77AB0EE670AF1EE8C
:1017680010FAA8BF37EEC70A5FED917A84ED500AE8
:1017780020EE270A15F0ECFBD4ED487AF0EE409AFB
:101788008AEEA70A15F0CAF95FED987AF0EE408A5A
:1017980029EEA70A15F030F81FED9B7A39EE0A9A60
:1017A800F4EEC78A68EE807A84ED4F9AF1EE10FA6B
:1017B80002D5002384F83831D4ED4B6A94ED517A80
:1017C80067EEA67A67EE877AFFF758BBD4ED389AAA
:1017D80004F1F003C04A04F58471DFEDC06AF3EC4C
:1017E800017AB7EE007AB2EC016AF6EE008AE6EE0C
:1017F800297ABFEE006AF4EEC77AF1EE10FAA8BFB4
:1018080077EEC77AB7EE007AF4EEE87A43ED017A1C
:10181800F1EE10FA54BFF0EE467AF0EE477A9942AC
:1018280076EEA76ADBD1B1EE086AD4F808319FEDED
:10183800AC7A83EA4333DFEDAB5AC6EE867A94ED91
:10184800449A83EA534394ED436AD4ED3AAA83EA6F
:10185800431394ED455A79EE874AC4F80831B1EE3E
:101868006A0AC7EE246A07EE103ABAEEE07A80EE0A
:10187800050AE7EE257A37EE899AC4ED437A39EE00
:10188800469A29EE269A84ED449A15F047F9D4ED44
:10189800467A29EE009AE7EEA88AB0EE40AA7AEED8
:1018A800A9AA29EE280A30EE000A14F0A5FF9FED38
:1018B8008E7AF0EE407AC4ED3AAAB4EEC7AAF1EEF9
:1018C80010FA02D5002384F8E430D4ED476A94ED89
:1018D8003B7A67EEA67A67EE877AFFF7C6BAD4ED49
:1018E800279A04F1AC037C4A04F1C401DFED7B6A5A
:1018F800F3EC017AB7EE007AB2EC016AF6EE008AF0
:10190800E6EE297ABFEE006AF4EEC77AF1EE10FA35
:10191800A8BF77EEC77AB7EE007AF4EEE87A43ED1F
:10192800017AF1EE10FA54BFF0EE467AF0EE477AFB
:10193800994276EEA76ADBD1B1EE086AD4F8C430D2
:101948009FED677A83EA4333DFED665AC6EE867AFF
:1019580094ED339A83EA534394ED326AD4ED29AA7D
:1019680083EA431394ED345A79EE874AC4F8C430B5
:10197800B1EE6A0AC7EE246A07EE103ABAEEE07AC8
:1019880080EE050AE7EE257A37EE899AC4ED327AB9
:1019980039EE469A29EE269A84ED339A15F0BEF868
:1019A800D4ED357A29EE009AE7EEA88AB0EE40AA7F
:1019B8007AEEA9AA29EE280A30EE000A14F01CFFD4
:1019C8009FED497AF0EE407AC4ED29AAB4EEC7AA91
:1019D800F1EE10FA02D5002384F8A030D4ED366A6F
:1019E80094ED2A7A67EEA67A67EE877AFFF734BA1B
:1019F800D0ED098A90ED020AB1EE68AA90ED018A4D
:101A08008AEE000A15F08AF8D4ED07AAD4ED0A7A0E
:101A1800B2EE007AF7EE006A28EE077AA7EE008A9F
:101A2800E8EE2A7AF4EEE67AB0EE670AF1EE10FAFA
:101A3800A8BF37EEE60ADFED2D7A84ED0A0A20EE1C
:101A4800270A15F085FAD4ED037AB0EE409A8AEEAB
:101A5800270A15F063F8DFED267AB0EE408A28EE03
:101A6800A70A15F075FAD4ED007AF0EE409A8AEEDE
:101A7800270A15F053F8DFED1F5A94ED046A68EE53
:101A8800297AF0EE086AB7EE007AA7EEA59AB0EECA
:101A9800408AA6EE267A78EEAA8A29EE070A14F07A
:101AA800ABFEDFED117AC4ED098AB4EEE78AF1EEF8
:101AB80010FA02D5002384F8203028EE008A94ED2D
:101AC800057AD4ED0B7ADFED058A28EE078AE8EE71
:101AD800278AFFF7AEB900BF007401240000000098
:101AE800C583DE379A99193E6F12833ADB0FC940D6
:101AF800959EEB459A99993E38B5037D2DED068B59
:101B0800002B00F0B780036A054690ED068A002492
:101B180083EA4333DFED5A8A83EA534383EA431364
:101B280009EE903A0362FAEEE09A02E00134062CDC
:101B380022D007EE904AB0EE480A9FED527AF8EEAE
:101B4800E77AA7EEC70AB5EEC00AF1EE10FAEDDBA8
:101B5800B4EEC70AF1EE10FAE8D5B1EE400ADFEDAF
:101B68004A7A013480EE270A14F0D8FFDFED477A6D
:101B7800062CE0EE278ADCD1DFED457A95ED009A58
:101B8800B4EEE78AF1EE10FA69DAD5ED015A9FED65
:101B9800416ADFED417ADFED416AE5EE867A95ED3F
:101BA800037A67EEA67AC7EE87AAB0EE6A0A15F03E
:101BB800CFF9B0EE40AAB0EE6A0A15F08DFAF1EE50
:101BC800046AB7EE005AD5ED0A4A70EE007A95ED30
:101BD800094A8AEE267A85ED0A4AF0EE043A37EE8B
:101BE800053A67EE645A75EE476A85EE036AE7EED2
:101BF800295A67EE867A26EE867A67EE847AE5EECB
:101C0800867AE4EEC77A28EEA70AC5ED097A20EEAF
:101C1800230A14F0F1FD95ED047ADFED217A38EE10
:101C2800078A39EE279A85ED068AB4EEC98AF1EE5D
:101C380010FA0ADC95ED027AD5ED077A20EE070A4C
:101C4800BDEC068B20EE270A38BDDFED167AF4EEE0
:101C5800E78AF1EE10FAEDD500232B75EAE778EE66
:101C6800677AB1EE670A80EE090A14F057FF78EE3A
:101C7800808A8AE7BDEC068B9FED010A38BD00BF5C
:101C8800000000000AD7A33BA69BC43ACDCCCC3EAB
:101C98008FC2F53C00007A450000E144DB0FC940E3
:101CA8008FC2753D6F12833A38B590F820300446DC
:101CB8002DED0A8B002B40F0F780DFEDE89A94F8C1
:101CC8004C30002B00F09B8094ED129AF7EE007ACE
:101CD80094ED0F8A94ED150AA8EE090AB4EEE70A06
:101CE800F1EE10FAA8BF30EE670ADFEDDD7A84ED79
:101CF800150A20EE270A15F02BF9DFEDDA6AD4ED84
:101D0800167AB7EE007A28EE268AF0EE40AA9FED02
:101D1800D40AE9EE087AF4EEC77AF1EE10FAA8BF11
:101D280077EEC77A27EE800AC4ED167A15F010F917
:101D380094ED0CBA94ED14CAF0EE408ADFEDCA7A3D
:101D4800F1EE4CBA2BEE270A8BEE800A14F0E6FE71
:101D5800DFEDC67A236E94ED1A8A83EA4333D4ED15
:101D6800196A39EE275ADFEDC25A83EA53439FEDC9
:101D7800C16A68EEA58A87EE857A83EA431307EE7F
:101D8800903A2366FAEEE07AB0EE40AA8BEE8B0A20
:101D980094ED0DBAC4ED197A37EE888AEAEE868A90
:101DA80038EE668A28EE078A84ED1A8A14F0B6FEA1
:101DB80028EE008A94ED0E7AF7EE087A2AEE28AA21
:101DC80028EE078AF0EE40AA39EE0C9A28EE278A08
:101DD800AAEE0B8A38EE080A14F00EFDDFEDA67A9B
:101DE80084ED149AF4EEE7AAF1EE10FA58D494EDC3
:101DF800107AD4ED177A20EE070AE0EE279A04F15C
:101E08006C00FFF779FE94F8A03030EE298A002B99
:101E180040F06584DFED917A94F8E43038EE278A53
:101E2800002B40F0D183DFED8D7A94F83C3138EE09
:101E3800278A002B40F05E83DFED887A94F86831BA
:101E480038EE278A002B40F0EB82DFED847A94F895
:101E5800943138EE278A002B40F05E82DFED7F7ADE
:101E680094F8AC3138EE278A002B40F0B981DFEDC9
:101E78007B7A94F8F03138EE279A002B40F00881ED
:101E8800DFED767A94F8403279EE278A002B40F01D
:101E980083809FED720A38EE800ABDEC0A8B38BD4C
:101EA800002384F84C30A2E7D0ED099A90ED020A9D
:101EB800B1EE69AA90ED018A8AEE000A14F02EFEAE
:101EC800D4ED0A7AD4ED07AAB2EE087AF7EE006AE2
:101ED80028EE077AA7EE008AE8EE2A7AF4EEE67A88
:101EE800B0EE670AF1EE10FAA8BF37EEE60ADFEDAA
:101EF8005C7A84ED0A0A20EE270A15F029F8DFED4E
:101F08005E7AF0EE408A8AEE270A14F007FEDFEDCB
:101F18005B7AB0EE408A29EEA70A15F019F894ED1D
:101F280000BA28EE008AD4ED037A8AEE0B0A28EE6E
:101F3800278A14F0F3FDD4ED04BAB0EE409ADFED31
:101F4800507AF4EEE7BAF1EE10FA00F3538478EE23
:101F5800888A9FED4C0A28EE800A14F04DFCDFEDCC
:101F6800466A39EEAA7AB4EEE69AF0EE407A84ED43
:101F7800097AF1EE10FA02D5002384F8203067EED2
:101F8800897AD4ED056A94ED0B7ADFED349A67EE21
:101F9800A67AE7EE879A92E6D4F8503294ED91AAA1
:101FA80083EA43339FED380AB1EE4A9A83EA5343F2
:101FB80083EA431589EE000AC4F8505214F0AEFDC6
:101FC800D4ED8C5AD4ED8FAA07EE905A94ED927AFC
:101FD800F7EE006AFAEEE07A9FED2C6AA5EEAA7A8F
:101FE80067EE807A9FED1E0A27EE868AB4EEE67ABF
:101FF800F1EE10FAA8BF37EE667A27EE000A84EDF4
:10200800927A14F0A5FFD4ED8B7AF0EE409A89EE1F
:10201800270A14F083FDA9EE808AB0EE409A38EEC4
:10202800080A14F0E9FB9FED147A7AEE2A7AB4EEE6
:10203800C79AC4ED917AF1EE10FA02D5002384F81C
:10204800403294ED8D7AD4ED937A20EE070A20EE93
:10205800270A38EE800ABDEC0A8B38BD0000000064
:10206800DB0FC940CDCCCC3FCDCCCC3EC5835E3850
:102078009A99993E3333333F6F12833A1D439346FF
:102088000AD7233C6666E63F6F12033A9A99193FCE
:10209800D4ED7BAA04F5FE73D44A04F50571DFED8F
:1020A800D46AF3EC017AB7EE007AB2EC016AB6EEC4
:1020B80000AAF7EE008AE6EE2A7AF4EEC77AF1EE85
:1020C80010FAA8BF77EEC77ABFEE007AF4EECA7AA4
:1020D80043ED017AF1EE10FA54BFF0EE477AF0EED4
:1020E800687A8B4276EEA76ADBD1F1EE087AD4F8EB
:1020F80014329FEDC07A83EA43339FEDBFCA86EE60
:10210800A76ADFEDBEBA83EA5343D4ED877AD4EDEC
:10211800864A83EA431394ED7DBA9FEDB90A7AEEB5
:10212800876AF1EE4B9A87EE265A07EE103A83EA51
:10213800433383EA5343F8EEC76A83EA431589EECB
:10214800800AC4F8145266EE8C5AF0EE466AE5EE40
:10215800AB6A36EEA78AC4ED866A38EE648A28EE42
:10216800058A84ED878A14F0D9FCD4ED887A78EE54
:10217800C08A89EEA70A14F0D1FC07EE905A94EDB4
:10218800897ADFEDA56AF8EEE77AE7EE0A6AF0EEFB
:10219800409A67EE8C7AA7EEAB8A60EE087A67EE13
:1021A800A87A27EEA60A30EE000A14F025FBDFED28
:1021B800956A3BEE2A7AF4EEE69AF0EE407A84EDE0
:1021C8007D7AF1EE10FA02D5002384F8F031D4EDCF
:1021D8008A6A94ED7E7A67EEA67A67EE877A51E688
:1021E80094ED6AAA04F5DC73804A04F5E871DFED22
:1021F800806AF3EC017AB7EE007AB2EC016AF7EE86
:10220800009AE6EE0A7AB6EE006AF4EEC77AF1EEC4
:1022180010FAA8BF77EEC77ABFEE007AF4EEC67A56
:1022280043ED017AF1EE10FA54BFF0EE477AF0EE82
:10223800697A994276EEA76ADBD1B1EE087AD4F8CA
:10224800D031DFED6C7A83EA43339FED6C5A86EE2A
:10225800876AD4ED768A83EA5343D4ED755A94EDB0
:102268006CBA83EA43139FED690A7AEE276AC4F8C9
:10227800D031B1EE4B9A87EEA67A07EE903AFAEE95
:10228800E07A89EE000AF0EE466AE7EE856A76EEB5
:10229800A88AC4ED756A78EEE58A68EE878AC4ED87
:1022A800768A14F03BFCD4ED777AF0EE40AA89EEFA
:1022B800270A14F033FC9FED547A94ED786ADFED29
:1022C800566AB0EE409AE6EE076A79EEEA7A68EE68
:1022D800898AB7EE080A67EEA87A67EEA67A27EE2B
:1022E800800A14F089FADFED476A3BEE0A7AB4EE09
:1022F800E69AF0EE407A84ED6C7AF1EE10FA02D5A7
:10230800002384F8AC31D4ED796A94ED6D7A67EEE8
:10231800A67A67EE877AACE5D4ED669A94ED600A02
:10232800B1EE69AAD4ED5F8ADFED38AA8AEE000A19
:1023380014F0F4FB94ED64BAD4ED677AB0EE087A41
:10234800F7EE006A28EE877AE7EE008AE8EE8B7AE5
:10235800F4EEE67AB0EE670AF1EE10FAA8BF37EEAF
:10236800E60ADFED2B7A84ED670A20EE270A14F0DF
:10237800EFFDB0EE409A8AEE2A0A14F0CFFBDFEDAB
:10238800257AF0EE408A29EEA70A14F0E1FD94EDD3
:102398005E7A68EE808AD4ED617A8AEE070A68EE82
:1023A800A78A14F0BBFB9FED1C7ADFED1C7AA8EE20
:1023B800879AF0EE408A29EE270A14F01DFAF4EE07
:1023C800EA8A39EE8B7A68EE807AF1EE10FA84EDBB
:1023D800667A02D5002384F89431D4ED626A94EDCC
:1023E800687A67EEA67A67EE877A39E5E87301249A
:1023F800000000000403B23700000030CDCC4C3E92
:10240800A69B443B6F12033ACDCCCC3E6F12833A65
:10241800DB0FC9401D4313469A99993E3333B33FA6
:10242800D4ED5B9A94ED550AB1EE69AAD4ED548ABD
:102438005FED0AAA8AEE000A14F070FB94ED59BA0F
:10244800D4ED5C7AB0EE087AF7EE006A28EE877A67
:10245800E7EE008AE8EE8B7AF4EEE67AB0EE670AE9
:10246800F1EE10FAA8BF37EEE60A5FED177A84EDB1
:102478005C0A20EE270A14F06BFDB0EE409A8AEE53
:102488002A0A14F04BFB5FED1D7AF0EE408A29EE24
:10249800A70A14F05DFD94ED537A68EE808AD4EDB6
:1024A800567A8AEE070A68EEA78A14F037FB1FED02
:1024B800267A5FED267AA8EE879AF0EE408A29EE12
:1024C800270A14F099F9F4EEEA8A39EE8B7A68EE65
:1024D800807AF1EE10FA84ED5B7A02D5002384F855
:1024E8006831D4ED576A94ED5D7A67EEA67A67EEA7
:1024F800877AACE4D4ED509A94ED4A0AB1EE69AA11
:10250800D4ED498A5FED3FAA8AEE000A14F006FB73
:1025180094ED4EBAD4ED517AB0EE087AF7EE006A2F
:1025280028EE877AE7EE008AE8EE8B7AF4EEE67A10
:10253800B0EE670AF1EE10FAA8BF37EEE60A5FEDD3
:102548004C7A84ED510A20EE270A14F001FDB0EE12
:10255800409A8AEE2A0A14F0E1FA5FED527AF0EE18
:10256800408A29EEA70A14F0F3FC94ED487A68EE45
:10257800808AD4ED4B7A8AEE070A68EEA78A14F0AF
:10258800CDFA1FED5B7A5FED5B7AA8EE879AF0EEE5
:10259800408A29EE270A14F02FF9F4EEEA8A39EE78
:1025A8008B7A68EE807AF1EE10FA84ED507A02D5D3
:1025B800002384F83C31D4ED4C6A94ED527A67EEEE
:1025C800A67A67EE877A39E4D4ED389A04F1F003F5
:1025D800944A04F58471DFED946AF3EC017AB7EE5E
:1025E800007AB2EC016AF6EE008AE6EE297ABFEECE
:1025F800006AF4EEC77AF1EE10FAA8BF77EEC77A50
:10260800B7EE007AF4EEE87A43ED017AF1EE10FACB
:1026180054BFF0EE467AF0EE477A994276EEA76A12
:10262800DBD1B1EE086AD4F808319FED807A83EAED
:102638004333DFED7F5AC6EE867A94ED449A83EAF7
:10264800534394ED436AD4ED3AAA83EA431394EDD5
:10265800455A79EE874AC4F80831B1EE6A0AC7EEDE
:10266800246A07EE103ABAEEE07A80EE050AE7EE41
:10267800257A37EE899AC4ED437A39EE469A29EEDF
:10268800269A84ED449A14F049FA94ED467A29EE94
:10269800009AE7EE288AF0EE047AB0EE40AA7AEEC5
:1026A800A9AA29EE289A29EE270A14F0A5F89FED81
:1026B800617AF0EE407AC4ED3AAAB4EEC7AAF1EE18
:1026C80010FA02D5002384F8E430D4ED476A94ED7B
:1026D8003B7A67EEA67A67EE877AFFF7A6BBD4ED5A
:1026E800279A04F1AC034F4A04F1C401DFED4E6AA6
:1026F800F3EC017AB7EE007AB2EC016AF6EE008AE2
:10270800E6EE297ABFEE006AF4EEC77AF1EE10FA27
:10271800A8BF77EEC77AB7EE007AF4EEE87A43ED11
:10272800017AF1EE10FA54BFF0EE467AF0EE477AED
:10273800994276EEA76ADBD1B1EE086AD4F8C430C4
:102748009FED3A7A83EA4333DFED395AC6EE867A4B
:1027580094ED339A83EA534394ED326AD4ED29AA6F
:1027680083EA431394ED345A79EE874AC4F8C430A7
:10277800B1EE6A0AC7EE246A07EE103ABAEEE07ABA
:1027880080EE050AE7EE257A37EE899AC4ED327AAB
:1027980039EE469A29EE269A84ED339A14F0BEF95A
:1027A80094ED357A29EE009AE7EE288AF0EE047A5D
:1027B800B0EE40AA7AEEA9AA29EE289A29EE270AAD
:1027C80014F01AF89FED1B7AF0EE407AC4ED29AAAE
:1027D800B4EEC7AAF1EE10FA02D5002384F8A030AF
:1027E800D4ED366A94ED2A7A67EEA67A67EE877A90
:1027F800FFF712BBF0EE087A2BEE270A8AEE000AE2
:1028080014F08CF9F6EE006AB7EE007A6BEE807A77
:10281800ABEEE67A67EEA67AE9EE077AB0EE679A4B
:10282800FFF795BBE8730124000000000403B237EA
:10283800CDCC4C3E6F12833AF8B590F834302DED7C
:10284800048B002B00F0688190ED098A044690F80B
:102858003730B1EE489A002B40F0DE8090ED0B7ACD
:1028680027EE087AD4ED0A7AF7EE006A237E77EE2F
:10287800277AF4EEE67AF1EE10FAA8BF77EEE67A58
:10288800C4ED0A7A002B40F04C81B4EEE77AF0EE02
:10289800006ABFEE008AF1EE10FAA7EEA68A00F3EE
:1028A8002E82B7EE006A76EE476AF4EEE76AF1EE3A
:1028B80010FA00F1CC8194F8367094ED030A002FD9
:1028C80000F0CE80DFEDE97A20EE270A89EE000AD3
:1028D80014F024F9D4ED0E7A94F8353060EE278A96
:1028E800C4ED0E8A002B40F0CA809FEDE10A89EE04
:1028F800000A14F013F994ED0F7ADFEDDE7A60EE3A
:10290800079AF4EEE79AC4ED0F9AF1EE10FA00F187
:102918000081D4ED007AD4ED026AD4ED013A94ED49
:10292800085ADFEDD54AB3EE047A94ED046AB0EEA6
:10293800454A66EEA46ADFEDD15AE6EEA87AE6EEDD
:10294800257AF4EEC77AF1EE10FA00F167819FED6F
:10295800CC7A25EE077AF4EEC77AF1EE10FA00F396
:10296800E08137EEA77AF0EE637ADFEDC66AE6EE2D
:10297800267AF5EEC07AF1EE10FA00F1BB81DFEDB0
:10298800C26AF4EEE67AF1EE10FA00F3C581F1EED0
:10299800005AB7EE006AF5EE006A67EEA57AF0EE27
:1029A800465AE7EEA65A86EE250A87EE049A9FED68
:1029B800B77AB4EEC79AF1EE10FA00F39881BDEE3B
:1029C800006AB7EE007AA9EE067A29EE079A94ED26
:1029D800177A04F13C050026A7EE678A28EE000A5C
:1029E80013F00AFF13F008FF95ED058AF0EE408A10
:1029F8000136B0EE480A043513F0FEFE042E78EED8
:102A0800C08AA8EE898A85ED008A85ED048A00F0DF
:102A1800518195ED000AE5E790ED050A89EE000A77
:102A280014F07CF894ED0C7AD4ED0B6A9FED986A5B
:102A3800F7EE007A77EEC07A67EE877AE6EE807A6C
:102A480077EEC76AF0EEE66AF4EEC66AF1EE10FABF
:102A580040F1F880002384ED0B7A84F83730FFE6E4
:102A680089EE000A14F05AF8D4ED0E7A94F835304D
:102A780060EE278AC4ED0E8A002B00F0B380B7EE13
:102A8800006AD4ED0F9ADFED834AD4ED007A36EE72
:102A9800696AD4ED026A94ED085AB0EE677AF0EEEE
:102AA800665AD4ED013AE6EE249AB0EE454AC4EDF2
:102AB8000F9A002F7FF435AF9FED6F6AF3EE046A2B
:102AC800DFED797A65EE865AA8EEA57A77EE277A51
:102AD800F4EEE67AF1EE10FA00F1A3809FED687A41
:102AE80024EE077AF4EEC77AF1EE10FA00F31C81AF
:102AF80037EEA77AB7EE006AF1EE007AF5EE006AD3
:102B0800F0EE465A63EEA77AE7EEA65A86EE250A55
:102B18004BE7002384F834309FED630ABDEC048B47
:102B2800F8BDB6EE006AF4EEC67A77EE866AF1EE84
:102B380010FAB4EEE77A3DD4F1EE10FA00F30E8104
:102B4800F7EE005A35EEC76AB4EEE76AF1EE10FA0E
:102B580040F1078177EEE57A87EE876AF0EE467AEC
:102B6800E6EE067A36EE278A38EE258A38EE658A4A
:102B7800F7EE007A76EEE76AB4EEE67AF1EE10FA4E
:102B88002BDCB7EE006A76EE477AF4EEE76AF1EEF0
:102B980010FA7FF790AE76EEC66AC6EE877AB0EE88
:102BA800677AA7EEA77A77EE877A77EE867A38EE95
:102BB800678A80E6F1EE10FA00F3B980B7EE008A72
:102BC800F4EEC86AF1EE10FAD6DBB5EEC07AF1EE93
:102BD80010FA7FF770AEDFED346A86EE876AF0EEA2
:102BE800006A8EE09FED2C0A89EE000A13F096FF2A
:102BF80094ED0F7ADFED1F7A60EE079AF4EEE79A0C
:102C0800C4ED0F9AF1EE10FA83D494ED007AD4ED66
:102C1800025AD4ED013A94ED084A4DE79FED1F7A28
:102C2800A1E6B7EE006A9FED1D7AF1EE007AF5EEA7
:102C3800006AF0EE465A63EEA77AE7EEA65A86EEE9
:102C4800250AB2E6B0EE677AC4ED0B7A08E677EEAD
:102C5800C67AC7EE876AF0EE667AE6EEA67A76EE70
:102C6800A76A76EE866A38EE668A24E63333333FFF
:102C78000AD7233C6F12833A00401C460080BB45AC
:102C88006666E63E9A99993E3333733FA4707D3F5A
:102C9800CDCCCC3DCDCC4C3D0AD7A33B0000204247
:102CA800CDCCCC3EAFB63E3F000000003448033FD9
:102CB80033337340B7EE007AD4ED137A2FB194ED25
:102CC800046A5FED096AA6EE267A67EEA97AD4ED62
:102CD800076AB7EE080A67EEA67ABDEC048B67EEC2
:102CE800877ABDE8F84027EE800A13F085BD1FED0E
:102CF800139A6CE6B7EE000A5FED157A55E687EE93
:102D0800876A66EE467AB7EE007AE6EE267A77EEBE
:102D1800C77A38EE678ACEE51FED1C0A5FED1C7A8C
:102D280043E637EE077A1EE637EE077AE2E6B7EEB5
:102D3800005A87EE876AF0EE005AF7EE007AF4EE52
:102D4800E76AF1EE10FA26EE468AA6EE258A38EEF4
:102D5800678A38EE058AFFF60FAF09E7BFEE005A1B
:102D6800E7E7F4EEE56ABFEE008AF1EE10FAFFF647
:102D7800A2ADFDE62DE9F84305690446D0F8F03028
:102D8800AB4202D1012380F84030D4F8F430AB4292
:102D980002D1012384F84130D4F8F830AB4202D193
:102DA800012384F84230D4F8FC30AB4200F0898229
:102DB800D4F80031AB4214D1B3EE0E7AD4ED007AD8
:102DC8000123B54AB54967EE877A6565E16484F8F9
:102DD8004430FCEEE77AA264226584F85C30C4EDE6
:102DE800167AD4F80431AB4248D1D4ED007A0122E6
:102DF8009FEDAB7A0021AB4B67EE877A84F84520CC
:102E0800C4F89030C4F89830FCEEE77A84F8A4202F
:102E1800C4F8AC1084F8BC2017EE903AC4F8C4107B
:102E280084F8D420C4F8D810C4F8E01084F8EC2052
:102E3800994984F874209C4AC4F89C50C4F8B4504A
:102E4800C4ED287AC4ED2E7AC4ED1C7A2166A166F9
:102E5800E5666266C4E93353C4E939534FF07E53DB
:102E6800C4F8C030C4F8C830C4F8DC308F4BC4F89C
:102E7800A830C4F8B0308E4BC4F89430D4F8083178
:102E8800AB4200F00082D4F80C31AB4217D1B2EE5D
:102E9800047AD4ED007A4FF07E530122C4F88450AE
:102EA80067EE877AA367C4F88030002384F8472048
:102EB800FCEEE77A84F88C20E367C4ED227AD4F834
:102EC8001031AB4240F2478194F8443023B194F872
:102ED8005C30002B40F0088294F84530C3B194F878
:102EE800A430002B40F0238394F8BC30002B40F032
:102EF800658394F8D430002B40F0948394F8EC3038
:102F0800002B40F0C98394F87430002B40F08E8277
:102F180094F8473023B194F88C30002B40F0268287
:102F2800E369AB4200F29280626994F84030D1B212
:102F3800002B00F0CB8011F0030640F0C780DFEDD6
:102F48005D7A94ED0D7AB4EEE77AF1EE10FA09DDC8
:102F580063683BB1002058629862012083F8200022
:102F68005548D862DFED537A94ED0E7A94F84170A3
:102F7800B4EEE77A94F84200F1EE10FA40F3C68313
:102F8800A368002B00F07A844FF0000CC3F824C02B
:102F9800C3F828C04FF0010C83F820C0DFF818C12F
:102FA800C3F82CC0002F40F09680002840F06C84B5
:102FB80094F8460038B301F00700042840F09982DD
:102FC800002B00F0568400201865986558659866AF
:102FD8005866012083F84C003848D865002E00F068
:102FE8008B8201F00F0104290DD163B1012183F80F
:102FF80080100021C3F88410C3F89410C3F890100F
:103008002F49C3F888100132636A6261D20705EB61
:10301800030140F16281F6EE007A94ED0B7A37EE07
:10302800677A07EE903AF8EE677A37EE077AB5EEE8
:10303800C07AF1EE10FA48BF9FED227A67EE877AE0
:10304800FCEEE77A17EE903A0B44E36194F84330CC
:103058002BB9013594ED0F0A2561BDE8F883236A81
:10306800AB42F6D8E768A6697FB106F00F02164BA7
:1030780003EB82019000C97811B1002187F835105F
:1030880013F82220002A40F07F83636A01362B441C
:10309800A6612362DDE700BF0000484300803B458E
:1030A800000020420000B44200007A45295C0F3F2E
:1030B800000011430AD7233C6666663FCDCC4C3FDF
:1030C8009A99193F00000000A873012494F8413030
:1030D80094F8420083B101F00703042B0CD1636814
:1030E80053B100261E655E659E659E665E66012676
:1030F80083F84C60B74EDE65F8B101F003006368F1
:10310800022800F0D581C3B10020C3F8A400C3F899
:10311800AC00C3F8B000C3F8B400C3F8B800C3F8F3
:10312800BC00C3F8C000C3F8CC00C3F8C800012035
:1031380083F8A000A848C3F8A80094F84630002BEC
:103148003FF461AF01F0070301F00106042B40F0E2
:10315800CC81A36834E7E26812B1002382F83530E5
:103168004FF07E519D480023E163A0626163002116
:103178009B4823622364E062636484F85C302163C3
:10318800A16384F8743084F88C3084F8A43084F80F
:10319800BC3084F8D43084F8EC30C4E90433C4E992
:1031A80006335AB18F4813768F4B9049106093605D
:1031B8008F48904B11615060D161D36063684BB107
:1031C8008B4A84488C491A64874A5861C3F8D810D6
:1031D800C3F81C21A3680BB100225A61D4ED007A10
:1031E800F2EE0E3A9FED857AB3EE094A9FED843AE6
:1031F800002227EE877ADFED834A9FED835A67EE38
:10320800A33ADFED825A27EE844ABCEEC77A9FEDD7
:10321800806ADFED806A67EEA44A27EE855A9FED43
:103228007E0A17EE103A67EEA55A27EE866AC4F8AA
:10323800F02067EEA66A012B67EE837AFCEEE33A8C
:1032480038BF0123BCEEC44AFCEEE44A6362BCEE1C
:10325800C55AC4ED3D3AFCEEE55A84ED3E4ABCEE53
:10326800C66AC4ED3F4AFCEEE66A84ED405AFCEEBD
:10327800E77AC4ED415A84ED426AC4ED436AC4ED6D
:10328800447ABDE8F88300234FF480724FF07E51F2
:10329800E3626363A4F84520E368604AA163A2621D
:1032A8000BB15F4A1A60D4ED007A9FED5E7A67EE43
:1032B800877AFCEEE77A17EE903A03B90123636246
:1032C800E1E50122E36884F84320002B3FF470AD68
:1032D8004449474A19605A606AE594F84330E16105
:1032E800002B3FF4B6AEBAE6636D9D42C0F0908203
:1032F800A26DD4ED137A002A00F0228207EE102A7C
:10330800EB1AF7EE005AF8EE476A07EE103AB8EEF5
:10331800477A87EE266AB4EEE56AF1EE10FA04DB26
:10332800B0EE656A002384F85C3094ED127A77EE8B
:10333800C76AF0EE477AE6EE867AC4ED147AE36857
:10334800002B3FF4C9ADB3EE047AF4EEC77AF1EE80
:1033580010FA00F116829FED347AF4EE477AF1EE16
:1033680010FA77FE277AC3ED007AB5E5D4F88430F1
:103378009D42C0F07982D4F8882094ED1F7A002A03
:1033880000F0D98107EE902AEB1AF7EE005AF8EE12
:10339800676A07EE903AF8EE677A87EEA66AB4EEA7
:1033A800E56AF1EE10FA04DBB0EE656A002384F8F2
:1033B8008C30D4ED1E7A77EE676AE6EE867AB0EE48
:1033C800677AC4ED207AE36984ED0F7AAB423FF661
:1033D8003DAEA9E59A99593FCDCC0C3F0000B442C7
:1033E800295C0F3F00004843CDCCCC3E9A99193F49
:1033F8003333333FCDCC4C3E6666E63EABAA2A3E1D
:103408000000344300002042000070420000B44233
:103418000000024300002A4300000000000011439E
:1034280000007A45B1DCD33D00409C46E36E9D42E6
:10343800C0F00782226FD4ED197A002A00F08A8141
:1034480007EE102AEB1AF7EE005AF8EE476A07EE75
:10345800103AB8EE477A87EE266AB4EEE56AF1EEDE
:1034680010FA04DBB0EE656A002384F8743094ED3A
:10347800187A77EEC76AF0EE477AE6EE867AC4EDF8
:103488001A7AE368002B3FF443ADB3EE047AF4EE06
:10349800C77AF1EE10FA00F171811FED1D7AF4EE92
:1034A800477AF1EE10FA77FE277AC3ED007A2FE516
:1034B800002B3FF442AE0020C3F8E800C3F8F00048
:1034C800C3F8F400C3F8F800C3F8FC00C3F800011F
:1034D800C3F80401C3F81001C3F80C01012083F8F4
:1034E800E400DA48C3F8EC0027E6002E7FF48BAD41
:1034F800A368002B3FF487AD4FF07C50C3F8A800B9
:103508000020C3F8A400C3F8AC00C3F8B000C3F8A7
:10351800B400C3F8B800C3F8BC00C3F8C000C3F8CF
:10352800CC00C3F8C800012083F8A00059E5D4F8FE
:103538009C309D42C0F07B81D4F8A02094ED257A80
:10354800002A00F0028107EE902AEB1AF7EE005AE3
:10355800F8EE676A07EE903AF8EE677A87EEA66AA1
:10356800B4EEE56AF1EE10FA04DBB0EE656A00230A
:1035780084F8A430D4ED247A77EE676AE6EE867A8A
:10358800B0EE677AC4ED267ADFEDB15AB5EE006A7F
:10359800D4ED006AC5EE877A84ED0A7A67EE867AFA
:1035A80067EEA67AFCEEE77A17EE903A03B90123A4
:1035B800636294F8BC30002B3FF49BACD4F8B43071
:1035C8009D42C0F02A81D4F8B82094ED2B7A002AC5
:1035D80000F0C58007EE902AEB1AF7EE005AF8EED5
:1035E800676A07EE903AF8EE677A87EEA66AB4EE55
:1035F800E56AF1EE10FA04DBB0EE656A002384F8A0
:10360800BC30D4ED2A7A77EE676AE6EE867AB0EEB9
:10361800677AC4ED2C7A94F8D43084ED0B7A002BB9
:103628003FF46CACD4F8CC309D42C0F0FB80D4F8A9
:10363800D020D4ED317A002A00F0968007EE102AC7
:10364800EB1AF7EE005AF8EE476A07EE103AB8EEB2
:10365800477A87EE266AB4EEE56AF1EE10FA04DBE3
:10366800B0EE656A002384F8D43094ED307A77EEB2
:10367800C76AF0EE477AE6EE867AC4ED327A636876
:10368800C4ED0D7A002B3FF439AC9FED727A67EEEA
:10369800877AC3ED057A31E4D4F8E4309D42C0F06E
:1036A800CB80D4F8E820D4ED377A002A61D007EE31
:1036B800102AEB1AF7EE005AF8EE476A07EE103AAE
:1036C800B8EE477A87EE266AB4EEE56AF1EE10FAAC
:1036D80004DBB0EE656A002384F8EC3094ED367AAA
:1036E80077EEC76AF0EE477AE6EE867AC4ED387A66
:1036F800A368C4ED0E7A002B3FF405AC9FED557A14
:1037080067EE877AC3ED057AFFF7FDBB002F7FF4DC
:10371800E2AC002840F0B88094F84630002B3FF423
:1037280072AC01F00703042BA3683FF449AC002BEB
:103738007FF4E2AE67E484ED207A84F88C2042E6D8
:10374800C4ED147A84F85C20F9E584ED267A84F8CF
:10375800A42019E7C4ED1A7A84F8742091E684ED60
:103768002C7A84F8BC2056E7C4ED327A84F8D42049
:1037780085E7C4ED387A84F8EC20B9E7F0EE477AAB
:1037880093E6F0EE477AEEE507EE902A9FED327A5F
:10379800F2EE080A0344F8EE677AB0EE000A93F8EE
:1037A800018093F8029077EEC77AC7EEA00A13F06B
:1037B80043FA9FED2A7AF3EE047A20EE070AB4EE74
:1037C800E70AF1EE10FA61D4DFED257AB4EE670A64
:1037D800F1EE10FA37FE800A87ED0C0A87F836807A
:1037E800B9F1000F02D097F834302BB94FF07E535F
:1037F80087ED0B0ABB63002387F8373040F20113CB
:10380800BB86B8F1000F3FF440AC164BBB633CE4F9
:10381800D4ED127AC4ED147A91E594ED2A7A84ED08
:103828002C7AF8E6D4ED307AC4ED327A27E794EDB5
:10383800247A84ED267AA7E6D4ED367AC4ED387A70
:1038480056E7D4ED187AC4ED1A7A1AE69A99193F10
:10385800000070429A99593F00008A420000DC43F8
:1038680000409C459A99993F94ED1E7A84ED207A00
:10387800A9E5002E3FF4C7ABFFF7B3BB002F7FF4D9
:103888002AAC00283FF4BFAB63683CE4B0EE670A9B
:10389800A2E700BF2DE9F04F2DED068B83B0002A7B
:1038A80000F0848492469500D1E9007407EB820306
:1038B8009C4203D260198742C0F06D842A460021D9
:1038C800204613F00BFD2A460021384613F006FD6A
:1038D800A146DFEDD29A0024DFF8B0834D46DFED34
:1038E800CF8ACF4EB0EE689ACDE900573378002BD7
:1038F80000F03182D6ED017ACA4BB0EEE77A7578DE
:10390800595DFCEEC76A16EE903A002900F06A820B
:10391800F5EEC07AF1EE10FA00F1BB82C24A52F815
:103928002500834280F07182C04A06EE903A03F186
:10393800010CBF4F05FB02F2F8EE666A9FEDBD6A07
:103948008445134437EE667A37F9133008EE103A97
:10395800B8EEC88A28EE068A80F09882624437F961
:10396800123006EE903AF8EEE66A66EE866AB24BD8
:1039780076EEC86A5B5DA6EE878A002B40F0488227
:10398800AE4BD6ED017A5A5D96ED027A002A40F0E8
:103998005582AF00AA4B5B5D1BB1AA4B002043F8D0
:1039A800250009B1B1EE477AA74B37EE277A5B5D60
:1039B80086ED017A002B40F07F83A44BDFEDA47ADB
:1039C8003B4493ED007AB4EEE77AF1EE10FA2CD48A
:1039D800F7EE007AF2EE0E5AB7EE086AF0EE676A72
:1039E800E7EE256A28EE268AB4EEC68AF1EE10FACA
:1039F80011DCFFEE087AB4EEE78AF1EE10FA00F176
:103A0800A88328EE086AF1EE0B5A26EE086AC6EE7D
:103A1800257A78EE677A87EEA68AF6EE006AF7EEE0
:103A2800007AE7EE267A28EE278A8A4B5B5D0F2B11
:103A38000BD80121994007EE901AF8EEE77A28EEA4
:103A4800277AB8FE477A87EE278A002A40F006834D
:103A5800814B5B5D002B40F0AB82804BDFED7C7AC5
:103A68003B447F4AD3ED000A505DF4EEE70AF1EEDD
:103A780010FA05D4B0EE480AFCF7B2FFB0EE408A5F
:103A8800784B5B5D0F2B0BD801229A4007EE902AEA
:103A9800F8EEE77A28EE277AB8FE477A87EE278A83
:103AA800714B5B57002B40F00982704B5B57002B22
:103AB80040F02E826E4B5B57002B40F053826D4BCB
:103AC8005B5DCBB36C4942F27F536C484FF4165C94
:103AD80051F82520FFEE007A9FED507A1344A0FBA1
:103AE80003E0800A0CFB10330CFB0533DFF8A0C1A0
:103AF8000CEB8303D3ED006AA6EE878AB4EEE78A5F
:103B0800F1EE10FA07D4F7EE007AB4EEE78AF1EE98
:103B180010FA77FE887A4FF4165000FB052301321D
:103B28000CEB830C554BA3FB02E3CCED007A9B0A0C
:103B380000FB132241F82520514B5B5D002B69D017
:103B4800DFF850E1F6EE006ADFF84C91E8020EEB80
:103B58000703DFF848C159F8251093ED007A01EB07
:103B6800C523B4EEE67A0CEB830377EE077AF1EE21
:103B780010FA83ED008A03D4F0EE006A76EEE77A55
:103B88009FED266AF5EE005A9FED3E5A40F2FF7B04
:103B980067EE867AFFEE006A67EE857A67EEA57AA9
:103BA800FCEEE77A17EE902A02325A4594BF8B1A38
:103BB800A1EB0B03C3F30A0303440CEB8303D3ED1C
:103BC800007AA7EE868AB4EEE68AF1EE10FA07D4F8
:103BD800F7EE006AB4EEE68AF1EE10FA76FE886A2D
:103BE8009FED0E6AF7EE007A37EE067AB4EEE77AC2
:103BF800F1EE10FA01DB37EE677A08440131BE4472
:103C08000CEB8000C1F30A018EED007AC0ED006A6A
:103C180049F825101C4B5B5D42E000BF0000000026
:103C2800402400202823002040270020007701009E
:103C380034B01EC000000038802200203822002046
:103C4800C02100206021002010230020B022002085
:103C58000AD7233C98220020981F0020381F0020F4
:103C6800201F0020081F0020681C0020501C002076
:103C7800381C0020F01E0020901E0020B5814E1B2D
:103C8800781E002000000045A01D002040270020CD
:103C9800000003C0181E0020B81D0020000000C04E
:103CA8002BB3D64BF0EEC87ADA1992ED000AB4EECF
:103CB800E70AF1EE10FA40F1458277EEC07AB5EEE8
:103CC800007AA7EE870ACE4A3B443A4483ED000ABD
:103CD800D2ED007AF4EEC07AF1EE10FA07D59FED36
:103CE800C97AB4EEC70AF1EE10FA00F33A82C64B6D
:103CF800DFEDC66A595D96ED037A0029D6ED047AA0
:103D0800C34B08FE268A28EE077A68EE277A3B44DA
:103D1800C04AF0EEC76AD3ED005AB0EEE75A3A440B
:103D280092ED006AC6FE856AF4EEE65AF1EE10FAE4
:103D380001D5C3ED006AB7EE005AF6EE005A75EEEB
:103D4800466A36EE056A66EEA56A26EE256AA7EE8D
:103D5800269AE7EE868A1836B0457FF4C7ADAE4896
:103D68000134DDE90057FFF705F8AC48B0EE40AA8A
:103D7800FDF754F8DFEDA57AA94830EE278AFDF75C
:103D880093FFA84838EE008AFEF756FD78EE007AD1
:103D9800B0EE490AEAEE278AAAEE270A12F02CFDAD
:103DA800B0EE408AB0EE680A12F026FDF0EEC87A4E
:103DB800B0EEC07AA7EC018AA5EC010AC7FE877AA3
:103DC800F4EE679AF1EE10FA48BFF0EE679AA24552
:103DD8007FF485AD944BC3ED009A03B0BDEC068B20
:103DE800BDE8F08F914A52F8250098423FF69CAD05
:103DF8008F4B5B5D53B10B46DFED847A8342B0EEA7
:103E0800677AC6ED017AFFF48FAD00233370A2E71D
:103E18009FED887A0022884BF4EEC77A23F81520A4
:103E2800864BF1EE10FA5A5DCCBF77EEC77ADFED1C
:103E3800777A96ED027A002A3FF4ABAD804BB6EE66
:103E4800005ADFED725AAF0003EB8500D0ED006A2F
:103E5800F4EEC56A76EEA64A36EEA56AF1EE10FAD9
:103E680040F1508174EEC54AF7EE006AB5EE005A8B
:103E7800E4EEA56A27EE267AB4EEC57AF1EE10FADA
:103E880000F16A813B4483ED006A83E5DFED5F6AF8
:103E98006DE5674B5B5D002BB8D0644B53F825008C
:103EA800431E07EE903AF8EE677ABCEEE77AC6ED65
:103EB800017A17EE103AB0EE677A32E5614BC5EB3E
:103EC800C50203EB8203D3ED056AD3ED007A93EDC7
:103ED800037AE8EE276A93ED015AD3ED047AD3ED1D
:103EE800025A93ED066A27EE667A67EEE67AA8EE3E
:103EF800057AE8EE257AB0EE668A36EE077AC3EDE3
:103F0800067A83ED057A504B5B57002B3FF4D2AD10
:103F18004E4BC5EBC50203EB8203D3ED056AD3ED27
:103F2800007A93ED037AE8EE276A93ED015AD3ED10
:103F3800047AD3ED025A93ED066A27EE667A67EEA5
:103F4800E67AA8EE057AE8EE257AB0EE668A36EECD
:103F5800077AC3ED067A83ED057A3D4B5B57002B54
:103F68003FF4ADAD3B4BC5EBC50203EB8203D3ED8C
:103F7800056AD3ED007A93ED037AE8EE276A93EDAC
:103F8800015AD3ED047AD3ED025A93ED066A27EE6F
:103F9800667A67EEE67AA8EE057AE8EE257AB0EE5C
:103FA800668A36EE077AC3ED067A83ED057A86E5EA
:103FB800294BC5EBC50203EB8203D3ED056AD3EDAC
:103FC800007A93ED037AE8EE276A93ED015AD3ED70
:103FD800047AD3ED025A93ED066A27EE667A67EE05
:103FE800E67AA8EE057AE8EE257AB0EE668A36EE2D
:103FF800077AC3ED067A83ED057A2EE5801C00204A
:10400800401D00206F12833AC81F002000000000E6
:10401800E0230020E01F00200400002054190020A5
:104028000017002018010020DC2300204027002072
:10403800402300200000C8425022002038220020DF
:10404800D8210020B8060020501C002018040020A9
:10405800381C00207801002058090020554BC5EB7A
:10406800C5029FED556A03EB82039FED547A9FEDDD
:10407800545AD3ED056A83ED037AE8EE066ADFED5C
:10408800517AD3ED065AC3ED047A83ED006A83EDC5
:10409800015A83ED026A27EE667A67EEE67AA8EEA1
:1040A800057AE8EE067AB0EE668A35EE877AC3EDD1
:1040B800067A83ED057ACBE4434BC5EBC50103EBE8
:1040C8008103D3ED056AD3ED007A93ED037AE8EE28
:1040D800276A93ED015AD3ED047AD3ED025A93ED92
:1040E800066A27EE667A67EEE67AA8EE057AE8EEC3
:1040F800257AB0EE668A36EE077AC3ED067A83ED46
:10410800057A5AE4F0EE006AB7EE004AF5EE003A96
:1041180076EEE46A76EEC56AB0EE445AA6EEA55A83
:1041280027EE057AB4EE637AF1EE10FAB4EEC46ABB
:1041380048BFB0EE637AF1EE10FAFFF6A3AE36EEA2
:10414800446A9FE670EE677A9FED207AA7EEC70A69
:10415800B9E5FFEE007A5EE4B0EE457A80ED006ADC
:1041680018E41B4BB7EE007A87EE800A3B44D3ED88
:10417800007AC7EE270A77EE600A12F05DFDF4EECA
:10418800007AB4EE670AF1EE10FA48BFB0EE670A9B
:1041980028EE008AABE523463946002243F8042B73
:1041A800834241F8042BF8D1FFF792BBDFED099A5F
:1041B80010E600BFF80B00202294E335AA86FFBF63
:1041C80022946336C50D7F3F980E00208FC2F53CC0
:1041D800E01C0020000000002DE9F04F0021D3482A
:1041E800DFF81CA4DFF81C94DFF81C84D04FD14EF4
:1041F800D14DD24C2DED028B85B001F01BFB8021F7
:10420800CA4801F03DFAC948032101F01DFACC4B18
:104218000022CC480193CC4BDFF8F0E3029313461D
:10422800DFF8ECC303900021C848DFEDC97AB1EE8E
:10423800007AC154C7484AF8041F40F82310C648FA
:1042480009F8011FC154C54808F8011F40F8231098
:10425800C34807F8011FC154C24805F8011FC154DB
:10426800C14804F8011FC154C0480EF8011FC154C9
:1042780003980CF8011F00F8011F0390019800F83B
:10428800011F0190029800F8011F10210290B84800
:1042980006F8011FC154B749B74801EB8301013340
:1042A80000EB020BB548C1ED007A182BB449114454
:1042B800C1ED007AB3491144C1ED007AB249114405
:1042C800C1ED007AB1491144C1ED007AB0491144F9
:1042D800C1ED007AAF498BED007A00EB020B114477
:1042E800CBED007AC1ED007AAB49DFF8CCB21144CE
:1042F80002F10402C1F800B095D1A84B03F5407251
:10430800002403F8184B9A42FAD1A54B2146A54A36
:104318001846A54D12F0E2FF0346002042F6E06180
:104328009FEDA20A43F80C0C28469FEDA18AA14EE6
:1043380043E9024101F0C4F89F4AA04B9FED9B0A54
:104348009F482A606B6011F07DFF9FED9E0A9C4894
:1043580012F060F89FED9C0A994812F03FF8B6EE0B
:10436800080A974812F090F89FED900A974812F0C3
:10437800C9F9B1EE000A9548954D12F00BFAB6EE60
:10438800000A924812F016FA2146904812F00CFAE8
:1043980028469FED860A00F087FFD5ED0E8A8D4AE4
:1043A8004FF0814388EE880A85ED028A6A602B60A7
:1043B800B1EE400A12F0B2FBD5ED0D7A85ED0A0A8E
:1043C80087EE880AB7EE008AB1EE400A12F0A6FB23
:1043D8009FED817AF0EE407A88EE870A85ED037AC0
:1043E800C5ED087AFEEE086A38EE677A67EE267A37
:1043F800C5ED097AB1EE400A12F090FB774B012225
:1044080030462B6185F83C2085ED0B0A00F0CCFF87
:104418009FED660A724886ED008A12F065F8B6EEDE
:10442800000A6F4812F008F99FED670A6C4812F00D
:10443800D1F8B6EE000A6A4812F032F92146694C02
:104448004FF48042684D04F56126684812F046FF33
:104458004FF416420021204604F5164412F03EFFA0
:1044680028464FF40052002112F038FFA64205F505
:104478000055EDD15E4B0025DFF898B14FF0000CE8
:104488005C494FF07E5AC3F860B0DFF88CB15A4CE3
:10449800C3F88CB0DFF884B1C3F824C0C3F828C0CF
:1044A800996159649967C3F89810C3F8DC10C3F888
:1044B8003011C3F85811C3F88011C3F8A411C3F818
:1044C800C81183F82050DC619C6483F84C50DC6789
:1044D80083F88050C3F89C4083F8A050C3F8E040AC
:1044E80083F8E450C3F8344183F83851C3F85C4189
:1044F80083F86051C3F8844183F88851C3F8A84110
:1045080083F8AC51C3F8CC41C3F848B20BF13C4B2B
:104518003A4AABF5800BC3F8EC11C3F81012ABF6AE
:10452800CD3BC3F83412C3F8601279E0A427002009
:104538000F230020972200207F220020372200200E
:10454800971F0020AF1F00201F1F0020F01E002013
:1045580000000000901E0020781E0020B81D0020DA
:10456800A01D0020681C0020501C0020381C0020C2
:10457800081F0020E0230020E01C0020801C0020F1
:10458800B022002000210020A02000204020002090
:10459800E01F0020381F0020401D0020402400207C
:1045A80034D418C000DC0500E4C812C000803B47C2
:1045B8000AD7233C582300209A99193F0000FA454E
:1045C800887D12C09A99993ECDCCCC3EA823002074
:1045D800682300200000A0C1CDCCCC3D0000F040F5
:1045E800005011C0000003C0000000C0001011C03E
:1045F8005419002000803B473EC3AE370017002007
:104608003C2700203F23002027230020BF21002033
:10461800C71F0020EFBEADDEBEBAFECACEFA0DF04F
:10462800C3F878B2DFF820B3C3F88412C2F860B0D8
:104638000BF60F4BC3F8A012C2F88CB0ABF5015BB8
:104648009161ABF1140B5164916783F8D051C3F8B1
:10465800F04183F8F451C3F8144283F81852C3F8B0
:10466800384283F83C52C3F8644283F86852C3F86E
:10467800884283F88C52C3F8A44283F8A852D461C4
:1046880082F82050946482F84C50D46782F88050A5
:10469800C2F89810C2F8C4B00BF5885B95480BF1C6
:1046A800110BC2F8DC10C2F83411C2F808B1ABF52E
:1046B800CE5BC2F86011ABF11D0BC2F88C11C2F8C9
:1046C800A411C2F8D0B10BF5225BC2F8E811C2F808
:1046D80014B20BF5BA5BC2F838120BF1070B416143
:1046E8004164C2F850B2DFF864B2C2F89C4082F864
:1046F800A050C2F8E04082F8E450C2F8384182F88D
:104708003C51C2F8644182F86851C2F8904182F87D
:104718009451C2F8A84182F8AC51C2F8EC4182F831
:10472800F051C2F83C4282F84052846105778464B3
:10473800C0F85CB00BF2BA2B6F4EC0F880B0ABF586
:10474800BD5B6E4FABF1080BC166C0F89410C0F8A2
:10475800A8B00BF5885BC0F8C4100BF1010BC0F8CA
:10476800F810C0F82411C0F8D8B00BF5885BC0F871
:1047780050110BF1010BC0F87411C0F89C11C0F86E
:10478800C81180F84C50046780F87450C0F89840FD
:1047980080F89C50C0F8C84080F8CC50C0F8FC4065
:1047A80080F80051C0F8284180F82C51C0F85441D5
:1047B80080F85851C0F8784180F87C51C0F8A04181
:1047C80080F8A451C0F8CC41C0F8B0B180F8D051FD
:1047D800316039624A49DFED4B7AC0F8E0114A4945
:1047E800C6F830C0B1624949C6F838C0C7F828C011
:1047F800C7ED0B7AC7ED0C7AC7F840C0C7F844C0BC
:10480800C7F848C0C7F84CC0C7F85CC0C7F858C05C
:10481800C7F854C0C7F850C0C7F838C0C7F83CC07C
:10482800F162C6F83CA0C6F834A07C627D63DFF86C
:104838002091DFF82081DFF820E135493548C6E9C5
:104848000132C6E90375C6E90555C6E90755356459
:10485800C2F814C0304AC3F840905A612F4AC3F8CE
:104868001C81C3F8D8202E4A2E4B756486F85C50FC
:1048780086F8745086F88C5086F8A45086F8BC5098
:1048880086F8D45086F8EC50C6F8F050C7F810E017
:10489800C7F81CE0C7F80490C7F808803D76C6E959
:1048A8003D23214A214BC6E93F23214A214BC6E932
:1048B8004123214A214BC6E943234FF4FA5373623B
:1048C80001261F4B3B601F4BFB6000F0B9FE012126
:1048D800104800F0F1FE04F04BF8431B0446B3F512
:1048E800FA7FF8D986F001060A482546314600F0D5
:1048F800E3FEF0E71C15002004000020180100204A
:1049080004DD050500005C430000B442295C0F3F4C
:104918009D380024A42700209A99593F6666E63EF0
:1049280080FC0A00804F1200004C1D0000F22B0092
:1049380000EB410000375F0000837C0000D6830055
:1049480000004843CDCC4C3EEFBE0909EFBE05053B
:104958003333333FCDCCCC3E9A99193F2DE9F84FEC
:10496800E7480024E74D6FF0F4124FF60B73E64961
:10497800DFF85CB4DFF85CA4E44FDFF85C84E44E55
:10498800DFF858942DED068BC0E90042C0E90222F9
:104998002A4603858387F7EE08AAA0F85830B0EEB8
:1049A80004AA4461046244638464446604679FED16
:1049B800D98A9FEDD99ADFEDD99ADFEDD98AC0E976
:1049C8000B44C0E91044C0E9174411F00FFFD54B60
:1049D8002A46D549D5481C6011F008FF2A46D44913
:1049E800D44811F003FF2A46D349D44811F0FEFEFB
:1049F8002A46D349D34811F0F9FE2A46D249D3486A
:104A080011F0F4FE2A46D249D24811F0EFFE2A46A8
:104A1800D149D24811F0EAFED14BB7EE007ADFED6A
:104A2800D17AC3F804B0F6EE004ADFF8B4B3F5EE75
:104A3800002A9FEDCD6ADFEDCD6A9FEDCD5A9FED3F
:104A4800CD3AC3F80CB0CC4ADFF898B31A6083EDBE
:104A5800029AC3ED0F9A83ED043A83ED057A83ED4C
:104A6800066AC3ED076A83F8204083ED0B7A83ED6D
:104A7800107A83ED116AC3ED126A83F84C4083ED16
:104A8800177A83ED1B3A83ED1D7A83ED1E6AC3ED19
:104A98001F6AC3ED0D4AC3ED0E4AC3ED1C4AC3EDB0
:104AA800097AC3ED0A7AC3ED147AC3ED157AC3ED1A
:104AB800167AC3ED197AC3ED1A7A83ED0C5AC3F846
:104AC80060B083F8804083ED348AC3ED217A83EDAA
:104AD800227AC3ED247AC3ED257A83ED266AC3EDE5
:104AE800276A83F8A040C3ED297A83ED2A7AC3F8B0
:104AF800C4A0C3ED327AC3ED337AC3ED354A83EDF2
:104B0800367A83ED376AC3ED386A83F8E440C3ED3B
:104B18003A7A83ED3B7AC3F80041C3F88C80DFED25
:104B2800975ADFED970A9FED971A9FED974A9FEDE9
:104B3800972A9FED970A974ADFED973ADFED971A84
:104B480002F1F00E9649C3E92B44C3E92D44C3E9A9
:104B58002F44C3E93C44C3E93E44C3E9414AC3F88E
:104B68002471904FC3ED4A8AC3F84C718E4FC3ED40
:104B7800437AC3F850718D4FC3ED447AC3ED452A8B
:104B8800C3ED464A83ED477A83ED4B7A83ED4C6A51
:104B9800C3ED4D6A83F83841C3ED4F7AC3ED507ABF
:104BA80083ED517A83ED483A83ED557A83ED566A61
:104BB800C3ED576A83F86041C3ED597AC3ED5A7A59
:104BC80083ED5B7AC3ED522A83ED5F7A83ED606AE9
:104BD800C3ED616A83F88841C3ED637AC3ED647AF3
:104BE80083ED657AC3F89C71714FC3ED5D9AC3F884
:104BF800C071704F83ED5E8AC3F8E4716E4F83ED28
:104C08005C5AC3F8E0716D4F83ED687AC3F8087297
:104C18006B4F83ED696AC3ED6A6A83F8AC41C3EDF3
:104C28006C7AC3ED6D7A83ED6E7AC3ED660A83ED17
:104C3800717A83ED726AC3ED736A83F8D041C3ED6C
:104C4800757AC3ED767A83ED777AC3ED6F5A83ED83
:104C58007A7A83ED7B6AC3ED7C6A83F8F441C3ED0D
:104C68007E7AC3ED7F7A83ED807A83ED811A83EDB6
:104C7800837AC3F82872534F83ED9F9AC3F848721A
:104C8800514F83ED846AC3F85872504FC3ED856A5B
:104C980083F81842C3ED877AC3ED887A83ED897A61
:104CA80083ED8B0A83ED8C7A83ED8D6AC3ED8E6A72
:104CB80083F83C42C3ED907A83ED917AC3ED937A01
:104CC800C3ED947A83ED952A83ED977A83ED986AFC
:104CD800C3ED996A83F86842C3ED9B7AC3ED9C7A69
:104CE80083ED9D7A83EDA07A83EDA16AC3EDA26A74
:104CF80083F88C42C3F87872C3EDA47A74E000BFDD
:104D0800A427002000000020C90900240000A042B8
:104D1800CDCC4C3F0AD7233D0AD7A33D00003443EE
:104D28008FC2753DA0270020E509002428D418C0AB
:104D3800E1090024E4C812C0CD090024887D12C00E
:104D4800D5090024A8230020D909002468230020BD
:104D5800DD09002458230020D1090024005011C087
:104D6800541900200000000000803B473EC3AE37C6
:104D7800CDCC4C3E9A99993E6666E63E9A99193E84
:104D8800EC51383E0AD7A33C9A99193FCDCCCC3C7C
:104D98003333333F001700208FC2F53CCDCCCC3ED7
:104DA8001C1500200000F042CDCC4C3D00002A43E9
:104DB80000007A430000B9438FC2F53D00401C450E
:104DC800295C0F3DCEFA0DF000004D4401EFCDAB4C
:104DD80000005C420DF0ADBABEBAFECA01AA0909CC
:104DE8000AD7A33BEFBEADDEC3F8CCA2C3EDA57ACC
:104DF800C3EDA67A83EDA77A83EDA86AC3EDA96A05
:104E080083F8A842C3EDAB7A83EDAC7AC3EDB47AEC
:104E1800C3EDB57A83EDB74A83EDB87AC3F8D862A3
:104E280082ED028AC2ED004A82ED033AC2ED044ADD
:104E380082ED057A82ED066AC2ED076A82F82040A3
:104E4800C2ED097AC2ED0A7A82ED0B7AC3E9AD4464
:104E5800C3E9AF44C3E9B144F34B5360F34BC2ED2C
:104E68000C0AD363F24B82ED0D4A136603F60F4327
:104E780082ED0E0AC2F88C30EE4B82ED107A82ED8C
:104E8800116AC2ED126A82F84C40C2ED147AC2ED82
:104E9800157AC2ED167A82ED177AC2ED197AC2ED4B
:104EA8001A7AC2ED1B2A82ED1C4A82ED1D7A82ED28
:104EB8001E6AC2ED1F6A82F88040C2ED217A82ED37
:104EC800227AC2ED247AC2ED257A82ED266AC2EDF5
:104ED800276A82F8A040C2ED297A82ED2A7AC2E9CF
:104EE8002B44C2E92D44C2E92F44C2F8C490C2ED54
:104EF800327AC2ED337AC2ED343A82ED354A82ED28
:104F0800367A82ED376AC2ED386A82F8E440C2ED3B
:104F18003A7A82ED3B7AC2F80891C2ED437AC2ED43
:104F2800447A82ED453A82ED464A82ED477AC2EDEF
:104F38004A3AC2ED4B1A82ED4C7A82ED4D6AC2EDC7
:104F48004E6A82F83C41C2E93C44C2E93E44C2E9A7
:104F58004044C2ED507AC2F82431B74B82ED483A4A
:104F6800C2F85031B54BC2ED517AC2F87C31B44B1E
:104F780082ED527AC2ED553AC2ED561A82ED577A51
:104F880082ED586AC2ED596A82F86841C2ED5B7ACF
:104F9800C2ED5C7A82ED5D7AC2ED532AC2ED603AC9
:104FA800C2ED611A82ED627A82ED636AC2ED646ACB
:104FB80082F89441C2ED667AC2ED677A82ED687A2A
:104FC80082ED5E5A82ED696AC2ED6A6A82F8AC4186
:104FD800C2ED6C7A82ED6D7AC2F8B841C2F8BC4174
:104FE800C2F83032974BC2ED77AA82ED88AA82EDDB
:104FF800890AC2F8D091C2F81492C2ED757AC2ED4E
:10500800767AC2ED784A82ED797A82ED7A6AC2EDD3
:105018007B6A82F8F041C2ED7D7A82ED7E7AC2ED3C
:10502800867AC2ED877A82ED8A7A82ED8B1A82EDD2
:105038008D7A82ED8E6AC2ED8F6AC2E97044C2E948
:105048007244C2E97F44C2E98144C2E9834482F8D8
:105058004042C2F850327C4BC1ED002A4B607B4B7A
:10506800C1ED0C1A8B637A4BC2ED917ACB6503F2D2
:10507800BA23C2ED927A82ED937AC1ED023AC1ED7C
:10508800035A81ED047A81ED056AC1ED066A0C7751
:10509800C1ED087AC1ED097A81ED0A7AC1ED0B5AA2
:1050A80081ED0D4AC1ED0F5A81ED107A81ED116A3B
:1050B800C1ED126A81F84C40C1ED147AC1ED157A40
:1050C80081ED167A81ED185AC1ED195A81ED1A7AD7
:1050D80081ED1B6AC1ED1C6AC1F88030A3F5BD5390
:1050E800C1ED213A083B81F87440C1ED1E7AC1F840
:1050F800A83003F5885381ED1F7A0133C1ED224AA8
:10510800C1ED2E4AC1F8D830524B81ED235A81EDBA
:10511800247A81ED256AC1ED266A81F89C40C1EDAB
:10512800287A81ED297AC1ED2B7AC1ED2C7A81EDAF
:105138002D5A81ED2F5A81ED307A81ED316AC1ED1A
:10514800326A81F8CC40C1ED347A81ED357AC1ED0F
:10515800377AC1ED387A81ED3B2AC1ED3C5A81EDB1
:105168003D7A81ED3E6AC1ED3F6AC1F8E8303A4BBD
:10517800C1ED5A8AC1F81431384BC1ED440AC1F85F
:105188004031374B81F80041C1ED417AC1ED427A97
:1051980081ED437A81ED395A81ED462A81ED512A14
:1051A800C1ED475A81ED487A81ED496AC1ED4A6AF5
:1051B80081F82C41C1ED4C7AC1ED4D7A81ED4E7AE2
:1051C800C1ED525A81ED537A81ED546AC1ED556AA9
:1051D80081F85841C1ED577AC1ED587A81ED597A75
:1051E800C1ED4F5A81ED5B5A81ED5C7A81ED5D6AC4
:1051F800C1ED5E6AC1F8E031A3F5885381ED644AD8
:10520800013B81ED655A81ED6F1AC1ED705A81F845
:105218007C41C1ED607A81ED617AC1ED627AC1EDC0
:10522800637A81ED667A1DE0000048420000484339
:10523800EFBE09090000B44200000C4300005243CD
:1052480000005C44A5E109090000704200005C43CD
:10525800EFBE0505000096420000DC420000204336
:1052680004DD050581ED676A81ED726AC1ED686A42
:1052780081F8A441C1ED6A7A81ED6B7AC1ED6D7A4E
:10528800C1ED6E7A81ED717AC1ED736A81F8D04112
:10529800C1ED757AC1ED767A81ED777AC1F8B031D2
:1052A800BDEC068BBDE8F88FF7EE007A10B5B4EECA
:1052B800E70A04462DED048BF1EE10FA5CDD9FED54
:1052C800327AB4EEC70AF1EE10FA4DDCBDEEC07AC0
:1052D8009FED2E6AF0EE005AF8EEC76A17EE103A04
:1052E80087EEA67A85EEA69AC7EE068AF1EE688A58
:1052F8009FED268A4FF080422363B0EE680A226051
:1053080084ED0E7A84ED0D9A84ED028A11F006FC84
:10531800C9EE087A84ED0A0AB1EE670A11F0FEFBBD
:10532800F7EE007AB0EE407A84ED038AFEEE006A6A
:10533800B0EE680A77EEC77A84ED087A67EEA67A47
:10534800C4ED097A11F0EAFB1149124B012284EDF0
:10535800078A84ED068A84ED0B0A616084F83C2094
:105368002361BDEC048B10BDDFED0B8A9FED0B9A1A
:105378009FED0B7A0B4BBBE7FAEE048A0123B0EEE4
:10538800009AB0EE677AB3E700803B48CDCCCC3DBD
:10539800000040C1000040400D745AB83EC32E378B
:1053A8003EC3AE3600EE020000230349002201602E
:1053B800C26043608360704700007A448B69B6EE30
:1053C800004B90ED056A002BD1ED026ADFED385AEB
:1053D800B8BF03F58033F8EEE66A10B443F6095413
:1053E80004FB03F3334C03F1010C1FFA8CF31CF498
:1053F800004F04EB021C18BFA3F580331201DCED4B
:10540800027A8B6186EE277AB7EEC77A37EE047B8D
:10541800BDEEC77BD1ED037AF8EEE77A81ED077A26
:10542800E7EEA56AD1ED007AF8EEE77A77EEE67A4C
:10543800F5EEC07AF1EE10FA0AD5D1ED016AF8EE70
:10544800E66A77EEA67AF5EEC07AF1EE10FAF8D4AD
:10545800C7EE865A07EE903A2244DFED172A90ED00
:10546800033AD2ED014A92ED005AF8EEE76ADFED11
:10547800133AF8EEC77A5DF8044BB7EE007A66EE99
:10548800A46AB6EE004B66EEA26AA3EE265A75EE43
:10549800C56AC6EEA75AA6EE257A27EE237AB7EE96
:1054A800C77A37EE047BBDEEC77B81ED047A70477F
:1054B8000000803118740124000000380000804D7D
:1054C8002DE9F84FF7EE007A57494FF0000AB7EE8A
:1054D800021B4FF0000B554AF0EE673A01239FED8F
:1054E800542AD146DFF8548100F5B276514F2DED9C
:1054F800048BB0EE409A01609FED4F8A00F12401C1
:105508004260B0EE494A80ED029A80ED059AC0EDFE
:10551800037AC0F810B0C0ED067AC0F81CB0036278
:105528009FED3F0BD8ED004A002498ED013AB6EE06
:10553800005BB7EEE47A4C61B7EEC36A0C6006EB29
:105548008A034A46A6EE017B4B62F7EEC78B28EE2C
:10555800847AB7EEC77A37EE007BFDEEC77BC1EDE4
:10556800017AB8EEE77A98ED036A17EE905AB7EE2B
:10557800C66A36EE056BBDEEC66BF8EEC67A81EDEF
:10558800066A67EE837A67EE887AE7EEA34AA4EEA6
:10559800C47AFDEEC77AF8EEE76AC1ED027A37EE13
:1055A800667A27EE027AB7EEC77A37EE057BBDEE4C
:1055B800C77B81ED037AFFF701FFA542C1F820B050
:1055C80007DD4B6A03EB84030134A542C3F800B03E
:1055D800F7D129EE287A09F10109B9F1080FB7EED8
:1055E800C77A37EE007BBDEEC77B17EE103A0AEBA1
:1055F800830A0AD0BA4501F1280108F1100809DC2C
:1056080090ED054AD0ED033A8CE7BDEC048B002001
:10561800BDE8F88FBDEC048B0120BDE8F88F00BF12
:105628000000000000803040EC51783F00401C46EC
:105638000000804D788201000000003818740124B1
:10564800143001F02BBB00BF38B500F11405044637
:105658002DED028B284601F0CFFA284601F0C8FA52
:105668002846B0EE408A01F0B1FAD0ED007AF8EEA3
:10567800677A88EE277ABDEC028B84ED1B7A38BDF9
:1056880038B500F1140504462DED028B284601F0CB
:10569800A1FA284601F0ACFA2846B0EE408A01F09B
:1056A80095FAD0ED007AF8EE677A88EE277ABDECA5
:1056B800028B84ED1B7A38BD283001F04BBD00BF4A
:1056C80010B540F203318EB000244FF60B7340F250
:1056D8000342ADF80810029909A8ADF81030ADF8EA
:1056E80024300123ADF80C202246009407940C9432
:1056F800CDE90544CDE90A4401F012FC04A80123D0
:1057080022460399009401F00BFC09A801F016FD4C
:1057180010B901200EB010BD04A801F00FFD80F0F3
:105728000100C0B240000EB010BD00BF2DE9F0412D
:1057380003239AB00125002414934FF60B78394BB4
:10574800064610941193A3F19F631595A3F57D4325
:10575800ADF84C80CDE916451293FFF7B1FFA8428A
:1057680007463DD002282BD12F4B2A460094CDF86E
:105778004A3040F60133ADF82C80ADF81830234696
:1057880006990E94CDE918450BAD2846CDE90C4491
:1057980001F0C6FB2146284601F0DCFC10A906F101
:1057A800700002F0B5FE214B0FCB85E80F00326F79
:1057B800294606F1140001F0D1F91AB0BDE8F081CC
:1057C80040F60132184B06F158001995ADF82C2017
:1057D8000BAD0B991894CDF84A3000F0A3F8DDE72B
:1057E8001023114A06A906908DF828300BAD104BEE
:1057F800CDF84A2009940294CDE90730CDE9180480
:1058080002A801F025FE0823029A03A92846ADF84C
:105818000C708DF80E40049705930B9400F0C2F8B5
:10582800BCE700BF040204040406040364730124F3
:105838000704010B2DE9F041384B0446384D40F27E
:105848000112012704F104082DED028B82B0456096
:10585800A36003F58133ADF8042040F2027203F52A
:10586800807300202285E36040F606632782A387C1
:10587800E762276400918DF8060003F023FA0546D5
:1058880003F07AF86946064610BB0DB304F15000E0
:105898008DF8067003F098F9072D30D104F114053E
:1058A8002046FFF743FF284601F0A2F92846B0EE4C
:1058B800408A01F08BF9D0ED007AF8EE677A88EE2D
:1058C800277A84ED1B7A02B0BDEC028BBDE8F0812B
:1058D80004F1500003F078F9072D15D1002EDDD022
:1058E80004F12801084601F00BFA04F13C010846CE
:1058F80001F006FA04F1120000F076F9CEE741460D
:10590800204602F051F9C9E74146204602F04CF919
:10591800002EE5D1002DE3D0C0E700BF050705063E
:105928000508050930B585B0002504460122ADF803
:105938000C102B460399009501F0F2FA012120463C
:1059480001F008FC012003F015F82946204601F073
:1059580001FC012003F00EF80121204605B0BDE846
:10596800304001F0F7BB00BF10B5C2F3002384B08C
:105978000C46017C8DF80D2043EA4402FA240223E8
:105988008DF80C2003AA009401F0F6FD18B101244B
:10599800204604B010BD04460A2002F0EBFF204662
:1059A80004B010BD034670B5044684B043F8042B18
:1059B800FA2507C983E80700A1791E23009503AAE1
:1059C8001A31ADF80C3020460223C9B2217401F017
:1059D800D3FD10B1012004B070BD0A2002F0CAFF47
:1059E8004FF4B85200950223ADF80C20204603AAC4
:1059F800217C01F0C1FD0028ECD10A2002F0BAFF99
:105A080041F2027200950223ADF80C20204603AA49
:105A1800217C01F0B1FD0028DCD10A2002F0AAFFA8
:105A2800042200950223ADF80C20204603AA217C0D
:105A380001F0A2FD0028CDD10A2002F09BFF06222A
:105A480000950223ADF80C20204603AA217C01F022
:105A580093FD0028BED10A2002F08CFF41F20822F3
:105A680000950223ADF80C20204603AA217C01F002
:105A780083FD0028AED10A200A2602F07BFF00959C
:105A8800022303AA217C2046ADF80C6001F074FDC6
:105A980000289FD1304602F06DFF23790C22009533
:105AA800002B217C8DF80C20204614BF6223422352
:105AB8006A448DF80D30022301F05EFD002889D17B
:105AC800304602F057FFA36800952046E268217C23
