:020000042400D6
:1000000000000220410A0024350A002495E1012461
:10001000350A0024350A0024350A002400000000B7
:10002000000000000000000000000000350A00246D
:10003000350A002400000000350A002419E10124DB
:10004000350A0024350A0024350A0024350A002424
:10005000350A0024350A0024350A0024350A002414
:10006000350A0024350A0024350A0024F5DC012471
:1000700001DD0124350A00240DDD012419DD0124F0
:1000800045A60224FDCC0124350A0024350A0024AB
:10009000350A0024350A0024350A0024350A0024D4
:1000A000350A0024350A0024350A0024350A0024C4
:1000B000C1970224CD970224D997022431CD01247F
:1000C000350A00243DCD0124350A00246190022424
:1000D0006D90022455A4022485A40224BDA4022408
:1000E000350A0024350A002400000000350A0024E7
:1000F000350A0024350A0024350A0024350A002474
:10010000350A002459CD0224E5970224799002246F
:10011000F5A402242DA5022461580124350A0024E7
:10012000350A0024350A00249D900224D19002242F
:1001300079A60224350A0024350A0024350A002451
:1001400000000000000000000000000000000000AF
:10015000350A0024350A0024350A002465A5022446
:1001600049CD0124350A002429E101244DE101246F
:10017000350A002471E10124350A0024350A0024DF
:10018000350A0024350A00249DA50224D5A50224A1
:100190008590022491900224350A0024350A002417
:1001A000350A0024350A0024350A0024350A0024C3
:1001B00035D90124350A0024350A0024350A0024E3
:1001C000350A0024350A0024E1C50124EDC50124C7
:1001D000350A0024F9C50124350A0024350A002413
:1001E000350A0024350A0024350A0024350A002483
:1001F000350A0024350A0024350A0024350A002473
:10020000350A0024350A0024350A0024350A002462
:10021000350A0024350A0024350A0024350A002452
:10022000350A0024350A0024350A002400000000A5
:10023000350A0024350A002400000000350A002495
:10024000350A0024350A0024350A0024350A002422
:10025000350A0024350A0024350A0024350A002412
:10026000350A0024350A0024350A0024350A002402
:10027000350A0024350A00240DA6022400000000DF
:10028000350A0024350A0024350A00240000000045
:0802900000000000350A002403
:1002A00010B5054C237833B9044B13B10448AFF3B0
:1002B00000800123237010BD181E002000000000E4
:1002C0003421032408B5034B1BB103490348AFF3A2
:1002D000008008BD000000001C1E00203421032403
:1002E000034613F8012B002AFBD1181A0138704776
:1002F00001F0FF01102A2BDB10F0070F08D010F8D7
:10030000013B013A8B422DD010F0070F42B3F6D1DA
:10031000F0B441EA012141EA014122F007047FF0F3
:1003200000070023F0E80256083C85EA010586EA4A
:10033000010685FA47F5A3FA87F586FA47F6A5FA86
:1003400087F68EB9EED1F0BC01F0FF0102F0070292
:1003500032B110F8013B013A83EA010313B1F8D13D
:100360000020704701387047002D06BF354603381E
:10037000073815F0010F07D1013015F4807F02BF57
:10038000013015F4C03F0130F0BC0138704700BFA8
:1003900081F0004102E000BF83F0004330B54FEA36
:1003A00041044FEA430594EA050F08BF90EA020FA3
:1003B0001FBF54EA000C55EA020C7FEA645C7FEA36
:1003C000655C00F0E2804FEA5454D4EB5555B8BF59
:1003D0006D420CDD2C4480EA020281EA030382EACA
:1003E000000083EA010180EA020281EA0303362D5C
:1003F00088BF30BD11F0004F4FEA01314FF4801C2F
:100400004CEA113102D0404261EB410113F0004F40
:100410004FEA03334CEA133302D0524263EB4303F7
:1004200094EA050F00F0A780A4F10104D5F1200E95
:100430000DDB02FA0EFC22FA05F2801841F10001F0
:1004400003FA0EF2801843FA05F359410EE0A5F1C4
:1004500020050EF1200E012A03FA0EFC28BF4CF0F5
:10046000020C43FA05F3C01851EBE37101F00045AB
:1004700007D54FF0000EDCF1000C7EEB00006EEBB8
:100480000101B1F5801F1BD3B1F5001F0CD3490842
:100490005FEA30004FEA3C0C04F101044FEA445299
:1004A00012F5800F80F09A80BCF1004F08BF5FEA20
:1004B000500C50F1000041EB045141EA050130BD00
:1004C0005FEA4C0C404141EB0101013C28BFB1F512
:1004D000801FE9D291F0000F04BF01460020B1FA5D
:1004E00081F308BF2033A3F10B03B3F120020CDA30
:1004F0000C3208DD02F1140CC2F10C0201FA0CF00E
:1005000021FA02F10CE002F11402D8BFC2F1200C72
:1005100001FA02F120FA0CFCDCBF41EA0C01904028
:10052000E41AA2BF01EB0451294330BD6FEA040471
:100530001F3C1CDA0C340EDC04F11404C4F120025C
:1005400020FA04F001FA02F340EA030021FA04F36E
:1005500045EA030130BDC4F10C04C4F1200220FAC5
:1005600002F001FA04F340EA0300294630BD21FA03
:1005700004F0294630BD94F0000F83F4801306BFC9
:1005800081F480110134013D4EE77FEA645C18BFBD
:100590007FEA655C29D094EA050F08BF90EA020F54
:1005A00005D054EA000C04BF1946104630BD91EA4C
:1005B000030F1EBF0021002030BD5FEA545C05D14F
:1005C0004000494128BF41F0004130BD14F580048E
:1005D0003CBF01F5801130BD01F0004545F0FE4102
:1005E00041F470014FF0000030BD7FEA645C1ABF37
:1005F000194610467FEA655C1CBF0B46024650EA6E
:10060000013406BF52EA033591EA030F41F4002199
:1006100030BD00BF90F0000F04BF0021704730B51F
:100620004FF4806404F132044FF000054FF00001F4
:1006300050E700BF90F0000F04BF0021704730B5B5
:100640004FF4806404F1320410F0004548BF40428A
:100650004FF000013EE700BF42004FEAE2014FEADF
:1006600031014FEA02701FBF12F07F4393F07F4FBA
:1006700081F06051704732F07F4208BF704793F0BD
:100680007F4F04BF41F40021704730B54FF46074D0
:1006900001F0004521F000411CE700BF50EA0102D3
:1006A00008BF704730B54FF000050AE050EA01027C
:1006B00008BF704730B511F0004502D5404261EBEC
:1006C00041014FF4806404F132045FEA915C3FF42D
:1006D000D8AE4FF003025FEADC0C18BF03325FEACA
:1006E000DC0C18BF033202EBDC02C2F1200300FA7B
:1006F00003FC20FA02F001FA03FE40EA0E0021FAA0
:1007000002F11444BDE600BF53B94AB9002908BF3D
:1007100000281CBF4FF0FF314FF0FF3000F088B9C8
:10072000ADF1080C6DE904CE00F006F8DDF804E048
:10073000DDE9022304B070472DE9F047089D8E469D
:1007400004468846002B4AD18A42174662D9B2FA3B
:1007500082F64EB1C6F1200301FA06F820FA03F33F
:10076000B74043EA0808B4404FEA174E1FFA87FC27
:10077000B8FBFEF1230C0EFB118843EA084301FB92
:100780000CF29A4209D9FB1801F1FF3080F0EA809F
:100790009A4240F2E78002393B449A1AA3B2B2FB74
:1007A000FEF00EFB102243EA024300FB0CFC9C45CA
:1007B00009D9FB1800F1FF3280F0D6809C4540F249
:1007C000D3803B44023840EA0140A3EB0C030021F4
:1007D0001DB1F3400022C5E90032BDE8F0878B422D
:1007E00005D90DB1C5E9000100210846F5E7B3FAC6
:1007F00083F1002946D1734502D3824200F205817C
:10080000841A6EEB030201209046002DE5D0C5E965
:100810000048E2E7002A00F09080B2FA82F6002E4B
:1008200040F0A4808A1A030C4FEA174E80B2BCB283
:100830000121B2FBFEFC0EFB1C2243EA024304FB37
:100840000CF29A4207D9FB180CF1FF3802D29A42F7
:1008500000F2E080C4469B1AB3FBFEF20EFB12339B
:1008600040EA034302FB04F49C4207D9FB1802F15F
:10087000FF3002D29C4200F2CA8002461B1B42EAB1
:100880000C40A5E7C1F120068B4022FA06F71F4372
:100890000EFA01F420FA06F32EFA06FE4FEA174983
:1008A000234300FA01F81FFA87FCBEFBF9F01C0C89
:1008B00009FB10EE44EA0E4400FB0CFEA64502FACA
:1008C00001F209D93C1900F1FF3A80F09C80A6455D
:1008D00040F2998002383C44A4EB0E041FFA83FED8
:1008E000B4FBF9F309FB13444EEA044403FB0CFC8C
:1008F000A44508D93C1903F1FF3E80F08280A4454D
:100900007FD9023B3C4443EA0040A4EB0C04A0FB2B
:1009100002EC64457346E14662D35FD05DB1B8EB4B
:10092000030264EB090404FA06F622FA01F31E43FB
:10093000CC40C5E9006400214FE7B1FBF2FC010C9B
:1009400041EA0E4180B240EA01423B4638463C460D
:10095000B846BE462026B1FBF7F1A2EB080241EAF9
:100960000C4166E7014618E710462CE7C6F1200265
:100970002EFA02F3B740B14020FA02F24FEA174EC6
:100980000A43B3FBFEF8BCB20EFB1833110C41EA6C
:10099000034108FB04F9B04089454FEA104380B297
:1009A0003ED9791808F1FF3C01D289451FD8A1EB47
:1009B0000901B1FBFEF909FB04F80EFB191192B213
:1009C00042EA0142424529D2BA1809F1FF31C4D2A4
:1009D0004245C2D2A9F102013A44BEE7F0459DD298
:1009E000BEEB02036CEB070C0138E14696E7A7EB80
:1009F00009094944A8F1020CB1FBFEF909FB04F80E
:100A0000DBE773467FE7504666E70846FDE63B4472
:100A1000023A33E7ACF1020C3B441CE749469CE741
:100A2000A1EB0901C446B1FBFEF909FB04F8C4E7D8
:100A3000704700BF684620F007018D46FEE700BF03
:100A40000A480B4A904208B503D0121A09492FF000
:100A5000E2F80948094A904203D0121A00212FF007
:100A60001FF82FF0B1F814F009FFFEE70000002096
:100A7000181E002070210324181E0020D4320120EB
:100A8000704700BF704700BF704700BF704700BF8E
:100A9000704700BF704700BF704700BF704700BF7E
:100AA000704700BF2DE9F04317282DED048B83B06C
:100AB000DDF838C0CDE9001300F2F380B34B0546F2
:100AC0001B5C002B00F0ED80B14800240646034675
:100AD00003E00134202C00F02981197830330029FB
:100AE000F7D1AC4B53F82510BCF1000F00F0DE80BD
:100AF000614540F2DB80DDED007A04EB44039FEDBD
:100B0000A67A962AF8EEE77A06EB03134FEA440832
:100B1000C3F82CC087EE878A00F2E38007EE902AA4
:100B2000DFED9E6AF8EE677A87EEA67A9C4B4FEA75
:100B3000850903EB8503B5EEC00AD3ED007A28EEF4
:100B4000078AF1EE10FA28EE278A00F1C780F7EE47
:100B5000087AB4EE670AF1EE10FA37FE800ADDED8E
:100B6000017AFFEE006A9FED8D6A28EE008AB8EEEA
:100B7000E77A8C4B4B44C7EE067A93ED007A77EE1A
:100B8000877AF4EEE67AF1EE10FA40F19480DFED28
:100B9000868AF0EE489A68EE288A08EB0403834AB6
:100BA0001801525D06EB03135D7001233354002AD4
:100BB0007ED0013907EE901AF8EE677A7C4B08EB8D
:100BC0000407DFED7C0AB0EE000A33F9153006EBBE
:100BD000071707EE103A784BC7ED017AB8EEC77ADF
:100BE0004B4493ED009AC7EE200A2DF0C9FB734BDE
:100BF00087ED058A5B5DC7ED039A29EE009AC7ED84
:100C0000048A87ED029ABBB36D4B4B44D3ED007A57
:100C1000F5EEC07AF1EE10FA6DD5B7EE007A012547
:100C2000B0EE476A674BF7EE006A4B44D3ED007AAB
:100C300008EB0403F4EEE67A06EB031383ED067A81
:100C4000F1EE10FA83ED076A00F184809FED5E7A81
:100C5000F4EEC77AF1EE10FA7FDC9FED5C6ABFEE2E
:100C6000007ADFED5B6A67EE867A67EEA67A87EE3A
:100C7000270A2DF093FA08E0F7EE007A0225B0EE8D
:100C8000670AC7ED067AC7ED077A524BA0441A6887
:100C900006EB0816511C86ED080A86F82450B2624D
:100CA000196003B0BDEC048BBDE8F0838C4622E7ED
:100CB000DFED3D7A82E7B7EE007AF4EEC77AF1EE27
:100CC00010FA11DCF5EEC07AF1EE10FA48D577EEA5
:100CD000877AF0EE489A67EE888A5EE79FED320ADF
:100CE0003DE7B7EE087A21E7DFED2F9AF0EE488A6C
:100CF00068EE299A51E79FED387AF4EEC77AF1EE63
:100D000010FA35DC9FED357AF4EEC77AF1EE10FA81
:100D100083D99FED2E6AB7EE007ADFED2D6A67EE7C
:100D2000867A67EEA67A87EE276A23E000244FF0E2
:100D3000FF3327460AE0816A3030994238BF2746A0
:100D400004F1010438BF0B46202C1CD04178A94285
:100D5000F1D1C6E69FED220A8BE79FED220A88E7D4
:100D600077EE679A69EE889A08DDF0EE488A14E714
:100D70009FED1D6A00259FED0C7A53E777EE877A89
:100D800067EE888A09E73C46ABE600BF3053002097
:100D9000304D0020A85300200000FE420000C84251
:100DA000CC4C00206C43002000000000BC4A002016
:100DB0002C4A0020000096445C4A0020803A002023
:100DC000203A0020C03900200000FA4500803B474F
:100DD0006F12833A2C4D00200000FA440AD7233CBE
:100DE000AAAAAABC3DC32EB63DC32E3710B50446F1
:100DF000FFF776FA032804D9031FE25C1C442E2A6D
:100E000001D0002010BD637803F0DF03572BF8D129
:100E1000A37803F0DF03412BF3D1E07800F0DF008B
:100E2000A0F15600B0FA80F0400910BD2DE9F04F56
:100E3000224E83B081468846019314463378072BAF
:100E400009D91F4A1378013303F00703137033786D
:100E5000013BDBB233701B4F20221B4D002197F862
:100E600000C005EB4C105FFA8CFB4FEA4C1A2EF0D9
:100E700017FE0023220A0AF1080069F3070301990B
:100E8000284468F30F2364F31743240C62F31F63B1
:100E90004FEA4B12AB5005EB4B1517222C712EF07D
:100EA00023FE3B78013303F007033B7033780133B3
:100EB000DBB2337003B0BDE8F08F00BF9038002084
:100EC000913800209238002094380020172901D949
:100ED000002070472DE9F04FADF2644D0D46012220
:100EE00001468DA819F0AAF920B100200DF2644D39
:100EF000BDE8F08F01AB2C2202A98DA819F09EFA53
:100F000050B9019B2B2B07D9704B029A9A4203D1FF
:100F10006F4B049A9A4203D08DA819F0C3FBE4E703
:100F20000C218DA8BDF81E90BDF82A6019F022FC96
:100F3000909B083B0C2BEFD90C2711E0019A072A54
:100F4000EAD90D9A8DA80E9C9A4213D09299214409
:100F5000083419F00FFC909B2744083BBB42DBD9B7
:100F600001AB08220DA98DA819F068FA594B002889
:100F7000E4D0D1E7002CCFD0F70809FB07F7002F0A
:100F8000CAD0554BB4FBF7F8984528BF9846102EA9
:100F90001BD1B9F1010F18D1504B4FEA480250490B
:100FA0008DA801FB053101AB19F048FA019C4D4BAE
:100FB000640843F82540003C4B4E8DA818BF01241F
:100FC000745519F06FFB705D90E7BC427BD3424BC8
:100FD000002403FB05FAA8EB040201AB0DA98DA8C0
:100FE00007FB02F2B2F5007F28BF4FF4007219F040
:100FF00025FA002863D1019B002B60D0A045B3FBEC
:10100000F7FC5CD9BB4258D36FF0004333490DAABB
:101010005344234401EB43010DE0182E1AD0082E4F
:101020002AD00023013001343A4421F8023F84459C
:1010300043D9A04543D9102EEFD1B9F1020FB2F92F
:101040000030EFD1B2F902E01EEB030323D443F3E7
:101050004F03E7E75378B9F1020F92F800E04FEA47
:10106000034343EA0E2392F802E043EA0E634FEA99
:10107000234312D01BB2D5E71378B9F1020FA3F1C5
:1010800080034FEA0323F5D192F801E0AEF1800E20
:1010900013EB0E23DBD50133D9E792F804E092F885
:1010A00003B04FEA0E4E4EEA0B2E92F805B04EEA10
:1010B0000B6E13EB2E43CAD5EDE7A0458BD8094B39
:1010C00043F8254077E70024F9E700BF5249464638
:1010D000574156456461746100770100347020C047
:1010E00000EE0200A853002030530020F2EE0E7AEA
:1010F000B7EE006AA0EEA76A66EE007A03282ED843
:10110000DFE800F025382002B7EE005AFFEE005A63
:10111000F0EE006AF4EEC57AB0EE657AF8EE004AB9
:10112000F1EE10FA06DD76EEE77AF4EEC77AF1EE2C
:1011300010FA04D4F4EEE57AF1EE10FA0FD574EE5D
:10114000E77AE1E7F5EEC07AF1EE10FA1CDBB0EEDB
:10115000E77AF7EE006A37EE267AC7EE877A87EEEF
:10116000867AB7EE000AF6EE007AA0EEA70A27EE1E
:10117000000A7047BFEE007AF4EEC77AF1EE10FA7B
:1011800011D5F0EE477AEAE7DFED0B6AF7EE005A89
:1011900067EEA67AB0EEE77A37EE257AC7EE875A81
:1011A00065EEA67ADBE7B7EE007AF4EE477AF1EE69
:1011B00010FA77FE277AD2E73333333F70B4012237
:1011C0001A4D1B4B2A705B69D80720D519481A4C59
:1011D00007E0028892B2B1540380154B5B69D907CE
:1011E00015D5134B154E93F8301003882288C9B2D9
:1011F000013392B2C3F30A039342EAD1104A13882F
:1012000001339BB213800A4B5B69D907E9D4084BC1
:101210005A69520606D50B4A402199611388013359
:101220009BB2138000232B7070BC7047341E0020CB
:1012300000300140381E0020361E00203C1E0020D9
:10124000883800208A380020084BB6EE007AD3EDAB
:10125000017A93ED006AC7EE866A77EEE67AF0EEE1
:10126000E77A67EE877AC3ED047A7047284B00204F
:101270002DE9F04F3F4FADF52D7D002617F8018F7A
:10128000B8F1000F5FD13C491EA83C4B51F82640F5
:1012900060213B4A00942EF023FB414640220EA8D9
:1012A0002EF0FEFB1EA902A819F02EFC00284AD140
:1012B00066A902A819F078FC98BB9DF8AE4184B3EA
:1012C0009DF8A031DB06F3D40DF5D770FFF78EFD46
:1012D00005460028ECD0B8F1000F3BD00DF13809DD
:1012E0000DF5D77A0BE02EF015FA044658462EF08D
:1012F00011FA844239D11AF8014F002C37D0C84670
:1013000019F801BB2046BBF1000FECD1A4EB0B0494
:10131000002C1FDBA84666A902A819F045FC00288E
:10132000CBD002A819F028FCB8F1000F0BD00EA802
:10133000C0211EAB124A009036A82EF0D1FA36A872
:10134000F1B2FFF7C3FD0136102E97D10DF52D7DBB
:10135000BDE8F08F3F220DF5D7710EA8A8462EF0FC
:10136000C3FB00238DF87730D5E7241AD0E798F82F
:1013700001B0CBE72F5300201C110324300A0324B3
:10138000380A0324A64B2DE9F04F1C782DED0A8B6B
:1013900083B0002C40F03E81DFEDA2BA0122A24DC5
:1013A000F7EE00CAB0EE6BBA1A70F0EE6BAA05F554
:1013B000C043B0EE6B9A05F5805B9FED9CCA05F5C6
:1013C000005A05F5405905F5804805F5A0470193F9
:1013D000DFED977AF5EE006AB1EE007A9FED956A3F
:1013E00029EE279AB4EEE69A79EE099A69EE077A21
:1013F000F1EE10FA69EE869A0BD4F6EE086AB4EEB6
:10140000E69AF1EE10FA40F10281B0EE007A77EE42
:10141000677A9FED848AA5F5805202263AEE888A83
:10142000C2ED00AAE5EC017AB0EE48AA07EE906A98
:101430000136F8EEE78A29EEA80A2DF02DF9C0EE64
:10144000287A092E3AEE27AAF0D1DFED7B7AF0EE6A
:10145000488A03262AEE27AAABEC01AA07EE906A77
:101460000236B8EEE7AA29EE8A0A2DF015F9C0EE89
:101470000A7A0B2E78EEA78AF0D19FED707AFFEEF4
:10148000007A68EE878AF4EEE78AF1EE10FA00F14E
:10149000B580F7EE007AF4EE678AF1EE10FA77FE87
:1014A000A88AF5EE006A9FED637ADFED5E7A032687
:1014B000EAEC018A39EE269A7CEEA7CA39EE099A3F
:1014C00029EE079A07EE906A0236F8EEE78A29EECF
:1014D000A80A2DF0E1F8B0EE40AA29EE280A2DF076
:1014E000DBF8C0EE287A0B2E8AEE287A7CEEA7CAAB
:1014F00038EE078AE6D138EE2C8A9FED4F7AFFEE60
:10150000007A28EE078AB4EEE78AF1EE10FA7BD46F
:10151000F7EE007AB4EE678AF1EE10FA37FE888AA9
:10152000F5EE007A9FED465A9FED466AFFEE006A9F
:101530009FED457A6BEE277ADFED445A2BEE077A62
:10154000A9EC018AEAEE857AAAEEA57AEBEE867A14
:10155000A8EC017AF4EEE67AF1EE10FA51D4B7EE87
:10156000007AF4EE477AF1EE10FA77FE277A9FEDD3
:10157000387A0134E7EC017ACCEE077A019BB4F5B6
:10158000806FE3EC017A019344D007EE904A9FED1F
:10159000288A9FED28AAB0EE08CAB8EEE79A29EE8D
:1015A000088A78EE088A68EE8A9AB0EE690A2DF009
:1015B00073F8F0EE40AA39EEA90A2DF06DF8B0EEFE
:1015C00040BA29EE8C0A2DF067F8F7EE007AF0EEBB
:1015D00040BA38EEE70A20EE0C0A2CF04DFCF5EE8E
:1015E000007AB0EE40CA38EE278A38EE088A28EE34
:1015F0000A0A2DF051F8F0EE40CAE9E6F0EE678AEB
:101600004FE7F0EE667AB2E7B0EE678A88E777EEEA
:10161000C77AFEE603B0BDEC0A8BBDE8F08F00BFD1
:10162000845400200000000088640020E9BB7EBFD5
:101630000000803ADB0F494083F9223F83F9A23F43
:10164000E17A143F7B142E3E9A99993E3333333F0F
:10165000E9BB7E3F70B5174D1C46164613465A220D
:101660004FF6FF7E68702A70A2196C80A98013F86B
:10167000010B4FF0080C80EA0E0E4EF300010E48ED
:101680000CF1FF3C08401CF0FF0C80B280EA5E0EBB
:10169000F3D19342EBD12246314608480834A5F8ED
:1016A00006E02EF0B8FA06490122064B0C801A70AB
:1016B00070BD00BF0000003001A0FFFF0800003037
:1016C000085400200A540020D54B2DE9F0412DED9F
:1016D000028B5A5CB0EE408A0C460646002A40F067
:1016E000AB82D04BA500DFEDD07A03EB8403CF4A69
:1016F000D3ED000A105DF4EEE70AF1EE10FA05D41E
:10170000B0EE480AFFF7F2FCB0EE408AC84B1A5D13
:101710000F2A0BD80123934007EE903AF8EEE77AB0
:1017200028EE277AB8FE477A87EE278AC14B1B57E7
:10173000002B40F05B82C04B1B57002B40F03082E7
:10174000BE4B1B57002B40F00582BD4B1B5D002B91
:101750005CD0BC4B42F27F5CBB48FFEE006A2B447E
:10176000BA4950F82420D3ED007A02F51653FCEE66
:10177000E77A17EE907AF0EE487A674528BF674619
:10178000012F2CBFDB1B03F1FF33A1FB03714FF4CF
:101790001657890A07FB1133AD4907FB043301EBE8
:1017A000830393ED007AAB4B2B4493ED006AE7EE95
:1017B000067AF4EEE67AF1EE10FA00F1C881F7EE5F
:1017C000006AF4EE667AF1EE10FA76FEA77AA24B82
:1017D000F7EE006A571C2B4493ED006A9B4B76EEA4
:1017E000C66A27EE067AA3FB07C34FF4165C9B0A72
:1017F000A8EE267A0CFB04220CFB137701EB820186
:1018000040F82470C1ED007AB0EE478A934B1B5D1F
:10181000002B7FD0924FB6EE007ADFF8A0C24FEADD
:10182000C42E57F824208F4802EBC4230CEB83030B
:1018300083ED008A4319D3ED006AF4EEC76A76EEB1
:10184000A67AF1EE10FA40F17681874BB5EE007A78
:10185000DFED865A40F2FF782B44BFEE006A93ED2D
:10186000005A834B67EE857A2B4467EEA57AD3ED59
:10187000005A67EE877AFCEEE77A17EE903AF0EEC0
:10188000487A0233434594BFD11AA2EB0801C1F351
:101890000A0373440CEB830393ED007AE7EE257A99
:1018A000F4EEC67AF1EE10FA00F1F081B7EE006ABC
:1018B000F4EE467AF1EE10FA76FE277A6D4B9644F6
:1018C000DFED6D5AB7EE006A2B440CEB8E0C013243
:1018D000284493ED005ACCED007AC2F30A02C5EE1B
:1018E000257A664B47F824202B4477EEA67AD3ED71
:1018F000006A76EE665A27EE267AF4EEC67AA8EEED
:10190000257AF1EE10FAA8BF77EEC67AB0EE478AD4
:10191000C0ED007A5A4B1B5D2BB35A4BF0EEC87AE0
:101920005A1992ED000AF4EEC07AF1EE10FA00F3C3
:10193000078170EE677A9FED547AA7EEC70A534A83
:101940002B442A4483ED000AD2ED007AB4EEE70A74
:10195000F1EE10FA07DD9FED4E7AB4EEC70AF1EE14
:1019600010FA00F3B5814B4B4B4A1B78125D23B143
:101970004A4B1B5D002B00F0B080002A40F0AD8088
:10198000474B484A2B44125DD3ED007A002A40F0C1
:10199000A880F7EE006AB6EE007A76EEE75A77EEA8
:1019A000A67A65EE875A27EE877A3F4BF0682B447C
:1019B000D3ED007A3D4B68EE277A2B44D6E900241C
:1019C00067EEA67A93ED005A92ED006A384BF0EE7E
:1019D000466A2B44B0EEE76AE7EEA56AD3ED005AFB
:1019E000344B2B44C2ED006AD4ED006AE7EE876AFF
:1019F000D6E90412C4ED006A90ED007AD3ED006AD6
:101A0000A7EE857A2C4B2B4480ED007A91ED007A7D
:101A1000A7EEA57A81ED007A92ED007A50E000BF42
:101A200020430020004200200AD7233CE841002048
:101A3000D0410020903C0020783C0020603C0020F9
:101A4000B84100205841002038400020B5814E1B8D
:101A5000000003C0F84000209840002020400020F3
:101A6000E03D0020403E0020C03F00200000004537
:101A7000003F0020603F002000803B47A03E002048
:101A8000C83D0020A83C00208FC2F53C683D0020E6
:101A90006F12833A38430020544300203C43002017
:101AA0006C430020483C0020CC4C00208C4400209B
:101AB0002C440020CC430020A04B0020000000C09C
:101AC000A7EEA67A82ED007AD3ED007AB4EEE76A4B
:101AD000F1EE10FA01DD83ED006ABDEC028BBDE88A
:101AE000F081A34B1B5D002B40F0D380B368F7EE71
:101AF000006A9FEDA07A2B4493ED006AE6EE076A38
:101B0000F5EEC06AF1EE10FA00F1FC80B0EE007A5A
:101B1000F4EE476AF1EE10FA77FE266AB7EE006A35
:101B2000B6EE007A76EE675A77EE867A65EE875AD9
:101B300027EE877A39E7B0EE007A77EE677A84E6A7
:101B400077EEC07AB5EE007AA7EE870AF7E6F0EEF8
:101B5000667A3CE6884BC4EBC40203EB8203D3ED08
:101B6000056AD3ED007A93ED037AE8EE276A93EDE8
:101B7000015AD3ED047AD3ED025A93ED066A27EEAB
:101B8000667A67EEE67AA8EE057AE8EE257AB0EE98
:101B9000668A36EE077AC3ED067A83ED057AD4E5D8
:101BA000764BC4EBC40203EB8203D3ED056AD3ED9D
:101BB000007A93ED037AE8EE276A93ED015AD3EDAC
:101BC000047AD3ED025A93ED066A27EE667A67EE41
:101BD000E67AA8EE057AE8EE257AB0EE668A36EE69
:101BE000077AC3ED067A83ED057AA9E5644BC4EB69
:101BF000C40203EB8203D3ED056AD3ED007A93EDC3
:101C0000037AE8EE276A93ED015AD3ED047AD3ED17
:101C1000025A93ED066A27EE667A67EEE67AA8EE38
:101C2000057AE8EE257AB0EE668A36EE077AC3EDDD
:101C3000067A83ED057A7EE5C1EBC101514B092A95
:101C400003EB81034FEA8101D3ED057A93ED007A2E
:101C5000D3ED036AE0EE077A93ED015A93ED047A2F
:101C6000D3ED025A93ED066A66EEE76A27EE677ACD
:101C7000E0EE056AA0EE257A76EE266A83ED067A16
:101C8000C3ED056A41D0B0EE678A2AE5F0EE467AE8
:101C900014E6012B7FF47DAEB368BFEE007ADFED72
:101CA0003A6A2B4493ED006AE6EE267AF4EEC77AA0
:101CB000F1EE10FA54D4F7EE006AF4EEE67AF1EEA3
:101CC00010FA7FF768AEB0EE667ADFED305A6CE658
:101CD0002F4BB7EE007A87EE800A2B44D3ED007AC3
:101CE000C7EE270A77EE600A2CF04AFBF4EE007A82
:101CF000B4EE670AF1EE10FA48BFB0EE670A28EEBC
:101D0000008A30E6DFED216A08E7224BDFED224A48
:101D10000B4493ED050A93ED007AD3ED036AA7EE29
:101D2000870A93ED015A93ED047AD3ED025A93EDAD
:101D3000066A66EEC06A27EE407A20EE240AE7EED5
:101D4000856AA7EEA57A36EE266A83ED067A83EDDC
:101D5000056A2CF091F8DFED117A20EE278AC0E4B5
:101D6000F7EE005A9FED097AF0EE656A1DE600BFB6
:101D7000183C0020CDCC4C3F08050020A8070020CF
:101D8000480A0020880F00206666663F00000000B9
:101D9000083D0020E80C00203333B33FB4C8363F81
:101DA00090F82C30002B00F01181DFED8E7A10B509
:101DB0002DED088B90ED088A0446B4EEE78AF1EE2B
:101DC00010FA00F3DF80DFED887AF7EE00AA94EDD9
:101DD000118A94ED017A94ED0C9A38EE2A8AD4EDAA
:101DE000038AF1EE499A94ED020A38EE278A89EEC9
:101DF000800A28EE078A2CF0D1F994ED0AAAD4EDD6
:101E00000D7A68EE288AA8EE808AEAEE087AF4EE67
:101E1000EA7AB0EE670AF1EE10FAA8BF37EEEA0AE6
:101E2000DFED727A84ED0D0A20EE270A2CF034FCE7
:101E3000B6EE006A94ED0E7AF7EE006ADFED6B7A8B
:101E4000F0EE408A28EE068AAAEE087AB4EEE67A28
:101E5000F1EE10FAA8BF37EE667A27EE270A84ED76
:101E60000E7A2CF019FCD4ED047AF0EE40AA94ED31
:101E700006BA89EEA70A2CF091F9616E236FD4EDB2
:101E8000186ACA1894ED177AB0EE666AD4ED154A4E
:101E900005EE902AF0EE667A9FED553AB0EE005AC4
:101EA000F8EEE55AD4ED163AA7EE246A94ED144AFA
:101EB000B0EE408A94ED000AD5EE837A89EE800A6E
:101EC000A7EEA36A67EEA47AD4E91A20E4EE077AB3
:101ED00053404840D6EE056A59404FEA7353616655
:101EE00080EA422197EE857A4240236728EE278ACE
:101EF000C4ED186AC4E91A2184ED177A2CF04EF962
:101F0000F0EE687AF6EE006AD4ED055AB1EE006A9A
:101F1000EAEE8B7AB7EE007AA5EE867AE8EE267ABC
:101F2000F5EEC07A67EE877AF1EE10FA51DDF3EE46
:101F30000B6AF2EE025A27EEA77AB0EE666A39EE25
:101F40000A9AA7EE256A37EE267A84ED0C9A27EED8
:101F5000277AC7EE067A9FED277AB4EEC70AF1EE2C
:101F600010FA02D5002384F82C3027EE800A94ED75
:101F7000077AD4ED0F7A20EE070ABDEC088B20EE2D
:101F8000270A10BD9FED1C7ADFED1C7A90ED100A38
:101F9000E8EE077AD0ED0A6AB7EE007AA7EEA60A55
:101FA000DFED177AB4EEC70AF1EE10FAA8BF30EEF3
:101FB000470A80ED100A20EE270A2CF06DFB28EE70
:101FC000008ADFED107A68EE277AFEE69FED060ABA
:101FD00070479FED0D7AF3EE0B6AF2EE025A67EE50
:101FE000877AA8E76F12833A00000000DB0FC94030
:101FF000000000306F12033A9A99993F9A99993EDE
:10200000DA0FC940A69B443B3333333FB5EEC00AD9
:10201000012238B5F1EE10FA4FF0000304462DED21
:10202000088BB0EE408A80F82020B7EE000A4362A9
:10203000C362836207D4B4EEC08AF1EE10FA40F3B3
:102040000C81B2EE040A2CF01DF9D4ED057A9FED57
:10205000AD7ADFEDAD6AF4EEC77A20EE260AF1EE36
:1020600010FA84ED0C0A00F30F81F2EE085AD4ED59
:10207000016AF3EE0C7AD4ED038AB2EE006A94EDB5
:10208000060AB2EE0E7A9FEDA1AAE6EEA57A94EDCD
:1020900002BADFED9F9A20EE0AAAA6EE867ADFED5D
:1020A0009D6A9FED9D6ADFED9DAAEBEE069A68EEB4
:1020B000A77A60EE2AAA68EE878AF4EEE67AF1EE55
:1020C00010FA0FD4B4EEE7AAF1EE10FA0CD5F2EE46
:1020D000047AB4EEE7AAF1EE10FA40F11081DFEDD8
:1020E000907A0BE0F0EE667AF4EEEA7AF1EE10FA0E
:1020F00000F3AE809FED8B7A67EE877A30EE009A20
:1021000087EE890A2BF08CFE84ED0F0AF6EE007A3A
:10211000F4EEE79AF1EE10FA00F1B380DFED827A87
:10212000F4EEE79AF1EE10FA00F3DB80B7EE007AF6
:10213000C7EE297AC4ED107ADFED7C6ADFED7C5AB8
:10214000DFED7C9AB7EE007A30EE275AF4EEE68A9D
:10215000B0EE476AEBEE259AF1EE10FAA0EE056AB2
:10216000C7EE067A20EE277AC4ED117A60EE077A80
:1021700084ED127AC4ED137A77D4B4EEE8AAF1EEC6
:1021800010FA74D5F2EE047AB4EEE7AAF1EE10FA82
:1021900040F1B2809FED620A80EE090A2BF040FE0A
:1021A00084ED160AF6EE007AF4EEE79AF1EE10FAF4
:1021B00058D4DFED5D7AF4EEE79AF1EE10FA00F311
:1021C0009380F7EE007A87EEA97A84ED177A0023E0
:1021D0009FED596A04F17001584A6365F7EE007A81
:1021E000236570EE075A236728EE068AE366F0EE51
:1021F000676A534DBCEEC88AE0EE256A18EE103AC5
:10220000534087EEA67A1A461D4460EE077A84EDA5
:10221000187A20EE270AC4ED197A84ED1A0AA2F181
:10222000C342484C4848A2F59102A2F2476282EAB2
:102230001243AA4204FB03F383EA533300FB03F384
:1022400083EA134341F8043FE9D1BDEC088B38BD64
:10225000DFED347A6AEEA77A50E7F2EE027AA8EE62
:10226000270AF0E6B0EE007AAFE7F0EE668AF4EE09
:10227000EA8AF1EE10FA3ADD9FED2A0A2AEE800A88
:102280008AE7F0EE007A55E7606FFFEE006AD4F857
:102290008030F0EE005ADFED2D4AC1189FED2C6A18
:1022A00089B207EE101AB8EEC77AD4E91E2587EE78
:1022B000245A4540534085EA422158406A404FEA3B
:1022C0007353B0EE667A6067C4F88030C4E91E21AB
:1022D000A5EE257A67EE877A67EE867AC4ED0E7AE8
:1022E000C3E6DFED1C7A25E79FED1A7A6DE7DFED97
:1022F0000D7A28EEA70A4FE7F0EE4A8AB7E7F0EE2C
:102300004A7AF1E66F12833AD95BDE3E6666E63EB4
:102310003333B33F00009643CDCC4C3F48E1FA3E07
:10232000D2537B42DB0FC9400000204200004843EB
:102330009A99193F6666663F00409A44D4C3B2A199
:10234000E4E6DD786BCAEB8535AEB2C200FF7F47AD
:102350000AD7A33BCDCCCC3C38B590F820302DED3E
:102360000A8B002B00F02A81D0ED058AF7EE007A67
:102370009FED957A044690ED0E8AF4EEC78AD0ED73
:10238000036A38EE278AD0ED079AF1EE10FA28EEAC
:10239000268A20DD9FED8D7A90ED0D0A38EE877A42
:1023A000A7EE290AB4EEE70AF1EE10FAA8BF30EE64
:1023B000670ADFED877A80ED0D0A20EE270A2CF000
:1023C0006BF9F7EE007A68EE808A9FED827AE8EE8C
:1023D000877A28EE278A94ED0A0AF7EE007ADFED75
:1023E0007EAAA8EE290ADFED7DBAB4EEE70AF1EE87
:1023F00010FAA8BF30EE670ADFED797A84ED0A0A99
:1024000020EE270A2CF048F9DFED766AD4ED0B7A3E
:10241000B7EE007A28EE268AB0EE40AA9FED700A49
:10242000E8EE297AF4EEC77AF1EE10FAA8BF77EE5B
:10243000C77A27EE800AC4ED0B7A2CF02DF9D4ED83
:10244000098A94ED009AB0EE408ADFED677AB1EE2A
:1024500068CA29EE270A8CEE000A2BF09FFEDFEDFA
:10246000636A94ED01BA28EE2A7A29EE269AF0EEF4
:10247000407AAAEE2B7A8CEE090A27EE278A2BF0F7
:102480008DFE616FF0EE403AD4F8803078EEA98A84
:10249000D4ED1C4ACD18D4ED156AF0EE647A94EDB3
:1024A000146A05EE105AB0EE662AF0EE665ADFEDB9
:1024B000502AB8EEC55A94ED123A94ED197AA6EE68
:1024C000032AD4ED130AD5EE227A94ED1B4AD5EEF9
:1024D000225AD4ED181AF0EE642A94ED111AC4EDC4
:1024E000098AE4EE072AA5EEA02A65EE835A27EEB4
:1024F000873A94ED1A7AE1EE065AA1EE843AE7EEB5
:10250000872A9FED3C7AF2EE021AD4E91E20B0EE43
:10251000655AD4ED025A63EE2A7A53404840594036
:102520004FEA7353E5EE2B7A616780EA422142401D
:10253000C4F88030C4E91E2167EE807A67EEA57A80
:10254000F3EE0B5AE8EE0B7AB0EE651A67EE877A77
:1025500027EEA77AA7EE211ADFED271A37EE257AA4
:10256000F0EE005AF4EEE13A27EE277AF0EE647AC4
:1025700095EE256A87EE010AB0EE447A84ED146A7E
:10258000D2EE256AD2EEA57A93EE257AF1EE10FA14
:10259000C4ED156AC4ED1C7A84ED1B7A0AD494ED5F
:1025A000047AD4ED0C7A20EE070ABDEC0A8B20EEFB
:1025B000270A38BD002384F82030F0E7BDEC0A8BF1
:1025C0009FED0E0A38BD00BF6F12833ACDCCCC3ED2
:1025D000DA0FC9406F12033B3333B33E6666263FC2
:1025E000DB0FC940BE9FEA3FCDCC0C3F6666663F1D
:1025F000000000303333B33F6F12033A0000000095
:10260000037F13B99FED570A704710B52DED068B68
:10261000D0ED089A044690ED020AB1EE69AA90ED59
:10262000018A8AEE000A2BF0B9FDD4ED06AAD4ED9A
:10263000097AB0EE047AF7EE006A28EE077AA7EE80
:10264000008AEAEE887AF4EEE67AB0EE670AF1EEF6
:1026500010FAA8BF37EEE60ADFED437A84ED090AE7
:1026600020EE270A2CF018F89FED407AB0EE408A51
:102670008AEE070A2BF092FDA16C636D94ED117A3E
:10268000CA18DFED3B3AB0EE475AD4ED107A06EEA9
:10269000102AF0EE476AD4ED0E8AF0EE005AB8EE3A
:1026A000C66AD4ED0D4AE7EEA86A94ED0F4AB0EE83
:1026B000409A94ED000A96EE235A8AEE000A94EDB1
:1026C00003AA65EE288AE5EE046AE4EEA78AD4E957
:1026D000132096EEA57A53404840D8EEA57A59408B
:1026E0004FEA7353A16480EA42214240636584ED5E
:1026F000117A2165C4ED107AE2642BF04FFD29EECA
:10270000289ADFED1C7AF3EE0B6AB2EE025A9FEDC7
:102710001A6AA9EE0A8AF0EE665AB4EEC60A79EE93
:10272000AA9AF1EE10FA68EE277AC4ED089A27EE1D
:10273000A77AE7EE055A37EE267A27EE277AC7EE14
:10274000257A67EE807A01D500232377D4ED046AD9
:1027500094ED0A7A27EEA60ABDEC068B20EE070A56
:1027600010BD00BF00000000DB0FC9400AD7A33B2B
:10277000000000306666A63F6F12033ADFED287A4C
:10278000B4EEE70A10B5F1EE10FA04460BD4DFED13
:10279000257AB4EEE70AF1EE10FA3BDDB0EE670AF7
:1027A000DFED217A03E0B0EE670ADFED207A94EDE9
:1027B000057ADFED1F6A9FED1F6A67EE266A84EDDA
:1027C000010A37EE077AF4EE667AF1EE10FA76FE39
:1027D000A77A67EE867A87EE870A2BF021FBDFED7A
:1027E000167A84ED0B0AC4ED0C7AF7EE006A70EEEF
:1027F000277AB0EE666AA0EE276A86EE867A60EEE9
:10280000077A84ED0D7A20EE270AC4ED0E7A84ED66
:102810000F0A10BDF2EE007A60EE277AC7E700BF1C
:10282000000020420000FA4300007A450000A04367
:1028300048E1FA3EDB0FC940ABAA2A3FF7EE007A27
:102840000023002200F5B06170B52DED088B87EEF6
:10285000809ADFEDDA8ADFEDDA7A044681ED000A4C
:1028600080ED090A80F82C2060EE288A0364B0EE1F
:10287000408A4364F4EEE78AF1EE10FA80ED0A9A9A
:1028800040F1F5819FEDCF0A28EE800A78EE089A94
:1028900080EE290A2BF0C4FA84ED120A04F16001DB
:1028A000C94AB7EE047AF7EE007A30EE076A84ED93
:1028B000137AF0EE676AE0EE066A87EEA67A60EEBB
:1028C000077A84ED147A20EE270AC4ED157A84ED98
:1028D000160AA2F1C342BD4EBD4DA2F59102BD48FC
:1028E000A2F2476282EA1243824206FB03F383EAC2
:1028F000533305FB03F383EA134341F8043FE8D164
:10290000DFEDB57AF4EEE78AF1EE10FA40F18E8150
:102910009FEDAC0A28EE800A80EE290A2BF080FA9F
:10292000DFEDBC7ADFEDAD6AB7EE007A70EE277AA4
:10293000F4EEE68AB0EE476AB0EE40AAF1EE10FA85
:10294000A0EE276A87EE06BA60EE0BAA60EE2ABAFE
:1029500040F17184F0EE407AB7EE007ADFEDA06AC4
:102960000022C4ED337A77EEA65AC4ED346AB0EE95
:10297000476A00239B4804F1E40184F89420A5EE03
:10298000A76A994A84ED238A84ED249AC4F8A83072
:10299000C4F8AC3084ED2CAAC7EE066AC4F8B400C3
:1029A00084ED2EBAC4ED2FAAC4ED30BA26EEA77A74
:1029B000C4ED356A67EE277A84ED367AC4ED377A4E
:1029C000A2F1C342814E824DA2F591028748A2F244
:1029D000476282EA1243824206FB03F383EA5333DF
:1029E00005FB03F383EA134341F8043FE8D10023D6
:1029F00004F5A8717E4A84ED428A84ED439A84F8F6
:102A00001031A2F1C342714E714DA2F59102794885
:102A1000A2F2476282EA1243824206FB03F383EA90
:102A2000533305FB03F383EA134341F8043FE8D132
:102A3000DFED717A0023002284ED598AF4EEE78AF3
:102A400084ED5A9A84F86C21C4ED667AF1EE10FA9E
:102A5000C4F89031C4F8943140F10C819FED590ACB
:102A600028EE800A80EE290A2BF0DAF9DFED637A8E
:102A700084ED6B0A04F5CC71C4ED6C7A604AF7EE14
:102A8000006A70EE277AB0EE666AA0EE276A86EEDC
:102A9000867A60EE077A84ED6D7A20EE270AC4ED1F
:102AA0006E7A84ED6F0AA2F1C342484E484DA2F5FA
:102AB00091025448A2F2476282EA1243824206FB24
:102AC00003F383EA533305FB03F383EA134341F82B
:102AD000043FE8D1DFED4C7A0023002284ED768AB2
:102AE000F4EEE78A84ED779A84F8E021C4ED837AE6
:102AF000F1EE10FAC4F80432C4F808325AD59FED4A
:102B0000310A28EE800A80EE290A2BF089F9DFEDE0
:102B10003B7A84ED880A04F50371C4ED897A384A5A
:102B2000F7EE006A70EE277AB0EE666AA0EE276ACA
:102B300086EE867A60EE077A84ED8A7A20EE270A9E
:102B4000C4ED8B7A84ED8C0AA2F1C3421F4E204D56
:102B5000A2F591022B48A2F2476282EA1243824216
:102B600006FB03F383EA533305FB03F383EA1343C2
:102B700041F8043FE8D1F2EE006AD4ED947AB2EE67
:102B8000047A002384ED988A67EEA67A84ED999AF8
:102B900084F86832F4EEC77AF1EE10FA6DD4F4EEF0
:102BA000E87AF1EE10FA40F34183DFED067A28EE81
:102BB000A70A64E09FED150AA5E700BF48E1FA3EC9
:102BC00000C05A45DB0FC940008080BD6BCAEB8551
:102BD00035AEB2C2E4665E360080A24500002F45E5
:102BE000E4388E3F6EDB363FD4C3B2A1B8AA901A48
:102BF00080B3A2C1649A803A0000E1456EDBB63F23
:102C00000DF0ADBAF1D68B330080BB451D431347A1
:102C10002141FF466EDB363FD77189464CCEAB462D
:102C2000EFB63047D2537B42ABAA2A3F1FED080ACA
:102C300080EE290A2BF0F4F85FED0A7AB0EE40AA94
:102C40001FED0B0AB7EE007A80EE290A7AEE277A9A
:102C5000F0EE476AE7EE8A6A87EE26BA2BF0E0F8D4
:102C6000F0EE407A6BEE0AAA6AEE8ABA74E61FEDBD
:102C7000150A0BE61FED160AF4E61FED160A80EEA4
:102C8000290A2BF0CDF85FED187A84ED9E0A04F541
:102C90002471C4ED9F7AD94AF7EE006A70EE277A64
:102CA000B0EE666AA0EE276A86EE867A60EE077A54
:102CB00084EDA07A20EE270AC4EDA17A84EDA20A61
:102CC000A2F1C342CE4ECF4DA2F59102CE48A2F260
:102CD000476282EA1243824206FB03F383EA5333DC
:102CE00005FB03F383EA134341F8043FE8D1F2EE16
:102CF000006AD4EDAA7AB2EE047A002384EDAE8A9B
:102D000067EEA67A84EDAF9A84F8C032F4EEC77A03
:102D1000F1EE10FA0AD4F4EEE87AF1EE10FA40F38C
:102D20008082DFEDBA7A28EEA70A01E09FEDC10AA2
:102D300080EE290A2BF074F8DFEDB57A84EDB40A41
:102D400004F53A71C4EDB57AAC4AF7EE006A70EE5C
:102D5000277AB0EE666AA0EE276A86EE867A60EE83
:102D6000077A84EDB67A20EE270AC4EDB77A84EDAF
:102D7000B80AA2F1C342A24EA24DA2F59102A24806
:102D8000A2F2476282EA1243824206FB03F383EA1D
:102D9000533305FB03F383EA134341F8043FE8D1BF
:102DA000F2EE006AD4EDC07AB2EE047A002384ED2C
:102DB000C48A67EEA67A84EDC59A84F81833F4EED7
:102DC000C77AF1EE10FA0AD4F4EEE87AF1EE10FACE
:102DD00040F32282DFED8D7A28EEA70A01E09FED15
:102DE000950A80EE290A2BF01BF8DFED897A84ED35
:102DF000CA0A04F55071C4EDCB7A804AF7EE006A36
:102E000070EE277AB0EE666AA0EE276A86EE867AC2
:102E100060EE077A84EDCC7A20EE270AC4EDCD7AF5
:102E200084EDCE0AA2F1C342754E764DA2F5910211
:102E30007548A2F2476282EA1243824206FB03F31C
:102E400083EA533305FB03F383EA134341F8043F5A
:102E5000E8D1B2EE047AD4EDF07A002384EDD88A7A
:102E600084EDD99AF4EEC77A84F8683384EDE18A68
:102E700084EDE29AF1EE10FA84F88C3384EDEA8A5C
:102E800084EDEB9A84F8B03384EDF38A84EDF49A00
:102E900084F8D4330AD4F4EEE87AF1EE10FA40F371
:102EA000B681DFED5A7A28EEA70A01E09FED610AAC
:102EB00080EE290A2AF0B4FFDFED567A9FED566ABC
:102EC000C4EDFA7A84EDF90AF7EE006A70EE277A1B
:102ED000F4EEC68AF0EE665AF1EE10FAE0EE275AEA
:102EE00086EEA57A60EE077A84EDFB7A20EE270A5B
:102EF000C4EDFC7A84EDFD0A7DD59FED440A28EEF1
:102F0000800A80EE290A2AF08BFF9FED447A04F5AF
:102F1000806304F58361424A83ED017AF7EE007A1B
:102F200083ED000A30EE076AF0EE676AE0EE066AAB
:102F300087EEA67A60EE077A83ED027A20EE270A02
:102F4000C3ED037A83ED040AA2F1C3422C4E2D4D4A
:102F5000A2F591023348A2F2476282EA124382420A
:102F600006FB03F383EA533305FB03F383EA1343BE
:102F700041F8043FE8D104F22C43002004F26441FC
:102F8000294A83ED038A83ED049A84F84004A2F170
:102F9000C3421B4E1B4DA2F591022448A2F2476288
:102FA00082EA1243824206FB03F383EA533305FBB2
:102FB00003F383EA134341F8043FE8D104F58F6338
:102FC000B2EE047A0022D3ED017A83ED038AF4EEA7
:102FD000C77A83ED049A84F88C24F1EE10FA2DD48C
:102FE000F4EEE87AF1EE10FA40F30C81DFED077AA7
:102FF00028EEA70A24E09FED0E0A82E7C3D2E1F093
:103000006BCAEB8535AEB2C2A7B9BF69DB0FC94049
:10301000ABAA2A3F398E633D00409C456EDBB63F2C
:1030200008E5A4C1ECCB823AD5C4B3A2B9AB911BDD
:10303000DB6FF546D2537B42CDCC4C3E1FED030AED
:1030400080EE290A2AF0ECFE1FED057A04F29C437B
:1030500004F2B4417D4A83ED017AF7EE007A83ED04
:10306000000A30EE076AF0EE676AE0EE066A87EE65
:10307000A67A60EE077A83ED027A20EE270AC3ED86
:10308000037A83ED040AA2F1C342714E714DA2F599
:1030900091027148A2F2476282EA1243824206FB21
:1030A00003F383EA533305FB03F383EA134341F845
:1030B000043FE8D1DFED697A04F599630022F4EE6C
:1030C000E78A83ED038A83ED049A84F8DC24F1EE29
:1030D00010FA40F194809FED620A28EE800A80EE9B
:1030E000290A2AF09DFEDFED5F6A04F59E62DFED9E
:1030F0005E7A04F20C530021C2ED016A0020B7EEA3
:10310000007A82ED000A70EE265AF4EEE78AB0EEFD
:10311000476AF1EE10FAA0EE256AC7EE066A20EEC5
:10312000267AC2ED026A20EE070A82ED037A82ED6A
:10313000040A83ED008A83ED019A84F81405C3ED37
:103140000D7AD962196357D59FED450A28EE800A9A
:1031500080EE290A2AF064FE9FED447A04F254536B
:1031600004F5A861424A83ED017AF7EE007A83ED17
:10317000000A30EE076AF0EE676AE0EE066A87EE54
:10318000A67A60EE077A83ED027A20EE270AC3ED75
:10319000037A83ED040AA2F1C3422D4E2D4DA2F510
:1031A00091023448A2F2476282EA1243824206FB4D
:1031B00003F383EA533305FB03F383EA134341F834
:1031C000043FE8D104F28C5304F2CC514FF07E520C
:1031D00043F8042B9942F9D1002304F28452264883
:1031E00004F5B16463644B608B60CB6000231060B6
:1031F0002360BDEC088B70BD9FED200AA8E79FED12
:10320000200A6CE79FED167A27EE870A18E79FEDF4
:10321000147A27EE870A4BE69FED117A27EE870A8C
:10322000DFE59FED0F7A27EE870A81E59FED0C7AA7
:1032300027EE870A23E59FED130A80EE290A2AF07C
:10324000EFFDF0EE407AFFF787BB00BFA4F3E2D1B9
:103250006BCAEB8535AEB2C288DAC04A000096442C
:10326000DB0FC9402549923E00E0AB456EDBB63F1F
:103270000DF0ADBAF1D68B339A99593F85FD0647CB
:10328000959EEB45D7718946B5EEC00A38B5F1EE8B
:1032900010FA04462DED048B79D4B7EE007AB4EE23
:1032A000470AF1EE10FA77FE007A0F296CD8DFE8B2
:1032B00011F0C80010011701E9013F029302EE026C
:1032C0004903A403BB03D20305046204A60410004F
:1032D0007100B2EE027A04F59965B7EE000A002398
:1032E0000122A7EE870A84F8DC24AB612B62EB6134
:1032F0002AF0C8FFD5ED017A9FEDD06AF2EE046A9C
:103300009FEDDE7A67EE867A20EE077A95ED030A66
:10331000F4EEE67A85ED097AF1EE10FA00F1EE842A
:103320009FEDC77A20EE077AF4EEC77AF1EE10FA35
:10333000CCBFDFEDC47A9FEDC37A67EE877A30EEBB
:10334000000A04F59E6487EE800A2AF069FD9FED6D
:10335000BE7AF7EE007A30EE076A84ED017AF0EE7D
:10336000676A84ED000A0023E0EE066AA3616361E8
:1033700087EEA67A60EE077A84ED027A20EE270ABD
:10338000C4ED037A84ED040ABDEC048B38BDDFED97
:10339000AF7A8AE7B2EE027A04F20C55B7EE000A71
:1033A00000230122A7EE870A84F81425EB602AF097
:1033B00069FFDFEDB27A00239FEDAF7A20EE270A96
:1033C00085ED040AC4F82035C4F82435C4F828353E
:1033D000C4F82C35C4F83035C4F83435D5ED197A35
:1033E000F4EEC77AF1EE10FA00F32B85DFEDA47A44
:1033F00004F254530021964A20EE270A954D996114
:1034000004F5A8645961BCEEC00A10EE103A5340AE
:103410001A461D44A2F1C3428F489049A2F5910279
:10342000A2F2476282EA1243AA4200FB03F383EA54
:10343000533301FB03F383EA134344F8043FE9D118
:10344000A2E7B2EE027A0023B7EE000A012223635C
:1034500084F82C20A7EE870A6363A3632AF012FF87
:10346000D4ED087A9FED847ADFED846AF4EEC77AB2
:1034700020EE260AF1EE10FA84ED0F0A00F3B5846F
:10348000DFED7F7A0023764A603420EE270A23603E
:1034900044F8043C6F4DBCEEC00A10EE103A5340A5
:1034A0001A461D44A2F1C3426B486C49A2F5910231
:1034B000A2F2476282EA1243AA4200FB03F383EAC4
:1034C000533301FB03F383EA134344F8043FE9D188
:1034D0005AE7B0EE670A04F17400FEF797FD53E770
:1034E000B7EE009A0122B2EE027A002384F810218E
:1034F000B0EE490AC4F814319FED5A8ADFED509AB4
:10350000A7EE870A2AF0BEFE9FED576AD4ED405A17
:10351000B2EE047ADFED597AF1EE046AA5EE868AFE
:1035200094ED3F6A20EE270AD4ED427AA6EE269A61
:1035300067EEA99A84ED460AB4EEC78AF1EE10FA56
:1035400000F1F283B4EEE98A9FED3E0AF1EE10FA43
:10355000CCBF29EE800A28EE000A77EEA78A80EE1B
:10356000280A2AF05DFC84ED470AF6EE007AB4EEF4
:10357000E79AF1EE10FA00F19D84DFED3C7AB4EEAB
:10358000E79AF1EE10FA00F39F84F7EE007A87EEE7
:10359000897A84ED487ADFED365AF7EE007A30EE1C
:1035A000075AF2EE046AB0EE676A28EE258AA0EEAA
:1035B000056AB4EEE68AF1EE10FA87EE867A60EEDE
:1035C000077A84ED497A20EE270AC4ED4A7A84ED21
:1035D0004B0A00F16B84B4EEE98AF1EE10FA40F385
:1035E0006D849FED180A29EE800A80EE280A2AF0E1
:1035F00017FCDFED207A84ED4E0A0023C4ED4F7AEC
:10360000C4F83431F7EE006AC4F8303170EE277A2E
:10361000C4F85031C4F84C31B0EE666AA0EE276AA7
:1036200086EE867A60EE077A84ED507A20EE270ADD
:10363000C4ED517A84ED520AA6E600BF000096441C
:1036400048E1FA3EDB0FC9402549923E00000000E8
:103650000DF0ADBAE4E6DD786BCAEB8535AEB2C2EB
:10366000008080BD0000614400002F450000204222
:103670009A99193F5555553F6F12833AD95BDE3EF3
:1036800000FF7F47B2EE027A0025B7EE000A012262
:10369000002384F8E05184F86C21A7EE870AC4F86F
:1036A00070312AF0EFFDD4ED727A1FED0D7A5FEDE7
:1036B0000D6AF4EEC77AC4F8785120EE260AC4F8F1
:1036C0007C51C4F88051F1EE10FAC4F88451C4F86A
:1036D0008851C4F88C5184ED5D0A00F357835FED87
:1036E000187A0023E74A04F5CC7420EE270AE36237
:1036F000A362E54DBCEEC00A10EE103A53401A46E4
:103700001D44A2F1C342E148E149A2F59102A2F2AF
:10371000476282EA1243AA4200FB03F383EA53336F
:1037200001FB03F383EA134344F8043FE9D12BE69A
:10373000B2EE027A0023B7EE000A0122C4F8E431A7
:1037400084F8E021A7EE870A2AF09CFDD4ED8F7A59
:103750009FEDD07A0023DFEDD66AF4EEC77AC4F885
:10376000EC3120EE260AC4F8F031C4F8F431F1EE61
:1037700010FAC4F8F831C4F8FC3184ED7A0AC4F8C0
:10378000003200F3D482DFEDC47A0023BD4A04F591
:10379000037420EE270AE362A362BB4DBCEEC00AAD
:1037A00010EE103A53401A461D44A2F1C342B748E6
:1037B000B749A2F59102A2F2476282EA1243AA42F5
:1037C00000FB03F383EA533301FB03F383EA134360
:1037D00044F8043FE9D1D7E5B2EE027A0023B7EE10
:1037E000000A0122C4F86C3284F86822A7EE870A26
:1037F000C4F870322AF046FDB2EE006AD4ED947A35
:10380000F2EE046A9FEDAA7A67EE867A20EE077AD6
:1038100094ED980AF4EEE67A84ED9D7AF1EE10FAD2
:1038200000F17F829FEDA37A20EE077AF4EEC77A4B
:10383000F1EE10FACCBFDFEDA07A9FED9F7A67EE34
:10384000877A30EE000A87EE800A2AF0E9FADFED87
:10385000937A84ED9E0A0023C4ED9F7AC4F89032D7
:10386000F7EE006AC4F88C3270EE277AB0EE666A22
:10387000A0EE276A86EE867A60EE077A84EDA07A5B
:1038800020EE270AC4EDA17A84EDA20A7CE5B2EE0F
:10389000027A0023B7EE000A0122C4F8C43284F889
:1038A000C022A7EE870AC4F8C8322AF0EBFCB2EEB9
:1038B000006AD4EDAA7AF2EE046A9FED7D7A67EE93
:1038C000867A20EE077A94EDAE0AF4EEE67A84ED7D
:1038D000B37AF1EE10FA00F121829FED767A20EEB4
:1038E000077AF4EEC77AF1EE10FACCBFDFED727A08
:1038F0009FED717A67EE877A30EE000A87EE800AD4
:103900002AF08EFADFED657A84EDB40A0023C4ED67
:10391000B57AC4F8E832F7EE006AC4F8E43270EE23
:10392000277AB0EE666AA0EE276A86EE867A60EEA7
:10393000077A84EDB67A20EE270AC4EDB77A84EDD3
:10394000B80A21E5B2EE027A0023B7EE000A01229E
:10395000C4F81C3384F81823A7EE870AC4F8203370
:103960002AF090FCB2EE006AD4EDC07AF2EE046A5E
:103970009FED4F7A67EE867A20EE077A94EDC40ABF
:10398000F4EEE67A84EDC97AF1EE10FA00F1C38123
:103990009FED487A20EE077AF4EEC77AF1EE10FA3E
:1039A000CCBFDFED457A9FED447A67EE877A30EE43
:1039B000000A87EE800A2AF033FADFED387A84EDC8
:1039C000CA0A0023C4EDCB7AC4F84033F7EE006A8C
:1039D000C4F83C3370EE277AB0EE666AA0EE276A30
:1039E00086EE867A60EE077A84EDCC7A20EE270A9E
:1039F000C4EDCD7A84EDCE0AC6E4B2EE027A00239D
:103A0000B7EE000A0122C4F86C3384F86823A7EEED
:103A1000870AC4F870332AF035FCDFED257A20EEF2
:103A2000270A84EDDD0AAFE4B2EE027A0023B7EE96
:103A3000000A0122C4F8903384F88C23A7EE870A89
:103A4000C4F894332AF01EFCDFED197A20EE270A21
:103A500084EDE60A98E4B2EE027A0023B7EE000A9B
:103A60000122C4F8B43384F8B023A7EE870AC4F85F
:103A7000B8332AF007FCDFED0E7A20EE270A84ED3A
:103A8000EF0A81E40DF0ADBAE4E6DD786BCAEB85B0
:103A900035AEB2C26F12833A00FF7F47ABAA2A3F0E
:103AA000398E633D00A08C4500E0AB456EDBB63F30
:103AB000D95BDE3E48E1FA3EDB0FC940B7EE008A33
:103AC0000122B2EE027A002384F8D423B0EE480A31
:103AD000C4F8D833A7EE870A2AF0D4FBF2EE046AC2
:103AE00094EDF07A5FED0E7AB4EEE67A84EDF88A22
:103AF00020EE270AD4EDF37AF1EE10FA84EDF70AFE
:103B000000F106815FED156A67EEA66AB4EEE67A0B
:103B1000F1EE10FACCBF1FED187A5FED196A27EEAF
:103B2000260A77EEA77A80EE270A2AF079F95FED68
:103B3000247A84EDF90A0023C4EDFA7A04F5806250
:103B4000C4F8FC33F7EE006AC4F8F83370EE277A55
:103B5000B0EE666AA0EE276A86EE867A60EE077A95
:103B600084EDFB7A20EE270AC4EDFC7A84EDFD0A91
:103B70009361536108E4B2EE027A04F22C45B7EE89
:103B8000000A0122002384F84024A7EE870AAB61D3
:103B90002AF078FB95ED015A5FED3E5AF2EE046A89
:103BA0005FED3F7A1FED3E6AE5EE257A95ED037AEB
:103BB00020EE060A85ED070AF4EEE67AF1EE10FA39
:103BC00000F1A3805FED456A67EE266AF4EEE67ABF
:103BD000F1EE10FACCBF5FED487A5FED496A27EE4F
:103BE000A60A37EE077A04F24C4480EE070A2AF060
:103BF00017F91FED527AF7EE007AFFF7ACBBB7EE7C
:103C0000008A04F58F65B2EE027A01220023B0EE3D
:103C1000480A84F88C24AB61A7EE870A2AF032FBAD
:103C2000F2EE046A95ED017A5FED5F7AB4EEE67A22
:103C300085ED088A20EE278AD5ED037AF1EE10FA99
:103C400085ED078A5ED45FED656A67EEA66AB4EE1D
:103C5000E67AF1EE10FACCBF1FED697A5FED6A6A81
:103C600027EE260A77EEA77A994D80EE270A2AF0EA
:103C7000D7F89FED987ADFED986A04F29C43002113
:103C8000964A83ED017A04F2B444F7EE007A996122
:103C900030EE076A596128EE268A83ED000AF0EEBD
:103CA000676ABCEEC88AE0EE066A18EE101A514048
:103CB00087EEA67A0A460D4460EE077A83ED027A13
:103CC00020EE270AC3ED037A83ED040AA2F1C34272
:103CD00083488449A2F59102A2F2476282EA124324
:103CE000AA4200FB03F383EA533301FB03F383EAA5
:103CF000134344F8043FE9D1FFF746BBDFED7A7A7E
:103D0000FFF71DBB9FED780AACE79FED770A68E7E8
:103D10009FED750A05E7DFED747A48E6DFED727A0C
:103D2000EAE5DFED717A8CE59FED6F0A15E4D4F8D2
:103D30001002FFEE006AD4F81C32B0EE006A9FED6C
:103D40006B7AC1189FED6A5A67EE877A89B207EEDF
:103D5000101AB8EEC77AD4E98525C7EE055A454052
:103D6000534085EA422158406A404FEA7353B0EE0F
:103D7000667AC4F81002C4F81C32C4E98521A5EEA5
:103D8000867A67EE877AC4ED827AFCE4D4F89C01E7
:103D9000FFEE006AD4F8A831B0EE006A9FED537AC6
:103DA000C1189FED535A67EE877A89B207EE101A51
:103DB000B8EEC77AD4E96825C7EE055A45405340A6
:103DC00085EA422158406A404FEA7353B0EE667A62
:103DD000C4F89C01C4F8A831C4E96821A5EE867A2C
:103DE00067EE877AC4ED657A79E4606EFFEE006A6B
:103DF000236FF0EE005ADFED3E4AC1189FED3D6A99
:103E000089B207EE101AB8EEC77AD4E91A2587EE00
:103E1000245A4540534085EA422158406A404FEABF
:103E20007353B0EE667A60662367C4E91A21A5EE83
:103E3000257A67EE877A67EE867AC4ED117AFFF706
:103E40001FBBD4F84415FFEE006AD4F85035B0EE2D
:103E5000006A9FED267ACA189FED255A67EE877A89
:103E6000D4F8480592B2434007EE102AD4F84C2506
:103E7000B8EEC77A4A4059404FEA7353C7EE055A25
:103E8000C4F8503580EA020382EA4022C4F844159F
:103E9000C4F84835C4F84C25B0EE667AA5EE867AAB
:103EA00067EE877AC5ED0C7AFFF7A0BA9FED0E0A90
:103EB000FFF79BBBB0EE007AFFF76BBBDFED0E7A2E
:103EC00028EE270AFFF791BB9FED0C7AFFF761BB45
:103ED000E4E6DD78CDCC4C3E003C1C46A4F3E2D1B8
:103EE0006BCAEB8535AEB2C2D2537B42A69B443C33
:103EF00000FF7F47A69BC43BDB0FC940CDCCCC3C29
:103F00002DE9F04104462DED088BFDF749FF94F8AB
:103F1000CC35002B40F0BB8104F28C539FEDDD8A41
:103F2000D3ED007AA0EE278A04F17400FEF714FAAC
:103F300094F8CD352BB904F5B263D3ED007AA0EE39
:103F4000278A94F81031002B40F09F86DFEDD17A5C
:103F500094F8CE352BB904F2945393ED007AA7EE82
:103F6000278A94F86C31002B40F0A085DFEDC97AE8
:103F700094F8CF352BB904F5B36393ED007AA7EE2F
:103F8000278A94F8E031002B40F07F84DFEDC17A7E
:103F900094F8D0352BB904F29C5393ED007AA7EE38
:103FA000278A04F51370FEF72BFB94F8D1352BB953
:103FB00004F5B463D3ED007AA0EE278A04F52970E6
:103FC000FEF71EFB94F8D2352BB904F2A453D3EDBF
:103FD000007AA0EE278A04F53F70FEF711FB94F8F3
:103FE000D3352BB904F5B563D3ED007AA0EE278A5B
:103FF00094F86833002B40F0E783DFEDA67A94F85D
:10400000D4352BB904F2AC5393ED007AA7EE278A8E
:1040100094F88C33002B40F07783DFED9E7A94F890
:10402000D5352BB904F5B66393ED007AA7EE278A50
:1040300094F8B033002B40F00783DFED967A94F8C4
:10404000D6352BB904F2B45393ED007AA7EE278A44
:1040500094F8D433002B40F04782DFED8E7A94F849
:10406000D7352BB904F5B76393ED007AA7EE278A0D
:1040700094F84034002B40F0C281DFED867A94F84A
:10408000D8352BB904F2BC5393ED007AA7EE278AFA
:1040900094F88C34002B40F02181DFED7E7A94F887
:1040A000D9352BB904F5B86393ED007AA7EE278ACA
:1040B00094F8DC34002B00F0E28704F59965DFED1D
:1040C000767AB7EE006ADFED755AD5ED016AB6EE85
:1040D000005AD5ED049AB6EE00AA66EEA77A95EDE1
:1040E000077A66EEA56A04F59E63FFEE005AD5EDE9
:1040F00006AAA7EEA97AD5ED087AF7EE004AD3ED25
:10410000038AE9EEA67A93ED024ABFEE003AD3EDB8
:10411000056AD3ED043AB1EE6ABA9FED610AB4EED6
:10412000C67A8BEE000AF1EE10FAA8BF37EE467A97
:10413000B7EE006AB4EEC57A85ED077AB0EE007A84
:10414000F1EE10FAF4EEC67A48BFF0EE465AF1EE00
:1041500010FAA8BF77EEC67A93ED066AB0EE465A1B
:10416000F4EECA7AC5ED087AA6EEA85AF1EE10FA76
:1041700054BFF0EE437AF0EE647A75EEA75AF0EE93
:10418000467AD5EE8A7A67EEA88AA7EEA35AE4EEBD
:10419000268A95EE076AD8EE876A83ED066AC3ED34
:1041A000056A29F0FBFFD5ED007AB0EE409A8BEE60
:1041B000270A29F0F3FFDFED455A9FED426AF0EE42
:1041C000407AF3EE0B6A39EEAA7AE9EE0A7AB2EE99
:1041D000025A85ED067AB4EEC60AF1EE10FA67EEE1
:1041E000A87A67EEA57AF0EE665A27EEA77AE7EE90
:1041F000055A37EE267A27EE277AC7EE257A69D454
:10420000D5ED026A95ED097A67EEA67A67EE877AB0
:1042100094F8DA352BB904F2C45393ED007AA7EE83
:10422000278A94F81435002B40F01C86DFED197AAC
:1042300094F8DB352BB904F5B96393ED007AA7EE5A
:10424000278A04F2845304F5B164D3ED007A94ED27
:10425000007A28EE270AF0EEC07AB4EEE77AF1EEA3
:1042600010FA03D4DFED0F7A67EE277A9FED0E7A0E
:10427000C4ED007AF4EEC77AF1EE10FA03DDC7EE72
:10428000276A20EE260ABDEC088BBDE8F0819FED81
:10429000018A49E60000000000000744000048448D
:1042A0000AD7233B09FE7F3F3333733F52491D3A00
:1042B0009A99193F000000300AD7A33C17B7513A2A
:1042C000CDCCCC3E6F12033AA69B443C6666E63FDB
:1042D000DB0FC940002384F8DC3491E704F58F65D7
:1042E0001FED0E0AD5ED069AF1EE698A88EE800A76
:1042F00029F054FFD4F8B814D4F8BC64D4F8C4340A
:10430000D4F8C024D5ED007A83EA06004A40CB18E1
:10431000B0EE409A414088EEA70A4FEA705008EE8E
:10432000903A86EA020382EA4622C4F8B814C4F836
:10433000BC34C4F8C024C4F8C404FAEEE08A29F0FE
:104340002DFF04F29C43D5ED087AF0EE003AD3ED50
:10435000066A68EE898A93ED056AB3EE0B4A77EE3A
:10436000E67A93ED037AF0EE664A93ED023A93ED26
:10437000045AF2EE022A1FED322A0022E6EE074A24
:1043800027EE877AA3EE067A1FED323AE7EE854AEA
:1043900095ED045AB4EEC30A35EE295A60EE077A59
:1043A00097EE236AD4EEA36AE8EE827AF1EE10FA71
:1043B00083ED056AC3ED066AF0EE446A77EEA77AEC
:1043C0002A6285ED065A27EEA77AE7EE226A37EED3
:1043D000047A27EE277AC7EE267A07D5B4EEC39A79
:1043E000F1EE10FA02D5002384F88C34D5ED026A80
:1043F00095ED077A67EEA67A67EE877A4FE604F2C4
:104400002C45D5ED068AD5ED007AB1EE680A80EE2E
:10441000270A29F0C3FED4F86804D4F874241FEDE9
:104420005B4A8318D5ED047AF0EE003AD4F86C6458
:1044300005EE103A04F24C4377EEA84A5FED5F2A8E
:10444000D3ED066AB8EEC55A93ED056A7240B0EE38
:10445000663A93ED037AF0EE665A93ED022AD3EDB5
:10446000041AB4EEE20A95EE043AD3ED017AE6EED0
:10447000075AD4F87014F1EE10FA81EA000180EACC
:1044800002004FEA7252C4F8680423EE077AC4F8B7
:104490007424E3EE215A86EA010281EA4621A2EE63
:1044A000067AC4F86C24C4F87014D5EEA36A67EEDB
:1044B000C77A97EE236AE5EE047AC3ED066A83EDC8
:1044C000056AC5ED064A77EEE57A67EE807A02D591
:1044D000002384F84034D5ED026A95ED077A67EE43
:1044E000A67A67EE877ACAE5D4F81C74B0EE00AA03
:1044F000D4F8285400211FED91BA7A1994EDF87A76
:104500001FED934A07EE902A94EDFF6AD4EDFE6A00
:10451000F8EEE77AD4EDFC8AF0EE465A94EDFB5AB9
:10452000D4EDFD4A67EE8B7AD4F82064E6EEA85A03
:10453000D4EDF6AAD4F824347540A7EE847A1FEDA2
:10454000A10A7B40B1EE6A9A6F404FEA755586EA40
:10455000030883EA462689EE000AC4F8E01337EE22
:10456000467A67EE288AE7EE245AE5EE268A95EE2B
:104570008A6AD8EE8A6A84EDFF6AC4EDFE6A29F081
:104580000DFE7A1987EA0603D4EDF17A06EE902A39
:10459000F0EE409A83EA482289EE270A88EA050568
:1045A00083EA0803C4F8242404F580626F404FEACC
:1045B000755592ED067AF8EEE66AD2ED057AB0EE20
:1045C000476A92ED039AD2ED025A92ED045A96EEA2
:1045D0008B6AC4F81C74F0EE476AC4F82034C4F83F
:1045E0002854E7EE896A26EE099AA5EEA79AE6EE28
:1045F000056AD9EE0A7A96EE8A7AC2ED057A82EDDC
:10460000067A29F0CBFD69EE899A5FEDD36A1FED3A
:10461000D37AE9EEA68AD4EDF47AB4EEC70A77EE3F
:10462000AA7AF1EE10FAC4EDF67A60EE287A02D595
:10463000002384F8D433D4EDF26A94EDF77A67EE70
:10464000A67A67EE877A0AE594EDED9A1FEDE20A05
:10465000B1EE49AAD4EDE88A8AEE000A29F09EFD5F
:104660001FEDE67AD4EDEB9AD4EDEE7A28EE877A58
:10467000F7EE006AE7EE008A94EDE70A8AEE000A98
:10468000E8EEA97AF4EEE67AF1EE10FAA8BF77EE3A
:10469000E67AC4EDEE7A29F081FD94EDEE7A5FEDD5
:1046A000F47AF0EE408A39EE299A27EE270A29F0AB
:1046B000F3FFDFEDED7AF3EE0B6A9FEDEC6A20EE8F
:1046C000277A84EDED9AB2EE025AF0EE665A67EE62
:1046D000077AF4EEC68AE7EE855A77EEA67AF1EE0F
:1046E00010FA27EE877AC7EE257A67EEA87A02D508
:1046F000002384F8B033D4EDE96A94EDEF7A67EEE5
:10470000A67A67EE877A9AE494EDE49A9FEDD80A48
:10471000B1EE49AAD4EDDF8A8AEE000A29F03EFD07
:104720009FEDD47AD4EDE29AD4EDE57A28EE877A3B
:10473000F7EE006AE7EE008A94EDDE0A8AEE000AE0
:10474000E8EEA97AF4EEE67AF1EE10FAA8BF77EE79
:10475000E67AC4EDE57A29F021FD94EDE57ADFED06
:10476000C67AF0EE408A39EE299A27EE270A29F018
:1047700093FFDFEDBD7AF3EE0B6A9FEDBC6A20EE8E
:10478000277A84EDE49AB2EE025AF0EE665A67EEAA
:10479000077AF4EEC68AE7EE855A77EEA67AF1EE4E
:1047A00010FA27EE877AC7EE257A67EEA87A02D547
:1047B000002384F88C33D4EDE06A94EDE67A67EE5A
:1047C000A67A67EE877A2AE494EDDB9A9FEDA80A31
:1047D000B1EE49AAD4EDD68A8AEE000A29F0DEFCB1
:1047E0009FEDA47AD4EDD99AD4EDDC7A28EE877ABD
:1047F000F7EE006AE7EE008A94EDD50A8AEE000A29
:10480000E8EEA97AF4EEE67AF1EE10FAA8BF77EEB8
:10481000E67AC4EDDC7A29F0C1FC94EDDC7ADFEDB8
:10482000967AF0EE408A39EE299A27EE270A29F087
:1048300033FFDFED8D7AF3EE0B6A9FED8C6A20EE8D
:10484000277A84EDDB9AB2EE025AF0EE665A67EEF2
:10485000077AF4EEC68AE7EE855A77EEA67AF1EE8D
:1048600010FA27EE877AC7EE257A67EEA87A02D586
:10487000002384F86833D4EDD76A94EDDD7A67EECF
:10488000A67A67EE877AFFF7BABBD4ED8F8ADFEDA1
:10489000827A94ED779AF4EEE78AF1EE10FA40F31B
:1048A000F283DFED7E6AB7EE007ADFED7D7A94ED7C
:1048B000810AE8EEA67AA7EE890ADFED7A7AB4EEED
:1048C000C70AF1EE10FAA8BF30EE470A84ED810A5C
:1048D00020EE270A29F0E0FE68EE808A9FED727ACA
:1048E000F7EE007A94ED825AA8EE875A35EE275AF1
:1048F000624A04F5F67304F50171DFED616AB2EC0A
:10490000017AB7EE006AF3EC017AF6EE005A27EE70
:10491000057AE7EE097AB7EE007AF4EEC67AF1EEA0
:1049200010FAA8BF77EEC67ABFEE006AF4EEE57A19
:1049300043ED017AF1EE10FA54BFF0EE467AF0EE54
:10494000477A994276EEA76AD9D1D4F81012F0EEE0
:10495000004AD4F81C329FED4B7ACA189FED4A5A90
:1049600066EE876AD4ED8E5A07EE902A9FED474A8D
:1049700094ED8D6AFAEEE07A94ED8B7AD4ED799A23
:1049800094ED8A3A67EE857AD4ED8C2AB0EE655ABA
:10499000D4ED893AB1EE690AE6EE847AD4ED906AF4
:1049A000A6EE075A80EE260A37EEE54AF0EE456A93
:1049B00024EE077AE4EE226AA3EE067AD4E9852093
:1049C000D6EEA45A5340484097EE246A5940E7EE89
:1049D000637A4FEA7353C4F8101280EA42214240CE
:1049E000C4F81C32C4ED8E5A84ED8D6A77EEE68AE7
:1049F000C4E9852129F0D2FBD4ED915A9FED276AB5
:104A0000F3EE0B6ADFED227AB2EE025A9FED217AC5
:104A100079EE899AE5EE867A9FED146AF0EE665A91
:104A2000B4EEC60AC4ED799AF1EE10FA67EEA87AF0
:104A300067EE877A27EEA77AE7EE055A37EE267AF1
:104A400027EE277AC7EE257A67EE807A02D5002313
:104A500084F8E031D4ED926A94ED7A7A67EEA67A22
:104A600067EE877AFFF794BACDCC8C3F6F12033A8A
:104A7000A69B443C6666E63FDB0FC940B4110324A5
:104A800000000000ABAA2A3ECDCC4C3D3333733F2F
:104A90009A99193FCDCC0C406F12833ACDCC4C3F44
:104AA000CDCC4C3EDA0FC9406F12833BD4ED728AF5
:104AB0005FED077A94ED5A9AF4EEE78AF1EE10FA78
:104AC00040F3E7825FED0B6AB7EE007A5FED0C7A98
:104AD00094ED640AE8EEA67AA7EE890A5FED0F7AF4
:104AE000B4EEC70AF1EE10FAA8BF30EE470A84ED23
:104AF000640A20EE270A29F0CFFD68EE808A1FEDB8
:104B0000167AF7EE007A94ED655AA8EE875A35EEDC
:104B1000275AC44A04F5BC7304F5C871DFEDC26AB4
:104B2000B2EC017AB7EE006AF3EC017AF6EE005AC5
:104B300027EE057AE7EE097AB7EE007AF4EEC67A48
:104B4000F1EE10FAA8BF77EEC67ABFEE006AF4EE77
:104B5000E57A43ED017AF1EE10FA54BFF0EE467AB1
:104B6000F0EE477A994276EEA76AD9D1D4F89C1133
:104B7000F0EE004AD4F8A8319FEDAC7ACA189FED48
:104B8000AC5A66EE876AD4ED715A07EE902A9FED13
:104B9000A94A94ED706AFAEEE07A94ED6E7AD4ED5B
:104BA0005C9A94ED6D3A67EE857AD4ED6F2AB0EE9B
:104BB000655AD4ED6C3AB1EE690AE6EE847AD4ED2A
:104BC000736AA6EE075A80EE260A37EEE54AF0EE43
:104BD000456A24EE077AE4EE226AA3EE067AD4E967
:104BE0006820D6EEA45A5340484097EE246A5940B4
:104BF000E7EE637A4FEA7353C4F89C1180EA4221CE
:104C00004240C4F8A831C4ED715A84ED706A77EE61
:104C1000E68AC4E9682129F0C1FAD4ED745A9FEDFF
:104C20008D6AB0EE047ADFED847AF3EE0B6AB2EEB1
:104C3000025AE5EE867A9FED816AF0EE665AB4EE8E
:104C4000C60A79EE899AF1EE10FA67EEA87AC4EDF9
:104C50005C9A67EE877A27EEA77AE7EE055A37EE79
:104C6000267A27EE277AC7EE257A67EE807A02D574
:104C7000002384F86C31D4ED756A94ED5D7A67EEAB
:104C8000A67A67EE877AFFF773B9D4F85411D4F88F
:104C9000603194ED459ACD18DFED639AD4E9562042
:104CA00008EE905A002553404840FAEEE08A5940F9
:104CB0004FEA7353C4F8541180EA42214240C4F8C9
:104CC0006031C4F85C11C4F8582107EE905AB0EE78
:104CD000490ADFED5B6AF8EEE77A9FED5A6AA7EEC4
:104CE000E60AB5EEC00AF1EE10FA05DBB4EEC60A2C
:104CF000F1EE10FA00F1B8810135042DE5D1DFEDB8
:104D0000527A94ED3EAAB4EEE79AF1EE10FA80F2F0
:104D1000C3819FED450AD4ED546AF6EE002A94ED66
:104D20004D6A38EEE65AD4ED4C5A78EEC68A94EDC8
:104D30004A7AB0EE463AD4ED493AD4ED537A68EE69
:104D4000874A94ED514AA5EE873A94ED4B7A94ED5B
:104D5000502AE3EEA54AF0EE663AA8EE873AE7EE6F
:104D6000843A25EE047A94ED524AA2EE277AE5EED3
:104D7000043AB0EE004A93EE046A9FED343AD7EE5F
:104D8000047AD4EE845AD3EE846AB3EE0B4AF2EE80
:104D9000023AB0EE655AF0EE465AC4ED546AB0EEEF
:104DA000676A60EE077A84ED4C5A9FED275AC4ED8E
:104DB0004D5A67EEA27A94ED437AF1EE002A84ED23
:104DC000536AF0EE455AE9EEA47A39EE077AEAEE34
:104DD000225AB0EE446A84ED457A67EE837AB4EEE7
:104DE000E57A67EEA76AF1EE10FAA6EEA36A76EE10
:104DF000846A66EEA76AC6EE867A09DD9FED0F7AB1
:104E0000B4EEC70AF1EE10FA02D5002384F810318F
:104E1000D4ED416A94ED467A67EEA67A67EE877A1A
:104E2000FFF796B8B411032400000000ABAA2A3E95
:104E3000CDCC4C3D3333733F9A99193F6F12033AEF
:104E4000F4FDD43B0AD7233BF4FDD43CCDCC0C403D
:104E50006F12833ACDCC4C3FCDCC4C3EDA0FC940DB
:104E60006F12833B04F20C555FED077AD5ED198A7A
:104E700095ED019AF4EEE78AF1EE10FA40F306811F
:104E80005FED0C6AB7EE007A5FED0D7A95ED0B0AD7
:104E9000E8EEA67AA7EE890A5FED107AB4EEC70AAB
:104EA000F1EE10FAA8BF30EE470A85ED0B0A20EEAE
:104EB000270A29F0F1FB68EE808A1FED177AF7EEDA
:104EC000007AD5ED0C5AE8EE875A75EEA75A774A64
:104ED00004F5A46304F5A761DFED756AB2EC017A0D
:104EE000B7EE006AF3EC017AB7EE00AA27EE257A56
:104EF000E7EE097ABFEE007AF4EEC67AF1EE10FA28
:104F0000A8BF77EEC67AB6EE006A43ED017AF4EEFA
:104F1000C67AF1EE10FA54BFF0EE477AF0EE4A7A14
:104F20008B4276EEA76AD9D1D4F84405D4F850253F
:104F3000DFED607A83189FED606A66EEA76ADFEDA9
:104F40005F2A07EE103A04F25453F0EE007AD4F8D8
:104F50004865BAEEE07AD3ED065A93ED055A7240F1
:104F6000F0EE654AD3ED023A27EE067A93ED036A36
:104F700093ED043AE5EE064A93ED014AA6EEA27AD5
:104F8000D4F84C15D5ED03AA414050404FEA725277
:104F9000B1EE6ABA95ED1A0AC4F8502586EA010204
:104FA00077EE656A81EA4621C4F844058BEE000A73
:104FB000C4F84825C4F84C1526EE866AE6EE834A06
:104FC000A3EE856AD4EEA75A96EE275AA6EE447A47
:104FD000C3ED065A83ED055A77EE648A29F0DEF8B0
:104FE000DFED377AF0EE409A8BEE270A29F0D6F8FB
:104FF000D5ED1B6ADFED337A9FED337A9FED335A9F
:10500000A6EEA77ADFED325AB3EE0B6A7AEE896A22
:10501000F2EE024AF4EEE59AC5ED036A7AEE407AC2
:1050200027EE287AF1EE10FA27EE057AB0EE465A0E
:1050300067EE076AA6EEA45A76EE866A66EE876A7F
:1050400086EE857A27EE297A67EE277A02D5002345
:1050500084F81435D5ED1C6A95ED047A67EEA67ACE
:1050600067EE877AFFF7E4B8B1EE400ADFED197A10
:1050700080EE270A29F092F879EE809A3CE6DFED7F
:105080000C7AFFF7C5B8B7EE005A31E4F7EE005AD4
:105090001DE7B7EE005A3CE579EE677AB1EE670A94
:1050A00080EE0A0A29F07AF835E600BFB41103242D
:1050B00000000000ABAA2A3ECDCC4C3D3333733FF9
:1050C0000AD7233B9A99193FCDCCCC3E6666E63F82
:1050D00052499D39A69BC43A90F82C3013B99FEDE4
:1050E0007B0A704710B52DED0A8BD0ED0C8A044673
:1050F00090ED018A90ED03AAB1EE689A90ED020A54
:1051000028EE0AAA89EE000A29F048F8D4ED0A9A96
:10511000D4ED0D7AAAEE008AB7EE007AE9EE887A2D
:10512000F4EEC77AB0EE670AF1EE10FAA8BF37EED8
:10513000C70ADFED677A84ED0D0A20EE270A29F011
:10514000ABFAB6EE006A94ED0E7AF7EE006AB0EEB6
:1051500040AA9FED5F0A28EE068AA9EE887AB4EE8F
:10516000E67AF1EE10FAA8BF37EE667A27EE000A6B
:1051700084ED0E7A29F090FADFED567AF0EE40BA1F
:10518000D4ED07CA89EE270A29F008F8216EE36EEC
:1051900094ED176ACA18D4ED166AF0EE467AD4ED8B
:1051A000144A05EE902AB0EE467A9FED4B3AB0EEE7
:1051B000005AF8EEE55AD4ED153AE6EEA47A94EDED
:1051C000134A94ED008AB0EE40BA95EE837A94EDDE
:1051D00004CA89EE080AE7EE237A27EE247AD4E996
:1051E0001920A4EE267A5340484097EE856A59402C
:1051F0004FEA7353216680EA4221D7EE056A4240A6
:10520000E3662BEE07BA84ED176AC4E91921C4EDF1
:10521000166A28F0C3FFF0EE047AF0EE40AA28EEFA
:10522000278A89EE080A28F0B9FF94ED107A94EDE8
:10523000065AF0EE4A7AF7EE006AF1EE045AEBEE07
:10524000AC7A36EEC76AE5EE256A27EE007AEBEE19
:105250000C7AA6EE2A7AF5EEC07A67EEA67AF1EE1F
:1052600010FA2ADDB3EE0B6AB2EE025A67EEA76AB5
:10527000F0EE465A78EEA98AE6EE855A76EE866A10
:10528000C4ED0C8A66EEA76ADFED147AB4EEE77A15
:1052900086EEA50AF1EE10FA02D5002384F82C3030
:1052A00020EE070A94ED087AD4ED0F7A20EE070A73
:1052B000BDEC0A8B20EE270A10BDF6EE086AB3EEAD
:1052C0000B6AB2EE025A67EEA67ACFE70000000042
:1052D000DB0FC94017B7513A000000306F12033A94
:1052E00090F8203013B99FED6B0A70472DE9F0411B
:1052F0002DED088B90ED09AA044690ED020AF1EE1F
:105300004A8A90ED018A9FED64BA88EE800A28F0FF
:1053100045FFD4ED07AAD4ED0A7AB0EE087AF7EE8D
:10532000006A28EE077AA7EE008AEAEE887AF4EEA1
:10533000E67AB0EE670AF1EE10FAA8BF37EEE60A99
:10534000DFED567A84ED0A0A20EE270A29F0A4F947
:105350009FED537AB0EE408A88EE870A28F01EFF50
:10536000E76CA56D94ED127A7B19D4ED117AB0EE4D
:10537000475A94ED0F9A06EE103AF0EE476AD4EDD4
:105380000E4AF0EE005AB8EEC66A94ED104AE7EE07
:10539000896AD4ED04BAF0EE409A9FED420A96EE87
:1053A0000B5A88EE800A25EE099AE5EE046AA4EE0F
:1053B000A79AD4E9146396EEA57A75407B40D9EE9E
:1053C000257A6F404FEA755586EA030883EA462638
:1053D00084ED127AC4ED117A28F0E0FE7A19B0EE6D
:1053E000407A94ED000A87EA060388EA050588EE0C
:1053F000800A08EE902A6F4083EA48224FEA7555EA
:1054000083EA0803D4ED037AE764F8EEE88AA56539
:10541000C4E9143268EE8B8A68EE878A68EEA78A40
:1054200028F0BCFE69EE899A9FED1F7ADFED1F7AA6
:10543000F3EE0B6AB2EE025A9FED1D6AA9EEAB8A3B
:10544000F0EE665AB4EEC60A3AEE2AAAF1EE10FA67
:10545000A8EE878A84ED09AA68EE277A27EEA77A54
:10546000E7EE055A37EE267A27EE277AC7EE257A39
:1054700067EE807A02D5002384F82030D4ED056AE7
:1054800094ED0B7A27EEA60ABDEC088B20EE070AF6
:10549000BDE8F0810000000000000030DB0FC940D3
:1054A0006F12833B17B7513A9A99993E3333B33F02
:1054B0006F12033AB7EE007ADFEDC47A002300F2F0
:1054C000844270B52DED068B87EE00AADFEDC08A11
:1054D00082ED000A044680ED090A80F82C3060EE67
:1054E000288AB0EE408AF4EEE78AF1EE10FA80EDF9
:1054F0000AAA40F164819FEDB70A28EE800A78EE8F
:10550000089A80EE290A28F08BFCDFEDB37A84ED4F
:10551000110A04F15C01C4ED127AB04AF7EE006A98
:1055200070EE277AB0EE666AA0EE276A86EE867A7B
:1055300060EE077A84ED137A20EE270AC4ED147A20
:1055400084ED150AA2F1C342A54EA64DA2F5910223
:10555000A548A2F2476282EA1243824206FB03F3A5
:1055600083EA533305FB03F383EA134341F8043F13
:10557000E8D1DFED9E7A002384ED218AF4EEE78AFC
:1055800084ED22AA84F88C30F1EE10FA40F11481F7
:105590009FED900A28EE800A80EE290A28F040FC50
:1055A00004F1B801924A84ED280AF7EE007AB0EED1
:1055B000409A30EE277AC4ED297AF0EE676AE0EE81
:1055C000076A87EEA67A60EE077A84ED2A7A20EEE3
:1055D000277AC4ED2B7A84ED2C7AA2F1C342804E57
:1055E000804DA2F591028348A2F2476282EA1243FB
:1055F000824206FB03F383EA533305FB03F383EA9A
:10560000134341F8043FE8D1002304F592717A4A2C
:1056100084ED378A84ED38AA84F8E430A2F1C342DD
:105620006F4E704DA2F591027448A2F2476282EA71
:105630001243824206FB03F383EA533305FB03F371
:1056400083EA134341F8043FE8D1DFED6D7A00238C
:1056500084ED4E8AF4EEE78A84ED4FAA84F8403157
:10566000F1EE10FA40F1AE809FED5A0A28EE800A62
:1056700080EE290A28F0D4FBDFED627A84ED5D0A22
:1056800004F5B071C4ED5E7A5F4AF7EE006A70EE21
:10569000277AB0EE666AA0EE276A86EE867A60EE1A
:1056A000077A84ED5F7A20EE270AC4ED607A84EDF4
:1056B000610AA2F1C3424A4E4A4DA2F591025348F3
:1056C000A2F2476282EA1243824206FB03F383EAB4
:1056D000533305FB03F383EA134341F8043FE8D156
:1056E000DFED4B7A002384ED678AF4EEE78A84EDE0
:1056F00068AA84F8A431F1EE10FA5AD59FED350A64
:1057000028EE800A80EE290A28F08AFBDFED3D7A38
:1057100084ED760A04F5E271C4ED777A3A4AF7EE41
:10572000006A70EE277AB0EE666AA0EE276A86EE0F
:10573000867A60EE077A84ED787A20EE270AC4ED47
:10574000797A84ED7A0AA2F1C342254E254DA2F55D
:1057500091022E48A2F2476282EA1243824206FB7D
:1057600003F383EA533305FB03F383EA134341F85E
:10577000043FE8D1B1EE0C7A94ED810AF2EE047A9E
:10578000002384ED868A20EE070A84ED87AA84F838
:105790002032B4EEE70AF1EE10FA47D4B4EEE80A8C
:1057A000F1EE10FA40F3B9829FED0A0A28EE800A62
:1057B0003EE09FED180AA5E79FED170AECE69FED86
:1057C000170A9CE69FED160A52E700BF00007A45D3
:1057D00048E1FA3EDB0FC940E4388E3F01D09B9090
:1057E0006BCAEB8535AEB2C2E5B679090040B54566
:1057F000015E0909E544E781010C0909E5F2E6814A
:105800000000FA454FECC43F01AA0909E590E78181
:105810000000E145EFB630477A5A0E477C59C4463E
:105820007C594447D2537B426EDB363F1FED030A5F
:1058300080EE290A28F0F4FA5FED057A84ED8C0AEF
:1058400004F51271C4ED8D7A514AF7EE006A70EEDC
:10585000277AB0EE666AA0EE276A86EE867A60EE58
:10586000077A84ED8E7A20EE270AC4ED8F7A84EDD4
:10587000900AA2F1C342474E474DA2F59102474814
:10588000A2F2476282EA1243824206FB03F383EAF2
:10589000533305FB03F383EA134341F8043FE8D194
:1058A000B1EE0C7A94ED980AF2EE047A002384EDBE
:1058B0009D8A20EE070A84ED9EAA84F87C32B4EE1D
:1058C000E70AF1EE10FA0AD4B4EEE80AF1EE10FAA3
:1058D00040F31E829FED320A28EE800A01E09FED20
:1058E000310A80EE290A28F09BFADFED2F7A84ED49
:1058F000A30A04F52971C4EDA47A254AF7EE006ADB
:1059000070EE277AB0EE666AA0EE276A86EE867A97
:1059100060EE077A84EDA57A20EE270AC4EDA67A18
:1059200084EDA70AA2F1C3421A4E1B4DA2F59102C3
:105930001A48A2F2476282EA1243824206FB03F34C
:1059400083EA533305FB03F383EA134341F8043F2F
:10595000E8D1B1EE0C7A94EDAF0AF2EE047A0023AE
:1059600084EDB48A20EE070A84EDB5AA84F8D83213
:10597000B4EEE70AF1EE10FA18D4B4EEE80AF1EE4C
:1059800010FA40F3C0819FED060A28EE800A0FE06E
:10599000010A09096BCAEB8535AEB2C2E5F0E681B2
:1059A000DB0FC940D2537B426EDB363F1FED030A4B
:1059B00080EE290A28F034FA5FED057A84EDBA0A00
:1059C00004F54071C4EDBB7AD64AF7EE006A70EE7A
:1059D000277AB0EE666AA0EE276A86EE867A60EED7
:1059E000077A84EDBC7A20EE270AC4EDBD7A84EDF7
:1059F000BE0AA2F1C342CC4ECC4DA2F59102CC48D6
:105A0000A2F2476282EA1243824206FB03F383EA70
:105A1000533305FB03F383EA134341F8043FE8D112
:105A2000DFEDC47A002384EDC58AF4EEE78A84EDC5
:105A3000C6AA84F81C33F1EE10FA40F15C819FEDA8
:105A4000BE0A28EE800A80EE290A28F0E9F9DFED87
:105A5000BB7A84EDD40A04F54F71C4EDD57AB84A07
:105A6000F7EE006A70EE277AB0EE666AA0EE276A5B
:105A700086EE867A60EE077A84EDD67A20EE270AE3
:105A8000C4EDD77A84EDD80AA2F1C342A64EA74D41
:105A9000A2F59102AB48A2F2476282EA1243824227
:105AA00006FB03F383EA533305FB03F383EA134353
:105AB00041F8043FE8D1DFEDA47AF4EEE78AF1EE95
:105AC00010FA40F115819FED9C0A28EE800A80EEC5
:105AD000290A28F0A5F99FED997A84EDE00A0023C0
