:020000042400D6
:1000000000000220410A0024350A002495AD012495
:10001000350A0024350A0024350A002400000000B7
:10002000000000000000000000000000350A00246D
:10003000350A002400000000350A002419AD01240F
:10004000350A0024350A0024350A0024350A002424
:10005000350A0024350A0024350A0024350A002414
:10006000350A0024350A0024350A0024F5A80124A5
:1000700001A90124350A00240DA9012419A901248C
:1000800045720224FD980124350A0024350A002413
:10009000350A0024350A0024350A0024350A0024D4
:1000A000350A0024350A0024350A0024350A0024C4
:1000B000C1630224CD630224D9630224319901244F
:1000C000350A00243D990124350A0024615C02248C
:1000D0006D5C02245570022485700224BD700224D8
:1000E000350A0024350A002400000000350A0024E7
:1000F000350A0024350A0024350A0024350A002474
:10010000350A002459990224E5630224795C02240B
:10011000F57002242D7102242D270124350A0024B4
:10012000350A0024350A00249D5C0224D15C022497
:1001300079720224350A0024350A0024350A002485
:1001400000000000000000000000000000000000AF
:10015000350A0024350A0024350A0024657102247A
:1001600049990124350A002429AD01244DAD01240B
:10017000350A002471AD0124350A0024350A002413
:10018000350A0024350A00249D710224D571022409
:10019000855C0224915C0224350A0024350A00247F
:1001A000350A0024350A0024350A0024350A0024C3
:1001B00035A50124350A0024350A0024350A002417
:1001C000350A0024350A0024E1910124ED9101242F
:1001D000350A0024F9910124350A0024350A002447
:1001E000350A0024350A0024350A0024350A002483
:1001F000350A0024350A0024350A0024350A002473
:10020000350A0024350A0024350A0024350A002462
:10021000350A0024350A0024350A0024350A002452
:10022000350A0024350A0024350A002400000000A5
:10023000350A0024350A002400000000350A002495
:10024000350A0024350A0024350A0024350A002422
:10025000350A0024350A0024350A0024350A002412
:10026000350A0024350A0024350A0024350A002402
:10027000350A0024350A00240D7202240000000013
:10028000350A0024350A0024350A00240000000045
:0802900000000000350A002403
:1002A00010B5054C237833B9044B13B10448AFF3B0
:1002B00000800123237010BDE01900200000000021
:1002C000FCE9022408B5034B1BB103490348AFF313
:1002D000008008BD00000000E4190020FCE90224B1
:1002E000034613F8012B002AFBD1181A0138704776
:1002F00001F0FF01102A2BDB10F0070F08D010F8D7
:10030000013B013A8B422DD010F0070F42B3F6D1DA
:10031000F0B441EA012141EA014122F007047FF0F3
:1003200000070023F0E80256083C85EA010586EA4A
:10033000010685FA47F5A3FA87F586FA47F6A5FA86
:1003400087F68EB9EED1F0BC01F0FF0102F0070292
:1003500032B110F8013B013A83EA010313B1F8D13D
:100360000020704701387047002D06BF354603381E
:10037000073815F0010F07D1013015F4807F02BF57
:10038000013015F4C03F0130F0BC0138704700BFA8
:1003900081F0004102E000BF83F0004330B54FEA36
:1003A00041044FEA430594EA050F08BF90EA020FA3
:1003B0001FBF54EA000C55EA020C7FEA645C7FEA36
:1003C000655C00F0E2804FEA5454D4EB5555B8BF59
:1003D0006D420CDD2C4480EA020281EA030382EACA
:1003E000000083EA010180EA020281EA0303362D5C
:1003F00088BF30BD11F0004F4FEA01314FF4801C2F
:100400004CEA113102D0404261EB410113F0004F40
:100410004FEA03334CEA133302D0524263EB4303F7
:1004200094EA050F00F0A780A4F10104D5F1200E95
:100430000DDB02FA0EFC22FA05F2801841F10001F0
:1004400003FA0EF2801843FA05F359410EE0A5F1C4
:1004500020050EF1200E012A03FA0EFC28BF4CF0F5
:10046000020C43FA05F3C01851EBE37101F00045AB
:1004700007D54FF0000EDCF1000C7EEB00006EEBB8
:100480000101B1F5801F1BD3B1F5001F0CD3490842
:100490005FEA30004FEA3C0C04F101044FEA445299
:1004A00012F5800F80F09A80BCF1004F08BF5FEA20
:1004B000500C50F1000041EB045141EA050130BD00
:1004C0005FEA4C0C404141EB0101013C28BFB1F512
:1004D000801FE9D291F0000F04BF01460020B1FA5D
:1004E00081F308BF2033A3F10B03B3F120020CDA30
:1004F0000C3208DD02F1140CC2F10C0201FA0CF00E
:1005000021FA02F10CE002F11402D8BFC2F1200C72
:1005100001FA02F120FA0CFCDCBF41EA0C01904028
:10052000E41AA2BF01EB0451294330BD6FEA040471
:100530001F3C1CDA0C340EDC04F11404C4F120025C
:1005400020FA04F001FA02F340EA030021FA04F36E
:1005500045EA030130BDC4F10C04C4F1200220FAC5
:1005600002F001FA04F340EA0300294630BD21FA03
:1005700004F0294630BD94F0000F83F4801306BFC9
:1005800081F480110134013D4EE77FEA645C18BFBD
:100590007FEA655C29D094EA050F08BF90EA020F54
:1005A00005D054EA000C04BF1946104630BD91EA4C
:1005B000030F1EBF0021002030BD5FEA545C05D14F
:1005C0004000494128BF41F0004130BD14F580048E
:1005D0003CBF01F5801130BD01F0004545F0FE4102
:1005E00041F470014FF0000030BD7FEA645C1ABF37
:1005F000194610467FEA655C1CBF0B46024650EA6E
:10060000013406BF52EA033591EA030F41F4002199
:1006100030BD00BF90F0000F04BF0021704730B51F
:100620004FF4806404F132044FF000054FF00001F4
:1006300050E700BF90F0000F04BF0021704730B5B5
:100640004FF4806404F1320410F0004548BF40428A
:100650004FF000013EE700BF42004FEAE2014FEADF
:1006600031014FEA02701FBF12F07F4393F07F4FBA
:1006700081F06051704732F07F4208BF704793F0BD
:100680007F4F04BF41F40021704730B54FF46074D0
:1006900001F0004521F000411CE700BF50EA0102D3
:1006A00008BF704730B54FF000050AE050EA01027C
:1006B00008BF704730B511F0004502D5404261EBEC
:1006C00041014FF4806404F132045FEA915C3FF42D
:1006D000D8AE4FF003025FEADC0C18BF03325FEACA
:1006E000DC0C18BF033202EBDC02C2F1200300FA7B
:1006F00003FC20FA02F001FA03FE40EA0E0021FAA0
:1007000002F11444BDE600BF53B94AB9002908BF3D
:1007100000281CBF4FF0FF314FF0FF3000F088B9C8
:10072000ADF1080C6DE904CE00F006F8DDF804E048
:10073000DDE9022304B070472DE9F047089D8E469D
:1007400004468846002B4AD18A42174662D9B2FA3B
:1007500082F64EB1C6F1200301FA06F820FA03F33F
:10076000B74043EA0808B4404FEA174E1FFA87FC27
:10077000B8FBFEF1230C0EFB118843EA084301FB92
:100780000CF29A4209D9FB1801F1FF3080F0EA809F
:100790009A4240F2E78002393B449A1AA3B2B2FB74
:1007A000FEF00EFB102243EA024300FB0CFC9C45CA
:1007B00009D9FB1800F1FF3280F0D6809C4540F249
:1007C000D3803B44023840EA0140A3EB0C030021F4
:1007D0001DB1F3400022C5E90032BDE8F0878B422D
:1007E00005D90DB1C5E9000100210846F5E7B3FAC6
:1007F00083F1002946D1734502D3824200F205817C
:10080000841A6EEB030201209046002DE5D0C5E965
:100810000048E2E7002A00F09080B2FA82F6002E4B
:1008200040F0A4808A1A030C4FEA174E80B2BCB283
:100830000121B2FBFEFC0EFB1C2243EA024304FB37
:100840000CF29A4207D9FB180CF1FF3802D29A42F7
:1008500000F2E080C4469B1AB3FBFEF20EFB12339B
:1008600040EA034302FB04F49C4207D9FB1802F15F
:10087000FF3002D29C4200F2CA8002461B1B42EAB1
:100880000C40A5E7C1F120068B4022FA06F71F4372
:100890000EFA01F420FA06F32EFA06FE4FEA174983
:1008A000234300FA01F81FFA87FCBEFBF9F01C0C89
:1008B00009FB10EE44EA0E4400FB0CFEA64502FACA
:1008C00001F209D93C1900F1FF3A80F09C80A6455D
:1008D00040F2998002383C44A4EB0E041FFA83FED8
:1008E000B4FBF9F309FB13444EEA044403FB0CFC8C
:1008F000A44508D93C1903F1FF3E80F08280A4454D
:100900007FD9023B3C4443EA0040A4EB0C04A0FB2B
:1009100002EC64457346E14662D35FD05DB1B8EB4B
:10092000030264EB090404FA06F622FA01F31E43FB
:10093000CC40C5E9006400214FE7B1FBF2FC010C9B
:1009400041EA0E4180B240EA01423B4638463C460D
:10095000B846BE462026B1FBF7F1A2EB080241EAF9
:100960000C4166E7014618E710462CE7C6F1200265
:100970002EFA02F3B740B14020FA02F24FEA174EC6
:100980000A43B3FBFEF8BCB20EFB1833110C41EA6C
:10099000034108FB04F9B04089454FEA104380B297
:1009A0003ED9791808F1FF3C01D289451FD8A1EB47
:1009B0000901B1FBFEF909FB04F80EFB191192B213
:1009C00042EA0142424529D2BA1809F1FF31C4D2A4
:1009D0004245C2D2A9F102013A44BEE7F0459DD298
:1009E000BEEB02036CEB070C0138E14696E7A7EB80
:1009F00009094944A8F1020CB1FBFEF909FB04F80E
:100A0000DBE773467FE7504666E70846FDE63B4472
:100A1000023A33E7ACF1020C3B441CE749469CE741
:100A2000A1EB0901C446B1FBFEF909FB04F8C4E7D8
:100A3000704700BF684620F007018D46FEE700BF03
:100A40000A480B4A904208B503D0121A09492BF004
:100A5000DCFD0948094A904203D0121A00212BF00C
:100A600019FD2BF0ABFD11F06FFEFEE7000000203A
:100A7000DC19002038EA0224E0190020842D01202E
:100A8000704700BF704700BF704700BF704700BF8E
:100A9000704700BF704700BF704700BF704700BF7E
:100AA000704700BF2DE9F04317282DED048B83B06C
:100AB000DDF838C0CDE9001300F2F380B34B0546F2
:100AC0001B5C002B00F0ED80B14800240646034675
:100AD00003E00134202C00F02981197830330029FB
:100AE000F7D1AC4B53F82510BCF1000F00F0DE80BD
:100AF000614540F2DB80DDED007A04EB44039FEDBD
:100B0000A67A962AF8EEE77A06EB03134FEA440832
:100B1000C3F82CC087EE878A00F2E38007EE902AA4
:100B2000DFED9E6AF8EE677A87EEA67A9C4B4FEA75
:100B3000850903EB8503B5EEC00AD3ED007A28EEF4
:100B4000078AF1EE10FA28EE278A00F1C780F7EE47
:100B5000087AB4EE670AF1EE10FA37FE800ADDED8E
:100B6000017AFFEE006A9FED8D6A28EE008AB8EEEA
:100B7000E77A8C4B4B44C7EE067A93ED007A77EE1A
:100B8000877AF4EEE67AF1EE10FA40F19480DFED28
:100B9000868AF0EE489A68EE288A08EB0403834AB6
:100BA0001801525D06EB03135D7001233354002AD4
:100BB0007ED0013907EE901AF8EE677A7C4B08EB8D
:100BC0000407DFED7C0AB0EE000A33F9153006EBBE
:100BD000071707EE103A784BC7ED017AB8EEC77ADF
:100BE0004B4493ED009AC7EE200A2AF045F9734B67
:100BF00087ED058A5B5DC7ED039A29EE009AC7ED84
:100C0000048A87ED029ABBB36D4B4B44D3ED007A57
:100C1000F5EEC07AF1EE10FA6DD5B7EE007A012547
:100C2000B0EE476A674BF7EE006A4B44D3ED007AAB
:100C300008EB0403F4EEE67A06EB031383ED067A81
:100C4000F1EE10FA83ED076A00F184809FED5E7A81
:100C5000F4EEC77AF1EE10FA7FDC9FED5C6ABFEE2E
:100C6000007ADFED5B6A67EE867A67EEA67A87EE3A
:100C7000270A2AF073F808E0F7EE007A0225B0EEB2
:100C8000670AC7ED067AC7ED077A524BA0441A6887
:100C900006EB0816511C86ED080A86F82450B2624D
:100CA000196003B0BDEC048BBDE8F0838C4622E7ED
:100CB000DFED3D7A82E7B7EE007AF4EEC77AF1EE27
:100CC00010FA11DCF5EEC07AF1EE10FA48D577EEA5
:100CD000877AF0EE489A67EE888A5EE79FED320ADF
:100CE0003DE7B7EE087A21E7DFED2F9AF0EE488A6C
:100CF00068EE299A51E79FED387AF4EEC77AF1EE63
:100D000010FA35DC9FED357AF4EEC77AF1EE10FA81
:100D100083D99FED2E6AB7EE007ADFED2D6A67EE7C
:100D2000867A67EEA67A87EE276A23E000244FF0E2
:100D3000FF3327460AE0816A3030994238BF2746A0
:100D400004F1010438BF0B46202C1CD04178A94285
:100D5000F1D1C6E69FED220A8BE79FED220A88E7D4
:100D600077EE679A69EE889A08DDF0EE488A14E714
:100D70009FED1D6A00259FED0C7A53E777EE877A89
:100D800067EE888A09E73C46ABE600BFE04D0020ED
:100D9000E0470020584E00200000FE420000C842FC
:100DA0007C470020B03E00200000000000460020EC
:100DB0007045002000009644A0450020C435002066
:100DC00064350020043500200000FA4500803B47D0
:100DD0006F12833ADC4700200000FA440AD7233C14
:100DE000AAAAAABC3DC32EB63DC32E3710B50446F1
:100DF000FFF776FA032804D9031FE25C1C442E2A6D
:100E000001D0002010BD637803F0DF03572BF8D129
:100E1000A37803F0DF03412BF3D1E07800F0DF008B
:100E2000A0F15600B0FA80F0400910BD2DE9F04F56
:100E3000224E83B081468846019314463378072BAF
:100E400009D91F4A1378013303F00703137033786D
:100E5000013BDBB233701B4F20221B4D002197F862
:100E600000C005EB4C105FFA8CFB4FEA4C1A2BF0DC
:100E700011FB0023220A0AF1080069F30703019914
:100E8000284468F30F2364F31743240C62F31F63B1
:100E90004FEA4B12AB5005EB4B1517222C712BF080
:100EA0001DFB3B78013303F007033B7033780133BC
:100EB000DBB2337003B0BDE8F08F00BFD433002045
:100EC000D5330020D6330020D8330020172901D98C
:100ED000002070472DE9F04FADF2644D0D46012220
:100EE00001468DA815F0AAFF20B100200DF2644D37
:100EF000BDE8F08F01AB2C2202A98DA816F09EF858
:100F000050B9019B2B2B07D9704B029A9A4203D1FF
:100F10006F4B049A9A4203D08DA816F0C3F9E4E708
:100F20000C218DA8BDF81E90BDF82A6016F022FA9B
:100F3000909B083B0C2BEFD90C2711E0019A072A54
:100F4000EAD90D9A8DA80E9C9A4213D09299214409
:100F5000083416F00FFA909B2744083BBB42DBD9BC
:100F600001AB08220DA98DA816F068F8594B00288E
:100F7000E4D0D1E7002CCFD0F70809FB07F7002F0A
:100F8000CAD0554BB4FBF7F8984528BF9846102EA9
:100F90001BD1B9F1010F18D1504B4FEA480250490B
:100FA0008DA801FB053101AB16F048F8019C4D4BB3
:100FB000640843F82540003C4B4E8DA818BF01241F
:100FC000745516F06FF9705D90E7BC427BD3424BCD
:100FD000002403FB05FAA8EB040201AB0DA98DA8C0
:100FE00007FB02F2B2F5007F28BF4FF4007216F043
:100FF00025F8002863D1019B002B60D0A045B3FBEE
:10100000F7FC5CD9BB4258D36FF0004333490DAABB
:101010005344234401EB43010DE0182E1AD0082E4F
:101020002AD00023013001343A4421F8023F84459C
:1010300043D9A04543D9102EEFD1B9F1020FB2F92F
:101040000030EFD1B2F902E01EEB030323D443F3E7
:101050004F03E7E75378B9F1020F92F800E04FEA47
:10106000034343EA0E2392F802E043EA0E634FEA99
:10107000234312D01BB2D5E71378B9F1020FA3F1C5
:1010800080034FEA0323F5D192F801E0AEF1800E20
:1010900013EB0E23DBD50133D9E792F804E092F885
:1010A00003B04FEA0E4E4EEA0B2E92F805B04EEA10
:1010B0000B6E13EB2E43CAD5EDE7A0458BD8094B39
:1010C00043F8254077E70024F9E700BF5249464638
:1010D000574156456461746100770100347020C047
:1010E00000EE0200584E0020E04D0020F2EE0E7A95
:1010F000B7EE006AA0EEA76A66EE007A03282ED843
:10110000DFE800F025382002B7EE005AFFEE005A63
:10111000F0EE006AF4EEC57AB0EE657AF8EE004AB9
:10112000F1EE10FA06DD76EEE77AF4EEC77AF1EE2C
:1011300010FA04D4F4EEE57AF1EE10FA0FD574EE5D
:10114000E77AE1E7F5EEC07AF1EE10FA1CDBB0EEDB
:10115000E77AF7EE006A37EE267AC7EE877A87EEEF
:10116000867AB7EE000AF6EE007AA0EEA70A27EE1E
:10117000000A7047BFEE007AF4EEC77AF1EE10FA7B
:1011800011D5F0EE477AEAE7DFED0B6AF7EE005A89
:1011900067EEA67AB0EEE77A37EE257AC7EE875A81
:1011A00065EEA67ADBE7B7EE007AF4EE477AF1EE69
:1011B00010FA77FE277AD2E73333333F70B4012237
:1011C0001A4D1B4B2A705B69D80720D519481A4C59
:1011D00007E0028892B2B1540380154B5B69D907CE
:1011E00015D5134B154E93F8301003882288C9B2D9
:1011F000013392B2C3F30A039342EAD1104A13882F
:1012000001339BB213800A4B5B69D907E9D4084BC1
:101210005A69520606D50B4A402199611388013359
:101220009BB2138000232B7070BC7047FC19002008
:1012300000300140001A0020FE190020041A00208E
:10124000CC330020CE330020084BB6EE007AD3ED2D
:10125000017A93ED006AC7EE866A77EEE67AF0EEE1
:10126000E77A67EE877AC3ED047A70476C46002010
:101270002DE9F04F3F4FADF52D7D002617F8018F7A
:10128000B8F1000F5FD13C491EA83C4B51F82640F5
:1012900060213B4A00942BF01DF8414640220EA8E5
:1012A0002BF0F8F81EA902A816F02EFA00284AD151
:1012B00066A902A816F078FA98BB9DF8AE4184B3EF
:1012C0009DF8A031DB06F3D40DF5D770FFF78EFD46
:1012D00005460028ECD0B8F1000F3BD00DF13809DD
:1012E0000DF5D77A0BE02AF00FFF044658462AF096
:1012F0000BFF844239D11AF8014F002C37D0C84671
:1013000019F801BB2046BBF1000FECD1A4EB0B0494
:10131000002C1FDBA84666A902A816F045FA002893
:10132000CBD002A816F028FAB8F1000F0BD00EA807
:10133000C0211EAB124A009036A82AF0CBFF36A877
:10134000F1B2FFF7C3FD0136102E97D10DF52D7DBB
:10135000BDE8F08F3F220DF5D7710EA8A8462BF0FF
:10136000BDF800238DF87730D5E7241AD0E798F838
:1013700001B0CBE7DF4D002008DB022424D4022497
:101380002CD40224A64B2DE9F04F1C782DED0A8BAE
:1013900083B0002C40F03E81DFEDA2BA0122A24DC5
:1013A000F7EE00CAB0EE6BBA1A70F0EE6BAA05F554
:1013B000C043B0EE6B9A05F5805B9FED9CCA05F5C6
:1013C000005A05F5405905F5804805F5A0470193F9
:1013D000DFED977AF5EE006AB1EE007A9FED956A3F
:1013E00029EE279AB4EEE69A79EE099A69EE077A21
:1013F000F1EE10FA69EE869A0BD4F6EE086AB4EEB6
:10140000E69AF1EE10FA40F10281B0EE007A77EE42
:10141000677A9FED848AA5F5805202263AEE888A83
:10142000C2ED00AAE5EC017AB0EE48AA07EE906A98
:101430000136F8EEE78A29EEA80A29F0A9FEC0EEE7
:10144000287A092E3AEE27AAF0D1DFED7B7AF0EE6A
:10145000488A03262AEE27AAABEC01AA07EE906A77
:101460000236B8EEE7AA29EE8A0A29F091FEC0EE0C
:101470000A7A0B2E78EEA78AF0D19FED707AFFEEF4
:10148000007A68EE878AF4EEE78AF1EE10FA00F14E
:10149000B580F7EE007AF4EE678AF1EE10FA77FE87
:1014A000A88AF5EE006A9FED637ADFED5E7A032687
:1014B000EAEC018A39EE269A7CEEA7CA39EE099A3F
:1014C00029EE079A07EE906A0236F8EEE78A29EECF
:1014D000A80A29F05DFEB0EE40AA29EE280A29F0FC
:1014E00057FEC0EE287A0B2E8AEE287A7CEEA7CA29
:1014F00038EE078AE6D138EE2C8A9FED4F7AFFEE60
:10150000007A28EE078AB4EEE78AF1EE10FA7BD46F
:10151000F7EE007AB4EE678AF1EE10FA37FE888AA9
:10152000F5EE007A9FED465A9FED466AFFEE006A9F
:101530009FED457A6BEE277ADFED445A2BEE077A62
:10154000A9EC018AEAEE857AAAEEA57AEBEE867A14
:10155000A8EC017AF4EEE67AF1EE10FA51D4B7EE87
:10156000007AF4EE477AF1EE10FA77FE277A9FEDD3
:10157000387A0134E7EC017ACCEE077A019BB4F5B6
:10158000806FE3EC017A019344D007EE904A9FED1F
:10159000288A9FED28AAB0EE08CAB8EEE79A29EE8D
:1015A000088A78EE088A68EE8A9AB0EE690A29F00D
:1015B000EFFDF0EE40AA39EEA90A29F0E9FDB0EE00
:1015C00040BA29EE8C0A29F0E3FDF7EE007AF0EE3E
:1015D00040BA38EEE70A20EE0C0A29F02DFAF5EEB3
:1015E000007AB0EE40CA38EE278A38EE088A28EE34
:1015F0000A0A29F0CDFDF0EE40CAE9E6F0EE678A6E
:101600004FE7F0EE667AB2E7B0EE678A88E777EEEA
:10161000C77AFEE603B0BDEC0A8BBDE8F08F00BFD1
:10162000344F002000000000385F0020E9BB7EBF7F
:101630000000803ADB0F494083F9223F83F9A23F43
:10164000E17A143F7B142E3E9A99993E3333333F0F
:10165000E9BB7E3F70B5174D1C46164613465A220D
:101660004FF6FF7E68702A70A2196C80A98013F86B
:10167000010B4FF0080C80EA0E0E4EF300010E48ED
:101680000CF1FF3C08401CF0FF0C80B280EA5E0EBB
:10169000F3D19342EBD12246314608480834A5F8ED
:1016A00006E02AF0B2FF06490122064B0C801A70B0
:1016B00070BD00BF0000003001A0FFFF0800003037
:1016C000B84E0020BA4E002090F8283013B99FED94
:1016D000720A704710B52DED088B90ED0B9A0446F9
:1016E000D0ED018A90ED038AF1EE49AA90ED020A4D
:1016F00028EE888A8AEE800A29F030FBD4ED099A18
:10170000D4ED0C7AE8EE008AB7EE007AE9EEA87A1A
:10171000F4EEC77AB0EE670AF1EE10FAA8BF37EE22
:10172000C70ADFED5E7A84ED0C0A20EE270A29F065
:101730002FFDB6EE006A94ED0D7AF7EE006ADFED4C
:10174000577AB0EE408A68EE868AA9EEA87AB4EE9F
:10175000E67AF1EE10FAA8BF37EE667A27EE270A8E
:1017600084ED0D7A29F014FDD4ED047AB0EE40AA90
:1017700094ED06BA8AEEA70A29F0F0FAA16D636E1D
:10178000D4ED156ACA1894ED147AB0EE666AD4EDF9
:10179000124A05EE902AF0EE667A9FED413AB0EEDD
:1017A000005AF8EEE55AD4ED133AA7EE246A94ED08
:1017B000114AF0EE408A94ED000AD5EE837A8AEE63
:1017C000800AA7EEA36A67EEA47AD4E91720E4EEB4
:1017D000077A53404840D6EE056A59404FEA7353A2
:1017E000A16580EA422197EE857A4240636668EE01
:1017F000A78AC4ED156AC4E9172184ED147A29F08B
:10180000ADFAF0EE487AF6EE006AD4ED055AB1EE84
:10181000006AEAEE0B7AB7EE007AA5EE867AE8EE79
:10182000A67AF5EEC07A67EE877AF1EE10FA2ADD35
:10183000F3EE0B6AF2EE025A27EEA77AB0EE666A72
:1018400039EE299AA7EE256A37EE267A84ED0B9AAF
:1018500027EE277AC7EE067A9FED127AB4EEC70A12
:10186000F1EE10FA02D5002384F8283027EE800A22
:1018700094ED077AD4ED0E7A20EE070ABDEC088BC2
:1018800020EE270A10BD9FED087AF3EE0B6AF2EE08
:10189000025A67EE877ACFE700000000DB0FC940ED
:1018A000000000306F12033A3333333F037F13B924
:1018B0009FED570A704710B52DED068BD0ED089AB5
:1018C000044690ED020AB1EE69AA90ED018A8AEE13
:1018D000000A29F043FAD4ED06AAD4ED097AB0EE55
:1018E000047AF7EE006A28EE077AA7EE008AEAEE9D
:1018F000887AF4EEE67AB0EE670AF1EE10FAA8BF45
:1019000037EEE60ADFED437A84ED090A20EE270A76
:1019100029F03EFC9FED407AB0EE408A8AEE070A3D
:1019200029F01CFAA16C636D94ED117ACA18DFEDF1
:101930003B3AB0EE475AD4ED107A06EE102AF0EE9C
:10194000476AD4ED0E8AF0EE005AB8EEC66AD4EDBE
:101950000D4AE7EEA86A94ED0F4AB0EE409A94ED76
:10196000000A96EE235A8AEE000A94ED03AA65EE69
:10197000288AE5EE046AE4EEA78AD4E9132096EEFD
:10198000A57A53404840D8EEA57A59404FEA7353A0
:10199000A16480EA42214240636584ED117A2165A9
:1019A000C4ED107AE26429F0D9F929EE289ADFED26
:1019B0001C7AF3EE0B6AB2EE025A9FED1A6AA9EE98
:1019C0000A8AF0EE665AB4EEC60A79EEAA9AF1EEE9
:1019D00010FA68EE277AC4ED089A27EEA77AE7EEA8
:1019E000055A37EE267A27EE277AC7EE257A67EE74
:1019F000807A01D500232377D4ED046A94ED0A7A26
:101A000027EEA60ABDEC068B20EE070A10BD00BF2C
:101A100000000000DB0FC9400AD7A33B00000030E4
:101A20006666A63F6F12033ADFED287AB4EEE70A46
:101A300010B5F1EE10FA04460BD4DFED257AB4EEC2
:101A4000E70AF1EE10FA3BDDB0EE670ADFED217A2E
:101A500003E0B0EE670ADFED207A94ED057ADFED62
:101A60001F6A9FED1F6A67EE266A84ED010A37EE52
:101A7000077AF4EE667AF1EE10FA76FEA77A67EE50
:101A8000867A87EE870A28F0ABFFDFED167A84EDC1
:101A90000B0AC4ED0C7AF7EE006A70EE277AB0EE0E
:101AA000666AA0EE276A86EE867A60EE077A84ED93
:101AB0000D7A20EE270AC4ED0E7A84ED0F0A10BDD0
:101AC000F2EE007A60EE277AC7E700BF00002042FE
:101AD0000000FA4300007A450000A04348E1FA3EC6
:101AE000DB0FC940ABAA2A3FB7EE007ADFEDC47A1C
:101AF000002300F21C5270B52DED048B87EE009A86
:101B0000DFEDC08A82ED000A044680ED080A80F805
:101B1000283060EE288AB0EE408AF4EEE78AF1EED3
:101B200010FA80ED099A40F164819FEDB70A28EE22
:101B3000800A78EE089A80EE290A28F051FF84ED99
:101B40000F0A04F15401B14AB7EE047AF7EE007AB5
:101B500030EE076A84ED107AF0EE676AE0EE066A0E
:101B600087EEA67A60EE077A84ED117A20EE270AD6
:101B7000C4ED127A84ED130AA2F1C342A44EA54D1E
:101B8000A2F59102A448A2F2476282EA124382427D
:101B900006FB03F383EA533305FB03F383EA1343A2
:101BA00041F8043FE8D1DFED9D7A002384ED1F8AE0
:101BB000F4EEE78A84ED209A84F88430F1EE10FA8E
:101BC00040F114819FED900A28EE800A80EE290AE8
:101BD00028F006FFDFED927A84ED260A04F1B001C9
:101BE000C4ED277A8F4AF7EE006A70EE277AB0EEDE
:101BF000666AA0EE276A86EE867A60EE077A84ED42
:101C0000287A20EE270AC4ED297A84ED2A0AA2F167
:101C1000C3427F4E7F4DA2F591028348A2F24762F4
:101C200082EA1243824206FB03F383EA533305FB45
:101C300003F383EA134341F8043FE8D1002304F59A
:101C40008E717A4A84ED358A84ED369A84F8DC30D8
:101C5000A2F1C3426E4E6F4DA2F591027448A2F2FA
:101C6000476282EA1243824206FB03F383EA53335C
:101C700005FB03F383EA134341F8043FE8D1DFEDAA
:101C80006D7A002384ED4C8AF4EEE78A84ED4D9A58
:101C900084F83831F1EE10FA40F1AE809FED5A0A27
:101CA00028EE800A80EE290A28F09AFEDFED627A9B
:101CB00084ED5B0A04F5AC71C4ED5C7A5F4AF7EE23
:101CC000006A70EE277AB0EE666AA0EE276A86EEAA
:101CD000867A60EE077A84ED5D7A20EE270AC4EDFD
:101CE0005E7A84ED5F0AA2F1C342494E494DA2F5E6
:101CF00091025348A2F2476282EA1243824206FBF3
:101D000003F383EA533305FB03F383EA134341F8F8
:101D1000043FE8D1DFED4B7A002384ED658AF4EED1
:101D2000E78A84ED669A84F89C31F1EE10FA5AD570
:101D30009FED350A28EE800A80EE290A28F050FE31
:101D4000DFED3D7A84ED740A04F5DE71C4ED757A39
:101D50003A4AF7EE006A70EE277AB0EE666AA0EEB5
:101D6000276A86EE867A60EE077A84ED767A20EE30
:101D7000270AC4ED777A84ED780AA2F1C342244E93
:101D8000244DA2F591022E48A2F2476282EA124344
:101D9000824206FB03F383EA533305FB03F383EA32
:101DA000134341F8043FE8D1F2EE006AD4ED7F7AA4
:101DB000B2EE047A002384ED838A67EEA67A84ED7E
:101DC000849A84F81432F4EEC77AF1EE10FA47D40C
:101DD000F4EEE87AF1EE10FA40F31383DFED0A7ABD
:101DE00028EEA70A3EE09FED180AA5E79FED170A27
:101DF000ECE69FED170A9CE69FED160A52E700BF3E
:101E000000C05A4548E1FA3EDB0FC940008080BD62
:101E10006BCAEB8535AEB2C2E4665E360080A24581
:101E20005555553FD4C3B2A1B8AA901A80B3A2C1E8
:101E3000649A803A0000E1456EDBB63F0DF0ADBA22
:101E4000F1D68B330080BB451D4313472141FF462C
:101E50004CCEAB46EFB63047D2537B42ABAA2A3FBB
:101E60001FED030A80EE290A28F0BAFD5FED057A1E
:101E700084ED890A04F50F71C4ED8A7AD74AF7EE2A
:101E8000006A70EE277AB0EE666AA0EE276A86EEE8
:101E9000867A60EE077A84ED8B7A20EE270AC4ED0D
:101EA0008C7A84ED8D0AA2F1C342CD4ECD4DA2F5C0
:101EB0009102CD48A2F2476282EA1243824206FBB7
:101EC00003F383EA533305FB03F383EA134341F837
:101ED000043FE8D1F2EE006AD4ED957AB2EE047ACE
:101EE000002384ED998A67EEA67A84ED9A9A84F8A5
:101EF0006C32F4EEC77AF1EE10FA0AD4F4EEE87A16
:101F0000F1EE10FA40F37882DFEDB87A28EEA70AF6
:101F100001E09FEDC00A80EE290A28F061FDDFEDA7
:101F2000B47A84ED9F0A04F52571C4EDA07AAB4A1A
:101F3000F7EE006A70EE277AB0EE666AA0EE276AC6
:101F400086EE867A60EE077A84EDA17A20EE270A83
:101F5000C4EDA27A84EDA30AA2F1C342A04EA14D22
:101F6000A2F59102A048A2F2476282EA124382429D
:101F700006FB03F383EA533305FB03F383EA1343BE
:101F800041F8043FE8D1F2EE006AD4EDAB7AB2EE4C
:101F9000047A002384EDAF8A67EEA67A84EDB09AC6
:101FA00084F8C432F4EEC77AF1EE10FA0AD4F4EEF3
:101FB000E87AF1EE10FA40F31A82DFED8C7A28EE1F
:101FC000A70A01E09FED930A80EE290A28F008FD98
:101FD000DFED877A84EDB50A04F53B71C4EDB67A7E
:101FE0007E4AF7EE006A70EE277AB0EE666AA0EEDF
:101FF000276A86EE867A60EE077A84EDB77A20EE5D
:10200000270AC4EDB87A84EDB90AA2F1C342744E2E
:10201000744DA2F591027448A2F2476282EA12431B
:10202000824206FB03F383EA533305FB03F383EA9F
:10203000134341F8043FE8D1B2EE047AD4EDDB7AE1
:10204000002384EDC38A84EDC49AF4EEC77A84F841
:10205000143384EDCC8A84EDCD9AF1EE10FA84F835
:10206000383384EDD58A84EDD69A84F85C3384EDD8
:10207000DE8A84EDDF9A84F880330AD4F4EEE87ABD
:10208000F1EE10FA40F3AE81DFED587A28EEA70AA0
:1020900001E09FED600A80EE290A28F0A1FCDFED47
:1020A000557A9FED556AC4EDE57A84EDE40AF7EEC2
:1020B000006A70EE277AF4EEC68AF0EE665AF1EE08
:1020C00010FAE0EE275A86EEA57A60EE077A84EDE4
:1020D000E67A20EE270AC4EDE77A84EDE80A79D59E
:1020E0009FED420A28EE800A80EE290A28F078FC4B
:1020F000DFED427A84EDEB0A04F57171C4EDEC7A00
:102100003F4AF7EE006A70EE277AB0EE666AA0EEFC
:10211000276A86EE867A60EE077A84EDED7A20EE05
:10212000270AC4EDEE7A84EDEF0AA2F1C3422C4EE9
:102130002C4DA2F591023348A2F2476282EA124383
:10214000824206FB03F383EA533305FB03F383EA7E
:10215000134341F8043FE8D1002304F582612A4A81
:1021600084EDF98A84EDFA9A84F8EC33A2F1C34243
:102170001B4E1C4DA2F591022448A2F2476282EA4E
:102180001243824206FB03F383EA533305FB03F356
:1021900083EA134341F8043FE8D104F22443B2EE4A
:1021A000047A0022D3ED017A83ED038AF4EEC77A34
:1021B00083ED049A84F83824F1EE10FA2ED4F4EE6C
:1021C000E87AF1EE10FA40F30881DFED087A28EEA4
:1021D000A70A25E09FED0E0A86E700BFC3D2E1F013
:1021E0006BCAEB8535AEB2C2A7B9BF69DB0FC94078
:1021F000ABAA2A3F398E633D00409C456EDBB63F5B
:1022000008E5A4C1ECCB823AD5C4B3A2B9AB911B0B
:10221000DB6FF546D2537B42CDCC4C3E1FED030A1B
:1022200080EE290A28F0DCFB1FED057A04F58963AE
:1022300004F58C61754A83ED017AF7EE007A83ED3F
:10224000000A30EE076AF0EE676AE0EE066A87EE93
:10225000A67A60EE077A83ED027A20EE270AC3EDB4
:10226000037A83ED040AA2F1C342694E694DA2F5D7
:1022700091026948A2F2476282EA1243824206FB57
:1022800003F383EA533305FB03F383EA134341F873
:10229000043FE8D1DFED617A04F274430022F4EEEA
:1022A000E78A83ED038A83ED049A84F88824F1EEAB
:1022B00010FA40F18F809FED5A0A28EE800A80EED6
:1022C000290A28F08DFB9FED577A04F29C43DFED3D
:1022D000566A04F59762002183ED017AF7EE007AE1
:1022E00083ED000A70EE075AF4EEE68AB0EE676AF4
:1022F000F1EE10FAA0EE256A87EE867A60EE077A94
:1023000083ED027A20EE270AC3ED037A83ED040AF7
:1023100082ED008A82ED019A84F8C01457D5DFED72
:10232000407A28EEA70A80EE290A28F059FB9FED93
:102330003F7A04F2F44304F59C613D4A83ED017A4F
:10234000F7EE007A83ED000A30EE076AF0EE676A76
:10235000E0EE066A87EEA67A60EE077A83ED027AEF
:1023600020EE270AC3ED037A83ED040AA2F1C342EB
:10237000274E284DA2F591022E48A2F2476282EA2A
:102380001243824206FB03F383EA533305FB03F354
:1023900083EA134341F8043FE8D104F5A56304F54B
:1023A000AD614FF07E5243F8042B9942F9D10023DE
:1023B00004F5A462204804F2245463644B608B60EB
:1023C000CB60002310602360BDEC048B70BD9FEDDB
:1023D0001B0AA8E79FED1A0A71E79FED117A27EE15
:1023E000870A1DE79FED0E7A27EE870A53E69FEDD9
:1023F0000C7A27EE870AE7E59FED097A27EE870A30
:1024000089E59FED077A27EE870A2BE5A4F3E2D151
:102410006BCAEB8535AEB2C288DAC04A000096447A
:10242000DB0FC9402549923E00E0AB456EDBB63F6D
:102430000DF0ADBAF1D68B339A99593F85FD064719
:10244000959EEB45B5EEC00A38B5F1EE10FA04469C
:102450002DED048B00F1CC80F7EE007AB4EE670A24
:10246000F1EE10FA37FE808A0F2900F2BE80DFE815
:1024700011F00D0148011000E90134027D02D6027D
:102480002F0388039D03B203DF033A049B0418055E
:10249000C20094ED335AF0EE005A9FEDDA6AF0EE86
:1024A000086ADFEDD97A28EE087AB7EE009A0122A1
:1024B000E5EE067A0023E8EE656A94ED325AB2EE54
:1024C000046ADFEDD29AF1EE045A84F8DC20C4F8F5
:1024D000E030B0EE678AD4ED357A27EE267AA5EEA5
:1024E000259AB4EEC68A67EEA99A84ED397AF1EEA0
:1024F00010FA00F14585B4EEE98A9FEDC50AF1EEC8
:1025000010FACCBF29EE800A28EE000A77EEA78ADF
:1025100080EE280A28F064FA84ED3A0AF6EE007A92
:10252000B4EEE79AF1EE10FA00F13685DFEDB97AF4
:10253000B4EEE79AF1EE10FA00F33885F7EE007A80
:1025400087EE897A84ED3B7ADFEDB35AF7EE007AB5
:1025500030EE075AF2EE046AB0EE676A28EE258A7A
:10256000A0EE056AB4EEE68AF1EE10FA87EE867AFE
:1025700060EE077A84ED3C7A20EE270AC4ED3D7ABE
:1025800084ED3E0A00F10485B4EEE98AF1EE10FA1A
:1025900040F306859FED9E0A29EE800A80EE280A08
:1025A00028F01EFADFED9D7A84ED410A0023C4ED88
:1025B000427AC4F80031F7EE006AC4F8FC3070EEDD
:1025C000277AC4F81C31C4F81831B0EE666AA0EE60
:1025D000276A86EE867A60EE077A84ED437A20EEEB
:1025E000270AC4ED447A84ED450ABDEC048B38BD5E
:1025F0009FED8B8A38E7B0EE006A04F59760B0EE85
:10260000087ADFED8F6A68EE087A4FF0010C00233C
:102610000021A8EE467A84F8C0C4C160814A824D88
:1026200067EE877AC0ED047A67EEA67AC4F8CC34F8
:10263000C4F8D034FCEEE77AC4F8D434C4F8D83403
:10264000C4F8DC34C4F8E03404F2F44304F59C64C8
:102650009961596117EE903A53401A461D44A2F110
:10266000C34272487249A2F59102A2F2476282EA1D
:102670001243AA4200FB03F383EA533301FB03F343
:1026800083EA134344F8043FE9D1AEE7B0EE006AB1
:10269000DFED6B7AF0EE086A002328EE087A654ACF
:1026A000E3620121E8EE466A2363636363652365A1
:1026B0005D4D84F8281004F1540127EE267A67EE68
:1026C000277A84ED0E7AFCEEE77A17EE903A5340C3
:1026D0001A461D44A2F1C342544C5548A2F591023A
:1026E000A2F2476282EA1243AA4204FB03F383EA9E
:1026F000533300FB03F383EA134341F8043FE9D16A
:1027000073E7B0EE005AD4ED1D7AF0EE086A0023AC
:10271000F3EE0C5A0122B2EE046A94ED1F0AE8EEC1
:10272000456AC4F8883067EEA57AC4F8903028EE80
:10273000087A84F88420C4F88C30F4EEC67A27EE48
:10274000267AF1EE10FA84ED257A00F11D849FEDD2
:102750002F7A20EE077AF4EEC77AF1EE10FACCBFAA
:10276000DFED2B7A9FED2A7A67EE877A30EE000A4A
:102770002D4D87EE800A28F033F99FED287ADFEDA2
:102780002E7A002384ED277A04F1B0012B4AF7EE6C
:10279000006AC4F8B03070EE075AC4F8AC3068EE86
:1027A000277A84ED260AB0EE666AFCEEE77AA0EEA0
:1027B000256A17EE903A534086EE867A1A461D44F3
:1027C00060EE077A84ED287A20EE270AC4ED297A94
:1027D00084ED2A0AA2F1C342144C1548A2F59102D5
:1027E000A2F2476282EA1243AA4204FB03F383EA9D
:1027F000533300FB03F383EA134341F8043FE9D169
:10280000F3E600BF00002F450000614448E1FA3EB6
:10281000DB0FC940000020429A99193F5555553F9A
:10282000000000000DF0ADBAE4E6DD786BCAEB8580
:1028300035AEB2C2008080BD00409A44D4C3B2A17C
:1028400000FF7F47B0EE006A5FED037AF0EE086AA2
:10285000002328EE087AEA4A012184F89C31E8EE48
:10286000466AC4F84431C4F84831C4F84C31C4F85D
:102870005031C4F85431C4F8583127EE267AE14D6E
:1028800084F83811002167EE277AC4F83C11C4F8A7
:102890008411C4F8801104F5AC71FCEEE77A84ED84
:1028A000507A17EE903A53401A461D44A2F1C342A3
:1028B000D54CD648A2F59102A2F2476282EA1243B1
:1028C000AA4204FB03F383EA533300FB03F383EAD6
:1028D000134341F8043FE9D187E6B0EE006ADFED2B
:1028E000CC7AF0EE086A002328EE087AC44AC4F8CD
:1028F000A8310021E8EE466AC4F8AC31C4F8B03122
:102900000120C4F8B431C4F8B831C4F8BC31BD4DAD
:1029100027EE267AC4F8A011C4F8E811C4F8E4112F
:1029200004F5DE7167EE277A84F89C0184ED697AFC
:10293000FCEEE77A17EE903A53401A461D44A2F196
:10294000C342B14CB148A2F59102A2F2476282EAB9
:102950001243AA4204FB03F383EA533300FB03F35D
:1029600083EA134341F8043FE9D13EE6B0EE005A52
:10297000D4ED7F7AF0EE086A0023F2EE005A0122CD
:10298000B2EE046A94ED830AE8EE456AC4F81832A0
:1029900067EEA57AC4F81C3228EE087A84F814226F
:1029A000F4EEC67A27EE267AF1EE10FA84ED887AF4
:1029B00000F1E3829FED9C7A20EE077AF4EEC77A6D
:1029C000F1EE10FACCBFDFED997A9FED987A67EEC1
:1029D000877A30EE000A87EE800A28F001F8DFEDF2
:1029E0008D7A84ED890A0023C4ED8A7AC4F83C32DA
:1029F000F7EE006AC4F8383270EE277AB0EE666AF5
:102A0000A0EE276A86EE867A60EE077A84ED8B7AEE
:102A100020EE270AC4ED8C7A84ED8D0AE5E5B0EE50
:102A2000005AD4ED957AF0EE086A0023F2EE005ACF
:102A30000122B2EE046A94ED990AE8EE456AC4F800
:102A4000703267EEA57AC4F8743228EE087A84F8FA
:102A50006C22F4EEC67A27EE267AF1EE10FA84EDB7
:102A60009E7A00F187829FED707A20EE077AF4EE6D
:102A7000C77AF1EE10FACCBFDFED6C7A9FED6B7A7E
:102A800067EE877A30EE000A87EE800A27F0A8FF0B
:102A9000DFED607A84ED9F0A0023C4EDA07AC4F8CC
:102AA0009432F7EE006AC4F8903270EE277AB0EEF6
:102AB000666AA0EE276A86EE867A60EE077A84ED73
:102AC000A17A20EE270AC4EDA27A84EDA30A8CE550
:102AD000B0EE005AD4EDAB7AF0EE086A0023F2EEC5
:102AE000005A0122B2EE046A94EDAF0AE8EE456A9C
:102AF000C4F8C83267EEA57AC4F8CC3228EE087A5A
:102B000084F8C422F4EEC67A27EE267AF1EE10FAA3
:102B100084EDB47A00F12B829FED437A20EE077AA0
:102B2000F4EEC77AF1EE10FACCBFDFED407A9FEDFC
:102B30003F7A67EE877A30EE000A87EE800A27F048
:102B40004FFFDFED347A84EDB50A0023C4EDB67A89
:102B5000C4F8EC32F7EE006AC4F8E83270EE277A77
:102B6000B0EE666AA0EE276A86EE867A60EE077A95
:102B700084EDB77A20EE270AC4EDB87A84EDB90A5D
:102B800033E5F0EE006A0023B0EE087A012268EE29
:102B9000087AC4F8183384F81423A8EE667AC4F8C7
:102BA0001C3367EE877AC4EDC87A1EE5F0EE006A42
:102BB0000023B0EE087A012268EE087AC4F83C33AC
:102BC00084F83823A8EE667AC4F8403367EE877A33
:102BD000C4EDD17A09E5F0EE006A0023B0EE087A80
:102BE000012268EE087AC4F8603384F85C23A8EE0A
:102BF000667AC4F8643367EE877AC4EDDA7AF4E46F
:102C00000DF0ADBAE4E6DD786BCAEB8535AEB2C245
:102C100000FF7F47ABAA2A3F398E633D00A08C4559
:102C200000E0AB456EDBB63F48E1FA3EDB0FC94042
:102C3000F0EE007A94EDDB7AB0EE086A4FF07E5346
:102C4000F2EE045A012168EE086A0022A8EE676AD3
:102C500084F88013B4EEE57AD4EDDE7AC4F88423E8
:102C6000C4F88C33F1EE10FA66EE866AC4EDE26ABF
:102C700000F17A815FED146A67EEA66AB4EEE67A37
:102C8000F1EE10FACCBF1FED177A5FED186A27EE50
:102C9000260A77EEA77A80EE270A27F0A1FE5FEDDD
:102CA000227A84EDE40A0023C4EDE57AC4F8A8335F
:102CB000F7EE006AC4F8A43370EE277AC4F8C43380
:102CC000C4F8C033B0EE666AA0EE276A86EE867A54
:102CD00060EE077A84EDE67A20EE270AC4EDE77A03
:102CE00084EDE80A81E494EDF75AB0EE006A5FEDF6
:102CF000355AF0EE086A5FED367A28EE087A01223E
:102D00000023E5EE257A94EDF90AE8EE466A84F8A8
:102D1000EC23B2EE046AC4F8F033F4EEC67A27EE80
:102D2000267AF1EE10FA84EDFD7A00F11A811FED9A
:102D3000427A20EE077AF4EEC77AF1EE10FACCBFB1
:102D40005FED467A1FED477A67EE877A30EE000A2C
:102D500087EE800A27F044FE1FED4E7A04F580626C
:102D600084EDFE0A84EDFF7A002304F2044004F5AA
:102D70008161F7EE007A30EE076AF0EE676AE0EE06
:102D8000066A87EEA67A60EE077A82ED007A04F58D
:102D9000826204F20C4420EE270AC0ED007A81ED35
:102DA000000A1360236020E4B0EE007A04F22443AA
:102DB000B0EE086A4FF07E52F2EE045AD3ED016A8B
:102DC00068EE087A0120A8EE476A0021F4EEE56A71
:102DD00084F8380493ED037A9961F1EE10FA1A62DF
:102DE00027EE868A83ED078A00F1B8805FED727A5C
:102DF00067EE277AF4EEE76AF1EE10FACCBF5FEDEA
:102E0000756A5FED767A26EEA70A37EE077A694D86
:102E100080EE070A27F0E4FD9FED677ADFED676A31
:102E200004F589630021664A83ED017A04F58C6418
:102E3000F7EE007A996130EE076A596128EE268A2A
:102E400083ED000AF0EE676ABCEEC88AE0EE066A1F
:102E500018EE101A514087EEA67A0A460D4460EE2D
:102E6000077A83ED027A20EE270AC3ED037A83ED19
:102E7000040AA2F1C34253485349A2F59102A2F2B7
:102E8000476282EA1243AA4200FB03F383EA533308
:102E900001FB03F383EA134344F8043FE9D1FFF74E
:102EA000A4BBF0EE007A04F27443F0EE086ADFEDA2
:102EB000475AB2EE046A002228EE087A0121E8EEB1
:102EC000676AD3ED017A93ED030A67EEA57A84F879
:102ED00088149A611A62F4EEC67ADA6127EE267ACD
:102EE000F1EE10FA83ED097A35D49FED397A20EEB0
:102EF000077AF4EEC77AF1EE10FACCBFDFED357A3F
:102F00009FED347A67EE877A30EE000A04F29C4433
:102F100087EE800A27F064FD9FED2F7A84ED000A8A
:102F2000002384ED017AA361F7EE007A636130EE4D
:102F3000076AF0EE676AE0EE066A87EEA67A60EE50
:102F4000077A84ED027A20EE270AC4ED037A84ED35
:102F5000040AFFF74ABBDFED217AD5E79FED1F0A90
:102F600053E7DFED1E7AF1E69FED1C0A91E6DFEDF7
:102F70001B7AE0E5DFED197A84E5DFED187A28E5C4
:102F80009FED160AFFF7C2BADFED147AFFF7EEBB2A
:102F90009FED120AFFF702BBB0EE007AFFF7D2BA3C
:102FA000DFED0C7A28EE270AFFF7F8BA9FED0C7ACE
:102FB000FFF7C8BAE4E6DD78CDCC4C3E003C1C46B9
:102FC000A4F3E2D16BCAEB8535AEB2C200009644E1
:102FD00048E1FA3EDB0FC9402549923ED2537B427D
:102FE000CDCCCC3C2DE9F04104462DED088BFEF70D
:102FF0006BFB94F86835002B40F0AE8204F5A563B6
:103000009FEDE48AD3ED007A94F88430A0EE278A0D
:10301000002B00F0A88294ED20AAF7EE007AD4ED00
:103020001D8A94ED230AA8EE8A0AB4EEE70AF1EEAF
:1030300010FAA8BF30EE670ADFEDD77A84ED230AD5
:1030400020EE270A28F0A4F8DFEDD46AD4ED247A24
:10305000B7EE007A68EEA68AF0EE409A9FEDCE0AAF
:10306000EAEE287AF4EEC77AF1EE10FAA8BF77EE0E
:10307000C77A27EE800AC4ED247A28F089F8D4EDC7
:1030800022AA94ED1A9AF0EE408ADFEDC57AB1EEED
:103090006ABA29EE270A8BEE000A27F05FFEDFED01
:1030A000C17ADFEDC16A9FEDC16AD4ED1BBA68EE4B
:1030B000A77A29EE069AB0EE407AE9EEA67A8BEE70
:1030C000090A67EE278A27F049FED4F8B4103AEED1
:1030D0002A7AD4F8C030F0EE004A94ED2C6ACA186F
:1030E000D4ED2B6AF0EE465AD4ED297A05EE102A7B
:1030F000B0EE464A9FEDB82AB8EEC55A84ED227A62
:10310000E6EEA75AD4ED2A3AD4ED282A95EE024AE3
:1031100094ED1C3A9FEDB15AD4E92E20B4EEC50AC5
:103120005340484024EE277AF0EE657A5940F3EE9A
:103130000B5A4FEA7353A2EEA67AC4F8B410E4EE29
:10314000237ADFED9B3AB2EE024A80EA4221F1EEA9
:1031500010FA82EA0002C4F8C030D7EE246A97EE73
:10316000A46A60EE077AC4E92E2167EE837AC4ED83
:103170002B6AF0EE656A84ED2C6AE8EEAB7A67EEB6
:10318000A37A27EEA77AE7EE046A37EE257A27EED0
:10319000277AC7EE267A00F1ED81D4ED1E6A94ED10
:1031A000257A67EEA67A67EE877A94F869352BB9A7
:1031B00004F22C5393ED007AA7EE278A94F8DC30C2
:1031C000002B40F0EF83DFED737A94F86A352BB96A
:1031D00004F5A66393ED007AA7EE278A94F83831B8
:1031E000002B40F04786DFED6B7A94F86B352BB9F6
:1031F00004F2345393ED007AA7EE278A94F89C31B9
:10320000002B40F07B85DFED637A94F86C352BB9A9
:1032100004F5A76393ED007AA7EE278A04F5FC7006
:10322000FEF744FB94F86D352BB904F23C53D3ED13
:10323000007AA0EE278A04F51470FEF737FB94F8A5
:103240006E352BB904F5A863D3ED007AA0EE278A7A
:1032500004F52A70FEF72AFB94F86F352BB904F2B7
:103260004453D3ED007AA0EE278A94F81433002B50
:1032700040F0E384DFED477A94F870352BB904F51C
:10328000A96393ED007AA7EE278A94F83833002BD0
:1032900040F07284DFED3F7A94F871352BB904F277
:1032A0004C5393ED007AA7EE278A94F85C33002BF9
:1032B00040F01883DFED377A94F872352BB904F5B6
:1032C000AA6393ED007AA7EE278A94F88033002B47
:1032D00040F05E82DFED2F7A94F873352BB904F25B
:1032E000545393ED007AA7EE278A94F8EC33002B21
:1032F00040F0D581DFED277A94F874352BB904F5C9
:10330000AB6393ED007AA7EE278A94F83834002B4C
:1033100040F03481DFED1F7A94F875352BB904F253
:103320005C5393ED007AA7EE278A94F88834002B3B
:1033300000F0488704F27445DFED1E7AB7EE006AAC
:10334000DFED1D5AD5ED016AB6EE005AD5ED049AAF
:10335000B6EE00AA66EEA77A95ED077A66EEA56A44
:1033600004F29C43FFEE005AD5ED06AAA7EEA97A17
:10337000D5ED087AF7EE004AD3ED038AE9EEA67A96
:1033800093ED024ABFEE003AD3ED056AD3ED043A5D
:1033900026E000BF00000000DB0FC940BE9FEA3FEF
:1033A000CDCC0C3F3333B33E6666263F6666663F40
:1033B0003333B33F00000744000048440AD7233B9F
:1033C0006666E63F09FE7F3F3333733F000000002F
:1033D00052491D3A9A99193F000000306F12033A82
:1033E000B1EE6ABA1FED0B0AB4EEC67A8BEE000A94
:1033F000F1EE10FAA8BF37EE467AB7EE006AB4EEE7
:10340000C57A85ED077AB0EE007AF1EE10FAF4EEA7
:10341000C67A48BFF0EE465AF1EE10FAA8BF77EE32
:10342000C67A93ED066AB0EE465AF4EECA7AC5ED56
:10343000087AA6EEA85AF1EE10FA54BFF0EE437ADD
:10344000F0EE647A75EEA75AF0EE467AD5EE8A7AF7
:1034500067EEA88AA7EEA35AE4EE268A95EE076ADD
:10346000D8EE876A83ED066AC3ED056A27F076FC1D
:10347000D5ED007AB0EE409A8BEE270A27F06EFC6D
:103480005FED315A1FED2B6AF0EE407AF3EE0B6AD6
:1034900039EEAA7AE9EE0A7AB2EE025A85ED067A98
:1034A000B4EEC60AF1EE10FA67EEA87A67EEA57AD6
:1034B000F0EE665A27EEA77AE7EE055A37EE267A3F
:1034C00027EE277AC7EE257A50D4D5ED026A95ED1E
:1034D000097A67EEA67A67EE877A94F876352BB983
:1034E00004F5AC6393ED007AA7EE278A94F8C03414
:1034F000002B40F08D855FED4B7A94F877352BB932
:1035000004F2645393ED007AA7EE278A04F5A463CE
:1035100004F22454D3ED007A94ED007A28EE270AC1
:10352000F0EEC07AB4EEE77AF1EE10FA03D45FED74
:103530005B7A67EE277A1FED5C7AC4ED007AF4EED1
:10354000C77AF1EE10FA03DDC7EE276A20EE260AED
:10355000BDEC088BBDE8F08194F884301FED658ADE
:10356000002B7FF458AD5FED677A1EE6002384F8E8
:103570008834AAE7002384F884300EE604F2244558
:103580001FED6D0AD5ED069AF1EE698A88EE800A84
:1035900027F0E4FBD4F86414D4F86864D4F87034E9
:1035A000D4F86C24D5ED007A83EA06004A40CB18A3
:1035B000B0EE409A414088EEA70A4FEA705008EEFC
:1035C000903A86EA020382EA4622C4F86414C4F8F8
:1035D0006834C4F86C24C4F87004FAEEE08A27F06A
:1035E000BDFB04F58963D5ED087AF0EE003AD3ED22
:1035F000066A68EE898A93ED056AB3EE0B4A77EEA8
:10360000E67A93ED037AF0EE664A93ED023A93ED93
:10361000045AF2EE022A1FED912A0022E6EE074A32
:1036200027EE877AA3EE067A1FED943AE7EE854AF5
:1036300095ED045AB4EEC30A35EE295A60EE077AC6
:1036400097EE236AD4EEA36AE8EE827AF1EE10FADE
:1036500083ED056AC3ED066AF0EE446A77EEA77A59
:103660002A6285ED065A27EEA77AE7EE226A37EE40
:10367000047A27EE277AC7EE267A07D5B4EEC39AE6
:10368000F1EE10FA02D5002384F83834D5ED026A41
:1036900095ED077A67EEA67A67EE877A3CE6D4ED79
:1036A000FC8A04F58266D4EDF67A04F20C45B1EE9C
:1036B000680A80EE270A27F051FB04F20442D4F88E
:1036C000141492ED007A04F58062D4F8203492ED5F
:1036D000002A04F58162D4EDFA6AF0EE003AD2EDE8
:1036E000001ACA1876EEA84AD6ED006A05EE102A2E
:1036F0001FEDC74AB0EE663A95ED006AB8EEC55ABE
:10370000D4EDFF7AF0EE665AD4F818045FEDCD2AB6
:1037100095EE043AD4F81C24E6EE075A4340B4EE82
:10372000E20A4A4059404FEA7353F1EE10FAC4F8E6
:10373000203423EE077A80EA0203E3EE215A82EA7C
:103740004022C4F81414A2EE067AC4F81834C4F85F
:103750001C24D5EEA36A67EEC77A97EE236AE5EEDE
:10376000047A85ED006AC6ED006A77EEE57AC4ED6D
:10377000FC4A67EE807A02D5002384F8EC33D4ED5E
:10378000F86A94EDFD7A67EEA67A67EE877AB3E57C
:10379000D4F8C873B0EE00AAD4F8D45300219FED3A
:1037A000E89A7A1994EDE37A9FEDE64A07EE902ABB
:1037B00094EDEA6AD4EDE96AF8EEE77AD4EDE78AA7
:1037C000F0EE465A94EDE65AD4EDE84A67EE897A6F
:1037D000D4EDE1AAE6EEA85A9FEDDB0AB1EE6ABA93
:1037E000C4F88C13A7EE847AD4E9F3638BEE000A55
:1037F00075407B406F404FEA755586EA030883EABF
:10380000462637EE467A67EE288AE7EE245AE5EE3A
:10381000268A95EE8A6AD8EE8A6A84EDEA6AC4ED51
:10382000E96A27F09BFA7A19D4EDDC5AF0EE409A57
:10383000D4EDF16A87EA06038BEE250A05EE902A9D
:1038400094EDF07A88EA0505D4EDEE7A83EA482211
:10385000D4EDED4A6F4094EDEF4A83EA0803F8EEA9
:10386000E55A4FEA7555B0EE665AC4F8C873B0EE23
:10387000666AC4F8D45395EE895AA7EE276AC4E95C
:10388000F33225EE279AA5EE046AA4EE879AD6EEC7
:103890000A6A99EE0A7AC4EDF16A84EDF07A27F0AB
:1038A0005DFA69EE899ADFEDA96A9FEDB27AE9EED9
:1038B000A68AD4EDDF7AB4EEC70A77EEAA7AF1EEE3
:1038C00010FAC4EDE17A60EE287A02D5002384F87C
:1038D0008033D4EDDD6A94EDE27A67EEA67A67EE86
:1038E000877AF9E494EDD89A9FED9E0AB1EE49AA41
:1038F000D4EDD38A8AEE000A27F030FA9FED9A7A47
:10390000D4EDD69AD4EDD97A28EE877AF7EE006A0C
:10391000E7EE008A94EDD20A8AEE000AE8EEA97A70
:10392000F4EEE67AF1EE10FAA8BF77EEE67AC4ED8F
:10393000D97A27F013FA94EDD97ADFED8C7AF0EE8C
:10394000408A39EE299A27EE270A27F021FCDFED7D
:10395000887AF3EE0B6A9FED876A20EE277A84ED72
:10396000D89AB2EE025AF0EE665A67EE077AF4EE93
:10397000C68AE7EE855A77EEA67AF1EE10FA27EEC0
:10398000877AC7EE257A67EEA87A02D5002384F8F5
:103990005C33D4EDD46A94EDDA7A67EEA67A67EEFA
:1039A000877A89E4D4F82011D4F82C3194ED389A30
:1039B000CD18DFED679AD4E9492008EE905A00252A
:1039C00053404840FAEEE08A59404FEA7353C4F836
:1039D000201180EA42214240C4F82C31C4F8281159
:1039E000C4F8242107EE905AB0EE490ADFED596A77
:1039F000F8EEE77A9FED586AA7EEE60AB5EEC00A40
:103A0000F1EE10FA05DBB4EEC60AF1EE10FA00F1A1
:103A1000CE830135042DE5D1DFED507A94ED31AA46
:103A2000B4EEE79AF1EE10FA80F2D0839FED480AE7
:103A3000D4ED476AF6EE002A94ED406A38EEE65A75
:103A4000D4ED3F5A78EEC68A94ED3D7AB0EE463A10
:103A5000D4ED3C3AD4ED467A68EE874A94ED444A78
:103A6000A5EE873A94ED3E7A94ED432AE3EEA54A1B
:103A7000F0EE663AA8EE873AE7EE843A25EE047A4D
:103A800094ED454AA2EE277AE5EE043AB0EE004AFC
:103A900093EE046A9FED323AD7EE047AD4EE845A5C
:103AA000D3EE846AB3EE0B4AF2EE023AB0EE655AF8
:103AB000F0EE465AC4ED476AB0EE676A60EE077AE8
:103AC00084ED3F5A9FED255AC4ED405A67EEA27A25
:103AD00094ED367AF1EE002A84ED466AF0EE455A0E
:103AE000E9EEA47A39EE077AEAEE225AB0EE446A99
:103AF00084ED387A67EE837AB4EEE57A67EEA76AEA
:103B0000F1EE10FAA6EEA36A76EE846A66EEA76A74
:103B1000C6EE867A09DD9FED177AB4EEC70AF1EE9C
:103B200010FA02D5002384F8DC30D4ED346A94ED29
:103B3000397A67EEA67A67EE877AFFF746BB00BF51
:103B4000000000300AD7A33C17B7513ACDCCCC3E89
:103B500000000000F4FDD43B0AD7233BF4FDD43C25
:103B6000CDCC0C40A69B443C6666E63FDB0FC940CB
:103B7000CDCC8C3F6F12033A94EDCF9A1FED070A1C
:103B8000B1EE49AAD4EDCA8A8AEE000A27F0E6F817
:103B90001FED0B7AD4EDCD9AD4EDD07A28EE877A4A
:103BA000F7EE006AE7EE008A94EDC90A8AEE000A91
:103BB000E8EEA97AF4EEE67AF1EE10FAA8BF77EE15
:103BC000E67AC4EDD07A27F0C9F894EDD07A5FEDAB
:103BD000197AF0EE408A39EE299A27EE270A27F063
:103BE000D7FA5FED1D7AF3EE0B6A1FED1E6A20EE29
:103BF000277A84EDCF9AB2EE025AF0EE665A67EE5B
:103C0000077AF4EEC68AE7EE855A77EEA67AF1EEE9
:103C100010FA27EE877AC7EE257A67EEA87A02D5E2
:103C2000002384F83833D4EDCB6A94EDD17A67EE73
:103C3000A67A67EE877AFFF72FBB94EDC69A1FED41
:103C4000370AB1EE49AAD4EDC18A8AEE000A27F0FC
:103C500085F81FED3B7AD4EDC49AD4EDC77A28EEEF
:103C6000877AF7EE006AE7EE008A94EDC00A8AEEE2
:103C7000000AE8EEA97AF4EEE67AF1EE10FAA8BFAF
:103C800077EEE67AC4EDC77A27F068F894EDC77A44
:103C90005FED4A7AF0EE408A39EE299A27EE270A3C
:103CA00027F076FA5FED4E7AF3EE0B6A1FED4F6A5E
:103CB00020EE277A84EDC69AB2EE025AF0EE665AEA
:103CC00067EE077AF4EEC68AE7EE855A77EEA67AB3
:103CD000F1EE10FA27EE877AC7EE257A67EEA87A1A
:103CE00002D5002384F81433D4EDC26A94EDC87A67
:103CF00067EEA67A67EE877AFFF7BEBA94ED669A0A
:103D000004F5D473B94A04F5E071DFEDB96AF3EC58
:103D1000017AB7EE007AB2EC016AF6EE005AE6EEEE
:103D2000097ABFEE006AF4EEC77AF1EE10FAA8BF86
:103D300077EEC77AB7EE007AF4EEE57A43ED017AD2
:103D4000F1EE10FA54BFF0EE467AF0EE477A8B426D
:103D500076EEA76ADBD1D4F8C011F0EE004AD4F8B1
:103D6000CC319FEDA47ACA189FEDA35A66EE876AFC
:103D7000D4ED7A5A07EE902A9FEDA04A94ED796A25
:103D8000FAEEE07A94ED777AD4ED689A94ED763A8B
:103D900067EE857AD4ED782AB0EE655AD4ED753A9F
:103DA000B1EE690AE6EE847AD4ED7B6AA6EE075A94
:103DB00080EE260A37EEE54AF0EE456A24EE077AF1
:103DC000E4EE226AA3EE067AD4E97120D6EEA45A74
:103DD0005340484097EE246A5940E7EE637A4FEA31
:103DE0007353C4F8C01180EA42214240C4F8CC3178
:103DF000C4ED7A5A84ED796A77EEE68AC4E97121D6
:103E000026F0ACFFD4ED7C5A9FED7D6AF3EE0B6A91
:103E1000DFED7C7AB2EE025A9FED7B7A79EE899AD9
:103E2000E5EE867A9FED796AF0EE665AB4EEC60A40
:103E3000C4ED689AF1EE10FA67EEA87A67EE877A19
:103E400027EEA77AE7EE055A37EE267A27EE277A8D
:103E5000C7EE257A67EE807A02D5002384F89C317C
:103E6000D4ED7D6A94ED697A67EEA67A67EE877A7B
:103E7000FFF7CBB994ED4D9A04F5A2735B4A04F5B4
:103E8000AE71DFED5B6AF3EC017AB7EE007AB2EC6B
:103E9000016AF6EE005AE6EE097ABFEE006AF4EE29
:103EA000C77AF1EE10FAA8BF77EEC77AB7EE007ABC
:103EB000F4EEE57A43ED017AF1EE10FA54BFF0EE3C
:103EC000467AF0EE477A994276EEA76ADBD1D4F8CB
:103ED0005C11F0EE004AD4F868319FED467ACA18BA
:103EE0009FED455A66EE876AD4ED615A07EE902A37
:103EF0009FED424A94ED606AFAEEE07A94ED5E7AC4
:103F0000D4ED4F9A94ED5D3A67EE857AD4ED5F2A51
:103F1000B0EE655AD4ED5C3AB1EE690AE6EE847A09
:103F2000D4ED626AA6EE075A80EE260A37EEE54A1D
:103F3000F0EE456A24EE077AE4EE226AA3EE067AF2
:103F4000D4E95820D6EEA45A5340484097EE246A4C
:103F50005940E7EE637A4FEA7353C4F85C1180EA84
:103F600042214240C4F86831C4ED615A84ED606A70
:103F700077EEE68AC4E9582126F0F0FED4ED635AC4
:103F80009FED1F6AB0EE047ADFED1E7AF3EE0B6A46
:103F9000B2EE025AE5EE867A9FED1C6AF0EE665AA2
:103FA000B4EEC60A79EE899AF1EE10FA67EEA87AB5
:103FB000C4ED4F9A67EE877A27EEA77AE7EE055AA7
:103FC00037EE267A27EE277AC7EE257A67EE807AD3
:103FD00002D5002384F83831D4ED646A94ED507A28
:103FE00067EEA67A67EE877AFFF7FFB8A0DB0224B8
:103FF00000000000ABAA2A3ECDCC4C3D3333733FCA
:10400000CDCC4C3F9A99193FCDCC0C406F12033A5E
:1040100004F5976504F2CC43714A04F2E441D5ED0E
:10402000019ADFED706AF3EC017AB7EE007AB2EC38
:10403000016AB7EE00AAE6EE297AB6EE006AF4EE5F
:10404000C77AF1EE10FAA8BF77EEC77ABFEE007A12
:10405000F4EEC67A43ED017AF1EE10FA54BFF0EEB9
:10406000477AF0EE4A7A8B4276EEA76ADBD1D4F833
:10407000E404D4F8F024DFED5C7A83189FED5B6AEA
:1040800066EEA76ADFED5A2A07EE103A04F2F4430F
:10409000F0EE007AD4F8E864BAEEE07AD3ED065A8E
:1040A00093ED055A7240F0EE654AD3ED023A27EEE1
:1040B000067A93ED036A93ED043AE5EE064A93ED32
:1040C000014AA6EEA27AD4F8EC14D5ED03AA414039
:1040D00050404FEA7252B1EE6ABA95ED160AC4F832
:1040E000F02486EA010277EE656A81EA4621C4F887
:1040F000E4048BEE000AC4F8E824C4F8EC1426EEBD
:10410000866AE6EE834AA3EE856AD4EEA75A96EE57
:10411000275AA6EE447AC3ED065A83ED055A77EE88
:10412000648A26F01BFEDFED337AB0EE409A8BEE08
:10413000270A26F013FED5ED176ADFED2F7A9FEDE3
:104140002F7A9FED2F5AA6EEA77ADFED2E5AB3EE07
:104150000B6A7AEEA96AF2EE024AB4EEE59AC5ED70
:10416000036A7AEE407A27EE287AF1EE10FA27EE0B
:10417000057AB0EE465A67EE076AA6EEA45A76EEC6
:10418000866A66EE876A86EE857A27EE097A67EE9A
:10419000277A02D5002384F8C034D5ED186A95ED4E
:1041A000047A67EEA67A67EE877AFFF7A6B9B1EED2
:1041B000400ADFED157A80EE270A26F0CFFD79EE72
:1041C000809A26E4DFED077AFFF787B979EE677A00
:1041D000B1EE670A80EE0A0A26F0C0FD28E400BFAF
:1041E000A0DB022400000000ABAA2A3ECDCC4C3D4F
:1041F0003333733F0AD7233B9A99193FCDCCCC3E3A
:104200006666E63F52499D39A69BC43A90F82C3029
:1042100013B99FED7B0A704710B52DED0A8BD0EDD9
:104220000C8A044690ED018A90ED03AAB1EE689ADB
:1042300090ED020A28EE0AAA89EE000A26F08EFD09
:10424000D4ED0A9AD4ED0D7AAAEE008AB7EE007A80
:10425000E9EE887AF4EEC77AB0EE670AF1EE10FA6A
:10426000A8BF37EEC70ADFED677A84ED0D0A20EEAE
:10427000270A26F08DFFB6EE006A94ED0E7AF7EE6F
:10428000006AB0EE40AA9FED5F0A28EE068AA9EE0A
:10429000887AB4EEE67AF1EE10FAA8BF37EE667AC5
:1042A00027EE000A84ED0E7A26F072FFDFED567AD3
:1042B000F0EE40BAD4ED07CA89EE270A26F04EFD8B
:1042C000216EE36E94ED176ACA18D4ED166AF0EE0B
:1042D000467AD4ED144A05EE902AB0EE467A9FED68
:1042E0004B3AB0EE005AF8EEE55AD4ED153AE6EE48
:1042F000A47A94ED134A94ED008AB0EE40BA95EE9C
:10430000837A94ED04CA89EE080AE7EE237A27EE51
:10431000247AD4E91920A4EE267A5340484097EE37
:10432000856A59404FEA7353216680EA4221D7EEED
:10433000056A4240E3662BEE07BA84ED176AC4E9CA
:104340001921C4ED166A26F009FDF0EE047AF0EEAC
:1043500040AA28EE278A89EE080A26F0FFFC94ED91
:10436000107A94ED065AF0EE4A7AF7EE006AF1EE12
:10437000045AEBEEAC7A36EEC76AE5EE256A27EE14
:10438000007AEBEE0C7AA6EE2A7AF5EEC07A67EEAA
:10439000A67AF1EE10FA2ADDB3EE0B6AB2EE025AFB
:1043A00067EEA76AF0EE465A78EEA98AE6EE855ADD
:1043B00076EE866AC4ED0C8A66EEA76ADFED147AA3
:1043C000B4EEE77A86EEA50AF1EE10FA02D50023E4
:1043D00084F82C3020EE070A94ED087AD4ED0F7A99
:1043E00020EE070ABDEC0A8B20EE270A10BDF6EE80
:1043F000086AB3EE0B6AB2EE025A67EEA67ACFE70E
:1044000000000000DB0FC94017B7513A0000003030
:104410006F12033A90F8203013B99FED6B0A704782
:104420002DE9F0412DED088B90ED09AA044690EDA1
:10443000020AF1EE4A8A90ED018A9FED64BA88EE95
:10444000800A26F08BFCD4ED07AAD4ED0A7AB0EEF0
:10445000087AF7EE006A28EE077AA7EE008AEAEEFD
:10446000887AF4EEE67AB0EE670AF1EE10FAA8BFA9
:1044700037EEE60ADFED567A84ED0A0A20EE270AC7
:1044800026F086FE9FED537AB0EE408A88EE870ACA
:1044900026F064FCE76CA56D94ED127A7B19D4EDDF
:1044A000117AB0EE475A94ED0F9A06EE103AF0EEFC
:1044B000476AD4ED0E4AF0EE005AB8EEC66A94EDA3
:1044C000104AE7EE896AD4ED04BAF0EE409A9FED07
:1044D000420A96EE0B5A88EE800A25EE099AE5EE1E
:1044E000046AA4EEA79AD4E9146396EEA57A7540FF
:1044F0007B40D9EE257A6F404FEA755586EA03086E
:1045000083EA462684ED127AC4ED117A26F026FC61
:104510007A19B0EE407A94ED000A87EA060388EA39
:10452000050588EE800A08EE902A6F4083EA48224B
:104530004FEA755583EA0803D4ED037AE764F8EE91
:10454000E88AA565C4E9143268EE8B8A68EE878A2A
:1045500068EEA78A26F002FC69EE899A9FED1F7A21
:10456000DFED1F7AF3EE0B6AB2EE025A9FED1D6A81
:10457000A9EEAB8AF0EE665AB4EEC60A3AEE2AAA63
:10458000F1EE10FAA8EE878A84ED09AA68EE277A80
:1045900027EEA77AE7EE055A37EE267A27EE277A36
:1045A000C7EE257A67EE807A02D5002384F82030A2
:1045B000D4ED056A94ED0B7A27EEA60ABDEC088BC4
:1045C00020EE070ABDE8F081000000000000003086
:1045D000DB0FC9406F12833B17B7513A9A99993E46
:1045E0003333B33F6F12033AB7EE007ADFEDC47A8C
:1045F000002300F2844270B52DED068B87EE00AAF1
:10460000DFEDC08A82ED000A044680ED090A80F8D9
:104610002C3060EE288AB0EE408AF4EEE78AF1EEA4
:1046200010FA80ED0AAA40F164819FEDB70A28EEE6
:10463000800A78EE089A80EE290A26F0D1F9DFED9B
:10464000B37A84ED110A04F15C01C4ED127AB04A28
:10465000F7EE006A70EE277AB0EE666AA0EE276A7F
:1046600086EE867A60EE077A84ED137A20EE270ACA
:10467000C4ED147A84ED150AA2F1C342A54EA64DED
:10468000A2F59102A548A2F2476282EA1243824251
:1046900006FB03F383EA533305FB03F383EA134377
:1046A00041F8043FE8D1DFED9E7A002384ED218AB2
:1046B000F4EEE78A84ED22AA84F88C30F1EE10FA49
:1046C00040F114819FED900A28EE800A80EE290ABD
:1046D00026F086F904F1B801924A84ED280AF7EE33
:1046E000007AB0EE409A30EE277AC4ED297AF0EEE7
:1046F000676AE0EE076A87EEA67A60EE077A84EDD5
:104700002A7A20EE277AC4ED2B7A84ED2C7AA2F156
:10471000C342804E804DA2F591028348A2F24762C7
:1047200082EA1243824206FB03F383EA533305FB1A
:1047300003F383EA134341F8043FE8D1002304F56F
:1047400092717A4A84ED378A84ED38AA84F8E4308D
:10475000A2F1C3426F4E704DA2F591027448A2F2CD
:10476000476282EA1243824206FB03F383EA533331
:1047700005FB03F383EA134341F8043FE8D1DFED7F
:104780006D7A002384ED4E8AF4EEE78A84ED4FAA19
:1047900084F84031F1EE10FA40F1AE809FED5A0AF4
:1047A00028EE800A80EE290A26F01AF9DFED627AF7
:1047B00084ED5D0A04F5B071C4ED5E7A5F4AF7EEF0
:1047C000006A70EE277AB0EE666AA0EE276A86EE7F
:1047D000867A60EE077A84ED5F7A20EE270AC4EDD0
:1047E000607A84ED610AA2F1C3424A4E4A4DA2F5B5
:1047F00091025348A2F2476282EA1243824206FBC8
:1048000003F383EA533305FB03F383EA134341F8CD
:10481000043FE8D1DFED4B7A002384ED678AF4EEA4
:10482000E78A84ED68AA84F8A431F1EE10FA5AD52B
:104830009FED350A28EE800A80EE290A26F0D0F88E
:10484000DFED3D7A84ED760A04F5E271C4ED777A06
:104850003A4AF7EE006A70EE277AB0EE666AA0EE8A
:10486000276A86EE867A60EE077A84ED787A20EE03
:10487000270AC4ED797A84ED7A0AA2F1C342254E63
:10488000254DA2F591022E48A2F2476282EA124318
:10489000824206FB03F383EA533305FB03F383EA07
:1048A000134341F8043FE8D1B1EE0C7A94ED810A4C
:1048B000F2EE047A002384ED868A20EE070A84ED66
:1048C00087AA84F82032B4EEE70AF1EE10FA47D452
:1048D000B4EEE80AF1EE10FA40F3B9829FED0A0A4D
:1048E00028EE800A3EE09FED180AA5E79FED170A23
:1048F000ECE69FED170A9CE69FED160A52E700BF13
:1049000000007A4548E1FA3EDB0FC940E4388E3FAB
:1049100001D09B906BCAEB8535AEB2C2E5B6790982
:104920000040B545015E0909E544E781010C09092C
:10493000E5F2E6810000FA454FECC43F01AA0909FF
:10494000E590E7810000E145EFB630477A5A0E471F
:104950007C59C4467C594447D2537B426EDB363F78
:104960001FED030A80EE290A26F03AF85FED057A7A
:1049700084ED8C0A04F51271C4ED8D7A514AF7EE7C
:10498000006A70EE277AB0EE666AA0EE276A86EEBD
:10499000867A60EE077A84ED8E7A20EE270AC4EDDF
:1049A0008F7A84ED900AA2F1C342474E474DA2F59B
:1049B00091024748A2F2476282EA1243824206FB12
:1049C00003F383EA533305FB03F383EA134341F80C
:1049D000043FE8D1B1EE0C7A94ED980AF2EE047A35
:1049E000002384ED9D8A20EE070A84ED9EAA84F8B8
:1049F0007C32B4EEE70AF1EE10FA0AD4B4EEE80A1B
:104A0000F1EE10FA40F31E829FED320A28EE800A82
:104A100001E09FED310A80EE290A25F0E1FFDFED8C
:104A20002F7A84EDA30A04F52971C4EDA47A254AEE
:104A3000F7EE006A70EE277AB0EE666AA0EE276A9B
:104A400086EE867A60EE077A84EDA57A20EE270A54
:104A5000C4EDA67A84EDA70AA2F1C3421A4E1B4DFB
:104A6000A2F591021A48A2F2476282EA12438242F8
:104A700006FB03F383EA533305FB03F383EA134393
:104A800041F8043FE8D1B1EE0C7A94EDAF0AF2EEB2
:104A9000047A002384EDB48A20EE070A84EDB5AAD7
:104AA00084F8D832B4EEE70AF1EE10FA18D4B4EE76
:104AB000E80AF1EE10FA40F3C0819FED060A28EEF5
:104AC000800A0FE0010A09096BCAEB8535AEB2C254
:104AD000E5F0E681DB0FC940D2537B426EDB363F07
:104AE0001FED030A80EE290A25F07AFF5FED057AB3
:104AF00084EDBA0A04F54071C4EDBB7AD64AF7EEEC
:104B0000006A70EE277AB0EE666AA0EE276A86EE3B
:104B1000867A60EE077A84EDBC7A20EE270AC4ED2F
:104B2000BD7A84EDBE0AA2F1C342CC4ECC4DA2F5B3
:104B30009102CC48A2F2476282EA1243824206FB0B
:104B400003F383EA533305FB03F383EA134341F88A
:104B5000043FE8D1DFEDC47A002384EDC58AF4EE8A
:104B6000E78A84EDC6AA84F81C33F1EE10FA40F10E
:104B70005C819FEDBE0A28EE800A80EE290A25F0AE
:104B80002FFFDFEDBB7A84EDD40A04F54F71C4ED3D
:104B9000D57AB84AF7EE006A70EE277AB0EE666A08
:104BA000A0EE276A86EE867A60EE077A84EDD67AE2
:104BB00020EE270AC4EDD77A84EDD80AA2F1C342C9
:104BC000A64EA74DA2F59102AB48A2F2476282EA37
:104BD0001243824206FB03F383EA533305FB03F3DC
:104BE00083EA134341F8043FE8D1DFEDA47AF4EE01
:104BF000E78AF1EE10FA40F115819FED9C0A28EE4C
:104C0000800A80EE290A25F0EBFE9FED997A84ED6B
:104C1000E00A002384EDF87A04F5727184EDF79AC6
:104C2000F7EE007A934A79EE075A84EDE88AF4EEBB
:104C3000006A84EDE9AAB0EE675A84F8A83330EE32
:104C4000266AC4EDE16AA9EE255AF0EE675AE0EE55
:104C5000065A87EE856AC7EEA56A29EE067A84EDC4
:104C6000F96A29EE079A84EDFA7A60EE267AC4EDA5
:104C7000E26A84EDFB9A20EE270AC4EDE37A84ED24
:104C8000E40AA2F1C342754E754DA2F591027A482D
:104C9000A2F2476282EA1243824206FB03F383EAEE
:104CA000533305FB03F383EA134341F8043FE8D190
:104CB000DFED737AF4EEE78AF1EE10FA59D59FED45
:104CC0006B0A28EE800A80EE290A25F089FE9FED06
:104CD0006D7A04F5816304F584616B4A83ED017A92
:104CE000F7EE007A83ED000A30EE076AF0EE676AAD
:104CF000E0EE066A87EEA67A60EE077A83ED027A26
:104D000020EE270AC3ED037A83ED040AA2F1C34221
:104D1000524E534DA2F591025C48A2F2476282EADC
:104D20001243824206FB03F383EA533305FB03F38A
:104D300083EA134341F8043FE8D104F23443F2EE2E
:104D4000047A002293ED010A83ED038AB4EEE70AA8
:104D500083ED04AA84F84824F1EE10FA0CD4B4EEE2
:104D6000E80AF1EE10FA63DD9FED400A28EE800AB2
:104D700004E09FED470AA6E79FED460A80EE290A68
:104D800025F02EFE9FED447A04F58B6304F58E61C9
:104D9000424A83ED017AF7EE007A83ED000A30EEA5
:104DA000076AF0EE676AE0EE066A87EEA67A60EEC2
:104DB000077A83ED027A20EE270AC3ED037A83EDAA
:104DC000040AA2F1C342254E254DA2F591023448B2
:104DD000A2F2476282EA1243824206FB03F383EAAD
:104DE000533305FB03F383EA134341F8043FE8D14F
:104DF00004F5926304F2BC414FF07E5243F8042B59
:104E00009942F9D1002304F59162264804F28C44BA
:104E100023634B60C1F80730002310602360BDECB2
:104E2000068B70BD9FED200AEBE69FED200AA4E6FD
:104E3000DFED0E7A20EE270AA0E7DFED0C7A20EEF8
:104E4000270A4FE6DFED097A20EE270AE3E5DFEDDA
:104E5000077A20EE270A85E5010A09096BCAEB8566
:104E600035AEB2C2E5F0E6810020CB45DB0FC9408C
:104E70004FECC43F01AA0909E590E78100007544A1
:104E800000A00C465555D53F02CA0909E6B0E78196
:104E9000ABE45C47D2537B42ABAA2A3E01EA090944
:104EA000E5D0E7819A99593F2D6CC045B5881F47D9
:104EB000B5EEC00A38B5F1EE10FA04462DED048BBC
:104EC00000F1C780F7EE007AB4EE670AF1EE10FA4F
:104ED00037FE808A0A2900F2B980DFE811F0390133
:104EE0009F010B001D026802B1020A037703D00381
:104EF0002204BD0094ED356AF0EE005ADFEDB67A7B
:104F0000F0EE086A9FEDB50A28EE087AB7EE009A2F
:104F10000122A6EE270A0023E8EE656A94ED345AD2
:104F2000B2EE046AD4ED377AF1EE085ADFEDB99AA1
:104F300084F8E42067EEA99AC4F8E830B4EEC60A13
:104F400027EE267AA5EE259AF1EE10FAB0EE408A09
:104F500084ED3B7A00F16184B4EEE90A9FEDAE0A7C
:104F6000F1EE10FACCBF29EE800A28EE000A77EEA7
:104F7000A78A80EE280A25F033FD84ED3C0AF6EE80
:104F8000007AB4EEE79AF1EE10FA00F15484DFED06
:104F9000947AB4EEE79AF1EE10FA00F35684F7EE45
:104FA000007A87EE897A84ED3D7ADFED8E5AF7EE4E
:104FB000007A30EE075AF2EE046AB0EE676A28EE25
:104FC000258AA0EE056AB4EEE68AF1EE10FA87EEC5
:104FD000867A60EE077A84ED3E7A20EE270AC4EDE9
:104FE0003F7A84ED400A00F12284B4EEE98AF1EEC2
:104FF00010FA40F324849FED888A29EE880A80EE17
:10500000280A25F0EDFCDFED787A84ED430A0023D1
:10501000C4ED447AC4F80831F7EE006AC4F80431EC
:1050200070EE277AC4F82431C4F82031B0EE666AF5
:10503000A0EE276A86EE867A60EE077A84ED457ADE
:1050400020EE270AC4ED467A84ED470ABDEC048BB6
:1050500038BD9FED668A3DE7B0EE007A04F2344336
:10506000F0EE086A4FF07E52B2EE046A93ED010A48
:1050700068EE087A0120E8EE476A0021B4EEC60A1D
:1050800084F8480493ED037A9961F1EE10FA1A62FC
:1050900027EEA68A83ED078A00F1C683DFED5D7AED
:1050A00067EE277AB4EEE70AF1EE10FACCBF9FED77
:1050B0005A0ADFED597A20EE270A37EE077A4C4D6F
:1050C00080EE070A25F08CFC9FED4A7ADFED4A6AF4
:1050D00004F58B630021494A83ED017A04F58E645F
:1050E000F7EE007A996130EE076A596128EE268A58
:1050F00083ED000AF0EE676ABCEEC88AE0EE066A4D
:1051000018EE101A514087EEA67A0A460D4460EE5A
:10511000077A83ED027A20EE270AC3ED037A83ED46
:10512000040AA2F1C34236483649A2F59102A2F21E
:10513000476282EA1243AA4200FB03F383EA533335
:1051400001FB03F383EA134344F8043FE9D17DE70D
:10515000B0EE006ADFED2C7AF0EE086A002328EE4C
:10516000087A2A4AF6EE005A2363E8EE466A636339
:10517000A3630121E365A36594ED056A1C4D27EE49
:10518000267A84F82C1026EE256A04F15C0167EE7D
:10519000277A84ED0F7A84ED106AFCEEE77A17EE39
:1051A000903A53401A461D44A2F1C342144C15488C
:1051B000A2F59102A2F2476282EA1243AA4204FBDC
:1051C00003F383EA533300FB03F383EA134341F809
:1051D000043FE9D13AE700BF00007A450000E1440E
:1051E00000002042CDCC0C3F4FEC443F00000000BB
:1051F000E4E6DD78ABAA2A3E00E4404601EA09096C
:105200006BCAEB8535AEB2C200FF7F4701D09B90E1
:105210000000004248E1FA3EDB0FC940B0EE005A00
:10522000D4ED1F7AF0EE086A5FED075AB2EE046A19
:10523000002367EEA57A0122E8EE456A94ED210A83
:1052400028EE087AC4F89030F4EEC67AC4F89830A4
:1052500084F88C20C4F89430F1EE10FA27EE267A08
:1052600084ED277A00F1DD821FED167A20EE077AB1
:10527000F4EEC77AF1EE10FACCBF5FED197A1FEDAC
:105280001A7A67EE877A30EE000AC64D87EE800AFA
:1052900025F0A6FBDFEDC47A0023C44A84ED280A7A
:1052A00004F1B801C4F8B830B7EE007AC4F8B430ED
:1052B00068EE277A70EE076A84ED297AB0EE476AC5
:1052C000FCEEE77AA0EE266A17EE903A53401A46B3
:1052D0001D44C7EE066A60EE267AC4ED2A6A20EE07
:1052E000270AC4ED2B7A84ED2C0AA2F1C342B04CFC
:1052F000B048A2F59102A2F2476282EA1243AA42A2
:1053000004FB03F383EA533300FB03F383EA134301
:1053100041F8043FE9D199E6B0EE006ADFEDAA7AE0
:10532000F0EE086A002328EE087AA34A012184F8E7
:10533000A431E8EE466AC4F84C31C4F85031C4F8E0
:105340005431C4F85831C4F85C31C4F8603127EEE8
:10535000267A944D84F84011002167EE277AC4F82C
:105360004411C4F88C11C4F8881104F5B071FCEE36
:10537000E77A84ED527A17EE903A53401A461D446C
:10538000A2F1C3428A4C8B48A2F59102A2F2476275
:1053900082EA1243AA4204FB03F383EA533300FB7D
:1053A00003F383EA134341F8043FE9D14EE6B0EE3C
:1053B000006ADFED857AF0EE086A002328EE087AAD
:1053C0007D4AC4F8B0310021E8EE466AC4F8B43131
:1053D000C4F8B8310120C4F8BC31C4F8C031C4F8F5
:1053E000C431704D27EE267AC4F8A811C4F8F01124
:1053F000C4F8EC1104F5E27167EE277A84F8A40191
:1054000084ED6B7AFCEEE77A17EE903A53401A4639
:105410001D44A2F1C342664C6648A2F59102A2F275
:10542000476282EA1243AA4204FB03F383EA53333E
:1054300000FB03F383EA134341F8043FE9D105E697
:10544000B0EE005AD4ED817AF0EE086A0023F1EE56
:105450000C5A0122B2EE046A94ED860AE8EE456A1F
:10546000C4F8243267EEA57AC4F8283228EE087A08
:1054700084F82022F4EEC67A27EE267AF1EE10FAAE
:1054800084ED8B7A00F1C6819FED4C7A20EE077A8D
:10549000F4EEC77AF1EE10FACCBFDFED497A9FED5A
:1054A000487A67EE877A30EE000A87EE800A25F0A8
:1054B00097FADFED447A84ED8C0A0023C4ED8D7AEF
:1054C000C4F84832F7EE006AC4F8443270EE277A26
:1054D000B0EE666AA0EE276A86EE867A60EE077AFC
:1054E00084ED8E7A20EE270AC4ED8F7A84ED900A3F
:1054F000ACE5B0EE005AD4ED987AF0EE086A0023DD
:10550000F1EE0C5A0122B2EE046A94ED9D0AE8EE27
:10551000456AC4F8803267EEA57AC4F8843228EE72
:10552000087A84F87C22F4EEC67A27EE267AF1EE29
:1055300010FA84EDA27A00F16A819FED207A20EEC4
:10554000077AF4EEC77AF1EE10FACCBFDFED1C7AE1
:105550009FED1B7A67EE877A30EE000A87EE800AAD
:1055600025F03EFADFED177A84EDA30A0023C4ED9F
:10557000A47AC4F8A432F7EE006AC4F8A03270EE40
:10558000277AB0EE666AA0EE276A86EE867A60EE2B
:10559000077A84EDA57A20EE270AC4EDA67A84ED79
:1055A000A70A53E5E4E6DD7800B88E45015E0909F7
:1055B0006BCAEB8535AEB2C201AA090948E1FA3ED1
:1055C000DB0FC9406EDB363F00FF7F47B0EE005A6D
:1055D000D4EDAF7AF0EE086A0023F1EE0C5A012206
:1055E000B2EE046A94EDB40AE8EE456AC4F8DC321F
:1055F00067EEA57AC4F8E03228EE087A84F8D8225B
:10560000F4EEC67A27EE267AF1EE10FA84EDB97A36
:1056100000F1FA801FED177A20EE077AF4EEC77AD0
:10562000F1EE10FACCBF5FED1A7A1FED1B7A67EE30
:10563000877A30EE000A87EE800A25F0D1F95FED17
:105640001F7A84EDBA0A0023C4EDBB7AC4F8003394
:10565000F7EE006AC4F8FC3270EE277AB0EE666AA4
:10566000A0EE276A86EE867A60EE077A84EDBC7A31
:1056700020EE270AC4EDBD7A84EDBE0AE6E4B0EE62
:10568000006A5FED2F7AF0EE086A002328EE087AB0
:10569000704AC4F828330021E8EE466AC4F82C3377
:1056A000C4F830330120C4F83433C4F83833C4F8B4
:1056B0003C33694D27EE267AC4F82013C4F86813EA
:1056C000C4F8641304F54F7167EE277A84F81C035D
:1056D00084EDC97AFCEEE77A17EE903A53401A4609
:1056E0001D44A2F1C3425D48A2F59102A2F24762B5
:1056F00082EA1243AA4200FB03F3594883EA533378
:1057000000FB03F383EA134341F8043FE9D100238C
:105710004FF07E52C4F89833C4F89433C4F89C23F5
:1057200094E4B0EE006A9FED4F7AF0EE086A002331
:1057300068EE087A474AC4F8B4330021E8EE466AB6
:10574000C4F8B833C4F8BC330120C4F8C033C4F87B
:10575000C433C4F8C833404D67EEA67AC4F8AC131E
:10576000C4F8F413C4F8F01304F5727127EE877AC5
:1057700084F8A803C4EDEC7ABCEEC77A17EE103AB1
:1057800053401A461D44A2F1C3423448A2F5910287
:10579000A2F2476282EA1243AA4200FB03F33048B6
:1057A00083EA533300FB03F383EA134341F8043FD6
:1057B000E9D19FED2D7A04F5816300212B4A67EE34
:1057C000877A254D996104F584645961FCEEE77A86
:1057D00017EE903A53401A461D44A2F1C3421F48A7
:1057E0001F49A2F59102A2F2476282EA1243AA423D
:1057F00000FB03F383EA533301FB03F383EA134310
:1058000044F8043FE9D121E4DFED197A11E7DFED37
:10581000187AA1E6DFED167A45E69FED150AFFF747
:10582000A6BBDFED137A2EE59FED110A45E49FED4F
:10583000100AFFF7E4BBB0EE007AFFF7B4BBDFED70
:105840000D7A28EE270AFFF7DABB9FED0B7AFFF7F8
:10585000AABB00BF01AA0909E4E6DD786BCAEB85A3
:1058600035AEB2C200FF7F4700D2F44602CA090932
:10587000D2537B42DB0FC940CDCCCC3CF8B50446BB
:105880002DED0A8BFEF7C2FC94F8BC34002B40F0DF
:105890008E8104F592639FEDCD8AD3ED007A94F862
:1058A0008C30A0EE278A002B00F0888194ED229A9C
:1058B000F7EE007AD4ED1F8A94ED250AA8EE890A46
:1058C000B4EEE70AF1EE10FAA8BF30EE670ADFED9A
:1058D000C07A84ED250A20EE270A25F059FCDFED79
:1058E000BD6AD4ED267AB7EE007A68EEA68AF0EEAD
:1058F000409A9FEDB70AE9EE287AF4EEC77AF1EE06
:1059000010FAA8BF77EEC77A27EE800AC4ED267A90
:1059100025F03EFC94ED1CAAD4ED24AAF0EE408ABA
:10592000DFEDAD7AB1EE6ABA2AEE270A8BEE000AF5
:1059300025F014FADFEDA96A9FEDAE7A68EEA68A2B
:10594000F0EE407A8BEE0A0A94ED1DAAE9EE878A02
:1059500067EEA88A25F002FAD4F8BC10F0EE003AFF
:10596000D4F8C83039EE2A9AD4ED2E7ACD1894EDB9
:105970002D6AF0EE675AD4ED2B4A05EE105AF0EE80
:10598000676A9FED974AB8EEC55AD4ED2C1AE6EE39
:10599000245A94ED2A3A94ED297AD5EE046A94EDCE
:1059A0001E2ADFED902A84ED249AD4E93020E6EE19
:1059B000A15A534066EEA46A4840F3EE0B4A5940A0
:1059C0004FEA7353E3EE066AC4F8BC10B2EE023A33
:1059D00080EA4221D5EEA37A4240C4F8C830C4E937
:1059E000302196EEA36AC4ED2E7A67EE667ADFED7B
:1059F000806AE5EE047A84ED2D6AB0EE646AB4EE56
:105A0000E60AF1EE10FA77EEE57A67EE807A67EE55
:105A1000827A67EEA27AE8EE8A7A77EEA77A27EEA4
:105A2000A77AA7EE036A37EE247A27EE277AC7EE25
:105A3000067A00F1C680D4ED206A94ED277A67EEED
:105A4000A67A67EE877A94F8BD342BB904F29443B2
:105A500093ED007AA7EE278A94F8E430002B40F00B
:105A60001B85DFED5A7A94F8BE342BB904F59363A5
:105A700093ED007AA7EE278A94F84031002B40F08E
:105A80004F84DFED527A94F8BF342BB904F29C4373
:105A900093ED007AA7EE278A94F8A431002B40F00A
:105AA0006683DFED4A7A94F8C0342BB904F5946329
:105AB00093ED007AA7EE278A04F50070FEF7AAFCA2
:105AC00094F8C1342BB904F2A443D3ED007AA0EECC
:105AD000278A04F51770FEF79DFC94F8C2342BB9A1
