:020000042400D6
:1000000000000220410A0024350A00246134012442
:10001000350A0024350A0024350A002400000000B7
:10002000000000000000000000000000350A00246D
:10003000350A002400000000350A0024E5330124BD
:10004000350A0024350A0024350A0024350A002424
:10005000350A0024350A0024350A0024350A002414
:10006000350A0024350A0024350A0024FD1B01242A
:10007000091C0124350A0024151C0124211C01241B
:10008000312D0124050C0124350A0024350A0024F1
:10009000350A0024350A0024350A0024350A0024D4
:1000A000350A0024350A0024350A0024350A0024C4
:1000B000F1EB0124FDEB012409EC0124390C0124AE
:1000C000350A0024450C0124350A002491E401245A
:1000D0009DE40124412B0124712B0124A92B01242F
:1000E000350A0024350A002400000000350A0024E7
:1000F000350A0024350A0024350A0024350A002474
:10010000350A00245D01022415EC0124A9E4012430
:10011000E12B0124192C0124350A0024350A00247E
:10012000350A0024350A0024CDE4012401E5012428
:10013000652D0124350A0024350A0024350A0024DF
:1001400000000000000000000000000000000000AF
:10015000350A0024350A0024350A0024512C0124D4
:10016000510C0124350A0024F533012419340124EB
:10017000350A00243D340124350A0024350A0024C0
:10018000350A0024350A0024892C0124C12C0124BD
:10019000B5E40124C1E40124350A0024350A002411
:1001A000350A0024350A0024350A0024350A0024C3
:1001B0003D180124350A0024350A0024350A00249C
:1001C000350A0024350A0024E9040124F504012439
:1001D000350A002401050124350A0024350A0024CB
:1001E000350A0024350A0024350A0024350A002483
:1001F000350A0024350A0024350A0024350A002473
:10020000350A0024350A0024350A0024350A002462
:10021000350A0024350A0024350A0024350A002452
:10022000350A0024350A0024350A002400000000A5
:10023000350A0024350A002400000000350A002495
:10024000350A0024350A0024350A0024350A002422
:10025000350A0024350A0024350A0024350A002412
:10026000350A0024350A0024350A0024350A002402
:10027000350A0024350A0024F92C0124000000006E
:10028000350A0024350A0024350A00240000000045
:0802900000000000350A002403
:1002A00010B5054C237833B9044B13B10448AFF3B0
:1002B00000800123237010BD78150020000000008D
:1002C0005432022408B5034B1BB103490348AFF372
:1002D000008008BD000000007C150020543202247C
:1002E000034613F8012B002AFBD1181A0138704776
:1002F00001F0FF01102A2BDB10F0070F08D010F8D7
:10030000013B013A8B422DD010F0070F42B3F6D1DA
:10031000F0B441EA012141EA014122F007047FF0F3
:1003200000070023F0E80256083C85EA010586EA4A
:10033000010685FA47F5A3FA87F586FA47F6A5FA86
:1003400087F68EB9EED1F0BC01F0FF0102F0070292
:1003500032B110F8013B013A83EA010313B1F8D13D
:100360000020704701387047002D06BF354603381E
:10037000073815F0010F07D1013015F4807F02BF57
:10038000013015F4C03F0130F0BC0138704700BFA8
:1003900081F0004102E000BF83F0004330B54FEA36
:1003A00041044FEA430594EA050F08BF90EA020FA3
:1003B0001FBF54EA000C55EA020C7FEA645C7FEA36
:1003C000655C00F0E2804FEA5454D4EB5555B8BF59
:1003D0006D420CDD2C4480EA020281EA030382EACA
:1003E000000083EA010180EA020281EA0303362D5C
:1003F00088BF30BD11F0004F4FEA01314FF4801C2F
:100400004CEA113102D0404261EB410113F0004F40
:100410004FEA03334CEA133302D0524263EB4303F7
:1004200094EA050F00F0A780A4F10104D5F1200E95
:100430000DDB02FA0EFC22FA05F2801841F10001F0
:1004400003FA0EF2801843FA05F359410EE0A5F1C4
:1004500020050EF1200E012A03FA0EFC28BF4CF0F5
:10046000020C43FA05F3C01851EBE37101F00045AB
:1004700007D54FF0000EDCF1000C7EEB00006EEBB8
:100480000101B1F5801F1BD3B1F5001F0CD3490842
:100490005FEA30004FEA3C0C04F101044FEA445299
:1004A00012F5800F80F09A80BCF1004F08BF5FEA20
:1004B000500C50F1000041EB045141EA050130BD00
:1004C0005FEA4C0C404141EB0101013C28BFB1F512
:1004D000801FE9D291F0000F04BF01460020B1FA5D
:1004E00081F308BF2033A3F10B03B3F120020CDA30
:1004F0000C3208DD02F1140CC2F10C0201FA0CF00E
:1005000021FA02F10CE002F11402D8BFC2F1200C72
:1005100001FA02F120FA0CFCDCBF41EA0C01904028
:10052000E41AA2BF01EB0451294330BD6FEA040471
:100530001F3C1CDA0C340EDC04F11404C4F120025C
:1005400020FA04F001FA02F340EA030021FA04F36E
:1005500045EA030130BDC4F10C04C4F1200220FAC5
:1005600002F001FA04F340EA0300294630BD21FA03
:1005700004F0294630BD94F0000F83F4801306BFC9
:1005800081F480110134013D4EE77FEA645C18BFBD
:100590007FEA655C29D094EA050F08BF90EA020F54
:1005A00005D054EA000C04BF1946104630BD91EA4C
:1005B000030F1EBF0021002030BD5FEA545C05D14F
:1005C0004000494128BF41F0004130BD14F580048E
:1005D0003CBF01F5801130BD01F0004545F0FE4102
:1005E00041F470014FF0000030BD7FEA645C1ABF37
:1005F000194610467FEA655C1CBF0B46024650EA6E
:10060000013406BF52EA033591EA030F41F4002199
:1006100030BD00BF90F0000F04BF0021704730B51F
:100620004FF4806404F132044FF000054FF00001F4
:1006300050E700BF90F0000F04BF0021704730B5B5
:100640004FF4806404F1320410F0004548BF40428A
:100650004FF000013EE700BF42004FEAE2014FEADF
:1006600031014FEA02701FBF12F07F4393F07F4FBA
:1006700081F06051704732F07F4208BF704793F0BD
:100680007F4F04BF41F40021704730B54FF46074D0
:1006900001F0004521F000411CE700BF50EA0102D3
:1006A00008BF704730B54FF000050AE050EA01027C
:1006B00008BF704730B511F0004502D5404261EBEC
:1006C00041014FF4806404F132045FEA915C3FF42D
:1006D000D8AE4FF003025FEADC0C18BF03325FEACA
:1006E000DC0C18BF033202EBDC02C2F1200300FA7B
:1006F00003FC20FA02F001FA03FE40EA0E0021FAA0
:1007000002F11444BDE600BF53B94AB9002908BF3D
:1007100000281CBF4FF0FF314FF0FF3000F088B9C8
:10072000ADF1080C6DE904CE00F006F8DDF804E048
:10073000DDE9022304B070472DE9F047089D8E469D
:1007400004468846002B4AD18A42174662D9B2FA3B
:1007500082F64EB1C6F1200301FA06F820FA03F33F
:10076000B74043EA0808B4404FEA174E1FFA87FC27
:10077000B8FBFEF1230C0EFB118843EA084301FB92
:100780000CF29A4209D9FB1801F1FF3080F0EA809F
:100790009A4240F2E78002393B449A1AA3B2B2FB74
:1007A000FEF00EFB102243EA024300FB0CFC9C45CA
:1007B00009D9FB1800F1FF3280F0D6809C4540F249
:1007C000D3803B44023840EA0140A3EB0C030021F4
:1007D0001DB1F3400022C5E90032BDE8F0878B422D
:1007E00005D90DB1C5E9000100210846F5E7B3FAC6
:1007F00083F1002946D1734502D3824200F205817C
:10080000841A6EEB030201209046002DE5D0C5E965
:100810000048E2E7002A00F09080B2FA82F6002E4B
:1008200040F0A4808A1A030C4FEA174E80B2BCB283
:100830000121B2FBFEFC0EFB1C2243EA024304FB37
:100840000CF29A4207D9FB180CF1FF3802D29A42F7
:1008500000F2E080C4469B1AB3FBFEF20EFB12339B
:1008600040EA034302FB04F49C4207D9FB1802F15F
:10087000FF3002D29C4200F2CA8002461B1B42EAB1
:100880000C40A5E7C1F120068B4022FA06F71F4372
:100890000EFA01F420FA06F32EFA06FE4FEA174983
:1008A000234300FA01F81FFA87FCBEFBF9F01C0C89
:1008B00009FB10EE44EA0E4400FB0CFEA64502FACA
:1008C00001F209D93C1900F1FF3A80F09C80A6455D
:1008D00040F2998002383C44A4EB0E041FFA83FED8
:1008E000B4FBF9F309FB13444EEA044403FB0CFC8C
:1008F000A44508D93C1903F1FF3E80F08280A4454D
:100900007FD9023B3C4443EA0040A4EB0C04A0FB2B
:1009100002EC64457346E14662D35FD05DB1B8EB4B
:10092000030264EB090404FA06F622FA01F31E43FB
:10093000CC40C5E9006400214FE7B1FBF2FC010C9B
:1009400041EA0E4180B240EA01423B4638463C460D
:10095000B846BE462026B1FBF7F1A2EB080241EAF9
:100960000C4166E7014618E710462CE7C6F1200265
:100970002EFA02F3B740B14020FA02F24FEA174EC6
:100980000A43B3FBFEF8BCB20EFB1833110C41EA6C
:10099000034108FB04F9B04089454FEA104380B297
:1009A0003ED9791808F1FF3C01D289451FD8A1EB47
:1009B0000901B1FBFEF909FB04F80EFB191192B213
:1009C00042EA0142424529D2BA1809F1FF31C4D2A4
:1009D0004245C2D2A9F102013A44BEE7F0459DD298
:1009E000BEEB02036CEB070C0138E14696E7A7EB80
:1009F00009094944A8F1020CB1FBFEF909FB04F80E
:100A0000DBE773467FE7504666E70846FDE63B4472
:100A1000023A33E7ACF1020C3B441CE749469CE741
:100A2000A1EB0901C446B1FBFEF909FB04F8C4E7D8
:100A3000704700BF684620F007018D46FEE700BF03
:100A40000A480B4A904208B503D0121A094921F00E
:100A500033FA0948094A904203D0121A002121F0C2
:100A6000B7F921F003FA09F089F9FEE70000002048
:100A7000781500209032022478150020B86A0020F2
:100A8000704700BF704700BF704700BF704700BF8E
:100A9000704700BF704700BF704700BF704700BF7E
:100AA00070B5174D1C46164613465A224FF6FF7E68
:100AB00068702A70A2196C80A98013F8010B4FF09E
:100AC000080C80EA0E0E4EF300010E480CF1FF3CBC
:100AD00008401CF0FF0C80B280EA5E0EF3D1934216
:100AE000EBD12246314608480834A5F806E021F04B
:100AF000E3F906490122064B0C801A7070BD00BF55
:100B00000000003001A0FFFF08000030E0300020AE
:100B1000E23000202DE9F04F224E83B08146884616
:100B2000019314463378072B09D91F4A13780133F0
:100B300003F0070313703378013BDBB233701B4FB4
:100B400020221B4D002197F800C005EB4C105FFAE6
:100B50008CFB4FEA4C1A21F03BF90023220A0AF1E0
:100B6000080069F307030199284468F30F2364F32D
:100B70001743240C62F31F634FEA4B12AB5005EB93
:100B80004B1517222C7121F047F93B78013303F004
:100B900007033B7033780133DBB2337003B0BDE839
:100BA000F08F00BFDC1C0020DD1C0020DE1C0020BC
:100BB000E01C0020172901D9002070472DE9F04FD3
:100BC000ADF2644D0D46012201468DA80DF046FBA5
:100BD00020B100200DF2644DBDE8F08F01AB2C2256
:100BE00002A98DA80DF03AFC50B9019B2B2B07D917
:100BF000704B029A9A4203D16F4B049A9A4203D0E7
:100C00008DA80DF05FFDE4E70C218DA8BDF81E90C6
:100C1000BDF82A600DF0BEFD909B083B0C2BEFD970
:100C20000C2711E0019A072AEAD90D9A8DA80E9C8B
:100C30009A4213D09299214408340DF0ABFD909B59
:100C40002744083BBB42DBD901AB08220DA98DA884
:100C50000DF004FC594B0028E4D0D1E7002CCFD094
:100C6000F70809FB07F7002FCAD0554BB4FBF7F87C
:100C7000984528BF9846102E1BD1B9F1010F18D105
:100C8000504B4FEA480250498DA801FB053101AB9A
:100C90000DF0E4FB019C4D4B640843F82540003CFB
:100CA0004B4E8DA818BF012474550DF00BFD705DDF
:100CB00090E7BC427BD3424B002403FB05FAA8EB30
:100CC000040201AB0DA98DA807FB02F2B2F5007F6B
:100CD00028BF4FF400720DF0C1FB002863D1019BC7
:100CE000002B60D0A045B3FBF7FC5CD9BB4258D3C6
:100CF0006FF0004333490DAA5344234401EB4301F1
:100D00000DE0182E1AD0082E2AD00023013001340D
:100D10003A4421F8023F844543D9A04543D9102ED7
:100D2000EFD1B9F1020FB2F90030EFD1B2F902E020
:100D30001EEB030323D443F34F03E7E75378B9F1E2
:100D4000020F92F800E04FEA034343EA0E2392F8C1
:100D500002E043EA0E634FEA234312D01BB2D5E709
:100D60001378B9F1020FA3F180034FEA0323F5D101
:100D700092F801E0AEF1800E13EB0E23DBD50133C8
:100D8000D9E792F804E092F803B04FEA0E4E4EEA2B
:100D90000B2E92F805B04EEA0B6E13EB2E43CAD51C
:100DA000EDE7A0458BD8094B43F8254077E70024B1
:100DB000F9E700BF524946465741564564617461A0
:100DC0000077010034B01EC000EE02008030002029
:100DD00008300020F2EE0E7A08B52DED028BF7EE0A
:100DE000008AB0EE608AE0EEA78A28EE800A032827
:100DF00023D8DFE800F0392F2002B7EE006AFFEEBB
:100E0000006AB0EE007AB4EEC60AF0EE667AF8EE4A
:100E1000005AF1EE10FA06DD37EE400AB4EEE70AAA
:100E2000F1EE10FA04D4B4EEE60AF1EE10FA04D5AD
:100E300035EEC00AE1E720F00BF9C0EE287AB6EEF5
:100E4000007AB7EE000AA8EE070ABDEC028B27EE87
:100E5000800A08BDFFEE007AB4EEE70AF1EE10FA60
:100E60001BD5B0EE670AE8E7F7EE087AB4EEE70ABA
:100E7000F1EE10FA1ADCFFEE087AB4EEE70AF1EEB2
:100E800010FA16D460EE007AF1EE0B6A67EE807A03
:100E900087EEA67A30EE470ACFE7F7EE007AB4EE97
:100EA000670AF1EE10FA37FE800AC6E7B7EE000ACD
:100EB000C3E7BFEE000AC0E730B5172885B0CDE91B
:100EC0000112039369D8574B1B5C002B65D0564C1D
:100ED0000023A446224602E00133202B7AD0117869
:100EE00018320029F8D1DDED017AFFEE005A9DEDB0
:100EF000027ADDED036AF8EEE77AB8EEC77A9FED85
:100F00004B6AF8EEE66ADFED4A4A4A4A87EE065A2D
:100F1000494902EB8002494C01EB800187EEA47A3B
:100F2000C6EE867A92ED006AD1ED006A54F8201080
:100F3000840027EE057A27EE267A77EE867AF4EE9D
:100F4000E57AF1EE10FA2AD5DFED3D7A67EE277AE1
:100F500003EB43023B4D0CEBC20E2D5C8EF80100FF
:100F600001200CF8320003FA00F24DB3013906EE0D
:100F7000901AF8EE666A34491344344821440CEB65
:100F8000C30302680968C3ED016A9960511C83EDCF
:100F9000037AC3ED047A5A61016005B030BDF7EE03
:100FA000006AF4EEE67AF1EE10FA0CDCF5EEC07AA7
:100FB000F1EE10FA23D577EEA67A67EE877AC7E7C7
:100FC000DFED1F6AD7E7DFED1E6AF0EE477A27EE06
:100FD000267ABDE74FF0000E4FF0FF3273460AE06D
:100FE00061691834914238BF9E4603F1010338BF4E
:100FF0000A46202B14D061788142F1D173E736EE96
:10100000E76A26EE076A04DDF0EE477AB0EE467A2C
:101010009EE777EEA67A67EE877AB0EE467A97E794
:10102000734660E708300020082D00200000C84209
:101030000000FE4258240020A42C00208030002014
:1010400000000000602B0020002B0020042D002059
:10105000037F002B00F0C28090ED090AF7EE007AC2
:1010600010B52DED0C8BD0ED069A044690ED038A59
:10107000B7EE00AAA8EE290AB4EEE70AF1EE10FADC
:10108000A8BF30EE670ADFED577A80ED090A20EE3F
:10109000270A20F089FBDFED546AD4ED0A7AB7EE17
:1010A000007A28EE268AF0EE408A9FED4E0AE9EE9D
:1010B000887A9FED4E8AF4EEC77AF1EE10FAA8BF57
:1010C00077EEC77A27EE800AC4ED0A7A20F06CFB2F
:1010D00094ED08BA94ED00CAB0EE409AF1EE4BCA16
:1010E0002CEE080A8CEE800A20F044F9DFED406A0D
:1010F00094ED057ADFED3F7A236BC6EE87AA94ED77
:1011000001DA83EA433383EA534329EE279A83EAD9
:1011100043132363A8EE889A08EE103ABAEEE08AE9
:1011200029EE009AB0EE6A0A20F03EFBF0EE087A53
:10113000B0EE407AD4ED0EBAB0EE6A0AC7EE27AA36
:1011400020F0F6FB94ED0D7A9FED2B6ADFED2B6A14
:1011500084ED0E7A70EE007A84ED0D8A8CEE8C0AA6
:101160006AEEEB8A7AEE8ADA3AEE6AAAEAEE888AC0
:10117000E7EE878AF0EE687AEBEECA7AC7EEAD8AC0
:1011800068EE868AE8EE268A20F0F4F894ED027A7A
:10119000F7EE087AB0EE408A79EE8B9A68EE808A94
:1011A00068EE878AE9EE0D8A28EEA70A1FF050FF45
:1011B000DFED137AC4ED089AB4EEE78AF1EE10FA87
:1011C00001D50023237794ED047AD4ED0B7A20EE39
:1011D000070ABDEC0C8B20EE270A10BD9FED090A13
:1011E000704700BFDB0FC940BE9FEA3F9A99193F85
:1011F000DB6FF546CDCCCC3E3333333F9A99993EE5
:101200006F12833A0000000038B5037D2DED068B88
:10121000002B00F0B280036A044690ED068A002598
:1012200083EA4333DFED578A83EA534383EA431368
:101230000AEE103A0362BAEEE0AA07EE905AB0EE58
:10124000480A9FED517AF8EEE77AA7EEC70AB5EEA5
:10125000C00AF1EE10FA04DBB4EEC70AF1EE10FAA0
:1012600069D40135042DE8D19FED480AD4ED009AE8
:10127000B4EEC08AF1EE10FA74DAD4ED015A9FEDA3
:10128000446ADFED447ADFED446AE5EE867A94ED58
:10129000037A67EEA67AC7EE87AAB0EE6A0A20F054
:1012A00083FAB0EE409AB0EE6A0A20F041FBB5EE48
:1012B000007AF7EE005A94ED0A5A70EE007AD4EDF7
:1012C000094A29EE070AC4ED0A4A30EE254A20EE03
:1012D000456A35EEC07AC5EE846AA0EE0A6A67EE0A
:1012E000A67A27EE267A67EEA47AE6EE267AE5EE6F
:1012F000477A28EEA70AC4ED097A30EE000A1FF0FB
:10130000A7FE94ED047ADFED257A38EE078A79EEB0
:10131000A79A84ED068AB4EEE98AF1EE10FA17DC9A
:1013200094ED027AD4ED077A20EE070ABDEC068B25
:1013300020EE270A38BDB1EE400ADFED197A80EEC3
:10134000270A20F017F8F6EE007AE0EE278A88E701
:10135000DFED147AF4EEE78AF1EE10FAE0D500231F
:101360002375DDE738EE400AB1EE400A80EE290A27
:1013700020F000F878EE808A7FE7BDEC068B9FEDC9
:10138000010A38BD000000004260E53B4260E53CD8
:1013900000803B4500009644DB0FC940CDCC4C3D5E
:1013A0006F12033B6F12833A0F2939D8DFE811F02F
:1013B0003900530072008F00BB00E400FE001801EA
:1013C00032014C01660180019901B501D001100084
:1013D000DFEDDE7A0123B4EEE70A80F8A832C0ED33
:1013E000AB7AF1EE10FA00F1FB81F7EE007AB4EE81
:1013F000670AF1EE10FA37FE800A002380EDAC0A8E
:10140000C0F8B432C0F8B832C0F8BC32C0F8C0324C
:10141000C0F8C432C0F8C832C0F8D432C0F8D032F4
:101420007047DFEDCA7A0123B4EEE70AC0ED097A0E
:1014300080F82030C0ED0A7AF1EE10FA00F1CD818B
:10144000F7EE007AB4EE670AF1EE10FA37FE800A82
:1014500080ED0B0A7047DFEDBD7A0123B4EEE70A99
:10146000C0ED147A80F84C30C0ED157AF1EE10FA28
:10147000C0ED167A00F1AE81F7EE007AB4EE670A9D
:10148000F1EE10FA37FE800A002380ED170A83661A
:1014900043667047DFEDAD7A0123B4EEE70A80F8CA
:1014A0008030C0ED217AF1EE10FA00F19081F7EE74
:1014B000007AB4EE670AF1EE10FA37FE800A0023D4
:1014C00080ED220AC0F89430C0F890307047DFED0C
:1014D0009F7A00220123B4EEE70A80F8E42080F826
:1014E000A030C0ED297AF1EE10FA00F16D81F7EE2F
:1014F000007AB4EE670AF1EE10FA37FE800A002394
:1015000080ED2A0AC0F8AC30C0F8B030C0F8B43072
:10151000C0F8B830C0F8BC30C0F8C030C0F8CC302B
:10152000C0F8C8307047DFED897A0123B4EEE70ACE
:1015300080F8E430C0ED3A7AF1EE10FA00F1418122
:10154000F7EE007AB4EE670AF1EE10FA37FE800A81
:10155000002380ED3B0AC0F8F030C0F8F430C0F84A
:10156000F830C0F8FC30C0F80031C0F80431C0F8E1
:101570001031C0F80C317047DFED747A0123B4EEFE
:10158000E70AC0ED4F7A80F83831C0ED507AF1EEBD
:1015900010FA00F11381F7EE007AB4EE670AF1EE6B
:1015A00010FA37FE800A80ED510A7047DFED677A46
:1015B0000123B4EEE70AC0ED597A80F86031C0ED3E
:1015C0005A7AF1EE10FA00F1F680F7EE007AB4EEF6
:1015D000670AF1EE10FA37FE800A80ED5B0A704769
:1015E000DFED5A7A0123B4EEE70AC0ED637A80F8A2
:1015F0008831C0ED647AF1EE10FA00F1D980F7EE8F
:10160000007AB4EE670AF1EE10FA37FE800A80ED38
:10161000650A7047DFED4D7A0123B4EEE70AC0EDAD
:101620006C7A80F8AC31C0ED6D7AF1EE10FA00F111
:10163000BC80F7EE007AB4EE670AF1EE10FA37FEDE
:10164000800A80ED6E0A7047DFED407A0123B4EE28
:10165000E70AC0ED757A80F8D031C0ED767AF1EE08
:1016600010FA00F19F80F7EE007AB4EE670AF1EE0F
:1016700010FA37FE800A80ED770A7047DFED337A83
:101680000123B4EEE70AC0ED7E7A80F8F431C0EDB4
:101690007F7AF1EE10FA00F18280F7EE007AB4EE74
:1016A000670AF1EE10FA37FE800A80ED800A704773
:1016B000DFED267A0123B4EEE70AC0ED877A80F8E1
:1016C0001832C0ED887AF1EE10FA65D4F7EE007AA0
:1016D000B4EE670AF1EE10FA37FE800A80ED890A4F
:1016E0007047DFED1A7A0123B4EEE70A80F83C3246
:1016F000C0ED907AF1EE10FA4BD4F7EE007AB4EE2A
:10170000670AF1EE10FA37FE800A002380ED910A95
:10171000C0F85032C0F84C327047DFED0C7A01232C
:10172000B4EEE70AC0ED9B7A80F86832C0ED9C7A8F
:10173000F1EE10FA2AD4F7EE007AB4EE670AF1EE71
:1017400010FA37FE800A80ED9D0A70470000000005
:101750005FED027A0123B4EEE70AC0EDA47A80F8C7
:101760008C32C0EDA57AF1EE10FAC0EDA67A0AD45B
:10177000F7EE007AB4EE670AF1EE10FA37FE800A4F
:1017800080EDA70A7047B0EE670AF9E7B0EE670A86
:10179000D9E7B0EE670AB8E7B0EE670A9EE7B0EEA9
:1017A000670A82E7B0EE670A65E7B0EE670A48E7C6
:1017B000B0EE670A2BE7B0EE670A0EE7B0EE670AF5
:1017C000F1E6B0EE670AC3E6B0EE670A97E6B0EE60
:1017D000670A74E6B0EE670A56E6B0EE670A37E6C7
:1017E000B0EE670A09E600BF38B590F8203004462D
:1017F0002DED088B002B40F0E185DFEDA68A04F18A
:101800003000FFF725FC04F16C0030EE288AFFF76A
:10181000FBFC94F8A03038EE008A002B40F04585A0
:10182000DFED9C7A94F8E43038EE278A002B40F004
:10183000B384DFED987A94F8383138EE278A002B9C
:1018400040F05784DFED937A94F8603138EE278AC0
:10185000002B40F0FB83DFED8F7A94F8883138EE6F
:10186000278A002B40F0A083DFED8A7A94F8AC3110
:1018700038EE278A002B40F04383DFED867A94F818
:10188000D03138EE278A002B40F0C882DFED817A14
:1018900094F8F43138EE278A002B40F06282DFEDB5
:1018A0007D7A94F8183238EE278A002B00F0B38244
:1018B00094ED827AF7EE007A94ED859A94ED880A99
:1018C000A7EE090AB4EEE70AF1EE10FAA8BF30EE6F
:1018D000670ADFED6D7A84ED880A20EE270A1FF093
:1018E00063FFD4ED879AF0EE408AD4ED817AB1EEB1
:1018F000690A80EE270A1FF03DFD9FED657AB4EE80
:10190000C70A39EE299A68EE807AF1EE10FA84ED72
:10191000879A00F1AA80D4ED836A94ED897A67EE04
:10192000A67A67EE877A94F83C3238EE278A002B45
:1019300040F0C481DFED577A94F8683238EE278A98
:10194000002B40F0A980DFED537A94F88C3238EE0A
:10195000278A002B00F00F81D4EDA29AF7EE007ACF
:1019600094EDA57AF6EE005ADFED426AFFEE008AAA
:101970009FED416AA9EEA67AD4EDA4AAF7EE006A1B
:101980009FED3E0AB1EE6A9A89EE000AB4EEE77A5C
:10199000F1EE10FAA8BF37EE677AD4EDA67AE9EE39
:1019A000867AB4EEE57A84EDA57ABFEE006AB7EEEA
:1019B000007AF1EE10FAF4EEE67A48BFF0EE668AAD
:1019C000F1EE10FAA8BF77EEE67AF6EE006AC4ED03
:1019D000A67AF4EEE67AF1EE10FA58BFB0EE467A47
:1019E00078EE878A68EEA68A1FF0C4FCB0EE40AAA3
:1019F00094ED9F0A89EE000A1FF0BCFCDFED206A1F
:101A00003AEE40AAB0EE407AF7EE087AB0EE409A8D
:101A1000AAEE267A79EEAA9A68EE878A28EEA70AB5
:101A20001FF016FBDFED1A7AC4EDA49AB4EEE79A24
:101A3000F1EE10FA15D494EDA07AD4EDA77A20EE49
:101A4000070A94F8A83220EE270A38EE008A002B05
:101A500040F09A809FED0F0A38EE000ABDEC088B2B
:101A600038BD002384F88C32E5E7002384F818326F
:101A700051E700BF0000074400004844A69B443BD8
:101A80009A99993E17B7513ADB0FC9406666E63F0F
:101A90006F12833A00000000D4F87832D4ED9B9A9C
:101AA00083EA43331FED090AB1EE699A83EA53438F
:101AB00083EA431589EE000AC4F8785208EE905A7A
:101AC0001FF058FC94ED99BA94ED967AD4ED9C7A77
:101AD000FAEEE08AF6EE006AE7EE0B7AB7EE007AED
:101AE00068EE808AB0EE40AA1FED190A68EEA68A59
:101AF000F4EEC77AF1EE10FAA8BF77EEC77A27EEB8
:101B0000800AC4ED9C7A1FF04FFED4ED957AF0EE7A
:101B100040AA89EE270A1FF02DFC5FED247AEAEE39
:101B2000808AB0EE409A79EE8B9A28EEA70A1FF0D1
:101B30008FFA1FED297AF0EE407AC4ED9B9AB4EE4D
:101B4000C79AF1EE10FA07D5B4EEC7AAF1EE10FA73
:101B500002D5002384F86832D4ED976A94ED9D7A1B
:101B600067EEA67A94F88C3267EE877A38EE278A89
:101B7000002B7FF4F1AE1FED390A94F8A83238EE4D
:101B8000008A002B3FF466AFD4EDA99A04F52D73BB
:101B9000CC4A04F53371DFEDCC6AF3EC017AB7EE91
:101BA000007AB2EC016AB7EE009AE6EE297AB6EE58
:101BB000006AF4EEC77AF1EE10FAA8BF77EEC77AA2
:101BC000BFEE007AF4EEC67A43ED017AF1EE10FA38
:101BD00054BFF0EE477AF0EE497A994276EEA76A62
:101BE000DBD1B1EE086AD4F8CC329FEDB87A83EA43
:101BF0004333DFEDB75AC6EE867AD4EDB58A83EA71
:101C0000534394EDB46AD4EDABAA83EA431394ED45
:101C1000B60A39EE875AC4F8CC32B1EE6ABAC7EECA
:101C2000056A07EE103ABAEEE07A8BEE000AE7EEAC
:101C3000257A77EEA88AC4EDB47A78EEC68A68EE83
:101C4000A68AC4EDB58A1FF095FBDFEDA27AB0EE4F
:101C500040AA8BEE270A1FF08DFB94EDB76ADFEDEB
:101C60009E6A9FED9E7A79EE407A9FED9D0AA6EEE0
:101C7000267A68EE8A8A7AEEA9AA67EEA87A67EED3
:101C8000877A27EE800A1FF0E3F9DFED967AC4ED3C
:101C9000ABAAB4EEE7AAF1EE10FA02D5002384F85D
:101CA000A83294EDB87AD4EDAC7A20EE070A20EE93
:101CB000270A38EE000ABDEC088B38BD94ED8B7A0C
:101CC000B7EE006ADFED887AD4ED909AE7EE277AD6
:101CD000DFED885AB1EE690A94ED8A7AD4F8483279
:101CE000D4ED948A80EE070A83EA4333D4ED936AF5
:101CF00083EA534394ED8E9A83EA431367EEA57A01
:101D0000C4F8483286EE277A07EE903AFAEEE07A87
:101D100077EEA88AC4ED937A78EEE68A77EE096AC0
:101D2000C7EE267A68EEA78AC4ED948A1FF022FBDC
:101D30009FED727A39EE299AB4EEC70A68EE807A7E
:101D400084ED909AF1EE10FA02D5002384F83C322B
:101D5000D4ED8C6A94ED917A67EEA67A67EE877A75
:101D6000EAE594ED7E9A9FED610AF1EE49AAD4ED81
:101D7000798A8AEE800A1FF0FDFA94ED7CAAD4EDF0
:101D80007F7AB7EE087AF7EE006A28EE877AE7EEF8
:101D9000008AE8EE8A7AF4EEE67AB0EE670AF1EEAF
:101DA00010FAA8BF37EEE60ADFED527A84ED7F0A1B
:101DB00020EE270A1FF0F8FCD4ED787AF0EE409A76
:101DC0008AEEA70A1FF0D6FADFED497AF0EE408AD4
:101DD00029EEA70A1FF03CF99FED487A39EE0A9ADE
:101DE000F4EEC78A68EE807A84ED7E9AF1EE10FAFE
:101DF00002D5002384F8F431D4ED7A6A94ED807A28
:101E000067EEA67A94F8183267EE877A38EE278A5A
:101E1000002B7FF44DADDFED2C7A84E594ED759ABF
:101E20009FED320AF1EE49AAD4ED708A8AEE800A5B
:101E30001FF0A0FA94ED73AAD4ED767AB7EE087A83
:101E4000F7EE006A28EE877AE7EE008AE8EE8A7AF3
:101E5000F4EEE67AB0EE670AF1EE10FAA8BF37EEBC
:101E6000E60ADFED247A84ED760A20EE270A1FF0D9
:101E70009BFCD4ED6F7AF0EE409A8AEEA70A1FF031
:101E800079FADFED1B7AF0EE408A29EEA70A1FF0FF
:101E9000DFF89FED1A7A39EE0A9AF4EEC78A68EEF7
:101EA000807A84ED759AF1EE10FA02D5002384F859
:101EB000D031D4ED716A94ED777A67EEA67A67EE49
:101EC000877AE5E42C27022400000000C583DE3772
:101ED0009A99193E6F12033B9A99193FCDCCCC3E8B
:101EE0006666E63F6F12033A00409C458FC2753C20
:101EF000CDCC8C3FDB0FC9409A99993F6F12833A42
:101F000094ED6C9A1FED070AF1EE49AAD4ED678AA9
:101F10008AEE800A1FF02EFA94ED6AAAD4ED6D7A4B
:101F2000B7EE087AF7EE006A28EE877AE7EE008AC5
:101F3000E8EE8A7AF4EEE67AB0EE670AF1EE10FA8D
:101F4000A8BF37EEE60A5FED157A84ED6D0A20EE44
:101F5000270A1FF029FCD4ED667AF0EE409A8AEE4B
:101F6000A70A1FF007FA5FED1E7AF0EE408A29EE0D
:101F7000A70A1FF06DF81FED1F7A39EE0A9AF4EEEA
:101F8000C78A68EE807A84ED6C9AF1EE10FA02D579
:101F9000002384F8AC31D4ED686A94ED6E7A67EE74
:101FA000A67A67EE877A6AE494ED639A94ED5E0A06
:101FB000F1EE49AAD4ED5D8A8AEE800A1FF0DAF9C3
:101FC00094ED61AAD4ED647A78EEA86AB7EE007A4F
:101FD000E6EE808AE8EE8A7AF4EEC77AB0EE670A17
:101FE000F1EE10FAA8BF37EEC70A5FED3E7A84ED36
:101FF000640A20EE270A1FF0D7FBD4ED5C7AF0EEDE
:10200000409A8AEEA70A1FF0B5F95FED457AF0EE27
:10201000408A29EEA70A1FF01BF81FED487A39EE17
:102020000A9AF4EEC78A68EE807A84ED639AF1EE3C
:1020300010FA02D5002384F88831D4ED5F6A94ED5C
:10204000657A67EEA67A67EE877A0FE494ED599A7F
:1020500094ED540AF1EE49AAD4ED538A8AEE800A2F
:102060001FF088F994ED57AAD4ED5A7A78EEA86A51
:10207000B7EE007AE6EE808AE8EE8A7AF4EEC77A66
:10208000B0EE670AF1EE10FAA8BF37EEC70A5FEDAF
:10209000677A84ED5A0A20EE270A1FF085FBD4EDFB
:1020A000527AF0EE409A8AEEA70A1FF063F95FEDCC
:1020B0006E7AF0EE408A29EEA70A1EF0C9FF1FEDE6
:1020C000717A39EE0A9AF4EEC78A68EE807A84ED66
:1020D000599AF1EE10FA02D5002384F86031D4ED5C
:1020E000556A94ED5B7A67EEA67A67EE877AFFF71A
:1020F000B4BB94ED4F9A94ED4A0AF1EE49AAD4ED9F
:10210000498A8AEE800A1FF035F994ED4DAAD4ED84
:10211000507A78EEA86AB7EE007AE6EE808AE8EEAA
:102120008A7AF4EEC77AB0EE670AF1EE10FAA8BF29
:1021300037EEC70A5FED917A84ED500A20EE270A48
:102140001FF032FBD4ED487AF0EE409A8AEEA70AEF
:102150001FF010F95FED987AF0EE408A29EEA70A99
:102160001EF076FF1FED9B7A39EE0A9AF4EEC78ACD
:1021700068EE807A84ED4F9AF1EE10FA02D50023D2
:1021800084F83831D4ED4B6A94ED517A67EEA67A33
:1021900067EE877AFFF758BBD4ED389A04F1F00365
:1021A000C04A04F58471DFEDC06AF3EC017AB7EE42
:1021B000007AB2EC016AF6EE008AE6EE297ABFEE0A
:1021C000006AF4EEC77AF1EE10FAA8BF77EEC77A8C
:1021D000B7EE007AF4EEE87A43ED017AF1EE10FA08
:1021E00054BFF0EE467AF0EE477A994276EEA76A4F
:1021F000DBD1B1EE086AD4F808319FEDAC7A83EAFE
:102200004333DFEDAB5AC6EE867A94ED449A83EA07
:10221000534394ED436AD4ED3AAA83EA431394ED11
:10222000455A79EE874AC4F80831B1EE6A0AC7EE1A
:10223000246A07EE103ABAEEE07A80EE050AE7EE7D
:10224000257A37EE899AC4ED437A39EE469A29EE1B
:10225000269A84ED449A1FF08DF8D4ED467A29EE43
:10226000009AE7EEA88AB0EE40AA7AEEA9AA29EE73
:10227000280A30EE000A1EF0EBFE9FED8E7AF0EE9B
:10228000407AC4ED3AAAB4EEC7AAF1EE10FA02D52C
:10229000002384F8E430D4ED476A94ED3B7A67EE8E
:1022A000A67A67EE877AFFF7C6BAD4ED279A04F1CB
:1022B000AC037C4A04F1C401DFED7B6AF3EC017AE4
:1022C000B7EE007AB2EC016AF6EE008AE6EE297A01
:1022D000BFEE006AF4EEC77AF1EE10FAA8BF77EE0F
:1022E000C77AB7EE007AF4EEE87A43ED017AF1EEC0
:1022F00010FA54BFF0EE467AF0EE477A994276EE45
:10230000A76ADBD1B1EE086AD4F8C4309FED677AD2
:1023100083EA4333DFED665AC6EE867A94ED339A4C
:1023200083EA534394ED326AD4ED29AA83EA431336
:1023300094ED345A79EE874AC4F8C430B1EE6A0A93
:10234000C7EE246A07EE103ABAEEE07A80EE050A8C
:10235000E7EE257A37EE899AC4ED327A39EE469A5D
:1023600029EE269A84ED339A1FF004F8D4ED357ADD
:1023700029EE009AE7EEA88AB0EE40AA7AEEA9AA62
:1023800029EE280A30EE000A1EF062FE9FED497A1F
:10239000F0EE407AC4ED29AAB4EEC7AAF1EE10FA25
:1023A00002D5002384F8A030D4ED366A94ED2A7A61
:1023B00067EEA67A67EE877AFFF734BAD0ED098A1E
:1023C00090ED020AB1EE68AA90ED018A8AEE000A49
:1023D0001EF0D0FFD4ED07AAD4ED0A7AB2EE007A4F
:1023E000F7EE006A28EE077AA7EE008AE8EE2A7A6E
:1023F000F4EEE67AB0EE670AF1EE10FAA8BF37EE17
:10240000E60ADFED2D7A84ED0A0A20EE270A1FF096
:10241000CBF9D4ED037AB0EE409A8AEE270A1EF08B
:10242000A9FFDFED267AB0EE408A28EEA70A1FF05A
:10243000BBF9D4ED007AF0EE409A8AEE270A1EF03E
:1024400099FFDFED1F5A94ED046A68EE297AF0EEE9
:10245000086AB7EE007AA7EEA59AB0EE408AA6EE1B
:10246000267A78EEAA8A29EE070A1EF0F1FDDFED42
:10247000117AC4ED098AB4EEE78AF1EE10FA02D5BA
:10248000002384F8203028EE008A94ED057AD4EDFC
:102490000B7ADFED058A28EE078AE8EE278AFFF738
:1024A000AEB900BF2C27022400000000C583DE3730
:1024B0009A99193E6F12833ADB0FC940959EEB45FE
:1024C0009A99993E38B5037D2DED068B002B00F0CF
:1024D000B780036A054690ED068A002483EA4333F9
:1024E000DFED5A8A83EA534383EA431309EE903AB5
:1024F0000362FAEEE09A02E00134062C22D007EEE5
:10250000904AB0EE480A9FED527AF8EEE77AA7EECD
:10251000C70AB5EEC00AF1EE10FAEDDBB4EEC70A59
:10252000F1EE10FAE8D5B1EE400ADFED4A7A013457
:1025300080EE270A1EF01EFFDFED477A062CE0EE44
:10254000278ADCD1DFED457A95ED009AB4EEE78A73
:10255000F1EE10FA69DAD5ED015A9FED416ADFED2F
:10256000417ADFED416AE5EE867A95ED037A67EE12
:10257000A67AC7EE87AAB0EE6A0A1FF015F9B0EE88
:1025800040AAB0EE6A0A1FF0D3F9F1EE046AB7EE82
:10259000005AD5ED0A4A70EE007A95ED094A8AEEA6
:1025A000267A85ED0A4AF0EE043A37EE053A67EEF0
:1025B000645A75EE476A85EE036AE7EE295A67EEBC
:1025C000867A26EE867A67EE847AE5EE867AE4EEFF
:1025D000C77A28EEA70AC5ED097A20EE230A1EF075
:1025E00037FD95ED047ADFED217A38EE078A39EE72
:1025F000279A85ED068AB4EEC98AF1EE10FA0ADC54
:1026000095ED027AD5ED077A20EE070ABDEC068B30
:1026100020EE270A38BDDFED167AF4EEE78AF1EEF8
:1026200010FAEDD500232B75EAE778EE677AB1EE64
:10263000670A80EE090A1EF09DFE78EE808A8AE71E
:10264000BDEC068B9FED010A38BD00BF0000000005
:102650000AD7A33BA69BC43ACDCCCC3E8FC2F53C57
:1026600000007A450000E144DB0FC9408FC2753D90
:102670006F12833A0A2925D8DFE811F025003F00C0
:102680005E007B00A700D000EA0003011C014401AA
:102690000B00DFEDC17A0123B4EEE70AC0ED917AB9
:1026A00080F84032C0ED927AF1EE10FA00F17081BC
:1026B000F7EE007AB4EE670AF1EE10FA37FE800A00
:1026C00080ED930A7047DFEDB47A0123B4EEE70A98
:1026D000C0ED097A80F82030C0ED0A7AF1EE10FAE8
:1026E00000F15381F7EE007AB4EE670AF1EE10FACA
:1026F00037FE800A80ED0B0A7047DFEDA77A0123D1
:10270000B4EEE70AC0ED147A80F84C30C0ED167ACA
:10271000F1EE10FAC0ED157A00F13481F7EE007A8F
:10272000B4EE670AF1EE10FA37FE800A002380ED5E
:10273000170A836643667047DFED977A0123B4EE8C
:10274000E70A80F88030C0ED217AF1EE10FA00F14E
:102750001681F7EE007AB4EE670AF1EE10FA37FE52
:10276000800A002380ED220AC0F89430C0F890302F
:102770007047DFED897A00220123B4EEE70A80F882
:10278000E42080F8A030C0ED297AF1EE10FA00F1D3
:10279000F380F7EE007AB4EE670AF1EE10FA37FE36
:1027A000800A002380ED2A0AC0F8AC30C0F8B030AF
:1027B000C0F8B430C0F8B830C0F8BC30C0F8C03091
:1027C000C0F8CC30C0F8C8307047DFED737A012311
:1027D000B4EEE70A80F8E430C0ED3A7AF1EE10FA90
:1027E00000F1C780F7EE007AB4EE670AF1EE10FA56
:1027F00037FE800A002380ED3B0AC0F8F030C0F8B5
:10280000F430C0F8F830C0F8FC30C0F80031C0F83F
:102810000431C0F81031C0F80C317047DFED5E7A3A
:102820000123B4EEE70AC0ED507A80F83C31C0EDE8
:10283000517AF1EE10FA00F19980F7EE007AB4EED9
:10284000670AF1EE10FA37FE800A80ED520A7047EF
:10285000DFED517A0123B4EEE70AC0ED5B7A80F830
:102860006831C0ED5C7AF1EE10FA7CD4F7EE007AB4
:10287000B4EE670AF1EE10FA37FE800A80ED5D0AC9
:102880007047DFED457A0123B4EEE70AC0ED667AC2
:1028900080F89431C0ED677AF1EE10FA60D4F7EE6B
:1028A000007AB4EE670AF1EE10FA37FE800A80ED86
:1028B000680A7047DFED387A0123B4EEE70A80F842
:1028C000AC31C0ED6C7AF1EE10FA46D4F7EE007A36
:1028D000B4EE670AF1EE10FA37FE800A002380EDAD
:1028E0006D0AC0F8B831C0F8BC31C0F8C031C0F8CA
:1028F000C431C0F8C831C0F8CC31C0F8D831C0F804
:10290000D4317047DFED247A0123B4EEE70A80F872
:10291000F031C0ED7D7AF1EE10FA1BD4F7EE007ABB
:10292000B4EE670AF1EE10FA37FE800A002380ED5C
:102930007E0AC0F8FC31C0F80032C0F80432C0F89A
:102940000832C0F80C32C0F81032C0F81C32C0F89F
:1029500018327047B0EE670AE8E7B0EE670ABDE7E5
:10296000B0EE670AA3E7B0EE670A87E7B0EE670A42
:102970006BE7B0EE670A3DE7B0EE670A11E7B0EE2D
:10298000670AEEE6B0EE670AD0E6B0EE670AB1E697
:10299000B0EE670A94E600BF0000000038B590F87A
:1029A000203004462DED0A8B002B40F0F780DFED40
:1029B000E89A94F84C30002B00F09B8094ED129A2A
:1029C000F7EE007A94ED0F8A94ED150AA8EE090A45
:1029D000B4EEE70AF1EE10FAA8BF30EE670ADFEDB9
:1029E000DD7A84ED150A20EE270A1EF0DDFEDFED0C
:1029F000DA6AD4ED167AB7EE007A28EE268AF0EE7F
:102A000040AA9FEDD40AE9EE087AF4EEC77AF1EE17
:102A100010FAA8BF77EEC77A27EE800AC4ED167ABF
:102A20001EF0C2FE94ED0CBA94ED14CAF0EE408A8A
:102A3000DFEDCA7AF1EE4CBA2BEE270A8BEE800A54
:102A40001EF098FCDFEDC67A236E94ED1A8A83EAB5
:102A50004333D4ED196A39EE275ADFEDC25A83EABF
:102A600053439FEDC16A68EEA58A87EE857A83EAB3
:102A7000431307EE903A2366FAEEE07AB0EE40AAEE
:102A80008BEE8B0A94ED0DBAC4ED197A37EE888A75
:102A9000EAEE868A38EE668A28EE078A84ED1A8A7C
:102AA0001EF068FC28EE008A94ED0E7AF7EE087AA4
:102AB0002AEE28AA28EE078AF0EE40AA39EE0C9AF0
:102AC00028EE278AAAEE0B8A38EE080A1EF0C0FA12
:102AD000DFEDA67A84ED149AF4EEE7AAF1EE10FA8F
:102AE00058D494ED107AD4ED177A20EE070AE0EE70
:102AF000279A04F16C00FFF7E5FC94F8A03030EE63
:102B0000298A002B40F06584DFED917A94F8E43057
:102B100038EE278A002B40F0D183DFED8D7A94F8D0
:102B20003C3138EE278A002B40F05E83DFED887A57
:102B300094F8683138EE278A002B40F0EB82DFED05
:102B4000847A94F8943138EE278A002B40F05E8224
:102B5000DFED7F7A94F8AC3138EE278A002B40F015
:102B6000B981DFED7B7A94F8F03138EE279A002BAB
:102B700040F00881DFED767A94F8403279EE278ACA
:102B8000002B40F083809FED720A38EE800ABDEC86
:102B90000A8B38BD002384F84C30A2E7D0ED099AA7
:102BA00090ED020AB1EE69AA90ED018A8AEE000A60
:102BB0001EF0E0FBD4ED0A7AD4ED07AAB2EE087A53
:102BC000F7EE006A28EE077AA7EE008AE8EE2A7A86
:102BD000F4EEE67AB0EE670AF1EE10FAA8BF37EE2F
:102BE000E60ADFED5C7A84ED0A0A20EE270A1EF081
:102BF000DBFDDFED5E7AF0EE408A8AEE270A1EF0FA
:102C0000B9FBDFED5B7AB0EE408A29EEA70A1EF031
:102C1000CBFD94ED00BA28EE008AD4ED037A8AEE5B
:102C20000B0A28EE278A1EF0A5FBD4ED04BAB0EEFD
:102C3000409ADFED507AF4EEE7BAF1EE10FA00F3C5
:102C4000538478EE888A9FED4C0A28EE800A1EF0A5
:102C5000FFF9DFED466A39EEAA7AB4EEE69AF0EEB5
:102C6000407A84ED097AF1EE10FA02D5002384F857
:102C7000203067EE897AD4ED056A94ED0B7ADFEDAA
:102C8000349A67EEA67AE7EE879A92E6D4F8503245
:102C900094ED91AA83EA43339FED380AB1EE4A9A44
:102CA00083EA534383EA431589EE000AC4F850527D
:102CB0001EF060FBD4ED8C5AD4ED8FAA07EE905A2B
:102CC00094ED927AF7EE006AFAEEE07A9FED2C6AC4
:102CD000A5EEAA7A67EE807A9FED1E0A27EE868A15
:102CE000B4EEE67AF1EE10FAA8BF37EE667A27EE78
:102CF000000A84ED927A1EF057FDD4ED8B7AF0EE47
:102D0000409A89EE270A1EF035FBA9EE808AB0EEC4
:102D1000409A38EE080A1EF09BF99FED147A7AEE7D
:102D20002A7AB4EEC79AC4ED917AF1EE10FA02D580
:102D3000002384F8403294ED8D7AD4ED937A20EE1E
:102D4000070A20EE270A38EE800ABDEC0A8B38BD50
:102D500000000000DB0FC940CDCCCC3FCDCCCC3E39
:102D6000C5835E389A99993E3333333F6F12833A65
:102D70001D4393460AD7233C6666E63F6F12033A2B
:102D80009A99193FD4ED7BAA04F5FE73D44A04F551
:102D90000571DFEDD46AF3EC017AB7EE007AB2EC9C
:102DA000016AB6EE00AAF7EE008AE6EE2A7AF4EEA1
:102DB000C77AF1EE10FAA8BF77EEC77ABFEE007AB5
:102DC000F4EECA7A43ED017AF1EE10FA54BFF0EE58
:102DD000477AF0EE687A8B4276EEA76ADBD1F1EEA5
:102DE000087AD4F814329FEDC07A83EA43339FED1A
:102DF000BFCA86EEA76ADFEDBEBA83EA5343D4EDBD
:102E0000877AD4ED864A83EA431394ED7DBA9FED29
:102E1000B90A7AEE876AF1EE4B9A87EE265A07EEE8
:102E2000103A83EA433383EA5343F8EEC76A83EAEE
:102E3000431589EE800AC4F8145266EE8C5AF0EEFF
:102E4000466AE5EEAB6A36EEA78AC4ED866A38EECE
:102E5000648A28EE058A84ED878A1EF08BFAD4ED09
:102E6000887A78EEC08A89EEA70A1EF083FA07EE08
:102E7000905A94ED897ADFEDA56AF8EEE77AE7EEED
:102E80000A6AF0EE409A67EE8C7AA7EEAB8A60EEA3
:102E9000087A67EEA87A27EEA60A30EE000A1EF03E
:102EA000D7F8DFED956A3BEE2A7AF4EEE69AF0EE7B
:102EB000407A84ED7D7AF1EE10FA02D5002384F891
:102EC000F031D4ED8A6A94ED7E7A67EEA67A67EEE9
:102ED000877A51E694ED6AAA04F5DC73804A04F51A
:102EE000E871DFED806AF3EC017AB7EE007AB2ECBC
:102EF000016AF7EE009AE6EE0A7AB6EE006AF4EEA0
:102F0000C77AF1EE10FAA8BF77EEC77ABFEE007A63
:102F1000F4EEC67A43ED017AF1EE10FA54BFF0EE0A
:102F2000477AF0EE697A994276EEA76ADBD1B1EE84
:102F3000087AD4F8D031DFED6C7A83EA43339FED21
:102F40006C5A86EE876AD4ED768A83EA5343D4EDD1
:102F5000755A94ED6CBA83EA43139FED690A7AEED1
:102F6000276AC4F8D031B1EE4B9A87EEA67A07EE05
:102F7000903AFAEEE07A89EE000AF0EE466AE7EE61
:102F8000856A76EEA88AC4ED756A78EEE58A68EE01
:102F9000878AC4ED768A1EF0EDF9D4ED777AF0EEEB
:102FA00040AA89EE270A1EF0E5F99FED547A94EDC8
:102FB000786ADFED566AB0EE409AE6EE076A79EE7F
:102FC000EA7A68EE898AB7EE080A67EEA87A67EEB1
:102FD000A67A27EE800A1EF03BF8DFED476A3BEE4B
:102FE0000A7AB4EEE69AF0EE407A84ED6C7AF1EE6D
:102FF00010FA02D5002384F8AC31D4ED796A94ED4F
:103000006D7A67EEA67A67EE877AACE5D4ED669ABC
:1030100094ED600AB1EE69AAD4ED5F8ADFED38AABB
:103020008AEE000A1EF0A6F994ED64BAD4ED677A30
:10303000B0EE087AF7EE006A28EE877AE7EE008AAB
:10304000E8EE8B7AF4EEE67AB0EE670AF1EE10FA6B
:10305000A8BF37EEE60ADFED2B7A84ED670A20EE93
:10306000270A1EF0A1FBB0EE409A8AEE2A0A1EF053
:1030700081F9DFED257AF0EE408A29EEA70A1EF0ED
:1030800093FB94ED5E7A68EE808AD4ED617A8AEEE5
:10309000070A68EEA78A1EF06DF99FED1C7ADFED36
:1030A0001C7AA8EE879AF0EE408A29EE270A1DF0D6
:1030B000CFFFF4EEEA8A39EE8B7A68EE807AF1EE91
:1030C00010FA84ED667A02D5002384F89431D4EDA9
:1030D000626A94ED687A67EEA67A67EE877A39E5D8
:1030E00014270224000000000403B237000000305F
:1030F000CDCC4C3EA69B443B6F12033ACDCCCC3E8C
:103100006F12833ADB0FC9401D4313469A99993ECB
:103110003333B33FD4ED5B9A94ED550AB1EE69AA0F
:10312000D4ED548A5FED0AAA8AEE000A1EF022F955
:1031300094ED59BAD4ED5C7AB0EE087AF7EE006AF5
:1031400028EE877AE7EE008AE8EE8B7AF4EEE67AEC
:10315000B0EE670AF1EE10FAA8BF37EEE60A5FEDAF
:10316000177A84ED5C0A20EE270A1EF01DFBB0EEF4
:10317000409A8AEE2A0A1EF0FDF85FED1D7AF0EE05
:10318000408A29EEA70A1EF00FFB94ED537A68EEF1
:10319000808AD4ED567A8AEE070A68EEA78A1EF076
:1031A000E9F81FED267A5FED267AA8EE879AF0EE11
:1031B000408A29EE270A1DF04BFFF4EEEA8A39EE29
:1031C0008B7A68EE807AF1EE10FA84ED5B7A02D5A4
:1031D000002384F86831D4ED576A94ED5D7A67EE88
:1031E000A67A67EE877AACE4D4ED509A94ED4A0A59
:1031F000B1EE69AAD4ED498A5FED3FAA8AEE000AD2
:103200001EF0B8F894ED4EBAD4ED517AB0EE087ACB
:10321000F7EE006A28EE877AE7EE008AE8EE8B7A0E
:10322000F4EEE67AB0EE670AF1EE10FAA8BF37EED8
:10323000E60A5FED4C7A84ED510A20EE270A1EF073
:10324000B3FAB0EE409A8AEE2A0A1EF093F85FEDC8
:10325000527AF0EE408A29EEA70A1EF0A5FA94ED04
:10326000487A68EE808AD4ED4B7A8AEE070A68EED7
:10327000A78A1EF07FF81FED5B7A5FED5B7AA8EE00
:10328000879AF0EE408A29EE270A1DF0E1FEF4EE5F
:10329000EA8A39EE8B7A68EE807AF1EE10FA84EDE4
:1032A000507A02D5002384F83C31D4ED4C6A94ED79
:1032B000527A67EEA67A67EE877A39E4D4ED389AC7
:1032C00004F1F003944A04F58471DFED946AF3ECA1
:1032D000017AB7EE007AB2EC016AF6EE008AE6EE09
:1032E000297ABFEE006AF4EEC77AF1EE10FAA8BFB1
:1032F00077EEC77AB7EE007AF4EEE87A43ED017A1A
:10330000F1EE10FA54BFF0EE467AF0EE477A9942A9
:1033100076EEA76ADBD1B1EE086AD4F808319FEDEA
:10332000807A83EA4333DFED7F5AC6EE867A94EDE6
:10333000449A83EA534394ED436AD4ED3AAA83EA6C
:10334000431394ED455A79EE874AC4F80831B1EE3B
:103350006A0AC7EE246A07EE103ABAEEE07A80EE07
:10336000050AE7EE257A37EE899AC4ED437A39EEFD
:10337000469A29EE269A84ED449A1DF0FBFF94EDBF
:10338000467A29EE009AE7EE288AF0EE047AB0EE4B
:1033900040AA7AEEA9AA29EE289A29EE270A1DF05A
:1033A00057FE9FED617AF0EE407AC4ED3AAAB4EE92
:1033B000C7AAF1EE10FA02D5002384F8E430D4ED68
:1033C000476A94ED3B7A67EEA67A67EE877AFFF755
:1033D000A6BBD4ED279A04F1AC034F4A04F1C40113
:1033E000DFED4E6AF3EC017AB7EE007AB2EC016AD7
:1033F000F6EE008AE6EE297ABFEE006AF4EEC77AAE
:10340000F1EE10FAA8BF77EEC77AB7EE007AF4EEC5
:10341000E87A43ED017AF1EE10FA54BFF0EE467A05
:10342000F0EE477A994276EEA76ADBD1B1EE086AF0
:10343000D4F8C4309FED3A7A83EA4333DFED395A4A
:10344000C6EE867A94ED339A83EA534394ED326A5A
:10345000D4ED29AA83EA431394ED345A79EE874ACE
:10346000C4F8C430B1EE6A0AC7EE246A07EE103A17
:10347000BAEEE07A80EE050AE7EE257A37EE899A11
:10348000C4ED327A39EE469A29EE269A84ED339AC3
:103490001DF070FF94ED357A29EE009AE7EE288A48
:1034A000F0EE047AB0EE40AA7AEEA9AA29EE289AA4
:1034B00029EE270A1DF0CCFD9FED1B7AF0EE407A35
:1034C000C4ED29AAB4EEC7AAF1EE10FA02D5002382
:1034D00084F8A030D4ED366A94ED2A7A67EEA67AA5
:1034E00067EE877AFFF712BBF0EE087A2BEE270A19
:1034F0008AEE000A1DF03EFFF6EE006AB7EE007A93
:103500006BEE807AABEEE67A67EEA67AE9EE077AA2
:10351000B0EE679AFFF795BB142702240000000065
:103520000403B237CDCC4C3E6F12833A38B5037FDB
:1035300004462DED088B002B40F01A859FEDE89A8C
:1035400094F84C30002B7BD094ED0E7AF7EE007A95
:1035500094ED150AD4ED129AA7EE290AB4EEE70A03
:10356000F1EE10FAA8BF30EE670ADFEDDE7A84EDE7
:10357000150A20EE270A1EF017F9F6EE007AD4EDB0
:103580000B8AB0EE408AD4ED14AA28EEA70AB1EE59
:103590006ABA8BEE000A1DF0EDFEE36D83EA433359
:1035A00083EA5343B0EE40AA8BEE280A94ED0CBA9E
:1035B00083EA4315E5651DF0DDFE07EE905AF0EE57
:1035C000408A94ED0D7AFAEEE07A28EE0A8AB7EE98
:1035D000080A67EEA87A67EE877AE8EE0B7A27EE9C
:1035E000800A1DF035FDD4ED0F7A9FEDCD7AF4EE13
:1035F000C77AF1EE10FA0FD4B7EE007ADFEDC96AA0
:103600009FEDC96AA7EEA67AC6EE076A60EE267A33
:10361000F8FE677A87EEA60ADFEDC47AF4EEE78A51
:1036200079EEAA9AF1EE10FAC4ED149A00F14381F2
:1036300094ED107AD4ED167A20EE070AA0EE279AC0
:1036400094F87430002B00F01085D4F880300025F9
:1036500094ED1E8A83EA4333DFEDA19A83EA534354
:1036600083EA43130AEE103AC4F88030BAEEE0AAB7
:1036700007EE905AB0EE480A9FED9B7AF8EEE77A93
:10368000A7EEC70AB5EEC00AF1EE10FA05DBB4EEFC
:10369000C70AF1EE10FA00F1DA840135032DE7D103
:1036A0009FED920AD4ED188AB4EEC08AF1EE10FABA
:1036B00080F23E812AEE29AA9FED8D0A2AEE000AA9
:1036C0001DF0C6FCD4ED197A9FED957AF4EEC77A19
:1036D000F1EE10FA0FD4B7EE007A9FED926ADFEDAB
:1036E000926AA7EE867AC6EE877A20EE270AB8FE9F
:1036F000407A87EE270A94ED1C7ADFED7E7A38EE69
:10370000078A78EEA78A84ED1E8AB4EEE88AF1EE85
:1037100010FA00F3D88094ED1A7AD4ED1F7A60EE97
:10372000078A68EEA78A94F89C3078EE898A002B85
:1037300040F0F881DFED6A7A94F8CC3078EEA78A11
:10374000002B40F061829FED668A94F8003138EEDC
:10375000888A002B40F0C882DFED617A94F82C3122
:1037600038EE278A002B40F02A83DFED5D7A94F84B
:10377000583138EE278A002B40F08C83DFED587AE1
:1037800094F87C3138EE278A002B00F0EE8394ED1C
:103790005E9AF7EE007A94ED627AF6EE005ADFED6B
:1037A000566AFFEE008A9FED556AB6EE00BAA9EEA2
:1037B000267AD4ED60AAF7EE006AB7EE00AAFFEE13
:1037C000009AB1EE6A0AB4EEE77AF1EE10FAA8BFF9
:1037D00037EE677AD4ED637AE9EE067AB4EEE57AED
:1037E00084ED627A94ED5A7AF1EE10FA80EE070ACF
:1037F000F4EEE67A48BFF0EE668AF1EE10FAA8BF62
:1038000077EEE67AF4EECB7AC4ED637AF1EE10FA55
:1038100048BFF0EE4A9A1DF0ADFDDFED397A78EE43
:10382000A98AF0EE409A68EE8B8A28EEA70A1DF06E
:103830000FFC94ED5B7ADFED3A6A69EE807AB4EEC4
:10384000E67AF1EE10FA0DD49FED366ADFED366AB6
:10385000A7EE06AA86EE8A7A67EE877AF8FE676A8E
:10386000C6EE877A9FED317AF4EEC79A39EE2A9A3E
:10387000F1EE10FA84ED609A21D4D4ED5C6A94EDF7
:10388000617A67EEA68A68EE878A94F8A43178EEAA
:10389000288A002B57D1DFED127A94F8D03178EED8
:1038A000A78A002B40F0C1809FED0D0A38EE800AF8
:1038B000BDEC088B38BD002384F84C30B8E60023FB
:1038C00084F87C31D9E7DFED197AF4EEE79AF1EE6E
:1038D00010FA7FF520AF002384F874301BE700BF97
:1038E00000000000DB0FC9406F12033CA69BC43CE4
:1038F0006666E63FCDCC4C3D00000C44004053448E
:103900006666A63F43820538A69B443B17B7513AEB
:1039100000803B44CDCCCC3E00007A45DB0FC94053
:103920000AD7233C00007043000080436F12833AA3
:1039300038EE400AB1EE400A80EE280A1DF01AFD6A
:1039400079EE809AB6E65FED117AD4ED689AD4F8F4
:10395000B03139EEA76A94ED6E9A83EA4333D4ED21
:103960006D6A94ED6AAA87EE867A83EA53431FED67
:103970001A0A83EA431307EE903AC4F8B031F1EE25
:103980004AAAFAEEE07A8AEE800AC4ED6D7A37EE42
:10399000899A39EE669A29EE079A84ED6E9A1DF09F
:1039A000E9FCD4ED647AB0EE408A8AEEA70A1DF0F5
:1039B000E1FCD4ED656A1FED266AB7EE007AF4EEFD
:1039C000C66A29EE009A77EE487AF1EE10FA67EEB1
:1039D000897A0DD45FED2D5A1FED2D6AA6EEA57ADA
:1039E000C6EE076A67EEA67AB8FE677AC7EE267A51
:1039F0001FED327AB4EEC70A79EE8A9AF1EE10FA28
:103A0000C4ED6A9A02D5002384F8A431D4ED666A25
:103A100094ED6B7A67EEA67A94F8D03167EE877AE8
:103A200078EEA78A002B3FF43FAFD4F8E031D4ED15
:103A3000759A83EA43331FED4B0AB1EE699A83EA24
:103A4000534383EA431589EE000AC4F8E05108EEB7
:103A5000105A1DF08FFC1FED526AD4ED767AD4ED2A
:103A600073AAB7EE007ABAEEE08A5FED566AEAEE24
:103A7000867A28EE008A1FED570A28EE268AF4EE91
:103A8000C77AF1EE10FAA8BF77EEC77A27EE800A60
:103A9000C4ED767A1DF088FED4ED6F7AB0EE40AAC0
:103AA00089EE270A1DF066FCAAEE008AF7EE087A76
:103AB000B0EE409A28EE270A1DF0CAFAD4ED707ACB
:103AC0001FED697AF4EEC77AF1EE10FA0FD4B7EE73
:103AD000007A5FED6C6A1FED6C6AA7EEA67AC6EEFF
:103AE000076A60EE267AF8FE677A87EEA60A5FED2F
:103AF000717AB4EEE79A79EEAA9AF1EE10FAC4ED73
:103B0000759A02D5002384F8D03194ED717AD4ED02
:103B1000777A20EE070A20EE270A38EE800ABDECFD
:103B2000088B38BDD4ED226AF7EE009A5FED867AF5
:103B30005FED865AE6EEA77A94ED28AAD4ED216AC5
:103B4000B1EE4A0AD4F8A83094ED2B6A83EA4333E5
:103B500094ED269A80EE260A83EA534383EA4313C0
:103B6000B0EE677AD4ED2C7AC4F8A83027EE257A27
:103B7000C9EE876A07EE103ABAEEE07A77EE277A56
:103B800084ED2B7A77EEC67A36EE896A86EE867AEF
:103B900027EE878A84ED2C8A1DF0ECFB94ED237AC6
:103BA0005FEDA16A68EE007AB4EEE67AF1EE10FA03
:103BB0000DD41FEDA46A5FEDA46AE7EE069A86EEC7
:103BC000A97A67EE877AF8FE676AC6EE877A1FEDF4
:103BD000A97AB4EEC70A39EE0A9AF1EE10FA84ED2A
:103BE000289A02D5002384F89C30D4ED246A94ED01
:103BF000297A67EEA67A94F8CC3067EE877A78EE69
:103C0000A78A002B3FF49FAD94ED2E7AF7EE009A31
:103C10005FEDBF7A1FEDBF6AE7EE277A94ED34AA15
:103C200094ED2D7AB1EE4A0AD4F8D83094ED388A62
:103C300083EA4333D4ED376A80EE070A94ED329A73
:103C400083EA534383EA431367EE867AC4F8D83095
:103C500089EEA77A07EE903AFAEEE07A37EE888A94
:103C6000C4ED377A38EE668A77EE096AC7EE267AAF
:103C700028EE278A84ED388A1DF07CFBD4ED2F7A5C
:103C80001FEDD97A28EE008AF4EEC77AF1EE10FA29
:103C90000DD45FEDDC6A1FEDDC7AE7EEA69AC7EE85
:103CA000297A28EE278AB8FE487A87EE278A5FEDC0
:103CB000E17AB4EEE70A39EE0A9AF1EE10FA84EDF1
:103CC000349A02D5002384F8CC3094ED307AD4EDC8
:103CD000357A28EE078A94F8003128EE278A38EEE4
:103CE000888A002B3FF438AD94ED419A94ED3B0A5D
:103CF000B1EE49AAD4ED3A8A8AEE000A1DF03AFBE9
:103D0000D4ED427AD4ED3F9AB7EE087AF7EE006A26
:103D100028EE877AE7EE008AE8EEA97AF4EEE67AF2
:103D2000B0EE670AF1EE10FAA8BF37EEE60ADFED53
:103D3000D17A84ED420A20EE270A1DF035FDD4ED3C
:103D4000397AF0EE408A8AEE270A1DF013FB94EDD3
:103D50003C7ADFEDC96AB4EEE67A68EE807AF1EE7D
:103D600010FA0FD4F7EE006ADFEDC45A9FEDC46A73
:103D7000E7EE256A86EE267A67EE877AF8FE676AAE
:103D8000C6EE877A9FEDBF7AB4EEC70A39EE299A5C
:103D9000F1EE10FA84ED419A02D5002384F8003147
:103DA000D4ED3D6A94ED437A67EEA67A94F82C310F
:103DB00067EE877A38EE278A002B3FF4D6AC94ED75
:103DC0004C9A94ED460AB1EE49AAD4ED458A8AEEA2
:103DD000000A1DF0CFFAD4ED4D7AD4ED4A9AB7EE31
:103DE000087AF7EE006A28EE877AE7EE008AE8EEB6
:103DF000A97AF4EEE67AB0EE670AF1EE10FAA8BFFF
:103E000037EEE60ADFED9B7A84ED4D0A20EE270AB5
:103E10001DF0CAFCD4ED447AF0EE408A8AEE270AFF
:103E20001DF0A8FA94ED477ADFED936AB4EEE67AD6
:103E300068EE807AF1EE10FA0FD4F7EE006ADFED4B
:103E40008F5A9FED8F6AE7EE256A86EE267A67EE37
:103E5000877AF8FE676AC6EE877A9FED8A7AB4EEB3
:103E6000C70A39EE299AF1EE10FA84ED4C9A02D580
:103E7000002384F82C31D4ED486A94ED4E7A67EE35
:103E8000A67A94F8583167EE877A38EE278A002BA5
:103E90003FF474AC94ED579A94ED510AB1EE49AAEF
:103EA000D4ED508A8AEE000A1DF064FAD4ED587AF7
:103EB000D4ED559AB7EE087AF7EE006A28EE877AC5
:103EC000E7EE008AE8EEA97AF4EEE67AB0EE670A49
:103ED000F1EE10FAA8BF37EEE60ADFED667A84ED60
:103EE000580A20EE270A1DF05FFCD4ED4F7AF0EE61
:103EF000408A8AEE270A1DF03DFA94ED527ADFEDF2
:103F00005E6AB4EEE67A68EE807AF1EE10FA0FD4CB
:103F1000F7EE006ADFED595A9FED596AE7EE256A20
:103F200086EE267A67EE877AF8FE676AC6EE877AAB
:103F30009FED547AB4EEC70A39EE299AF1EE10FAE1
:103F400084ED579A02D5002384F85831D4ED536A92
:103F500094ED597A67EEA67A94F87C3167EE877A09
:103F600038EE278A002B7FF412ACDFED478A8CE411
:103F7000D0ED088A90ED020AB1EE68AA90ED018AB0
:103F80008AEE000A1DF0F6F9D4ED097AD4ED069A0E
:103F9000B1EE047AF7EE006A28EE077AA7EE008AFF
:103FA000E8EE297AF4EEE67AB0EE670AF1EE10FA5E
:103FB000A8BF37EEE60ADFED2F7A84ED090A20EE7E
:103FC000270A1DF0F1FBD4ED007AB0EE409A8AEE9C
:103FD000270A1DF0CFF9DFED2D7AB0EE408A29EEE9
:103FE000270A1DF035F894ED037ADFED236A68EEB9
:103FF000007AB4EEE67AF1EE10FA0FD4F7EE006A2A
:10400000DFED1E5A9FED1E6AE7EE256A86EE267AE0
:1040100067EE877AF8FE676AC6EE877A9FED197AAF
:10402000B4EEC78A78EEA98AF1EE10FAC4ED088AD8
:1040300001D500232377D4ED046A94ED0A7A67EE64
:10404000A67A9FED119AA7EE879AFFF779BAB1EE9B
:10405000400ADFED0F7A80EE270A1DF08BF9F6EEAD
:10406000007AE0EE279AFFF718BBDFED078AFFF72B
:104070005ABB00BFDB0FC9400AD7233C0000704386
:10408000000080436F12833A000000006666A63F7E
:104090006F12033BF8B590F834302DED048B002BF4
:1040A00000F0688190ED098A044690F83730B1EE4F
:1040B000489A002B40F0DE8090ED0B7A27EE087ACC
:1040C000D4ED0A7AF7EE006A237E77EE277AF4EED3
:1040D000E67AF1EE10FAA8BF77EEE67AC4ED0A7A36
:1040E000002B40F04C81B4EEE77AF0EE006ABFEEB0
:1040F000008AF1EE10FAA7EEA68A00F32E82B7EE40
:10410000006A76EE476AF4EEE76AF1EE10FA00F123
:10411000CC8194F8367094ED030A002F00F0CE8025
:10412000DFEDE97A20EE270A89EE000A1DF022F978
:10413000D4ED0E7A94F8353060EE278AC4ED0E8AFD
:10414000002B40F0CA809FEDE10A89EE000A1DF0C5
:1041500011F994ED0F7ADFEDDE7A60EE079AF4EE56
:10416000E79AC4ED0F9AF1EE10FA00F10081D4ED58
:10417000007AD4ED026AD4ED013A94ED085ADFEDED
:10418000D54AB3EE047A94ED046AB0EE454A66EE81
:10419000A46ADFEDD15AE6EEA87AE6EE257AF4EECF
:1041A000C77AF1EE10FA00F167819FEDCC7A25EE27
:1041B000077AF4EEC77AF1EE10FA00F3E08137EEF9
:1041C000A77AF0EE637ADFEDC66AE6EE267AF5EEC0
:1041D000C07AF1EE10FA00F1BB81DFEDC26AF4EEB5
:1041E000E67AF1EE10FA00F3C581F1EE005AB7EE6F
:1041F000006AF5EE006A67EEA57AF0EE465AE7EE41
:10420000A65A86EE250A87EE049A9FEDB77AB4EE99
:10421000C79AF1EE10FA00F39881BDEE006AB7EE8E
:10422000007AA9EE067A29EE079A94ED177A04F13E
:104230003C050026A7EE678A28EE000A1CF008FF5E
:104240001CF006FF95ED058AF0EE408A0136B0EECF
:10425000480A04351CF0FCFE042E78EEC08AA8EE55
:10426000898A85ED008A85ED048A00F0518195EDFB
:10427000000AE5E790ED050A89EE000A1DF07AF8DC
:1042800094ED0C7AD4ED0B6A9FED986AF7EE007A04
:1042900077EEC07A67EE877AE6EE807A77EEC76AC5
:1042A000F0EEE66AF4EEC66AF1EE10FA40F1F8803C
:1042B000002384ED0B7A84F83730FFE689EE000A9C
:1042C0001DF058F8D4ED0E7A94F8353060EE278A58
:1042D000C4ED0E8A002B00F0B380B7EE006AD4ED77
:1042E0000F9ADFED834AD4ED007A36EE696AD4ED99
:1042F000026A94ED085AB0EE677AF0EE665AD4ED91
:10430000013AE6EE249AB0EE454AC4ED0F9A002F2A
:104310007FF435AF9FED6F6AF3EE046ADFED797AD3
:1043200065EE865AA8EEA57A77EE277AF4EEE67A5D
:10433000F1EE10FA00F1A3809FED687A24EE077A7F
:10434000F4EEC77AF1EE10FA00F31C8137EEA77A8B
:10435000B7EE006AF1EE007AF5EE006AF0EE465A2A
:1043600063EEA77AE7EEA65A86EE250A4BE700230E
:1043700084F834309FED630ABDEC048BF8BDB6EED3
:10438000006AF4EEC67A77EE866AF1EE10FAB4EEC1
:10439000E77A3DD4F1EE10FA00F30E81F7EE005A01
:1043A00035EEC76AB4EEE76AF1EE10FA40F1078124
:1043B00077EEE57A87EE876AF0EE467AE6EE067AE1
:1043C00036EE278A38EE258A38EE658AF7EE007ACF
:1043D00076EEE76AB4EEE67AF1EE10FA2BDCB7EE91
:1043E000006A76EE477AF4EEE76AF1EE10FA7FF7AC
:1043F00090AE76EEC66AC6EE877AB0EE677AA7EE22
:10440000A77A77EE877A77EE867A38EE678A80E643
:10441000F1EE10FA00F3B980B7EE008AF4EEC86A44
:10442000F1EE10FAD6DBB5EEC07AF1EE10FA7FF7B6
:1044300070AEDFED346A86EE876AF0EE006A8EE0D9
:104440009FED2C0A89EE000A1CF094FF94ED0F7A80
:10445000DFED1F7A60EE079AF4EEE79AC4ED0F9A4B
:10446000F1EE10FA83D494ED007AD4ED025AD4ED33
:10447000013A94ED084A4DE79FED1F7AA1E6B7EEA9
:10448000006A9FED1D7AF1EE007AF5EE006AF0EE1B
:10449000465A63EEA77AE7EEA65A86EE250AB2E6FA
:1044A000B0EE677AC4ED0B7A08E677EEC67AC7EE0F
:1044B000876AF0EE667AE6EEA67A76EEA76A76EE80
:1044C000866A38EE668A24E63333333F0AD7233CC4
:1044D0006F12833A00401C460080BB456666E63E8C
:1044E0009A99993E3333733FA4707D3FCDCCCC3D38
:1044F000CDCC4C3D0AD7A33B00002042CDCCCC3ED6
:10450000AFB63E3F000000003448033F33337340F2
:10451000B7EE007AD4ED137A2FB194ED046A5FED13
:10452000096AA6EE267A67EEA97AD4ED076AB7EE95
:10453000080A67EEA67ABDEC048B67EE877ABDE8C1
:10454000F84027EE800A1CF083BD1FED139A6CE63D
:10455000B7EE000A5FED157A55E687EE876A66EEDC
:10456000467AB7EE007AE6EE267A77EEC77A38EE2C
:10457000678ACEE51FED1C0A5FED1C7A43E637EE35
:10458000077A1EE637EE077AE2E6B7EE005A87EEC4
:10459000876AF0EE005AF7EE007AF4EEE76AF1EE81
:1045A00010FA26EE468AA6EE258A38EE678A38EE9D
:1045B000058AFFF60FAF09E7BFEE005AE7E7F4EE12
:1045C000E56ABFEE008AF1EE10FAFFF6A2ADFDE655
:1045D0002DE9F84305690446D0F8F030AB4202D12A
:1045E000012380F84030D4F8F430AB4202D10123EB
:1045F00084F84130D4F8F830AB4202D1012384F87A
:104600004230D4F8FC30AB4200F08982D4F800315B
:10461000AB4214D1B3EE0E7AD4ED007A0123B54A41
:10462000B54967EE877A6565E16484F84430FCEE4D
:10463000E77AA264226584F85C30C4ED167AD4F877
:104640000431AB4248D1D4ED007A01229FEDAB7A20
:104650000021AB4B67EE877A84F84520C4F8903090
:10466000C4F89830FCEEE77A84F8A420C4F8AC10C3
:1046700084F8BC2017EE903AC4F8C41084F8D42013
:10468000C4F8D810C4F8E01084F8EC20994984F8F4
:1046900074209C4AC4F89C50C4F8B450C4ED287AE5
:1046A000C4ED2E7AC4ED1C7A2166A166E5666266C9
:1046B000C4E93353C4E939534FF07E53C4F8C030D2
:1046C000C4F8C830C4F8DC308F4BC4F8A830C4F844
:1046D000B0308E4BC4F89430D4F80831AB4200F0BF
:1046E0000082D4F80C31AB4217D1B2EE047AD4ED8B
:1046F000007A4FF07E530122C4F8845067EE877A27
:10470000A367C4F88030002384F84720FCEEE77AE2
:1047100084F88C20E367C4ED227AD4F81031AB42E0
:1047200040F2478194F8443023B194F85C30002B78
:1047300040F0088294F84530C3B194F8A430002BBF
:1047400040F0238394F8BC30002B40F0658394F84C
:10475000D430002B40F0948394F8EC30002B40F0E0
:10476000C98394F87430002B40F08E8294F847305F
:1047700023B194F88C30002B40F02682E369AB42E1
:1047800000F29280626994F84030D1B2002B00F0C0
:10479000CB8011F0030640F0C780DFED5D7A94ED29
:1047A0000D7AB4EEE77AF1EE10FA09DD63683BB1F9
:1047B000002058629862012083F820005548D86292
:1047C000DFED537A94ED0E7A94F84170B4EEE77A07
:1047D00094F84200F1EE10FA40F3C683A368002B70
:1047E00000F07A844FF0000CC3F824C0C3F828C04E
:1047F0004FF0010C83F820C0DFF818C1C3F82CC0BB
:10480000002F40F09680002840F06C8494F8460019
:1048100038B301F00700042840F09982002B00F023
:10482000568400201865986558659866586601207A
:1048300083F84C003848D865002E00F08B8201F0D8
:104840000F0104290DD163B1012183F880100021EB
:10485000C3F88410C3F89410C3F890102F49C3F81C
:1048600088100132636A6261D20705EB030140F1EF
:104870006281F6EE007A94ED0B7A37EE677A07EEF6
:10488000903AF8EE677A37EE077AB5EEC07AF1EE35
:1048900010FA48BF9FED227A67EE877AFCEEE77A3E
:1048A00017EE903A0B44E36194F843302BB901358D
:1048B00094ED0F0A2561BDE8F883236AAB42F6D870
:1048C000E768A6697FB106F00F02164B03EB820181
:1048D0009000C97811B1002187F8351013F8222013
:1048E000002A40F07F83636A01362B44A66123626D
:1048F000DDE700BF0000484300803B450000204248
:104900000000B44200007A45295C0F3F00001143CB
:104910000AD7233C6666663FCDCC4C3F9A99193F37
:1049200000000000D426022494F8413094F842009C
:1049300083B101F00703042B0CD1636853B1002647
:104940001E655E659E659E665E66012683F84C6008
:10495000B74EDE65F8B101F003006368022800F08D
:10496000D581C3B10020C3F8A400C3F8AC00C3F8DC
:10497000B000C3F8B400C3F8B800C3F8BC00C3F873
:10498000C000C3F8CC00C3F8C800012083F8A00021
:10499000A848C3F8A80094F84630002B3FF461AF54
:1049A00001F0070301F00106042B40F0CC81A3685D
:1049B00034E7E26812B1002382F835304FF07E51BF
:1049C0009D480023E163A062616300219B4823624C
:1049D0002364E062636484F85C302163A16384F83B
:1049E000743084F88C3084F8A43084F8BC3084F8B7
:1049F000D43084F8EC30C4E90433C4E906335AB146
:104A00008F4813768F4B9049106093608F48904B7E
:104A100011615060D161D36063684BB18B4A8448A7
:104A20008C491A64874A5861C3F8D810C3F81C210E
:104A3000A3680BB100225A61D4ED007AF2EE0E3A6F
:104A40009FED857AB3EE094A9FED843A002227EE66
:104A5000877ADFED834A9FED835A67EEA33ADFED55
:104A6000825A27EE844ABCEEC77A9FED806ADFED5A
:104A7000806A67EEA44A27EE855A9FED7E0A17EEFC
:104A8000103A67EEA55A27EE866AC4F8F02067EE62
:104A9000A66A012B67EE837AFCEEE33A38BF012366
:104AA000BCEEC44AFCEEE44A6362BCEEC55AC4EDF7
:104AB0003D3AFCEEE55A84ED3E4ABCEEC66AC4EDD2
:104AC0003F4AFCEEE66A84ED405AFCEEE77AC4ED1C
:104AD000415A84ED426AC4ED436AC4ED447ABDE8AC
:104AE000F88300234FF480724FF07E51E3626363DA
:104AF000A4F84520E368604AA163A2620BB15F4A53
:104B00001A60D4ED007A9FED5E7A67EE877AFCEE4C
:104B1000E77A17EE903A03B901236362E1E50122D7
:104B2000E36884F84320002B3FF470AD4449474AC2
:104B300019605A606AE594F84330E161002B3FF454
:104B4000B6AEBAE6636D9D42C0F09082A26DD4ED20
:104B5000137A002A00F0228207EE102AEB1AF7EEF1
:104B6000005AF8EE476A07EE103AB8EE477A87EE39
:104B7000266AB4EEE56AF1EE10FA04DBB0EE656A7F
:104B8000002384F85C3094ED127A77EEC76AF0EE79
:104B9000477AE6EE867AC4ED147AE368002B3FF498
:104BA000C9ADB3EE047AF4EEC77AF1EE10FA00F173
:104BB00016829FED347AF4EE477AF1EE10FA77FE22
:104BC000277AC3ED007AB5E5D4F884309D42C0F071
:104BD0007982D4F8882094ED1F7A002A00F0D981D8
:104BE00007EE902AEB1AF7EE005AF8EE676A07EE26
:104BF000903AF8EE677A87EEA66AB4EEE56AF1EECF
:104C000010FA04DBB0EE656A002384F88C30D4ED32
:104C10001E7A77EE676AE6EE867AB0EE677AC4EDC2
:104C2000207AE36984ED0F7AAB423FF63DAEA9E509
:104C30009A99593FCDCC0C3F0000B442295C0F3FFC
:104C400000004843CDCCCC3E9A99193F3333333FD3
:104C5000CDCC4C3E6666E63EABAA2A3E000034430D
:104C600000002042000070420000B44200000243F5
:104C700000002A43000000000000114300007A45B4
:104C8000B1DCD33D00409C46E36E9D42C0F00782FC
:104C9000226FD4ED197A002A00F08A8107EE102ADB
:104CA000EB1AF7EE005AF8EE476A07EE103AB8EE44
:104CB000477A87EE266AB4EEE56AF1EE10FA04DB75
:104CC000B0EE656A002384F8743094ED187A77EEBC
:104CD000C76AF0EE477AE6EE867AC4ED1A7AE368A0
:104CE000002B3FF443ADB3EE047AF4EEC77AF1EE55
:104CF00010FA00F171811FED1D7AF4EE477AF1EEA2
:104D000010FA77FE277AC3ED007A2FE5002B3FF4E7
:104D100042AE0020C3F8E800C3F8F000C3F8F40086
:104D2000C3F8F800C3F8FC00C3F80001C3F804019D
:104D3000C3F81001C3F80C01012083F8E400DA483D
:104D4000C3F8EC0027E6002E7FF48BADA368002BA0
:104D50003FF487AD4FF07C50C3F8A8000020C3F8A3
:104D6000A400C3F8AC00C3F8B000C3F8B400C3F8A3
:104D7000B800C3F8BC00C3F8C000C3F8CC00C3F847
:104D8000C800012083F8A00059E5D4F89C309D426A
:104D9000C0F07B81D4F8A02094ED257A002A00F0A1
:104DA000028107EE902AEB1AF7EE005AF8EE676AD6
:104DB00007EE903AF8EE677A87EEA66AB4EEE56AF7
:104DC000F1EE10FA04DBB0EE656A002384F8A4303B
:104DD000D4ED247A77EE676AE6EE867AB0EE677AEB
:104DE000C4ED267ADFEDB15AB5EE006AD4ED006A63
:104DF000C5EE877A84ED0A7A67EE867A67EEA67A40
:104E0000FCEEE77A17EE903A03B90123636294F857
:104E1000BC30002B3FF49BACD4F8B4309D42C0F0C2
:104E20002A81D4F8B82094ED2B7A002A00F0C580AE
:104E300007EE902AEB1AF7EE005AF8EE676A07EED3
:104E4000903AF8EE677A87EEA66AB4EEE56AF1EE7C
:104E500010FA04DBB0EE656A002384F8BC30D4EDB0
:104E60002A7A77EE676AE6EE867AB0EE677AC4ED64
:104E70002C7A94F8D43084ED0B7A002B3FF46CAC90
:104E8000D4F8CC309D42C0F0FB80D4F8D020D4EDD3
:104E9000317A002A00F0968007EE102AEB1AF7EE1E
:104EA000005AF8EE476A07EE103AB8EE477A87EEF6
:104EB000266AB4EEE56AF1EE10FA04DBB0EE656A3C
:104EC000002384F8D43094ED307A77EEC76AF0EEA0
:104ED000477AE6EE867AC4ED327A6368C4ED0D7ADD
:104EE000002B3FF439AC9FED727A67EE877AC3ED01
:104EF000057A31E4D4F8E4309D42C0F0CB80D4F898
:104F0000E820D4ED377A002A61D007EE102AEB1A98
:104F1000F7EE005AF8EE476A07EE103AB8EE477A15
:104F200087EE266AB4EEE56AF1EE10FA04DBB0EE25
:104F3000656A002384F8EC3094ED367A77EEC76A20
:104F4000F0EE477AE6EE867AC4ED387AA368C4EDCF
:104F50000E7A002B3FF405AC9FED557A67EE877A09
:104F6000C3ED057AFFF7FDBB002F7FF4E2AC00280C
:104F700040F0B88094F84630002B3FF472AC01F05A
:104F80000703042BA3683FF449AC002B7FF4E2AE87
:104F900067E484ED207A84F88C2042E6C4ED147A2C
:104FA00084F85C20F9E584ED267A84F8A42019E7DA
:104FB000C4ED1A7A84F8742091E684ED2C7A84F892
:104FC000BC2056E7C4ED327A84F8D42085E7C4EDDE
:104FD000387A84F8EC20B9E7F0EE477A93E6F0EE01
:104FE000477AEEE507EE902A9FED327AF2EE080A54
:104FF0000344F8EE677AB0EE000A93F8018093F864
:10500000029077EEC77AC7EEA00A1CF041FA9FED36
:105010002A7AF3EE047A20EE070AB4EEE70AF1EEFC
:1050200010FA61D4DFED257AB4EE670AF1EE10FADA
:1050300037FE800A87ED0C0A87F83680B9F1000F39
:1050400002D097F834302BB94FF07E5387ED0B0A1E
:10505000BB63002387F8373040F20113BB86B8F1F9
:10506000000F3FF440AC164BBB633CE4D4ED127A26
:10507000C4ED147A91E594ED2A7A84ED2C7AF8E661
:10508000D4ED307AC4ED327A27E794ED247A84EDBA
:10509000267AA7E6D4ED367AC4ED387A56E7D4ED11
:1050A000187AC4ED1A7A1AE69A99193F00007042EC
:1050B0009A99593F00008A420000DC4300409C4519
:1050C0009A99993F94ED1E7A84ED207AA9E5002EF5
:1050D0003FF4C7ABFFF7B3BB002F7FF42AAC002827
:1050E0003FF4BFAB63683CE4B0EE670AA2E700BFE1
:1050F0002DE9F04F2DED0C8B8BB0002A01F01F82B3
:10510000894692469500D1E9004004EB820398421B
:1051100003D242199442C1F001822A4600211CF0B8
:1051200057FE2A46002120461CF052FE0024DFEDE7
:10513000D0BADFF8C8B3CF4FCDF810A09FEDCC9A0E
:10514000CD4BF0EE499ACD4DB0EE49AA93F80080D0
:10515000F0EE49AAF0EE498AB0EE49BACDE902492B
:105160002B78002B00F0E58295ED017A6C78F0EE5B
:10517000C77AC34B1B5DFCEEE76A16EE902A002B44
:1051800000F0B685B5EEC07AF1EE10FA00F1518666
:10519000BC4951F82400904240F2BF85BA4906EE5E
:1051A000902A02F1010CB94E04FB01F1F8EE666A97
:1051B0009FEDB76A60450A4477EEE67A36F9122029
:1051C00008EE102AB8EEC88A28EE068A40F22D862C
:1051D000614436F9112006EE902AF8EEE66A66EE92
:1051E000866AAC4A76EEC86A125DA6EEA78AD2B18C
:1051F000A949AA4A32F8140031F81420013292B2B7
:10520000904221F814200ED8DFEDA57A0022B4EEEA
:10521000E77A21F81420F1EE10FA40F3CC8737EE4C
:10522000677A85ED017A9F4AD5ED027A115D0029F2
:1052300040F0B985A6009C4A125D002A40F07685B0
:1052400095ED017A0BB1F1EE677A984B37EE277A3C
:105250001B5D85ED017A002B40F0A186944BDFEDBC
:10526000957A334493ED007AB4EEE77AF1EE10FAD2
:105270002CD4F7EE007AF2EE0E5AB7EE086AF0EE92
:10528000676AE7EE256A28EE268AB4EEC68AF1EE52
:1052900010FA11DCFFEE087AB4EEE78AF1EE10FAAC
:1052A00000F1858728EE086AF1EE0B5A26EE086AAF
:1052B000C6EE257A78EE677A87EEA68AF6EE006A61
:1052C000F7EE007AE7EE267A28EE278A7A4B1B5D06
:1052D0000F2B0BD80120984007EE900AF8EEE77AE2
:1052E00028EE277AB8FE477A87EE278A002940F011
:1052F00031845AB1714BDFED6F7A334493ED007A0C
:10530000B4EEE77AF1EE10FA00F333876C4B1B5DD5
:10531000002B40F01D866B4BDFED667A3344D3EDF6
:10532000000A694BF4EEE70A185DF1EE10FA05D4B5
:10533000B0EE480AFBF74EFDB0EE408A634B1B5DB2
:105340000F2B0BD801229A4007EE902AF8EEE77A4D
:1053500028EE277AB8FE477A87EE278A5C4B1B57E0
:10536000002B40F0CE855B4B1B57002B40F078851F
:10537000594B1B57002B40F09D85584B1B5D002B54
:105380005FD0574B4FF4165EDFF874C1FFEE007A22
:10539000334454495CF8242093ED007A42F27F5361
:1053A0005148BCEEC77A17EE109AB0EE487A99458C
:1053B00028BF994602EB0E03B9F1010F2CBFA3EBF6
:1053C000090303F1FF33A1FB0391890A0EFB11339B
:1053D0000EFB043300EB830393ED006A434B33442D
:1053E000D3ED006AA6EE867AB4EEE77AF1EE10FA13
:1053F00000F10386F7EE007AB4EE677AF1EE10FA68
:1054000037FE877A3A4BF7EE006A36493344D3EDDC
:10541000007A531C76EEE76AA1FB03E167EE867A19
:105420004FF4165E890A0EFB0422E6EE887A0EFB24
:10543000113300EB82004CF8243080ED007AB0EE9E
:10544000678A2C4B1B5D002B00F0D680DFF8B4E0A0
:10545000F6EE006ADFF8B0904FEAC42C0EEB0602BD
:10546000254959F8243092ED007A03EBC4224DE02F
:1054700000000000083000200B1E0020082D002036
:10548000602B0020803000200077010034B01EC067
:1054900000000038582A0020F8290020282A00207F
:1054A0000000C842E0290020E8270020E82A002068
:1054B000882A00200AD7233C702A00209826002042
:1054C0000C240020AC230020942300207C23002007
:1054D0003C1E0020241E00200C1E002064230020FF
:1054E00004230020B5814E1B000003C0A42200202D
:1054F00044220020CC210020000000C0A51500207F
:10550000E4210020EC1F00208C1F0020B4EEE67A7E
:1055100001EB820277EE077AF1EE10FA82ED008A53
:1055200003D4F0EE006A76EEE77ACE4AB5EE006A72
:10553000DFEDCD5A40F2FF7A3244FFEE006A92ED81
:10554000005ACA4A67EE857A324467EEA57AD2EDF0
:10555000005A67EE867AFCEEE77A17EE900AF0EED4
:10556000487A0230504594BF1A1AA3EB0A02C2F3DC
:105570000A02624401EB820292ED006AE5EE867A4D
:10558000F4EEE67AF1EE10FA00F13385F7EE006AF8
:10559000F4EE667AF1EE10FA76FEA77A9C440133B7
:1055A000DFEDB35AF7EE006AC3F30A0301EB8C0197
:1055B00049F82430AF4BC1ED007A334493ED005AE3
:1055C000AD4BC5EE257A3344D3ED005A77EE877A9A
:1055D000F4EEE67AF1EE10FA01DB77EEE67AB7EE5A
:1055E000007AB644CEED007A77EE657A67EE887A77
:1055F000E5EE867AB0EE678AA04BF0EEC87A1B5DC6
:105600001BB39F4B9A1992ED000AB4EEE70AF1EE34
:1056100010FA40F1658577EEC06AB5EE007AA6EE25
:10562000870A334483ED000A964B334493ED007AA6
:10563000B4EEC07AF1EE10FA07D5DFED936AB4EE5E
:10564000E60AF1EE10FA00F3E882B8F1000F1FD07D
:105650008E4B1B78A34200F088858D4B1B88E3405E
:10566000DB0715D58B4B9FED8C7AD3ED007A8B4BF6
:10567000D3ED006A67EEA67AF4EEC77AF1EE10FA7F
:1056800000F39D85B7EE007A77EE677A28EE278AD9
:10569000834B844A1B78125D002B00F04183824BC0
:1056A0001B5D002B40F03C839FED808A95ED037AD3
:1056B000D5ED047A28EE077A7D4A68EE277A7D4B8D
:1056C0003244F0EEC76A3344B0EEE76AD3ED005AD5
:1056D000C6FE866A92ED006A774AF4EEE65A3244D4
:1056E000F1EE10FA92ED003A744A3244D2ED003AEB
:1056F000734A324492ED004A01D5C3ED006AF7EED9
:10570000004AB6EE005A77EE276A74EEC65A36EEB5
:10571000246A66EE856A65EE855A26EE056AA3EE72
:1057200026AAE3EEA69AA4EE269AE7EE258AE7EEED
:1057300086AA1835BD427FF413ADDDE90249B8F100
:10574000000F11D0554BD3ED007AB4EEE7BAF1EE6D
:1057500010FA40F383865B4A3BEE67BA92ED007A1B
:10576000EBEE077AC3ED007A9BF80060002E40F064
:105770006286B7EE00BA544B1D78EB0700F15286F3
:105780009FED4A8AA80700F14686690700F13C862A
:105790002A0700F15E820EB128EE0B8A4B4B78EEA1
:1057A000888A3AEE888A1B78002B40F0D985484BCE
:1057B0001A780F2A11D80123934007EE903AF8EE99
:1057C000E77A68EEA76A28EE277AF8FE666AC6EEE0
:1057D000A78AB8FE477A87EE278A3E4BDFED3E7AEE
:1057E000D3ED00AA3D4BF4EEE7AA1D78F1EE10FAD6
:1057F00011D4F0EE6A0A2846B0EE680AFBF7EAFA1E
:10580000F0EE6A0AF0EE408A2846B0EE480AFBF74E
:10581000E1FAB0EE408A324B4BF67E321B68591EDD
:10582000914212D82F494BF68032B2FBF3F20B684B
:10583000013393420B60C0F0098600230B602A4BB2
:10584000C3ED008A294B83ED008A294B1B78002B7E
:1058500000F093802749F7EE006A274879EEA89A6E
:105860004CE000BF6C21002000000045AC2000206F
:1058700000803B470C2100204C200020741F00209A
:10588000541E0020141F00206F12833A0A1E0020AD
:10589000081E002088010020AE47613F041E002042
:1058A00024240020402400202824002000000000A0
:1058B00058240020442C00207825002018250020A2
:1058C000B8240020840100201C010020A82B002007
:1058D0004C110020A42B00200AD7233CA02B002031
:1058E0009C2B0020902B0020982B0020942B002034
:1058F000BA2B002028D418C0F1197605D84AD94D02
:1059000092ED007AD1ED005A76EEC76AD1E901C373
:105910006344A0FB03E25E1CD20A05FB123201EBDA
:105920008202D2ED037AA0FB0623CF4ADB0A62444F
:1059300001EB8C0C05FB136301EB830393ED036A0E
:10594000CA4B36EE676AE6EE257A27EE277AB0EE86
:10595000476AA6EE887AA6EEA86AB0EE478A93ED6B
:10596000007AA0FB0203E7EE279ADB0AF0EE468AF4
:1059700005FB13224A60CCED039ABD4B1B78002B2C
:1059800040F03285BB4B9FEDBC7AD3ED007AF4EE4C
:10599000C77AF1EE10FA00F3AB84B84B1B78002BFA
:1059A00040F09384B64B1B78002B76D0B54DF6EEC5
:1059B000006AB54895ED007A0368B4EEE67AB34A1A
:1059C00077EE077A4FEA830C02EB8301F1EE10FACF
:1059D000C1ED008A03D4F0EE006A76EEE77AAC49B6
:1059E00040F6FF7EDFEDAB6ABFEE006AD1ED005AF4
:1059F000A94967EEA57AD1ED005A67EEA67AFCEECA
:105A0000E77A17EE906AF0EE687A0436764594BF2E
:105A1000991BA3EB0E01C1F30B0102EB8101D1ED48
:105A2000006AE5EEA67AF4EEC67AF1EE10FA00F11D
:105A30000985B7EE006AF4EE467AF1EE10FA76FECA
:105A4000277A01336244DFED955AB7EE006AC3F35B
:105A50000B03C2ED007A0360914B93ED005A914B1A
:105A6000C5EE257A77EE877A93ED007AF4EEC67A62
:105A7000F1EE10FA01DB77EEC67AC5ED007AF7EEAB
:105A8000007A77EEC77A67EEA88A67EE887AE7EE43
:105A9000268AE7EE267AB0EE678A834B1B78002BC6
:105AA00040F05384814B1B78002B40F0348400235A
:105AB000069307937E4B1B78002B40F0DD837D4BD4
:105AC0001B78002B00F08F83BFEE007AF7EE007A90
:105AD000F4EEC78AF1EE10FA00F1CF84F4EEE78A13
