:020000042400D6
:1000000000000220410A0024350A00244135022460
:10001000350A0024350A0024350A002400000000B7
:10002000000000000000000000000000350A00246D
:10003000350A002400000000350A0024C5340224DB
:10004000350A0024350A0024350A0024350A002424
:10005000350A0024350A0024350A0024350A002414
:10006000350A0024350A0024350A00244D1D0224D7
:10007000591D0224350A0024651D0224711D022425
:1000800065F50224550D0224350A0024350A0024A2
:10009000350A0024350A0024350A0024350A0024D4
:1000A000350A0024350A0024350A0024350A0024C4
:1000B000E5E60224F1E60224FDE60224890D02248D
:1000C000350A0024950D0224350A0024FD2D022452
:1000D000092E022475F30224A5F30224DDF3022481
:1000E000350A0024350A002400000000350A0024E7
:1000F000350A0024350A0024350A0024350A002474
:10010000350A00247D11032409E70224152E022458
:1001100015F402244DF40224A9960124350A002482
:10012000350A0024350A0024392E02246D2E0224BB
:1001300099F50224350A0024350A0024350A0024E2
:1001400000000000000000000000000000000000AF
:10015000350A0024350A0024350A002485F40224D7
:10016000A10D0224350A0024D5340224F9340224D6
:10017000350A00241D350224350A0024350A0024DE
:10018000350A0024350A0024BDF40224F5F40224C3
:10019000212E02242D2E0224350A0024350A0024A3
:1001A000350A0024350A0024350A0024350A0024C3
:1001B0008D190224350A0024350A0024350A00244A
:1001C000350A0024350A0024390602244506022493
:1001D000350A002451060224350A0024350A002479
:1001E000350A0024350A0024350A0024350A002483
:1001F000350A0024350A0024350A0024350A002473
:10020000350A0024350A0024350A0024350A002462
:10021000350A0024350A0024350A0024350A002452
:10022000350A0024350A0024350A002400000000A5
:10023000350A0024350A002400000000350A002495
:10024000350A0024350A0024350A0024350A002422
:10025000350A0024350A0024350A0024350A002412
:10026000350A0024350A0024350A0024350A002402
:10027000350A0024350A00242DF502240000000070
:10028000350A0024350A0024350A00240000000045
:0802900000000000350A002403
:1002A00010B5054C237833B9044B13B10448AFF3B0
:1002B00000800123237010BD381E002000000000C4
:1002C000B46A032408B5034B1BB103490348AFF3D9
:1002D000008008BD000000003C1E0020B46A03241A
:1002E000034613F8012B002AFBD1181A0138704776
:1002F00001F0FF01102A2BDB10F0070F08D010F8D7
:10030000013B013A8B422DD010F0070F42B3F6D1DA
:10031000F0B441EA012141EA014122F007047FF0F3
:1003200000070023F0E80256083C85EA010586EA4A
:10033000010685FA47F5A3FA87F586FA47F6A5FA86
:1003400087F68EB9EED1F0BC01F0FF0102F0070292
:1003500032B110F8013B013A83EA010313B1F8D13D
:100360000020704701387047002D06BF354603381E
:10037000073815F0010F07D1013015F4807F02BF57
:10038000013015F4C03F0130F0BC0138704700BFA8
:1003900081F0004102E000BF83F0004330B54FEA36
:1003A00041044FEA430594EA050F08BF90EA020FA3
:1003B0001FBF54EA000C55EA020C7FEA645C7FEA36
:1003C000655C00F0E2804FEA5454D4EB5555B8BF59
:1003D0006D420CDD2C4480EA020281EA030382EACA
:1003E000000083EA010180EA020281EA0303362D5C
:1003F00088BF30BD11F0004F4FEA01314FF4801C2F
:100400004CEA113102D0404261EB410113F0004F40
:100410004FEA03334CEA133302D0524263EB4303F7
:1004200094EA050F00F0A780A4F10104D5F1200E95
:100430000DDB02FA0EFC22FA05F2801841F10001F0
:1004400003FA0EF2801843FA05F359410EE0A5F1C4
:1004500020050EF1200E012A03FA0EFC28BF4CF0F5
:10046000020C43FA05F3C01851EBE37101F00045AB
:1004700007D54FF0000EDCF1000C7EEB00006EEBB8
:100480000101B1F5801F1BD3B1F5001F0CD3490842
:100490005FEA30004FEA3C0C04F101044FEA445299
:1004A00012F5800F80F09A80BCF1004F08BF5FEA20
:1004B000500C50F1000041EB045141EA050130BD00
:1004C0005FEA4C0C404141EB0101013C28BFB1F512
:1004D000801FE9D291F0000F04BF01460020B1FA5D
:1004E00081F308BF2033A3F10B03B3F120020CDA30
:1004F0000C3208DD02F1140CC2F10C0201FA0CF00E
:1005000021FA02F10CE002F11402D8BFC2F1200C72
:1005100001FA02F120FA0CFCDCBF41EA0C01904028
:10052000E41AA2BF01EB0451294330BD6FEA040471
:100530001F3C1CDA0C340EDC04F11404C4F120025C
:1005400020FA04F001FA02F340EA030021FA04F36E
:1005500045EA030130BDC4F10C04C4F1200220FAC5
:1005600002F001FA04F340EA0300294630BD21FA03
:1005700004F0294630BD94F0000F83F4801306BFC9
:1005800081F480110134013D4EE77FEA645C18BFBD
:100590007FEA655C29D094EA050F08BF90EA020F54
:1005A00005D054EA000C04BF1946104630BD91EA4C
:1005B000030F1EBF0021002030BD5FEA545C05D14F
:1005C0004000494128BF41F0004130BD14F580048E
:1005D0003CBF01F5801130BD01F0004545F0FE4102
:1005E00041F470014FF0000030BD7FEA645C1ABF37
:1005F000194610467FEA655C1CBF0B46024650EA6E
:10060000013406BF52EA033591EA030F41F4002199
:1006100030BD00BF90F0000F04BF0021704730B51F
:100620004FF4806404F132044FF000054FF00001F4
:1006300050E700BF90F0000F04BF0021704730B5B5
:100640004FF4806404F1320410F0004548BF40428A
:100650004FF000013EE700BF42004FEAE2014FEADF
:1006600031014FEA02701FBF12F07F4393F07F4FBA
:1006700081F06051704732F07F4208BF704793F0BD
:100680007F4F04BF41F40021704730B54FF46074D0
:1006900001F0004521F000411CE700BF50EA0102D3
:1006A00008BF704730B54FF000050AE050EA01027C
:1006B00008BF704730B511F0004502D5404261EBEC
:1006C00041014FF4806404F132045FEA915C3FF42D
:1006D000D8AE4FF003025FEADC0C18BF03325FEACA
:1006E000DC0C18BF033202EBDC02C2F1200300FA7B
:1006F00003FC20FA02F001FA03FE40EA0E0021FAA0
:1007000002F11444BDE600BF53B94AB9002908BF3D
:1007100000281CBF4FF0FF314FF0FF3000F088B9C8
:10072000ADF1080C6DE904CE00F006F8DDF804E048
:10073000DDE9022304B070472DE9F047089D8E469D
:1007400004468846002B4AD18A42174662D9B2FA3B
:1007500082F64EB1C6F1200301FA06F820FA03F33F
:10076000B74043EA0808B4404FEA174E1FFA87FC27
:10077000B8FBFEF1230C0EFB118843EA084301FB92
:100780000CF29A4209D9FB1801F1FF3080F0EA809F
:100790009A4240F2E78002393B449A1AA3B2B2FB74
:1007A000FEF00EFB102243EA024300FB0CFC9C45CA
:1007B00009D9FB1800F1FF3280F0D6809C4540F249
:1007C000D3803B44023840EA0140A3EB0C030021F4
:1007D0001DB1F3400022C5E90032BDE8F0878B422D
:1007E00005D90DB1C5E9000100210846F5E7B3FAC6
:1007F00083F1002946D1734502D3824200F205817C
:10080000841A6EEB030201209046002DE5D0C5E965
:100810000048E2E7002A00F09080B2FA82F6002E4B
:1008200040F0A4808A1A030C4FEA174E80B2BCB283
:100830000121B2FBFEFC0EFB1C2243EA024304FB37
:100840000CF29A4207D9FB180CF1FF3802D29A42F7
:1008500000F2E080C4469B1AB3FBFEF20EFB12339B
:1008600040EA034302FB04F49C4207D9FB1802F15F
:10087000FF3002D29C4200F2CA8002461B1B42EAB1
:100880000C40A5E7C1F120068B4022FA06F71F4372
:100890000EFA01F420FA06F32EFA06FE4FEA174983
:1008A000234300FA01F81FFA87FCBEFBF9F01C0C89
:1008B00009FB10EE44EA0E4400FB0CFEA64502FACA
:1008C00001F209D93C1900F1FF3A80F09C80A6455D
:1008D00040F2998002383C44A4EB0E041FFA83FED8
:1008E000B4FBF9F309FB13444EEA044403FB0CFC8C
:1008F000A44508D93C1903F1FF3E80F08280A4454D
:100900007FD9023B3C4443EA0040A4EB0C04A0FB2B
:1009100002EC64457346E14662D35FD05DB1B8EB4B
:10092000030264EB090404FA06F622FA01F31E43FB
:10093000CC40C5E9006400214FE7B1FBF2FC010C9B
:1009400041EA0E4180B240EA01423B4638463C460D
:10095000B846BE462026B1FBF7F1A2EB080241EAF9
:100960000C4166E7014618E710462CE7C6F1200265
:100970002EFA02F3B740B14020FA02F24FEA174EC6
:100980000A43B3FBFEF8BCB20EFB1833110C41EA6C
:10099000034108FB04F9B04089454FEA104380B297
:1009A0003ED9791808F1FF3C01D289451FD8A1EB47
:1009B0000901B1FBFEF909FB04F80EFB191192B213
:1009C00042EA0142424529D2BA1809F1FF31C4D2A4
:1009D0004245C2D2A9F102013A44BEE7F0459DD298
:1009E000BEEB02036CEB070C0138E14696E7A7EB80
:1009F00009094944A8F1020CB1FBFEF909FB04F80E
:100A0000DBE773467FE7504666E70846FDE63B4472
:100A1000023A33E7ACF1020C3B441CE749469CE741
:100A2000A1EB0901C446B1FBFEF909FB04F8C4E7D8
:100A3000704700BF684620F007018D46FEE700BF03
:100A40000A480B4A904208B503D0121A094933F0FC
:100A5000F6FA0948094A904203D0121A002133F0ED
:100A600033FA33F0C5FA18F02DFEFEE7000000203F
:100A7000381E0020F06A0324381E0020543501205F
:100A8000704700BF704700BF704700BF704700BF8E
:100A9000704700BF704700BF704700BF704700BF7E
:100AA000024B1878B0FA80F040097047B83900203E
:100AB000002322480122224910B403704FF07E54D3
:100AC00020480B70002103701F4803701F480370FB
:100AD0001F4803701F4803701F4804601F48204CC4
:100AE00002702048237002701F4C20482270027050
:100AF0001F4C2048227002701F4C20482270027048
:100B00001F4C2048227002701F4C204A204823703E
:100B10001060204C2048214A0460102420481470A2
:100B2000204A01601370204A204C11602048214A5D
:100B30002360016013605DF8044B70478E4D002008
:100B40008D4D00208C4D00208B4D00208A4D0020C3
:100B5000894D0020884D0020F41700202418002023
:100B60007D4D002010180020181800200A180020C1
:100B70000B1800200818002009180020F01700208A
:100B8000F11700207C1700207C4D002078170020F2
:100B900000401C46F4FD343F7417002070170020FD
:100BA000784D0020744D00206C4D0020704D0020C9
:100BB000684D0020644D0020074B03F5C06113F819
:100BC000012C2AB11A78824202D1002203F8012CAA
:100BD00030339942F3D17047A94F0020704700BFCE
:100BE0002DE9F04317282DED048B83B0DDF838C0D4
:100BF000CDE9001300F2F380B34B05461B5C002BDC
:100C000000F0ED80B14800240646034603E00134BD
:100C1000202C00F02981197830330029F7D1AC4B12
:100C200053F82510BCF1000F00F0DE80614540F262
:100C3000DB80DDED007A04EB44039FEDA67A962A73
:100C4000F8EEE77A06EB03134FEA4408C3F82CC02A
:100C500087EE878A00F2E38007EE902ADFED9E6A36
:100C6000F8EE677A87EEA67A9C4B4FEA850903EB8C
:100C70008503B5EEC00AD3ED007A28EE078AF1EEBF
:100C800010FA28EE278A00F1C780F7EE087AB4EE52
:100C9000670AF1EE10FA37FE800ADDED017AFFEE09
:100CA000006A9FED8D6A28EE008AB8EEE77A8C4BD9
:100CB0004B44C7EE067A93ED007A77EE877AF4EE2E
:100CC000E67AF1EE10FA40F19480DFED868AF0EEDC
:100CD000489A68EE288A08EB0403834A1801525D9B
:100CE00006EB03135D7001233354002A7ED00139D3
:100CF00007EE901AF8EE677A7C4B08EB0407DFEDFD
:100D00007C0AB0EE000A33F9153006EB071707EE40
:100D1000103A784BC7ED017AB8EEC77A4B4493EDA1
:100D2000009AC7EE200A31F03FFD734B87ED058A2C
:100D30005B5DC7ED039A29EE009AC7ED048A87ED43
:100D4000029ABBB36D4B4B44D3ED007AF5EEC07AFB
:100D5000F1EE10FA6DD5B7EE007A0125B0EE476AD4
:100D6000674BF7EE006A4B44D3ED007A08EB0403BF
:100D7000F4EEE67A06EB031383ED067AF1EE10FA51
:100D800083ED076A00F184809FED5E7AF4EEC77A06
:100D9000F1EE10FA7FDC9FED5C6ABFEE007ADFEDCA
:100DA0005B6A67EE867A67EEA67A87EE270A31F0ED
:100DB00007FC08E0F7EE007A0225B0EE670AC7EDFF
:100DC000067AC7ED077A524BA0441A6806EB08165C
:100DD000511C86ED080A86F82450B262196003B0EF
:100DE000BDEC048BBDE8F0838C4622E7DFED3D7A55
:100DF00082E7B7EE007AF4EEC77AF1EE10FA11DC72
:100E0000F5EEC07AF1EE10FA48D577EE877AF0EE7B
:100E1000489A67EE888A5EE79FED320A3DE7B7EEB3
:100E2000087A21E7DFED2F9AF0EE488A68EE299ADA
:100E300051E79FED387AF4EEC77AF1EE10FA35DC1F
:100E40009FED357AF4EEC77AF1EE10FA83D99FED73
:100E50002E6AB7EE007ADFED2D6A67EE867A67EECE
:100E6000A67A87EE276A23E000244FF0FF33274657
:100E70000AE0816A3030994238BF274604F1010404
:100E800038BF0B46202C1CD04178A942F1D1C6E6D0
:100E90009FED220A8BE79FED220A88E777EE679A9B
:100EA00069EE889A08DDF0EE488A14E79FED1D6A26
:100EB00000259FED0C7A53E777EE877A67EE888AF4
:100EC00009E73C46ABE600BFA8550020A84F00202C
:100ED000205600200000FE420000C842444F00207F
:100EE000E445002000000000344D0020A44C002008
:100EF00000009644D44C0020F83C0020983C002090
:100F0000383C00200000FA4500803B476F12833ACE
:100F1000A44F00200000FA440AD7233CAAAAAABC86
:100F20003DC32EB63DC32E372DE9F04F254D9946D2
:100F300083B08B462B7814460190072B09D9224A9F
:100F40001378013303F0070313702B78013BDBB2F6
:100F50002B70DFF878802022DFF874A0002198F849
:100F600000600AEB461032F0AFFF019A0023F7B29F
:100F7000760162F30703220A6BF30F2364F317432E
:100F8000240C62F31F637A010AEB47174AF8023018
:100F90003C71B9F1000F06D006F10800494617224E
:100FA000504432F0B5FF98F80030013303F00703E6
:100FB00088F800302B780133DBB22B7003B0BDE82A
:100FC000F08F00BFB4380020B5380020B6380020BC
:100FD000B838002010B50446FFF782F9032804D979
:100FE000031FE25C1C442E2A01D0002010BD637850
:100FF00003F0DF03572BF8D1A37803F0DF03412B75
:10100000F3D1E07800F0DF00A0F15600B0FA80F0F4
:10101000400910BD2DE9F04F83B003784FF000096F
:1010200001905BB3DFF8788058F839300093009B6B
:101030001E7876B3019D05F1FF3B3746DDF800A031
:101040000AE032F07BFD0446384632F077FD8442F8
:1010500006D11AF8017FE7B11BF8010F0028F0D183
:1010600015F8013F002BE6D109F10109B9F1240F70
:10107000DAD14FF0FF3003B0BDE8F08F09F101097C
:10108000B9F1240FF5D009F10109B9F1240FF5D117
:10109000EFE708EBC90898F8040003B0BDE8F08F4B
:1010A00074560324172901D9002070472DE9F04F09
:1010B000ADF2644D0D46012201468DA81DF0A8F841
:1010C00020B100200DF2644DBDE8F08F01AB2C2261
:1010D00002A98DA81DF09CF950B9019B2B2B07D9B3
:1010E000704B029A9A4203D16F4B049A9A4203D0F2
:1010F0008DA81DF0C1FAE4E70C218DA8BDF81E9063
:10110000BDF82A601DF020FB909B083B0C2BEFD90B
:101110000C2711E0019A072AEAD90D9A8DA80E9C96
:101120009A4213D09299214408341DF00DFB909BF4
:101130002744083BBB42DBD901AB08220DA98DA88F
:101140001DF066F9594B0028E4D0D1E7002CCFD030
:10115000F70809FB07F7002FCAD0554BB4FBF7F887
:10116000984528BF9846102E1BD1B9F1010F18D110
:10117000504B4FEA480250498DA801FB053101ABA5
:101180001DF046F9019C4D4B640843F82540003C96
:101190004B4E8DA818BF012474551DF06DFA705D7B
:1011A00090E7BC427BD3424B002403FB05FAA8EB3B
:1011B000040201AB0DA98DA807FB02F2B2F5007F76
:1011C00028BF4FF400721DF023F9002863D1019B62
:1011D000002B60D0A045B3FBF7FC5CD9BB4258D3D1
:1011E0006FF0004333490DAA5344234401EB4301FC
:1011F0000DE0182E1AD0082E2AD000230130013419
:101200003A4421F8023F844543D9A04543D9102EE2
:10121000EFD1B9F1020FB2F90030EFD1B2F902E02B
:101220001EEB030323D443F34F03E7E75378B9F1ED
:10123000020F92F800E04FEA034343EA0E2392F8CC
:1012400002E043EA0E634FEA234312D01BB2D5E714
:101250001378B9F1020FA3F180034FEA0323F5D10C
:1012600092F801E0AEF1800E13EB0E23DBD50133D3
:10127000D9E792F804E092F803B04FEA0E4E4EEA36
:101280000B2E92F805B04EEA0B6E13EB2E43CAD527
:10129000EDE7A0458BD8094B43F8254077E70024BC
:1012A000F9E700BF524946465741564564617461AB
:1012B00000770100347020C000EE020020560020AC
:1012C000A8550020F2EE0E7AB7EE006AA0EEA76AEB
:1012D00066EE007A03282ED8DFE800F025382002D9
:1012E000B7EE005AFFEE005AF0EE006AF4EEC57A4F
:1012F000B0EE657AF8EE004AF1EE10FA06DD76EE11
:10130000E77AF4EEC77AF1EE10FA04D4F4EEE57A57
:10131000F1EE10FA0FD574EEE77AE1E7F5EEC07A58
:10132000F1EE10FA1CDBB0EEE77AF7EE006A37EE6A
:10133000267AC7EE877A87EE867AB7EE000AF6EE4F
:10134000007AA0EEA70A27EE000A7047BFEE007AE7
:10135000F4EEC77AF1EE10FA11D5F0EE477AEAE72B
:10136000DFED0B6AF7EE005A67EEA67AB0EEE77A89
:1013700037EE257AC7EE875A65EEA67ADBE7B7EE39
:10138000007AF4EE477AF1EE10FA77FE277AD2E788
:101390003333333F70B401221A4D1B4B2A705B6903
:1013A000D80720D519481A4C07E0028892B2B154E8
:1013B0000380154B5B69D90715D5134B154E93F870
:1013C000301003882288C9B2013392B2C3F30A03F2
:1013D0009342EAD1104A138801339BB213800A4B1F
:1013E0005B69D907E9D4084B5A69520606D50B4AFE
:1013F00040219961138801339BB2138000232B7025
:1014000070BC7047541E002000300140581E002060
:10141000561E00205C1E0020AC380020AE38002094
:101420005F4A604BD2ED007A10B52DED048BF3EEE0
:10143000048A5D4C93ED008AC4ED627AF4EEE87A9A
:1014400084ED638AF1EE10FA06DD9FED587AF4EE32
:10145000C77AF1EE10FA4AD400230022C4F8B4315E
:1014600084F89021C4F8B031C4F8AC31C4F8A83184
:101470004F49DFED506A91ED007A4F4AB4EEE67ABB
:101480004E4BD2ED007A1B78F1EE10FA1DD4F3EE3C
:10149000046AB4EE667AF1EE10FAF5EEC07A36FE22
:1014A000877A84ED5F7AF1EE10FA17D4B7EE007AFE
:1014B00084F88431BDEC048BF4EE477AF1EE10FA37
:1014C00077FE277AC4ED607A10BDF5EEC07AB0EEF3
:1014D000667AF1EE10FA84ED5F7AE7D5DFED387ABF
:1014E00084F88431C4ED607ABDEC048B10BDD4ED7A
:1014F000016A01239FED337A9FED336A26EE877AE6
:1015000084F89031F4EEC77AF1EE10FA37FE277ABC
:1015100027EE067AC7EE269AB0EE690A31F0D0FAC5
:10152000B0EE409AB0EE690A31F08EFBDFED277A1B
:10153000B4EEE78AF1EE10FA2BD4B4EEE88AF1EEBD
:1015400010FA29DC38EE088AC9EE087AB7EE006A8C
:10155000F8EE005AB6EE007A76EE406A20EE250AE2
:1015600037EE865A76EE677AC6EE055A66EEA56ABB
:1015700020EE250A67EEA57A26EE877AC4ED666A24
:1015800084ED680AC4ED697A84ED657A84ED677A42
:101590006EE79FED0F8AD7E79FED0E8AD4E700BF75
:1015A000400100203C0100209002002000D0844631
:1015B000380100200AD7233CB0280020AD280020A5
:1015C00000000000EE7CFF3EDB0FC940CDCCCC3DDF
:1015D000CDCC4C3E00002042037A0BB104230372B1
:1015E000704700BF084BB6EE007AD3ED017A93ED59
:1015F000006AC7EE866A77EEE67AF0EEE77A67EE83
:10160000877AC3ED047A7047A04D00202DE9F04F92
:101610000026ADF52F7D414BB0460393039B13F895
:10162000014F0393002C61D13D4920A83D4B51F857
:10163000265060213C4A009532F066FB402221464C
:101640000DEB020032F040FC20A904A81DF046FA80
:1016500000284BD168A904A81DF090FA88BB9DF81A
:10166000B67177B39DF8A821D306F3D40DF5DB70DE
:10167000FFF7B0FC05460028ECD0002C3ED00DF161
:10168000400A0DF5DB7B0CE032F058FA03462046A9
:101690001C4632F053FA84423BD11BF8017F002FE5
:1016A00039D0D1461AF8014B3846002CECD13C1BFE
:1016B000002C23DB2C4668A904A81DF05FFA002843
:1016C000CDD004A81DF042FA84B110A920AB164A6F
:1016D00038A80091C02132F017FB38A8F1B2FFF70B
:1016E000E1FC18B108F101085FFA88F80136102E04
:1016F00094D140460DF52F7DBDE8F08F3F220DF5CA
:10170000DB7110A82C4632F003FC00238DF87F30EB
:10171000D1E7241ACCE799F80140C8E7A755002083
:1017200094570324584E0324604E03249F4B1B7888
:10173000002B00F039819E4B60219E4A2DE9F04339
:101740009D4CADF56F7D009432A832F0DDFA32A9E0
:101750001AA81DF0C3F90446002800F0A28094499D
:1017600002A81DF0BBF9002840D0FFF74FFF00286A
:1017700040F0158130218E4B904A1AA832F0C4FAFD
:101780001AA932A81DF0AAF960BB1024A8AD2946F9
:1017900032A81DF0F3F9F8B9AB7D0DF2B620DBB13C
:1017A000182C00F03E812B7ADB06F0D4FFF712FCF8
:1017B0001AAB804AA0210028E9D00DF2B620009093
:1017C00062A832F0A1FA214662A8FFF76BFC631C05
:1017D0000028DCD0DCB2DAE732A81DF0B7F9102C13
:1017E00000F222810DF56F7DBDE8F0830DF5C4791F
:1017F000494602A81DF0C2F9002840F00E8199F870
:101800001630002B00F0098199F80830DA06EFD580
:101810000DF5CF70FEF764FD0228E9D968490DF592
:10182000CF7032F059FB0028E2D00DF5CF730DF1E7
:101830003808604A602100931AA85D4B32F064FAC0
:101840001AA940461DF04AF904460028D0D1A8AD97
:10185000294640461DF092F9002840F0FD80AB7DFE
:101860000DF2B620002B00F0F780102C00F0B480B1
:101870002B7AD906ECD4FFF7ADFB1AAB0028E7D0E2
:101880000DF2B622C02132A800924A4A32F03CFA48
:10189000214632A8FFF706FC631C0028D8D0DCB232
:1018A000D6E70DF138080746A8ADC8E90000C8E939
:1018B000020029461AA81DF061F9002832D1AB7D3B
:1018C0000DF2B62073B32B7ADE06F2D4FFF782FB5B
:1018D00003460DF2B620002BEBD0FFF79BFB0F2841
:1018E0000646E6D818F80030002BE2D10DF5C47991
:1018F0000DF2B62032AB2F4AC0210090484632F09C
:1019000003FA4846F1B2FFF7CDFB7B1C0122002809
:10191000CFD029461AA808F80620DFB21DF02EF90C
:101920000028CCD01AA81DF011F90DF137030DF1E4
:10193000470013F8012F611C02B9CCB28342F8D1E1
:1019400024BB002F3FF40BAF1F221B491D4832F070
:10195000DFFA194A39461C481EF044FD1B49002293
:1019600001F1010C01F110060D46CCF1010311F853
:10197000014F01202B440CB198400243B142F3D1F6
:101980000D4B39460120FFF7CFFAEEE622460A4911
:101990000F481EF027FD002F3FF4E1AED4E70146CB
:1019A0000C481EF01FFDE5E6704700BFDC39002043
:1019B000584E0324604E0324684E0324304F032402
:1019C000C44E0324BC390020A04E0324A755002098
:1019D000784E0324F84E032440461DF0B7F81F222A
:1019E0000DF5CF71204832F093FA0DF5CF721F48F4
:1019F00021461EF0F7FC00231D481A46012110F86D
:101A0000015B9940013305B10A43A342F6DB0DF5B2
:101A1000CF7321460120FFF787FA02A81DF096F840
:101A2000A3E632A81DF092F8A4F110071148124D58
:101A300039461EF0D7FC10230022012015F8016F53
:101A40009840013306B102439C42F6D10B4BF9B2E8
:101A50000620FFF769FAC5E640461DF077F8002C2E
:101A60003FF4C6AEBBE700BFBC390020CC4E032418
:101A7000A8550020384F0324B7550020C44E032436
:101A8000A64B2DE9F04F1C782DED0A8B83B0002C6E
:101A900040F03E81DFEDA2BA0122A24DF7EE00CA6E
:101AA000B0EE6BBA1A70F0EE6BAA05F5C043B0EE5B
:101AB0006B9A05F5805B9FED9CCA05F5005A05F50C
:101AC000405905F5804805F5A0470193DFED977A69
:101AD000F5EE006AB1EE007A9FED956A29EE279A3D
:101AE000B4EEE69A79EE099A69EE077AF1EE10FA09
:101AF00069EE869A0BD4F6EE086AB4EEE69AF1EE39
:101B000010FA40F10281B0EE007A77EE677A9FED2D
:101B1000848AA5F5805202263AEE888AC2ED00AA90
:101B2000E5EC017AB0EE48AA07EE906A0136F8EECD
:101B3000E78A29EEA80A30F0C3FFC0EE287A092E02
:101B40003AEE27AAF0D1DFED7B7AF0EE488A032641
:101B50002AEE27AAABEC01AA07EE906A0236B8EE8D
:101B6000E7AA29EE8A0A30F0ABFFC0EE0A7A0B2E04
:101B700078EEA78AF0D19FED707AFFEE007A68EEDA
:101B8000878AF4EEE78AF1EE10FA00F1B580F7EEFD
:101B9000007AF4EE678AF1EE10FA77FEA88AF5EE85
:101BA000006A9FED637ADFED5E7A0326EAEC018A34
:101BB00039EE269A7CEEA7CA39EE099A29EE079AE1
:101BC00007EE906A0236F8EEE78A29EEA80A30F0AE
:101BD00077FFB0EE40AA29EE280A30F071FFC0EE80
:101BE000287A0B2E8AEE287A7CEEA7CA38EE078A6E
:101BF000E6D138EE2C8A9FED4F7AFFEE007A28EE80
:101C0000078AB4EEE78AF1EE10FA7BD4F7EE007A99
:101C1000B4EE678AF1EE10FA37FE888AF5EE007AA4
:101C20009FED465A9FED466AFFEE006A9FED457AAA
:101C30006BEE277ADFED445A2BEE077AA9EC018A86
:101C4000EAEE857AAAEEA57AEBEE867AA8EC017A1E
:101C5000F4EEE67AF1EE10FA51D4B7EE007AF4EE33
:101C6000477AF1EE10FA77FE277A9FED387A013441
:101C7000E7EC017ACCEE077A019BB4F5806FE3ECD8
:101C8000017A019344D007EE904A9FED288A9FED98
:101C900028AAB0EE08CAB8EEE79A29EE088A78EECC
:101CA000088A68EE8A9AB0EE690A30F009FFF0EE11
:101CB00040AA39EEA90A30F003FFB0EE40BA29EE8F
:101CC0008C0A30F0FDFEF7EE007AF0EE40BA38EE06
:101CD000E70A20EE0C0A30F0E1FAF5EE007AB0EEF9
:101CE00040CA38EE278A38EE088A28EE0A0A30F011
:101CF000E7FEF0EE40CAE9E6F0EE678A4FE7F0EE65
:101D0000667AB2E7B0EE678A88E777EEC77AFEE6D2
:101D100003B0BDEC0A8BBDE8F08F00BFFC5600207D
:101D20000000000000670020E9BB7EBF0000803A91
:101D3000DB0F494083F9223F83F9A23FE17A143F48
:101D40007B142E3E9A99993E3333333FE9BB7E3F55
:101D5000022810B576D003284FD001284FF000029A
:101D600000F095805B494FF0000CB6EE006A4FF032
:101D70007E5EF5EE001ADFED586A9FED581A02EE0E
:101D8000901A9FED577A04EE10CA9FED562A10461E
:101D9000DFED557A14469FED553ADFED553ADFED0C
:101DA000554A9FED555ADFED555A554B1A7083ED44
:101DB000016AC3ED026AC3F80CE083ED041AC3EDB7
:101DC000051A83ED067A596283ED0A2AC3F82CC0FE
:101DD000C3ED0C7AC3ED072A83ED083AC3ED0D3A43
:101DE00083ED0E4A83F83C0083F83D40C3ED104A72
:101DF00083ED115AC3ED125A10BD4FF07E5EDFED38
:101E0000416AB6EE006A0222F0EE663A9FED3E1A93
:101E10004FF07D5CDFED3D1A9FED3D7A07EE90EAD5
:101E20003C4901209FED3C2A0024DFED2F2A9FED45
:101E30003B3A9FED3B4ADFED2B4A9FED3A5ADFEDEF
:101E4000265AB2E701229FED386A4FF0000E9FED4F
:101E5000377A3749F0EE467AB0EE473ADFED316A2D
:101E60009FED341A02EE901ADFED261A00209FED46
:101E70002C2A1446DFF8ECC004EE90EADFED2E3A8F
:101E80009FED2E4A9FED2E5ADFED2E5A8DE74FF033
:101E90007A5C1049DFED137AB6EE087AF1EE063A75
:101EA0009FED296AB0EE674ADFED286A4FF0000E19
:101EB0009FED271ADFED271A02EE901A9FED112AE7
:101EC00003EE10CA1446DFED244A9FED245ADFEDDD
:101ED000245A6AE76F12833AEC51383F008022445B
:101EE000CDCC0C3FEC51383E0AD7A33D295C0F3EC8
:101EF000CDCCCC3DCDCC4C3D0AD7233D9A99593F12
:101F0000B80100203333B33E0000964485EB513FC7
:101F10009A99193F8FC2F53D9A99993FCDCCCC3F04
:101F2000CDCCCC3E9A99193E295C8F3E6666E63E42
:101F30000AD7233C00802245CDCC4C400AD7A33E93
:101F40008FC2F53C14AE473F3D0AD73ECDCC4C3E48
:101F50000000E1443333333F8FC2F53D295C8F3DB0
:101F6000CDCC4C3FCDCC0C3F022800B555D003283A
:101F700039D001286CD00022B7EE006AF1EE066A73
:101F8000DFED3F3ADFF858C105EE102A9FED3D4ADC
:101F90000020DFED3D4A1146DFED3C5A9FED3C7AD3
:101FA000DFED3C7ADFF83CE13B4B9A603B4AC3ED06
:101FB000003AC3F804C083ED034AC3ED054A83ED3C
:101FC000065AC3ED075A83ED086AC3ED096A83ED2B
:101FD0000A7A83F82C001963C3ED0D7AC3F838E050
:101FE0001A615DF804FB4FF07C5CB5EE004AB7EE79
:101FF000086ADFED2B3AF2EE056A2A4ADFED254A40
:1020000007EE10CA284902209FED285ADFED285A12
:10201000DFED287ADFF8D0E0C6E70022F7EE005ABD
:10202000B0EE086ADFED163AF2EE016A4FF07F512A
:102030004FF07D5EDFF8B4C09FED1F4A05EE102A19
:10204000DFED1E4A00209FED0F7ADFED1D7AABE732
:102050001C49B0EE006AF6EE087ADFED093ADFF8C7
:1020600090C08E46184A9FED194ADFED194A9FED40
:10207000195ADFED105ADFED186A9FED187A93E7D1
:102080006F12833A8FC2F53DAE47613E9A99193E71
:102090000AD7A33DCDCCCC3E440100206F12833A39
:1020A0000AD7A33B3333B33E0000E040CDCC4C3ED7
:1020B0009A99993E9A99193F6666E63F3333B33F42
:1020C0009A99593FCDCC4C3F9A99193ECDCC8C3F33
:1020D0006666663F00000000CDCC4C40CDCC4C3D48
:1020E0009A99993E9A99593F85EB513F66662640E9
:1020F0003333B33F70B5174D1C46164613465A226C
:102100004FF6FF7E68702A70A2196C80A98013F8C0
:10211000010B4FF0080C80EA0E0E4EF300010E4842
:102120000CF1FF3C08401CF0FF0C80B280EA5E0E10
:10213000F3D19342EBD12246314608480834A5F842
:1021400006E031F07CFF06490122064B0C801A7034
:1021500070BD00BF0000003001A0FFFF080000308C
:1021600080560020825600200339032914D8DFE866
:1021700001F0312314022F4991F8642091F8703056
:10218000003A18BF0122003B18BF012392009B00B8
:1021900081F8642081F870307047274B93F88420D1
:1021A00012B1042283F8842093F89020002AF3D0FF
:1021B000042283F8902070470F281DD91F4B03F588
:1021C000B0701A7A01210AB183F82C102C3398428E
:1021D000F7D170471A4B002193F88C2083F85510E3
:1021E00012F0FB0F20D193F8982012F0FB0FD3D000
:1021F000042283F898207047124A104B105C03F5B4
:10220000B07102E02C33994212D01A7A002AF9D028
:102210005A7A8242F6D193F82C204FF0010C002A12
:10222000F0D183F82CC0EDE7042283F88C20DAE7A4
:10223000704700BF44010020B80100209002002038
:1022400048040020D4280020F0B585B004460D468F
:1022500021F0E6F907460A264FF0FF0C01230DF1A5
:102260000F020DF10E01254800968DF80EC08DF875
:102270000FC021F029F89DF80F30FF2B36D0FE2B30
:1022800039D16119013C4D1E0A27FF2601230DF1AA
:102290000F020DF10E01194800978DF80E608DF8B0
:1022A0000F6021F011F89DF80F3004F8013FA542AE
:1022B000EAD10DF10F020DF10E01012300970F4835
:1022C0008DF80E608DF80F6020F0FEFF01230DF1F8
:1022D0000F020DF10E01009708488DF80E608DF881
:1022E0000F6020F0F1FF012005B0F0BD21F098F95A
:1022F000C31BC72BAFD9002005B0F0BD2C3C00207C
:10230000D54B2DE9F0412DED028B5A5CB0EE408AA1
:102310000C460646002A40F0AB82D04BA500DFED0C
:10232000D07A03EB8403CF4AD3ED000A105DF4EEBC
:10233000E70AF1EE10FA05D4B0EE480AFEF7C2FF44
:10234000B0EE408AC84B1A5D0F2A0BD80123934088
:1023500007EE903AF8EEE77A28EE277AB8FE477A49
:1023600087EE278AC14B1B57002B40F05B82C04B86
:102370001B57002B40F03082BE4B1B57002B40F008
:102380000582BD4B1B5D002B5CD0BC4B42F27F5CD9
:10239000BB48FFEE006A2B44BA4950F82420D3ED25
:1023A000007A02F51653FCEEE77A17EE907AF0EE1B
:1023B000487A674528BF6746012F2CBFDB1B03F116
:1023C000FF33A1FB03714FF41657890A07FB113342
:1023D000AD4907FB043301EB830393ED007AAB4B6C
:1023E0002B4493ED006AE7EE067AF4EEE67AF1EE1E
:1023F00010FA00F1C881F7EE006AF4EE667AF1EEA9
:1024000010FA76FEA77AA24BF7EE006A571C2B440F
:1024100093ED006A9B4B76EEC66A27EE067AA3FB25
:1024200007C34FF4165C9B0AA8EE267A0CFB042225
:102430000CFB137701EB820140F82470C1ED007AA8
:10244000B0EE478A934B1B5D002B7FD0924FB6EEC8
:10245000007ADFF8A0C24FEAC42E57F824208F4834
:1024600002EBC4230CEB830383ED008A4319D3ED05
:10247000006AF4EEC76A76EEA67AF1EE10FA40F141
:102480007681874BB5EE007ADFED865A40F2FF7811
:102490002B44BFEE006A93ED005A834B67EE857ABA
:1024A0002B4467EEA57AD3ED005A67EE877AFCEEEF
:1024B000E77A17EE903AF0EE487A0233434594BF3C
:1024C000D11AA2EB0801C1F30A0373440CEB830396
:1024D00093ED007AE7EE257AF4EEC67AF1EE10FA83
:1024E00000F1F081B7EE006AF4EE467AF1EE10FAF0
:1024F00076FE277A6D4B9644DFED6D5AB7EE006A93
:102500002B440CEB8E0C0132284493ED005ACCED99
:10251000007AC2F30A02C5EE257A664B47F82420FA
:102520002B4477EEA67AD3ED006A76EE665A27EE54
:10253000267AF4EEC67AA8EE257AF1EE10FAA8BF54
:1025400077EEC67AB0EE478AC0ED007A5A4B1B5D33
:102550002BB35A4BF0EEC87A5A1992ED000AF4EEFA
:10256000C07AF1EE10FA00F3078170EE677A9FED02
:10257000547AA7EEC70A534A2B442A4483ED000A33
:10258000D2ED007AB4EEE70AF1EE10FA07DD9FED26
:102590004E7AB4EEC70AF1EE10FA00F3B5814B4B58
:1025A0004B4A1B78125D23B14A4B1B5D002B00F098
:1025B000B080002A40F0AD80474B484A2B44125D62
:1025C000D3ED007A002A40F0A880F7EE006AB6EE5C
:1025D000007A76EEE75A77EEA67A65EE875A27EE0E
:1025E000877A3F4BF0682B44D3ED007A3D4B68EE81
:1025F000277A2B44D6E9002467EEA67A93ED005A99
:1026000092ED006A384BF0EE466A2B44B0EEE76A72
:10261000E7EEA56AD3ED005A344B2B44C2ED006AB5
:10262000D4ED006AE7EE876AD6E90412C4ED006AC9
:1026300090ED007AD3ED006AA7EE857A2C4B2B44FF
:1026400080ED007A91ED007AA7EEA57A81ED007A0F
:1026500092ED007A50E000BF9845002078440020B9
:102660000AD7233C6044002048440020083F002053
:10267000F03E0020D83E002030440020D04300200F
:10268000B0420020B5814E1B000003C07043002003
:10269000104300209842002058400020B8400020FD
:1026A000384200200000004578410020D841002039
:1026B00000803B471841002040400020203F002080
:1026C0008FC2F53CE03F00206F12833AB0450020F6
:1026D000CC450020B4450020E4450020C03E002049
:1026E000444F002004470020A44600204446002018
:1026F000184E0020000000C0A7EEA67A82ED007AF6
:10270000D3ED007AB4EEE76AF1EE10FA01DD83ED65
:10271000006ABDEC028BBDE8F081A34B1B5D002B72
:1027200040F0D380B368F7EE006A9FEDA07A2B44A7
:1027300093ED006AE6EE076AF5EEC06AF1EE10FA74
:1027400000F1FC80B0EE007AF4EE476AF1EE10FA88
:1027500077FE266AB7EE006AB6EE007A76EE675A22
:1027600077EE867A65EE875A27EE877A39E7B0EEFC
:10277000007A77EE677A84E677EEC07AB5EE007A73
:10278000A7EE870AF7E6F0EE667A3CE6884BC4EBE4
:10279000C40203EB8203D3ED056AD3ED007A93ED17
:1027A000037AE8EE276A93ED015AD3ED047AD3ED6C
:1027B000025A93ED066A27EE667A67EEE67AA8EE8D
:1027C000057AE8EE257AB0EE668A36EE077AC3ED32
:1027D000067A83ED057AD4E5764BC4EBC40203EBAD
:1027E0008203D3ED056AD3ED007A93ED037AE8EE28
:1027F000276A93ED015AD3ED047AD3ED025A93ED93
:10280000066A27EE667A67EEE67AA8EE057AE8EEC3
:10281000257AB0EE668A36EE077AC3ED067A83ED46
:10282000057AA9E5644BC4EBC40203EB8203D3ED44
:10283000056AD3ED007A93ED037AE8EE276A93ED0B
:10284000015AD3ED047AD3ED025A93ED066A27EECE
:10285000667A67EEE67AA8EE057AE8EE257AB0EEBB
:10286000668A36EE077AC3ED067A83ED057A7EE551
:10287000C1EBC101514B092A03EB81034FEA8101EE
:10288000D3ED057A93ED007AD3ED036AE0EE077A93
:1028900093ED015A93ED047AD3ED025A93ED066A53
:1028A00066EEE76A27EE677AE0EE056AA0EE257A23
:1028B00076EE266A83ED067AC3ED056A41D0B0EE66
:1028C000678A2AE5F0EE467A14E6012B7FF47DAEA6
:1028D000B368BFEE007ADFED3A6A2B4493ED006AED
:1028E000E6EE267AF4EEC77AF1EE10FA54D4F7EE5B
:1028F000006AF4EEE67AF1EE10FA7FF768AEB0EE19
:10290000667ADFED305A6CE62F4BB7EE007A87EE31
:10291000800A2B44D3ED007AC7EE270A77EE600ACF
:102920002FF042FFF4EE007AB4EE670AF1EE10FAEF
:1029300048BFB0EE670A28EE008A30E6DFED216A74
:1029400008E7224BDFED224A0B4493ED050A93ED95
:10295000007AD3ED036AA7EE870A93ED015A93ED4F
:10296000047AD3ED025A93ED066A66EEC06A27EE4A
:10297000407A20EE240AE7EE856AA7EEA57A36EEC5
:10298000266A83ED067A83ED056A2FF087FCDFED7A
:10299000117A20EE278AC0E4F7EE005A9FED097AFB
:1029A000F0EE656A1DE600BF903E0020CDCC4C3FA6
:1029B00010050020B0070020500A0020900F0020D2
:1029C0006666663F00000000803F0020F00C00209B
:1029D0003333B33FB4C8363F2DE9F04184B00746E6
:1029E000884620F01DFE064605E020F019FE801BFB
:1029F000B0F5FA7F6BD20A25FF2401230DF10F02F7
:102A00000DF10E01364800958DF80E408DF80F40FF
:102A100020F05AFC9DF80F30A342E6D18DF80F301C
:102A20000DF10F0201230DF10E012D4800958DF8D7
:102A30000E8020F049FCB8F1FD0F4CD07C1E07F24F
:102A4000FF170A2614F801CFFF2501230DF10F020D
:102A50000DF10E01224800968DF80EC08DF80F5032
:102A600020F032FCA742ECD10DF10F020DF10E0166
:102A7000012300961A488DF80E508DF80F5020F063
:102A800023FC0DF10F020DF10E01012300961448F5
:102A90008DF80E508DF80F5020F016FC01230DF12B
:102AA0000F020DF10E0100960D488DF80E508DF8B5
:102AB0000F5020F009FC9DF80F0000F01F00A0F15E
:102AC0000500B0FA80F0400904B0BDE8F0810020B4
:102AD00004B0BDE8F081012004B0BDE8F08100BF82
:102AE0002C3C0020012810B53DD0022815D000282C
:102AF00038D10F2946D8DFE811F02A021F006902F9
:102B00008002C602DD02390251024500450045003F
:102B10004500450045009702AE02092901F20E84E6
:102B2000DFE811F04A009E008700FB0059007000AA
:102B30007501FE011201A301002A40F0D884DFEDE7
:102B4000D27AB4EEE70AF1EE10FA00F1D085F7EE92
:102B5000007AB4EE670AF1EE10FA37FE800ACB4B2A
:102B600083ED1D0A10BD092901F2F983DFE811F098
:102B7000030112018F006601A600BE002101380189
:102B8000A801C001032AEDD1B5EEC00AF1EE10FA9A
:102B900000F1FF85F0EE007AB4EE670AF1EE10FA6C
:102BA00037FE800A0F29DDD8B84B01F5B17103EB70
:102BB000810383ED010A10BD002A40F0FF83DFEDA1
:102BC000B27AB4EEE70AF1EE10FA40F15985B04B53
:102BD000C3ED007A10BD002A40F06083DFEDAA7AD1
:102BE000B4EEE70AF1EE10FA00F13E85F7EE007A56
:102BF000A74BB4EEE70AF1EE10FA01F35C8183ED26
:102C0000910A10BD002A40F0C783DFED9F7AB4EE31
:102C1000E70AF1EE10FA00F17685DFED9E7A9C4B23
:102C2000B4EEE70AF1EE10FA01F35A8183ED940A4B
:102C300010BD002A40F0D282DFED937AB4EEE70AAD
:102C4000F1EE10FA00F10485DFED927A904BB4EECC
:102C5000E70AF1EE10FA01F3348183ED410A10BD69
:102C6000002A40F03F83DFED8C7AB4EEE70AF1EE04
:102C700010FA00F14C85F6EE007A854BB4EEE70AC7
:102C8000F1EE10FA01F3208183ED1D0A10BD002A38
:102C900040F05283DFED7C7AB4EEE70AF1EE10FAF1
:102CA00000F1EA84F7EE007A7C4BB4EEE70AF1EE2D
:102CB00010FA01F3038183ED330A10BD002A40F0BE
:102CC000E983DFED717AB4EEE70AF1EE10FA00F174
:102CD0002685F0EE007A714BB4EEE70AF1EE10FAB9
:102CE000CCBFC3ED7D7A83ED7D0A10BD002A40F094
:102CF000C382DFED657AB4EEE70AF1EE10FA00F177
:102D0000AF84DFED677A654BB4EEE70AF1EE10FAB7
:102D100001F3E98083ED800A10BD002A40F0D883DA
:102D2000DFED607AB4EEE70AF1EE10FA00F1F38419
:102D3000DFED5D7A564BB4EEE70AF1EE10FA01F3DF
:102D4000AE8083ED780A10BD002A40F05883DFED95
:102D5000577AB4EEE70AF1EE10FA00F15484DFED91
:102D6000547A4B4BB4EEE70AF1EE10FA01F39D8072
:102D700083EDE80A10BD002A40F0D683DFED4D7ADE
:102D8000B4EEE70AF1EE10FA40F13084434BC3EDA4
:102D9000007A10BD002A40F0E482DFED3B7AB4EE09
:102DA000E70AF1EE10FA40F180843C4BC3ED1C7A47
:102DB00010BD002A40F04E82DFED337AB4EEE70A10
:102DC000F1EE10FA00F14884DFED357A334BB4EEC2
:102DD000E70AF1EE10FA01F36B8083ED970A10BD5C
:102DE000002A40F01B83DFED287AB4EEE70AF1EE0B
:102DF00010FA00F17884DFED2A7A284BB4EEE70A66
:102E0000F1EE10FA01F3728083EDAE0A10BD002AD4
:102E100040F0F381DFED1C7AB4EEE70AF1EE10FA30
:102E200000F13F84DFED1B7A194BB4EEE70AF1EEB7
:102E300010FA01F34C8083EDB00A10BD002A40F077
:102E40004282DFED187AB4EEE70AF1EE10FA00F1F3
:102E50004684DFED197A114BB4EEE70AF1EE10FA71
:102E600001F3208083ED640A10BD002A40F0218325
:102E7000DFED107AB4EEE70AF1EE10FA40F12284A9
:102E80000E4BC3ED007A10BDCDCC4C3DC4320020BA
:102E9000E42800209A99193F0AD7233DFC2D0020F1
:102EA000CDCC4C3F0AD7233C9A99193E0AD7A33C74
:102EB000CDCCCC3ECDCCCC3DCDCC4C3EE42C00207A
:102EC000002A40F0BD82F6EE007AB4EEE70AF1EE99
:102ED00010FA00F18783F1EE047AD14BB4EEE70AE1
:102EE000F1EE10FACCBFC3EDDB7A83EDDB0A10BD47
:102EF000002A40F02B83F6EE007AB4EEE70AF1EEFA
:102F000010FA00F15683F2EE007AC54BB4EEE70AF0
:102F1000F1EE10FACCBFC3EDFE7A83EDFE0A10BDD0
:102F2000002A40F0DD80DFEDBF7AB4EEE70AF1EE73
:102F300010FA00F17083DFEDBC7ABC4BB4EEE70A07
:102F4000F1EE10FA00F3C68783EDCC0A10BD002A1B
:102F500040F03581DFEDB37AB4EEE70AF1EE10FA16
:102F600040F16183B24BC3ED007A10BD002A40F0FE
:102F70000B81DFEDAC7AB4EEE70AF1EE10FA00F166
:102F80006383F7EE087AAA4BB4EEE70AF1EE10FA83
:102F9000D4BF83EDA90AC3EDA97A10BD002A40F081
:102FA0005E82DFEDA07AB4EEE70AF1EE10FA00F1EE
:102FB000A283F7EE087A9E4BB4EEE70AF1EE10FA20
:102FC000D4BF83EDBF0AC3EDBF7A10BD002A40F025
:102FD000C380DFED947AB4EEE70AF1EE10FA00F167
:102FE0001E83F7EE007A924BB4EEE70AF1EE10FA88
:102FF00000F37F8783ED3E0A10BD002A40F0F08188
:10300000DFED8C7AB4EEE70AF1EE10FA00F14583B9
:10301000DFED897A864BB4EEE70AF1EE10FA00F3A1
:103020003B8783ED730A10BD002A40F07381DFED0A
:10303000837AB4EEE70AF1EE10FA00F11983DFEDBE
:10304000807A804BB4EEE70AF1EE10FA00F3458780
:1030500083ED000A10BD002A40F08782DFED7A7A06
:10306000B4EEE70AF1EE10FA00F14983F1EE047ACA
:10307000764BB4EEE70AF1EE10FACCBFC3ED007A5E
:1030800083ED000A10BD002A3CD1DFED667AB4EE74
:10309000E70AF1EE10FA00F1D382F0EE007A644B09
:1030A000B4EEE70AF1EE10FACCBFC3ED907A83EDEF
:1030B000900A10BDAABBDFED5B7AB4EEE70AF1EE31
:1030C00010FA00F1A482F7EE087A594BB4EEE70A41
:1030D000F1EE10FAD4BF83ED930AC3ED937A10BDDD
:1030E000012A00F0ED84032A7FF43CADB5EEC00A5E
:1030F000F1EE10FA40F10A879FED550A4B4B83ED34
:10310000D00A10BD032A7FF42DADB5EEC00AF1EE52
:1031100010FA40F144879FED4E0A454B83ED920A29
:1031200010BD012A00F00F86032A00F0B083052AA3
:103130007FF418ADB5EEC00AF1EE10FA01F19F80F0
:10314000F7EE007AB4EE670AF1EE10FA37FE800A65
:10315000374B83ED960A10BD022A00F05183032AF3
:103160007FF400ADB5EEC00AF1EE10FA01F18F80E8
:10317000F7EE007AB4EE670AF1EE10FA37FE800A35
:103180002B4B83ED410A10BD012A00F03C86032A37
:1031900000F08883052A7FF4E5ACB5EEC00AF1EEB5
:1031A00010FA01F17080F7EE007AB4EE670AF1EEE2
:1031B00010FA37FE800A1E4B83EDAC0A10BD012ABF
:1031C00040F02D83F3EE0E7AB4EEE70AF1EE10FA3A
:1031D00040F1E382164BC3ED017A10BD032A7FF460
:1031E000C1ACB5EEC00AF1EE10FA40F163879FED75
:1031F000180A0E4B83ED440A10BD012A00F05A85CF
:10320000032A7FF4AFACB5EEC00AF1EE10FA40F13C
:103210009B869FED0F0A054B83EDB40A10BD00BFDE
:10322000FC2D0020CDCC4C3D9A99193FE42800207C
:10323000C43200200AD7233C9A99993E0AD7A33C6E
:10324000CDCC4C3F8C370020CDCCCC3D3838002045
:1032500000000000012A00F0C584032A7FF482AC3C
:10326000B5EEC00AF1EE10FA40F164861FED080ACF
:10327000D24B83ED9C0A10BD012A00F06A84032A18
:103280007FF470ACB5EEC00AF1EE10FA40F148865A
:103290009FEDCB0AC94B83ED850A10BD032A7FF44D
:1032A00061ACB5EEC00AF1EE10FA00F12587F7EE39
:1032B000007AB4EE670AF1EE10FA37FE800AC14BCD
:1032C00083ED930A10BD032A7FF44CACB5EEC00A1F
:1032D000F1EE10FA40F1B6869FEDB90AB74B83EDD7
:1032E000660A10BD022A00F04682032A7FF43AAC37
:1032F000B5EEC00AF1EE10FA00F18687F7EE007A1B
:10330000B4EE670AF1EE10FA37FE800AAD4B83ED9A
:10331000220A10BD012A00F05B82032A7FF422AC4E
:10332000B5EEC00AF1EE10FA40F1D8869FEDA40A7E
:10333000A54B83ED000A10BD032A7FF413ACB5EE54
:10334000C00AF1EE10FA00F1D386F7EE007AB4EE7F
:10335000670AF1EE10FA37FE800A984B83ED360AC1
:1033600010BD022A00F02682032A00F05486042AA7
:103370007FF4F8ABB5EEC00AF1EE10FA00F18F87DA
:10338000F7EE007AB4EE670AF1EE10FA37FE800A23
:103390008A4B83ED1E0A10BD012A00F0FF82032A2A
:1033A0007FF4E0ABB5EEC00AF1EE10FA40F1D6853D
:1033B0009FED830A834B83ED980A10BD012A00F02C
:1033C000C681032A7FF4CEABB5EEC00AF1EE10FA47
:1033D00040F1CE859FED7A0A7A4B83ED050A10BD48
:1033E000032A7FF4BFABB5EEC00AF1EE10FA40F14C
:1033F0006B869FED730A754B83ED750A10BD032A2A
:103400007FF4B0ABB5EEC00AF1EE10FA40F12486BD
:103410009FED6B0A6B4B83EDEB0A10BD012A00F0A8
:103420000683032A7FF49EABB5EEC00AF1EE10FAD4
:1034300040F162859FED620A604B83EDB30A10BDD7
:10344000032A7FF48FABB5EEC00AF1EE10FA40F11B
:10345000B0859FED5B0A594B83EDDF0A10BD012A51
:1034600000F04682032A00F00782052A7FF47AAB37
:10347000B5EEC00AF1EE10FA00F1F386F7EE007A2D
:10348000B4EE670AF1EE10FA37FE800A4F4B83ED77
:10349000C20A10BD032A7FF465ABB5EEC00AF1EE97
:1034A00010FA40F19A859FED460A444B83ED7F0A5E
:1034B00010BD032A7FF456ABB5EEC00AF1EE10FA48
:1034C00040F18A849FED3E0A414B83ED000A10BD16
:1034D000032A7FF447ABB5EEC00AF1EE10FA40F1D3
:1034E000C5859FED370A374B83ED7A0A10BD012A57
:1034F0004AD0022A00F08585032A00F00186042ABA
:103500007FF430ABB5EEC00AF1EE10FA00F1C386DD
:10351000F7EE007AB4EE670AF1EE10FA37FE800A91
:103520002A4B83ED1F0A10BD012A00F0FC80032AFC
:103530007FF418ABB5EEC00AF1EE10FA40F1228527
:103540009FED1F0A1D4B83ED080A10BD032A7FF46F
:1035500009ABB5EEC00AF1EE10FA40F134859FEDEB
:10356000180A1C4B83ED000A10BD032A7FF4FAAA47
:10357000B5EEC00AF1EE10FA40F139859FED100A60
:10358000154B83ED000A10BDDFED147AB4EEE70AA7
:10359000F1EE10FA00F11881DFED117A0B4BB4EE69
:1035A000E70AF1EE10FAD4BF83ED200AC3ED207ACA
:1035B00010BD024BC3EDFE7A10BD00BFFC2D0020F4
:1035C00000000000E428002094370020C4320020CE
:1035D000F02C002000320020403800200000C842BB
:1035E0000000AF43B54BC3EDDB7A10BDF7EE087AB0
:1035F000B24BB4EEE70AF1EE10FACCBFC3ED007A9D
:1036000083ED000A10BDAE4BC3EDE87A10BDAD4BA3
:10361000C3ED937A10BDAA4BC3EDCC7A10BDA94B74
:10362000C3ED3E7A10BDF0EE007AA64BB4EEE70A89
:10363000F1EE10FAD4BF83ED000AC3ED007A10BD9D
:10364000A04BC3ED907A10BD9E4BC3EDA97A10BD7F
:103650009B4BC3ED417A10BD984BC3ED977A10BDDB
:10366000964BC3ED807A10BD954BC3ED917A10BD9A
:10367000954BC3ED007A10BD904BC3ED337A10BD6E
:10368000DFED927A8E4BB4EEE70AF1EE10FAD4BF7A
:1036900083ED000AC3ED007A10BD8A4BC3ED737A47
:1036A00010BD874BC3EDB07A10BDDFED887A834B38
:1036B000B4EEE70AF1EE10FAD4BF83ED1C0AC3EDB5
:1036C0001C7A10BDF0EE087A814BB4EEE70AF1EEF9
:1036D00010FAD4BF83ED000AC3ED007A10BD774B1A
:1036E000C3ED647A10BD754BC3EDAE7A10BDB0EE7C
:1036F000670AFFF734BA734BC3EDBF7A10BD754B41
:10370000C3ED007A10BD6E4BC3ED947A10BD6C4BC7
:10371000C3ED1D7A10BD6A4BC3ED787A10BD674BBF
:10372000C3ED7D7A10BDF3EE0E7AB4EEE70AF1EE4A
:1037300010FA61D4DFED687A604BB4EEE70AF1EE7F
:1037400010FACCBFC3ED017A83ED010A10BDDFEDA5
:10375000677AB4EEE70AF1EE10FA16D4DFED5F7A7D
:10376000574BB4EEE70AF1EE10FACCBFC3ED017A85
:1037700083ED010A10BDB5EEC00A0022F1EE10FA89
:1037800040F1FF804E4B9A6710BD4D4BC3ED017A5F
:1037900010BD9FED530AFFF705BADFED4F7A494B95
:1037A000B4EEE70AF1EE10FAD4BF83ED010AC3EDDF
:1037B000017A10BDB5EEC00A0022F1EE10FA40F118
:1037C00015833E4B5A6710BD3E4BC3ED207A10BDAA
:1037D000DFED447AB4EEE70AF1EE10FA1BD4F7EE0F
:1037E000087A414BB4EEE70AF1EE10FACCBFC3ED14
:1037F000007A83ED000A10BD304BC3ED017A10BD95
:10380000B5EEC00A0022F1EE10FA40F18D842D4B86
:10381000C3F8FC2010BD344BC3ED007A10BD022A62
:1038200011D1B5EEC00AF1EE10FA00F1B583F7EE52
:10383000007AB4EE670AF1EE10FA37FE800A214BE7
:1038400083ED050A10BD032A40F02D85B5EEC00AB0
:103850000023F1EE10FA02D51A4AD36110BDF7EE3B
:10386000007A184BB4EEE70AF1EE10FACCBFC3EDC4
:10387000077A83ED070A10BDB5EEC00A0023F1EE0A
:1038800010FA40F178840F4AC2F80C3310BDB5EE3F
:10389000C00A0023F1EE10FA40F15384094AC2F83D
:1038A0005C3210BDB5EEC00A0023F1EE10FA40F113
:1038B0005584044AC2F8B43210BD00BFFC2D00206C
:1038C000E4280020C43200208C370020CDCC4C3FAF
:1038D000E42C0020383800200000F0420000C842EC
:1038E000000000003333333F9037002000002042B7
:1038F0005FED027AE04CB4EEE70ADFEDE06A94EDAA
:10390000C47AF1EE10FA67EE266A00F18F84DFEDDB
:10391000DC7AB4EEE70AF1EE10FA40F35A84B0EE26
:10392000670ADFEDD87AF4EE676A9FEDD76A37EE63
:10393000077A84EDC00AF1EE10FA48BFF0EE667A1D
:1039400067EE867A87EE870A2EF07CFCDFEDCF7A71
:1039500084EDCA0AC4EDCB7AF7EE006A70EE277ADE
:10396000B0EE666AA0EE276A86EE867A60EE077A87
:1039700084EDCC7A20EE270AC4EDCD7A84EDCE0A10
:1039800010BDF7EE007AC24BB4EEE70AF1EE10FA82
:10399000D4BF83ED1E0AC3ED1E7A10BDDFEDC47ADD
:1039A000BB4CB4EEE70ADFEDB56A94ED997AF1EE1F
:1039B00010FA67EE266A00F13F84DFEDB67AB4EEC6
:1039C000E70AF1EE10FA40F30A84B0EE670ADFED81
:1039D000B27AF4EE676A9FEDAC6A37EE077A84ED4F
:1039E000950AF1EE10FA48BFF0EE667A67EE867A35
:1039F00087EE870A2EF026FCDFEDA87A84ED9F0A79
:103A0000C4EDA07AF7EE006A70EE277AB0EE666A2F
:103A1000A0EE276A86EE867A60EE077A84EDA17AB8
:103A200020EE270AC4EDA27A84EDA30A10BDDFEDD3
:103A30009C7A9C4CB4EEE70ADFED906A94EDB47A80
:103A4000F1EE10FA67EE266A00F1EB83DFED917A72
:103A5000B4EEE70AF1EE10FA40F3D183B0EE670A54
:103A6000DFED917AF4EE676A9FED876A37EE077AA9
:103A700084EDAF0AF1EE10FA48BFF0EE667A67EE19
:103A8000867A87EE870A2EF0DDFBDFED887A84EDFB
:103A9000BA0AC4EDBB7AF7EE006A70EE277AB0EE90
:103AA000666AA0EE276A86EE867A60EE077A84ED73
:103AB000BC7A20EE270AC4EDBD7A84EDBE0A10BDA3
:103AC000DFED7B7A724CB4EEE70ADFED6C6A94EDC1
:103AD000D17AF1EE10FA67EE266A00F1CB83DFEDC2
:103AE0006D7AB4EEE70AF1EE10FA40F35683B0EEC9
:103AF000670ADFED697AF4EE676A9FED636A37EE75
:103B0000077A84EDCD0AF1EE10FA48BFF0EE667A3E
:103B100067EE867A87EE870A2EF094FBDFED5F7AF8
:103B200084EDD70AC4EDD87AF7EE006A70EE277AF2
:103B3000B0EE666AA0EE276A86EE867A60EE077AB5
:103B400084EDD97A20EE270AC4EDDA7A84EDDB0A17
:103B500010BDDFED537A534CB4EEE70ADFED476A50
:103B600094ED867AF1EE10FA67EE266A00F16A8328
:103B7000DFED487AB4EEE70AF1EE10FA40F3358350
:103B8000B0EE670ADFED487AF4EE676A9FED3E6AB1
:103B900037EE077A84ED810AF1EE10FA48BFF0EEB5
:103BA000667A67EE867A87EE870A2EF04BFBDFEDAA
:103BB0003F7A84ED8C0AC4ED8D7AF7EE006A70EEE0
:103BC000277AB0EE666AA0EE276A86EE867A60EE05
:103BD000077A84ED8E7A20EE270AC4ED8F7A84ED81
:103BE000900A10BDDFED2E7A2E4CB4EEE70ADFED21
:103BF000236A94ED9D7AF1EE10FA67EE266A00F1E1
:103C00002683DFED247AB4EEE70AF1EE10FA40F3F2
:103C1000C982B0EE670ADFED247AF4EE676A9FEDA1
:103C20001A6A37EE077A84ED980AF1EE10FA48BF67
:103C3000F0EE667A67EE867A87EE870A2EF002FB50
:103C4000DFED1A7A84EDA30AC4EDA47AF7EE006AD8
:103C500070EE277AB0EE666AA0EE276A86EE867A64
:103C600060EE077A84EDA57A20EE270AC4EDA67AE5
:103C700084EDA70A10BD00BFC432002048E1FA3E1F
:103C80000000FA4300007A45DB0FC940ABAA2A3F87
:103C9000E42800200000C843000016455555553F54
:103CA00000007042FC2D002000002F456EDB363FE7
:103CB000000048425FED027AF14CB4EEE70ADFED16
:103CC000F16A94EDB57AF1EE10FA67EE266A00F12A
:103CD000C382DFEDED7AB4EEE70AF1EE10FA40F3BD
:103CE0006682B0EE670ADFEDE97AF4EE676A9FED6F
:103CF000E86A37EE077A84EDB10AF1EE10FA48BFB0
:103D0000F0EE667A67EE867A87EE870A2EF09AFAE8
:103D1000DFEDE07A84EDBB0AC4EDBC7AF7EE006A11
:103D200070EE277AB0EE666AA0EE276A86EE867A93
:103D300060EE077A84EDBD7A20EE270AC4EDBE7AE4
:103D400084EDBF0A10BDDFEDD47AD44CB4EEE70A9F
:103D5000DFEDCC6A94ED987AF1EE10FA67EE266A00
:103D600000F18382DFEDCE7AB4EEE70AF1EE10FACD
:103D700040F30E82B0EE670ADFEDCA7AF4EE676AAE
:103D80009FEDC36A37EE077A84ED940AF1EE10FADC
:103D900048BFF0EE667A67EE867A87EE870A2EF0E5
:103DA00051FADFEDC17A84ED9E0AC4ED9F7AF7EEF9
:103DB000006A70EE277AB0EE666AA0EE276A86EE99
:103DC000867A60EE077A84EDA07A20EE270AC4EDA9
:103DD000A17A84EDA20A10BDF7EE007AB4EE670A6C
:103DE000F1EE10FA37FE800AFFF76EBBF7EE007AAD
:103DF000AE4BB4EEE70AF1EE10FAD4BF83ED1D0A24
:103E0000C3ED1D7A10BDDFEDA47AA44CB4EEE70A31
:103E1000DFED9C6A94EDAE7AF1EE10FA67EE266A59
:103E200000F1FA81DFED9E7AB4EEE70AF1EE10FAC6
:103E300040F3E081B0EE670ADFED9A7AF4EE676A4C
:103E40009FED936A37EE077A84EDAA0AF1EE10FA35
:103E500048BFF0EE667A67EE867A87EE870A2EF024
:103E6000F1F9DFED917A84EDB40AC4EDB57AF7EE9D
:103E7000006A70EE277AB0EE666AA0EE276A86EED8
:103E8000867A60EE077A84EDB67A20EE270AC4EDD2
:103E9000B77A84EDB80A10BDC3ED737A10BDC3EDD7
:103EA000787A10BDC3ED647A10BDC3EDE87A10BD19
:103EB000C3ED977A10BDC3ED917A10BDC3ED337A8F
:103EC00010BDC3ED417A10BDC3ED1D7A10BDC3ED29
:103ED000B07A10BDC3EDCC7A10BDC3ED007A10BD31
:103EE000C3ED947A10BDC3ED807A10BDC3EDAE7AF8
:103EF00010BDC3ED3E7A10BDF7EE007AB4EE670A4E
:103F0000F1EE10FA37FE800AFFF796BAF7EE007A64
:103F1000B4EE670AF1EE10FA37FE800AFFF7EEB84A
:103F2000F7EE007AB4EE670AF1EE10FA37FE800A77
:103F3000FFF7B0B9F7EE007AB4EE670AF1EE10FAC7
:103F400037FE800AFFF794B9F7EE007AB4EE670AFD
:103F5000F1EE10FA37FE800AFFF75DB9F7EE007A4E
:103F6000B4EE670AF1EE10FA37FE800AFFF722BAC4
:103F7000F7EE007AB4EE670AF1EE10FA37FE800A27
:103F8000FFF72ABAF7EE007AB4EE670AF1EE10FAFC
:103F900037FE800AFFF7D6BA9FED450A4FE4F7EEE9
:103FA000007AB4EE670AF1EE10FA37FE800AFFF7E6
:103FB000B4B8F7EE007AB4EE670AF1EE10FA37FE05
:103FC000800AFFF748BAF7EE007AB4EE670AF1EE1E
:103FD00010FA37FE800AFFF7C4BAF7EE007AB4EEA3
:103FE000670AF1EE10FA37FE800AFFF75EBAF7EEC5
:103FF000007AB4EE670AF1EE10FA37FE800AFFF796
:10400000BFBAB5EEC00A0023F1EE10FA40F1D48039
:10401000224A936710BDB5EEC00A0022F1EE10FAF5
:104020000CD4F7EE007A214BB4EEE70AF1EE10FA69
:10403000D4BF83ED200AC3ED207A10BD1B4BC3F81B
:10404000802010BDF7EE007AB4EE670AF1EE10FAA8
:1040500037FE800AFFF742B9F7EE007AB4EE670A3E
:10406000F1EE10FA37FE800AFFF7D4B9F7EE007AC6
:10407000B4EE670AF1EE10FA37FE800AFFF733BAA2
:10408000E428002048E1FA3E0000C843000016453D
:10409000DB0FC9405555553F00002042C432002077
:1040A0000000FA4300007A45ABAA2A3FFC2D00200D
:1040B00000000000F7EE007AB4EE670AF1EE10FAA5
:1040C00037FE800AFFF795B8F7EE007AB4EE670A7C
:1040D000F1EE10FA37FE800AFFF78DB9F7EE007A9D
:1040E000B4EE670AF1EE10FA37FE800AFFF720B946
:1040F0001FED110AFFF731B91FED130AFFF7DFB803
:10410000B5EEC00A0022F1EE10FA00F18180F7EE60
:10411000007AA44BB4EEE70AF1EE10FAD4BF83EDB7
:10412000210AC3ED217A10BDF7EE007A9D4BB4EE63
:10413000E70AF1EE10FAD4BF83ED3F0AC3ED3F7AF0
:1041400010BDF7EE007A974BB4EEE70AF1EE10FAE5
:10415000D4BF83ED970AC3ED977A10BDF7EE007ACE
:10416000904BB4EEE70AF1EE10FAD4BF83EDAD0A3E
:10417000C3EDAD7A10BDF7EE007A8A4BB4EEE70AD4
:10418000F1EE10FAD4BF83EDC30AC3EDC37A10BDBC
:10419000F2EE007A60EE277AF0E5F1EE087A60EE52
:1041A000277AA8E4F1EE0C7A60EE277A35E5F1EE95
:1041B000087A60EE277A98E5F7EE007A794BB4EE4C
:1041C000E70AF1EE10FAD4BF83ED1E0AC3ED1E7AA2
:1041D00010BDF2EE007A60EE277AFFF7A4BBF1EE95
:1041E000087A60EE277AFFF7F4BBF1EE0C7A60EE06
:1041F000277AC9E4F2EE007A60EE277A1EE6F1EE45
:104200000C7A60EE277A2DE49FED670AFFF77EB8FF
:10421000644BC3F8842010BDB0EE670ADFED637A0B
:104220000CE6B0EE670ADFED627A1BE4B0EE670AD7
:10423000DFED5E7AFFF777BBB0EE670ADFED5D7A00
:10424000FFF7C7BBB0EE670ADFED597A9CE4B0EE2A
:10425000670ADFED577AE0E4B0EE670ADFED557AE2
:1042600043E59FED510AFFF711B9B0EE670ADFEDA4
:104270004F7A83E5B0EE670ADFED4E7A3BE49FEDBF
:104280004A0AFEF765BF9FED480AFEF794BF9FED0F
:10429000460AFEF775BF9FED440AFFF741B99FED4F
:1042A000420AFFF775B8042A12D1B5EEC00A0023FE
:1042B000F1EE10FA26D4F6EE007A3A4BB4EEE70AA5
:1042C000F1EE10FACCBFC3ED067A83ED060A10BDFD
:1042D000052A1AD1F7EE007AB4EEE70AF1EE10FAE9
:1042E0000CD4F3EE047A2F4BB4EEE70AF1EE10FA99
:1042F000CCBFC3ED037A83ED030A10BD294BC3ED98
:10430000037A10BD274A936110BD062A7EF42AACB9
:10431000DFED297AB4EEE70AF1EE10FA05D5B0EE3A
:10432000670A204B83ED020A10BDF6EE007AB4EE68
:10433000670AF1EE10FA37FE800AF2E7032A7EF4EC
:1043400011ACB5EEC00AF1EE10FA19D59FED160AC0
:104350000A297EF407AC194B83ED000A10BD032A2D
:104360007EF400ACB5EEC00AF1EE10FA11D59FED67
:104370000E0A0A297EF4F6AB114B83ED000A10BD3C
:10438000F0EE007AB4EE670AF1EE10FA37FE800A1A
:10439000DEE7F0EE007AB4EE670AF1EE10FA37FECF
:1043A000800AE6E7C4320020000000000000A043BD
:1043B0000000D243000096430AD7233CEC2D002096
:1043C000B43200200306F0B5064685B00F4600F172
:1043D0009B800A25FF24012160481CF069FB012312
:1043E0000DF10F020DF10E015D4800958DF80E40A4
:1043F0008DF80F401EF068FF002158481CF058FB54
:1044000001230DF10F020DF10E01554800958DF8B5
:104410000E408DF80F401EF057FF01230DF10F02E3
:104420000DF10E014E4800958DF80E608DF80F408D
:104430001EF04AFF3B0E0DF10F020DF10E01484830
:104440008DF80E30012300958DF80F401EF03CFFD3
:104450003B0C0DF10F020DF10E0141488DF80E30AD
:10446000012300958DF80F401EF02EFF3B0A0DF141
:104470000F020DF10E013A488DF80E300123009520
:104480008DF80F401EF020FF01230DF10F020DF1FA
:104490000E01334800958DF80E708DF80F401EF018
:1044A00013FF402E39D0482E48D001270DF10F02BE
:1044B0000DF10E012A483B4600958DF80F408DF80E
:1044C0000E701EF001FF4C2E3AD00A240A254FF040
:1044D000FF0C01230DF10F020DF10E012048009594
:1044E0008DF80EC08DF80FC01EF0EEFE9DF90F2066
:1044F000631E9DF80F00002A01DB05B0F0BD13F02C
:10450000FF04E3D105B0F0BD00217720FFF75AFF8B
:104510000128F2D806F07F065BE795230A21FF22E7
:104520008DF80E30012300910DF10E018DF80F2052
:104530000DF10F020A481EF0C7FEC6E78723EDE71C
:104540003B460DF10F020DF10E01009504488DF868
:104550000E408DF80F401EF0B7FEB6E7183C002065
:104560002C3C00204E4B70B51B7888B043B10C46F4
:104570001646032900F29180DFE801F00C3552065F
:104580000325284608B070BD012313600025284686
:1045900008B070BD002143481CF08AFA1FF040F8B3
:1045A000064605E01FF03CF8801BB0F5FA7F67D2A5
:1045B0000A254FF0FF0C012304AA0DF10F013A4820
:1045C00000958DF80FC08DF810C01EF07DFE9DF88F
:1045D0001030FF2BE6D12546012132481CF068FA45
:1045E000284608B070BD00214920FFF7EBFE0546C4
:1045F000D0B1254601212B481CF05AFAFF210A2090
:1046000001238DF80E100DF10F0200908DF80F10A0
:104610000DF10E0124481EF057FE284608B070BD6B
:104620004FF400731380B1E710210DEB0100FDF78B
:104630000BFE0028DDD09DF810109DF81920890987
:104640009DF818009DF8173001291BD09B005200DF
:1046500003EB90139DF8160002F00601820201336D
:104660009DF81A0002F4406213449DF8152002F0F0
:104670000F0202EBD0120A44073A93403360B9E7C5
:104680000124A8E7BDF818201B0452BA03F47C13D8
:1046900092B2134301339B02F0E7042571E700BF98
:1046A000B8390020183C00202C3C0020274870B569
:1046B000007884B000283DD01C4643070D461146C3
:1046C00058BF5102012C2FD05920FFF77BFE064620
:1046D000D0B1261E18BF012601211D481CF0E8F9A3
:1046E000FF210A2001238DF80E100DF10F0200901A
:1046F0008DF80F100DF10E0116481EF0E5FD304645
:1047000004B070BD013C0AD02846FC2105F50075B7
:10471000FEF762F90028F5D1261E18BF0126FD21FB
:104720000020FEF759F9D7E75820FFF74BFE28B1D4
:104730002646D1E70326304604B070BDFE21284648
:10474000FEF74AF980F00106F6B2C5E7B839002055
:10475000183C00202C3C0020284870B5007884B01C
:1047600000283ED01C4643070D46114658BF510253
:10477000012C30D05220FFF725FE0646D0B1261E70
:1047800018BF012601211E481CF092F9FF210A20C2
:1047900001238DF80E100DF10F0200908DF80F100F
:1047A0000DF10E0117481EF08FFD304604B070BDAC
:1047B000013C0BD028464FF4007105F50075FDF75C
:1047C00043FD0028F4D1261E18BF012600214C20ED
:1047D000FFF7F8FDD6E75120FFF7F4FD28B1264694
:1047E000D0E70326304604B070BD4FF40071284670
:1047F000FDF72AFD80F00106F6B2C3E7B8390020C4
:10480000183C00202C3C00202DE9F0430A2485B000
:10481000012160481CF04CF90A254FF0FF0C0DF106
:104820000B01012303AA5C4800958DF80BC08DF89D
:104830000CC01EF049FD611E11F0FF04ECD12146B1
:104840004020FFF7BFFD01281AD00DEB050601251A
:10485000012150481CF02CF9FF230DF10B023146C9
:104860008DF80A308DF80B300A234B480093012352
:104870001EF02AFD494B28461C7005B0BDE8F083A8
:104880001EF0CEFE4FF4D57180464820FFF79AFD0A
:10489000012858D103AD0DF110090DF10A062F467C
:1048A0000A230DF10B0231463B480093FF238DF89C
:1048B0000A308DF80B3001231EF006FD9DF80B30F9
:1048C00007F8013B4F45EBD19DF80E30012BBED1CF
:1048D0009DF80F30AA2BBAD102E0FFF773FD50B15B
:1048E0001EF09EFE03464FF08041E920A3EB080333
:1048F000B3F57A7FF1D31EF093FEA0EB0803B3F576
:104900007A7FA4D200217A20FFF75CFD00289ED197
:10491000FF230DF10B0231461F488DF80A308DF848
:104920000B300A23009301231EF0CEFC9DF80B30C0
:1049300005F8013B4D45EBD19DF80C5015F04005B5
:1049400025D1022484E72146E920FFF73BFD012819
:1049500005D90DF10A067AE7FFF734FD48B11EF0DC
:104960005FFE03460021E920A3EB0803B3F57A7F3D
:10497000F2D34FF400715020FFF724FD00280DF111
:104980000A060DBF012400240125002560E700254B
:1049900006245DE7183C00202C3C0020B83900209C
:1049A00090F82C30002B00F01181DFED8E7A10B5DD
:1049B0002DED088B90ED088A0446B4EEE78AF1EEFF
:1049C00010FA00F3DF80DFED887AF7EE00AA94EDAD
:1049D000118A94ED017A94ED0C9A38EE2A8AD4ED7E
:1049E000038AF1EE499A94ED020A38EE278A89EE9D
:1049F000800A28EE078A2DF0E3FD94ED0AAAD4ED93
:104A00000D7A68EE288AA8EE808AEAEE087AF4EE3B
:104A1000EA7AB0EE670AF1EE10FAA8BF37EEEA0ABA
:104A2000DFED727A84ED0D0A20EE270A2EF048F8A9
:104A3000B6EE006A94ED0E7AF7EE006ADFED6B7A5F
:104A4000F0EE408A28EE068AAAEE087AB4EEE67AFC
:104A5000F1EE10FAA8BF37EE667A27EE270A84ED4A
:104A60000E7A2EF02DF8D4ED047AF0EE40AA94EDF3
:104A700006BA89EEA70A2DF0A3FD616E236FD4ED6F
:104A8000186ACA1894ED177AB0EE666AD4ED154A22
:104A900005EE902AF0EE667A9FED553AB0EE005A98
:104AA000F8EEE55AD4ED163AA7EE246A94ED144ACE
:104AB000B0EE408A94ED000AD5EE837A89EE800A42
:104AC000A7EEA36A67EEA47AD4E91A20E4EE077A87
:104AD00053404840D6EE056A59404FEA7353616629
:104AE00080EA422197EE857A4240236728EE278AA2
:104AF000C4ED186AC4E91A2184ED177A2DF060FD1F
:104B0000F0EE687AF6EE006AD4ED055AB1EE006A6E
:104B1000EAEE8B7AB7EE007AA5EE867AE8EE267A90
:104B2000F5EEC07A67EE877AF1EE10FA51DDF3EE1A
:104B30000B6AF2EE025A27EEA77AB0EE666A39EEF9
:104B40000A9AA7EE256A37EE267A84ED0C9A27EEAC
:104B5000277AC7EE067A9FED277AB4EEC70AF1EE00
:104B600010FA02D5002384F82C3027EE800A94ED49
:104B7000077AD4ED0F7A20EE070ABDEC088B20EE01
:104B8000270A10BD9FED1C7ADFED1C7A90ED100A0C
:104B9000E8EE077AD0ED0A6AB7EE007AA7EEA60A29
:104BA000DFED177AB4EEC70AF1EE10FAA8BF30EEC7
:104BB000470A80ED100A20EE270A2DF081FF28EE2B
:104BC000008ADFED107A68EE277AFEE69FED060A8E
:104BD00070479FED0D7AF3EE0B6AF2EE025A67EE24
:104BE000877AA8E76F12833A00000000DB0FC94004
:104BF000000000306F12033A9A99993F9A99993EB2
:104C0000DA0FC940A69B443B3333333FB5EEC00AAD
:104C1000012238B5F1EE10FA4FF0000304462DEDF5
:104C2000088BB0EE408A80F82020B7EE000A43627D
:104C3000C362836207D4B4EEC08AF1EE10FA40F387
:104C40000C81B2EE040A2DF02FFDD4ED057A9FED14
:104C5000AD7ADFEDAD6AF4EEC77A20EE260AF1EE0A
:104C600010FA84ED0C0A00F30F81F2EE085AD4ED2D
:104C7000016AF3EE0C7AD4ED038AB2EE006A94ED89
:104C8000060AB2EE0E7A9FEDA1AAE6EEA57A94EDA1
:104C900002BADFED9F9A20EE0AAAA6EE867ADFED31
:104CA0009D6A9FED9D6ADFED9DAAEBEE069A68EE88
:104CB000A77A60EE2AAA68EE878AF4EEE67AF1EE29
:104CC00010FA0FD4B4EEE7AAF1EE10FA0CD5F2EE1A
:104CD000047AB4EEE7AAF1EE10FA40F11081DFEDAC
:104CE000907A0BE0F0EE667AF4EEEA7AF1EE10FAE2
:104CF00000F3AE809FED8B7A67EE877A30EE009AF4
:104D000087EE890A2DF09EFA84ED0F0AF6EE007AFE
:104D1000F4EEE79AF1EE10FA00F1B380DFED827A5B
:104D2000F4EEE79AF1EE10FA00F3DB80B7EE007ACA
:104D3000C7EE297AC4ED107ADFED7C6ADFED7C5A8C
:104D4000DFED7C9AB7EE007A30EE275AF4EEE68A71
:104D5000B0EE476AEBEE259AF1EE10FAA0EE056A86
:104D6000C7EE067A20EE277AC4ED117A60EE077A54
:104D700084ED127AC4ED137A77D4B4EEE8AAF1EE9A
:104D800010FA74D5F2EE047AB4EEE7AAF1EE10FA56
:104D900040F1B2809FED620A80EE090A2DF052FACE
:104DA00084ED160AF6EE007AF4EEE79AF1EE10FAC8
:104DB00058D4DFED5D7AF4EEE79AF1EE10FA00F3E5
:104DC0009380F7EE007A87EEA97A84ED177A0023B4
:104DD0009FED596A04F17001584A6365F7EE007A55
:104DE000236570EE075A236728EE068AE366F0EE25
:104DF000676A534DBCEEC88AE0EE256A18EE103A99
:104E0000534087EEA67A1A461D4460EE077A84ED79
:104E1000187A20EE270AC4ED197A84ED1A0AA2F155
:104E2000C342484C4848A2F59102A2F2476282EA86
:104E30001243AA4204FB03F383EA533300FB03F358
:104E400083EA134341F8043FE9D1BDEC088B38BD38
:104E5000DFED347A6AEEA77A50E7F2EE027AA8EE36
:104E6000270AF0E6B0EE007AAFE7F0EE668AF4EEDD
:104E7000EA8AF1EE10FA3ADD9FED2A0A2AEE800A5C
:104E80008AE7F0EE007A55E7606FFFEE006AD4F82B
:104E90008030F0EE005ADFED2D4AC1189FED2C6AEC
:104EA00089B207EE101AB8EEC77AD4E91E2587EE4C
:104EB000245A4540534085EA422158406A404FEA0F
:104EC0007353B0EE667A6067C4F88030C4E91E217F
:104ED000A5EE257A67EE877A67EE867AC4ED0E7ABC
:104EE000C3E6DFED1C7A25E79FED1A7A6DE7DFED6B
:104EF0000D7A28EEA70A4FE7F0EE4A8AB7E7F0EE00
:104F00004A7AF1E66F12833AD95BDE3E6666E63E88
:104F10003333B33F00009643CDCC4C3F48E1FA3EDB
:104F2000D2537B42DB0FC9400000204200004843BF
:104F30009A99193F6666663F00409A44D4C3B2A16D
:104F4000E4E6DD786BCAEB8535AEB2C200FF7F4781
:104F50000AD7A33BCDCCCC3C38B590F820302DED12
:104F60000A8B002B00F02A81D0ED058AF7EE007A3B
:104F70009FED957A044690ED0E8AF4EEC78AD0ED47
:104F8000036A38EE278AD0ED079AF1EE10FA28EE80
:104F9000268A20DD9FED8D7A90ED0D0A38EE877A16
:104FA000A7EE290AB4EEE70AF1EE10FAA8BF30EE38
:104FB000670ADFED877A80ED0D0A20EE270A2DF0D3
:104FC0007FFDF7EE007A68EE808A9FED827AE8EE48
:104FD000877A28EE278A94ED0A0AF7EE007ADFED49
:104FE0007EAAA8EE290ADFED7DBAB4EEE70AF1EE5B
:104FF00010FAA8BF30EE670ADFED797A84ED0A0A6D
:1050000020EE270A2DF05CFDDFED766AD4ED0B7AF9
:10501000B7EE007A28EE268AB0EE40AA9FED700A1D
:10502000E8EE297AF4EEC77AF1EE10FAA8BF77EE2F
:10503000C77A27EE800AC4ED0B7A2DF041FDD4ED3E
:10504000098A94ED009AB0EE408ADFED677AB1EEFE
:1050500068CA29EE270A8CEE000A2DF0B1FADFEDBE
:10506000636A94ED01BA28EE2A7A29EE269AF0EEC8
:10507000407AAAEE2B7A8CEE090A27EE278A2DF0C9
:105080009FFA616FF0EE403AD4F8803078EEA98A4A
:10509000D4ED1C4ACD18D4ED156AF0EE647A94ED87
:1050A000146A05EE105AB0EE662AF0EE665ADFED8D
:1050B000502AB8EEC55A94ED123A94ED197AA6EE3C
:1050C000032AD4ED130AD5EE227A94ED1B4AD5EECD
:1050D000225AD4ED181AF0EE642A94ED111AC4ED98
:1050E000098AE4EE072AA5EEA02A65EE835A27EE88
:1050F000873A94ED1A7AE1EE065AA1EE843AE7EE89
:10510000872A9FED3C7AF2EE021AD4E91E20B0EE17
:10511000655AD4ED025A63EE2A7A5340484059400A
:105120004FEA7353E5EE2B7A616780EA42214240F1
:10513000C4F88030C4E91E2167EE807A67EEA57A54
:10514000F3EE0B5AE8EE0B7AB0EE651A67EE877A4B
:1051500027EEA77AA7EE211ADFED271A37EE257A78
:10516000F0EE005AF4EEE13A27EE277AF0EE647A98
:1051700095EE256A87EE010AB0EE447A84ED146A52
:10518000D2EE256AD2EEA57A93EE257AF1EE10FAE8
:10519000C4ED156AC4ED1C7A84ED1B7A0AD494ED33
:1051A000047AD4ED0C7A20EE070ABDEC0A8B20EECF
:1051B000270A38BD002384F82030F0E7BDEC0A8BC5
:1051C0009FED0E0A38BD00BF6F12833ACDCCCC3EA6
:1051D000DA0FC9406F12033B3333B33E6666263F96
:1051E000DB0FC940BE9FEA3FCDCC0C3F6666663FF1
:1051F000000000303333B33F6F12033A0000000069
:10520000037F13B99FED570A704710B52DED068B3C
:10521000D0ED089A044690ED020AB1EE69AA90ED2D
:10522000018A8AEE000A2DF0CBF9D4ED06AAD4ED5E
:10523000097AB0EE047AF7EE006A28EE077AA7EE54
:10524000008AEAEE887AF4EEE67AB0EE670AF1EECA
:1052500010FAA8BF37EEE60ADFED437A84ED090ABB
:1052600020EE270A2DF02CFC9FED407AB0EE408A0C
:105270008AEE070A2DF0A4F9A16C636D94ED117A02
:10528000CA18DFED3B3AB0EE475AD4ED107A06EE7D
:10529000102AF0EE476AD4ED0E8AF0EE005AB8EE0E
:1052A000C66AD4ED0D4AE7EEA86A94ED0F4AB0EE57
:1052B000409A94ED000A96EE235A8AEE000A94ED85
:1052C00003AA65EE288AE5EE046AE4EEA78AD4E92B
:1052D000132096EEA57A53404840D8EEA57A59405F
:1052E0004FEA7353A16480EA42214240636584ED32
:1052F000117A2165C4ED107AE2642DF061F929EE8E
:10530000289ADFED1C7AF3EE0B6AB2EE025A9FED9B
:105310001A6AA9EE0A8AF0EE665AB4EEC60A79EE67
:10532000AA9AF1EE10FA68EE277AC4ED089A27EEF1
:10533000A77AE7EE055A37EE267A27EE277AC7EEE8
:10534000257A67EE807A01D500232377D4ED046AAD
:1053500094ED0A7A27EEA60ABDEC068B20EE070A2A
:1053600010BD00BF00000000DB0FC9400AD7A33BFF
:10537000000000306666A63F6F12033AF7EE007A2F
:105380000023002200F5B06170B52DED088B87EE8B
:10539000809ADFEDDA8ADFEDDA7A044681ED000AE1
:1053A00080ED090A80F82C2060EE288A0364B0EEB4
:1053B000408A4364F4EEE78AF1EE10FA80ED0A9A2F
:1053C00040F1F5819FEDCF0A28EE800A78EE089A29
:1053D00080EE290A2CF036FF84ED120A04F16001F8
:1053E000C94AB7EE047AF7EE007A30EE076A84ED28
:1053F000137AF0EE676AE0EE066A87EEA67A60EE50
:10540000077A84ED147A20EE270AC4ED157A84ED2C
:10541000160AA2F1C342BD4EBD4DA2F59102BD4890
:10542000A2F2476282EA1243824206FB03F383EA56
:10543000533305FB03F383EA134341F8043FE8D1F8
:10544000DFEDB57AF4EEE78AF1EE10FA40F18E81E5
:105450009FEDAC0A28EE800A80EE290A2CF0F2FEBD
:10546000DFEDBC7ADFEDAD6AB7EE007A70EE277A39
:10547000F4EEE68AB0EE476AB0EE40AAF1EE10FA1A
:10548000A0EE276A87EE06BA60EE0BAA60EE2ABA93
:1054900040F17184F0EE407AB7EE007ADFEDA06A59
:1054A0000022C4ED337A77EEA65AC4ED346AB0EE2A
:1054B000476A00239B4804F1E40184F89420A5EE98
:1054C000A76A994A84ED238A84ED249AC4F8A83007
:1054D000C4F8AC3084ED2CAAC7EE066AC4F8B40058
:1054E00084ED2EBAC4ED2FAAC4ED30BA26EEA77A09
:1054F000C4ED356A67EE277A84ED367AC4ED377AE3
:10550000A2F1C342814E824DA2F591028748A2F2D8
:10551000476282EA1243824206FB03F383EA533373
:1055200005FB03F383EA134341F8043FE8D100236A
:1055300004F5A8717E4A84ED428A84ED439A84F88A
:105540001031A2F1C342714E714DA2F5910279481A
:10555000A2F2476282EA1243824206FB03F383EA25
:10556000533305FB03F383EA134341F8043FE8D1C7
:10557000DFED717A0023002284ED598AF4EEE78A88
:1055800084ED5A9A84F86C21C4ED667AF1EE10FA33
:10559000C4F89031C4F8943140F10C819FED590A60
:1055A00028EE800A80EE290A2CF04CFEDFED637AAB
:1055B00084ED6B0A04F5CC71C4ED6C7A604AF7EEA9
:1055C000006A70EE277AB0EE666AA0EE276A86EE71
:1055D000867A60EE077A84ED6D7A20EE270AC4EDB4
:1055E0006E7A84ED6F0AA2F1C342484E484DA2F58F
:1055F00091025448A2F2476282EA1243824206FBB9
:1056000003F383EA533305FB03F383EA134341F8BF
:10561000043FE8D1DFED4C7A0023002284ED768A46
:10562000F4EEE78A84ED779A84F8E021C4ED837A7A
:10563000F1EE10FAC4F80432C4F808325AD59FEDDE
:10564000310A28EE800A80EE290A2CF0FBFDDFEDFE
:105650003B7A84ED880A04F50371C4ED897A384AEF
:10566000F7EE006A70EE277AB0EE666AA0EE276A5F
:1056700086EE867A60EE077A84ED8A7A20EE270A33
:10568000C4ED8B7A84ED8C0AA2F1C3421F4E204DEB
:10569000A2F591022B48A2F2476282EA12438242AB
:1056A00006FB03F383EA533305FB03F383EA134357
:1056B00041F8043FE8D1F2EE006AD4ED947AB2EEFC
:1056C000047A002384ED988A67EEA67A84ED999A8D
:1056D00084F86832F4EEC77AF1EE10FA6DD4F4EE85
:1056E000E87AF1EE10FA40F34183DFED067A28EE16
:1056F000A70A64E09FED150AA5E700BF48E1FA3E5E
:1057000000C05A45DB0FC940008080BD6BCAEB85E5
:1057100035AEB2C2E4665E360080A24500002F4579
:10572000E4388E3F6EDB363FD4C3B2A1B8AA901ADC
:1057300080B3A2C1649A803A0000E1456EDBB63FB7
:105740000DF0ADBAF1D68B330080BB451D43134736
:105750002141FF466EDB363FD77189464CCEAB46C2
:10576000EFB63047D2537B42ABAA2A3F1FED080A5F
:1057700080EE290A2CF066FD5FED0A7AB0EE40AAB1
:105780001FED0B0AB7EE007A80EE290A7AEE277A2F
:10579000F0EE476AE7EE8A6A87EE26BA2CF052FDF1
:1057A000F0EE407A6BEE0AAA6AEE8ABA74E61FED52
:1057B000150A0BE61FED160AF4E61FED160A80EE39
:1057C000290A2CF03FFD5FED187A84ED9E0A04F55E
:1057D0002471C4ED9F7AD94AF7EE006A70EE277AF9
:1057E000B0EE666AA0EE276A86EE867A60EE077AE9
:1057F00084EDA07A20EE270AC4EDA17A84EDA20AF6
:10580000A2F1C342CE4ECF4DA2F59102CE48A2F2F4
:10581000476282EA1243824206FB03F383EA533370
:1058200005FB03F383EA134341F8043FE8D1F2EEAA
:10583000006AD4EDAA7AB2EE047A002384EDAE8A2F
:1058400067EEA67A84EDAF9A84F8C032F4EEC77A98
:10585000F1EE10FA0AD4F4EEE87AF1EE10FA40F321
:105860008082DFEDBA7A28EEA70A01E09FEDC10A37
:1058700080EE290A2CF0E6FCDFEDB57A84EDB40A5F
:1058800004F53A71C4EDB57AAC4AF7EE006A70EEF1
:10589000277AB0EE666AA0EE276A86EE867A60EE18
:1058A000077A84EDB67A20EE270AC4EDB77A84ED44
:1058B000B80AA2F1C342A24EA24DA2F59102A2489B
:1058C000A2F2476282EA1243824206FB03F383EAB2
:1058D000533305FB03F383EA134341F8043FE8D154
:1058E000F2EE006AD4EDC07AB2EE047A002384EDC1
:1058F000C48A67EEA67A84EDC59A84F81833F4EE6C
:10590000C77AF1EE10FA0AD4F4EEE87AF1EE10FA62
:1059100040F32282DFED8D7A28EEA70A01E09FEDA9
:10592000950A80EE290A2CF08DFCDFED897A84ED52
:10593000CA0A04F55071C4EDCB7A804AF7EE006ACA
:1059400070EE277AB0EE666AA0EE276A86EE867A57
:1059500060EE077A84EDCC7A20EE270AC4EDCD7A8A
:1059600084EDCE0AA2F1C342754E764DA2F59102A6
:105970007548A2F2476282EA1243824206FB03F3B1
:1059800083EA533305FB03F383EA134341F8043FEF
:10599000E8D1B2EE047AD4EDF07A002384EDD88A0F
:1059A00084EDD99AF4EEC77A84F8683384EDE18AFD
:1059B00084EDE29AF1EE10FA84F88C3384EDEA8AF1
:1059C00084EDEB9A84F8B03384EDF38A84EDF49A95
:1059D00084F8D4330AD4F4EEE87AF1EE10FA40F306
:1059E000B681DFED5A7A28EEA70A01E09FED610A41
:1059F00080EE290A2CF026FCDFED567A9FED566AE0
:105A0000C4EDFA7A84EDF90AF7EE006A70EE277AAF
:105A1000F4EEC68AF0EE665AF1EE10FAE0EE275A7E
:105A200086EEA57A60EE077A84EDFB7A20EE270AEF
:105A3000C4EDFC7A84EDFD0A7DD59FED440A28EE85
:105A4000800A80EE290A2CF0FDFB9FED447A04F5D4
:105A5000806304F58361424A83ED017AF7EE007AB0
:105A600083ED000A30EE076AF0EE676AE0EE066A40
:105A700087EEA67A60EE077A83ED027A20EE270A97
:105A8000C3ED037A83ED040AA2F1C3422C4E2D4DDF
:105A9000A2F591023348A2F2476282EA124382429F
:105AA00006FB03F383EA533305FB03F383EA134353
:105AB00041F8043FE8D104F22C43002004F2644191
:105AC000294A83ED038A83ED049A84F84004A2F105
:105AD000C3421B4E1B4DA2F591022448A2F247621D
