:020000040800F2
:1000000000000220E97C0008A9450008AB45000873
:10001000AD450008AF450008B145000800000000EC
:10002000000000000000000000000000B3450008D0
:10003000B545000800000000B7450008B9450008B4
:10004000397D0008397D0008397D0008397D0008B8
:10005000397D0008397D0008397D0008397D0008A8
:10006000397D0008397D0008397D0008397D000898
:10007000397D0008397D0008397D0008C145000838
:10008000E1450008397D0008397D0008397D000808
:10009000397D0008397D0008397D0008397D000868
:1000A000397D0008397D0008397D0008397D000858
:1000B000397D0008397D0008397D0008397D000848
:1000C000397D0008397D0008397D0008E5450008C4
:1000D000397D0008397D0008397D0008397D000828
:1000E000397D0008397D0008397D0008397D000818
:1000F000397D0008397D0008397D0008397D000808
:10010000397D0008397D0008397D0008397D0008F7
:10011000397D0008397D0008397D0008397D0008E7
:10012000D1450008397D0008397D0008397D000877
:10013000397D0008397D0008397D0008397D0008C7
:10014000397D0008397D0008397D0008397D0008B7
:10015000397D0008397D0008397D0008397D0008A7
:10016000397D0008397D0008397D0008397D000897
:10017000397D0008397D0008397D00080000000045
:08018000397D0008397D0008FB
:1001880053B94AB9002908BF00281CBF4FF0FF31F6
:100198004FF0FF3000F00CB8ADF1080C6DE904CE5B
:1001A80008F07AFADDF804E0DDE9022304B07047CC
:1001B800704700BF10B5054C237833B9044B13B111
:1001C8000448AFF300800123237010BD880100208C
:1001D80000000000A489000808B5034B1BB10349BF
:1001E8000348AFF3008008BD000000008C01002028
:1001F800A48900080378407843EA00207047037810
:10020800427843EA0223827843EA0243C07843EA09
:100218000060704789B101EB410303F5807303FB6C
:1002280000F0001280EAE073A3EBE073C0EBC0308B
:1002380003F5FF437F3390FBF3F07047F3EE047A46
:10024800B4EEE70AF1EE10FA09D4DFED107AB4EE55
:10025800E70AF1EE10FA04DD9FED0C0A01E0B3EEB7
:10026800040AF3EE047A30EE670A9FED097AC0EECD
:10027800077A9FED087A67EE877AFCEEE77A17EE41
:10028800900AFF2800D9FF20C0B2704700409C4662
:1002980000189C4600007F43DFED137AB4EEE70AAE
:1002A800F1EE10FA09D4F3EE0E7AB4EEE70AF1EEA5
:1002B80010FA04DDB3EE0E0A01E09FED0B0ADFED44
:1002C8000A7A30EE670A9FED097AC0EE077A9FED49
:1002D800087A67EE877AFCEEE77A17EE900AFF282D
:1002E80000D9FF20C0B27047CDCCCC3D3333EF41AD
:1002F80000007F4308B51C4B1B78FBB11B4B1B78D8
:10030800DAB2022B13D0032A19D0012A24D1164BB2
:100318001B78403300FB03F343F3971045F2F05387
:1003280098421EDC124B984208DA114806E00E4B40
:100338001B7803F5807300FB03F3181208BD0A4B02
:100348001978FFF767FF80EAE073A3EBE073B3F572
:10035800167FF3DA0020F1E7034B1978FFF75AFF0D
:10036800ECE745F2F050E9E7FD050020FC05002028
:1003780010AAFFFF034B1A680349044801FB020057
:1003880018607047000000200D6619005FF36E3C8E
:1003980083680239007D00FB0130704738B5044698
:1003A8001430FFF727FF054604F11A00FFF722FF74
:1003B80040EA054038BD037A427A817AA3F16100A8
:1003C800C0B2192801D8203BDBB2A2F16100C0B24B
:1003D800192801D8203AD2B2A1F16100C0B2192877
:1003E80001D82039C9B2572B01D000207047412AC3
:1003F80001D000207047562901D000207047012005
:1004080070470000B0F5004F04DA10F5004F04DB28
:1004180000B2704747F6FF7070470148704700BF49
:100428000080FFFF0F290AD810B5032900D804213E
:10043800C1F11004FFF7E6FF2041A04010BD70474E
:1004480010B5029CB9B18E46C2EB0212D200083236
:100458002168A0EB010C02FB0CF201EBE2322260F6
:10046800BEF1020F08D09B0803F5807303FB02F06E
:100478000012FFF7C7FF10BD821AF4E7014B5B5C5F
:10048800C05C7047B88A00082DE9F04106460F465F
:1004980001F580534FF49662C3F87027012283F860
:1004A8007427002520E005EB85031B013D4AA2FBCC
:1004B8000323DB091233B5FBF3F203FB1252B2EB51
:1004C800530F63D245F2F05006E0FFF753FFC0F335
:1004D8000E43A3F58043580004FB00F0C013FFF758
:1004E80091FF27F815000135B5F5966F50D2C5F57F
:1004F8009668C8EBC8382B4CA4FB0834E409032ED3
:1005080020D801A353F826F0AF040008D30400084C
:10051800210500083D050008FFF72CFFC0F30E4336
:10052800A3F5804303EB43001E4AA2FB08284FEAC9
:100538009814D1E7FFF71EFFC0F30E43A3F58043DD
:100548005800C9E77822B5FBF2F302FB1353182BC6
:1005580013D9C82D14D98C22B5FBF2F302FB13531F
:100568001D2B10D94FF00008FFF704FFC0F30E430E
:10057800A3F5804308EB0300AEE744F25068F3E7C5
:100588004FF00008F0E744F25068EDE70648A3E7AB
:100598000F2E05D80123B340044A11680B4313609A
:1005A800BDE8F081B5814E1B10AAFFFFAC05002005
:1005B8000F2839D830B51D4B41F2787404FB00334D
:1005C80041F274741B5D63B30023092B07DC4FEA07
:1005D800031C174C14F80C401CB10133F5E74FF01D
:1005E800FF33002B1EDB124D4FEA031C05EB0314EF
:1005F8004FF0010E05F80CE060700025656025815C
:100608000C4D35F8100080B26081B0F5007F03D240
:1006180020464FF400744481054800EB0313998188
:100628009A7330BD0023DEE7704700BF4C090020F5
:10063800AC080020D800002008B506E062B608BD66
:100648006FF0090209B2FFF7B3FF72B6214B1B78AE
:10065800214A12789A42F1D01E4A1178C9B21F4B2A
:1006680013F81100C0B2117803EB410393F801C0ED
:100678005FFA8CFC1378013303F00F03137062B632
:1006880000F00F008C2342F6E06103FB0C11144BC1
:100698001B7803FB01F1134B83FB01214911124A1B
:1006A800125C02FB01F183FB0123C917C1EB631143
:1006B8000E4B1B7803FB01F10912B1F5FA4F01DD6E
:1006C8004FF4FA410228BBD0032801D00022B9E731
:1006D8000C22B7E7FF0500200006002004060020D2
:1006E800200100201F85EB5110010020050000208B
:1006F80000B586464FF0000C4FF6FF7010E040083A
:100708000133DBB2072B07D810F0010FF7D04AF2FC
:10071800010282EA5000F3E70CF1010C1FFA8CFC8D
:100728008C4504D21EF80C3058400023EAE75DF8E7
:1007380004FB00000D4B1B78013303F00F030C4A38
:1007480012789A4210D010B4084C94F800C05FFA9E
:100758008CFC084A02F81C00207802EB4002517019
:1007680023705DF8044B7047704700BF00060020F7
:10077800FF050020040600200023184600E001338E
:10078800092B07D81A0104498A5C002AF7D00130DE
:10079800C0B2F4E7704700BFAC080020002300E0B7
:1007A8000133092B0FD81A0107498A5C002AF7D0B0
:1007B80001EB031252788242F2D11A014FF0000C79
:1007C80001F802C0ECE77047AC080020002304E001
:1007D8001A010349002088540133092BF8D97047BE
:1007E800AC0800200023204A1354204AC821115481
:1007F8001F4A202111541F4A42F820301E4A135420
:100808001E4A102111541E4A13541E4A22F8103051
:100818001D4A13541D4A22F810301D4A13541D4A0C
:10082800802111541C4A13541C4A22F810301C4AC7
:1008380042F820301B4A13541B4A13541B4A1354C2
:100848001B4A962122F810101A4A782122F8101013
:10085800194A22F81030194A1354194A22F810304C
:10086800184A22F8103070470C0500208800002034
:1008780078000020CC040020AC04002058000020A0
:100888008C0500206C0500209C0400207C040020BE
:100898006C040020480000205C0400203C04002078
:1008A800FC030020EC030020DC030020CC03002024
:1008B8002800002008000020AC0300209C03002032
:1008C8007C0300205C0300202DE9F04F83B0984B97
:1008D800196801F03F07974B1C68A309C4F38214F9
:1008E80001F00F05C1F3011BA21E012A05D9062C30
:1008F80001D0002002E0012000E001208E4A1070A3
:1009080013F0040808D1012C01D0002005E0BBF148
:10091800030F0ED0002000E00120884A1070022C3E
:1009280009D90120864A10705DB1082D05D0002232
:1009380008E00120F1E70020F4E7002C44D1002270
:1009480000E001220B2D41D00E2D41D013F0010FF4
:1009580001D00F2D3ED013F0060303D01E2F3BD03D
:100968003E2F3BD0012C3BD0052C39D0042D40D054
:100978000C2D41D04FF0000A022C03D9142F3ED081
:10098800342F3FD0B8F1000F01D00F2D3DD011F01A
:10099800010F40D04FF00009022D3FD00A2D3DD065
:1009A800002C43D001F0070006283CD0042C3DD988
:1009B800EE1E082E3AD840F21110F04010F0010F48
:1009C80034D04FF0010933E00122BBE70122BDE733
:1009D8000122BBE70122BEE70122C3E70122C1E7EA
:1009E8000F2FC3D81DB1082DC0D10022C0E70022A7
:1009F800BEE74FF0010ABFE74FF0010ABCE74FF02E
:100A0800010ABFE74FF0010ABCE71BF0010FBED097
:100A18004FF0010ABBE74FF00109BDE7002BBFD13A
:100A28004FF00009BCE74FF00109BFE70E2D17D0C2
:100A38001F2F18D03F2F19D000200090042C05D963
:100A48000A2D16D0052C01D9062D15D0BBB101F001
:100A58001F030C2B24D01C2B25D00023019310E05E
:100A680001200090EAE701200090E7E701200090CC
:100A7800E4E701200090E5E701200090E6E7002385
:100A88000193042C03D9A5F10C03012B0ED92D4B8E
:100A98001B78DEB2092B0CDDC82E0BDDC82609E059
:100AA80001230193EDE701230193EAE70123019371
:100AB800EDE70A26244B1B7803FB06F6361262B9CB
:100AC800BAF1000F1DD1B9F1000F5AD0002D41D055
:100AD800082D2AD043F6B8513EE01C4B197806FB86
:100AE80001F147F2333303FB01F1194B83FB012377
:100AF800C917C1EB2331002209B21046FFF758FD90
:100B0800DEE7124B597806FB01F146F2666303FBF8
:100B180001F10F4B83FB0123C917C1EB23310022DD
:100B280009B20120FFF744FDCDE744F25C4113E030
:100B38009C080020980800208E0800208D080020BE
:100B48008C08002021010020060000201001002050
:100B5800AD8BDB6844F25C4106FB01F1534B9B789B
:100B680003FB01F1524B83FB0123C917C1EB23316E
:100B780009B21BF0010F3BD06FF00B020220FFF708
:100B880017FD009BABB1494BD97806FB01F144F640
:100B9800CD4303FB01F1464B83FB0123C917C1EB8E
:100BA800233109B2B8F1000F25D018220320FFF72E
:100BB800FFFC019B0BBB3F4B1B780BB10F2D30D0BB
:100BC800B8F1000F02D03E3F012F38D9063C012C66
:100BD80056D9394A1368013303F03F031360374A83
:100BE80013680133C3F30803136003B0BDE8F08F43
:100BF8006FF00402C2E70C22D8E72C4B1B7903FBE9
:100C080006F645F6991303FB06F6294B83FB0623E4
:100C1800F617C6EB2331002209B20420FFF7C8FCFF
:100C2800C9E76FF0230243F2BC410220FFF7C0FC82
:100C3800242243F2BC410220FFF7BAFCC0E76FF060
:100C4800180243F6A4010220FFF7B2FC192243F66A
:100C5800A4010220FFF7ACFC6FF0270244F26821E0
:100C68000320FFF7A5FC282244F268210320FFF7A0
:100C78009FFC002245F2F0510420FFF799FCA5E7FC
:100C88000F2DA6D1002246F2A8111046FFF790FCBE
:100C98006FF00B0245F2F0510120FFF789FC0C229E
:100CA80045F2F0510120FFF783FC92E71001002084
:100CB800AD8BDB688C0800209C0800209808002079
:100CC8002DE9F04F89B00746904A13889BB2C3EBD1
:100CD8000313C3F30F13138000220AE08C4830F883
:100CE80012309BB2C3EB0313C3F30F1320F8123077
:100CF80001320F2AF2D94B0807934FF0000BCDF8B9
:100D080010B0BA4600F082BDFFF7DEFD814B1B78BC
:100D1800B3B1814B1B68DB08804A126812F0010FDF
:100D280015D07D4A126813447D4A13607C4B1B68BA
:100D3800072B00F277857A4B08221A6000F072BD03
:100D4800754B1B68774AA2FB0323DB08E4E7724A6A
:100D58001268D31A724A1360E8E7734B1B5D2BB114
:100D6800724B03EB0B1300225A6027E14FEA0B1377
:100D78006E4A0021D15421E16C4B03EB0B13002286
:100D88005A605DE10A466EE1694A32F8142092B26F
:100D98004AF6444101FB02F26649A1FB0251890966
:100DA800B2F5FA4F00D22021634D35F81420561CB5
:100DB80025F8146091420FD9C2EB0222B2FBF1F27E
:100DC800C2F1FF02A2FB0323120A42EA03630F2BBC
:100DD80000F28981102386E10022F3E7574A32F8AE
:100DE800142092B24AF6444101FB02F25149A1FB98
:100DF80002518909B2F5FA4F00D220214E4A32F841
:100E080014506E1C22F81460464AA2FB0562520870
:100E180002EB4202954209D1444A02EB0B12526896
:100E280022B1424E06EB0B16013A7260A94203D872
:100E3800414A002122F814100025DA186D41D31810
:100E480045F100052A0142EA13721901CB1A62EB37
:100E58000502920042EA9372C3F3971343EA0263CE
:100E680041E1374B195D374B1A5D374B1B5D3748EE
:100E780000EB840000902846FFF7E2FA054648E1B7
:100E8800334B195D334B1A5D334B1B5D334800EB15
:100E9800840000902846FFF7D3FA05463EE14B460A
:100EA80089E16B429BB2C8E1D31AC3F34F13D21A3C
:100EB80092B2CEE12A4B1A5D2A4B03EB84030093CE
:100EC80020230121FFF7BCFA0546FFF753FA264B0A
:100ED8001A5DC3B2B3EB920F80F01B8205EBE045BD
:100EE80017E2FFF747FA0014204B1B5D03FB00F0E5
:100EF80005EBE02515E2002D05DBABB2059A9A4219
:100F08003BD2059339E06B429BB2F7E7DC05002042
:100F1800BC0500208C080020940800209C080020B4
:100F280024010020ABAAAAAA9C050020AC08002036
:100F380028000020D34D62105C0300200800002028
:100F48005C050020A8000020980000201C05002057
:100F58000C0500208800002078000020CC04002028
:100F680048000020FC0300205C0400209C030020B3
:100F7800C3F5807305FB03F31D12002DC0F2EE814B
:100F8800AAB2BB4B33F814309BB2934202D2B84B8F
:100F980023F81420B74B03EB0B1393F90E30C3F16E
:100FA8008002803305FB02F2029901EBE212029201
:100FB80003FB05F5039B03EBE51303930BF1010B0F
:100FC800BBF1090F00F2DE814FEA0B13A94AD35C8B
:100FD800002BF3D002EB0B135C785A68A64B41F256
:100FE800787101FB043341F270715B589A42BFF487
:100FF800B4AE40F6BC3303FB04239F4931F9130018
:101008009E4B1B5DE3B19E4931F814309BB201330E
:101018009BB221F8143031F8141089B2994B33F887
:1010280014309BB299420BD3954B002123F814102E
:10103800642A7FF6A1AE8F4B03EB0B13643A5A6018
:101048008C4A02EB0B125389128913448E4A125DA3
:1010580032B38E4A32F81410FF297FF693AEC1F5E9
:10106800FF72013292B2803A12B2894D2D5D05FBB2
:1010780002F2121202F580723F2A00DC4022A3FB22
:101088000223120A42EA0363824A32F81420C2F3A6
:10109800072201321144C1F308017C4A22F81410D6
:1010A8007D4A125DFAB17D4A125D52B27C49095DF2
:1010B80079B17C4E36F81410C1F300227A4D35F818
:1010C8001450C5F3462501352944C1F3080126F813
:1010D8001410012A3FF458AE022A3FF47FAE734A37
:1010E800002122F81410634901EB0B114A6802EB46
:1010F80013324A60C3F30B030B81B1F90C5000FBA8
:1011080005F5ED1304F00F04694B1B5D002B7FF40C
:10111800A8AE684B1B5D002B7FF4B2AE664B13F88C
:10112800343053B3644B03EBC4035B8803B9012326
:10113800614F07EBC407FE88F31AC3F30803DFF80F
:1011480088A14FEA442803EB44233AF913903879ED
:1011580009FB00F005EB2020FFF754F9B0442AF80A
:1011680018007B79C3F5807209FB03F305FB023392
:101178001D120136C6F30806FE8004EB84034F4AAD
:1011880012F81330002B4FD004EB840302EB430713
:10119800FE882846FFF736F906EB4422484B23F829
:1011A8001200B7F80890B9F1FF0F7FF678AEC9F5CD
:1011B800FF7301339BB204EB8402404F07EB4207F5
:1011C8007A7802FB03F3C3F30F2302339BB2F31ABB
:1011D800C3F30803DFF8E8A003EB44233AF91380CC
:1011E800B87808FB00F005EB2020FFF70BF9630245
:1011F80033442AF81300FB78C3F58072A84408FB2F
:1012080003F305FB02331D120136C6F30806FE8000
:101218003B7903B903234B44C3F3080304EB84016C
:10122800264A02EB41021381264B13F83430002B77
:1012380051D0002DFFF635AEABB2224A02EBC40204
:10124800D28893427FF630AE9B1AC3F38F031344C0
:101258009AB21C4B03EBC403DA805B8893423AD200
:10126800C3EBC33393FBF2F3B3F5805F30DA2DE0C1
:10127800BC050020AC0800204C0900208C0500208B
:101288006C050020B80000209C0400203C040020CD
:101298006C0400207C040020EC030020CC03002018
:1012A800DC0300207C030020AC0300205C0300204A
:1012B8005C0500200C050020D00200203002002030
:1012C80000000010B0010020004000104FF48053CF
:1012D80005FB03F3DD13234B1B5D234A115D194402
:1012E800FF2900D9FF21C9B22846FEF793FF1F4BFB
:1012F8001B5DD9B21E4A125D9A4202D21C4B195D7F
:10130800C9B2FFF78FF805461A4B1B5D002B7FF417
:10131800D1AD194B1B5D23B1184B1B5D002B7FF41E
:10132800E0AD174B1B78002B3FF427AE144B5B78CE
:10133800A3423FF4E0AD124B5B88E34013F0010F8A
:101348003FF41BAE0E4B1A791B8903FB02F2D30B39
:10135800B2F5E10FFFF40CAEE02309E66A4292B25F
:101368000FE600BFBC040020AC0400206800002089
:10137800580000209C040020EC0300209C0300205F
:10138800A4010020DDF818A0AD4B1B7883B1AC4B4D
:101398001A89059B934240F2C681991AA84B5B793A
:1013A80001FB03F3C3F30F2313449AB2A44B1A812E
:1013B800A44A1068029B1B1A00EBE3001060A24AC3
:1013C8001768039BDB1B07EBE30717609F4BD3F8FA
:1013D80000809F4B33F918909E4B33F918309E4A82
:1013E8001278002A00F0AA819C4A1478E4B209FB1A
:1013F80004F500EB252503FB04F407EB2424964AA7
:101408001278002A00F09C81954A1678F6B206FBFD
:1014180003F35B1203EB6000FEF7F4FF8C4B23F839
:10142800180009FB06F0401200EB6700FEF7EAFF20
:10143800884B23F818008B4B1B78002B4AD08A4B1B
:101448001B78002B46D0894B1A88FF2A00F27A8134
:1014580013468749097801FB03F31B0A0C33A8EBF1
:10146800030841F270718844824BA3FB0803DB092F
:1014780001FB1383764931F91310764830F913309C
:101488007D48067801FB06F6007803FB00F001EBC7
:1014980066217A4E377807FB01F105EB612503EBEE
:1014A8006023317801FB03F304EB6324744B1B784E
:1014B800DBB27449097809B10233DBB203B90123FD
:1014C80013449BB2694A1380B3F5007F02D31346D5
:1014D80000221A806C4B1B78002B35D06B4B1B8875
:1014E8009BB2FF2B40F23281684B1B889BB2C3F53D
:1014F800FF7301339BB2664A127802FB03F31B1297
:101508004033644E308800B2634A127802FB00F020
:1015180005EB2020328812B203FB02F200EB2220F6
:1015280035882DB200FB03F3A5EB2325FEF76AFFF0
:10153800308004EBE504594B1978544A138811FAA2
:1015480083F3C3F308031380554B1B78DAB2B42B2B
:1015580000DDB42202FB05F5524B83FB0501E817B9
:10156800C0EB611002FB04F483FB0423E417C4EB13
:1015780063144D4B1A7802FB00F000121B7803FB32
:1015880004F42412494B1B78012B13D9484B1B78C0
:10159800002B40F0DF80474A1060474A146001334F
:1015A800DBB2434A1370414A12789A4202D8404B40
:1015B80000221A70414D2978FEF734FF0646297833
:1015C8002046FEF72FFF05463046FEF793FE0446F9
:1015D8002846FEF78FFE0546DFF8FC8098F80010D5
:1015E800374F3A78374E3378374800902046FEF721
:1015F80027FF044698F800103A783378334800906B
:101608002846FEF71DFF0546314B1B78002B00F0DE
:10161800CB8084EAE472A2EBE47280EAE073A3EB85
:10162800E0739A4240F39E80002CC0F29880A3B2E7
:10163800284A128892B2934240F29B804EE000BF43
:10164800A4010020A4080020A0080020A808002069
:10165800E0AE0010008000100A01002009010020FF
:10166800080100208E0800200701002090080020B3
:1016780006010020F119760504010020050100206B
:10168800030100208C080020E6050020E205002068
:1016980002010020E40500200101002000010020D3
:1016A800220100201F85EB51040000200B010020BF
:1016B800F0050020EC050020E80500200C010020C2
:1016C8000E0100200D010020F8050020F40500207F
:1016D800E0050020DE050020FE0500209B1A5D497C
:1016E800097801FB03F3C3F30F2313449AB25A4B4F
:1016F8001A805A4B1B889BB293424CD2574B1B887B
:101708009BB2C3EBC33393FBF2F3554A127802FB47
:1017180003F31A12B3F5000F35DAB2F5805F34DA45
:101728004FF4805231E0059BD31A4E49897901FB69
:1017380003F3C3F30F23D21A92B237E6002456E616
:10174800002664E6C2F5FF73013382E6464B1B8828
:101758009BB2D0E6454A1068454A14681FE76342C1
:101768009BB265E7002801DB83B261E743429BB285
:101778005EE7D31A3F49097801FB03F3C3F30F234C
:10178800D21A92B2B3E747F6FF7202FB04F4E413ED
:1017980005FB02F2D513384A137804FB03F31C1235
:1017A800137805FB03F31D1284EAE473A3EBE473D7
:1017B80085EAE572A2EBE5729342B8BF1346B3F52A
:1017C800004F01DB47F6FF732C4A128892B29A4207
:1017D80002DA9BB2294A1380294A1368013313603D
:1017E80041F26F72934202D9254B00221A602046BB
:1017F800FEF708FE049EB4002AF826002846FEF7E5
:1018080001FE02342AF80400731C0493049B079A0F
:1018180093421CD21B4B1B7823B11B4B1B68002B1C
:101828003FF472AA174B1B782BB1174B1B6813B1E7
:10183800013B154A13604FF0000BCDF814B0CDF8FA
:101848000CB0CDF808B0CDF818A0FFF7B9BB09B0B7
:10185800BDE8F08FFB000020DE050020FE00002020
:10186800FC000020A4010020E2050020EC05002077
:10187800E8050020FA000020F9000020DC0500201F
:10188800A8080020920800202401002086B0002229
:1018980000921F4B196B41F002011963196B01F09B
:1018A8000201009100990192196B41F0040119633A
:1018B800196B01F00401019101990292196B41F031
:1018C80001011963196B01F0010102910299039258
:1018D800196B41F008011963196B01F008010391B4
:1018E80003990492196B41F010011963196B01F007
:1018F80010010491049905921A6B42F080021A6350
:101908001B6B03F080030593059B06B0704700BF6F
:101918000038024008B5044B00221A700822034917
:10192800034803F083FE08BD240600207406002047
:1019380030D1012070B5174B002403F8304003EB79
:10194800C0035C801C715C71DC80134A00EB80036F
:10195800590002EB430354545C709C70DC701C719A
:10196800DC801C810D4B03F8304003EBC003DC80A6
:1019780086024FF480652A462146094B03EB8020F6
:1019880006F0E7F92A4621460648304406F0E1F910
:1019980070BD00BFD002002030020020B00100203E
:1019A800004000100000001008B500220B490A543E
:1019B8000B494FF0C80C01F800C00A494FF0200C41
:1019C80001F800C0084941F8202008490A54084A8B
:1019D80010211154FFF7AEFF08BD00BF5C050020C1
:1019E800A8000020980000201C050020BC0400204E
:1019F80068000020F8B507460D4616461C4603B990
:101A08000AB321463046FEF773FE104B5A221A706D
:101A18005F709C70220ADA701D712D0A5D719871D1
:101A2800C0F30720D87134B12EB12246314603F1F4
:101A3800080006F0BBF904F1080292B20349044811
:101A480003F0F2FCF8BDFFF765FFFBE7280600206E
:101A580030D101202DE9F04F2DED028B95B00446D1
:101A68000F4616461D460138F02801F29284DFE839
:101A780010F0F1000501160111019B07900C900C64
:101A8800900C900C900C900C900C900C900C900C6E
:101A980022012E013A0146015501900C900C900C40
:101AA800900C900C900C900C900C900C900C900C4E
:101AB8008C01E501F201FF010F0241024C02900C7A
:101AC800900C900C900C900C900C900C900C900C2E
:101AD800D8020903E3020F03DE030F04E9036104DC
:101AE8003503660340039203B80387049204C304D2
:101AF8001B054705EB04900C900C900C900C900C77
:101B0800900C900C900C900C900C900C900C900CED
:101B1800A102BC02950AC10A73051B06A5060B079C
:101B2800CC02900C900C900C900C900C900C900C9B
:101B3800900C900C900C900C900C900C900C900CBD
:101B4800900C900C900C900C900C900C900C900CAD
:101B58005B098B09D30AFF0A2409C308EF08310976
:101B6800A4091B0A9A09900C900C900C900C900CEC
:101B7800900C900C900C900C900C900C900C900C7D
:101B8800900C900C900C900C900C900C900C900C6D
:101B980017079407900C900C900C900C900C900CDC
:101BA800900C900C900C900C900C900C900C900C4D
:101BB800BC07050850088508A808900C900C900CE4
:101BC800900C900C900C900C900C900C900C900C2D
:101BD800900C900C900C900C900C900C900C900C1D
:101BE800900C900C900C900C900C900C900C900C0D
:101BF800900C900C900C900C900C900C900C900CFD
:101C0800900C900C900C900C900C900C900C900CEC
:101C1800900C900C900C900C900C900C900C900CDC
:101C2800900C900C900C900C900C900C900C900CCC
:101C38003F0BB90BBB0BC30B900C900C900C900C8A
:101C4800900C900C900C900C900C900CCF0BED0B12
:101C58003B0C670C012A41F2A58308784978022ACF
:101C680007D9BB7803FB01F1C14BA3FB0131C1F3D9
:101C78004711FEF75FFD264601F08CBB012A02D80A
:101C8800012601F087BB49783878FEF753FD012615
:101C980001F080BBFEF79AFD012601F07BBB12B96B
:101CA800012601F077BB087800F00F00FEF776FDFB
:101CB800012601F06FBB002A01F076830B78B42B64
:101CC80000D9B423AB4A1370012601F063BB002A84
:101CD80001F06C830B78C82B00D9C823A64A13706F
:101CE800012601F057BB002A01F062830B78C82B4C
:101CF80000D9C823A14A1370012601F04BBB012A61
:101D080041F258830B7803F00F034A78C82A00D9A8
:101D1800C8229B49CA54012601F03CBB032A41F260
:101D28004B830B6807EE903AB5EE007AF4EEC77A6B
:101D3800F1EE10FA01D5F0EE477AB1EE007AF4EE42
:101D4800C77AF1EE10FA01DDF0EE477A9FED8D7A51
:101D580067EE877AFCEEE77A17EE900AB0F5007F17
:101D680005D3B0F5804F04D94FF4804001E04FF41B
:101D78000070002304E082B2834921F81320013364
:101D88000F2BF8D9012601F005BB0F2A4DD90A7887
:101D98007E4B1A704B7803F003037D4A13708A78E0
:101DA8007C4B1A701B78032B02D87A4B04221A70CA
:101DB800784B1B78102B02D9764B10221A70D7F863
:101DC8000880FE6808EE106A7B6800EE103AFEF79D
:101DD80035FA714B187000EE108AFEF75DFA6F4BFA
:101DE8001870B5EEC08AF1EE10FA1BD4DFED6C7AEC
:101DF800B4EEE78AF1EE10FA01DDB0EE678ADFEDA6
:101E0800697A28EE278A9FED667AC8EE077AFCEE93
:101E1800E77ACDED017A9DF80430634A1370012604
:101E280001F0B8BA9FED618AE0E7002A01F0C682A6
:101E38000A78564B1A70012601F0ACBA032A41F20F
:101E4800BF820B6800EE103AFEF7F8F9524B187093
:101E5800012601F09FBA032A41F2B4820B6800EE12
:101E6800103AFEF719FA4D4B1870012601F092BA94
:101E7800002A01F0A9820B78032B03D9102B02D971
:101E8800102300E00423434A1370012601F082BAAC
:101E9800032A26D90B6807EE903AF5EEC07AF1EEE0
:101EA80010FA1BD49FED3E7AF4EEC77AF1EE10FAE1
:101EB80001DDF0EE477A9FED3B7A67EE877ADFED3A
:101EC800386A87EEA67AFCEEC77ACDED017A9DF8DE
:101ED8000430354A1370012601F05CBADFED337A1D
:101EE800E0E7002A01F072820A782F4B1A70012667
:101EF80001F050BA002A01F06B820B7803F003035B
:101F0800234A1370012601F045BA032A20D90B6829
:101F180007EE903AB7EE007AF4EEC77AF1EE10FACF
:101F280013D4B3EE007AF4EEC77AF1EE10FA01DDBD
:101F3800F0EE477AFCEEE77ACDED017A9DF80430B1
:101F48001B4A1370012601F025BAF0EE477AE8E73C
:101F5800002A01F03F820B781BB1102B02D9102305
:101F680000E00123124A1370012601F013BA00BFE2
:101F78001F85EB51220100202101002020010020B3
:101F88001001002000008045D8000020FE05002038
:101F9800FC0500200C0100200E0100200D0100208E
:101FA8000000C84200007F43FD050020000000003B
:101FB8000B010020102A41F20F820E7806F00F065E
:101FC8004A78C94B9A55D1F808804B6800EE103A08
:101FD800FEF734F9C54B985500EE108AFEF75CF908
:101FE800C34B9855012601F0D5B9002A01F0F681B6
:101FF8000B7803F00F030022BB49CA54BB49CA54EB
:10200800BB49CA54012601F0C5B912B9012601F02D
:10201800C1B9087800F00F00FFF7C6FC012601F0EF
:10202800B9B9002A01F0DC810B7803B10123B14A68
:102038001370012601F0AEB9032A41F2D3810B686F
:1020480007EE903AF5EEC07AF1EE10FA17D49FED4C
:10205800B77AF4EEC77AF1EE10FA01DDF0EE477ABE
:102068009FEDB37A67EE877AFCEEE77ACDED017AD9
:102078009DF80430A04A1370012601F08BB9DFEDFA
:102088009F7AE4E7032A41F2AF81012601F082B981
:10209800032A41F2AB810B6807EE903AF5EEC07A5D
:1020A800F1EE10FA17D4B7EE007AF4EEC77AF1EE33
:1020B80010FA01DDF0EE477A9FED9D7A67EE877A98
:1020C800FCEEE77ACDED017A9DF804308C4A137066
:1020D800012601F05FB9DFED897AE4E7002A01F013
:1020E80087810B7803B10123864A1370012601F01A
:1020F80051B9032A41F27E810B6807EE903AF5EE5A
:10210800C07AF1EE10FA17D4B7EE007AF4EEC77A77
:10211800F1EE10FA01DDF0EE477A9FED857A67EE71
:10212800877AFCEEE77ACDED017A9DF80430764A9D
:102138001370012601F02EB9DFED707AE4E7032A67
:1021480041F25A810B6807EE903A9FED707AF4EEEF
:10215800C77AF1EE10FA01D5F0EE477AB1EE087AB7
:10216800F4EEC77AF1EE10FA01DDF0EE477A9FED52
:10217800687A67EE877AFCEEE77A17EE903A1BB139
:102188000C2B02D90C2300E00123DBB2614A137047
:10219800012601F0FFB8032A41F230810B6807EEEF
:1021A800903AF5EEC07AF1EE10FA17D49FED5F7A07
:1021B800F4EEC77AF1EE10FA01DDF0EE477A9FED02
:1021C8005C7A67EE877AFCEEE77ACDED017A9DF8C6
:1021D8000430514A1370012601F0DCB8DFED477A6C
:1021E800E4E7032A41F20C810B6807EE903AF5EE1A
:1021F800C07AF1EE10FA17D4B7EE007AF4EEC77A87
:10220800F1EE10FA01DDF0EE477A9FED497A67EEBC
:10221800877AFCEEE77ACDED017A9DF804303F4AE3
:102228001370012601F0B6B8DFED347AE4E7002A2E
:1022380001F0E8800B7803B10123394A13700126B5
:1022480001F0A8B8032A41F219810B6807EE903A09
:10225800F5EEC07AF1EE10FA17D4B7EE007AF4EE84
:10226800C77AF1EE10FA01DDF0EE477A9FED307A89
:1022780067EE877AFCEEE77ACDED017A9DF80430B7
:10228800284A1370012601F085B8DFED1C7AE4E7CF
:10229800032A41F2F5800B6807EE903A9FED1B7A0E
:1022A800F4EEC77AF1EE10FA01D5F0EE477AB2EE05
:1022B800007AF4EEC77AF1EE10FA01DDF0EE477A13
:1022C800B7EE087A67EE877AFCEEE77A17EE903A6F
:1022D8001BB10C2B02D90C2300E00123DBB2124AFC
:1022E8001370012601F056B85C050020A8000020F4
:1022F800980000200A0100200801002000000000CA
:10230800090100200701002006010020CDCC4C3D2A
:102318003333B33F030100200401002005010020EE
:10232800E605002002010020000100203333733F3E
:1023380000007F43032A41F2A5800B6807EE903A1C
:10234800F5EEC07AF1EE10FA17D41FED087AF4EE24
:10235800C77AF1EE10FA01DDF0EE477A1FED0C7A3C
:1023680067EE877AFCEEE77ACDED017A9DF80430C6
:10237800B94A1370012601F00DB8DFEDB87AE4E729
:10238800002A01F081800B7803B10123B44A13704D
:10239800012600F0FFBF032A41F278800B6807EEA0
:1023A800903A9FEDB07AF4EEC77AF1EE10FA01D5C3
:1023B800F0EE477AF5EEC07AF1EE10FA01DDDFEDC6
:1023C800A77AF3EE040AC7EEA00AB2EE040A05F0F3
:1023D800FBFCDFEDA57A60EE277AFCEEE77A17EED4
:1023E800903AB3F5004F01D347F6FF739BB29F4A6B
:1023F8001380012600F0CEBF032A41F249800B6802
:1024080007EE903AB7EE007AF4EEC77AF1EE10FADA
:1024180017D4B3EE047AF4EEC77AF1EE10FA01DDC0
:10242800F0EE477AB2EE087A67EE877AFCEEE77A42
:10243800CDED017A9DF804308D4A1370012600F025
:10244800A9BFF0EE477AE4E7032A41F223800B683C
:1024580007EE903AF5EEC07AF1EE10FA21D4B3EE19
:10246800087AF4EEC77AF1EE10FA01DDF0EE477A59
:10247800F3EE040AC7EEA00AB2EE040A05F0A4FCC3
:10248800DFED7C7A60EE277AFCEEE77A17EE903A79
:10249800FF2B00D9FF23DBB2774A1370012600F027
:1024A80079BFDFED6E7ADAE7032A40F2F5870B6829
:1024B80007EE103ADFED717AB4EEE77AF1EE10FA32
:1024C80001D5B0EE677ADFED6E7AB4EEE77AF1EE19
:1024D80010FA01DDB0EE677ADFED6A6AC6EE877A38
:1024E800FCEEE77A17EE903A1BB1FF2B02D9FF23D7
:1024F80000E00123DBB2644A1370012600F04ABFF2
:10250800032A40F2CB870B6807EE103AF1EE047A03
:10251800B4EEE77AF1EE10FA01D5B0EE677ADFEDA6
:102528005B7AB4EEE77AF1EE10FA01DDB0EE677A85
:10253800DFED546AC6EE877AFCEEE77A17EE903A3A
:102548001BB1FF2B02D9FF2300E00123DBB2504A65
:102558001370012600F01EBF0F2A40F2A1870A78E7
:1025680002F00F024B7803B101237E6807EE906AF0
:10257800B86806EE900AF96807EE101AB1EE046A18
:10258800F4EEC67AF1EE10FA01D5F0EE467A9FED38
:102598003C6AF4EEC67AF1EE10FA01DDF0EE467A06
:1025A80006EE100AB5EEC06AF1EE10FA4ED49FEDB1
:1025B8003D6AF4EEC66AF1EE10FA01DDF0EE466A05
:1025C80006EE101AB5EEC06AF1EE10FA41D49FED8E
:1025D800356AB4EEC67AF1EE10FA01DDB0EE467A4D
:1025E8002C4901F832309FED2C6A27EE866ADFED20
:1025F800255AC6EE257AFCEEE77A17EE903A9BB29A
:1026080001EBC2014B80B3F5007F03D30B4640F2C8
:10261800FF115980DFED215A66EEA56A9FED216A08
:10262800C6EE867AFCEEE77A17EE901A194B03EBA2
:10263800C203197127EE257AC7EE067AFCEEE77A0F
:1026480017EE902A5A71012600F0A4BEDFED036A46
:10265800ADE79FED027ABAE7010100200000000013
:10266800E0050020000070C200FEFF46FE000020CA
:10267800FC00002000000043F9000020CDCCCC3D38
:102688000000484300007A44FB0000200000FA44A0
:10269800FA000020D002002000442C4700007F43AD
:1026A800CDCC4C3D0000C8420F2A40F2FB860A7888
:1026B80002F00F024B7803B101237E6807EE906A9F
:1026C800B86806EE900AF96807EE101A1FED0C6A52
:1026D800F4EEC67AF1EE10FA01D5F0EE467AB2EED3
:1026E800006AF4EEC67AF1EE10FA01DDF0EE467AF1
:1026F80006EE100AB5EEC06AF1EE10FA58D41FEDD6
:10270800176AF4EEC66AF1EE10FA01DDF0EE466AD9
:1027180006EE101AB5EEC06AF1EE10FA4BD41FEDB2
:102728001F6AB4EEC67AF1EE10FA01DDB0EE467A11
:10273800C34902EB820601EB460001F81630DFEDD3
:10274800C15A66EEA56A9FEDC06A86EE865AFCEE0F
:10275800C56ACDED016A9DF80410417027EE257A0F
:10276800C7EE066ABCEEE67A17EE103A83709FED64
:10277800B77A67EE877AFCEEE77A17EE903A01337C
:10278800DBB203710E2B04D9AD4B03EB46030E20CD
:1027980018714B08603302EB8200A94901EB400134
:1027A800CB70DC2B01D9DC22CA70012600F0F2BD07
:1027B800DFEDA76AA3E79FEDA67AB0E70B2A40F200
:1027C80073860E7806F00F0691F80180B8F1000FB5
:1027D80001D04FF001087A6807EE902ABB6808EE2E
:1027E800103A9FED9C7AF4EEC77AF1EE10FA01D513
:1027F800F0EE477AF5EEC07AF1EE10FA01DDDFED82
:10280800947AB7EE007A06EE903AF4EEC76AF1EEE3
:1028180010FA36D4B3EE047AB4EEC78AF1EE10FAA1
:1028280001DDB0EE478AF3EE040AC7EEA00AB2EE65
:10283800040A05F0C9FADFED887A60EE277AFCEE23
:10284800E77A17EE903AB3F5004F01D347F6FF73D6
:10285800824A02F8368002EBC6025380F3EE007A11
:1028680028EE278AFCEEC87ACDED017A9DF804306F
:1028780013710F2B02D8134610221A71012600F08B
:1028880089BDB0EE478AC5E712B9012600F082BDBE
:10289800087800F00F00FFF74DF8012600F07ABD28
:1028A800132A40F20386087800B10120797801F0F4
:1028B8000F01BB78FA7843EA0223D7F804C007EE81
:1028C80090CABE6806EE906AFA6807EE102AF5EE1E
:1028D800C07AF1EE10FA50D4B7EE006AF4EEC67A78
:1028E800F1EE10FA01DDF0EE467A9FED5D6A05EE35
:1028F800906AF4EEC65AF1EE10FA01D5F0EE466A87
:102908009FED586AF4EEC66AF1EE10FA01DDF0EEBA
:10291800466AB2EE046A05EE902AF4EEC65AF1EE63
:1029280010FA01D5B0EE467A9FED4F6AB4EEC67A3A
:10293800F1EE10FA01DDB0EE467A4C4A1070517093
:1029480053809FED406A67EE867AFCEEE77A17EED1
:10295800903A13719FED466AC6EE267AFCEEE77A46
:1029680017EE902AC6EE077AFCEEE77A17EE903A51
:1029780032B1FF2A05D9FF2203E0DFED357AABE754
:1029880001221BB1FF2B02D9FF2300E001233749A5
:102998004A718B71012600F0FDBC344B00221A707D
:1029A8001A81012600F0F6BC304B1B78002B00F092
:1029B8007F85012A40F27E850B7803F00F032B4AAE
:1029C80052789A4202D0012600F0E4BC4B7803EB1F
:1029D800C3135B009BB2254A12899A4280F06C852A
:1029E800224A1381012600F0D5BC0B2A40F26685E5
:1029F800097801F00F013A797B7942EA0322BB7921
:102A080042EA0342FB7942EA036241F270739A4256
:102A180000D91A4617480123037041704260002606
:102A28008660154A41F2787000FB012241F270710C
:102A3800565041F2747156541E4600F0ABBC00BFAC
:102A48003002002000007F430000C8429A99993F55
:102A580000000000000070C200FEFF46B001002028
:102A6800CDCC4C3E0000A04200009644A4010020BA
:102A780000007A44500300204C090020B74B1B7813
:102A8800002B00F01D85072A40F21C850B7803F007
:102A98000F0391F80280CA7848EA022891F8049056
:102AA8004A7949EA02298A7949EA0249CA7949EA06
:102AB8000269AA4A52789A4202D0012600F06ABCFA
:102AC80008F10802B24200F2FF84A44A52684A455B
:102AD80040F2FC84A14A5268A2EB0902904501D950
:102AE8001FFA82F841F278729D4802FB03004246C1
:102AF80007F10801484405F059F908EB0903974A1A
:102B080092689A4280F0E484944A9360012600F027
:102B180041BC924B1B78002B00F0DC848F4B58781B
:102B2800C2B299684E088E4B41F2787700FB0733A2
:102B380041F270701E50012915D90121884B41F2CC
:102B4800787000FB023341F27470195469B10123A3
:102B58009340844A11680B431360804B00221A701B
:102B6800012600F017BC0021E8E7012303FA02F26E
:102B78007C490B6823EA02030B60EEE712B90126D1
:102B880000F008BC0E7806F00F063046FDF706FE8A
:102B98003046FDF727FE724B41F2787202FB06338E
:102BA800002241F270715A5041F274715A54012353
:102BB80003FA06F66B490A6822EA06020A601E460C
:102BC800E8E3FDF703FE00260FE0F0B2FDF70AFE8A
:102BD800634B41F2787202FB0633002241F27071B6
:102BE8005A5041F274715A5401360F2EEDD95D4B8B
:102BF80000221A600126CDE3012A40F26D844B7849
:102C0800002B00F06B8491F800E00EF00F0E544B8F
:102C180041F2787202FB0E3341F270729F58002223
:102C2800B2EB570F12D24E4940F6BC3303FB0EF3FA
:102C38009E1831F916C0B81A0138034431F9130047
:102C480021F8160021F813C00132E9E70126A1E3B3
:102C5800042A40F245840A7802F00F02D1F80130C4
:102C680007EE903AB5EE007AF4EEC77AF1EE10FA74
:102C780001D5F0EE477AB1EE007AF4EEC77AF1EEBC
:102C880010FA01DDF0EE477A9FED377A67EE877A22
:102C9800FCEEE77A17EE903AB3F5007F05D3B3F56B
:102CA800804F04D94FF4804301E04FF400739BB286
:102CB8002E4921F8123001266CE3012A40F21284D1
:102CC8000B7803F00F034A7802B101222849CA544D
:102CD80001265FE3032A40F207840B7803F00F0311
:102CE8004A7802B101222349CA54BA78F97842EAEB
:102CF8000122214921F8132031F8132092B2132A16
:102D080003D80A46142122F813101B4A32F813205C
:102D180092B2B2F5FA6F40F2E983174A4FF4FA61BA
:102D280022F81310012635E3102A40F2E1830E78C9
:102D380006F00F064A78114B9A55D1F808804B686F
:102D480000EE103AFDF77AFA0D4B985500EE108A0E
:102D5800FDF7A2FA0B4B985501261BE35003002000
:102D68004C090020AC05002000008045D800002058
:102D78009C0500208C050020B80000200C050020D0
:102D88008800002078000020002A00F0B3830B7828
:102D980003F00F030022BF49CA54BF49CA54BF49B0
:102DA800CA540126F6E20AB90126F3E2087800F0CF
:102DB8000F00FDF717FD0126ECE2132A40F29C8371
:102DC8000E7806F00F064B7803B10123B44A9355E9
:102DD800796807EE901ABA6807EE102AFB6800EEC9
:102DE800103A3B6908EE103AF6EE006AF4EEE67A1D
:102DF800F1EE10FA01D5F0EE667AF3EE046AF4EE1D
:102E0800E67AF1EE10FA01DDF0EE667A06EE902A27
:102E1800F5EEC06AF1EE10FA40D4F7EE006AB4EEAF
:102E2800E67AF1EE10FA01DDB0EE667A06EE903A37
:102E3800F5EEC06AF1EE10FA33D4F7EE006AB4EE9C
:102E4800E68AF1EE10FA01DDB0EE668ADFED956AEA
:102E580067EEA67AFCEEE77A17EE903A9BB2924AB2
:102E680022F81630DFED918A27EE287AFCEEC77A31
:102E7800CDED017A9DF804308D4A9355FDF7DEF9C2
:102E88008C4B985528EE288AFCEEC87ACDED017A4D
:102E98009DF80430884A935501267BE29FED877A96
:102EA800BBE79FED868AC8E70F2A40F227830B7895
:102EB80003F00F034A7802B101228149CA54BA7853
:102EC80002B101227F49CA5497F903107E4AD154AE
:102ED8003A79797942EA01227C4921F81320BA79B2
:102EE800F87942EA00227A4820F8132031F81320B2
:102EF80092B2132A03D80A46142122F81310744AEE
:102F080032F8132092B2132A03D8714A142122F8F6
:102F18001310B96807EE901AFA6807EE102ADFED69
:102F28006D6AF4EEE67AF1EE10FA01D5F0EE667A03
:102F3800F3EE0E6AF4EEE67AF1EE10FA01DDF0EE49
:102F4800667A06EE902AF5EEC06AF1EE10FA22D4FF
:102F5800F7EE006AB4EEE67AF1EE10FA01DDB0EEB3
:102F6800667ADFED506A67EEA67AFCEEE77A17EE2E
:102F7800902A92B2584921F81320DFED4C7A27EEB7
:102F8800277AFCEEC77ACDED017A9DF804205349E3
:102F9800CA540126FEE19FED497AD9E7012A40F299
:102FA800AF820B7803F00F034A78042E1BD9D1F8AF
:102FB800012007EE902AF5EEC07AF1EE10FA16D449
:102FC800B7EE007AF4EEC77AF1EE10FA01DDF0EE12
:102FD800477A9FED367A67EE877AFCEEE77ACDED91
:102FE800017A9DF804203E49CA540126D2E1DFED5A
:102FF800337AE5E7012A40F285820A7802F00F0267
:103008004B78032B03D9102B02D9102300E004239B
:1030180034498B540126BDE1012A40F275820B78B0
:1030280003F00F034A78042E1BD9D1F8012007EECC
:10303800902AF5EEC07AF1EE10FA16D4B7EE007ABF
:10304800F4EEC77AF1EE10FA01DDF0EE477A9FED63
:10305800177A67EE877AFCEEE77ACDED017A9DF86C
:1030680004202149CA54012694E1DFED147AE5E7EA
:10307800012A40F24B820A7802F00F024B78032BA8
:1030880003D9102B02D9102300E0042317498B54CD
:1030980001267FE10C050020880000207800002030
:1030A8009C040020000080437C04002000007F4333
:1030B8006C040020480000205C0400200000000090
:1030C800EC030020DC030020CC03002028000020B3
:1030D80008000020CDCC4C3EAC0300209C0300200F
:1030E800BC04002068000020AC0400205800002028
:1030F8000DF10C090026039604960596069601F034
:103108000BFCC14FA7FB00074FEA971ABF4BB3F858
:1031180000801FFA88F8FDF72FFB8DF80C00BC4BD8
:103128001B788DF80D308DF80E608DF80F60B94B57
:103138001A688DF810201A68C2F307228DF811203A
:103148001A68C2F307428DF812201B681B0E8DF80F
:1031580013308DF814A0C7F387338DF81530BF0DE1
:103168008DF816708DF817608DF818804FEA1828BA
:103178008DF81980A84B1B688DF81A30A74B1B884F
:103188008DF81B3010234A4629462046FEF732FCAC
:1031980000E1A34B33F812309BB207EE903AF8EEF9
:1031A800677ADFEDA06A87EEA67A14AB03EB820399
:1031B80003ED117A01320F2AEBDD9B4B1B889BB282
:1031C80007EE903AF8EE677ADFED966A87EEA67A10
:1031D8008DED137A442303AA29462046FEF70AFCFC
:1031E8000026D7E00022E6E70123894A294620463F
:1031F800FEF700FC0026CDE0FDF7BEFA8DF80C00C6
:10320800012303AA29462046FEF7F4FB0026C1E065
:10321800002303930493032A01D90B68039301F055
:103228007BFB8DF81000C0F307238DF81130C0F335
:1032380007438DF81230000E8DF81300082303AAF7
:1032480029462046FEF7D6FB0026A3E0FDF7BEFA86
:103258000026764B1E70764B10221A70754B1E7026
:10326800754B1E70754B01221A70754B1E60754B9D
:103278001E60754B1E70754B1E60754B1E6040239B
:10328800744A1370744A03211170744A3021117002
:10329800734A02211170734A1680734A1680734A62
:1032A8001370734B08221A70724B1E701E8107E050
:1032B800F7B23846FEF778FB3846FDF793FA013641
:1032C8000F2EF5D90023544A1360544A138004E0A2
:1032D800534A002122F8131001330F2BF8D9524B0F
:1032E80000221A80012655E0012A40F2118191F846
:1032F80000A04FF000094FF00208D1451ED208F196
:103308000803B34200F2068108F10103F95C08F1F1
:103318000203FB5C03FB01F1574BA3FB0131C1F333
:10332800471117F80800FDF705FA08F108081FFA11
:1033380088F809F101095FFA89F9DEE7012629E031
:10334800002A00F0E98091F800A04FF0000901235D
:10335800D1451CD2991CB14200F2E080F85C5A1C9D
:1033680017F802801FFA81FB0BEB0803B34200F346
:10337800D7802B46424617FA81F1FEF76BFBD844FB
:103388001FFA88F309F101095FFA89F9E0E70126D4
:1033980000E00126002E40F0C58015B0BDEC028B80
:1033A800BDE8F08F2646F5E70126F3E70126F1E7A9
:1033B8000126EFE70126EDE70126EBE70126E9E71D
:1033C8000126E7E70126E5E70126E3E70126E1E72D
:1033D8000126DFE70126DDE70126DBE70126D9E73D
:1033E8000126D7E70126D5E70126D3E70126D1E74D
:1033F8000126CFE70126CDE70126CBE70126C9E75D
:103408000126C7E70126C5E7D34D6210B80500209D
:10341800F8000020AC050020B4050020B00500200D
:10342800BC05002000FEFF46DC050020FE0500204C
:103438000C010020FD050020FC0500200B010020E8
:10344800F8050020F4050020F0050020EC05002018
:10345800E8050020040100200301002001010020EC
:1034680000010020E4050020E2050020FB00002008
:10347800FA000020A40100201F85EB51012689E7EE
:10348800012687E7012685E7012683E7012681E7EC
:1034980001267FE701267DE701267BE7012679E7FC
:1034A800012677E7012675E7012673E7012671E70C
:1034B80001266FE701266DE701266BE7012669E71C
:1034C800012667E7012665E7012663E7012661E72C
:1034D80001265FE701265DE701265BE7012659E73C
:1034E800012657E7012655E7012653E7012651E74C
:1034F80001264FE701264DE701264BE7012649E75C
:10350800012647E7012645E7012643E7012641E76B
:1035180001263FE701263DE701263BE7012639E77B
:10352800012637E700231A4629462046FEF762FAA5
:1035380033E700BF2DE9F0418046002429E0174F0A
:1035480001221146384601F0D3FD154E01224021D3
:10355800304601F0CDFD134D01224FF400512846AD
:1035680001F0C6FD782001F0DDF90022012138467E
:1035780001F0BEFD00224021304601F0B9FD0022D5
:103588004FF40051284601F0B3FD782001F0CAF944
:1035980001344445D3DBBDE8F08100BF0010024090
:1035A80000000240000C024010B588B000220092D2
:1035B8001C4B196B41F010011963196B01F01001D4
:1035C800009100990192196B41F001011963196B7F
:1035D80001F00101019101990292196B41F0080172
:1035E80019631B6B03F008030293029B03AC03925D
:1035F80004920592069207920123049303932146AD
:10360800094801F07FFC402303932146074801F055
:1036180079FC4FF4005303932146054801F072FCEE
:1036280008B010BD003802400010024000000240FF
:10363800000C024010B582B000240094124B1A6BA3
:1036480042F400121A631A6B02F400120092009AF4
:1036580001941A6B42F480021A631B6B03F4800313
:103668000193019B224621460F2001F0C3F90F2048
:1036780001F0D0F922460221382001F0BBF93820A8
:1036880001F0C8F902B010BD0038024000B583B09F
:1036980013464FF0FF3200920246084803F092F8B2
:1036A80040B9064803F0DEFB0428FAD1002003B035
:1036B8005DF804FB4FF0FF30F9E700BF88D1012027
:1036C8002DE9F047ADF5007D04460122694600204A
:1036D800FFF7DCFF002842D180469DF8FE31552BCC
:1036E80040D19DF8FF31AA2B3FD19DF80030EB2B3C
:1036F80031D0E92B31D00DF5E370FCF780FD07469A
:10370800B0B301226946FFF7C1FFA0BB0DF10B0062
:10371800FCF770FDB0F5007F30D10DF10E00FCF71D
:1037280069FD05469DF810A009A8FCF768FD064646
:103738000BA8FCF764FD27609DF80D302375266102
:10374800EB19636006FB0A33A360E06040460DF5A1
:10375800007DBDE8F0870027D8E70027D6E74FF0BF
:10376800FF38F3E76FF00108F0E76FF00108EDE7C5
:103778006FF00208EAE76FF00308E7E76FF0040864
:10378800E4E770B5ADF5007D14468B004668C1F3DB
:10379800D610C3F30805012269463044FFF776FFC7
:1037A80058B9064668462844FCF729FD20F07040C1
:1037B800206030460DF5007D70BD4FF0FF36F8E70C
:1037C80010B582B00446836A01338362027D934256
:1037D80005D2002084F82E02A08502B010BD01AAEF
:1037E800C169FFF7CEFF38B9019B064A934206D854
:1037F800E3610023A362ECE74FF0FF30EDE76FF0E1
:103808000100EAE7F7FFFF0F2DE9F04FADF5477D1F
:1038180082468B46914600279846ABF102026B4BD5
:103828009A4200F2CF800025CDF808B09DE003F061
:103838001F0B0BEB4B020BEB820BABF10D0B009D3F
:10384800039300E001350C2D0ADC29463046FCF7CD
:1038580015FE05EB0B03FE2BF4DC06AAD054F1E7AA
:10386800039B13F0400F5DD0009F3D460C2D0ADCF2
:1038780029463046FCF702FE0138C0B2FD2802D8BE
:1038880001370135F2E75F44FE2F4BDC06AB00221F
:10389800DA5547E0013319F80320002AFAD19F428C
:1038A8001BD0009F3EE0009BF5E7884235D10132EE
:1038B800934214DD06A9885C19F80210A0F161058D
:1038C800EDB2192D01D82038C0B2A1F16105EDB2D1
:1038D800192DEAD82039C9B2E7E7009AE8E70127A5
:1038E80007B34FF40C720021404604F032FA454603
:1038F800BAE80F000FC59AE8030085E803003046D0
:10390800FCF74CFDC8F81800C8F81C0006F11C00AC
:10391800FCF775FCC8F820004BE0009FE0E7009F2B
:1039280000E0009F2034B4F5007F1CDA46AB1E1976
:103938001B5D002B3AD0E52BF1D0F27A0F2A3FF429
:1039480076AF12F0080FECD112F0100F07D1304605
:10395800FCF731FD28B1002FA5DC009FE2E7009FAE
:10396800E0E70746DEE7019D01359AF81430AB42DF
:103978000DD902995046FCF70BFD012246A92844AF
:10398800FFF784FE0446009060B90195CBE7DDF8A7
:1039980008B005AA59465046FFF7F3FE70B9DDF89E
:1039A80014B03AE74FF0FF33009302E06FF00103E1
:1039B800009300980DF5477DBDE8F08F6FF0020386
:1039C8000093F6E76FF003030093F2E7F5FFFF0FAC
:1039D8002DE9F04104460F46164698460023C8F8DC
:1039E80000302DE0E1692046FCF7D2FCA36A0122F1
:1039F80004F12E011844FFF749FE002845D10123A0
:103A080084F82E320023A38523E00CF1280C04EB64
:103A18000C012A460631384604F0C8F92F44761BB3
:103A2800636A2B446362A38D13FA85F3A385D8F8E0
:103A380000302B44C8F80030A38DB3F5007F16D2B0
:103A480036B3626A236A9A421DD294F82E32002B4A
:103A5800C8D0B4F82CC0CCF50073256A626AAD1AD8
:103A68009E4200D83346AB42CFD81D46CDE720460C
:103A7800FFF7A6FE0028E3D0626A236A9A42DFD2E3
:103A88006FF0010005E0002003E04FF0FF3000E098
:103A98000020BDE8F08130B593B005460C4603E040
:103AA8004FF0FF3214E0E41A8CB10023019301AB0C
:103AB8002246402C28BF402202A92846FFF788FF4B
:103AC80002460028ECD1019B002BECD100E000223B
:103AD800104613B030BD00002DE9F04FADF5057D5F
:103AE80007468A46914601930026AAF10202334B03
:103AF8009A425FD84FF0000836E001362034B4F51A
:103B0800007F2FDA04AB1D191B5D002B48D0E52B75
:103B1800F4D0EB7A0F2BF1D013F0080FEED113F09D
:103B2800100FEBD12846FCF746FC0028E6D04E459E
:103B3800E3D14FF40C720021019E304604F009F9DC
:103B480034460FCF0FC497E8030084E803002846E3
:103B5800FCF724FCB061F06105F11C00FCF74FFB99
:103B680030621FE008F101083B7D43450CD95146FE
:103B78003846FCF70DFC012204A94044FFF786FDF6
:103B8800834650B90446BAE703AA51463846FFF7B8
:103B9800F8FD60B9DDF80CA0A7E74FF0FF3B01E0A6
:103BA8006FF0010B58460DF5057DBDE8F08F6FF0FD
:103BB800020BF7E76FF0030BF4E700BFF5FFFF0F09
:103BC8002DE9F047ADF5047D06460C469146D0F840
:103BD8000C8002AB364A92E8030083E80300002217
:103BE80002E002A883540132072A49DCA35C002BB7
:103BF80046D0A3F16100C0B21928F2D8203BDBB24D
:103C0800EFE72034B4F5007F1FDA04AB1D191B5D04
:103C1800002B3CD0E52BF4D0EA7A0F2AF1D012F031
:103C2800100FEED02E2BECD008220DEB0201284607
:103C380004F07FF882460028E3D12846FCF7AEFB63
:103C480001282BD9C9F8000023E00137337DBB4296
:103C58000ED941463046FCF79BFB012204A93844A3
:103C6800FFF714FD04460028CCD04FF0FF3A10E0CF
:103C780001AA41463046FFF784FD90B9DDF804807B
:103C8800A8F102020B4B9A420ED80027DEE76FF02C
:103C9800010A50460DF5047DBDE8F0876FF0020A71
:103CA800F7E76FF0030AF4E76FF0040AF1E700BFE3
:103CB800BC890008F5FFFF0FF0B591B005460E4628
:103CC80000230C930CAB0C220DA9FFF781FE0028F2
:103CD80040F08A800C9B0C2B40F0898004224A49D2
:103CE8000DA804F026F8002840F0848004224749F3
:103CF8000FA804F01EF800287FD1002333607360FA
:103D0800B360F36024E02746282C28BF28270CAB93
:103D18003A4602A92846FFF75BFE002847D10C9BCC
:103D2800BB4247D1282C39D802A8FCF763FA0446CD
:103D38000DF10A00FCF75EFA308003A8FCF75FFA81
:103D480070600DF11600FCF755FA3081012C34D162
:103D58000CAB082269462846FFF73AFE00283BD1FB
:103D68000C9B082B3DD101A8FCF749FA0446042214
:103D78002749684603F0DDFF0028C4D004222549FE
:103D8800684603F0D6FF0346D0B121462846FFF720
:103D980082FE0028DCD06FF006031FE0E11B2846F6
:103DA800FFF779FE0028BFD06FF0040316E06FF02C
:103DB800030313E06FF0030310E06FF005030DE059
:103DC800F4603289102A1BD13288013A92B2012A52
:103DD80004D96FF0080301E06FF00203184611B030
:103DE800F0BD6FF00203F9E74FF0FF33F6E74FF04D
:103DF800FF33F3E76FF00103F0E76FF00103EDE73E
:103E08006FF00703EAE700BFC8890008D0890008F7
:103E1800D8890008E08900082DE9F043ADF5197D3F
:103E280004460D46164692A8FFF74AFC002840F0C3
:103E380091800023919391AA214692A8FFF7C0FE92
:103E4800002840F08A8005AB2A46919992A8FFF78E
:103E5800DBFC002840F0848001A905A8FFF72CFFAF
:103E6800074600287FD100241DE0920027E04FEA92
:103E78009308002511E03F4B33F92500023333F94D
:103E88002530184400EBD07004F101094010FCF70C
:103E9800B9FA26F8140001354C46454503D240F6D8
:103EA800B7339C42E7D940F6B7339C422BD8C4F5C8
:103EB8003B620832BDF80430022BD6D05200B2F56E
:103EC800805F01D94FF480526B4600210091294947
:103ED80005A8FFF77DFDB0B9009BA3B1BDF804208C
:103EE800022AC4D04FEA530800234345DBD240F6E8
:103EF800B7329442D7D81F4A32F9132026F8142033
:103F080001330134F1E706F58053C3F870475CB11B
:103F1800012006F5805383F8740778B930B3384622
:103F28000DF5197DBDE8F0830020F2E7012202FAC1
:103F380003F3114A11680B431360EFE700230F2BBB
:103F4800ECD841F278710D4A01FB0322B242EDD060
:103F58000133F4E74FF0FF37E1E76FF00107DEE7E1
:103F68006FF00207DBE76FF00307D8E76FF004078D
:103F7800D5E700BF30C10120AC0500204C09002066
:103F88002DE9F043ADF5197D04460E4692A8FFF7DA
:103F980097FB002840F091800023919391AA214635
:103FA80092A8FFF70DFE002840F08A8005AB00229A
:103FB800919992A8FFF790FD002840F0848001A90C
:103FC80005A8FFF779FE074600287FD100241DE0E9
:103FD800920027E04FEA9308002511E03E4B33F9A1
:103FE8002500023333F92530184400EBD07004F172
:103FF80001094010FCF706FA26F8140001354C4672
:10400800454503D240F6B7339C42E7D940F6B7336B
:104018009C422BD8C4F53B620832BDF80430022B11
:10402800D6D05200B2F5805F01D94FF480526B466A
:1040380000210091284905A8FFF7CAFCB0B9009BE8
:10404800A3B1BDF80420022AC4D04FEA53080023C4
:104058004345DBD240F6B7329442D7D81E4A32F9EC
:10406800132026F8142001330134F1E706F58053B4
:10407800C3F870475CB1012006F5805383F87407D4
:1040880078B930B338460DF5197DBDE8F0830020C6
:10409800F2E7012202FA03F3104A11680B43136096
:1040A800EFE700230F2BECD841F278710C4A01FBA3
:1040B8000322B242EDD00133F4E74FF0FF37E1E7D6
:1040C8006FF00107DEE76FF00207DBE76FF0030729
:1040D800D8E76FF00407D5E730C10120AC05002010
:1040E8004C09002008B50268094B9A4200D008BD67
:1040F800084A13889BB201339BB21380064B0022F7
:104108001A70064801F010FBFDF704FCEFE700BF4A
:1041180000300140B80500202406002030D10120DD
:1041280002682B4B9A4200D0704770B5294B1B7818
:1041380053B9294B1B78A52B29D1274B5A88531ED5
:104148009BB2B3F5047F2BD3224B00221A7022486E
:1041580046880579437945EA03258479C37944EA91
:10416800032431460830FCF7C3FA844203D01A4BC3
:104178005B78EE2B1CD1194A136801331360184978
:104188002B46324611F8070CFDF764FC70BD154A42
:1041980013889BB201339BB21380FDF7BBFBF5E795
:1041A8000C4B012119700E490F4801F03FFAEDE759
:1041B8000C4A13889BB201339BB213800B4A1388B5
:1041C8009BB201339BB21380FDF7A4FBDEE700BF6F
:1041D800003001402406002074060020B4050020A9
:1041E8007C060020B805002030D10120B005002051
:1041F80008B50268054B9A4200D008BD044B00225E
:104208001A7000F089FB034B1860F6E7003800408D
:1042180028010020CC80012008B50268054B9A428D
:1042280000D008BD044B01221A7000F075FB034B47
:104238001860F6E70038004028010020CC800120F3
:1042480008B50268034B9A4200D008BDFDF762FB2F
:10425800FBE700BF0030014008B572B64FF40051CB
:10426800034800F04BFF502000F05CFBF6E700BF6E
:10427800000C024008B50A480A4B0360002343605B
:104288008360C36003614361836103624362836245
:104298000A23C36201F068F800B908BDFFF7DCFF24
:1042A80030D101200030014008B50C480C4B0360A8
:1042B800002343608360C360036143610223836119
:1042C80002F054FD30B94FF40061044802F06AFD71
:1042D80010B908BDFFF7C0FFFFF7BEFF88D1012066
:1042E800002C014008B50B480B4B03604FF40073DA
:1042F800436000238360C36003614AF6444242611D
:104308008361C361036201F065FC00B908BDFFF772
:10431800A3FF00BF6CD201200038004010B598B050
:104328000CAC30220021204603F013FD0023079334
:10433800089309930A930B930393049305930693A5
:104348000193254A116C41F080511164126C02F0FE
:1043580080520192019A0293204A116841F48041E7
:104368001160126802F480420292029A02220C92B0
:1043780001210F9110211091129213930823149385
:10438800A8231593169207231793204603F0C6F81F
:10439800E0B90F23079302230893002309934FF4EE
:1043A800A0530A934FF480530B93052107A803F0F9
:1043B80005FB68B901230393C023049302230593E3
:1043C80003A803F0ABFB28B918B010BDFFF744FFF2
:1043D800FFF742FFFFF740FF00380240007000403F
:1043E80038B500F073FAFFF7DFF80320FFF7A2F8FB
:1043F800FFF794FF0520FFF79DF8FDF747FAFFF751
:1044080019F9FFF737FFFFF74FFFFFF76BFF0220A0
:10441800FFF790F8FDF77EFA534A0021534803F05E
:1044280098FC0024524B1C6014E0524B53F83400A3
:1044380038B141F278714D4B01FB0431FFF7A0FD13
:104448001AE041F27871494B01FB0431E0B2FCF704
:104458001BF801340F2C12D8464B03EBC4035968E0
:104468000029E2D041F27872404B02FB0432414B02
:1044780053F83400FFF7D0FC0028EAD0E1E73E4BC0
:1044880041F616421A6001223C4B1A6000243C4B4C
:104498001C603C4B1C603C4B1C7040213B4800F0AE
:1044A80027FE3B4D4FF480512846FCF709FC4FF49A
:1044B800805105F50050FCF703FC364BFF221A70BB
:1044C80000F02AFA344B1860052C12D84FF4005229
:1044D8002F49324801F04CFC58B1304801F0B2FC89
:1044E800012000F01FFA052C01D00134ECE7FFF79A
:1044F800B3FE00F011FA284B1B68C01A782812D8AE
:10450800244B1B78FF2BF4D0224B1C78E4B2FF22FB
:104518001A70FCF791F84FF480511D4800EB4430B5
:10452800FCF7CEFBE5E71B4BFF221A70184C4FF443
:1045380080512046FCF7C4FB4FF4805104F500502D
:10454800FCF7BEFB154D284601F07CFC4FF40052E9
:104558002146284601F00CFC0028D1D100F0DCF9F6
:104568000D4B1860CCE700BF807701004C09002094
:10457800AC050020C88A0008940800202401002007
:104588009C080020980800209208002000000240A3
:104598003081012028010020CC8001206CD201202C
:1045A800FEE7FEE7FEE7FEE7FEE770477047704765
:1045B80008B500F0A5F908BD08B5024800F0B4FB3D
:1045C80008BD00BF0CD2012008B5024800F0ACFBC2
:1045D80008BD00BFD08001207047000008B5024820
:1045E80001F036FA08BD00BF30D1012082B00021A9
:1045F80000910B4B5A6C42F480425A645A6C02F494
:1046080080420092009A01911A6C42F080521A641A
:104618001B6C03F080530193019B02B0704700BFED
:104628000038024030B58DB00023079308930993F2
:104638000A930B93039304930593069302682C4BF8
:104648009A4201D00DB030BD044601230393C02324
:1046580004930223059303A803F060FA002840D1CD
:1046680000250195234B1A6C42F480421A641A6C97
:1046780002F480420192019A02951A6B42F00202FA
:104688001A631B6B03F002030293029B4FF430433F
:1046980007930223089309950A9305230B9307A907
:1046A800154800F02FFC1548154B03604560402362
:1046B8008360C5604FF4806303614FF40063436116
:1046C8004FF4005383614FF48073C3614FF4003398
:1046D8000362456200F032FA30B9084BA3639C6369
:1046E800B0E7FFF7B9FDBBE7FFF7B6FDF5E700BF99
:1046F8000038004000380240000402400CD201207B
:104708007060024030B589B0002303930493059389
:10471800069307930268264B9A4201D009B030BD30
:1047280004460025019503F584335A6C42F48052FF
:104738005A645A6C02F480520192019A02951A6BDB
:1047480042F001021A631B6B03F001030293029B00
:10475800F02303930223049303230693052307936B
:1047680003A9144800F0CEFB2A460121232000F0BB
:1047780041F9232000F04EF90F48104B03604FF029
:10478800C06343608560C5604FF480630361456121
:104798008561C5614FF400330362456200F0CEF9CC
:1047A80018B9054BE3649C63B8E7FFF755FDF8E7D4
:1047B8000030014000000240D08001201064024017
:1047C8002DE9F04188B000230393049305930693E1
:1047D80007930268224B9A4202D008B0BDE8F081E4
:1047E8000022009203F58633596C41F40061596444
:1047F800596C01F40061009100990192196B41F024
:1048080004011963196B01F00401019101990292E5
:104818001A6B42F008021A631B6B03F00803029339
:10482800029B4FF4F85303934FF00208CDF8108021
:1048380001270597032606960C2507950DEB050419
:104848002146084800F05EFB04230393CDF810804E
:104858000597069607952146034800F053FBBCE7E9
:10486800002C014000080240000C0240034AD2F824
:10487800883043F47003C2F88830704700ED00E0D8
:1048880010B504460E4B1A784FF47A73B3FBF2F363
:104898000C4A1068B0FBF3F000F0C0F868B90F2CB0
:1048A80001D901200AE0002221464FF0FF3000F034
:1048B800A1F8054B1C60002000E0012010BD00BFDE
:1048C800300100202C0100203401002008B50B4BDA
:1048D8001A6842F400721A601A6842F480621A6018
:1048E8001A6842F480721A60032000F071F80F20F1
:1048F800FFF7C6FFFFF77AFE002008BD003C024024
:10490800034A1168034B1B780B441360704700BFC0
:10491800B4D2012030010020014B1868704700BF55
:10492800B4D2012038B50446FFF7F6FF0546B4F1C6
:10493800FF3F02D0044B1B781C44FFF7EDFF401BE0
:10494800A042FAD338BD00BF30010020002807DBA1
:1049580000F01F02400901239340024A42F8203028
:10496800704700BF00E100E0002808DB0901C9B278
:1049780000F1604000F5614080F80013704700F0D6
:104988000F000901C9B2014B1954704714ED00E03A
:1049980000B500F00700C0F1070CBCF1040F28BFF8
:1049A8004FF0040C031D062B0FD9C31E4FF0FF3E1A
:1049B8000EFA0CF021EA000199400EFA03FE22EAF1
:1049C8000E0241EA02005DF804FB0023EEE7000056
:1049D800074AD36823F4E0631B041B0C000200F4AD
:1049E800E060034343F0BF6343F40033D360704790
:1049F80000ED00E010B50446054BD868C0F302206E
:104A0800FFF7C6FF01462046FFF7AEFF10BD00BF07
:104A180000ED00E008B5FFF799FF08BD0138B0F1D7
:104A2800807F0BD24FF0E0235861054AF02182F8CD
:104A380023100020986107221A61704701207047EF
:104A480000ED00E030B405682C6824F480242C6064
:104A5800046863608368402B05D003689960036825
:104A6800DA6030BC704703689A600368D960F8E779
:104A780010B40368D9B210390A4AA2FB01421209DC
:104A8800094CA25CC2655F2907D96FF30903043397
:104A98008365806D5DF8044B70476FF30903836588
:104AA800F7E700BFABAAAAAA588B0008836A8269F5
:104AB80092B9012B0AD0022B02D00BB1002070470B
:104AC800C36A13F0807F28D100207047C36AB3F10E
:104AD800C07F24D000207047B2F5005F09D0022BB8
:104AE80025D9032B25D1C36A13F0807F23D1002059
:104AF8007047032B03D8DFE803F01404140A0020DE
:104B08007047C36A13F0807F0DD100207047C36AD5
:104B1800B3F1C07F09D00020704701207047012001
:104B2800704701207047012070470120704701201D
:104B380070470020704701207047000070B5044698
:104B4800FFF7EAFE002C5BD00546022384F83530D7
:104B5800002384F834302268136823F001031360BB
:104B680023681A6812F0010F0AD0FFF7D5FE431B1D
:104B7800052BF5D920236365032084F8350070BD23
:104B88001A68204911406268A0680243E06802433D
:104B98002069024360690243A0690243E069024355
:104BA800206A02430A43616A04291ED01A602668F3
:104BB800756925F00705636A1D43042B07D1A36AAD
:104BC8001D43E36A1BB12046FFF770FF90B975617A
:104BD8002046FFF74DFFE26D3F239340836000209E
:104BE8006065012384F83530C9E7E16A206B014329
:104BF8000A43DBE740236365012084F83500BEE7FC
:104C08000120BCE73F8010F038B50446856D90F868
:104C1800340001282AD0012084F8340094F83500A3
:104C2800012804D0002384F83430022038BD022043
:104C380084F83500002060652046FFF703FFE26D29
:104C48003F239340AB602268136843F01603136058
:104C5800236C23B12268136843F0080313602268A9
:104C6800136843F0010313600020DFE70220DDE74B
:104C780070B50446866DFFF74FFE94F83530022B69
:104C880006D080236365002384F83430012070BD8A
:104C980005462268136823F01603136022685369D7
:104CA80023F080035361236CE3B12268136823F077
:104CB800080313602268136823F001031360236854
:104CC8001B6813F0010F11D0FFF726FE431B052BBD
:104CD800F5D920236365032084F83500002384F880
:104CE8003430D4E7A36C002BDFD1E3E7E26D3F2338
:104CF8009340B360012384F83530002084F83400F1
:104D0800C5E790F83530022B03D080234365012096
:104D18007047052380F835300268136823F00103D3
:104D28001360002070470000F0B583B004460023EC
:104D38000193724B1D68724BA3FB0535AD0A876D55
:104D48003E68C26D08239340334210D003681A6846
:104D580012F0040F0BD01A6822F004021A60C26D18
:104D680008239340BB60436D43F001034365E26D44
:104D780001239340334209D02268526912F0800F10
:104D880004D0BB60636D43F002036365E26D0423E6
:104D98009340334209D02268126812F0020F04D0FF
:104DA800BB60636D43F004036365E26D10239340B9
:104DB800334224D02268126812F0080F1FD0BB605B
:104DC80023681A6812F4802F0DD01B6813F4002F83
:104DD80004D1236C9BB12046984710E0A36C73B1B3
:104DE800204698470BE01A6812F4807F03D11A68AE
:104DF80022F008021A60236C0BB120469847E26D36
:104E080020239340334254D02268126812F0100FC6
:104E18004FD0BB6094F83530052B0ED023681A6844
:104E280012F4802F33D01B6813F4002F2AD1636C3F
:104E3800002B3ED0204698473BE02268136823F0B9
:104E4800160313602268536923F080035361236CAF
:104E5800A3B12268136823F008031360E26D3F23AF
:104E68009340BB60012384F83530002384F8343044
:104E7800236D002B3FD0204698473CE0A36C002BC5
:104E8800E7D1EBE7E36BA3B12046984711E01A6836
:104E980012F4807F09D11A6822F010021A600123E7
:104EA80084F83530002384F83430E36B0BB12046A6
:104EB8009847636DFBB1636D13F0010F17D005239D
:104EC80084F835302268136823F001031360019BCE
:104ED80001330193AB4204D823681B6813F0010F18
:104EE800F5D1012384F83530002384F83430E36C9D
:104EF8000BB12046984703B0F0BD00BF2C0100203D
:104F0800B5814E1B00230F2B00F2E98070B582B0EB
:104F180065E085684FEA430E032404FA0EF425EA97
:104F28000405CC6804FA0EF42C438460446824EA2F
:104F380002044A68C2F300129A40224342605CE0CD
:104F4800DC08083450F8242003F00705AD004FF0C2
:104F58000F0E0EFA05FE22EA0E0E0A69AA4042EA70
:104F68000E0240F824205CE0072200E0002202FA4A
:104F78000EF22A4302345A4D45F82420594A9468BF
:104F88006FEA0C0224EA0C054E6816F4801F01D063
:104F98004CEA0405534CA560E46802EA04054E682F
:104FA80016F4001F01D04CEA04054E4CE560646815
:104FB80002EA04054E6816F4003F01D04CEA0405E5
:104FC800484C6560246822404D6815F4803F01D044
:104FD8004CEA0402434C226001330F2B7DD8012296
:104FE8009A400C6804EA020C32EA0404F4D14C68D2
:104FF80004F00304013C012C8BD94A6802F0030237
:10500800032A09D0C4685D000322AA4024EA0204E6
:105018008A68AA402243C2604A6802F00302022A50
:105028008ED004684FEA430E032202FA0EF224EAF5
:1050380002044A6802F0030202FA0EF222430260F6
:105048004A6812F4403FC7D000220192264A546CA5
:1050580044F480445464526C02F480420192019AF0
:105068009C08A51C1E4A52F8255003F0030E4FEA6F
:105078008E0E0F2202FA0EF225EA02051B4A904212
:105088003FF474AF02F5806290421AD002F5806254
:10509800904218D002F58062904216D002F58062E4
:1050A800904214D002F58062904212D002F58062DC
:1050B800904210D002F5806290423FF455AF08222A
:1050C80055E7012253E7022251E703224FE7042262
:1050D8004DE705224BE7062249E702B070BD70474D
:1050E80000380140003C0140003802400000024006
:1050F8000AB181617047090481617047436901EA17
:10510800030221EA030141EA02418161704700007C
:1051180082B000230193164B1B68164AA2FB032397
:105128005B0A642202FB03F30093009B43B1009BDC
:10513800013B009303689B6813F0020FF5D003E06E
:10514800436D43F0400343650268136823F040034E
:1051580013600268536823F0E00353600368DB6858
:105168000193019B072380F8513002B0704700BFBC
:105178002C010020F11976050268536823F080039A
:1051880053600268136823F040031360072380F814
:10519800513070472DE9F04782B0054688461746DA
:1051A8001E46FFF7B9FB0A9B1B1A03EB0609FFF71C
:1051B800B3FB8246284B1B68C3F3CB3309FB03F3CD
:1051C80001932B689C6838EA04040CBF0123002370
:1051D800BB423DD0B6F1FF3FF3D0FFF79DFBA0EBFC
:1051E8000A00484503D2019B73BB9946E9E72A6840
:1051F800536823F0E00353606B68B3F5827F0BD0EC
:10520800AB6AB3F5005F14D0012385F85130002351
:1052180085F8503003201CE0AB68B3F5004F02D08E
:10522800B3F5806FECD12A68136823F0400313604C
:10523800E6E72A68136823F4005313602A681368A2
:1052480043F400531360DFE7019B013B0193B8E788
:10525800002002B0BDE8F0872C01002070B584B0B2
:1052680004460D46164600920B4601220221FFF71E
:1052780091FFD0B9174B1B68174AA2FB03235B0D9C
:105288004FF47A7202FB03F303936368B3F5827FEA
:1052980011D0039B3BB1039B013B039323689B689D
:1052A80013F0800FF5D104B070BD636D43F0200397
:1052B80063650320F7E700962B46002280212046ED
:1052C800FFF768FF0028EED0636D43F020036365A5
:1052D8000320E8E72C010020819F5E1610B582B0FC
:1052E80004460B464168B1F5827F14D06168B1F578
:1052F800827F2AD1A168B1F5806F19D0009200226F
:1053080080212046FFF746FF30B3636D43F020034A
:105318006365032020E08168B1F5004F02D0B1F544
:10532800806FE3D12068016821F040010160DDE76A
:105338000092002201212046FFF72CFF60B1636D27
:1053480043F020036365032006E000920022012158
:105358002046FFF71FFF08B902B010BD636D43F088
:10536800200363650320F7E700285AD010B50446E8
:10537800436A33B94368B3F5827F05D00023C3611C
:1053880002E00023036143610023A36294F85130D3
:10539800002B40D0022384F851302268136823F090
:1053A80040031360636803F48273A26802F4044242
:1053B8001343E26802F400621343226902F0020216
:1053C8001343626902F001021343A26902F40072F6
:1053D8001343E26902F038021343226A02F08002A2
:1053E8001343A26A02F40052216813430B60638BD3
:1053F80003F00403626A02F01002216813434B6051
:105408002268D36923F40063D36100206065012317
:1054180084F8513010BD84F850302046FFF772F9F7
:10542800B8E7012070470000002944D010B4002AD2
:1054380043D090F85130012B41D190F85030012BD6
:105448003FD0012380F85030032380F851300023E7
:10545800436501638286C28683638387C387036447
:10546800C368D3B1184B43648368B3F5004F17D0B2
:1054780003681A6812F0400F03D11A6842F040021C
:105488001A60002380F8503001684A6842F0A00290
:105498004A6018465DF8044B70470C4B4364E3E7D9
:1054A8000268136823F0400313600268136843F42A
:1054B80080431360DCE7012070470120EAE70220FF
:1054C800E8E70220E6E700BF455900081D59000833
:1054D80038B5044690F85100656801280DD05FFA88
:1054E80080FCB5F5827F40F08980A068002840F0F4
:1054F8008780BCF1040F40F08580002900F084808B
:10550800002A00F08380002B00F0828094F850007D
:1055180001287FD0012084F8500094F85100042815
:1055280002D0052084F85100002060652163A3861D
:10553800E386A263A387E3872064606494F851300C
:10554800042B1DD0E36C344A1A64E36C334ADA63E3
:10555800E36C334ADA64E36C00221A652168E38F4E
:105568009BB2A26B0C31E06CFFF74EFB78B1636D18
:1055780043F010036365002384F8503001203EE0B7
:10558800E36C284A1A64E36C274ADA63E0E7226886
:10559800536843F001035360A26C00231364A26CA8
:1055A800D363A26CD364A26C13652268E38E9BB2AA
:1055B8000C32216BA06CFFF727FBB0B923681A687F
:1055C80012F0400F03D11A6842F040021A6000231B
:1055D80084F850302268536843F0200353602268EF
:1055E800536843F00203536009E0636D43F010030E
:1055F8006365002384F85030012000E0022038BDA4
:105608000220FCE70220FAE70120F8E70120F6E78C
:105618000120F4E70220F2E781580008FD5900084C
:105628006D590008755800088F59000838B590F86A
:105638005130012B6CD10446DDB2002969D0002A13
:1056480067D0806818B96368B3F5827F43D094F84F
:105658005030012B5FD0012384F85030042384F8A4
:10566800513000236365A163A287E28723646364E2
:10567800A386E386B0F5004F37D0E36C274A1A6457
:10568800E36C274ADA63E36C264ADA64E36C0022A7
:105698001A652168E38F9BB2A26B0C31E06CFFF7AF
:1056A800B3FA014660BB23681A6812F0400F03D1B1
:1056B8001A6842F040021A60002384F850302268C9
:1056C800536843F0200353602268536843F0010392
:1056D80053600D461DE0042384F8513013460A46F2
:1056E8002046FFF7F5FE054613E02268136823F00D
:1056F800400313602268136823F480431360BCE7F7
:10570800636D43F010036365002384F8503000E0B4
:105718000225284638BD0225FBE700BF755800085A
:105728008F5900086D59000810B584B004464A4BDB
:105738001B684A4AA2FB03235B0A642202FB03F3A9
:105748000293029B03930268536823F0200353607B
:105758000268536813F0800F11D0414B4364039BD8
:105768003BB1039B013B039394F85130072BF6D1CF
:1057780003E0636D43F040036365029B0393536842
:1057880013F0400F11D0374B2364039B3BB1039BAD
:10579800013B039394F85130072BF6D103E0636D76
:1057A80043F040036365029B0393536813F0020FB1
:1057B8001DD0A36CDBB100221A65A06CFFF758FA64
:1057C80008B1402363652268536823F002035360DD
:1057D800039B43B1039B013B039323689B6813F02E
:1057E800020FF5D003E0636D43F04003636523685F
:1057F8005B6813F0010F13D0E36C8BB100221A65BC
:10580800E06CFFF735FA08B1402363652268136836
:1058180023F0400313602268536823F001035360A8
:105828000023E387E386636D402B12D00020606578
:10583800002200922368D968009199680091009924
:1058480001929B680193019B012384F8513004B0B5
:1058580010BD0120ECE700BF2C010020F1197605EE
:1058680081510008195100087047704708B5806BCE
:10587800FFF7FBFF08BD704708B5806BFFF7FBFF1C
:1058880008BD000010B582B00446204B1B68204AB2
:10589800A2FB03235B0A642202FB03F30193FFF7D5
:1058A8003BF80246019B43B1019B013B01932368EE
:1058B8009B6813F0020FF5D003E0636D43F02003FB
:1058C800636521684B6823F0A0034B606421204680
:1058D800FFF7C4FC18B1636D43F020036365A36848
:1058E80033B900932368DA6800929B680093009BA1
:1058F800012384F85130636D23B12046FEF7F2FB93
:1059080002B010BD2046FEF79BFCF9E72C010020F1
:10591800F119760508B5026B036812781A73036BE0
:1059280001330363C38E9BB2013B9BB2C386C38E14
:105938009BB203B108BDFFF7A5FFFBE708B5026BF3
:1059480003681288DA60036B02330363C38E9BB269
:10595800013B9BB2C386C38E9BB203B108BDFFF760
:1059680091FFFBE708B5806B0268536823F00303D7
:105978005360436D43F010034365012380F85130B1
:10598800FEF7B0FB08BD38B50546846BFEF7C4FFCB
:105998002B681B6813F4807F1ED1024621684B6870
:1059A80023F020034B60A3681BB96368B3F5827FBB
:1059B80016D021684B6823F001034B606421204610
:1059C800FFF78CFC08B1202363650023E3870123DC
:1059D80084F85130636D4BB92046FEF7A1FB38BD02
:1059E80021684B6823F003034B60E7E72046FEF786
:1059F80079FBF4E738B50546846BFEF78DFF2B6815
:105A08001B6813F4807F1BD1024621684B6823F082
:105A180020034B6064212046FFF720FC18B1636D1A
:105A280043F0200363652268536823F0030353603F
:105A38000023E386E387012384F85130636D1BB9A3
:105A48002046FFF711FF38BD2046FEF74BFBFAE76B
:105A580030B585B00446026851689368C3F3801076
:105A680013F0400F05D113F0010F02D011F0400FD1
:105A780068D113F0020F02D011F0800F66D1C3F382
:105A8800401513F0200F03D110B913F4807F60D0B4
:105A980011F0200F5DD070B194F8510003285AD04E
:105AA800606D40F00400606500200090D0680090B0
:105AB80090680090009865B1606D40F001006065E5
:105AC8000020029090680290106820F0400010605A
