:020000040800F2
:1000000000000220516C0008613D0008633D0008BB
:10001000653D0008673D0008693D000800000000DC
:100020000000000000000000000000006B3D000820
:100030006D3D0008000000006F3D0008713D0008A4
:10004000A16C0008A16C0008A16C0008A16C00085C
:10005000A16C0008A16C0008A16C0008A16C00084C
:10006000A16C0008A16C0008A16C0008A16C00083C
:10007000A16C0008A16C0008A16C0008793D000883
:10008000893D0008A16C0008A16C0008A16C000863
:10009000A16C0008A16C0008A16C0008A16C00080C
:1000A000A16C0008A16C0008A16C0008A16C0008FC
:1000B000A16C0008A16C0008A16C0008A16C0008EC
:1000C000A16C0008A16C0008A16C00088D3D00081F
:1000D000A16C0008A16C0008A16C0008A16C0008CC
:1000E000A16C0008A16C0008A16C0008A16C0008BC
:1000F000A16C0008A16C0008A16C0008A16C0008AC
:10010000A16C0008A16C0008A16C0008A16C00089B
:10011000A16C0008A16C0008A16C0008A16C00088B
:10012000A16C0008A16C0008A16C0008A16C00087B
:10013000A16C0008A16C0008A16C0008A16C00086B
:10014000A16C0008A16C0008A16C0008A16C00085B
:10015000A16C0008A16C0008A16C0008A16C00084B
:10016000A16C0008A16C0008A16C0008A16C00083B
:10017000A16C0008A16C0008A16C00080000000040
:08018000A16C0008A16C00084D
:1001880053B94AB9002908BF00281CBF4FF0FF31F6
:100198004FF0FF3000F00CB8ADF1080C6DE904CE5B
:1001A80007F02EFADDF804E0DDE9022304B0704719
:1001B800704700BF10B5054C237833B9044B13B111
:1001C8000448AFF300800123237010BDEC00002029
:1001D800000000000C79000808B5034B1BB1034967
:1001E8000348AFF3008008BD00000000F0000020C5
:1001F8000C7900080378407843EA002070470378B8
:10020800427843EA0223827843EA0243C07843EA09
:100218000060704789B101EB410303F5807303FB6C
:1002280000F0001280EAE073A3EBE073C0EBC0308B
:1002380003F5FF437F3390FBF3F07047F3EE047A46
:10024800B4EEE70AF1EE10FA09D4DFED107AB4EE55
:10025800E70AF1EE10FA04DD9FED0C0A01E0B3EEB7
:10026800040AF3EE047A30EE670A9FED097AC0EECD
:10027800077A9FED087A67EE877AFCEEE77A17EE41
:10028800900AFF2800D9FF20C0B2704700409C4662
:1002980000189C4600007F43DFED137AB4EEE70AAE
:1002A800F1EE10FA09D4F3EE0E7AB4EEE70AF1EEA5
:1002B80010FA04DDB3EE0E0A01E09FED0B0ADFED44
:1002C8000A7A30EE670A9FED097AC0EE077A9FED49
:1002D800087A67EE877AFCEEE77A17EE900AFF282D
:1002E80000D9FF20C0B27047CDCCCC3D3333EF41AD
:1002F80000007F4308B51C4B1B78FBB11B4B1B78D8
:10030800DAB2022B13D0032A19D0012A24D1164BB2
:100318001B78403300FB03F343F3971045F2F05387
:1003280098421EDC124B984208DA114806E00E4B40
:100338001B7803F5807300FB03F3181208BD0A4B02
:100348001978FFF767FF80EAE073A3EBE073B3F572
:10035800167FF3DA0020F1E7034B1978FFF75AFF0D
:10036800ECE745F2F050E9E7CD520020CC520020EE
:1003780010AAFFFF034B1A680349044801FB020057
:1003880018607047000000200D6619005FF36E3C8E
:1003980083680239007D00FB0130704738B5044698
:1003A8001430FFF727FF054604F11A00FFF722FF74
:1003B80040EA054038BD037A427A817AA3F16100A8
:1003C800C0B2192801D8203BDBB2A2F16100C0B24B
:1003D800192801D8203AD2B2A1F16100C0B2192877
:1003E80001D82039C9B2572B01D000207047412AC3
:1003F80001D000207047562901D000207047012005
:1004080070470000B0F5004F04DA10F5004F04DB28
:1004180000B2704747F6FF7070470148704700BF49
:100428000080FFFF0F290AD810B5032900D804213E
:10043800C1F11004FFF7E6FF2041A04010BD70474E
:1004480010B5029CB9B18E46C2EB0212D200083236
:100458002168A0EB010C02FB0CF201EBE2322260F6
:10046800BEF1020F08D09B0803F5807303FB02F06E
:100478000012FFF7C7FF10BD821AF4E7042839D825
:1004880030B51D4B42F2187404FB003342F2147469
:100498001B5D63B30023092B07DC4FEA031C174CD1
:1004A80014F80C401CB10133F5E74FF0FF33002B73
:1004B8001EDB124D4FEA031C05EB03144FF0010E2F
:1004C80005F80CE060700025656025810C4D35F855
:1004D800100080B26081B0F5007F03D220464FF44F
:1004E80000744481054800EB031399819A7330BD69
:1004F8000023DEE7704700BFE8B6002048B60020BA
:100508006400002008B506E062B608BD6FF0090275
:1005180009B2FFF7B3FF72B6204B1B78204A127856
:100528009A42F1D01D4A1178C9B21E4B13F8110036
:10053800C0B2117803EB410393F801C05FFA8CFC59
:100548001378013303F00F03137062B6164BA3FB45
:10055800002303F0FC0202EB9303C01AC0B28C2301
:1005680042F6E06103FB0C11104B1B7803FB01F111
:100578000F4B83FB013149110E4B1B7803FB01F133
:100588000912B1F5FA4F01DD4FF4FA410228BDD046
:10059800032801D00022BBE70C22B9E7D45500207C
:1005A800D5550020D8550020CDCCCCCC89000020D2
:1005B8001F85EB510500002000B586464FF0000C62
:1005C8004FF6FF7010E040080133DBB2072B07D865
:1005D80010F0010FF7D04AF2010282EA5000F3E767
:1005E8000CF1010C1FFA8CFC8C4504D21EF80C305F
:1005F80058400023EAE75DF804FB000072B64FF0AC
:10060800000C8C4523D230B5124B1A8892B20132B5
:10061800114BA3FB02435B0A03EB4303A2EB032347
:100628009BB20E4A128892B29A420ED0094C228886
:1006380092B210F80CE00A4D05F802E023800CF1A4
:10064800010C1FFA8CFC8C45DED362B630BD62B655
:10065800704700BFD2520020ABAAAAAAD0520020ED
:10066800D45200200F4B1A8892B20F4B1B889BB2B2
:100678009A4215D00B490B889BB20C4AD05CC0B289
:100688000A8892B201320A4BA3FB02C35B0A03EB4E
:1006980043034FEA032CA2EB0C039BB20B80704779
:1006A80000207047D0520020D2520020D45200209F
:1006B800ABAAAAAA0D4B1B78013303F00F030C4A0F
:1006C80012789A4210D010B4084C94F800C05FFA1F
:1006D8008CFC084A02F81C00207802EB400251709A
:1006E80023705DF8044B7047704700BFD555002054
:1006F800D4550020D8550020F0B583B007460D46E4
:1007080016461C4619461046FFF756FF5A238DF821
:1007180000308DF801708DF80240230A8DF80330FF
:100728008DF804502D0A8DF805508DF80600C0F399
:1007380007208DF8070008216846FFF75FFF0CB90E
:1007480003B0F0BD21463046FFF758FFF8E7000038
:100758000023184600E00133092B07D81A01044981
:100768008A5C002AF7D00130C0B2F4E7704700BFB6
:1007780048B60020002300E00133092B0FD81A01E6
:1007880007498A5C002AF7D001EB031252788242AB
:10079800F2D11A014FF0000C01F802C0ECE77047E3
:1007A80048B60020002304E01A01034900208854B9
:1007B8000133092BF8D9704748B600202DE9F04FCE
:1007C80083B0984B196801F03F07974B1C68A30941
:1007D800C4F3821401F00F05C1F3011BA21E012A04
:1007E80005D9062C01D0002002E0012000E00120FC
:1007F8008E4A107013F0040808D1012C01D0002093
:1008080005E0BBF1030F0ED0002000E00120884A6C
:100818001070022C09D90120864A10705DB1082D8C
:1008280005D0002208E00120F1E70020F4E7002CC1
:1008380044D1002200E001220B2D41D00E2D41D0E1
:1008480013F0010F01D00F2D3ED013F0060303D093
:100858001E2F3BD03E2F3BD0012C3BD0052C39D04E
:10086800042D40D00C2D41D04FF0000A022C03D9A2
:10087800142F3ED0342F3FD0B8F1000F01D00F2DE8
:100888003DD011F0010F40D04FF00009022D3FD0AC
:100898000A2D3DD0002C43D001F0070006283CD09B
:1008A800042C3DD9EE1E082E3AD840F21110F04023
:1008B80010F0010F34D04FF0010933E00122BBE7FB
:1008C8000122BDE70122BBE70122BEE70122C3E7FF
:1008D8000122C1E70F2FC3D81DB1082DC0D10022B6
:1008E800C0E70022BEE74FF0010ABFE74FF0010A58
:1008F800BCE74FF0010ABFE74FF0010ABCE71BF065
:10090800010FBED04FF0010ABBE74FF00109BDE768
:10091800002BBFD14FF00009BCE74FF00109BFE73A
:100928000E2D17D01F2F18D03F2F19D00020009060
:10093800042C05D90A2D16D0052C01D9062D15D061
:10094800BBB101F01F030C2B24D01C2B25D0002396
:10095800019310E001200090EAE701200090E7E70A
:1009680001200090E4E701200090E5E701200090D5
:10097800E6E700230193042C03D9A5F10C03012B0E
:100988000ED92D4B1B78DEB2092B0CDDC82E0BDDE2
:10099800C82609E001230193EDE701230193EAE763
:1009A80001230193EDE70A26244B1B7803FB06F687
:1009B800361262B9BAF1000F1DD1B9F1000F5AD041
:1009C800002D41D0082D2AD043F6B8513EE01C4BEB
:1009D800197806FB01F147F2333303FB01F1194B98
:1009E80083FB0123C917C1EB2331002209B210464A
:1009F800FFF744FDDEE7124B597806FB01F146F29A
:100A0800666303FB01F10F4B83FB0123C917C1EB9D
:100A18002331002209B20120FFF730FDCDE744F26F
:100A28005C4113E078580020745800206C5800206E
:100A38006B5800206A5800208A0000200600002019
:100A480084000020AD8BDB6844F25C4106FB01F1B9
:100A5800534B9B7803FB01F1524B83FB0123C917CE
:100A6800C1EB233109B21BF0010F3BD06FF00B0231
:100A78000220FFF703FD009BABB1494BD97806FB79
:100A880001F144F6CD4303FB01F1464B83FB0123FF
:100A9800C917C1EB233109B2B8F1000F25D01822CC
:100AA8000320FFF7EBFC019B0BBB3F4B1B780BB103
:100AB8000F2D30D0B8F1000F02D03E3F012F38D9AA
:100AC800063C012C56D9394A1368013303F03F0319
:100AD8001360374A13680133C3F30803136003B084
:100AE800BDE8F08F6FF00402C2E70C22D8E72C4B68
:100AF8001B7903FB06F645F6991303FB06F6294B0B
:100B080083FB0623F617C6EB2331002209B2042023
:100B1800FFF7B4FCC9E76FF0230243F2BC4102209F
:100B2800FFF7ACFC242243F2BC410220FFF7A6FCED
:100B3800C0E76FF0180243F6A4010220FFF79EFCFD
:100B4800192243F6A4010220FFF798FC6FF0270250
:100B580044F268210320FFF791FC282244F268211F
:100B68000320FFF78BFC002245F2F0510420FFF729
:100B780085FCA5E70F2DA6D1002246F2A811104644
:100B8800FFF77CFC6FF00B0245F2F0510120FFF7F4
:100B980075FC0C2245F2F0510120FFF76FFC92E73B
:100BA80084000020AD8BDB686A580020785800204C
:100BB800745800202DE9F04F89B00746904A1388F1
:100BC8009BB2C3EB0313C3F30F13138000220AE095
:100BD8008C4830F812309BB2C3EB0313C3F30F13E6
:100BE80020F8123001320F2AF2D94B0807934FF040
:100BF8000009CDF81090BA4600F076BDFFF7DEFD8B
:100C0800814B1B78B3B1814B1B68DB08804A1268A3
:100C180012F0010F15D07D4A126813447D4A136003
:100C28007C4B1B68072B00F268857A4B08221A60F8
:100C380000F063BD754B1B68774AA2FB0323DB08F2
:100C4800E4E7724A1268D31A724A1360E8E7734BF2
:100C58001B5D2BB1724B03EB0B1300225A6029E189
:100C68004FEA0B136E4A0021D15423E16C4B03EB7E
:100C78000B1300225A605FE10A4670E1694A32F8B4
:100C8800142092B24AF6444101FB02F26649A1FBE4
:100C980002518909B2F5FA4F00D22021634D35F887
:100CA8001420561C25F8146091420FD9C2EB022279
:100CB800B2FBF1F2C2F1FF02A2FB0323120A42EADD
:100CC80003630F2B00F28B81102388E10022F3E7E6
:100CD800574A32F8142092B24AF6444101FB02F214
:100CE8005149A1FB02518909B2F5FA4F00D22021DE
:100CF8004E4A32F814506E1C22F81460464AA2FB81
:100D08000562520802EB4202954209D1444A02EBBD
:100D18000B12526822B1424E06EB0B16013A726072
:100D2800A94203D8414A002122F814100025DA18F4
:100D38006D41D31845F100052A0142EA13721901E1
:100D4800CB1A62EB0502920042EA9372C3F397133F
:100D580043EA026343E1374B195D374B1A5D374B62
:100D68001B5D374800EB840000902846FFF768FBBE
:100D7800054651E1334B195D334B1A5D334B1B5D0F
:100D8800334800EB840000902846FFF759FB0546DE
:100D980047E143468FE16B429BB2C6E1D31AC3F3E6
:100DA8004F13D21A92B2CCE12A4B1A5D2A4B03EBAD
:100DB8008403009320230121FFF742FB0546FFF738
:100DC800D9FA264B1A5DC3B2B3EB920F80F01C829E
:100DD80005EBE04518E2FFF7CDFA0014204B1B5D48
:100DE80003FB00F005EBE02516E2002D05DBABB2B6
:100DF800059A9A423BD2059339E06B429BB2F7E7DA
:100E0800AC5200208C5200206A58002070580020F4
:100E1800785800208C000020ABAAAAAA7C52002097
:100E280048B6002014000020D34D621098510020CD
:100E380008000020605200205000002048000020D8
:100E48004C5200204452002040000020380000206E
:100E58003052002020000020DC510020FC510020EE
:100E6800B0510020C3F5807305FB03F31D12002D5C
:100E7800C0F2EF81ABB20F2C08D8BC4A32F814206C
:100E880092B29A4202D2B94A22F81430B84B03EB14
:100E98000B1393F90E30C3F18002803305FB02F285
:100EA800029901EBE212029203FB05F5039B03EBA7
:100EB800E51303930BF1010BBBF1090F00F2DC8181
:100EC8004FEA0B13AA4AD35C002BF3D002EB0B13A7
:100ED8005C785A68A74B42F2187101FB043342F25E
:100EE80010715B589A42BFF4B2AE41F28C3303FBE7
:100EF8000423A04931F913009F4B1B5DE3B19F49BF
:100F080031F814309BB201339BB221F8143031F818
:100F1800141089B29A4B33F814309BB299420BD310
:100F2800964B002123F81410642A7FF69FAE904B4D
:100F380003EB0B13643A5A608D4A02EB0B12538988
:100F4800128913448F4A125D32B38F4A32F8141053
:100F5800FF297FF691AEC1F5FF72013292B2803A55
:100F680012B28A4D2D5D05FB02F2121202F5807253
:100F78003F2A00DC4022A3FB0223120A42EA036351
:100F8800834A32F81420C2F3072201321144C1F314
:100F980008017D4A22F814107E4A125DFAB17E4A91
:100FA800125D52B27D49095D79B17D4E36F8141053
:100FB800C1F300227B4D35F81450C5F346250135A1
:100FC8002944C1F3080126F81410012A3FF456AE4B
:100FD800022A3FF47DAE744A002122F814106449B5
:100FE80001EB0B114A6802EB13324A60C3F30B039F
:100FF8000B81B1F90C5000FB05F5ED136B4BA3FB0E
:10100800042303F0FC0202EB9303E41AE4B2684BF6
:101018001B5D002B7FF49FAE664B1B5D002B7FF49E
:10102800A9AE654B13F8343053B3634B03EBC403D9
:101038005B8803B90123604F07EBC407FE88F31AE6
:10104800C3F30903DFF880A14FEA842803EB842364
:101058003AF91390387909FB00F005EB2020FFF7E7
:10106800D1F9B0442AF818007B79C3F5807209FBDE
:1010780003F305FB02331D120136C6F30906FE8091
:101088004E4B13F83430002B46D04C4F07EBC407B7
:10109800BE882846FFF7B6F906EB8422484B23F8AA
:1010A8001200B7F80680B8F1FF0F7FF672AEC8F5E8
:1010B800FF7301339BB2414F07EBC4077A7802FBF9
:1010C80003F3C3F30F2302339BB2F31AC3F30903E9
:1010D800DFF8ECA003EB84233AF91390B87809FB06
:1010E80000F005EB2020FFF78DF9A30233442AF81E
:1010F8001300FB78C3F58072A94409FB03F305FBD1
:1011080002331D120136C6F30906BE8008F1030832
:10111800C8F30808A7F806802A4B13F83430002BC8
:1011280054D0002DFFF637AEABB2264A02EBC4020C
:10113800D28893427FF632AE9B1AC3F38F031344CF
:101148009AB2204B03EBC403DA805B8893423DD20A
:10115800C3EBC33393FBF2F3B3F5805F01DA4FF4CB
:10116800805305FB03F3DD1330E000BF8C520020F1
:1011780048B60020E8B600207452002068520020CB
:101188005800002018520020F0510020045200207E
:101198000C520020D4510020C4510020CC51002012
:1011A800A4510020B851002098510020CDCCCCCCBF
:1011B8006052002044520020645100203C5100201D
:1011C800080100201451002008290020224B1B5D33
:1011D800224A115D1944FF2900D9FF21C9B22846C6
:1011E800FFF718F81E4B1B5DD9B21E4A125D9A42D2
:1011F80002D21C4B195DC9B2FFF714F905461A4B08
:101208001B5D002B7FF4D0AD184B1B5D23B1184B31
:101218001B5D002B7FF4DFAD164B1B78002B3FF4D2
:1012280026AE144B5B78A3423FF4DFAD114B5B88CD
:10123800E34013F0010F3FF41AAE0E4B1A791B89E5
:1012480003FB02F2D30BB2F5E10FFFF40BAEE02380
:1012580008E66B429BB20EE628520020205200207E
:10126800300000202800002018520020D45100200F
:10127800B051002008510020DDF818A0AF4B1B78B2
:1012880083B1AE4B1A89059B934240F2B881991AF3
:10129800AA4B5B7901FB03F3C3F30F2313449AB200
:1012A800A64B1A81A64A1068029B1B1A00EBE300A2
:1012B8001060A44A1768039BDB1B07EBE307176062
:1012C800A14BD3F80080A14B33F91890A04B33F908
:1012D8001830A04A1278002A00F09C819E4A14789F
:1012E800E4B209FB04F500EB252503FB04F407EB46
:1012F8002424984A1278002A00F08E81974A16789A
:10130800F6B206FB03F35B1203EB6000FFF77AF813
:101318008E4B23F8180009FB06F0401200EB67001B
:10132800FFF770F88A4B23F818008D4B1B78002BB9
:101338003BD08C4B1B78002B37D08B4B1B88FF2B5B
:1013480000F26C811A468949097801FB02F2120AF7
:101358000C32A8EB020841F270718844844AA2FB5F
:101368000802D20901FB1282784931F9121081482A
:10137800067806FB01F105EB6125754931F9122064
:10138800017801FB02F204EB62247B4A1278002AFE
:1013980000F04881052213449BB2734A1380B3F5C9
:1013A800007F02D3134600221A80744B1B78002B4F
:1013B80035D0734B1B889BB2FF2B40F23581704BA5
:1013C8001B889BB2C3F5FF7301339BB26D4A127839
:1013D80002FB03F31B1240336B4E308800B26B4A9A
:1013E800127802FB00F005EB2020328812B203FBD2
:1013F80002F200EB222035882DB200FB03F3A5EBA7
:101408002325FEF7FFFF308004EBE504604B1978D5
:101418005B4A138811FA83F3C3F3080313805D4B07
:101428001B78DAB2B42B00DDB42202FB05F55A4B67
:1014380083FB0501E817C0EB611002FB04F483FB92
:101448000423E417C4EB6314544B1A7802FB00F02E
:1014580000121B7803FB04F42412514B1B78012B58
:1014680013D9504B1B78002B40F0E2804E4A106095
:101478004E4A14600133DBB24A4A1370484A127864
:101488009A4202D8474B00221A70494D2978FEF734
:10149800C9FF064629782046FEF7C4FF05463046B0
:1014A800FEF728FF04462846FEF724FF0546DFF826
:1014B800248198F800103F4F3A783F4E33783F48E0
:1014C80000902046FEF7BCFF044698F800103A78D2
:1014D80033783B4800902846FEF7B2FF0546394B63
:1014E8001B78002B00F0CE8084EAE472A2EBE47251
:1014F80080EAE073A3EBE0739A4240F3A180002CEA
:10150800C0F29B80A3B2304A128892B2934240F252
:101518009E809B1A2D49097801FB03F3C3F30F231F
:1015280013449AB2284B1A80294B1B889BB29342CA
:1015380080F09F80264B1B884EE000BF085100209A
:10154800805800207C58002084580020688700209C
:10155800885800207E0000207D0000207C000020AC
:101568006C5800207B0000206E5800207A00002074
:10157800F1197605790000206A580020B65200203B
:10158800B252002078000020B452002077000020DA
:10159800760000208B0000201F85EB5104000020FE
:1015A8007F000020C0520020BC520020B85200200A
:1015B800800000208200002081000020C852002006
:1015C800C4520020B0520020AE520020710000200A
:1015D80074000020CE5200209BB2C3EBC33393FBB0
:1015E800F2F34F4A127802FB03F31A12B3F5000F15
:1015F80037DAB2F5805F36DA4FF4805233E0059B74
:10160800D31A4849897901FB03F3C3F30F23D21A8C
:1016180092B245E6002464E6002672E6C3F5FF723E
:10162800013290E60322B6E63F4B1B889BB2CDE61B
:101638003E4A10683E4A14681CE763429BB262E760
:10164800002801DB83B25EE743429BB25BE7D31A13
:101658003849097801FB03F3C3F30F23D21A92B276
:1016680060E747F6FF7202FB04F4E41305FB02F29D
:10167800D513314A137804FB03F31C12137805FBC6
:1016880003F31D1284EAE473A3EBE47385EAE572BD
:10169800A2EBE5729342B8BF1346B3F5004F01DBE6
:1016A80047F6FF73254A128892B29A4202DA9BB231
:1016B800224A1380224A13680133136041F26F7281
:1016C800934202D91E4B00221A602046FEF79AFE6A
:1016D800049EB4002AF826002846FEF793FE02343A
:1016E8002AF80400731C0493049B079A934214D2AB
:1016F800144B1B68002B3FF481AA124A1368013B64
:1017080013604FF0000BCDF814B0CDF80CB0CDF845
:1017180008B0CDF818A0FFF7CFBB09B0BDE8F08F2F
:101728007200002008510020B2520020BC52002054
:10173800B8520020700000206F000020AC5200203A
:10174800845800208C00002086B0002200921F4B95
:10175800196B41F002011963196B01F00201009144
:1017680000990192196B41F004011963196B01F09A
:101778000401019101990292196B41F00101196369
:10178800196B01F00101029102990392196B41F062
:1017980008011963196B01F0080103910399049278
:1017A800196B41F010011963196B01F010010491D4
:1017B800049905921A6B42F080021A631B6B03F0BE
:1017C80080030593059B06B0704700BF00380240B0
:1017D8002DE9F0472DED028B94B004460E461546D0
:1017E8001F460138F02800F20D81DFE810F0F10003
:1017F800020110010901D1060B010B010B010B01BC
:101808000B010B010B010B010B010B011F01250142
:101818002B0131010B010B010B010B010B010B011A
:101828000B010B010B010B010B010B014101950190
:10183800A001AB01B901E701F0010B010B010B019C
:101848000B010B010B010B010B010B015C02BD022B
:101858009902BF023803650341038F03E3021003B3
:10186800EC0212031403B303BC03EB036D049704E7
:1018780011040B010B010B010B010B010B010B01F7
:101888000B010B010B010B010B010B011E023D02A9
:10189800060A390AC1044705A80511060B010B0100
:1018A8000B010B010B010B010B010B010B010B01D0
:1018B8000B010B010B010B010B010B010B010B01C0
:1018C8000B010B010B010B010B010B01A308C30852
:1018D800520A850A5E08F10722087208DC088509A1
:1018E8000B010B010B010B010B010B010B010B0190
:1018F8000B010B010B010B010B010B010B010B0180
:101908000B010B010B010B010B010B014906CB0667
:101918000B010B010B010B010B010B010B010B015F
:101928000B010B010B010B010B010B01F60626073E
:101938007007A307EF070B010B010B010B010B014C
:101948000B010B010B010B010B010B010B010B012F
:101958000B010B010B010B010B010B010B010B011F
:101968000B010B010B010B010B010B010B010B010F
:101978000B010B010B010B010B010B010B010B01FF
:101988000B010B010B010B010B010B010B010B01EF
:101998000B010B010B010B010B010B010B010B01DF
:1019A8000B010B010B010B010B010B019E0A130B21
:1019B800430B4B0B0B010B010B010B010B010B0133
:1019C8000B010B010B010B01570B730BA90BCB0B75
:1019D800012A17D908784978022A07D9B37803FB6E
:1019E80001F1B54BA3FB0131C1F34711FEF762FECC
:1019F80008E0012A06D949783078FEF75BFE01E055
:101A0800FEF7D0FE14B0BDEC028BBDE8F087002ACB
:101A1800F8D00B78A94AA2FB031202F0FC0101EBF3
:101A280092029B1AD8B2FEF7A5FEEBE7002AE9D08E
:101A38000A78A34B1A70E5E7002AE3D00A78A14B8D
:101A48001A70DFE7002ADDD00A789F4B1A70D9E7B1
:101A5800012AD7D90B78994AA2FB031202F0FC019C
:101A680001EB92029B1ADBB27178984AD154C9E70C
:101A78000F2A4AD90A78964B1A704B7803F0030359
:101A8800944A13708A78944B1A701B78032B02D8E7
:101A9800914B04221A70904B1B78102B02D98E4B55
:101AA80010221A70B568F46808EE104A736800EEE0
:101AB800103AFEF7C3FB894B187000EE105AFEF778
:101AC800EBFB874B1870B5EEC08AF1EE10FA19D40B
:101AD800DFED847AB4EEE78AF1EE10FA01DDB0EEBC
:101AE800678ADFED8E7A28EE278A9FED7E7AC8EE28
:101AF800077AFCEEE77ACDED017A9DF804307A4A50
:101B080013707FE79FED798AE2E7002A3FF47AAF06
:101B18000A786F4B1A7075E7032A7FF673AF0B6864
:101B280000EE103AFEF78AFB6C4B18706AE7032A3E
:101B38007FF668AF0B6800EE103AFEF7ADFB684B16
:101B480018705FE7002A3FF45DAF0B78032B03D9C9
:101B5800102B02D9102300E004235F4A137051E7C9
:101B6800032A24D90B6807EE903AF5EEC07AF1EE15
:101B780010FA19D49FED5B7AF4EEC77AF1EE10FAF9
:101B880001DDF0EE477A9FED657A67EE877ADFED43
:101B9800556A87EEA67AFCEEC77ACDED017A9DF8F4
:101BA8000430514A13702DE7DFED507AE2E7002A3E
:101BB8003FF428AF0A784C4B1A7023E7002A3FF409
:101BC80021AF0B7803F00303424A13701AE7032A84
:101BD8001ED90B6807EE903AB7EE007AF4EEC77A92
:101BE800F1EE10FA11D4B3EE007AF4EEC77AF1EE02
:101BF80010FA01DDF0EE477AFCEEE77ACDED017AD6
:101C08009DF804303A4A1370FCE6F0EE477AEAE7AA
:101C1800002A3FF4F7AE0B781BB1102B02D9102322
:101C280000E00123324A1370ECE6102A7FF6EAAE90
:101C38000B78224AA2FB031202F0FC0101EB92028C
:101C48009B1ADCB272782B4B1A55B568736800EE94
:101C5800103AFEF7F3FA284B185500EE105AFEF723
:101C68001BFB264B1855CDE6002A3FF4CBAE0B786C
:101C7800124AA2FB031202F0FC0101EB92029B1A2A
:101C8800DBB200221B49CA541D49CA541D49102001
:101C9800C8541D4901F833201C4901F833201C4958
:101CA80001F83320AEE6002A3FF4ACAE0B7803B15E
:101CB8000123184A1370A5E61F85EB51CDCCCCCC77
:101CC8008B0000208A00002089000020840000206A
:101CD800CE520020CC52002080000020820000203C
:101CE800810000200000C842CD5200200000000002
:101CF8007F00002060520020500000204800002093
:101D08002852002030000020645100203C5100205F
:101D1800145100207E0000203333733F00007F43BE
:101D2800032A7FF66FAE0B6807EE903AF5EEC07A9D
:101D3800F1EE10FA15D41FED087AF4EEC77AF1EE39
:101D480010FA01DDF0EE477A1FED0C7A67EE877A1C
:101D5800FCEEE77ACDED017A9DF80430C34A1370A2
:101D680050E6DFEDC37AE6E7032A4BE6032A7FF65F
:101D780049AE0B6807EE903AF5EEC07AF1EE10FA2C
:101D880015D4B7EE007AF4EEC77AF1EE10FA01DD59
:101D9800F0EE477A9FEDB77A67EE877AFCEEE77A3E
:101DA800CDED017A9DF80430B34A13702AE6DFEDD1
:101DB800B07AE6E7002A3FF425AE0B7803B1012399
:101DC800AE4A13701EE6032A7FF61CAE0B6807EEB8
:101DD800903AF5EEC07AF1EE10FA15D4B7EE007A23
:101DE800F4EEC77AF1EE10FA01DDF0EE477A9FEDD6
:101DF800A17A67EE877AFCEEE77ACDED017A9DF855
:101E080004309F4A1370FDE5DFED997AE6E7032A6F
:101E1800F8E5032AF6E5032A7FF6F4AD0B6807EE2A
:101E2800903AF5EEC07AF1EE10FA15D4B7EE007AD2
:101E3800F4EEC77AF1EE10FA01DDF0EE477A9FED85
:101E48008D7A67EE877AFCEEE77ACDED017A9DF818
:101E580004308C4A1370D5E5DFED857AE6E7002A71
:101E68003FF4D0AD0B7803B10123874A1370C9E55D
:101E7800032A7FF6C7AD0B6807EE903AF5EEC07AF5
:101E8800F1EE10FA15D4B7EE007AF4EEC77AF1EE57
:101E980010FA01DDF0EE477A9FED767A67EE877AE1
:101EA800FCEEE77ACDED017A9DF80430774A13709D
:101EB800A8E5DFED6F7AE6E7032A7FF6A3AD0B68A6
:101EC80007EE903A9FED727AF4EEC77AF1EE10FAC7
:101ED80001D5F0EE477AB2EE007AF4EEC77AF1EE69
:101EE80010FA01DDF0EE477AB7EE087A67EE877AE6
:101EF800FCEEE77A17EE903A1BB10C2B02D90C23B3
:101F080000E00123DBB2634A13707BE5032A7FF606
:101F180079AD0B6807EE903AF5EEC07AF1EE10FA5B
:101F280015D49FED5D7AF4EEC77AF1EE10FA01DD73
:101F3800F0EE477A9FED4F7A67EE877AFCEEE77A04
:101F4800CDED017A9DF80430544A13705AE5DFED5F
:101F5800487AE6E7002A3FF455AD0B7803B1012330
:101F68004F4A13704EE5032A7FF64CAD0B6807EE17
:101F7800903A9FED4C7AF4EEC77AF1EE10FA01D55B
:101F8800F0EE477AF5EEC07AF1EE10FA01DDDFEDFA
:101F9800387AF3EE040AC7EEA00AB2EE040A04F097
:101FA800C7FEDFED417A60EE277AFCEEE77A17EE9E
:101FB800903AB3F5004F01D347F6FF739BB23B4A03
:101FC80013801FE5032A7FF61DAD0B6807EE903AD4
:101FD800B7EE007AF4EEC77AF1EE10FA15D4B3EE44
:101FE800047AF4EEC77AF1EE10FA01DDF0EE477AE2
:101FF800B2EE087A67EE877AFCEEE77ACDED017AE1
:102008009DF804302A4A1370FCE4F0EE477AE6E7BC
:10201800032A7FF6F7AC0B6807EE903AF5EEC07A24
:10202800F1EE10FA1FD4B3EE087AF4EEC77AF1EEA7
:1020380010FA01DDF0EE477AF3EE040AC7EEA00AC3
:10204800B2EE040A04F074FEDFED1A7A60EE277A25
:10205800FCEEE77A17EE903AFF2B00D9FF23DBB2AC
:10206800154A1370CEE4DFED027ADCE77C0000202D
:102078000000000000007F437D0000207B0000205E
:102088007A00002079000020B65200207800002055
:10209800CDCC4C3D760000203333733F77000020D1
:1020A800B0520020000070C200FEFF4674000020FD
:1020B80072000020000000436F000020CDCCCC3D12
:1020C8000000484300007A44032A7FF69BAC0B6863
:1020D80007EE103A5FED077AB4EEE77AF1EE10FA00
:1020E80001D5B0EE677A5FED0A7AB4EEE77AF1EEE1
:1020F80010FA01DDB0EE677A5FED0E6AC6EE877AF8
:10210800FCEEE77A17EE903A1BB1FF2B02D9FF23BA
:1021180000E00123DBB2CB4A137073E4032A7FF695
:1021280071AC0B6807EE103AF1EE047AB4EEE77A78
:10213800F1EE10FA01D5B0EE677ADFEDC37AB4EEAE
:10214800E77AF1EE10FA01DDB0EE677ADFEDBF6AEB
:10215800C6EE877AFCEEE77A17EE903A1BB1FF2BB2
:1021680002D9FF2300E00123DBB2B94A137049E426
:102178000F2A7FF647AC0B78B64AA2FB031202F08F
:10218800FC0101EB92029B1ADBB2727802B10122C8
:10219800746807EE904AB06806EE900AF16807EE98
:1021A800101AB1EE046AF4EEC67AF1EE10FA01D50F
:1021B800F0EE467A9FEDA86AF4EEC67AF1EE10FAD0
:1021C80001DDF0EE467A06EE100AB5EEC06AF1EED1
:1021D80010FA4DD49FEDA16AF4EEC66AF1EE10FA3A
:1021E80001DDF0EE466A06EE101AB5EEC06AF1EEB1
:1021F80010FA40D49FED996AB4EEC67AF1EE10FA5F
:1022080001DDB0EE467A964901F833209FED956AD4
:1022180027EE866ADFED8D5AC6EE257AFCEEE77A60
:1022280017EE902A92B201EBC3014A80B2F5806F93
:1022380003D30A4640F2FF315180DFED8B5A66EE38
:10224800A56A9FED866AC6EE867AFCEEE77A17EEF7
:10225800901A834A02EBC303197127EE257AC7EE59
:10226800067AFCEEE77A17EE902A5A71FFF7CABB96
:10227800DFED7E6AAEE79FED7D7ABBE70F2A7FF63A
:10228800C1AB0B78734AA2FB031202F0FC0101EB0D
:1022980092029B1ADAB2737803B10123B06807EE91
:1022A800100AF16807EE901AB5EEC07AF1EE10FA4E
:1022B8003FD4DFED6A6AB4EEE67AF1EE10FA01DD9A
:1022C800B0EE667A06EE901AF5EEC06AF1EE10FAF4
:1022D80032D4DFED626AF4EEE67AF1EE10FA01DD4F
:1022E800F0EE667A624901F832309FED5F6A27EEB8
:1022F800067ADFED5A6AC7EE265ABCEEE57A8DED0E
:10230800017A9DF8043001EBC2014B7067EE867AC2
:1023180087EEA67AFCEEC77A17EE900A88705B08FB
:102328006033CB70DC2B7FF66DABDC22CA70FFF715
:1023380069BB9FED4E7ABCE7DFED4C7AC9E70B2A03
:102348007FF660AB0B78434AA2FB031202F0FC0154
:1023580001EB92029B1ADCB2757805B1012572680F
:1023680007EE902AB36808EE103A9FED427AF4EE31
:10237800C77AF1EE10FA01D5F0EE477AF5EEC07A99
:10238800F1EE10FA01DDDFED397AB7EE007A06EEEC
:10239800903AF4EEC76AF1EE10FA36D4B3EE047A46
:1023A800B4EEC78AF1EE10FA01DDB0EE478AF3EE1B
:1023B800040AC7EEA00AB2EE040A04F0B9FCDFED85
:1023C8002E7A60EE277AFCEEE77A17EE903AB3F5AC
:1023D800004F01D347F6FF73284A02F8345002EB46
:1023E800C4025380F3EE007A28EE278AFCEEC87AFE
:1023F800CDED017A9DF8043013710F2B3FF602AB37
:10240800134610221A71FFF7FDBAB0EE478AC5E7E6
:10241800002A3FF4F7AA0B780E4AA2FB031202F037
:10242800FC0101EB92029B1ADBB200220C4901F875
:1024380033200F4901F83320104901F83320FFF702
:10244800E1BA00BF710000200000FA4400007A449D
:1024580070000020CDCCCCCC000048430000C8421E
:102468006451002000442C4700007F430000000016
:102478003C510020000070C200FEFF4614510020AD
:10248800132A7FF6BFAA087800B101207378BA4AE8
:10249800A2FB031202F0FC0101EB92029B1ADBB2D1
:1024A800B178F27841EA0221756807EE905AB4686B
:1024B80006EE904AF26807EE102AF5EEC07AF1EEC1
:1024C80010FA50D4B7EE006AF4EEC67AF1EE10FABC
:1024D80001DDF0EE467A9FEDA96A05EE904AF4EE2A
:1024E800C65AF1EE10FA01D5F0EE466A9FEDA46ADD
:1024F800F4EEC66AF1EE10FA01DDF0EE466AB2EECD
:10250800046A05EE902AF4EEC65AF1EE10FA01D5E7
:10251800B0EE467A9FED9B6AB4EEC67AF1EE10FAF9
:1025280001DDB0EE467A984A1070537051809FEDE5
:10253800976A67EE867AFCEEE77A17EE903A13719F
:102548009FED936AC6EE267AFCEEE77A17EE902A9C
:10255800C6EE077AFCEEE77A17EE903A32B1FF2A18
:1025680005D9FF2203E0DFED8B7AABE701221BB12F
:10257800FF2B02D9FF2300E0012383494A718B71A5
:10258800FFF740BA804B00221A701A81FFF73ABA57
:102598007D4B1B78002B3FF435AA012A7FF632AA1F
:1025A8000B78754AA2FB031202F0FC0101EB9202C0
:1025B8009B1ADBB2744A52789A427FF423AA737842
:1025C80003EBC3135B009BB26F4A12899A42BFF4B4
:1025D80019AA6D4A1381FFF715BA0B2A7FF612AABA
:1025E8000B78654AA2FB031202F0FC0101EB920290
:1025F8009B1AD8B23379727943EA0223B27943EA53
:102608000243F27943EA026342F21072934200D91C
:102618001346614A01211170507053600021916086
:102628005E4B42F2187202FB003342F2107299506C
:1026380042F214729954FFF7E5B9574B1B78002BF7
:102648003FF4E0A9072A7FF6DDA90B784A4AA2FBE6
:10265800031202F0FC0101EB92029B1ADBB2B47880
:10266800F27844EA02243279717942EA0122B17996
:1026780042EA0142F17942EA0167474A52789A42AE
:102688007FF4C0A904F10802AA423FF6BBA9424A56
:102698005268BA427FF6B6A93F4A5268D21B9442A2
:1026A80000D994B242F218723C4802FB0300224659
:1026B80006F10801384404F02DFB3C44364A926880
:1026C800A242BFF49FA9344A9460FFF79BB9324BEA
:1026D8001B78002B3FF496A92F4B5978C8B29A68FB
:1026E80054082E4B42F2187501FB053342F2107163
:1026F8005C50012A14D90122284B42F2187101FBBF
:10270800003342F214715A5462B101238340244ABF
:1027180011680B431360204B00221A70FFF772B93F
:102728000022E9E7012282401D490B6823EA0203DF
:102738000B60F0E7002A3FF465A90B780E4AA2FB6C
:10274800031202F0FC0101EB92029B1ADBB2134A5E
:1027580042F2187101FB0322002142F2107011505D
:1027680042F21470115401229A400D490B6823EA71
:1027780002030B60FFF746B9CDCCCCCCCDCC4C3E98
:102788000000A042000096440851002000007F434A
:1027980000007A44000000008C510020E8B60020B8
:1027A80084520020BF4B42F2187101FB0233002112
:1027B80042F21070195042F2147019540132042A6E
:1027C800F0D9B94B00221A60FFF71CB90022F6E7CE
:1027D800012A7FF617A94B78002B3FF413A90B7831
:1027E800B24AA2FB031202F0FC0101EB92029B1A0F
:1027F800DFB2AC4B42F2187202FB073342F210729E
:102808009D580022B2EB550FBFF4FCA8A54941F230
:102818008C3307FB03F39C1831F91460A81A0138AC
:10282800034431F9130021F8140021F81360013230
:10283800E8E7042A7FF6E6A80B789C4AA2FB031275
:1028480002F0FC0101EB92029B1ADAB2D6F80130D1
:1028580007EE903AB5EE007AF4EEC77AF1EE10FA88
:1028680001D5F0EE477AB1EE007AF4EEC77AF1EED0
:1028780010FA01DDF0EE477A9FED8D7A67EE877AE0
:10288800FCEEE77A17EE903AB3F5007F05D3B3F57F
:10289800804F04D94FF4804301E04FF400739BB29A
:1028A800844921F81230FFF7ADB8012A7FF6AAA8AB
:1028B8000B787E4AA2FB031202F0FC0101EB9202A4
:1028C8009B1ADBB2727802B101227B49CA54FFF726
:1028D80099B8032A7FF696A80B78744AA2FB0312CC
:1028E80002F0FC0101EB92029B1ADBB2727802B192
:1028F80001227249CA54B278F17842EA0122704939
:1029080021F8132031F8132092B2132A03D80A466B
:10291800142122F813106A4A32F8132092B2B2F541
:10292800FA6F7FF66FA8664A4FF4FA6122F813101F
:10293800FFF768B8102A7FF665A80B785B4AA2FBF8
:10294800031202F0FC0101EB92029B1ADCB27278CE
:102958005C4B1A55B568736800EE103AFDF76EFCCB
:10296800594B185500EE105AFDF796FC574B185561
:10297800FFF748B8002A3FF445A80B784B4AA2FB5A
:10298800031202F0FC0101EB92029B1ADBB2002257
:102998004C49CA544E49CA544E491020C854474954
:1029A800CA54FFF72FB8132A7FF62CA80B783F4A92
:1029B800A2FB031202F0FC0101EB92029B1ADCB2AB
:1029C800737803B10123444A1355716807EE901ACE
:1029D800B26807EE102AF36800EE103A336908EE81
:1029E800103AF6EE006AF4EEE67AF1EE10FA01D546
:1029F800F0EE667AF3EE046AF4EEE67AF1EE10FA97
:102A080001DDF0EE667A06EE902AF5EEC06AF1EE88
:102A180010FA40D4F7EE006AB4EEE67AF1EE10FA56
:102A280001DDB0EE667A06EE903AF5EEC06AF1EE98
:102A380010FA33D4F7EE006AB4EEE68AF1EE10FA33
:102A480001DDB0EE668ADFED256A67EEA67AFCEE58
:102A5800E77A17EE903A9BB2214A22F81430DFED5C
:102A6800218A27EE287AFCEEC77ACDED017A9DF807
:102A780004301D4A1355FDF7E1FB1C4B185528EE91
:102A8800288AFCEEC87ACDED017A9DF80430184A00
:102A98001355FEF7B7BF9FED177ABBE79FED158A71
:102AA800C8E700BFE8B6002084520020CDCCCCCCCB
:102AB80000008045640000207C52002074520020F1
:102AC8005800002044520020400000203800002018
:102AD80020520020280000201852002000008043C7
:102AE8000C52002000007F430452002020000020E8
:102AF800FC510020000000000F2A7EF683AF0B78FF
:102B0800C54AA2FB031202F0FC0101EB92029B1AD8
:102B1800DBB2727802B10122C049CA54B27802B15C
:102B28000122BF49CA5496F90310BE4AD1543279DA
:102B3800717942EA0122BC4921F81320B279F0796F
:102B480042EA0022B94820F8132031F8132092B243
:102B5800132A03D80A46142122F81310B34A32F86C
:102B6800132092B2132A03D8B04A142122F8131062
:102B7800B16807EE901AF26807EE102ADFEDAC6A2A
:102B8800F4EEE67AF1EE10FA01D5F0EE667AF3EE9D
:102B98000E6AF4EEE67AF1EE10FA01DDF0EE667AEE
:102BA80006EE902AF5EEC06AF1EE10FA22D4F7EE9E
:102BB800006AB4EEE67AF1EE10FA01DDB0EE667A5C
:102BC800DFED9C6A67EEA67AFCEEE77A17EE902AAC
:102BD80092B2994921F81320DFED987A27EE277AE7
:102BE800FCEEC77ACDED017A9DF804209449CA54C9
:102BF800FEF708BF9FED937AD9E7012A7EF602AF68
:102C08000B78854AA2FB031202F0FC0101EB920249
:102C18009B1ADBB27278042D1BD9D6F8012007EE77
:102C2800902AF5EEC07AF1EE10FA16D4B7EE007AD3
:102C3800F4EEC77AF1EE10FA01DDF0EE477A9FED77
:102C48007F7A67EE877AFCEEE77ACDED017A9DF818
:102C580004207D49CA54FEF7D5BEDFED7A7AE5E750
:102C6800012A7EF6CFAE0B786B4AA2FB031202F064
:102C7800FC0101EB92029B1ADBB27278032A03D99A
:102C8800102A02D9102200E004227049CA54FEF723
:102C9800B9BE012A7EF6B6AE0B785F4AA2FB0312D4
:102CA80002F0FC0101EB92029B1ADBB27278042D50
:102CB8001BD9D6F8012007EE902AF5EEC07AF1EE7E
:102CC80010FA16D4B7EE007AF4EEC77AF1EE10FADD
:102CD80001DDF0EE477A9FED597A67EE877AFCEED0
:102CE800E77ACDED017A9DF804205949CA54FEF7D8
:102CF80089BEDFED547AE5E7012A7EF683AE0B78CC
:102D0800454AA2FB031202F0FC0101EB92029B1A56
:102D1800DBB27278032A03D9102A02D9102200E004
:102D280004224C49CA54FEF76DBE0DF10C094FF050
:102D38000008CDF80C80CDF81080CDF81480CDF8BF
:102D4800188001F09BF9444DA5FB00054FEA951A40
:102D5800424B1E88B6B2FDF7FBFC8DF80C00404BC9
:102D68001B788DF80D308DF80E808DF80F803D4B57
:102D78001A688DF810201A68C2F307228DF81120FE
:102D88001A68C2F307428DF812201B681B0E8DF8D3
:102D980013308DF814A0C5F387338DF81530AD0DB9
:102DA8008DF816508DF817808DF81860360A8DF852
:102DB800196010234A4639462046FDF79DFCFEF768
:102DC80021BE294B33F812309BB207EE903AF8EE49
:102DD800677ADFED266A87EEA67A14AB03EB8203E7
:102DE80003ED117A01320F2AEBDD214B1B889BB2D0
:102DF80007EE903AF8EE677ADFED1C6A87EEA67A5E
:102E08008DED137A442303AA39462046FDF774FC56
:102E1800FEF7F8BD0022E6E7CDCCCCCCD45100209B
:102E2800CC510020C45100201400002008000020CC
:102E3800CDCC4C3E00008043B851002000007F43B9
:102E4800B05100200000000028520020300000206F
:102E58002052002028000020D34D62108852002004
:102E68006E000020845200208C52002000FEFF4695
:102E7800AC5200200123574A39462046FDF73CFC56
:102E8800FEF7C0BDFDF764FC8DF80C00012303AA12
:102E980039462046FDF730FCFEF7B4BD032A7EF61E
:102EA800B1AD0B68039301F0E9F88DF81000C0F399
:102EB80007228DF81120C0F307428DF81220030E67
:102EC8008DF81330082303AA39462046FDF714FC71
:102ED800FEF798BDFDF766FC00233F4A13703F4A92
:102EE800102111703E4A13703E4A13703E4A012168
:102EF80011703E4A13603E4A13603E4A13703E4AC0
:102F080013603E4A13603E4A302111703D4A022147
:102F180011703D4A13803D4A13803D4A402111708B
:102F28003C4A0821117004E03B4A002122F81310A2
:102F380001330F2BF8D9394B00221A80FEF762BDF6
:102F4800012A7EF65FAD91F80080002702244745EC
:102F5800BEF458AD04F10803AB423EF653AD631C12
:102F6800F15CA31CF35C03FB01F12D4BA3FB0131C6
:102F7800C1F34711305DFDF79DFB0834A4B201375A
:102F8800FFB2E4E7002A3EF43DAD91F800A04FF00F
:102F980000090123D145BEF435AD991CA9423EF67E
:102FA80031ADF05C5A1C16F802808CB204EB0803B1
:102FB800AB423EF727AD3B46424616FA81F1FEF793
:102FC80007FCA0441FFA88F309F101095FFA89F99F
:102FD800E0E700BF6E000020CE52002080000020F5
:102FE800CD520020CC5200207F000020C852002083
:102FF800C4520020C0520020BC520020B852002009
:103008007700002076000020B4520020B252002041
:1030180071000020700000208C520020AC5200206B
:103028001F85EB5108B54B4B1B7803B3494B1B78F5
:10303800012B30D0474B1B78022B6BD0454B1B78AC
:10304800032B27D1444B198889B24448FDF7B4FAB9
:10305800434B1B889BB283426FD0424A13889BB272
:1030680001339BB213803B4B00221A7012E0A52853
:1030780003D0DA2801D0BB280CD13B4A00231380A7
:1030880013889BB2591C89B21180384AD054314BED
:1030980001221A7008BD344A13889BB2591C89B2A0
:1030A80011803249C85413889BB2072BF2D90B46BA
:1030B8004A78D2B22E490A709A78D97842EA01221F
:1030C80025490A801A79587942EA0022294802805B
:1030D8009A79DB7942EA0323214A13800B889BB251
:1030E800B3F5167F09D91F4A13889BB201339BB2E7
:1030F8001380184B00221A70CCE71F4B00221A804D
:10310800154B1B889BB21BB90322124B1A70C1E7DF
:103118000222FAE7184A13889BB2591C89B2118017
:103128000E49C854128892B20B4B1B889BB29A4224
:10313800B0D3084B03221A70ACE70D4B1878064B36
:103148001A880C4B1B889BB292B20449FEF740FBCD
:1031580089E700BFF85500200056002004560020DB
:10316800FA550020885200205C5800206058002042
:10317800FE550020FC5500200256002010B588B0EE
:10318800002200921C4B196B41F010011963196B56
:1031980001F01001009100990192196B41F00101B1
:1031A8001963196B01F00101019101990292196BE0
:1031B80041F0080119631B6B03F008030293029B9B
:1031C80003AC03920492059206920792012304939A
:1031D80003932146094801F0FDF940230393214652
:1031E800074801F0F7F94FF40053039321460548C7
:1031F80001F0F0F908B010BD00380240001002409C
:1032080000000240000C024000B583B0002101918B
:10321800094B1A6B42F400121A631B6B03F4001378
:103228000193019B0A460F2000F096FF0F2000F043
:10323800A3FF03B05DF804FB003802402DE9F0411C
:103248008046002429E0174F01221146384601F034
:10325800B7FA154E01224021304601F0B1FA134D5C
:1032680001224FF40051284601F0AAFA782000F014
:103278000BFF00220121384601F0A2FA002240216A
:10328800304601F09DFA00224FF40051284601F023
:1032980097FA782000F0F8FE01344445D3DBBDE806
:1032A800F08100BF0010024000000240000C024004
:1032B80000B583B013464FF0FF320092024608482B
:1032C80002F034FA40B9064802F080FD0428FAD129
:1032D800002003B05DF804FB4FF0FF30F9E700BFB2
:1032E800B8CA01202DE9F047ADF5007D044601225A
:1032F80069460020FFF7DCFF002842D180469DF890
:10330800FE31552B40D19DF8FF31AA2B3FD19DF8B6
:103318000030EB2B31D0E92B31D00DF5E370FCF701
:103328006EFF0746B0B301226946FFF7C1FFA0BB95
:103338000DF10B00FCF75EFFB0F5007F30D10DF109
:103348000E00FCF757FF05469DF810A009A8FCF7EA
:1033580056FF06460BA8FCF752FF27609DF80D3074
:1033680023752661EB19636006FB0A33A360E060EE
:1033780040460DF5007DBDE8F0870027D8E7002717
:10338800D6E74FF0FF38F3E76FF00108F0E76FF08A
:103398000108EDE76FF00208EAE76FF00308E7E7D6
:1033A8006FF00408E4E770B5ADF5007D14468B00B6
:1033B8004668C1F3D610C3F30805012269463044B4
:1033C800FFF776FF58B9064668462844FCF717FF0A
:1033D80020F07040206030460DF5007D70BD4FF044
:1033E800FF36F8E710B582B00446836A013383627A
:1033F800027D934205D2002084F82E02A08502B0F7
:1034080010BD01AAC169FFF7CEFF38B9019B064A72
:10341800934206D8E3610023A362ECE74FF0FF3044
:10342800EDE76FF00100EAE7F7FFFF0F2DE9F04F36
:10343800ADF5057D07468A46914601930026AAF117
:103448000202334B9A425FD84FF0000836E001364B
:103458002034B4F5007F2FDA04AB1D191B5D002B57
:1034680048D0E52BF4D0EB7A0F2BF1D013F0080FEE
:10347800EED113F0100FEBD12846FCF79CFF002883
:10348800E6D04E45E3D14FF40C720021019E304640
:1034980003F013FC34460FCF0FC497E8030084E809
:1034A80003002846FCF77AFFB061F06105F11C00C3
:1034B800FCF7A5FE30621FE008F101083B7D43459B
:1034C8000CD951463846FCF763FF012204A9404451
:1034D800FFF7EEFE834650B90446BAE703AA514601
:1034E8003846FFF760FF60B9DDF80CA0A7E74FF09A
:1034F800FF3B01E06FF0010B58460DF5057DBDE877
:10350800F08F6FF0020BF7E76FF0030BF4E700BFE3
:10351800F5FFFF0F2DE9F04104460F461646984681
:103528000023C8F800302DE0E1692046FCF730FFA1
:10353800A36A012204F12E011844FFF7B9FE0028FE
:1035480045D1012384F82E320023A38523E00CF112
:10355800280C04EB0C012A460631384603F0DAFB46
:103568002F44761B636A2B446362A38D13FA85F399
:10357800A385D8F800302B44C8F80030A38DB3F5E4
:10358800007F16D236B3626A236A9A421DD294F833
:103598002E32002BC8D0B4F82CC0CCF50073256AA5
:1035A800626AAD1A9E4200D83346AB42CFD81D4658
:1035B800CDE72046FFF716FF0028E3D0626A236AAA
:1035C8009A42DFD26FF0010005E0002003E04FF0DF
:1035D800FF3000E00020BDE8F08130B593B005462B
:1035E8000C4603E04FF0FF3214E0E41A8CB10023DC
:1035F800019301AB2246402C28BF402202A928464D
:10360800FFF788FF02460028ECD1019B002BECD184
:1036180000E00022104613B030BD00002DE9F0474D
:10362800ADF5047D06460C469146D0F80C8002ABF9
:10363800364A92E8030083E80300002202E002A869
:1036480083540132072A49DCA35C002B46D0A3F13E
:103658006100C0B21928F2D8203BDBB2EFE7203472
:10366800B4F5007F1FDA04AB1D191B5D002B3CD09D
:10367800E52BF4D0EA7A0F2AF1D012F0100FEED031
:103688002E2BECD008220DEB0201284603F005FB97
:1036980082460028E3D12846FCF780FE01282BD972
:1036A800C9F8000023E00137337DBB420ED94146FB
:1036B8003046FCF76DFE012204A93844FFF7F8FDF7
:1036C80004460028CCD04FF0FF3A10E001AA41464A
:1036D8003046FFF768FE90B9DDF80480A8F10202D1
:1036E8000B4B9A420ED80027DEE76FF0010A5046CE
:1036F8000DF5047DBDE8F0876FF0020AF7E76FF07B
:10370800030AF4E76FF0040AF1E700BF2C79000818
:10371800F5FFFF0FF0B591B005460E4600230C9358
:103728000CAB0C220DA9FFF7F5FE002840F08A80AB
:103738000C9B0C2B40F0898004224A490DA803F009
:10374800ACFA002840F08480042247490FA803F00F
:10375800A4FA00287FD1002333607360B360F3605C
:1037680024E02746282C28BF28270CAB3A4602A974
:103778002846FFF7CFFE002847D10C9BBB4247D114
:10378800282C39D802A8FCF735FD04460DF10A00AB
:10379800FCF730FD308003A8FCF731FD70600DF1B7
:1037A8001600FCF727FD3081012C34D10CAB082220
:1037B80069462846FFF7AEFE00283BD10C9B082B34
:1037C8003DD101A8FCF71BFD0446042227496846A1
:1037D80003F063FA0028C4D004222549684603F0A0
:1037E8005CFA0346D0B121462846FFF7F6FE0028CA
:1037F800DCD06FF006031FE0E11B2846FFF7EDFE63
:103808000028BFD06FF0040316E06FF0030313E045
:103818006FF0030310E06FF005030DE0F4603289E8
:10382800102A1BD13288013A92B2012A04D96FF0CA
:10383800080301E06FF00203184611B0F0BD6FF005
:103848000203F9E74FF0FF33F6E74FF0FF33F3E7F2
:103858006FF00103F0E76FF00103EDE76FF0070386
:10386800EAE700BF3879000840790008487900087D
:10387800507900082DE9F043ADF5197D04460E4650
:1038880092A8FFF72FFD002840F091800023919324
:1038980091AA214692A8FFF7C1FE002840F08A802D
:1038A80005AB0022919992A8FFF7C0FD002840F0CF
:1038B800848001A905A8FFF72DFF074600287FD1BE
:1038C80000241DE0920027E04FEA9308002511E04C
:1038D8003E4B33F92500023333F92530184400EB09
:1038E800D07004F101094010FCF78CFD26F8140093
:1038F80001354C46454503D241F287339C42E7D90E
:1039080041F287339C422BD8C4F59C520832BDF84B
:103918000430022BD6D05200B2F5805F01D94FF4A3
:1039280080526B4600210091284905A8FFF7F2FD57
:10393800B0B9009BA3B1BDF80420022AC4D04FEA55
:10394800530800234345DBD241F287329442D7D84B
:103958001E4A32F9132026F8142001330134F1E706
:1039680006F50053C3F810475CB1012106F5005372
:1039780083F81417C9B931B338460DF5197DBDE878
:10398800F0830021F2E70133042BF4D842F21870D7
:103998000F4A00FB0322B242F5D1012202FA03F3D7
:1039A8000C4A106803431360E5E70023ECE74FF087
:1039B800FF37E1E76FF00107DEE76FF00207DBE7AB
:1039C8006FF00307D8E76FF00407D5E760BA012066
:1039D800E8B60020845200200268094B9A4200D0C1
:1039E800704710B5074C2078FFF71CFBFCF73AFE30
:1039F8000549087001232246044800F0F5FF10BD70
:103A080000300140695800206858002060CA012031
:103A18000268094B9A4200D0704710B5074C2078CD
:103A2800FFF700FBFCF71EFE05490870012322463C
:103A3800044800F0D9FF10BD00300140695800204B
:103A48006858002060CA012008B572B64FF40051CA
:103A5800034800F0BBFE502000F016FBF6E700BF5D
:103A6800000C024008B50A480A4B03600023436073
:103A78008360C3600361436183610362436283625D
:103A88000A23C36200F050FF00B908BDFFF7DCFF4E
:103A980060CA01200030014008B50C480C4B036097
:103AA800002343608360C360036143610223836131
:103AB80002F010F930B94FF40061044802F026F919
:103AC80010B908BDFFF7C0FFFFF7BEFFB8CA012055
:103AD800002C014008B50B480B4B03604FF40073F2
:103AE800436000238360C36003614AF64442426135
:103AF8008361C361036201F03BF900B908BDFFF7B8
:103B0800A3FF00BF9CCB01200038004010B598B03F
:103B18000CAC30220021204603F0CFF80023079395
:103B2800089309930A930B930393049305930693BD
:103B38000193254A116C41F080511164126C02F016
:103B480080520192019A0293204A116841F48041FF
:103B58001160126802F480420292029A02220C92C8
:103B680001210F911021109112921393082314939D
:103B7800A8231593169207231793204602F082FC78
:103B8800E0B90F23079302230893002309934FF406
:103B9800A0530A934FF480530B93052107A802F012
:103BA800C1FE68B901230393C0230493022305933C
:103BB80003A802F067FF28B918B010BDFFF744FF4B
:103BC800FFF742FFFFF740FF003802400070004057
:103BD80030B583B000F02CFAFFF7D0FA0320FFF7D6
:103BE8002DFBFFF793FF0520FFF728FBFDF7ACFD42
:103BF800FFF70AFBFFF736FFFFF74EFFFFF76AFFF5
:103C08000220FFF71BFB3E4900230B703D4A13704F
:103C180001233D4800F0E8FE08B1FFF715FF3B4CD3
:103C28004CF278320021204603F047F82146384804
:103C3800FFF720FE08B1FFF707FF36493648FFF7C0
:103C480019FE08B1FFF700FF34493548FFF712FEA7
:103C580008B1FFF7F9FE33493348FFF70BFE08B107
:103C6800FFF7F2FE31493248FFF704FE08B1FFF7CB
:103C7800EBFE304B41F616421A6001222E4B1A60B9
:103C880000232E490B602E490B6040212D4800F07F
:103C980097FD2D4B93E8030002AB03E903002B4C7F
:103CA8004FF480512046FCF785FF4FF4805221469F
:103CB800274801F02BF908B9012513E0FFF7C4FEE6
:103CC8000121244800F082FD214801F056FA03281A
:103CD800F6D04FF4805221461D4801F017F908B973
:103CE80085F00105FCF70EFC02AB03EB850353F8E6
:103CF800084C4FF480512046FCF75CFFE4E700BF16
:103D0800685800206958002060CA0120E8B60020E1
:103D18005879000800DE00205C79000818050120A9
:103D280060790008302C012064790008485301208C
:103D380068790008705800208C000020785800200E
:103D4800745800200000024024790008609A01207D
:103D58009CCB012000100240FEE7FEE7FEE7FEE7ED
:103D6800FEE770477047704708B500F07BF908BD5B
:103D780008B5024800F040FB08BD00BF3CCB01205D
:103D88007047000008B5024800F058FF08BD00BFA2
:103D980060CA012082B0002100910B4B5A6C42F49A
:103DA80080425A645A6C02F480420092009A01914F
:103DB8001A6C42F080521A641B6C03F08053019312
:103DC800019B02B0704700BF0038024030B58DB08B
:103DD80000230793089309930A930B93039304937F
:103DE8000593069302682B4B9A4201D00DB030BD63
:103DF800044601230393C02304930223059303A8D5
:103E080002F040FE00283ED100250195224B1A6C95
:103E180042F480421A641A6C02F480420192019AB8
:103E280002951A6B42F002021A631B6B03F002033D
:103E38000293029B4FF4304307930223089309959A
:103E48000A9305230B9307A9144800F0C3FB1448F1
:103E5800144B0360456040238360C5604FF4806362
:103E680003614FF4006343614FF400538361C561FC
:103E78004FF400330362456200F012FA30B9084B80
:103E8800A3639C63B2E7FFF7DFFDBDE7FFF7DCFD47
:103E9800F5E700BF00380040003802400004024047
:103EA8003CCB01207060024010B588B0002303931A
:103EB80004930593069307930268184B9A4201D01E
:103EC80008B010BD0024019403F584335A6C42F401
:103ED80080525A645A6C02F480520192019A0294F8
:103EE8001A6B42F001021A631B6B03F00103029381
:103EF800029BF023039302230493032306930523D1
:103F0800079303A9064800F065FB224601212320F8
:103F180000F022F9232000F02FF9D1E7003001400A
:103F2800000002402DE9F04188B000230393049378
:103F38000593069307930268224B9A4202D008B071
:103F4800BDE8F0810022009203F58633596C41F4F4
:103F580000615964596C01F4006100910099019263
:103F6800196B41F004011963196B01F00401019107
:103F7800019902921A6B42F008021A631B6B03F054
:103F880008030293029B4FF4F85303934FF002087F
:103F9800CDF8108001270597032606960C2507956E
:103FA8000DEB05042146084800F014FB0423039395
:103FB800CDF810800597069607952146034800F02E
:103FC80009FBBCE7002C014000080240000C02403D
:103FD800034AD2F8883043F47003C2F88830704737
:103FE80000ED00E010B504460E4B1A784FF47A73D2
:103FF800B3FBF2F30C4A1068B0FBF3F000F0C0F822
:1040080068B90F2C01D901200AE0002221464FF09F
:10401800FF3000F0A1F8054B1C60002000E00120F3
:1040280010BD00BF940000209000002098000020E0
:1040380008B50B4B1A6842F400721A601A6842F409
:1040480080621A601A6842F480721A60032000F0D5
:1040580071F80F20FFF7C6FFFFF79CFE002008BD90
:10406800003C0240034A1168034B1B780B44136061
:10407800704700BFE4CB012094000020014B186872
:10408800704700BFE4CB012038B50446FFF7F6FFC0
:104098000546B4F1FF3F02D0044B1B781C44FFF7E0
:1040A800EDFF401BA042FAD338BD00BF94000020AA
:1040B800002807DB00F01F02400901239340024A51
:1040C80042F82030704700BF00E100E0002808DB1C
:1040D8000901C9B200F1604000F5614080F80013A1
:1040E800704700F00F000901C9B2014B195470471D
:1040F80014ED00E000B500F00700C0F1070CBCF1BA
:10410800040F28BF4FF0040C031D062B0FD9C31E44
:104118004FF0FF3E0EFA0CF021EA000199400EFA2A
:1041280003FE22EA0E0241EA02005DF804FB0023C6
:10413800EEE70000074AD36823F4E0631B041B0C76
:10414800000200F4E060034343F0BF6343F400332C
:10415800D360704700ED00E010B50446054BD86801
:10416800C0F30220FFF7C6FF01462046FFF7AEFF67
:1041780010BD00BF00ED00E008B5FFF799FF08BDCE
:104188000138B0F1807F0BD24FF0E0235861054A27
:10419800F02182F823100020986107221A617047E5
:1041A8000120704700ED00E030B405682C6824F465
:1041B80080242C60046863608368402B05D0036802
:1041C80099600368DA6030BC704703689A600368D6
:1041D800D960F8E710B40368D9B210390A4AA2FBCB
:1041E80001421209094CA25CC2655F2907D96FF325
:1041F800090304338365806D5DF8044B70476FF3E2
:1042080009038365F7E700BFABAAAAAA7C7900086F
:10421800836A826992B9012B0AD0022B02D00BB1B2
:1042280000207047C36A13F0807F28D100207047B0
:10423800C36AB3F1C07F24D000207047B2F5005F95
:1042480009D0022B25D9032B25D1C36A13F0807F0F
:1042580023D100207047032B03D8DFE803F01404B0
:10426800140A00207047C36A13F0807F0DD1002024
:104278007047C36AB3F1C07F09D00020704701209E
:1042880070470120704701207047012070470120C6
:1042980070470120704700207047012070470000D8
:1042A80070B50446FFF7EAFE002C5BD005460223F2
:1042B80084F83530002384F834302268136823F0FA
:1042C8000103136023681A6812F0010F0AD0FFF780
:1042D800D5FE431B052BF5D920236365032084F8FD
:1042E800350070BD1A68204911406268A068024311
:1042F800E06802432069024360690243A0690243FF
:10430800E0690243206A02430A43616A04291ED015
:104318001A602668756925F00705636A1D43042B32
:1043280007D1A36A1D43E36A1BB12046FFF770FF5C
:1043380090B975612046FFF74DFFE26D3F2393402A
:10434800836000206065012384F83530C9E7E16A9D
:10435800206B01430A43DBE740236365012084F8AF
:104368003500BEE70120BCE73F8010F038B50446B1
:10437800856D90F8340001282AD0012084F8340093
:1043880094F83500012804D0002384F83430022042
:1043980038BD022084F83500002060652046FFF70C
:1043A80003FFE26D3F239340AB602268136843F03C
:1043B80016031360236C23B12268136843F00803C3
:1043C80013602268136843F0010313600020DFE7DD
:1043D8000220DDE790F83530022B03D080234365B7
:1043E80001207047052380F835300268136823F0F0
:1043F8000103136000207047F0B583B00446002322
:104408000193724B1D68724BA3FB0535AD0A876D8E
:104418003E68C26D08239340334210D003681A687F
:1044280012F0040F0BD01A6822F004021A60C26D51
:1044380008239340BB60436D43F001034365E26D7D
:1044480001239340334209D02268526912F0800F49
:1044580004D0BB60636D43F002036365E26D04231F
:104468009340334209D02268126812F0020F04D038
:10447800BB60636D43F004036365E26D10239340F2
:10448800334224D02268126812F0080F1FD0BB6094
:1044980023681A6812F4802F0DD01B6813F4002FBC
:1044A80004D1236C9BB12046984710E0A36C73B1EC
:1044B800204698470BE01A6812F4807F03D11A68E7
:1044C80022F008021A60236C0BB120469847E26D6F
:1044D80020239340334254D02268126812F0100F00
:1044E8004FD0BB6094F83530052B0ED023681A687E
:1044F80012F4802F33D01B6813F4002F2AD1636C79
:10450800002B3ED0204698473BE02268136823F0F2
:10451800160313602268536923F080035361236CE8
:10452800A3B12268136823F008031360E26D3F23E8
:104538009340BB60012384F83530002384F834307D
:10454800236D002B3FD0204698473CE0A36C002BFE
:10455800E7D1EBE7E36BA3B12046984711E01A686F
:1045680012F4807F09D11A6822F010021A60012320
:1045780084F83530002384F83430E36B0BB12046DF
:104588009847636DFBB1636D13F0010F17D00523D6
:1045980084F835302268136823F001031360019B07
:1045A80001330193AB4204D823681B6813F0010F51
:1045B800F5D1012384F83530002384F83430E36CD6
:1045C8000BB12046984703B0F0BD00BF9000002013
:1045D800B5814E1B00230F2B00F2E98070B582B025
:1045E80065E085684FEA430E032404FA0EF425EAD1
:1045F8000405CC6804FA0EF42C438460446824EA69
:1046080002044A68C2F300129A40224342605CE006
:10461800DC08083450F8242003F00705AD004FF0FB
:104628000F0E0EFA05FE22EA0E0E0A69AA4042EAA9
:104638000E0240F824205CE0072200E0002202FA83
:104648000EF22A4302345A4D45F82420594A9468F8
:104658006FEA0C0224EA0C054E6816F4801F01D09C
:104668004CEA0405534CA560E46802EA04054E6868
:1046780016F4001F01D04CEA04054E4CE56064684E
:1046880002EA04054E6816F4003F01D04CEA04051E
:10469800484C6560246822404D6815F4803F01D07D
:1046A8004CEA0402434C226001330F2B7DD80122CF
:1046B8009A400C6804EA020C32EA0404F4D14C680B
:1046C80004F00304013C012C8BD94A6802F0030270
:1046D800032A09D0C4685D000322AA4024EA020420
:1046E8008A68AA402243C2604A6802F00302022A8A
:1046F8008ED004684FEA430E032202FA0EF224EA2F
:1047080002044A6802F0030202FA0EF2224302602F
:104718004A6812F4403FC7D000220192264A546CDE
:1047280044F480445464526C02F480420192019A29
:104738009C08A51C1E4A52F8255003F0030E4FEAA8
:104748008E0E0F2202FA0EF225EA02051B4A90424B
:104758003FF474AF02F5806290421AD002F580628D
:10476800904218D002F58062904216D002F580621D
:10477800904214D002F58062904212D002F5806215
:10478800904210D002F5806290423FF455AF082263
:1047980055E7012253E7022251E703224FE704229B
:1047A8004DE705224BE7062249E702B070BD704786
:1047B80000380140003C014000380240000002403F
:1047C8000AB181617047090481617047436901EA50
:1047D800030221EA030141EA0241816170470000B6
:1047E8002DE9F04782B00546884617461E46FFF772
:1047F80045FC0A9B1B1A03EB0609FFF73FFC8246A0
:10480800284B1B68C3F3CB3309FB03F301932B68D5
:104818009C6838EA04040CBF01230023BB423DD046
:10482800B6F1FF3FF3D0FFF729FCA0EB0A0048459B
:1048380003D2019B73BB9946E9E72A68536823F0C2
:10484800E00353606B68B3F5827F0BD0AB6AB3F5B6
:10485800005F14D0012385F85130002385F85030CB
:1048680003201CE0AB68B3F5004F02D0B3F5806FAE
:10487800ECD12A68136823F040031360E6E72A683E
:10488800136823F4005313602A68136843F4005331
:104898001360DFE7019B013B0193B8E7002002B0FA
:1048A800BDE8F0879000002070B584B004460D463E
:1048B800164600920B4601220221FFF791FFD0B95C
:1048C800174B1B68174AA2FB03235B0D4FF47A7240
:1048D80002FB03F303936368B3F5827F11D0039B54
:1048E8003BB1039B013B039323689B6813F0800F44
:1048F800F5D104B070BD636D43F0200363650320F8
:10490800F7E700962B46002280212046FFF768FF34
:104918000028EED0636D43F0200363650320E8E7C9
:1049280090000020819F5E1600285AD010B50446DA
:10493800436A33B94368B3F5827F05D00023C36166
:1049480002E00023036143610023A36294F851301D
:10495800002B40D0022384F851302268136823F0DA
:1049680040031360636803F48273A26802F404428C
:104978001343E26802F400621343226902F0020260
:104988001343626902F001021343A26902F4007240
:104998001343E26902F038021343226A02F08002EC
:1049A8001343A26A02F40052216813430B60638B1D
:1049B80003F00403626A02F01002216813434B609B
:1049C8002268D36923F40063D36100206065012362
:1049D80084F8513010BD84F850302046FFF764FA4F
:1049E800B8E701207047000010B590F851C044683E
:1049F800BCF1010F0AD05FFA8CFEB4F5827F3FD17B
:104A08008468002C3ED1BEF1040F3DD100293DD071
:104A1800002A3DD0002B3DD090F85040012C3BD0CF
:104A2800012480F8504090F85140042C02D005240D
:104A380080F851400024446501638386C3868263FD
:104A48008387C387C368B3B1144B0364144B4364AF
:104A580003681A6812F0400F03D11A6842F0400246
:104A68001A60002380F8503001684A6842F0E0027A
:104A78004A60184605E00B4B03640B4B4364E7E7B9
:104A8800022010BD0220FCE70220FAE70120F8E727
:104A98000120F6E70120F4E70220F2E70D4C0008B8
:104AA800D54B00089D4B0008654B00087047000077
:104AB80010B582B00446274B1B68274AA2FB032384
:104AC8005B0A642202FB03F30193FFF7D7FA02465D
:104AD80021684B6823F020034B60019B43B1019B85
:104AE800013B019323689B6813F0020FF5D003E0A4
:104AF800636D43F02003636564212046FFF7D4FE0D
:104B080018B1636D43F020036365A36833B900935C
:104B18002368DA6800929B680093009B636D93B9E1
:104B280094F85130042B07D0012384F851302046E3
:104B3800FEF752FF02B010BD012384F85130204621
:104B4800FEF766FFF6E7012384F851302046FFF7A9
:104B5800ADFFEFE790000020F119760508B5026B6C
:104B6800036812781A73036B01330363C38E9BB215
:104B7800013B9BB2C386C38E9BB23BB902685368A4
:104B880023F080035360C38F9BB203B108BDFFF7C6
:104B98008FFFFBE708B50268836B127B1A70836B83
:104BA80001338363C38F9BB2013B9BB2C387C38F1F
:104BB8009BB23BB90268536823F060035360C38E0D
:104BC8009BB203B108BDFFF773FFFBE708B5026BA3
:104BD80003681288DA60036B02330363C38E9BB2E7
:104BE800013B9BB2C386C38E9BB23BB90268536834
:104BF80023F080035360C38F9BB203B108BDFFF756
:104C080057FFFBE708B50368DA68836B1A80836B84
:104C180002338363C38F9BB2013B9BB2C387C38FAD
:104C28009BB23BB90268536823F040035360C38EBC
:104C38009BB203B108BDFFF73BFFFBE730B585B07A
:104C48000446026851689368C3F3801013F0400F5C
:104C580005D113F0010F02D011F0400F68D113F005
:104C6800020F02D011F0800F66D1C3F3401513F084
:104C7800200F03D110B913F4807F60D011F0200FFA
:104C88005DD070B194F8510003285AD0606D40F09F
:104C98000400606500200090D06800909068009043
:104CA800009865B1606D40F00100606500200290D9
:104CB80090680290106820F040001060029A13F487
:104CC800807F09D0636D43F0080363650023039375
:104CD80023689B680393039B636D002B2FD0226886
:104CE800536823F0E0035360012384F8513011F036
:104CF800030F2ED02268536823F003035360E36C3C
:104D08004BB1164A1A65E06CFFF764FB18B1636D86
:104D180043F040036365A36C8BB1104A1A65A06C1D
:104D2800FFF758FB58B1636D43F04003636506E035
:104D3800236C2046984702E0636C2046984705B0EC
:104D480030BD00230193D368019393680193019BBD
:104D5800F5E72046FFF7AAFEF1E700BF694D000816
:104D680008B5806B0023C387C386FFF79FFE08BD85
:104D7800002800F0BE8038B5044690F84130002B7A
:104D880051D0022284F841202168CB6923F47B6347
:104D980023F00F03CB6123681A626369934269D0D9
:104DA800E368002B46D11025A368202B00D86D009E
:104DB800012001F011FF2369B3F5007F3CD0B0FB5F
:104DC800F5F000EB800043006269B3FBF2F30533B2
:104DD800494AA2FB0323C3F3C002C2EBD3035B0817
:104DE80011029A1EFD2A3FD822690A4321681A43F4
:104DF8000A622168CB6923F47B6323F00F0362689E
:104E0800A0680243E0680243A0690243134343F4E5
:104E18000063CB61236A012B2ED00020606401233C
:104E280084F8413038BD80F84030344B4363FEF796
:104E3800CDFFA6E72025B7E7E36853B1AD00B0FB87
:104E4800F5F000EB800043006269B3FBF2F3053331
:104E5800BEE7ED00B0FBF5F000EB800043006269AF
:104E6800B3FBF2F30533B3E7636C43F010036364F9
:104E78000120D7E70021B7E7214B63632268214B64
:104E88009A421FD04FF04022D36923F47B6323F06A
:104E98000F03D36122681B4B9A4215D04FF0402272
:104EA800022313622268174B9A420FD04FF0402515
:104EB800EB699BB26268B2F5007F09D0BAB94FF4CA
:104EC800807007E0104ADFE70F4AE9E70E4DEFE789
:104ED8004FF48070B4F808C0A189228B40EA0C0016
:104EE80001430A43134343F40063EB6195E7002051
:104EF800F0E70120704700BFCDCCCCCC8F50000824
:104F0800CD5200080038004000340040002958D035
:104F180038B50446002A56D094F84130DDB2012B4A
:104F280053D194F84030012B51D0012384F84030FC
:104F3800032384F841300023636461622368DB69DA
:104F480003F00703032B04D0052B02D022856285CA
:104F580003E0520092B222856285A36B1D4A1A644F
:104F6800A36B1D4ADA63A36B1C4ADA642268238D9B
:104F78009BB20C32616AA06BFFF7F8F9A8B900235D
:104F880084F8403023685A6812F0020F03D15A6837
:104F980042F002025A602368DA6912F4806F13D172
:104FA800DA6942F48062DA610EE0636C43F0080368
:104FB8006364012384F84130002384F84030284694
:104FC80002E001207047012038BD0220FCE70220E2
:104FD800FAE700BFEB4F00082F5000085B510008AC
:104FE800704708B5806BFFF7FBFF08BD704708B531
:104FF800426A03681288DA60436A02334362438D67
:105008009BB2013B9BB24385438D9BB203B108BD64
:105018000268536823F0A0035360012380F84130ED
:10502800FFF7E4FFF3E708B50346806BDB694BB98C
:105038000268536823F00203536000234385012369
:1050480080F84130FFF7D2FF08BD704708B5036804
:10505800DA68C36A1A80C36A0233C362438E9BB29A
:10506800013B9BB24386438E9BB203B108BD0268E5
:10507800536823F060035360012380F84130FFF741
:10508800E4FFF3E7704710B584B0044603689A68F4
:10509800039290F84120042A05D094F84130032B5C
:1050A8002CD004B010BD039A12F0010F03D05B6836
:1050B80013F0400F1FD1039B13F0400FEDD023686E
:1050C8005A6812F0200FE8D05A6822F060025A603D
:1050D800002301932368DA6801929B680193019B7E
:1050E800012384F84130636C43F002036364204673
:1050F800FFF7C8FFD1E7FFF7A9FFDCE7039B13F031
:10510800020F04D023685B6813F0800F1DD1039B46
:1051180013F0080FC5D023685A6812F0200FC0D0CA
:105128005A6822F0A0025A600023029323689B6801
:105138000293029B012384F84130636C43F004031B
:1051480063642046FFF79EFFABE72046FFF74FFF5B
:10515800DDE708B5806B0268536823F003035360EA
:10516800002343854386012380F84130436C43F094
:1051780008034364FFF786FF08BD90F841007047B5
:10518800704708B5436A9A1C426202681B88D3605C
:10519800438D9BB2013B9BB24385438D9BB23BB988
:1051A8000268536823F0A0035360438E9BB203B197
:1051B80008BD012380F84130FFF7E2FFF8E700005F
:1051C80008B50268154B9A421CD04FF04023DA68A4
:1051D800C36A991CC1621A80438E9BB2013B9BB281
:1051E8004386438E9BB263B902680C4B9A420CD03B
:1051F8004FF04022536823F060035360438D9BB205
:105208002BB108BDA3F58063E1E7054AF2E7012366
:1052180080F84130FFF7B4FFF3E700BF00380040E3
:105228000034004008B5436A9A1C42621A88016833
:10523800134B994218D04FF04023DA60438D9BB24C
:10524800013B9BB24385438D9BB263B902680C4B0B
:105258009A420CD04FF04022536823F0A0035360C9
:10526800438E9BB22BB108BDA3F58063E5E7054AE1
:10527800F2E7012380F84130FFF782FFF3E700BF30
:10528800003800400034004008B50368DA68C36A93
:10529800991CC1621A80438E9BB2013B9BB2438624
:1052A800438E9BB23BB90268536823F06003536096
:1052B800438D9BB203B108BD012380F84130FFF74D
:1052C8005FFFF8E710B586B0044603689A68059250
:1052D800704A93426FD04FF04022916804915B6806
:1052E8000393536802936368B3F5007F01D0002BE2
:1052F80070D1059B13F0020F03D0039B13F0800FAE
:105308005CD1049B13F0010F03D0029B13F0400FF4
:1053180058D1049B13F0400F24D0029B13F0200FA8
:1053280020D022685B4B9A4250D04FF040225368FD
:1053380023F0600353602268536823F0A00353608E
:10534800002300932368DA6800929B680093009B0F
:10535800012384F84130636C43F002036364204600
:10536800FFF790FE059B13F0080F22D0039B13F064
:10537800200F1ED02268536823F0A00353602268D0
:10538800444B9A4224D04FF04022536823F06003E4
:1053980053600023019323689B680193019B0123B9
:1053A80084F84130636C43F0040363642046FFF7DC
:1053B80069FE06B010BDA2F580628EE72046FFF7B1
:1053C800E0FE9EE72046FFF7FBFEA2E7324AAEE783
:1053D800314ADAE7049B13F0020F03D0029B13F063
:1053E800800F4AD1059B13F0010F03D0039B13F0E4
:1053F800400F46D1059B13F0400F1CD0039B13F0C0
:10540800200F18D02268536823F060035360226885
:10541800204B9A4239D04FF04022536823F0A00322
:105428005360012384F84130636C43F002036364E2
:105438002046FFF727FE049B13F0080FB9D0029B04
:1054480013F0200FB5D02268124B9A421FD04FF0AC
:105458004022536823F0A00353602268536823F066
:1054680060035360012384F84130636C43F0040304
:1054780063642046FFF706FE9BE72046FFF7D2FE4F
:10548800B0E72046FFF700FFB4E7034AC5E7024A42
:10549800DFE700BF003800400034004070B582B03C
:1054A800044600230193006800F00AFD054610B188
:1054B800284602B070BD206800F0CCFF38B901233F
:1054C800A364A36C012B0BD02E46284614E00023BE
:1054D800A364206800F0F4FC0028F2D00546E7E752
:1054E8000021206800F024FE0028EDD04FF0805500
:1054F800DEE7019B01330193019A4FF6FE739A424E
:1055080013D896B90021206800F012FEE0B91249BC
:10551800206800F0EBFE0646C0B90021206800F0C4
:10552800BAFCC30FE5D01E46E3E7019A4FF6FE73B7
:105538009A420ED810F0804302D001236364B7E783
:10554800002262641D46B3E70546B1E74FF0805577
:10555800AEE74FF08075ABE7000010C1F0B589B039
:1055680004460F46FEF78AFD064600230093019382
:105578000821206800F062FD054610B1284609B0F0
:10558800F0BD216D0904206800F0D2FD0546002811
:10559800F4D14FF0FF33029308230393302304938D
:1055A80002230593002306930123079302A9206889
:1055B80000F074FC206800F0EBFD054658B1DDE70B
:1055C80000F04BFC4DF825000135FEF757FD831B15
:1055D800B3F1FF3F43D02068436B13F02A0F07D184
:1055E800436B13F4001FEBD1436B13F4005FECD152
:1055F800436B13F0080F29D1436B13F4007F25D1B7
:10560800436B13F0020F24D1456B15F0200523D10D
:1056180040F23A538363019A130203F47F0343EA87
:105628000263110A01F47F410B4343EA12633B60B2
:10563800009A130203F47F0343EA0263110A01F498
:105648007F410B4343EA12637B6097E70825856334
:1056580094E70225856391E7202585638EE74FF05F
:1056680000458BE710B582B00446002100910191F6
:10567800006800F010FC10F0007F13D16946204646
:10568800FFF76CFF80B9019B13F4802F0ED0216DBA
:105698000904206800F04CFD30B90221206800F0B0
:1056A8005FFD01E04FF4006002B010BD4FF0806074
:1056B800FAE710B582B00446002100910191006814
:1056C80000F0E9FB10F0007F13D169462046FFF790
:1056D80045FF80B9019B13F4803F0ED0216D09046A
:1056E800206800F025FD30B90021206800F038FD61
:1056F80001E04FF4006002B010BD4FF08060FAE79F
:1057080070B581B104460E46016D0904006800F0C9
:1057180057FD054608B1284670BD0021206800F0F5
:10572800BAFB3060F7E74FF00065F4E72DE9F04F7A
:1057380087B005460C4616469A46DDF84090FEF7B7
:105748009DFC002C36D0804695F834305FFA83FBF8
:10575800012B40F007810023AB6306EB0A03EA6DD7
:1057680093422ED8032385F834302B680022DA625E
:105778006B6C012B00D076024FF0FF3300934FEA99
:105788004A23019390230293022303930023049353
:10579800012305936946286800F080FBBAF1010FE0
:1057A80014D902232B633146286800F077FCA0B98E
:1057B800019F27E0AB6B43F00063AB634FF0010B35
:1057C800D6E0AB6B43F00073AB63D1E001232B63EE
:1057D8003146286800F04AFCE9E72B68664A9A6374
:1057E800AB6B0343AB63012385F8343000232B6391
:1057F800BEE0FEF743FCA0EB0800484520D2B9F113
:10580800000F1DD02868466B40F22A331E4026D16F
:10581800436B13F4004FECD0002FEAD0072EE8D8E2
:10582800286800F01AFB2070C0F307236370C0F3E8
:105838000743A370000EE0700434043F0136EDE71F
:105848002B684D4A9A63AB6B43F00043AB6301236B
:1058580085F8343000232B634FF0030B88E0436B4B
:1058680013F4807F05D0BAF1010F02D96B6C032BBA
:105878003AD12B685A6B12F0080F46D15A6B12F4C2
:10588800007F42D15A6B12F0020F4AD15A6B12F0C4
:10589800200F52D12868436B13F4001F59D0002FF2
:1058A80057D000F0DAFA2070C0F307236370C0F312
:1058B8000743A370000EE0700434043FFEF7DEFBDC
:1058C800A0EB0800484502D2B9F1000FE2D12B68DD
:1058D800294A9A63AB6B43F00043AB63012385F815
:1058E800343000232B6343E000F0F0FB034600282C
:1058F800BFD02A6820499163AA6B1343AB63012385
:1059080085F8343000232B6332E01B4A9A63AB6B73
:1059180043F00803AB63012385F8343000232B637D
:1059280026E0154A9A63AB6B43F00203AB6301238D
:1059380085F8343000232B631AE00F4A9A63AB6B67
:1059480043F02003AB63012385F8343000232B6335
:105958000EE040F23A538363012385F834304FF068
:10596800000B05E0AB6B43F00053AB634FF0010B4A
:10597800584607B0BDE8F08FFF0540000346426E69
:10598800920F0A70426EC2F383624A7090F86720E1
:1059980002F003028A7090F86620CA7090F86520B9
:1059A8000A7190F864204A71826E120DCA80B0F8AC
:1059B8006A2002F00F020A72826EC2F3C0324A7283
:1059C800826EC2F380328A72826EC2F34032CA7229
:1059D800826EC2F300320A7300224A73426C002AB4
:1059E80040F08680806E40F6FC7202EA8002D86E33
:1059F80042EA90720A61DA6EC2F3C2620A7593F8DB
:105A08006F2002F007024A75DA6EC2F342528A75B5
:105A1800DA6EC2F38242CA75DA6EC2F3C2320A760D
:105A28000A6901325A65087E00F007000230824098
:105A38005A6591F808C00CF00F0C012000FA0CF020
:105A48009865400A00FB02F2DA654FF400721A66A4
:105A5800DA6EC2F380324A76DA6EC2F3C6128A76FA
:105A6800DA6E02F07F02CA761A6FD20F0A771A6FBF
:105A7800C2F341724A771A6FC2F382628A771A6F49
:105A8800C2F38352CA771A6FC2F3405281F82020BA
:105A9800002081F82100B3F8722002F0010281F899
:105AA80022201A6FC2F3C03281F823201A6FC2F382
:105AB800803281F824201A6FC2F3403281F8252001
:105AC8001A6FC2F3003281F826201A6FC2F38122BE
