:020000040800F2
:1000000000000220B53C0008051400080714000891
:10001000091400080B1400080D140008000000006B
:100020000000000000000000000000000F140008A5
:100030001114000800000000131400081514000833
:10004000053D0008053D0008053D0008053D000888
:10005000053D0008053D0008053D0008053D000878
:10006000053D0008053D0008053D0008053D000868
:10007000053D0008053D0008053D00081D14000869
:100080002D140008053D0008053D0008053D000849
:10009000053D0008053D0008053D0008053D000838
:1000A000053D0008053D0008053D0008053D000828
:1000B000053D0008053D0008053D0008053D000818
:1000C000053D0008053D0008053D0008053D000808
:1000D000053D0008053D0008053D0008053D0008F8
:1000E000053D0008053D0008053D0008053D0008E8
:1000F000053D0008053D0008053D0008053D0008D8
:10010000053D0008053D0008053D0008053D0008C7
:10011000053D0008053D0008053D0008053D0008B7
:10012000053D0008053D0008053D0008053D0008A7
:10013000053D0008053D0008053D0008053D000897
:10014000053D0008053D0008053D0008053D000887
:10015000053D0008053D0008053D0008053D000877
:10016000053D0008053D0008053D0008053D000867
:10017000053D0008053D0008053D000800000000A1
:08018000053D0008053D0008E3
:1001880053B94AB9002908BF00281CBF4FF0FF31F6
:100198004FF0FF3000F00CB8ADF1080C6DE904CE5B
:1001A80003F0F8FDDDF804E0DDE9022304B0704750
:1001B800704700BF10B5054C237833B9044B13B111
:1001C8000448AFF300800123237010BD1000002005
:1001D800000000009440000808B5034B1BB1034918
:1001E8000348AFF3008008BD0000000014000020A1
:1001F800944000080378407843EA00207047037869
:10020800427843EA0223827843EA0243C07843EA09
:100218000060704783680239007D00FB0130704739
:1002280038B504461430FFF7E5FF054604F11A0017
:10023800FFF7E0FF40EA054038BD037A427A817A49
:10024800A3F16100C0B2192801D8203BDBB2A2F1AA
:100258006100C0B2192801D8203AD2B2A1F16100D8
:10026800C0B2192801D82039C9B2572B01D00020B3
:100278007047412A01D000207047562901D000203C
:100288007047012070470000B0F5004F04DA10F500
:10029800004F04DB00B2704747F6FF707047014813
:1002A800704700BF0080FFFF04282CD830B5164BDC
:1002B80042F2187404FB003342F214741B5DFBB164
:1002C8000023092B07DC03EB430C104C14F82C40DB
:1002D8001CB10133F5E74FF0FF33002B11DB0B4C5A
:1002E80003EB430E04EB8E0C012504F82E508CF81A
:1002F80001000020CCF80400ACF808108CF80A20A3
:1003080030BD0023EBE77047845E00200C5E0020C0
:100318002DE9F04F83B09C4B196801F03F069B4BC9
:100328001C68A309C4F3821401F00F05C1F3011B73
:10033800A21E012A05D9062C01D0002002E00120C6
:1003480000E00120924A107013F0040708D1012C34
:1003580001D0002005E0BBF1030F0ED0002000E023
:1003680001208C4A1070022C09D901208A4A107089
:100378005DB1082D05D0002208E00120F1E700203A
:10038800F4E7002C45D1002200E001220B2D42D0D9
:100398000E2D42D013F0010F01D00F2D3FD013F0D6
:1003A800060303D01E2E3CD03E2E3CD0012C3CD060
:1003B800052C3AD0042D41D00C2D42D04FF0000925
:1003C800022C03D9142E3FD0342E40D00FB10F2D5C
:1003D80040D011F0010F43D04FF00008022D42D059
:1003E8000A2D40D0002C46D001F0070006283FD047
:1003F800042C40D9A5F1030CBCF1080F3BD840F2FE
:10040800111020FA0CF010F0010F34D04FF0010851
:1004180033E00122BAE70122BCE70122BAE7012250
:10042800BDE70122C2E70122C0E70F2EC2D81DB1E5
:10043800082DBFD10022BFE70022BDE74FF0010918
:10044800BEE74FF00109BBE74FF00109BEE74FF0E7
:100458000109BBE71BF0010FBBD04FF00109B8E75A
:100468004FF00108BAE7002BBCD14FF00008B9E7FC
:100478004FF00108BCE70E2D17D01F2E18D03F2EC5
:1004880019D04FF0000A042C05D90A2D16D0052CD6
:1004980001D9062D15D0BBB101F01F030C2B28D0B4
:1004A8001C2B29D00023019310E04FF0010AEAE742
:1004B8004FF0010AE7E74FF0010AE4E74FF0010ABD
:1004C800E5E74FF0010AE6E700230193042C03D97E
:1004D800A5F10C03012B12D9A2B9B9F1000F18D15B
:1004E800B8F1000F29D0F5B1082D19D043F6B8514D
:1004F8001BE001230193E9E701230193E6E70123C8
:100508000193E9E7002247F233311046FFF7CCFEAA
:10051800E3E7002246F266610120FFF7C5FEDFE748
:1005280044F25C4101E044F25C411BF0010F35D01C
:100538006FF00B020220FFF7B7FEBAF1000F06D0EA
:100548007FB3182244F6CD410320FFF7ADFE019B8F
:100558004BBB114B1B780BB10F2D2BD017B13E3E67
:10056800012E35D9063C012C53D9074A13680133AB
:1005780003F03F031360054A13680133C3F308030C
:10058800136003B0BDE8F08F3C0000203800002065
:100598002E0000202D0000202C0000206FF0040207
:1005A800C8E70C22CEE7002245F699110420FFF790
:1005B8007BFECEE76FF0230243F2BC410220FFF737
:1005C80073FE242243F2BC410220FFF76DFEC5E70B
:1005D8006FF0180243F6A4010220FFF765FE192206
:1005E80043F6A4010220FFF75FFE6FF0270244F2F2
:1005F80068210320FFF758FE282244F268210320CF
:10060800FFF752FE002245F2F0510420FFF74CFE9E
:10061800A8E70F2DA9D1002246F2A8111046FFF72E
:1006280043FE6FF00B0245F2F0510120FFF73CFE4C
:100638000C2245F2F0510120FFF736FE95E700BF86
:100648002DE9F84F05464E080024E9E0FFF760FE63
:10065800834B1B78ABB1834B1B68DB08824A12685B
:1006680012F0010F14D07F4A126813447F4A1360B6
:100678007E4B1B68072B00F2DA807C4B08221A603D
:10068800D5E0784B1B687A4AA2FB0323DB08E5E731
:10069800744A1268D31A754A1360E9E703EB4302F8
:1006A8009200744F4FF0000C07F802C00133092B79
:1006B8003CD803EB43026F4F17F82220002AF5D0ED
:1006C80003EB43076B4A02EB870292F801E052689A
:1006D800694F42F2187C0CFB0E7C42F210775CF8F2
:1006E8000770BA42DAD203EB4307DFF888C10CEB94
:1006F800870C571CCCF8047041F28C3707FB0E228C
:100708005D4F37F91270BCF9082007FB02F2D213CB
:100718009CF90A70C7F1800C80370CFB02FC00EBD7
:10072800EC1007FB02F201EBE211BFE7534B1A682A
:10073800801A02EBE0001860514B1A68891A02EB24
:10074800E10BC3F800B04F4B1F684F4B33F91780CC
:100758004E4B33F917204E4B1B78002B6FD00323D9
:1007680008FB03F800EBA80A02FB03F30BEBA30951
:10077800DB1003EB6000FFF787FD434B23F81700FE
:100788004FEAE80000EB6B00FFF77EFD3F4B23F8D4
:100798001700404B1B786BB33F4B1A88FF2A50D881
:1007A80013462F49097800294FD0AA2000FB03F3EC
:1007B8001B0A1233FB1A41F2707C63443748A0FBD2
:1007C80003E0C0090CFB10302F4B33F910300AEB53
:1007D800A30A2E4B33F9103009EBA30900293AD0AC
:1007E80005231A4492B22C4B1A80B2F5007F01D32C
:1007F80000221A800137234B1F6041F26F739F421A
:1008080002D9204B00221A605046FFF73DFDA70091
:1008180025F824004846FFF737FD0237E85301342E
:10082800B4421AD2114B1B68002B3FF40FAF0F4A8A
:100838001368013B136000231946184637E7022363
:100848008EE7C2F5FF730133ABE7C3EB0313C3F3C2
:1008580057131833AEE70323C3E7BDE8F88F00BF8B
:100868002C000020340000203C0000200000002064
:10087800ABAAAAAA0C5E0020845E002044000020D7
:1008880040000020480000202C2F00204C000020B1
:100898002D0000202E00002030000020F1197605E0
:1008A80086B0002200921F4B196B41F002011963B8
:1008B800196B01F00201009100990192196B41F046
:1008C80004011963196B01F0040101910199029265
:1008D800196B41F001011963196B01F001010291D3
:1008E80002990392196B41F008011963196B01F021
:1008F8000801039103990492196B41F010011963DF
:10090800196B01F010010491049905921A6B42F0D9
:1009180080021A631B6B03F080030593059B06B0E6
:10092800704700BF0038024010B588B0002200921E
:100938001C4B196B41F010011963196B01F0100180
:10094800009100990192196B41F001011963196B2B
:1009580001F00101019101990292196B41F008011E
:1009680019631B6B03F008030293029B03AC039209
:100978000492059206920792012304930393214659
:10098800094801F021F9402303932146074801F063
:100998001BF94FF4005303932146054801F014F95D
:1009A80008B010BD003802400010024000000240AC
:1009B800000C024000B583B000210191094B1A6B6D
:1009C80042F400121A631B6B03F400130193019B9A
:1009D8000A460F2000F0CCFE0F2000F0D9FE03B02D
:1009E8005DF804FB003802402DE9F0418046002400
:1009F80029E0174F01221146384601F0DBF9154E60
:100A080001224021304601F0D5F9134D01224FF45F
:100A18000051284601F0CEF9782000F041FE00226E
:100A28000121384601F0C6F900224021304601F084
:100A3800C1F900224FF40051284601F0BBF9782093
:100A480000F02EFE01344445D3DBBDE8F08100BF41
:100A58000010024000000240000C024000B583B0C4
:100A680013464FF0FF3200920246084801F090FE0C
:100A780040B9064802F0DCF90428FAD1002003B096
:100A88005DF804FB4FF0FF30F9E700BFFC7101206F
:100A98002DE9F047ADF5007D0446012269460020A6
:100AA800FFF7DCFF002842D180469DF8FE31552B28
:100AB80040D19DF8FF31AA2B3FD19DF80030EB2B98
:100AC80031D0E92B31D00DF5E370FFF798FB0746DD
:100AD800B0B301226946FFF7C1FFA0BB0DF10B00BF
:100AE800FFF788FBB0F5007F30D10DF10E00FFF75E
:100AF80081FB05469DF810A009A8FFF780FB064674
:100B08000BA8FFF77CFB27609DF80D302375266145
:100B1800EB19636006FB0A33A360E06040460DF5FD
:100B2800007DBDE8F0870027D8E70027D6E74FF01B
:100B3800FF38F3E76FF00108F0E76FF00108EDE721
:100B48006FF00208EAE76FF00308E7E76FF00408C0
:100B5800E4E770B5ADF5007D14468B004668C1F337
:100B6800D610C3F30805012269463044FFF776FF23
:100B780058B9064668462844FFF741FB20F0704004
:100B8800206030460DF5007D70BD4FF0FF36F8E768
:100B980010B582B00446836A01338362027D9342B2
:100BA80005D2002084F82E02A08502B010BD01AA4B
:100BB800C169FFF7CEFF38B9019B064A934206D8B0
:100BC800E3610023A362ECE74FF0FF30EDE76FF03D
:100BD8000100EAE7F7FFFF0F2DE9F04FADF5057DBE
:100BE80007468A46914601930026AAF10202334B32
:100BF8009A425FD84FF0000836E001362034B4F549
:100C0800007F2FDA04AB1D191B5D002B48D0E52BA4
:100C1800F4D0EB7A0F2BF1D013F0080FEED113F0CC
:100C2800100FEBD12846FFF708FB0028E6D04E4509
:100C3800E3D14FF40C720021019E304603F06FF8A7
:100C480034460FCF0FC497E8030084E80300284612
:100C5800FFF7E6FAB061F06105F11C00FFF7CFFA83
:100C680030621FE008F101083B7D43450CD951462D
:100C78003846FFF7CFFA012204A94044FFF7EEFEF9
:100C8800834650B90446BAE703AA51463846FFF7E7
:100C980060FF60B9DDF80CA0A7E74FF0FF3B01E06B
:100CA8006FF0010B58460DF5057DBDE8F08F6FF02C
:100CB800020BF7E76FF0030BF4E700BFF5FFFF0F38
:100CC8002DE9F047ADF5047D06460C469146D0F86F
:100CD8000C8002AB364A92E8030083E80300002246
:100CE80002E002A883540132072A49DCA35C002BE6
:100CF80046D0A3F16100C0B21928F2D8203BDBB27C
:100D0800EFE72034B4F5007F1FDA04AB1D191B5D33
:100D1800002B3CD0E52BF4D0EA7A0F2AF1D012F060
:100D2800100FEED02E2BECD008220DEB0201284636
:100D380002F0E5FF82460028E3D12846FFF770FA63
:100D480001282BD9C9F8000023E00137337DBB42C5
:100D58000ED941463046FFF75DFA012204A938440E
:100D6800FFF77CFE04460028CCD04FF0FF3A10E095
:100D780001AA41463046FFF7ECFE90B9DDF8048041
:100D8800A8F102020B4B9A420ED80027DEE76FF05B
:100D9800010A50460DF5047DBDE8F0876FF0020AA0
:100DA800F7E76FF0030AF4E76FF0040AF1E700BF12
:100DB800B4400008F5FFFF0F2DE9F04104460F4647
:100DC800164698460023C8F800302DE0E169204611
:100DD800FFF720FAA36A012204F12E011844FFF755
:100DE8003DFE002845D1012384F82E320023A38537
:100DF80023E00CF1280C04EB0C012A460631384696
:100E080002F0BAFF2F44761B636A2B446362A38DFA
:100E180013FA85F3A385D8F800302B44C8F80030BE
:100E2800A38DB3F5007F16D236B3626A236A9A425D
:100E38001DD294F82E32002BC8D0B4F82CC0CCF5B3
:100E48000073256A626AAD1A9E4200D83346AB42E7
:100E5800CFD81D46CDE72046FFF79AFE0028E3D0FD
:100E6800626A236A9A42DFD26FF0010005E000202F
:100E780003E04FF0FF3000E00020BDE8F08130B51E
:100E880093B005460C4603E04FF0FF3214E0E41A35
:100E98008CB10023019301AB2246402C28BF40228D
:100EA80002A92846FFF788FF02460028ECD1019BDB
:100EB800002BECD100E00022104613B030BD00003A
:100EC800F0B591B005460E4600230C930CAB0C22EE
:100ED8000DA9FFF771FF002840F08A800C9B0C2BAE
:100EE80040F0898004224A490DA802F008FF002832
:100EF80040F08480042247490FA802F000FF002830
:100F08007FD1002333607360B360F36024E0274629
:100F1800282C28BF28270CAB3A4602A92846FFF7F9
:100F28004BFF002847D10C9BBB4247D1282C39D80E
:100F380002A8FFF75FF904460DF10A00FFF75AF916
:100F4800308003A8FFF75BF970600DF11600FFF71A
:100F580051F93081012C34D10CAB0822694628465E
:100F6800FFF72AFF00283BD10C9B082B3DD101A895
:100F7800FFF745F9044604222749684602F0BFFEF8
:100F88000028C4D004222549684602F0B8FE03466A
:100F9800D0B121462846FFF772FF0028DCD06FF059
:100FA80006031FE0E11B2846FFF769FF0028BFD0B2
:100FB8006FF0040316E06FF0030313E06FF0030310
:100FC80010E06FF005030DE0F4603289102A1BD1A0
:100FD8003288013A92B2012A04D96FF0080301E07D
:100FE8006FF00203184611B0F0BD6FF00203F9E785
:100FF8004FF0FF33F6E74FF0FF33F3E76FF00103ED
:10100800F0E76FF00103EDE76FF00703EAE700BFD1
:10101800C0400008C8400008D0400008D840000878
:101028002DE9F043ADF5197D04460E4692A8FFF769
:101038002FFD002879D10023919391AA214692A8E7
:10104800FFF73EFE002873D105AB0022919992A8C4
:10105800FFF7C2FD00286ED101A905A8FFF730FFF0
:10106800074600286AD100241DE0920027E04FEAD5
:101078009308002511E0344B33F92500023333F986
:101088002530184400EBD07004F101094010FFF737
:10109800FBF826F8140001354C46454503D241F2C9
:1010A80087339C42E7D941F287339C422BD8C4F559
:1010B8009C520832BDF80430022BD6D05200B2F54B
:1010C800805F01D94FF480526B46002100911E4980
:1010D80005A8FFF771FEB0B9009BA3B1BDF80420C5
:1010E800022AC4D04FEA530800234345DBD241F219
:1010F80087329442D7D8144A32F9132026F814209C
:1011080001330134F1E706F50053C3F8104754B131
:10111800012306F5005686F8143793B138460DF5C5
:10112800197DBDE8F0830023F3E74FF0FF37F5E7BB
:101138006FF00107F2E76FF00207EFE76FF00307C0
:10114800ECE76FF00407E9E7FC61012008B572B627
:101158004FF40051034800F033FE502000F0A0FA8D
:10116800F6E700BF000C024008B50C480C4B0360C2
:10117800002343608360C36003614361022383618A
:1011880001F0DAFD30B94FF40061044801F0F0FDD8
:1011980010B908BDFFF7DAFFFFF7D8FFFC7101208F
:1011A800002C014008B50B480B4B03604FF400734B
:1011B800436000238360C36003614AF6444242618E
:1011C8008361C361036200F005FE00B908BDFFF743
:1011D800BDFF00BFE07201200038004010B598B094
:1011E8000CAC30220021204602F099FD0023079321
:1011F800089309930A930B93039304930593069317
:101208000193254A116C41F080511164126C02F06F
:1012180080520192019A0293204A116841F4804158
:101228001160126802F480420292029A02220C9221
:1012380001210F91102110911292139308231493F6
:10124800A8231593169207231793204602F04CF90A
:10125800E0B90F23079302230893002309934FF45F
:10126800A0530A934FF480530B93052107A802F06B
:101278008BFB68B901230393C023049302230593CE
:1012880003A802F031FC28B918B010BDFFF75EFFC3
:10129800FFF75CFFFFF75AFF00380240007000407C
:1012A80030B583B000F0D0F9FFF73EFB0320FFF71D
:1012B8009BFBFFF793FF0520FFF796FBFFF7F0FA7C
:1012C800FFF778FBFFF750FFFFF76CFF0220FFF7EF
:1012D8008BFB374C4CF278320021204602F01FFD80
:1012E80021463448FFF79CFE08B1FFF72FFF32492B
:1012F8003248FFF795FE08B1FFF728FF304931481B
:10130800FFF78EFE08B1FFF721FF2F492F48FFF79F
:1013180087FE08B1FFF71AFF2D492E48FFF780FE18
:1013280008B1FFF713FF2C4B41F616421A60012251
:101338002A4B1A6000232A490B602A490B60402176
:10134800294800F037FD294B93E8030002AB03E975
:101358000300274C4FF480512046FFF771F94FF4F2
:1013680080522146234800F003FE08B9012513E006
:10137800FFF7ECFE0121204800F022FD1D4800F097
:101388002EFF0328F6D04FF480522146194800F06A
:10139800EFFD08B985F0010502AB03EB850353F8AF
:1013A800084C4FF480512046FFF74AF9E6E700BFA2
:1013B800845E0020E04000089C850020E44000088E
:1013C800B4AC0020E8400008CCD30020EC40000872
:1013D800E4FA0020F040000834000020000000205B
:1013E8003C0000203800002000000240AC4000080B
:1013F800FC410120E072012000100240FEE7FEE7F8
:10140800FEE7FEE7FEE770477047704708B500F053
:1014180035F908BD08B5024800F0E8FA08BD00BF74
:10142800807201207047000082B0002100910B4BB0
:101438005A6C42F480425A645A6C02F48042009218
:10144800009A01911A6C42F080521A641B6C03F0E6
:1014580080530193019B02B0704700BF00380240DF
:1014680030B58DB000230793089309930A930B9323
:10147800039304930593069302682B4B9A4201D079
:101488000DB030BD044601230393C0230493022307
:10149800059303A802F028FB00283ED100250195FA
:1014A800224B1A6C42F480421A641A6C02F480428D
:1014B8000192019A02951A6B42F002021A631B6BA1
:1014C80003F002030293029B4FF430430793022375
:1014D800089309950A9305230B9307A9144800F06C
:1014E80073FB1448144B0360456040238360C56058
:1014F8004FF4806303614FF4006343614FF400537A
:101508008361C5614FF400330362456200F0D4F98A
:1015180030B9084BA3639C63B2E7FFF717FEBDE73A
:10152800FFF714FEF5E700BF00380040003802401E
:101538000004024080720120706002402DE9F041F1
:1015480088B00023039304930593069307930268D6
:10155800224B9A4202D008B0BDE8F08100220092E6
:1015680003F58633596C41F400615964596C01F4F0
:101578000061009100990192196B41F0040119630F
:10158800196B01F004010191019902921A6B42F062
:1015980008021A631B6B03F008030293029B4FF4C3
:1015A800F85303934FF00208CDF8108001270597F0
:1015B800032606960C2507950DEB050421460848D9
:1015C80000F002FB04230393CDF8108005970696DC
:1015D80007952146034800F0F7FABCE7002C0140C4
:1015E80000080240000C0240034AD2F8883043F455
:1015F8007003C2F88830704700ED00E010B504466B
:101608000E4B1A784FF47A73B3FBF2F30C4A106856
:10161800B0FBF3F000F0C0F868B90F2C01D9012035
:101628000AE0002221464FF0FF3000F0A1F8054BF8
:101638001C60002000E0012010BD00BF0800002051
:10164800040000200C00002008B50B4B1A6842F477
:1016580000721A601A6842F480621A601A6842F4CA
:1016680080721A60032000F071F80F20FFF7C6FFA0
:10167800FFF7DAFE002008BD003C0240034A11686B
:10168800034B1B780B441360704700BF287301207D
:1016980008000020014B1868704700BF287301201C
:1016A80038B50446FFF7F6FF0546B4F1FF3F02D010
:1016B800044B1B781C44FFF7EDFF401BA042FAD3F4
:1016C80038BD00BF08000020002807DB00F01F021B
:1016D800400901239340024A42F82030704700BF76
:1016E80000E100E0002808DB0901C9B200F1604010
:1016F80000F5614080F80013704700F00F00090101
:10170800C9B2014B1954704714ED00E000B500F060
:101718000700C0F1070CBCF1040F28BF4FF0040C00
:10172800031D062B0FD9C31E4FF0FF3E0EFA0CF017
:1017380021EA000199400EFA03FE22EA0E0241EA6C
:1017480002005DF804FB0023EEE70000074AD368B7
:1017580023F4E0631B041B0C000200F4E060034365
:1017680043F0BF6343F40033D360704700ED00E0FB
:1017780010B50446054BD868C0F30220FFF7C6FF32
:1017880001462046FFF7AEFF10BD00BF00ED00E0A8
:1017980008B5FFF799FF08BD0138B0F1807F0BD27B
:1017A8004FF0E0235861054AF02182F82310002009
:1017B800986107221A6170470120704700ED00E028
:1017C80030B405682C6824F480242C6004686360B5
:1017D8008368402B05D0036899600368DA6030BCE1
:1017E800704703689A600368D960F8E710B4036823
:1017F800D9B210390A4AA2FB01421209094CA25C6B
:10180800C2655F2907D96FF3090304338365806DC7
:101818005DF8044B70476FF309038365F7E700BF72
:10182800ABAAAAAA04410008836A826992B9012B6B
:101838000AD0022B02D00BB100207047C36A13F004
:10184800807F28D100207047C36AB3F1C07F24D0BD
:1018580000207047B2F5005F09D0022B25D9032B71
:1018680025D1C36A13F0807F23D100207047032B52
:1018780003D8DFE803F01404140A00207047C36A91
:1018880013F0807F0DD100207047C36AB3F1C07F89
:1018980009D00020704701207047012070470120BF
:1018A80070470120704701207047012070470020D1
:1018B800704701207047000070B50446FFF7EAFE44
:1018C800002C5BD00546022384F83530002384F8C9
:1018D80034302268136823F00103136023681A6800
:1018E80012F0010F0AD0FFF7D5FE431B052BF5D9DF
:1018F80020236365032084F8350070BD1A682049E9
:1019080011406268A0680243E0680243206902430C
:1019180060690243A0690243E0690243206A024306
:101928000A43616A04291ED01A602668756925F081
:101938000705636A1D43042B07D1A36A1D43E36AA5
:101948001BB12046FFF770FF90B975612046FFF77D
:101958004DFFE26D3F2393408360002060650123C3
:1019680084F83530C9E7E16A206B01430A43DBE7B5
:1019780040236365012084F83500BEE70120BCE7F9
:101988003F8010F038B50446856D90F83400012882
:101998002AD0012084F8340094F83500012804D0B6
:1019A800002384F83430022038BD022084F8350042
:1019B800002060652046FFF703FFE26D3F23934058
:1019C800AB602268136843F016031360236C23B1DD
:1019D8002268136843F0080313602268136843F011
:1019E800010313600020DFE70220DDE7F0B583B0D4
:1019F800044600230193724B1D68724BA3FB053507
:101A0800AD0A876D3E68C26D08239340334210D0FB
:101A180003681A6812F0040F0BD01A6822F0040247
:101A28001A60C26D08239340BB60436D43F0010305
:101A38004365E26D01239340334209D0226852691D
:101A480012F0800F04D0BB60636D43F0020363653E
:101A5800E26D04239340334209D02268126812F0E1
:101A6800020F04D0BB60636D43F004036365E26D4D
:101A780010239340334224D02268126812F0080FD2
:101A88001FD0BB6023681A6812F4802F0DD01B6822
:101A980013F4002F04D1236C9BB12046984710E023
:101AA800A36C73B1204698470BE01A6812F4807F44
:101AB80003D11A6822F008021A60236C0BB1204681
:101AC8009847E26D20239340334254D0226812682D
:101AD80012F0100F4FD0BB6094F83530052B0ED0A4
:101AE80023681A6812F4802F33D01B6813F4002F70
:101AF8002AD1636C002B3ED0204698473BE02268F1
:101B0800136823F0160313602268536923F08003D7
:101B18005361236CA3B12268136823F00803136090
:101B2800E26D3F239340BB60012384F835300023E6
:101B380084F83430236D002B3FD0204698473CE092
:101B4800A36C002BE7D1EBE7E36BA3B120469847E2
:101B580011E01A6812F4807F09D11A6822F0100285
:101B68001A60012384F83530002384F83430E36B9D
:101B78000BB120469847636DFBB1636D13F0010FFD
:101B880017D0052384F835302268136823F0010341
:101B98001360019B01330193AB4204D823681B688F
:101BA80013F0010FF5D1012384F83530002384F8B0
:101BB8003430E36C0BB12046984703B0F0BD00BF4A
:101BC80004000020B5814E1B00230F2B00F2E98092
:101BD80070B582B065E085684FEA430E032404FAC5
:101BE8000EF425EA0405CC6804FA0EF42C4384604C
:101BF800446824EA02044A68C2F300129A40224365
:101C080042605CE0DC08083450F8242003F0070543
:101C1800AD004FF00F0E0EFA05FE22EA0E0E0A690D
:101C2800AA4042EA0E0240F824205CE0072200E0C5
:101C3800002202FA0EF22A4302345A4D45F82420B3
:101C4800594A94686FEA0C0224EA0C054E6816F4A7
:101C5800801F01D04CEA0405534CA560E46802EAF1
:101C680004054E6816F4001F01D04CEA04054E4CDA
:101C7800E560646802EA04054E6816F4003F01D086
:101C88004CEA0405484C6560246822404D6815F408
:101C9800803F01D04CEA0402434C226001330F2BF1
:101CA8007DD801229A400C6804EA020C32EA040446
:101CB800F4D14C6804F00304013C012C8BD94A6828
:101CC80002F00302032A09D0C4685D000322AA4077
:101CD80024EA02048A68AA402243C2604A6802F0E1
:101CE8000302022A8ED004684FEA430E032202FA46
:101CF8000EF224EA02044A6802F0030202FA0EF223
:101D0800224302604A6812F4403FC7D00022019281
:101D1800264A546C44F480445464526C02F4804261
:101D28000192019A9C08A51C1E4A52F8255003F0FE
:101D3800030E4FEA8E0E0F2202FA0EF225EA020572
:101D48001B4A90423FF474AF02F5806290421AD069
:101D580002F58062904218D002F58062904216D057
:101D680002F58062904214D002F58062904212D04F
:101D780002F58062904210D002F5806290423FF4F2
:101D880055AF082255E7012253E7022251E7032203
:101D98004FE704224DE705224BE7062249E702B048
:101DA80070BD704700380140003C014000380240D7
:101DB800000002400AB181617047090481617047DF
:101DC800436901EA030221EA030141EA0241816110
:101DD80070470000002800F0BE8038B5044690F82F
:101DE8004130002B51D0022284F841202168CB6970
:101DF80023F47B6323F00F03CB6123681A626369C2
:101E0800934269D0E368002B46D11025A368202BA4
:101E180000D86D00012001F011FF2369B3F5007FA0
:101E28003CD0B0FBF5F000EB800043006269B3FBE7
:101E3800F2F30533494AA2FB0323C3F3C002C2EB02
:101E4800D3035B0811029A1EFD2A3FD822690A4370
:101E580021681A430A622168CB6923F47B6323F063
:101E68000F036268A0680243E0680243A069024366
:101E7800134343F40063CB61236A012B2ED0002067
:101E88006064012384F8413038BD80F84030344B19
:101E98004363FFF7E5FAA6E72025B7E7E36853B100
:101EA800AD00B0FBF5F000EB800043006269B3FBC6
:101EB800F2F30533BEE7ED00B0FBF5F000EB800070
:101EC80043006269B3FBF2F30533B3E7636C43F095
:101ED800100363640120D7E70021B7E7214B636350
:101EE8002268214B9A421FD04FF04022D36923F435
:101EF8007B6323F00F03D36122681B4B9A4215D0F2
:101F08004FF04022022313622268174B9A420FD0E7
:101F18004FF04025EB699BB26268B2F5007F09D0AB
:101F2800BAB94FF4807007E0104ADFE70F4AE9E7D3
:101F38000E4DEFE74FF48070B4F808C0A189228BEA
:101F480040EA0C0001430A43134343F40063EB6186
:101F580095E70020F0E70120704700BFCDCCCCCC3E
:101F6800F320000831230008003800400034004006
:101F7800002958D038B50446002A56D094F8413084
:101F8800DDB2012B53D194F84030012B51D00123FD
:101F980084F84030032384F841300023636461628D
:101FA8002368DB6903F00703032B04D0052B02D059
:101FB8002285628503E0520092B222856285A36B76
:101FC8001D4A1A64A36B1D4ADA63A36B1C4ADA64C0
:101FD8002268238D9BB20C32616AA06BFFF7D2FC9A
:101FE800A8B9002384F8403023685A6812F0020F19
:101FF80003D15A6842F002025A602368DA6912F47F
:10200800806F13D1DA6942F48062DA610EE0636CA2
:1020180043F008036364012384F84130002384F803
:102028004030284602E001207047012038BD0220D8
:10203800FCE70220FAE700BF4F20000893200008C1
:10204800BF210008704708B5806BFFF7FBFF08BD8C
:10205800704708B5426A03681288DA60436A023337
:102068004362438D9BB2013B9BB24385438D9BB238
:1020780003B108BD0268536823F0A003536001232D
:1020880080F84130FFF7E4FFF3E708B50346806BBB
:10209800DB694BB90268536823F0020353600023DD
:1020A8004385012380F84130FFF7D2FF08BD704710
:1020B80008B50368DA68C36A1A80C36A0233C36260
:1020C800438E9BB2013B9BB24386438E9BB203B1C6
:1020D80008BD0268536823F060035360012380F849
:1020E8004130FFF7E4FFF3E7704710B584B00446CA
:1020F80003689A68039290F84120042A05D094F85E
:102108004130032B2CD004B010BD039A12F0010FFC
:1021180003D05B6813F0400F1FD1039B13F0400FEF
:10212800EDD023685A6812F0200FE8D05A6822F0E0
:1021380060025A60002301932368DA6801929B6861
:102148000193019B012384F84130636C43F002033F
:1021580063642046FFF7C8FFD1E7FFF7A9FFDCE774
:10216800039B13F0020F04D023685B6813F0800F01
:102178001DD1039B13F0080FC5D023685A6812F0CD
:10218800200FC0D05A6822F0A0025A6000230293A0
:1021980023689B680293029B012384F84130636C97
:1021A80043F0040363642046FFF79EFFABE7204635
:1021B800FFF74FFFDDE708B5806B0268536823F02F
:1021C80003035360002343854386012380F841308D
:1021D800436C43F008034364FFF786FF08BD90F89B
:1021E80041007047704708B5436A9A1C426202680A
:1021F8001B88D360438D9BB2013B9BB24385438DC3
:102208009BB23BB90268536823F0A0035360438E26
:102218009BB203B108BD012380F84130FFF7E2FF0C
:10222800F8E7000008B50268154B9A421CD04FF039
:102238004023DA68C36A991CC1621A80438E9BB234
:10224800013B9BB24386438E9BB263B902680C4B39
:102258009A420CD04FF04022536823F06003536039
:10226800438D9BB22BB108BDA3F58063E1E7054A16
:10227800F2E7012380F84130FFF7B4FFF3E700BF2E
:10228800003800400034004008B5436A9A1C426296
:102298001A880168134B994218D04FF04023DA602E
:1022A800438D9BB2013B9BB24385438D9BB263B97F
:1022B80002680C4B9A420CD04FF04022536823F02E
:1022C800A0035360438E9BB22BB108BDA3F5806376
:1022D800E5E7054AF2E7012380F84130FFF782FF7E
:1022E800F3E700BF003800400034004008B5036839
:1022F800DA68C36A991CC1621A80438E9BB2013B9B
:102308009BB24386438E9BB23BB90268536823F065
:1023180060035360438D9BB203B108BD012380F86D
:102328004130FFF75FFFF8E710B586B00446036851
:102338009A680592704A93426FD04FF04022916894
:1023480004915B680393536802936368B3F5007F55
:1023580001D0002B70D1059B13F0020F03D0039B13
:1023680013F0800F5CD1049B13F0010F03D0029B84
:1023780013F0400F58D1049B13F0400F24D0029B58
:1023880013F0200F20D022685B4B9A4250D04FF0B8
:102398004022536823F0600353602268536823F097
:1023A800A0035360002300932368DA6800929B68B7
:1023B8000093009B012384F84130636C43F00203CF
:1023C80063642046FFF790FE059B13F0080F22D0A8
:1023D800039B13F0200F1ED02268536823F0A0033C
:1023E80053602268444B9A4224D04FF040225368ED
:1023F80023F0600353600023019323689B680193D3
:10240800019B012384F84130636C43F00403636447
:102418002046FFF769FE06B010BDA2F580628EE780
:102428002046FFF7E0FE9EE72046FFF7FBFEA2E707
:10243800324AAEE7314ADAE7049B13F0020F03D0C1
:10244800029B13F0800F4AD1059B13F0010F03D0B4
:10245800039B13F0400F46D1059B13F0400F1CD08F
:10246800039B13F0200F18D02268536823F06003F1
:1024780053602268204B9A4239D04FF0402253686B
:1024880023F0A0035360012384F84130636C43F0C8
:10249800020363642046FFF727FE049B13F0080F2E
:1024A800B9D0029B13F0200FB5D02268124B9A4284
:1024B8001FD04FF04022536823F0A00353602268D6
:1024C800536823F060035360012384F84130636C40
:1024D80043F0040363642046FFF706FE9BE72046AB
:1024E800FFF7D2FEB0E72046FFF700FFB4E7034A44
:1024F800C5E7024ADFE700BF00380040003400406B
:1025080070B582B0044600230193006800F00AFD0C
:10251800054610B1284602B070BD206800F0CCFF17
:1025280038B90123A364A36C012B0BD02E4628468F
:1025380014E00023A364206800F0F4FC0028F2D023
:102548000546E7E70021206800F024FE0028EDD0CA
:102558004FF08055DEE7019B01330193019A4FF656
:10256800FE739A4213D896B90021206800F012FE33
:10257800E0B91249206800F0EBFE0646C0B9002118
:10258800206800F0BAFCC30FE5D01E46E3E7019AC5
:102598004FF6FE739A420ED810F0804302D0012302
:1025A8006364B7E7002262641D46B3E70546B1E7F6
:1025B8004FF08055AEE74FF08075ABE7000010C1D3
:1025C800F0B589B004460F46FFF764F806460023C5
:1025D800009301930821206800F062FD054610B1C0
:1025E800284609B0F0BD216D0904206800F0D2FD2D
:1025F80005460028F4D14FF0FF33029308230393D4
:1026080030230493022305930023069301230793A1
:1026180002A9206800F074FC206800F0EBFD054674
:1026280058B1DDE700F04BFC4DF825000135FFF708
:1026380031F8831BB3F1FF3F43D02068436B13F09D
:102648002A0F07D1436B13F4001FEBD1436B13F42C
:10265800005FECD1436B13F0080F29D1436B13F4DF
:10266800007F25D1436B13F0020F24D1456B15F081
:10267800200523D140F23A538363019A130203F4ED
:102688007F0343EA0263110A01F47F410B4343EAE3
:1026980012633B60009A130203F47F0343EA026368
:1026A800110A01F47F410B4343EA12637B6097E709
:1026B8000825856394E70225856391E720258563CE
:1026C8008EE74FF000458BE710B582B00446002135
:1026D80000910191006800F010FC10F0007F13D108
:1026E80069462046FFF76CFF80B9019B13F4802FE1
:1026F8000ED0216D0904206800F04CFD30B902218C
:10270800206800F05FFD01E04FF4006002B010BDEA
:102718004FF08060FAE710B582B0044600210091BE
:102728000191006800F0E9FB10F0007F13D16946C1
:102738002046FFF745FF80B9019B13F4803F0ED078
:10274800216D0904206800F025FD30B900212068BA
:1027580000F038FD01E04FF4006002B010BD4FF00A
:102768008060FAE770B581B104460E46016D090430
:10277800006800F057FD054608B1284670BD0021E5
:10278800206800F0BAFB3060F7E74FF00065F4E727
:102798002DE9F04F87B005460C4616469A46DDF8F7
:1027A8004090FEF777FF002C36D0804695F83430FD
:1027B8005FFA83FB012B40F007810023AB6306EB34
:1027C8000A03EA6D93422ED8032385F834302B6828
:1027D8000022DA626B6C012B00D076024FF0FF33D7
:1027E80000934FEA4A230193902302930223039311
:1027F80000230493012305936946286800F080FBB1
:10280800BAF1010F14D902232B633146286800F06E
:1028180077FCA0B9019F27E0AB6B43F00063AB6383
:102828004FF0010BD6E0AB6B43F00073AB63D1E024
:1028380001232B633146286800F04AFCE9E72B683E
:10284800664A9A63AB6B0343AB63012385F8343064
:1028580000232B63BEE0FEF71DFFA0EB08004845F0
:1028680020D2B9F1000F1DD02868466B40F22A33F8
:102878001E4026D1436B13F4004FECD0002FEAD052
:10288800072EE8D8286800F01AFB2070C0F3072349
:102898006370C0F30743A370000EE0700434043F74
:1028A8000136EDE72B684D4A9A63AB6B43F0004362
:1028B800AB63012385F8343000232B634FF0030BFF
:1028C80088E0436B13F4807F05D0BAF1010F02D979
:1028D8006B6C032B3AD12B685A6B12F0080F46D158
:1028E8005A6B12F4007F42D15A6B12F0020F4AD190
:1028F8005A6B12F0200F52D12868436B13F4001F53
:1029080059D0002F57D000F0DAFA2070C0F307230F
:102918006370C0F30743A370000EE0700434043FF3
:10292800FEF7B8FEA0EB0800484502D2B9F1000F47
:10293800E2D12B68294A9A63AB6B43F00043AB633F
:10294800012385F8343000232B6343E000F0F0FBCB
:1029580003460028BFD02A6820499163AA6B134315
:10296800AB63012385F8343000232B6332E01B4A24
:102978009A63AB6B43F00803AB63012385F83430EB
:1029880000232B6326E0154A9A63AB6B43F00203DE
:10299800AB63012385F8343000232B631AE00F4A18
:1029A8009A63AB6B43F02003AB63012385F83430A3
:1029B80000232B630EE040F23A538363012385F82A
:1029C80034304FF0000B05E0AB6B43F00053AB63C2
:1029D8004FF0010B584607B0BDE8F08FFF054000E7
:1029E8000346426E920F0A70426EC2F383624A70C7
:1029F80090F8672002F003028A7090F86620CA7087
:102A080090F865200A7190F864204A71826E120D60
:102A1800CA80B0F86A2002F00F020A72826EC2F30E
:102A2800C0324A72826EC2F380328A72826EC2F3F8
:102A38004032CA72826EC2F300320A7300224A73AD
:102A4800426C002A40F08680806E40F6FC7202EAF2
:102A58008002D86E42EA90720A61DA6EC2F3C262EC
:102A68000A7593F86F2002F007024A75DA6EC2F30E
:102A780042528A75DA6EC2F38242CA75DA6EC2F3BE
:102A8800C2320A760A6901325A65087E00F00700E8
:102A9800023082405A6591F808C00CF00F0C0120F2
:102AA80000FA0CF09865400A00FB02F2DA654FF470
:102AB80000721A66DA6EC2F380324A76DA6EC2F3B0
:102AC800C6128A76DA6E02F07F02CA761A6FD20FC1
:102AD8000A771A6FC2F341724A771A6FC2F3826299
:102AE8008A771A6FC2F38352CA771A6FC2F34052B9
:102AF80081F82020002081F82100B3F8722002F02C
:102B0800010281F822201A6FC2F3C03281F8232013
:102B18001A6FC2F3803281F824201A6FC2F3403250
:102B280081F825201A6FC2F3003281F826201A6F27
:102B3800C2F3812281F827201A6FC2F3012281F89B
:102B480028201B6FC3F3460381F82930012381F83D
:102B58002A307047012A11D1826E120402F47C12C5
:102B6800B0F86E0002430A610A69013292025A659E
:102B7800DA654FF400729A651A669BE702680549A0
:102B88009163826B42F080528263012083F83400A3
:102B9800704700BFFF05400070B590B004460123A0
:102BA800ADF81230006800F091F900286CD0636C21
:102BB800032B45D1636C032B5DD1636C032B1DD0B4
:102BC800BDF8121021650904206800F086FB05464F
:102BD80000285BD10021206800F08FF9606604218D
:102BE800206800F08AF9A0660821206800F085F9BD
:102BF800E0660C21206800F080F920670421206835
:102C080000F07BF9000DE06405A92046FFF7E8FE17
:102C180000283ED1226D12040023206800F0A2FA99
:102C2800054698BB234653F8106B93E807008DE8D8
:102C38000700043494E80E00304600F027F925E038
:102C4800206800F035FB054600BB0021206800F035
:102C580054F960670421206800F04FF9A067082143
:102C6800206800F04AF9E0670C21206800F045F977
:102C7800C4F880009EE70DF11201206800F0D2FB35
:102C88000546002899D001E04FF08065284610B02D
:102C980070BD4FF08055F9E770B58AB0044600253D
:102CA80004950595069507950895762309930AAB2B
:102CB80013E907008DE8070004AB0ECB206800F08D
:102CC800E5F81B4EC6F8A050206800F0FBF8012379
:102CD800C6F8A0300220FEF7E3FC2046FFF710FC00
:102CE80040B10246012084F83400A36B1343A36368
:102CF8000AB070BD2046FFF74FFF024630B10120F1
:102D080084F83400A36B1343A363F1E74FF4007115
:102D1800206800F0C5F908B90020E9E723680549EB
:102D28009963A36B0343A363012084F83400DFE7AE
:102D380000802542FF054000A8B110B5044690F870
:102D4800343063B1032384F834302046FFF7A4FFFE
:102D580058B9A0632063012384F8343010BD037789
:102D6800FEF7ECFBEEE7012070470120F6E70000D4
:102D780030B58BB004460D46032380F83430436CDD
:102D8800032B1CD0B1F5805F08D0B1F5006F0AD0D5
:102D980079B1836B43F00063836314E0836B43F082
:102DA800805383630FE0FFF78FFCA36B0343A36398
:102DB80009E0FFF7B0FCA36B0343A36303E0836B55
:102DC80043F080538363A36BC3B12368174A9A63A4
:102DD800012584F834504FF40071206800F060F940
:102DE80030B1236811499963A36B0343A363012599
:102DF800012384F8343028460BB030BD636804934F
:102E0800A3680593E3680693079563690893A36924
:102E180009930AAB13E907008DE8070004AB0ECB52
:102E2800206800F033F80025D5E700BFFF05400013
:102E380010B582B004460023019301A9FFF792FC64
:102E480010B1A36B0343A3630198C0F3432002B0FE
:102E580010BD00000B4B1B680B4AA2FB03235B0A47
:102E680041F2883202FB03F31A46013B3AB1426B46
:102E780012F0800FF8D0C5238363002070474FF00D
:102E88000040704704000020D34D621084B00DF15B
:102E9800040C8CE80E000B461343039A1343049A60
:102EA8001343059A1343069A1343426822F4FD42DA
:102EB80022F07F0213434360002004B07047D0F82B
:102EC800800070470323036000207047006800F00B
:102ED800030070470B6883604B688A681343CA68AD
:102EE80013430A691343C2686FF30B021343C360A9
:102EF800002070470069C0B27047143040587047CE
:102F08000B6843624B6883628B68CA6813430A691B
:102F180013434A691343C26A22F0F7021343C36298
:102F28000020704710B586B0044600230193029331
:102F3800039304934FF48063059301A9FFF7CAFF35
:102F48002046FFF787FF06B010BD000038B50446DD
:102F58000D46504B1B685049A1FB03135B0A03FB4A
:102F680002F21346013A002B5DD0636B13F0450F54
:102F7800F7D013F4006FF4D1636B13F0040F06D18C
:102F8800636B13F0010F05D00120A0634DE004200E
:102F9800A0634AE0C523A3632046FFF7ABFFA8421E
:102FA80001D0012041E000212046FFF7A6FF03469B
:102FB8003A481840C8B3002B38DB13F0804F38D19B
:102FC80013F0005F37D113F0805F36D113F0006F34
:102FD80036D113F0806F36D113F0807F36D113F4D9
:102FE800000F36D113F4800F36D113F4001F36D1F9
:102FF80013F4801F36D113F4802F36D113F4003F19
:1030080036D113F4803F36D113F4004F36D113F480
:10301800804F36D113F4005F36D113F0080F36D045
:103028004FF4000001E04FF0004038BD4FF0007051
:10303800FBE74020F9E78020F7E74FF48070F4E7DA
:103048004FF40070F1E74FF48060EEE74FF4006052
:10305800EBE74FF48050E8E74FF40050E5E74FF412
:103068008040E2E74FF40040DFE74FF40030DCE750
:103078004FF48020D9E74FF40020D6E74FF48010B2
:10308800D3E74FF40010D0E74FF48000CDE74FF4BA
:103098008030CAE704000020D34D621008E0FFFD2D
:1030A80030B587B00446019110250295402303935B
:1030B800002304934FF48063059301A9FFF70AFFE7
:1030C80041F2883229462046FFF740FF07B030BD5D
:1030D80030B587B00446019111250295402303932A
:1030E800002304934FF48063059301A9FFF7F2FED0
:1030F80041F2883229462046FFF728FF07B030BD45
:1031080030B587B0044601911225029540230393F8
:10311800002304934FF48063059301A9FFF7DAFEB7
:1031280041F2883229462046FFF710FF07B030BD2C
:1031380030B587B00446002301930C250295402240
:10314800039204934FF48063059301A9FFF7C2FE2D
:10315800034A29462046FFF7F9FE07B030BD00BFF5
:1031680000E1F50530B587B00446019207250295C0
:1031780040230393002304934FF48063059301A92C
:10318800FFF7A8FE41F2883229462046FFF7DEFE07
:1031980007B030BD30B587B0044601913725029598
:1031A80040230393002304934FF48063059301A9FC
:1031B800FFF790FE41F2883229462046FFF7C6FE07
:1031C80007B030BD30B587B0044601910625029599
:1031D80040230393002304934FF48063059301A9CC
:1031E800FFF778FE41F2883229462046FFF7AEFE07
:1031F80007B030BD30B587B00446002301933325AE
:1032080002954022039204934FF48063059301A929
:10321800FFF760FE41F2883229462046FFF796FE06
:1032280007B030BD30B587B0044601910D25029531
:1032380040230393002304934FF48063059301A96B
:10324800FFF748FE41F2883229462046FFF77EFE06
:1032580007B030BD0146144B1B68144AA2FB032378
:103268005B0A41F2883202FB03F31A46013BBAB10A
:103278004A6B12F0450FF8D012F4006FF5D14B6B82
:1032880013F0040F06D1486B10F0010005D1C523D7
:103298008B637047042088637047012088637047F8
:1032A8004FF00040704700BF04000020D34D62106B
:1032B80010B586B004460023019302220292C02270
:1032C800039204934FF48063059301A9FFF702FE6C
:1032D8002046FFF7BFFF06B010BD10B586B0044604
:1032E800019109230293C0230393002304934FF40D
:1032F8008063059301A9FFF7EDFD2046FFF7AAFFBC
:1033080006B010BD0146104B1B68104AA2FB0323F0
:103318005B0A41F2883202FB03F31A46013B82B191
:103328004A6B12F0450FF8D012F4006FF5D1486BD4
:1033380010F0040002D1C5238B6370470420886312
:1033480070474FF00040704704000020D34D6210D2
:1033580010B586B0044641F0004141F48011019156
:103368002923029340230393002304934FF480639B
:10337800059301A9FFF7AEFD2046FFF7C3FF06B08E
:1033880010BD0000F8B505460E461746234B1B68CE
:10339800234AA2FB03235B0A41F2883202FB03F3B0
:1033A8001A46013B8AB36C6B14F0450FF8D014F43D
:1033B800006FF5D16B6B13F0040F06D16B6B13F034
:1033C800010F05D00120A86321E00420A8631EE0B6
:1033D8002846FFF78FFDB04201D0012017E0C52332
:1033E800AB6300212846FFF788FD034610F46040D0
:1033F80008D013F4804F0BD113F4004F0BD04FF4C7
:10340800805004E01B0C3B8001E04FF00040F8BD09
:103418004FF40050FBE74FF48030F8E70400002039
:10342800D34D621070B586B004460D460023019353
:10343800032602964022039204934FF48063059377
:1034480001A9FFF747FD2A4631462046FFF79AFFB4
:1034580006B070BD0146164B1B68164AA2FB032333
:103468005B0A41F2883202FB03F31A46013BE2B1E0
:103478004A6B12F0450FF8D012F4006FF5D14B6B80
:1034880013F0040F0BD14B6B13F001030AD1486BF7
:1034980010F040000BD040228A6318467047042081
:1034A800886370470120886370474FF00040704779
:1034B80004000020D34D621010B586B004464FF4C6
:1034C800D5730193082302934023039300230493A5
:1034D8004FF48063059301A9FFF7FCFC2046FFF732
:1034E800B9FF06B010BD0000002800F0E08170B5FB
:1034F80082B00446036813F0010F3BD09F4B9B68D2
:1035080003F00C03042B2CD09C4B9B6803F00C039A
:10351800082B21D06368B3F5803F4FD0B3F5A02FB7
:1035280052D0964B1A6822F480321A601A6822F434
:1035380080221A606368002B50D0FEF7ABF805466E
:103548008E4B1B6813F4003F14D1FEF7A3F8401B01
:103558006428F5D90320B1E1884B5B6813F4800F28
:10356800D8D0864B1B6813F4003F03D06368002B48
:1035780000F09F81236813F0020F54D07F4B9B68A3
:1035880013F00C0F3ED07D4B9B6803F00C03082B07
:1035980033D0E368002B68D0794B01221A60FEF71C
:1035A80079F80546754B1B6813F0020F54D1FEF7E6
:1035B80071F8401B0228F5D903207FE16F4A136890
:1035C80043F480331360B5E76C4B1A6842F48022E9
:1035D8001A601A6842F480321A60ABE7FEF75AF8AC
:1035E8000546664B1B6813F4003FC3D0FEF752F83C
:1035F800401B6428F5D9032060E1604B5B6813F435
:10360800800FC6D15D4B1B6813F0020F03D0E3682F
:10361800012B40F05081594A136823F0F8032169BF
:1036280043EAC1031360236813F0080F42D06369AB
:103638006BB3534B0122C3F8802EFEF72BF80546D7
:103648004E4B5B6F13F0020F34D1FEF723F8401B8B
:103658000228F5D9032031E1484A136823F0F8031A
:10366800216943EAC1031360DDE7454B00221A6074
:10367800FEF710F80546414B1B6813F0020FD2D035
:10368800FEF708F8401B0228F5D9032016E13C4B49
:103698000022C3F8802EFDF7FDFF0546374B5B6F10
:1036A80013F0020F06D0FDF7F5FF401B0228F5D9ED
:1036B800032003E1236813F0040F77D02F4B1B6C12
:1036C80013F0805F33D1002301932C4B1A6C42F026
:1036D80080521A641B6C03F080530193019B0125EF
:1036E800284B1B6813F4807F23D0A368012B34D0A8
:1036F800052B38D0214B1A6F22F001021A671A6F76
:1037080022F004021A67A368002B3DD0FDF7C2FF20
:1037180006461A4B1B6F13F0020F46D1FDF7BAFF8E
:10372800801B41F288339842F3D90320C6E0002574
:10373800D6E7144A136843F480731360FDF7AAFFB1
:103748000646104B1B6813F4807FCED1FDF7A2FF0D
:10375800801B0228F5D90320B0E0084A136F43F014
:1037680001031367CFE7054B1A6F42F004021A678B
:103778001A6F42F001021A67C5E700BF003802401D
:103788000000474200700040FDF784FF0646524B98
:103798001B6F13F0020F08D0FDF77CFF801B41F26E
:1037A80088339842F3D9032088E0EDB9A369002B48
:1037B80000F08380484A926802F00C02082A51D02F
:1037C800022B17D0454B00221A66FDF763FF04460B
:1037D800414B1B6813F0007F42D0FDF75BFF001BD5
:1037E8000228F5D9032069E03B4A136C23F0805383
:1037F8001364DBE7394B00221A66FDF74BFF0546D9
:10380800354B1B6813F0007F06D0FDF743FF401BC4
:103818000228F5D9032051E0E369226A1343626A5A
:1038280043EA8213A26A5208013A43EA0243E26A6F
:1038380043EA0263284A5360284B01221A66FDF7BF
:1038480029FF0446244B1B6813F0007F06D1FDF7BF
:1038580021FF001B0228F5D903202FE000202DE0CE
:1038680000202BE0012B2BD01B4B5B6803F480015D
:10387800E269914226D103F03F02216A8A4223D1AC
:10388800616A47F6C0721A40B2EB811F1ED103F479
:103898004031A26A5208013AB1EB024F18D103F045
:1038A8007063E26AB3EB026F14D1002006E00120D6
:1038B8007047012002E0012000E0002002B070BD46
:1038C8000120FBE70120F9E70120F7E70120F5E7F0
:1038D8000120F3E70120F1E70038024000004742E9
:1038E80008B5264B9B6803F00C03042B41D0082B2A
:1038F80041D1224B5A6802F03F025B6813F4800FF3
:1039080012D01E4B5968C1F388111D480023A1FB32
:103918000001FCF735FC194B5B68C3F30143013325
:103928005B00B0FBF3F008BD144B5868C0F3881077
:103938004FEA401CBCEB000C6EEB0E0E4FEA8E13E8
:1039480043EA9C634FEA8C11B1EB0C0163EB0E0365
:10395800DB0043EA5173C90011EB000C43F100038B
:10396800990200234FEA8C2041EA9C51FCF708FC9D
:10397800D1E70348D7E70348D5E700BF003802403E
:1039880040787D010024F400002800F09B8070B589
:103998000D4604464F4B1B6803F007038B4208D2C1
:1039A800CBB24C4A1370136803F007038B4240F004
:1039B8008B80236813F0020F17D013F0040F04D084
:1039C800454A936843F4E0539360236813F0080F63
:1039D80004D0414A936843F4604393603E4A936835
:1039E80023F0F003A1680B439360236813F0010FE1
:1039F80032D06368012B21D09A1E012A25D9364A74
:103A0800126812F0020F61D033498A6822F003026B
:103A180013438B60FDF73EFE06462F4B9B6803F071
:103A28000C036268B3EB820F16D0FDF733FE801BE0
:103A380041F288339842F0D9032042E0264A1268BE
:103A480012F4003FE0D101203BE0234A126812F053
:103A5800007FD9D1012034E01E4B1B6803F0070317
:103A6800AB4207D9EAB21B4B1A701B6803F0070375
:103A7800AB422DD1236813F0040F06D0164A936881
:103A880023F4E053E1680B439360236813F0080FB5
:103A980007D0114A936823F46043216943EAC103BC
:103AA8009360FFF71DFF0C4B9B68C3F303130B4A8E
:103AB800D35CD8400A4B18600A4B1868FDF79EFD86
:103AC800002070BD012070470120FAE70120F8E7C7
:103AD8000120F6E7003C024000380240F4400008AC
:103AE800040000200C00002030B583B004460368B1
:103AF80013F0050F06D1236813F0020F2ED1002012
:103B080003B030BD4A4B00229A66FDF7C3FD054657
:103B1800484B1B6813F0006F06D0FDF7BBFD431B35
:103B2800022BF5D90320EBE76268A3681B0743EA79
:103B38008213404AC2F884303D4B01229A66FDF751
:103B4800A9FD05463B4B1B6813F0006FD3D1FDF769
:103B5800A1FD431B022BF5D90320D1E700230193D4
:103B6800344B1A6C42F080521A641B6C03F0805379
:103B78000193019B304A136843F480731360FDF787
:103B880089FD05462C4B1B6813F4807F06D1FDF791
:103B980081FD431B022BF5D90320B1E7254B1B6F91
:103BA80013F4407314D0E26802F440729A420FD0C2
:103BB800204B1A6F22F440721D490120C1F8400EB3
:103BC8000020C1F8400E1A671B6F13F0010F13D1C4
:103BD800E36803F44072B2F5407F1ED0154A93683B
:103BE80023F4F813936013490B6FE268C2F30B02D6
:103BF80013430B67002083E7FDF74CFD05460D4B8B
:103C08001B6F13F0020FE3D1FDF744FD401B41F297
:103C180088339842F3D9032072E706498A6822F468
:103C2800F81223F0704323F4407313438B60DAE7F0
:103C3800000047420038024000700040012801D0CF
:103C480000207047154B9B6813F4000302D01BB388
:103C580013487047114B5B6813F4800F14D00F4B57
:103C68005A6802F03F020F4BB3FBF2F30B4AD2F84B
:103C78008400C0F3881003FB00F0D2F88430C3F34B
:103C88000273B0FBF3F07047044B5A6802F03F022E
:103C9800054BB3FBF2F3E9E7002070470038024018
:103CA8000080BB0040787D010024F400DFF834D0A8
:103CB800FDF79AFC0C480D490D4A002302E0D45840
:103CC800C4500433C4188C42F9D30A4A0A4C00235E
:103CD80001E013600432A242FBD300F029F8FDF79B
:103CE800DFFA7047000002200000002010000020CA
:103CF8001C410008100000202C730120FEE710B5BD
:103D080001390244904201D1002005E0037811F8FE
:103D1800014FA34201D0181B10BD0130F2E7024445
:103D28000346934200D1704703F8011BF9E70000EE
:103D380070B50D4B0D4D5B1B9C100026A64209D19A
:103D480000F0A4F90A4D0B4B5B1B9C100026A64201
:103D580005D170BD55F8043B98470136EEE755F894
:103D6800043B98470136F2E7144100081441000863
:103D780014410008184100080A44914200F1FF3339
:103D880000D1704710B511F8014B03F8014F91426B
:103D9800F9D110BD2DE9F047089D0F4604468C4621
:103DA800002B48D18A42164661D9B2FA82F34BB148
:103DB800C3F1200201FA03FC20FA02F29E4042EA13
:103DC8000C0C9C404FEA164EB7B2BCFBFEF1220C1D
:103DD8000EFB11CC42EA0C4201FB07F0904209D9D4
:103DE800B21801F1FF3C80F0EE80904240F2EB8087
:103DF80002393244121AA4B2B2FBFEF00EFB1022B2
:103E080044EA024400FB07F7A74209D9341900F134
:103E1800FF3280F0DA80A74240F2D780344402387B
:103E280040EA0140E41B00211DB1DC400023C5E944
:103E38000043BDE8F0878B4206D90DB1C5E9000102
:103E480000210846BDE8F087B3FA83F1002948D17C
:103E5800BB4202D3824200F20781841A67EB030255
:103E680001209446002DE4D0C5E9004CE1E7002A82
:103E780000F09280B2FA82F3002B40F0A8808A1AF0
:103E88004FEA164E1FFA86FC0121200CB2FBFEF702
:103E98000EFB172240EA02420CFB07F0904207D9BA
:103EA800B21807F1FF3802D2904200F2E28047468A
:103EB800121AA4B2B2FBFEF00EFB102244EA02442E
:103EC8000CFB00FCA44507D9341900F1FF3202D2DB
:103ED800A44500F2CB801046A4EB0C0440EA07404E
:103EE800A2E7C1F120068B4022FA06FC4CEA030C3B
:103EF80007FA01F420FA06F3F7404FEA1C49234376
:103F080000FA01F81FFA8CFEB7FBF9F01C0C09FB4C
:103F1800107744EA074400FB0EF7A74202FA01F2C1
:103F28000AD91CEB040400F1FF3A80F09B80A742F9
:103F380040F2988002386444E41B9FB2B4FBF9F362
:103F480009FB134447EA044403FB0EFEA64509D9BE
:103F58001CEB040403F1FF3780F08280A6457FD96B
:103F6800023B644443EA0040A4EB0E04A0FB02E7D2
:103F7800BC427346B94663D360D05DB1B8EB030267
:103F880064EB090404FA06F622FA01F31E43CC4056
:103F9800C5E9006400214CE76208480842EAC1719B
:103FA8000B0C43EA00438AB242EA0342B3FBF6F140
:103FB800E407B4463746B6461F23B0FBF6F0D21BDB
:103FC80041EA004161E7614614E7104628E7C3F17A
:103FD800200120FA01F29E4027FA01F19F403A435E
:103FE8004FEA164E1FFA86FCB1FBFEF70EFB1710C0
:103FF800110C41EA004107FB0CF8884504FA03F468
:104008003AD9711807F1FF3001D288451FD8A1EBC2
:104018000801B1FBFEF808FB0CF70EFB181192B271
:1040280042EA0142BA422FD2B21808F1FF31C6D291
:10403800BA42C4D2A8F102013244C0E7F0459CD28A
:10404800BEEB020367EB0C070138B94695E7A6EB10
:1040580008084144B81EB1FBFEF808FB0CF7DCE782
:104068003B467FE7504667E70846FBE6344402389C
:1040780032E7023F32441BE7A1EB08013846B1FBA7
:10408800FEF808FB0CF7C8E7414698E7F8B500BF0B
:10409800F8BC08BC9E467047F8B500BFF8BC08BC21
:0440A8009E46704779
:1040AC00FC410120FC210120202020202020202068
:1040BC00000000005249464600000000574156459A
:1040CC0000000000666D74200000000064617461E3
:1040DC00000000004244000053440000434800002C
:1040EC004F4800004350000000000000000000009A
:1040FC000102030406070809000610160006101634
:08410C0090FCFF7F01000000A0
:04411400E1010008BD
:04411800BD010008DD
:10411C00010000000024F400010000001000000069
:0400000508003CB5FE
:00000001FF
